{
  "_format": "hh-sol-artifact-1",
  "contractName": "Battle",
  "sourceName": "contracts/battle/Battle.sol",
  "abi": [
    {
      "inputs": [],
      "stateMutability": "nonpayable",
      "type": "constructor"
    },
    {
      "anonymous": false,
      "inputs": [
        {
          "indexed": false,
          "internalType": "address",
          "name": "previousAdmin",
          "type": "address"
        },
        {
          "indexed": false,
          "internalType": "address",
          "name": "newAdmin",
          "type": "address"
        }
      ],
      "name": "AdminChanged",
      "type": "event"
    },
    {
      "anonymous": false,
      "inputs": [
        {
          "indexed": true,
          "internalType": "address",
          "name": "beacon",
          "type": "address"
        }
      ],
      "name": "BeaconUpgraded",
      "type": "event"
    },
    {
      "anonymous": false,
      "inputs": [
        {
          "indexed": false,
          "internalType": "uint8",
          "name": "version",
          "type": "uint8"
        }
      ],
      "name": "Initialized",
      "type": "event"
    },
    {
      "anonymous": false,
      "inputs": [
        {
          "indexed": true,
          "internalType": "bytes32",
          "name": "role",
          "type": "bytes32"
        },
        {
          "indexed": true,
          "internalType": "bytes32",
          "name": "previousAdminRole",
          "type": "bytes32"
        },
        {
          "indexed": true,
          "internalType": "bytes32",
          "name": "newAdminRole",
          "type": "bytes32"
        }
      ],
      "name": "RoleAdminChanged",
      "type": "event"
    },
    {
      "anonymous": false,
      "inputs": [
        {
          "indexed": true,
          "internalType": "bytes32",
          "name": "role",
          "type": "bytes32"
        },
        {
          "indexed": true,
          "internalType": "address",
          "name": "account",
          "type": "address"
        },
        {
          "indexed": true,
          "internalType": "address",
          "name": "sender",
          "type": "address"
        }
      ],
      "name": "RoleGranted",
      "type": "event"
    },
    {
      "anonymous": false,
      "inputs": [
        {
          "indexed": true,
          "internalType": "bytes32",
          "name": "role",
          "type": "bytes32"
        },
        {
          "indexed": true,
          "internalType": "address",
          "name": "account",
          "type": "address"
        },
        {
          "indexed": true,
          "internalType": "address",
          "name": "sender",
          "type": "address"
        }
      ],
      "name": "RoleRevoked",
      "type": "event"
    },
    {
      "anonymous": false,
      "inputs": [
        {
          "indexed": true,
          "internalType": "address",
          "name": "implementation",
          "type": "address"
        }
      ],
      "name": "Upgraded",
      "type": "event"
    },
    {
      "inputs": [],
      "name": "DEFAULT_ADMIN_ROLE",
      "outputs": [
        {
          "internalType": "bytes32",
          "name": "",
          "type": "bytes32"
        }
      ],
      "stateMutability": "view",
      "type": "function"
    },
    {
      "inputs": [
        {
          "internalType": "address",
          "name": "battleSeasonAddress",
          "type": "address"
        }
      ],
      "name": "addBattleSeasonAddress",
      "outputs": [],
      "stateMutability": "nonpayable",
      "type": "function"
    },
    {
      "inputs": [
        {
          "internalType": "uint256",
          "name": "seasonId",
          "type": "uint256"
        },
        {
          "internalType": "uint256",
          "name": "winMonsterId",
          "type": "uint256"
        },
        {
          "internalType": "uint256",
          "name": "loseMonsterId",
          "type": "uint256"
        },
        {
          "internalType": "string",
          "name": "battleLog",
          "type": "string"
        }
      ],
      "name": "addSeasonBattleData",
      "outputs": [],
      "stateMutability": "nonpayable",
      "type": "function"
    },
    {
      "inputs": [
        {
          "internalType": "uint256",
          "name": "monsterId",
          "type": "uint256"
        }
      ],
      "name": "calculateStamina",
      "outputs": [
        {
          "internalType": "uint256",
          "name": "",
          "type": "uint256"
        }
      ],
      "stateMutability": "view",
      "type": "function"
    },
    {
      "inputs": [
        {
          "internalType": "uint256",
          "name": "monsterId",
          "type": "uint256"
        },
        {
          "internalType": "uint256",
          "name": "consumedStamina",
          "type": "uint256"
        }
      ],
      "name": "consumeStamina",
      "outputs": [],
      "stateMutability": "nonpayable",
      "type": "function"
    },
    {
      "inputs": [
        {
          "internalType": "uint256",
          "name": "seasonId",
          "type": "uint256"
        },
        {
          "internalType": "uint256[]",
          "name": "monsterIds",
          "type": "uint256[]"
        }
      ],
      "name": "getBatchSeasonMatchCount",
      "outputs": [
        {
          "internalType": "uint256[]",
          "name": "",
          "type": "uint256[]"
        }
      ],
      "stateMutability": "view",
      "type": "function"
    },
    {
      "inputs": [
        {
          "internalType": "uint256",
          "name": "seasonId",
          "type": "uint256"
        },
        {
          "internalType": "uint256[]",
          "name": "monsterIds",
          "type": "uint256[]"
        }
      ],
      "name": "getBatchSeasonWinCount",
      "outputs": [
        {
          "internalType": "uint256[]",
          "name": "",
          "type": "uint256[]"
        }
      ],
      "stateMutability": "view",
      "type": "function"
    },
    {
      "inputs": [
        {
          "internalType": "uint256",
          "name": "seasonId",
          "type": "uint256"
        }
      ],
      "name": "getBattleSeasonAddress",
      "outputs": [
        {
          "internalType": "address",
          "name": "",
          "type": "address"
        }
      ],
      "stateMutability": "view",
      "type": "function"
    },
    {
      "inputs": [],
      "name": "getBattleSeasonsAddress",
      "outputs": [
        {
          "internalType": "address[]",
          "name": "",
          "type": "address[]"
        }
      ],
      "stateMutability": "view",
      "type": "function"
    },
    {
      "inputs": [],
      "name": "getBattleSeasonsAddressLength",
      "outputs": [
        {
          "internalType": "uint256",
          "name": "",
          "type": "uint256"
        }
      ],
      "stateMutability": "view",
      "type": "function"
    },
    {
      "inputs": [
        {
          "internalType": "bytes32",
          "name": "role",
          "type": "bytes32"
        }
      ],
      "name": "getRoleAdmin",
      "outputs": [
        {
          "internalType": "bytes32",
          "name": "",
          "type": "bytes32"
        }
      ],
      "stateMutability": "view",
      "type": "function"
    },
    {
      "inputs": [
        {
          "internalType": "bytes32",
          "name": "role",
          "type": "bytes32"
        },
        {
          "internalType": "uint256",
          "name": "index",
          "type": "uint256"
        }
      ],
      "name": "getRoleMember",
      "outputs": [
        {
          "internalType": "address",
          "name": "",
          "type": "address"
        }
      ],
      "stateMutability": "view",
      "type": "function"
    },
    {
      "inputs": [
        {
          "internalType": "bytes32",
          "name": "role",
          "type": "bytes32"
        }
      ],
      "name": "getRoleMemberCount",
      "outputs": [
        {
          "internalType": "uint256",
          "name": "",
          "type": "uint256"
        }
      ],
      "stateMutability": "view",
      "type": "function"
    },
    {
      "inputs": [
        {
          "internalType": "uint256",
          "name": "seasonId",
          "type": "uint256"
        }
      ],
      "name": "getSeasonBattleData",
      "outputs": [
        {
          "components": [
            {
              "internalType": "uint256",
              "name": "timestamp",
              "type": "uint256"
            },
            {
              "internalType": "uint256",
              "name": "winMonsterId",
              "type": "uint256"
            },
            {
              "internalType": "uint256",
              "name": "loseMonsterId",
              "type": "uint256"
            },
            {
              "internalType": "string",
              "name": "battleLog",
              "type": "string"
            }
          ],
          "internalType": "struct IBattleSeason.BattleData[]",
          "name": "",
          "type": "tuple[]"
        }
      ],
      "stateMutability": "view",
      "type": "function"
    },
    {
      "inputs": [
        {
          "internalType": "uint256",
          "name": "seasonId",
          "type": "uint256"
        },
        {
          "internalType": "uint256",
          "name": "monsterId",
          "type": "uint256"
        }
      ],
      "name": "getSeasonBattleDataByMonsterId",
      "outputs": [
        {
          "components": [
            {
              "internalType": "uint256",
              "name": "timestamp",
              "type": "uint256"
            },
            {
              "internalType": "uint256",
              "name": "winMonsterId",
              "type": "uint256"
            },
            {
              "internalType": "uint256",
              "name": "loseMonsterId",
              "type": "uint256"
            },
            {
              "internalType": "string",
              "name": "battleLog",
              "type": "string"
            }
          ],
          "internalType": "struct IBattleSeason.BattleData[]",
          "name": "",
          "type": "tuple[]"
        }
      ],
      "stateMutability": "view",
      "type": "function"
    },
    {
      "inputs": [
        {
          "internalType": "uint256",
          "name": "seasonId",
          "type": "uint256"
        },
        {
          "internalType": "uint256",
          "name": "monsterId",
          "type": "uint256"
        }
      ],
      "name": "getSeasonBattleIdList",
      "outputs": [
        {
          "internalType": "uint256[]",
          "name": "",
          "type": "uint256[]"
        }
      ],
      "stateMutability": "view",
      "type": "function"
    },
    {
      "inputs": [
        {
          "internalType": "uint256",
          "name": "seasonId",
          "type": "uint256"
        },
        {
          "internalType": "uint256",
          "name": "monsterId",
          "type": "uint256"
        }
      ],
      "name": "getSeasonMatchCount",
      "outputs": [
        {
          "internalType": "uint256",
          "name": "",
          "type": "uint256"
        }
      ],
      "stateMutability": "view",
      "type": "function"
    },
    {
      "inputs": [
        {
          "internalType": "uint256",
          "name": "seasonId",
          "type": "uint256"
        },
        {
          "internalType": "uint256",
          "name": "monsterId",
          "type": "uint256"
        }
      ],
      "name": "getSeasonWinCount",
      "outputs": [
        {
          "internalType": "uint256",
          "name": "",
          "type": "uint256"
        }
      ],
      "stateMutability": "view",
      "type": "function"
    },
    {
      "inputs": [
        {
          "internalType": "bytes32",
          "name": "role",
          "type": "bytes32"
        },
        {
          "internalType": "address",
          "name": "account",
          "type": "address"
        }
      ],
      "name": "grantRole",
      "outputs": [],
      "stateMutability": "nonpayable",
      "type": "function"
    },
    {
      "inputs": [
        {
          "internalType": "bytes32",
          "name": "role",
          "type": "bytes32"
        },
        {
          "internalType": "address",
          "name": "account",
          "type": "address"
        }
      ],
      "name": "hasRole",
      "outputs": [
        {
          "internalType": "bool",
          "name": "",
          "type": "bool"
        }
      ],
      "stateMutability": "view",
      "type": "function"
    },
    {
      "inputs": [
        {
          "internalType": "address",
          "name": "promptMonstersAddress",
          "type": "address"
        },
        {
          "internalType": "address",
          "name": "staminaAddress",
          "type": "address"
        }
      ],
      "name": "initialize",
      "outputs": [],
      "stateMutability": "nonpayable",
      "type": "function"
    },
    {
      "inputs": [],
      "name": "promptMonsters",
      "outputs": [
        {
          "internalType": "contract IPromptMonsters",
          "name": "",
          "type": "address"
        }
      ],
      "stateMutability": "view",
      "type": "function"
    },
    {
      "inputs": [],
      "name": "proxiableUUID",
      "outputs": [
        {
          "internalType": "bytes32",
          "name": "",
          "type": "bytes32"
        }
      ],
      "stateMutability": "view",
      "type": "function"
    },
    {
      "inputs": [
        {
          "internalType": "bytes32",
          "name": "role",
          "type": "bytes32"
        },
        {
          "internalType": "address",
          "name": "account",
          "type": "address"
        }
      ],
      "name": "renounceRole",
      "outputs": [],
      "stateMutability": "nonpayable",
      "type": "function"
    },
    {
      "inputs": [
        {
          "internalType": "bytes32",
          "name": "role",
          "type": "bytes32"
        },
        {
          "internalType": "address",
          "name": "account",
          "type": "address"
        }
      ],
      "name": "revokeRole",
      "outputs": [],
      "stateMutability": "nonpayable",
      "type": "function"
    },
    {
      "inputs": [
        {
          "internalType": "uint256",
          "name": "seasonId",
          "type": "uint256"
        },
        {
          "internalType": "address",
          "name": "battleSeasonAddress",
          "type": "address"
        }
      ],
      "name": "setBattleSeasonAddress",
      "outputs": [],
      "stateMutability": "nonpayable",
      "type": "function"
    },
    {
      "inputs": [
        {
          "internalType": "address",
          "name": "promptMonstersAddress",
          "type": "address"
        }
      ],
      "name": "setPromptMonstersAddress",
      "outputs": [],
      "stateMutability": "nonpayable",
      "type": "function"
    },
    {
      "inputs": [],
      "name": "stamina",
      "outputs": [
        {
          "internalType": "contract IStamina",
          "name": "",
          "type": "address"
        }
      ],
      "stateMutability": "view",
      "type": "function"
    },
    {
      "inputs": [
        {
          "internalType": "bytes4",
          "name": "interfaceId",
          "type": "bytes4"
        }
      ],
      "name": "supportsInterface",
      "outputs": [
        {
          "internalType": "bool",
          "name": "",
          "type": "bool"
        }
      ],
      "stateMutability": "view",
      "type": "function"
    },
    {
      "inputs": [
        {
          "internalType": "address",
          "name": "newImplementation",
          "type": "address"
        }
      ],
      "name": "upgradeTo",
      "outputs": [],
      "stateMutability": "nonpayable",
      "type": "function"
    },
    {
      "inputs": [
        {
          "internalType": "address",
          "name": "newImplementation",
          "type": "address"
        },
        {
          "internalType": "bytes",
          "name": "data",
          "type": "bytes"
        }
      ],
      "name": "upgradeToAndCall",
      "outputs": [],
      "stateMutability": "payable",
      "type": "function"
    }
  ],
  "bytecode": "0x60a06040523060805234801561001457600080fd5b5061001d610022565b6100e2565b600054610100900460ff161561008e5760405162461bcd60e51b815260206004820152602760248201527f496e697469616c697a61626c653a20636f6e747261637420697320696e697469604482015266616c697a696e6760c81b606482015260840160405180910390fd5b60005460ff90811610156100e0576000805460ff191660ff9081179091556040519081527f7f26b83ff96e1f2b6a682f133852f6798a09c465da95921460cefb38474024989060200160405180910390a15b565b60805161248b6200011a600039600081816107d40152818161081401528181610a0a01528181610a4a0152610ad9015261248b6000f3fe6080604052600436106101d85760003560e01c806391d1485411610102578063d547741f11610095578063dc33eaac11610064578063dc33eaac1461057a578063dde1bef51461059a578063f1bce039146105bb578063f53cd649146105db57600080fd5b8063d547741f146104fa578063d57880671461051a578063d5bacb031461053a578063d770a2881461055a57600080fd5b8063b3de2218116100d1578063b3de221814610479578063ca15c87314610499578063cd8aaab1146104b9578063ce32cee2146104d957600080fd5b806391d1485414610404578063a0aa949714610424578063a217fddf14610444578063a851260a1461045957600080fd5b8063485cc9551161017a5780635dff8e1b116101495780635dff8e1b14610352578063739420a51461037f5780637616431a1461039f5780639010d07c146103cc57600080fd5b8063485cc955146102f45780634b1c115e146103145780634f1ef2861461032a57806352d1902d1461033d57600080fd5b8063248a9ca3116101b6578063248a9ca3146102625780632f2ff15d1461029257806336568abe146102b45780633659cfe6146102d457600080fd5b806301ffc9a7146101dd5780630e919c1214610212578063133d5b8214610240575b600080fd5b3480156101e957600080fd5b506101fd6101f8366004611b77565b6105fb565b60405190151581526020015b60405180910390f35b34801561021e57600080fd5b5061023261022d366004611ba1565b610626565b604051908152602001610209565b34801561024c57600080fd5b506102556106ba565b6040516102099190611bc3565b34801561026e57600080fd5b5061023261027d366004611c10565b60009081526065602052604090206001015490565b34801561029e57600080fd5b506102b26102ad366004611c45565b61071d565b005b3480156102c057600080fd5b506102b26102cf366004611c45565b610747565b3480156102e057600080fd5b506102b26102ef366004611c71565b6107ca565b34801561030057600080fd5b506102b261030f366004611c8c565b6108a9565b34801561032057600080fd5b5061012f54610232565b6102b2610338366004611d8c565b610a00565b34801561034957600080fd5b50610232610acc565b34801561035e57600080fd5b5061037261036d366004611ba1565b610b7f565b6040516102099190611e3e565b34801561038b57600080fd5b506102b261039a366004611ba1565b610c0f565b3480156103ab57600080fd5b506103bf6103ba366004611ba1565b610ce2565b6040516102099190611ec9565b3480156103d857600080fd5b506103ec6103e7366004611ba1565b610d73565b6040516001600160a01b039091168152602001610209565b34801561041057600080fd5b506101fd61041f366004611c45565b610d8b565b34801561043057600080fd5b506102b261043f366004611c45565b610db6565b34801561045057600080fd5b50610232600081565b34801561046557600080fd5b50610232610474366004611c10565b610e09565b34801561048557600080fd5b50610372610494366004611c10565b610e78565b3480156104a557600080fd5b506102326104b4366004611c10565b610f02565b3480156104c557600080fd5b506102326104d4366004611ba1565b610f19565b3480156104e557600080fd5b5061012d546103ec906001600160a01b031681565b34801561050657600080fd5b506102b2610515366004611c45565b610f69565b34801561052657600080fd5b506103bf610535366004611f25565b610f8e565b34801561054657600080fd5b506102b2610555366004611c71565b610fdd565b34801561056657600080fd5b506102b2610575366004611c71565b61100c565b34801561058657600080fd5b506103bf610595366004611f25565b61106b565b3480156105a657600080fd5b5061012e546103ec906001600160a01b031681565b3480156105c757600080fd5b506102b26105d6366004611fc2565b6110b8565b3480156105e757600080fd5b506103ec6105f6366004611c10565b611207565b60006001600160e01b03198216635a05180f60e01b1480610620575061062082611238565b92915050565b600061012f838154811061063c5761063c612030565b600091825260209091200154604051633b5bcd0f60e11b8152600481018490526001600160a01b03909116906376b79a1e906024015b602060405180830381865afa15801561068f573d6000803e3d6000fd5b505050506040513d601f19601f820116820180604052508101906106b39190612046565b9392505050565b606061012f80548060200260200160405190810160405280929190818152602001828054801561071357602002820191906000526020600020905b81546001600160a01b031681526001909101906020018083116106f5575b5050505050905090565b6000828152606560205260409020600101546107388161126d565b6107428383611277565b505050565b6001600160a01b03811633146107bc5760405162461bcd60e51b815260206004820152602f60248201527f416363657373436f6e74726f6c3a2063616e206f6e6c792072656e6f756e636560448201526e103937b632b9903337b91039b2b63360891b60648201526084015b60405180910390fd5b6107c68282611299565b5050565b6001600160a01b037f00000000000000000000000000000000000000000000000000000000000000001630036108125760405162461bcd60e51b81526004016107b39061205f565b7f00000000000000000000000000000000000000000000000000000000000000006001600160a01b031661085b60008051602061240f833981519152546001600160a01b031690565b6001600160a01b0316146108815760405162461bcd60e51b81526004016107b3906120ab565b61088a816112bb565b604080516000808252602082019092526108a6918391906112c6565b50565b600054610100900460ff16158080156108c95750600054600160ff909116105b806108e35750303b1580156108e3575060005460ff166001145b6109465760405162461bcd60e51b815260206004820152602e60248201527f496e697469616c697a61626c653a20636f6e747261637420697320616c72656160448201526d191e481a5b9a5d1a585b1a5e995960921b60648201526084016107b3565b6000805460ff191660011790558015610969576000805461ff0019166101001790555b610971611431565b610979611431565b61012d80546001600160a01b038086166001600160a01b03199283161790925561012e8054928516929091169190911790556109b6600033611277565b8015610742576000805461ff0019169055604051600181527f7f26b83ff96e1f2b6a682f133852f6798a09c465da95921460cefb38474024989060200160405180910390a1505050565b6001600160a01b037f0000000000000000000000000000000000000000000000000000000000000000163003610a485760405162461bcd60e51b81526004016107b39061205f565b7f00000000000000000000000000000000000000000000000000000000000000006001600160a01b0316610a9160008051602061240f833981519152546001600160a01b031690565b6001600160a01b031614610ab75760405162461bcd60e51b81526004016107b3906120ab565b610ac0826112bb565b6107c6828260016112c6565b6000306001600160a01b037f00000000000000000000000000000000000000000000000000000000000000001614610b6c5760405162461bcd60e51b815260206004820152603860248201527f555550535570677261646561626c653a206d757374206e6f742062652063616c60448201527f6c6564207468726f7567682064656c656761746563616c6c000000000000000060648201526084016107b3565b5060008051602061240f83398151915290565b606061012f8381548110610b9557610b95612030565b600091825260209091200154604051636426cea160e11b8152600481018490526001600160a01b039091169063c84d9d4290602401600060405180830381865afa158015610be7573d6000803e3d6000fd5b505050506040513d6000823e601f3d908101601f191682016040526106b391908101906120f7565b6000610c1a8161126d565b61012d54604051638318646560e01b8152600481018590526001600160a01b039091169063831864659060240160006040518083038186803b158015610c5f57600080fd5b505afa158015610c73573d6000803e3d6000fd5b505061012e5460405163739420a560e01b815260048101879052602481018690526001600160a01b03909116925063739420a59150604401600060405180830381600087803b158015610cc557600080fd5b505af1158015610cd9573d6000803e3d6000fd5b50505050505050565b606061012f8381548110610cf857610cf8612030565b600091825260209091200154604051636304f6b760e11b8152600481018490526001600160a01b039091169063c609ed6e906024015b600060405180830381865afa158015610d4b573d6000803e3d6000fd5b505050506040513d6000823e601f3d908101601f191682016040526106b3919081019061223a565b60008281526097602052604081206106b3908361149e565b60009182526065602090815260408084206001600160a01b0393909316845291905290205460ff1690565b6000610dc18161126d565b8161012f8481548110610dd657610dd6612030565b9060005260206000200160006101000a8154816001600160a01b0302191690836001600160a01b03160217905550505050565b61012e54604051635428930560e11b8152600481018390526000916001600160a01b03169063a851260a90602401602060405180830381865afa158015610e54573d6000803e3d6000fd5b505050506040513d601f19601f820116820180604052508101906106209190612046565b606061012f8281548110610e8e57610e8e612030565b60009182526020822001546040805163748a6d1160e01b815290516001600160a01b039092169263748a6d11926004808401938290030181865afa158015610eda573d6000803e3d6000fd5b505050506040513d6000823e601f3d908101601f1916820160405261062091908101906120f7565b6000818152609760205260408120610620906114aa565b600061012f8381548110610f2f57610f2f612030565b6000918252602090912001546040516339e0038360e21b8152600481018490526001600160a01b039091169063e7800e0c90602401610672565b600082815260656020526040902060010154610f848161126d565b6107428383611299565b606061012f8381548110610fa457610fa4612030565b60009182526020909120015460405163b34da6e360e01b81526001600160a01b039091169063b34da6e390610d2e908590600401611ec9565b6000610fe88161126d565b5061012d80546001600160a01b0319166001600160a01b0392909216919091179055565b60006110178161126d565b5061012f80546001810182556000919091527f232da9e50dad2971456a78fb5cd6ff6b75019984d6e918139ce990999420f9790180546001600160a01b0319166001600160a01b0392909216919091179055565b606061012f838154811061108157611081612030565b6000918252602090912001546040516285f54d60e01b81526001600160a01b03909116906285f54d90610d2e908590600401611ec9565b60006110c38161126d565b61012d54604051638318646560e01b8152600481018690526001600160a01b039091169063831864659060240160006040518083038186803b15801561110857600080fd5b505afa15801561111c573d6000803e3d6000fd5b505061012d54604051638318646560e01b8152600481018790526001600160a01b0390911692506383186465915060240160006040518083038186803b15801561116557600080fd5b505afa158015611179573d6000803e3d6000fd5b5050505061012f858154811061119157611191612030565b6000918252602090912001546040516301a53ac760e21b81526001600160a01b0390911690630694eb1c906111ce908790879087906004016122cb565b600060405180830381600087803b1580156111e857600080fd5b505af11580156111fc573d6000803e3d6000fd5b505050505050505050565b600061012f828154811061121d5761121d612030565b6000918252602090912001546001600160a01b031692915050565b60006001600160e01b03198216637965db0b60e01b148061062057506301ffc9a760e01b6001600160e01b0319831614610620565b6108a681336114b4565b611281828261150d565b60008281526097602052604090206107429082611593565b6112a382826115a8565b6000828152609760205260409020610742908261160f565b60006107c68161126d565b7f4910fdfa16fed3260ed0e7147f7cc6da11a60208b5b9406d12a635614ffd91435460ff16156112f95761074283611624565b826001600160a01b03166352d1902d6040518163ffffffff1660e01b8152600401602060405180830381865afa925050508015611353575060408051601f3d908101601f1916820190925261135091810190612046565b60015b6113b65760405162461bcd60e51b815260206004820152602e60248201527f45524331393637557067726164653a206e657720696d706c656d656e7461746960448201526d6f6e206973206e6f74205555505360901b60648201526084016107b3565b60008051602061240f83398151915281146114255760405162461bcd60e51b815260206004820152602960248201527f45524331393637557067726164653a20756e737570706f727465642070726f786044820152681a58589b195555525160ba1b60648201526084016107b3565b506107428383836116c0565b600054610100900460ff1661149c5760405162461bcd60e51b815260206004820152602b60248201527f496e697469616c697a61626c653a20636f6e7472616374206973206e6f74206960448201526a6e697469616c697a696e6760a81b60648201526084016107b3565b565b60006106b383836116eb565b6000610620825490565b6114be8282610d8b565b6107c6576114cb81611715565b6114d6836020611727565b6040516020016114e79291906122ea565b60408051601f198184030181529082905262461bcd60e51b82526107b39160040161235f565b6115178282610d8b565b6107c65760008281526065602090815260408083206001600160a01b03851684529091529020805460ff1916600117905561154f3390565b6001600160a01b0316816001600160a01b0316837f2f8788117e7eff1d82e926ec794901d17c78024a50270940304540a733656f0d60405160405180910390a45050565b60006106b3836001600160a01b0384166118c3565b6115b28282610d8b565b156107c65760008281526065602090815260408083206001600160a01b0385168085529252808320805460ff1916905551339285917ff6391f5c32d9c69d2a47ea670b442974b53935d1edc7fd64eb21e047a839171b9190a45050565b60006106b3836001600160a01b038416611912565b6001600160a01b0381163b6116915760405162461bcd60e51b815260206004820152602d60248201527f455243313936373a206e657720696d706c656d656e746174696f6e206973206e60448201526c1bdd08184818dbdb9d1c9858dd609a1b60648201526084016107b3565b60008051602061240f83398151915280546001600160a01b0319166001600160a01b0392909216919091179055565b6116c983611a05565b6000825111806116d65750805b15610742576116e58383611a45565b50505050565b600082600001828154811061170257611702612030565b9060005260206000200154905092915050565b60606106206001600160a01b03831660145b60606000611736836002612388565b61174190600261239f565b67ffffffffffffffff81111561175957611759611cb6565b6040519080825280601f01601f191660200182016040528015611783576020820181803683370190505b509050600360fc1b8160008151811061179e5761179e612030565b60200101906001600160f81b031916908160001a905350600f60fb1b816001815181106117cd576117cd612030565b60200101906001600160f81b031916908160001a90535060006117f1846002612388565b6117fc90600161239f565b90505b6001811115611874576f181899199a1a9b1b9c1cb0b131b232b360811b85600f166010811061183057611830612030565b1a60f81b82828151811061184657611846612030565b60200101906001600160f81b031916908160001a90535060049490941c9361186d816123b2565b90506117ff565b5083156106b35760405162461bcd60e51b815260206004820181905260248201527f537472696e67733a20686578206c656e67746820696e73756666696369656e7460448201526064016107b3565b600081815260018301602052604081205461190a57508154600181810184556000848152602080822090930184905584548482528286019093526040902091909155610620565b506000610620565b600081815260018301602052604081205480156119fb5760006119366001836123c9565b855490915060009061194a906001906123c9565b90508181146119af57600086600001828154811061196a5761196a612030565b906000526020600020015490508087600001848154811061198d5761198d612030565b6000918252602080832090910192909255918252600188019052604090208390555b85548690806119c0576119c06123dc565b600190038181906000526020600020016000905590558560010160008681526020019081526020016000206000905560019350505050610620565b6000915050610620565b611a0e81611624565b6040516001600160a01b038216907fbc7cd75a20ee27fd9adebab32041f755214dbc6bffa90cc0225b39da2e5c2d3b90600090a250565b60606001600160a01b0383163b611aad5760405162461bcd60e51b815260206004820152602660248201527f416464726573733a2064656c65676174652063616c6c20746f206e6f6e2d636f6044820152651b9d1c9858dd60d21b60648201526084016107b3565b600080846001600160a01b031684604051611ac891906123f2565b600060405180830381855af49150503d8060008114611b03576040519150601f19603f3d011682016040523d82523d6000602084013e611b08565b606091505b5091509150611b30828260405180606001604052806027815260200161242f60279139611b39565b95945050505050565b60608315611b485750816106b3565b6106b38383815115611b5d5781518083602001fd5b8060405162461bcd60e51b81526004016107b3919061235f565b600060208284031215611b8957600080fd5b81356001600160e01b0319811681146106b357600080fd5b60008060408385031215611bb457600080fd5b50508035926020909101359150565b6020808252825182820181905260009190848201906040850190845b81811015611c045783516001600160a01b031683529284019291840191600101611bdf565b50909695505050505050565b600060208284031215611c2257600080fd5b5035919050565b80356001600160a01b0381168114611c4057600080fd5b919050565b60008060408385031215611c5857600080fd5b82359150611c6860208401611c29565b90509250929050565b600060208284031215611c8357600080fd5b6106b382611c29565b60008060408385031215611c9f57600080fd5b611ca883611c29565b9150611c6860208401611c29565b634e487b7160e01b600052604160045260246000fd5b6040516080810167ffffffffffffffff81118282101715611cef57611cef611cb6565b60405290565b604051601f8201601f1916810167ffffffffffffffff81118282101715611d1e57611d1e611cb6565b604052919050565b600067ffffffffffffffff821115611d4057611d40611cb6565b50601f01601f191660200190565b6000611d61611d5c84611d26565b611cf5565b9050828152838383011115611d7557600080fd5b828260208301376000602084830101529392505050565b60008060408385031215611d9f57600080fd5b611da883611c29565b9150602083013567ffffffffffffffff811115611dc457600080fd5b8301601f81018513611dd557600080fd5b611de485823560208401611d4e565b9150509250929050565b60005b83811015611e09578181015183820152602001611df1565b50506000910152565b60008151808452611e2a816020860160208601611dee565b601f01601f19169290920160200192915050565b60006020808301818452808551808352604092508286019150828160051b87010184880160005b83811015611ebb57888303603f1901855281518051845287810151888501528681015187850152606090810151608091850182905290611ea781860183611e12565b968901969450505090860190600101611e65565b509098975050505050505050565b6020808252825182820181905260009190848201906040850190845b81811015611c0457835183529284019291840191600101611ee5565b600067ffffffffffffffff821115611f1b57611f1b611cb6565b5060051b60200190565b60008060408385031215611f3857600080fd5b8235915060208084013567ffffffffffffffff811115611f5757600080fd5b8401601f81018613611f6857600080fd5b8035611f76611d5c82611f01565b81815260059190911b82018301908381019088831115611f9557600080fd5b928401925b82841015611fb357833582529284019290840190611f9a565b80955050505050509250929050565b60008060008060808587031215611fd857600080fd5b843593506020850135925060408501359150606085013567ffffffffffffffff81111561200457600080fd5b8501601f8101871361201557600080fd5b61202487823560208401611d4e565b91505092959194509250565b634e487b7160e01b600052603260045260246000fd5b60006020828403121561205857600080fd5b5051919050565b6020808252602c908201527f46756e6374696f6e206d7573742062652063616c6c6564207468726f7567682060408201526b19195b1959d85d1958d85b1b60a21b606082015260800190565b6020808252602c908201527f46756e6374696f6e206d7573742062652063616c6c6564207468726f7567682060408201526b6163746976652070726f787960a01b606082015260800190565b6000602080838503121561210a57600080fd5b825167ffffffffffffffff8082111561212257600080fd5b818501915085601f83011261213657600080fd5b8151612144611d5c82611f01565b81815260059190911b8301840190848101908883111561216357600080fd5b8585015b8381101561222d5780518581111561217f5760008081fd5b86016080818c03601f19018113156121975760008081fd5b61219f611ccc565b828a01518152604080840151828c0152606080850151828401529284015192898411156121cc5760008081fd5b83850194508e603f8601126121e357600093508384fd5b8b85015193506121f5611d5c85611d26565b8481528f8386880101111561220a5760008081fd5b612219858e8301858901611dee565b908301525085525050918601918601612167565b5098975050505050505050565b6000602080838503121561224d57600080fd5b825167ffffffffffffffff81111561226457600080fd5b8301601f8101851361227557600080fd5b8051612283611d5c82611f01565b81815260059190911b820183019083810190878311156122a257600080fd5b928401925b828410156122c0578351825292840192908401906122a7565b979650505050505050565b838152826020820152606060408201526000611b306060830184611e12565b7f416363657373436f6e74726f6c3a206163636f756e7420000000000000000000815260008351612322816017850160208801611dee565b7001034b99036b4b9b9b4b733903937b6329607d1b6017918401918201528351612353816028840160208801611dee565b01602801949350505050565b6020815260006106b36020830184611e12565b634e487b7160e01b600052601160045260246000fd5b808202811582820484141761062057610620612372565b8082018082111561062057610620612372565b6000816123c1576123c1612372565b506000190190565b8181038181111561062057610620612372565b634e487b7160e01b600052603160045260246000fd5b60008251612404818460208701611dee565b919091019291505056fe360894a13ba1a3210667c828492db98dca3e2076cc3735a920a3ca505d382bbc416464726573733a206c6f772d6c6576656c2064656c65676174652063616c6c206661696c6564a2646970667358221220a1a91b82875bb79117587f350cd8bfa941204e68c95a680b38f5b59a377538f964736f6c63430008120033",
  "linkReferences": {},
  "deployedLinkReferences": {}
}