{
  "_format": "hh-sol-artifact-1",
  "contractName": "Battle",
  "sourceName": "contracts/battle/Battle.sol",
  "abi": [
    {
      "inputs": [],
      "stateMutability": "nonpayable",
      "type": "constructor"
    },
    {
      "anonymous": false,
      "inputs": [
        {
          "indexed": false,
          "internalType": "address",
          "name": "previousAdmin",
          "type": "address"
        },
        {
          "indexed": false,
          "internalType": "address",
          "name": "newAdmin",
          "type": "address"
        }
      ],
      "name": "AdminChanged",
      "type": "event"
    },
    {
      "anonymous": false,
      "inputs": [
        {
          "indexed": true,
          "internalType": "address",
          "name": "beacon",
          "type": "address"
        }
      ],
      "name": "BeaconUpgraded",
      "type": "event"
    },
    {
      "anonymous": false,
      "inputs": [
        {
          "indexed": false,
          "internalType": "uint8",
          "name": "version",
          "type": "uint8"
        }
      ],
      "name": "Initialized",
      "type": "event"
    },
    {
      "anonymous": false,
      "inputs": [
        {
          "indexed": true,
          "internalType": "bytes32",
          "name": "role",
          "type": "bytes32"
        },
        {
          "indexed": true,
          "internalType": "bytes32",
          "name": "previousAdminRole",
          "type": "bytes32"
        },
        {
          "indexed": true,
          "internalType": "bytes32",
          "name": "newAdminRole",
          "type": "bytes32"
        }
      ],
      "name": "RoleAdminChanged",
      "type": "event"
    },
    {
      "anonymous": false,
      "inputs": [
        {
          "indexed": true,
          "internalType": "bytes32",
          "name": "role",
          "type": "bytes32"
        },
        {
          "indexed": true,
          "internalType": "address",
          "name": "account",
          "type": "address"
        },
        {
          "indexed": true,
          "internalType": "address",
          "name": "sender",
          "type": "address"
        }
      ],
      "name": "RoleGranted",
      "type": "event"
    },
    {
      "anonymous": false,
      "inputs": [
        {
          "indexed": true,
          "internalType": "bytes32",
          "name": "role",
          "type": "bytes32"
        },
        {
          "indexed": true,
          "internalType": "address",
          "name": "account",
          "type": "address"
        },
        {
          "indexed": true,
          "internalType": "address",
          "name": "sender",
          "type": "address"
        }
      ],
      "name": "RoleRevoked",
      "type": "event"
    },
    {
      "anonymous": false,
      "inputs": [
        {
          "indexed": true,
          "internalType": "address",
          "name": "implementation",
          "type": "address"
        }
      ],
      "name": "Upgraded",
      "type": "event"
    },
    {
      "inputs": [],
      "name": "DEFAULT_ADMIN_ROLE",
      "outputs": [
        {
          "internalType": "bytes32",
          "name": "",
          "type": "bytes32"
        }
      ],
      "stateMutability": "view",
      "type": "function"
    },
    {
      "inputs": [
        {
          "internalType": "address",
          "name": "battleSeasonAddress",
          "type": "address"
        }
      ],
      "name": "addBattleSeasonAddress",
      "outputs": [],
      "stateMutability": "nonpayable",
      "type": "function"
    },
    {
      "inputs": [
        {
          "internalType": "uint256",
          "name": "seasonId",
          "type": "uint256"
        },
        {
          "internalType": "uint256",
          "name": "monsterId",
          "type": "uint256"
        },
        {
          "internalType": "uint256",
          "name": "winMonsterId",
          "type": "uint256"
        },
        {
          "internalType": "uint256",
          "name": "loseMonsterId",
          "type": "uint256"
        },
        {
          "internalType": "string",
          "name": "battleLog",
          "type": "string"
        }
      ],
      "name": "addSeasonBattleData",
      "outputs": [],
      "stateMutability": "nonpayable",
      "type": "function"
    },
    {
      "inputs": [],
      "name": "battleStamina",
      "outputs": [
        {
          "internalType": "uint256",
          "name": "",
          "type": "uint256"
        }
      ],
      "stateMutability": "view",
      "type": "function"
    },
    {
      "inputs": [
        {
          "internalType": "uint256",
          "name": "seasonId",
          "type": "uint256"
        },
        {
          "internalType": "uint256[]",
          "name": "monsterIds",
          "type": "uint256[]"
        }
      ],
      "name": "getBatchSeasonMatchCount",
      "outputs": [
        {
          "internalType": "uint256[]",
          "name": "",
          "type": "uint256[]"
        }
      ],
      "stateMutability": "view",
      "type": "function"
    },
    {
      "inputs": [
        {
          "internalType": "uint256",
          "name": "seasonId",
          "type": "uint256"
        },
        {
          "internalType": "uint256[]",
          "name": "monsterIds",
          "type": "uint256[]"
        }
      ],
      "name": "getBatchSeasonWinCount",
      "outputs": [
        {
          "internalType": "uint256[]",
          "name": "",
          "type": "uint256[]"
        }
      ],
      "stateMutability": "view",
      "type": "function"
    },
    {
      "inputs": [
        {
          "internalType": "uint256",
          "name": "seasonId",
          "type": "uint256"
        }
      ],
      "name": "getBattleSeasonAddress",
      "outputs": [
        {
          "internalType": "address",
          "name": "",
          "type": "address"
        }
      ],
      "stateMutability": "view",
      "type": "function"
    },
    {
      "inputs": [],
      "name": "getBattleSeasonsAddress",
      "outputs": [
        {
          "internalType": "address[]",
          "name": "",
          "type": "address[]"
        }
      ],
      "stateMutability": "view",
      "type": "function"
    },
    {
      "inputs": [],
      "name": "getBattleSeasonsAddressLength",
      "outputs": [
        {
          "internalType": "uint256",
          "name": "",
          "type": "uint256"
        }
      ],
      "stateMutability": "view",
      "type": "function"
    },
    {
      "inputs": [
        {
          "internalType": "bytes32",
          "name": "role",
          "type": "bytes32"
        }
      ],
      "name": "getRoleAdmin",
      "outputs": [
        {
          "internalType": "bytes32",
          "name": "",
          "type": "bytes32"
        }
      ],
      "stateMutability": "view",
      "type": "function"
    },
    {
      "inputs": [
        {
          "internalType": "bytes32",
          "name": "role",
          "type": "bytes32"
        },
        {
          "internalType": "uint256",
          "name": "index",
          "type": "uint256"
        }
      ],
      "name": "getRoleMember",
      "outputs": [
        {
          "internalType": "address",
          "name": "",
          "type": "address"
        }
      ],
      "stateMutability": "view",
      "type": "function"
    },
    {
      "inputs": [
        {
          "internalType": "bytes32",
          "name": "role",
          "type": "bytes32"
        }
      ],
      "name": "getRoleMemberCount",
      "outputs": [
        {
          "internalType": "uint256",
          "name": "",
          "type": "uint256"
        }
      ],
      "stateMutability": "view",
      "type": "function"
    },
    {
      "inputs": [
        {
          "internalType": "uint256",
          "name": "seasonId",
          "type": "uint256"
        }
      ],
      "name": "getSeasonBattleData",
      "outputs": [
        {
          "components": [
            {
              "internalType": "uint256",
              "name": "timestamp",
              "type": "uint256"
            },
            {
              "internalType": "uint256",
              "name": "winMonsterId",
              "type": "uint256"
            },
            {
              "internalType": "uint256",
              "name": "loseMonsterId",
              "type": "uint256"
            },
            {
              "internalType": "string",
              "name": "battleLog",
              "type": "string"
            }
          ],
          "internalType": "struct IBattleSeason.BattleData[]",
          "name": "",
          "type": "tuple[]"
        }
      ],
      "stateMutability": "view",
      "type": "function"
    },
    {
      "inputs": [
        {
          "internalType": "uint256",
          "name": "seasonId",
          "type": "uint256"
        },
        {
          "internalType": "uint256",
          "name": "monsterId",
          "type": "uint256"
        }
      ],
      "name": "getSeasonBattleDataByMonsterId",
      "outputs": [
        {
          "components": [
            {
              "internalType": "uint256",
              "name": "timestamp",
              "type": "uint256"
            },
            {
              "internalType": "uint256",
              "name": "winMonsterId",
              "type": "uint256"
            },
            {
              "internalType": "uint256",
              "name": "loseMonsterId",
              "type": "uint256"
            },
            {
              "internalType": "string",
              "name": "battleLog",
              "type": "string"
            }
          ],
          "internalType": "struct IBattleSeason.BattleData[]",
          "name": "",
          "type": "tuple[]"
        }
      ],
      "stateMutability": "view",
      "type": "function"
    },
    {
      "inputs": [
        {
          "internalType": "uint256",
          "name": "seasonId",
          "type": "uint256"
        },
        {
          "internalType": "uint256",
          "name": "monsterId",
          "type": "uint256"
        }
      ],
      "name": "getSeasonBattleIdList",
      "outputs": [
        {
          "internalType": "uint256[]",
          "name": "",
          "type": "uint256[]"
        }
      ],
      "stateMutability": "view",
      "type": "function"
    },
    {
      "inputs": [
        {
          "internalType": "uint256",
          "name": "seasonId",
          "type": "uint256"
        },
        {
          "internalType": "uint256",
          "name": "monsterId",
          "type": "uint256"
        }
      ],
      "name": "getSeasonMatchCount",
      "outputs": [
        {
          "internalType": "uint256",
          "name": "",
          "type": "uint256"
        }
      ],
      "stateMutability": "view",
      "type": "function"
    },
    {
      "inputs": [
        {
          "internalType": "uint256",
          "name": "seasonId",
          "type": "uint256"
        },
        {
          "internalType": "uint256",
          "name": "monsterId",
          "type": "uint256"
        }
      ],
      "name": "getSeasonWinCount",
      "outputs": [
        {
          "internalType": "uint256",
          "name": "",
          "type": "uint256"
        }
      ],
      "stateMutability": "view",
      "type": "function"
    },
    {
      "inputs": [
        {
          "internalType": "bytes32",
          "name": "role",
          "type": "bytes32"
        },
        {
          "internalType": "address",
          "name": "account",
          "type": "address"
        }
      ],
      "name": "grantRole",
      "outputs": [],
      "stateMutability": "nonpayable",
      "type": "function"
    },
    {
      "inputs": [
        {
          "internalType": "bytes32",
          "name": "role",
          "type": "bytes32"
        },
        {
          "internalType": "address",
          "name": "account",
          "type": "address"
        }
      ],
      "name": "hasRole",
      "outputs": [
        {
          "internalType": "bool",
          "name": "",
          "type": "bool"
        }
      ],
      "stateMutability": "view",
      "type": "function"
    },
    {
      "inputs": [
        {
          "internalType": "address",
          "name": "promptMonstersAddress",
          "type": "address"
        },
        {
          "internalType": "address",
          "name": "staminaAddress",
          "type": "address"
        }
      ],
      "name": "initialize",
      "outputs": [],
      "stateMutability": "nonpayable",
      "type": "function"
    },
    {
      "inputs": [],
      "name": "promptMonsters",
      "outputs": [
        {
          "internalType": "contract IPromptMonsters",
          "name": "",
          "type": "address"
        }
      ],
      "stateMutability": "view",
      "type": "function"
    },
    {
      "inputs": [],
      "name": "proxiableUUID",
      "outputs": [
        {
          "internalType": "bytes32",
          "name": "",
          "type": "bytes32"
        }
      ],
      "stateMutability": "view",
      "type": "function"
    },
    {
      "inputs": [
        {
          "internalType": "bytes32",
          "name": "role",
          "type": "bytes32"
        },
        {
          "internalType": "address",
          "name": "account",
          "type": "address"
        }
      ],
      "name": "renounceRole",
      "outputs": [],
      "stateMutability": "nonpayable",
      "type": "function"
    },
    {
      "inputs": [
        {
          "internalType": "bytes32",
          "name": "role",
          "type": "bytes32"
        },
        {
          "internalType": "address",
          "name": "account",
          "type": "address"
        }
      ],
      "name": "revokeRole",
      "outputs": [],
      "stateMutability": "nonpayable",
      "type": "function"
    },
    {
      "inputs": [
        {
          "internalType": "uint256",
          "name": "seasonId",
          "type": "uint256"
        },
        {
          "internalType": "address",
          "name": "battleSeasonAddress",
          "type": "address"
        }
      ],
      "name": "setBattleSeasonAddress",
      "outputs": [],
      "stateMutability": "nonpayable",
      "type": "function"
    },
    {
      "inputs": [
        {
          "internalType": "uint256",
          "name": "battleStamina_",
          "type": "uint256"
        }
      ],
      "name": "setBattleStamina",
      "outputs": [],
      "stateMutability": "nonpayable",
      "type": "function"
    },
    {
      "inputs": [
        {
          "internalType": "address",
          "name": "promptMonstersAddress",
          "type": "address"
        }
      ],
      "name": "setPromptMonstersAddress",
      "outputs": [],
      "stateMutability": "nonpayable",
      "type": "function"
    },
    {
      "inputs": [
        {
          "internalType": "address",
          "name": "staminaAddress",
          "type": "address"
        }
      ],
      "name": "setStaminaAddress",
      "outputs": [],
      "stateMutability": "nonpayable",
      "type": "function"
    },
    {
      "inputs": [],
      "name": "stamina",
      "outputs": [
        {
          "internalType": "contract IStamina",
          "name": "",
          "type": "address"
        }
      ],
      "stateMutability": "view",
      "type": "function"
    },
    {
      "inputs": [
        {
          "internalType": "bytes4",
          "name": "interfaceId",
          "type": "bytes4"
        }
      ],
      "name": "supportsInterface",
      "outputs": [
        {
          "internalType": "bool",
          "name": "",
          "type": "bool"
        }
      ],
      "stateMutability": "view",
      "type": "function"
    },
    {
      "inputs": [
        {
          "internalType": "address",
          "name": "newImplementation",
          "type": "address"
        }
      ],
      "name": "upgradeTo",
      "outputs": [],
      "stateMutability": "nonpayable",
      "type": "function"
    },
    {
      "inputs": [
        {
          "internalType": "address",
          "name": "newImplementation",
          "type": "address"
        },
        {
          "internalType": "bytes",
          "name": "data",
          "type": "bytes"
        }
      ],
      "name": "upgradeToAndCall",
      "outputs": [],
      "stateMutability": "payable",
      "type": "function"
    }
  ],
  "bytecode": "0x60a06040523060805234801561001457600080fd5b5061001d610022565b6100e2565b600054610100900460ff161561008e5760405162461bcd60e51b815260206004820152602760248201527f496e697469616c697a61626c653a20636f6e747261637420697320696e697469604482015266616c697a696e6760c81b606482015260840160405180910390fd5b60005460ff90811610156100e0576000805460ff191660ff9081179091556040519081527f7f26b83ff96e1f2b6a682f133852f6798a09c465da95921460cefb38474024989060200160405180910390a15b565b6080516124336200011a600039600081816107f60152818161083601528181610a3d01528181610a7d0152610b0c01526124336000f3fe6080604052600436106101e35760003560e01c806391d1485411610102578063ce32cee211610095578063d770a28811610064578063d770a2881461059c578063dc33eaac146105bc578063dde1bef5146105dc578063f53cd649146105fd57600080fd5b8063ce32cee21461051b578063d547741f1461053c578063d57880671461055c578063d5bacb031461057c57600080fd5b8063b3de2218116100d1578063b3de22181461049b578063be6b58c1146104bb578063ca15c873146104db578063cd8aaab1146104fb57600080fd5b806391d148541461042657806395a0a9e514610446578063a0aa949714610466578063a217fddf1461048657600080fd5b80634b1c115e1161017a5780637616431a116101495780637616431a1461038a5780638a569670146103b75780638af2f77b146103d75780639010d07c146103ee57600080fd5b80634b1c115e1461031f5780634f1ef2861461033557806352d1902d146103485780635dff8e1b1461035d57600080fd5b80632f2ff15d116101b65780632f2ff15d1461029d57806336568abe146102bf5780633659cfe6146102df578063485cc955146102ff57600080fd5b806301ffc9a7146101e85780630e919c121461021d578063133d5b821461024b578063248a9ca31461026d575b600080fd5b3480156101f457600080fd5b50610208610203366004611b15565b61061d565b60405190151581526020015b60405180910390f35b34801561022957600080fd5b5061023d610238366004611b3f565b610648565b604051908152602001610214565b34801561025757600080fd5b506102606106dc565b6040516102149190611b61565b34801561027957600080fd5b5061023d610288366004611bae565b60009081526065602052604090206001015490565b3480156102a957600080fd5b506102bd6102b8366004611be3565b61073f565b005b3480156102cb57600080fd5b506102bd6102da366004611be3565b610769565b3480156102eb57600080fd5b506102bd6102fa366004611c0f565b6107ec565b34801561030b57600080fd5b506102bd61031a366004611c2a565b6108cb565b34801561032b57600080fd5b5061012f5461023d565b6102bd610343366004611d2a565b610a33565b34801561035457600080fd5b5061023d610aff565b34801561036957600080fd5b5061037d610378366004611b3f565b610bb2565b6040516102149190611ddc565b34801561039657600080fd5b506103aa6103a5366004611b3f565b610c42565b6040516102149190611e67565b3480156103c357600080fd5b506102bd6103d2366004611c0f565b610cd3565b3480156103e357600080fd5b5061023d6101305481565b3480156103fa57600080fd5b5061040e610409366004611b3f565b610d02565b6040516001600160a01b039091168152602001610214565b34801561043257600080fd5b50610208610441366004611be3565b610d1a565b34801561045257600080fd5b506102bd610461366004611bae565b610d45565b34801561047257600080fd5b506102bd610481366004611be3565b610d57565b34801561049257600080fd5b5061023d600081565b3480156104a757600080fd5b5061037d6104b6366004611bae565b610daa565b3480156104c757600080fd5b506102bd6104d6366004611e9f565b610e34565b3480156104e757600080fd5b5061023d6104f6366004611bae565b610fef565b34801561050757600080fd5b5061023d610516366004611b3f565b611006565b34801561052757600080fd5b5061012d5461040e906001600160a01b031681565b34801561054857600080fd5b506102bd610557366004611be3565b611056565b34801561056857600080fd5b506103aa610577366004611f3b565b61107b565b34801561058857600080fd5b506102bd610597366004611c0f565b6110ca565b3480156105a857600080fd5b506102bd6105b7366004611c0f565b6110f9565b3480156105c857600080fd5b506103aa6105d7366004611f3b565b611158565b3480156105e857600080fd5b5061012e5461040e906001600160a01b031681565b34801561060957600080fd5b5061040e610618366004611bae565b6111a5565b60006001600160e01b03198216635a05180f60e01b14806106425750610642826111d6565b92915050565b600061012f838154811061065e5761065e611fd8565b600091825260209091200154604051633b5bcd0f60e11b8152600481018490526001600160a01b03909116906376b79a1e906024015b602060405180830381865afa1580156106b1573d6000803e3d6000fd5b505050506040513d601f19601f820116820180604052508101906106d59190611fee565b9392505050565b606061012f80548060200260200160405190810160405280929190818152602001828054801561073557602002820191906000526020600020905b81546001600160a01b03168152600190910190602001808311610717575b5050505050905090565b60008281526065602052604090206001015461075a8161120b565b6107648383611215565b505050565b6001600160a01b03811633146107de5760405162461bcd60e51b815260206004820152602f60248201527f416363657373436f6e74726f6c3a2063616e206f6e6c792072656e6f756e636560448201526e103937b632b9903337b91039b2b63360891b60648201526084015b60405180910390fd5b6107e88282611237565b5050565b6001600160a01b037f00000000000000000000000000000000000000000000000000000000000000001630036108345760405162461bcd60e51b81526004016107d590612007565b7f00000000000000000000000000000000000000000000000000000000000000006001600160a01b031661087d6000805160206123b7833981519152546001600160a01b031690565b6001600160a01b0316146108a35760405162461bcd60e51b81526004016107d590612053565b6108ac81611259565b604080516000808252602082019092526108c891839190611264565b50565b600054610100900460ff16158080156108eb5750600054600160ff909116105b806109055750303b158015610905575060005460ff166001145b6109685760405162461bcd60e51b815260206004820152602e60248201527f496e697469616c697a61626c653a20636f6e747261637420697320616c72656160448201526d191e481a5b9a5d1a585b1a5e995960921b60648201526084016107d5565b6000805460ff19166001179055801561098b576000805461ff0019166101001790555b6109936113cf565b61099b6113cf565b61012d80546001600160a01b038086166001600160a01b03199283161790925561012e8054928516929091169190911790556001610130556109de600030611215565b6109e9600033611215565b8015610764576000805461ff0019169055604051600181527f7f26b83ff96e1f2b6a682f133852f6798a09c465da95921460cefb38474024989060200160405180910390a1505050565b6001600160a01b037f0000000000000000000000000000000000000000000000000000000000000000163003610a7b5760405162461bcd60e51b81526004016107d590612007565b7f00000000000000000000000000000000000000000000000000000000000000006001600160a01b0316610ac46000805160206123b7833981519152546001600160a01b031690565b6001600160a01b031614610aea5760405162461bcd60e51b81526004016107d590612053565b610af382611259565b6107e882826001611264565b6000306001600160a01b037f00000000000000000000000000000000000000000000000000000000000000001614610b9f5760405162461bcd60e51b815260206004820152603860248201527f555550535570677261646561626c653a206d757374206e6f742062652063616c60448201527f6c6564207468726f7567682064656c656761746563616c6c000000000000000060648201526084016107d5565b506000805160206123b783398151915290565b606061012f8381548110610bc857610bc8611fd8565b600091825260209091200154604051636426cea160e11b8152600481018490526001600160a01b039091169063c84d9d4290602401600060405180830381865afa158015610c1a573d6000803e3d6000fd5b505050506040513d6000823e601f3d908101601f191682016040526106d5919081019061209f565b606061012f8381548110610c5857610c58611fd8565b600091825260209091200154604051636304f6b760e11b8152600481018490526001600160a01b039091169063c609ed6e906024015b600060405180830381865afa158015610cab573d6000803e3d6000fd5b505050506040513d6000823e601f3d908101601f191682016040526106d591908101906121e2565b6000610cde8161120b565b5061012e80546001600160a01b0319166001600160a01b0392909216919091179055565b60008281526097602052604081206106d5908361143c565b60009182526065602090815260408084206001600160a01b0393909316845291905290205460ff1690565b6000610d508161120b565b5061013055565b6000610d628161120b565b8161012f8481548110610d7757610d77611fd8565b9060005260206000200160006101000a8154816001600160a01b0302191690836001600160a01b03160217905550505050565b606061012f8281548110610dc057610dc0611fd8565b60009182526020822001546040805163748a6d1160e01b815290516001600160a01b039092169263748a6d11926004808401938290030181865afa158015610e0c573d6000803e3d6000fd5b505050506040513d6000823e601f3d908101601f19168201604052610642919081019061209f565b6000610e3f8161120b565b61012d54604051638318646560e01b8152600481018690526001600160a01b039091169063831864659060240160006040518083038186803b158015610e8457600080fd5b505afa158015610e98573d6000803e3d6000fd5b505061012d54604051638318646560e01b8152600481018790526001600160a01b0390911692506383186465915060240160006040518083038186803b158015610ee157600080fd5b505afa158015610ef5573d6000803e3d6000fd5b5050505061012f8681548110610f0d57610f0d611fd8565b6000918252602090912001546040516301a53ac760e21b81526001600160a01b0390911690630694eb1c90610f4a90879087908790600401612273565b600060405180830381600087803b158015610f6457600080fd5b505af1158015610f78573d6000803e3d6000fd5b505061012e546101305460405163739420a560e01b8152600481018a905260248101919091526001600160a01b03909116925063739420a59150604401600060405180830381600087803b158015610fcf57600080fd5b505af1158015610fe3573d6000803e3d6000fd5b50505050505050505050565b600081815260976020526040812061064290611448565b600061012f838154811061101c5761101c611fd8565b6000918252602090912001546040516339e0038360e21b8152600481018490526001600160a01b039091169063e7800e0c90602401610694565b6000828152606560205260409020600101546110718161120b565b6107648383611237565b606061012f838154811061109157611091611fd8565b60009182526020909120015460405163b34da6e360e01b81526001600160a01b039091169063b34da6e390610c8e908590600401611e67565b60006110d58161120b565b5061012d80546001600160a01b0319166001600160a01b0392909216919091179055565b60006111048161120b565b5061012f80546001810182556000919091527f232da9e50dad2971456a78fb5cd6ff6b75019984d6e918139ce990999420f9790180546001600160a01b0319166001600160a01b0392909216919091179055565b606061012f838154811061116e5761116e611fd8565b6000918252602090912001546040516285f54d60e01b81526001600160a01b03909116906285f54d90610c8e908590600401611e67565b600061012f82815481106111bb576111bb611fd8565b6000918252602090912001546001600160a01b031692915050565b60006001600160e01b03198216637965db0b60e01b148061064257506301ffc9a760e01b6001600160e01b0319831614610642565b6108c88133611452565b61121f82826114ab565b60008281526097602052604090206107649082611531565b6112418282611546565b600082815260976020526040902061076490826115ad565b60006107e88161120b565b7f4910fdfa16fed3260ed0e7147f7cc6da11a60208b5b9406d12a635614ffd91435460ff161561129757610764836115c2565b826001600160a01b03166352d1902d6040518163ffffffff1660e01b8152600401602060405180830381865afa9250505080156112f1575060408051601f3d908101601f191682019092526112ee91810190611fee565b60015b6113545760405162461bcd60e51b815260206004820152602e60248201527f45524331393637557067726164653a206e657720696d706c656d656e7461746960448201526d6f6e206973206e6f74205555505360901b60648201526084016107d5565b6000805160206123b783398151915281146113c35760405162461bcd60e51b815260206004820152602960248201527f45524331393637557067726164653a20756e737570706f727465642070726f786044820152681a58589b195555525160ba1b60648201526084016107d5565b5061076483838361165e565b600054610100900460ff1661143a5760405162461bcd60e51b815260206004820152602b60248201527f496e697469616c697a61626c653a20636f6e7472616374206973206e6f74206960448201526a6e697469616c697a696e6760a81b60648201526084016107d5565b565b60006106d58383611689565b6000610642825490565b61145c8282610d1a565b6107e857611469816116b3565b6114748360206116c5565b604051602001611485929190612292565b60408051601f198184030181529082905262461bcd60e51b82526107d591600401612307565b6114b58282610d1a565b6107e85760008281526065602090815260408083206001600160a01b03851684529091529020805460ff191660011790556114ed3390565b6001600160a01b0316816001600160a01b0316837f2f8788117e7eff1d82e926ec794901d17c78024a50270940304540a733656f0d60405160405180910390a45050565b60006106d5836001600160a01b038416611861565b6115508282610d1a565b156107e85760008281526065602090815260408083206001600160a01b0385168085529252808320805460ff1916905551339285917ff6391f5c32d9c69d2a47ea670b442974b53935d1edc7fd64eb21e047a839171b9190a45050565b60006106d5836001600160a01b0384166118b0565b6001600160a01b0381163b61162f5760405162461bcd60e51b815260206004820152602d60248201527f455243313936373a206e657720696d706c656d656e746174696f6e206973206e60448201526c1bdd08184818dbdb9d1c9858dd609a1b60648201526084016107d5565b6000805160206123b783398151915280546001600160a01b0319166001600160a01b0392909216919091179055565b611667836119a3565b6000825111806116745750805b156107645761168383836119e3565b50505050565b60008260000182815481106116a0576116a0611fd8565b9060005260206000200154905092915050565b60606106426001600160a01b03831660145b606060006116d4836002612330565b6116df906002612347565b67ffffffffffffffff8111156116f7576116f7611c54565b6040519080825280601f01601f191660200182016040528015611721576020820181803683370190505b509050600360fc1b8160008151811061173c5761173c611fd8565b60200101906001600160f81b031916908160001a905350600f60fb1b8160018151811061176b5761176b611fd8565b60200101906001600160f81b031916908160001a905350600061178f846002612330565b61179a906001612347565b90505b6001811115611812576f181899199a1a9b1b9c1cb0b131b232b360811b85600f16601081106117ce576117ce611fd8565b1a60f81b8282815181106117e4576117e4611fd8565b60200101906001600160f81b031916908160001a90535060049490941c9361180b8161235a565b905061179d565b5083156106d55760405162461bcd60e51b815260206004820181905260248201527f537472696e67733a20686578206c656e67746820696e73756666696369656e7460448201526064016107d5565b60008181526001830160205260408120546118a857508154600181810184556000848152602080822090930184905584548482528286019093526040902091909155610642565b506000610642565b600081815260018301602052604081205480156119995760006118d4600183612371565b85549091506000906118e890600190612371565b905081811461194d57600086600001828154811061190857611908611fd8565b906000526020600020015490508087600001848154811061192b5761192b611fd8565b6000918252602080832090910192909255918252600188019052604090208390555b855486908061195e5761195e612384565b600190038181906000526020600020016000905590558560010160008681526020019081526020016000206000905560019350505050610642565b6000915050610642565b6119ac816115c2565b6040516001600160a01b038216907fbc7cd75a20ee27fd9adebab32041f755214dbc6bffa90cc0225b39da2e5c2d3b90600090a250565b60606001600160a01b0383163b611a4b5760405162461bcd60e51b815260206004820152602660248201527f416464726573733a2064656c65676174652063616c6c20746f206e6f6e2d636f6044820152651b9d1c9858dd60d21b60648201526084016107d5565b600080846001600160a01b031684604051611a66919061239a565b600060405180830381855af49150503d8060008114611aa1576040519150601f19603f3d011682016040523d82523d6000602084013e611aa6565b606091505b5091509150611ace82826040518060600160405280602781526020016123d760279139611ad7565b95945050505050565b60608315611ae65750816106d5565b6106d58383815115611afb5781518083602001fd5b8060405162461bcd60e51b81526004016107d59190612307565b600060208284031215611b2757600080fd5b81356001600160e01b0319811681146106d557600080fd5b60008060408385031215611b5257600080fd5b50508035926020909101359150565b6020808252825182820181905260009190848201906040850190845b81811015611ba25783516001600160a01b031683529284019291840191600101611b7d565b50909695505050505050565b600060208284031215611bc057600080fd5b5035919050565b80356001600160a01b0381168114611bde57600080fd5b919050565b60008060408385031215611bf657600080fd5b82359150611c0660208401611bc7565b90509250929050565b600060208284031215611c2157600080fd5b6106d582611bc7565b60008060408385031215611c3d57600080fd5b611c4683611bc7565b9150611c0660208401611bc7565b634e487b7160e01b600052604160045260246000fd5b6040516080810167ffffffffffffffff81118282101715611c8d57611c8d611c54565b60405290565b604051601f8201601f1916810167ffffffffffffffff81118282101715611cbc57611cbc611c54565b604052919050565b600067ffffffffffffffff821115611cde57611cde611c54565b50601f01601f191660200190565b6000611cff611cfa84611cc4565b611c93565b9050828152838383011115611d1357600080fd5b828260208301376000602084830101529392505050565b60008060408385031215611d3d57600080fd5b611d4683611bc7565b9150602083013567ffffffffffffffff811115611d6257600080fd5b8301601f81018513611d7357600080fd5b611d8285823560208401611cec565b9150509250929050565b60005b83811015611da7578181015183820152602001611d8f565b50506000910152565b60008151808452611dc8816020860160208601611d8c565b601f01601f19169290920160200192915050565b60006020808301818452808551808352604092508286019150828160051b87010184880160005b83811015611e5957888303603f1901855281518051845287810151888501528681015187850152606090810151608091850182905290611e4581860183611db0565b968901969450505090860190600101611e03565b509098975050505050505050565b6020808252825182820181905260009190848201906040850190845b81811015611ba257835183529284019291840191600101611e83565b600080600080600060a08688031215611eb757600080fd5b85359450602086013593506040860135925060608601359150608086013567ffffffffffffffff811115611eea57600080fd5b8601601f81018813611efb57600080fd5b611f0a88823560208401611cec565b9150509295509295909350565b600067ffffffffffffffff821115611f3157611f31611c54565b5060051b60200190565b60008060408385031215611f4e57600080fd5b8235915060208084013567ffffffffffffffff811115611f6d57600080fd5b8401601f81018613611f7e57600080fd5b8035611f8c611cfa82611f17565b81815260059190911b82018301908381019088831115611fab57600080fd5b928401925b82841015611fc957833582529284019290840190611fb0565b80955050505050509250929050565b634e487b7160e01b600052603260045260246000fd5b60006020828403121561200057600080fd5b5051919050565b6020808252602c908201527f46756e6374696f6e206d7573742062652063616c6c6564207468726f7567682060408201526b19195b1959d85d1958d85b1b60a21b606082015260800190565b6020808252602c908201527f46756e6374696f6e206d7573742062652063616c6c6564207468726f7567682060408201526b6163746976652070726f787960a01b606082015260800190565b600060208083850312156120b257600080fd5b825167ffffffffffffffff808211156120ca57600080fd5b818501915085601f8301126120de57600080fd5b81516120ec611cfa82611f17565b81815260059190911b8301840190848101908883111561210b57600080fd5b8585015b838110156121d5578051858111156121275760008081fd5b86016080818c03601f190181131561213f5760008081fd5b612147611c6a565b828a01518152604080840151828c0152606080850151828401529284015192898411156121745760008081fd5b83850194508e603f86011261218b57600093508384fd5b8b850151935061219d611cfa85611cc4565b8481528f838688010111156121b25760008081fd5b6121c1858e8301858901611d8c565b90830152508552505091860191860161210f565b5098975050505050505050565b600060208083850312156121f557600080fd5b825167ffffffffffffffff81111561220c57600080fd5b8301601f8101851361221d57600080fd5b805161222b611cfa82611f17565b81815260059190911b8201830190838101908783111561224a57600080fd5b928401925b828410156122685783518252928401929084019061224f565b979650505050505050565b838152826020820152606060408201526000611ace6060830184611db0565b7f416363657373436f6e74726f6c3a206163636f756e74200000000000000000008152600083516122ca816017850160208801611d8c565b7001034b99036b4b9b9b4b733903937b6329607d1b60179184019182015283516122fb816028840160208801611d8c565b01602801949350505050565b6020815260006106d56020830184611db0565b634e487b7160e01b600052601160045260246000fd5b80820281158282048414176106425761064261231a565b808201808211156106425761064261231a565b6000816123695761236961231a565b506000190190565b818103818111156106425761064261231a565b634e487b7160e01b600052603160045260246000fd5b600082516123ac818460208701611d8c565b919091019291505056fe360894a13ba1a3210667c828492db98dca3e2076cc3735a920a3ca505d382bbc416464726573733a206c6f772d6c6576656c2064656c65676174652063616c6c206661696c6564a2646970667358221220fbdc419c3f82a01a0052b320d023b77958704cafd4550eb7ce77081c8dd086fc64736f6c63430008120033",
  "linkReferences": {},
  "deployedLinkReferences": {}
}