{
  "_format": "hh-sol-artifact-1",
  "contractName": "Battle",
  "sourceName": "contracts/battle/Battle.sol",
  "abi": [
    {
      "inputs": [],
      "stateMutability": "nonpayable",
      "type": "constructor"
    },
    {
      "anonymous": false,
      "inputs": [
        {
          "indexed": true,
          "internalType": "address",
          "name": "publisher",
          "type": "address"
        },
        {
          "indexed": true,
          "internalType": "address",
          "name": "battleSeasonAddress",
          "type": "address"
        }
      ],
      "name": "AddBattleSeasonAddress",
      "type": "event"
    },
    {
      "anonymous": false,
      "inputs": [
        {
          "indexed": false,
          "internalType": "address",
          "name": "previousAdmin",
          "type": "address"
        },
        {
          "indexed": false,
          "internalType": "address",
          "name": "newAdmin",
          "type": "address"
        }
      ],
      "name": "AdminChanged",
      "type": "event"
    },
    {
      "anonymous": false,
      "inputs": [
        {
          "indexed": true,
          "internalType": "address",
          "name": "beacon",
          "type": "address"
        }
      ],
      "name": "BeaconUpgraded",
      "type": "event"
    },
    {
      "anonymous": false,
      "inputs": [
        {
          "indexed": false,
          "internalType": "uint8",
          "name": "version",
          "type": "uint8"
        }
      ],
      "name": "Initialized",
      "type": "event"
    },
    {
      "anonymous": false,
      "inputs": [
        {
          "indexed": true,
          "internalType": "bytes32",
          "name": "role",
          "type": "bytes32"
        },
        {
          "indexed": true,
          "internalType": "bytes32",
          "name": "previousAdminRole",
          "type": "bytes32"
        },
        {
          "indexed": true,
          "internalType": "bytes32",
          "name": "newAdminRole",
          "type": "bytes32"
        }
      ],
      "name": "RoleAdminChanged",
      "type": "event"
    },
    {
      "anonymous": false,
      "inputs": [
        {
          "indexed": true,
          "internalType": "bytes32",
          "name": "role",
          "type": "bytes32"
        },
        {
          "indexed": true,
          "internalType": "address",
          "name": "account",
          "type": "address"
        },
        {
          "indexed": true,
          "internalType": "address",
          "name": "sender",
          "type": "address"
        }
      ],
      "name": "RoleGranted",
      "type": "event"
    },
    {
      "anonymous": false,
      "inputs": [
        {
          "indexed": true,
          "internalType": "bytes32",
          "name": "role",
          "type": "bytes32"
        },
        {
          "indexed": true,
          "internalType": "address",
          "name": "account",
          "type": "address"
        },
        {
          "indexed": true,
          "internalType": "address",
          "name": "sender",
          "type": "address"
        }
      ],
      "name": "RoleRevoked",
      "type": "event"
    },
    {
      "anonymous": false,
      "inputs": [
        {
          "indexed": true,
          "internalType": "address",
          "name": "publisher",
          "type": "address"
        },
        {
          "indexed": true,
          "internalType": "uint256",
          "name": "seasonId",
          "type": "uint256"
        },
        {
          "indexed": true,
          "internalType": "address",
          "name": "battleSeasonAddress",
          "type": "address"
        }
      ],
      "name": "SetBattleSeasonAddress",
      "type": "event"
    },
    {
      "anonymous": false,
      "inputs": [
        {
          "indexed": true,
          "internalType": "address",
          "name": "publisher",
          "type": "address"
        },
        {
          "indexed": true,
          "internalType": "uint256",
          "name": "newValue",
          "type": "uint256"
        }
      ],
      "name": "SetBattleStamina",
      "type": "event"
    },
    {
      "anonymous": false,
      "inputs": [
        {
          "indexed": true,
          "internalType": "address",
          "name": "publisher",
          "type": "address"
        },
        {
          "indexed": true,
          "internalType": "address",
          "name": "newValue",
          "type": "address"
        }
      ],
      "name": "SetPromptMonstersAddress",
      "type": "event"
    },
    {
      "anonymous": false,
      "inputs": [
        {
          "indexed": true,
          "internalType": "address",
          "name": "publisher",
          "type": "address"
        },
        {
          "indexed": true,
          "internalType": "address",
          "name": "newValue",
          "type": "address"
        }
      ],
      "name": "SetStaminaAddress",
      "type": "event"
    },
    {
      "anonymous": false,
      "inputs": [
        {
          "indexed": true,
          "internalType": "address",
          "name": "implementation",
          "type": "address"
        }
      ],
      "name": "Upgraded",
      "type": "event"
    },
    {
      "inputs": [],
      "name": "DEFAULT_ADMIN_ROLE",
      "outputs": [
        {
          "internalType": "bytes32",
          "name": "",
          "type": "bytes32"
        }
      ],
      "stateMutability": "view",
      "type": "function"
    },
    {
      "inputs": [
        {
          "internalType": "address",
          "name": "battleSeasonAddress",
          "type": "address"
        }
      ],
      "name": "addBattleSeasonAddress",
      "outputs": [],
      "stateMutability": "nonpayable",
      "type": "function"
    },
    {
      "inputs": [
        {
          "internalType": "uint256",
          "name": "seasonId",
          "type": "uint256"
        },
        {
          "internalType": "uint256",
          "name": "monsterId",
          "type": "uint256"
        },
        {
          "internalType": "uint256",
          "name": "winMonsterId",
          "type": "uint256"
        },
        {
          "internalType": "uint256",
          "name": "loseMonsterId",
          "type": "uint256"
        },
        {
          "internalType": "string",
          "name": "battleLog",
          "type": "string"
        }
      ],
      "name": "addSeasonBattleData",
      "outputs": [],
      "stateMutability": "nonpayable",
      "type": "function"
    },
    {
      "inputs": [],
      "name": "battleStamina",
      "outputs": [
        {
          "internalType": "uint256",
          "name": "",
          "type": "uint256"
        }
      ],
      "stateMutability": "view",
      "type": "function"
    },
    {
      "inputs": [
        {
          "internalType": "uint256",
          "name": "seasonId",
          "type": "uint256"
        },
        {
          "internalType": "uint256[]",
          "name": "monsterIds",
          "type": "uint256[]"
        }
      ],
      "name": "getBatchSeasonMatchCount",
      "outputs": [
        {
          "internalType": "uint256[]",
          "name": "",
          "type": "uint256[]"
        }
      ],
      "stateMutability": "view",
      "type": "function"
    },
    {
      "inputs": [
        {
          "internalType": "uint256",
          "name": "seasonId",
          "type": "uint256"
        },
        {
          "internalType": "uint256[]",
          "name": "monsterIds",
          "type": "uint256[]"
        }
      ],
      "name": "getBatchSeasonWinCount",
      "outputs": [
        {
          "internalType": "uint256[]",
          "name": "",
          "type": "uint256[]"
        }
      ],
      "stateMutability": "view",
      "type": "function"
    },
    {
      "inputs": [
        {
          "internalType": "uint256",
          "name": "seasonId",
          "type": "uint256"
        }
      ],
      "name": "getBattleSeasonAddress",
      "outputs": [
        {
          "internalType": "address",
          "name": "",
          "type": "address"
        }
      ],
      "stateMutability": "view",
      "type": "function"
    },
    {
      "inputs": [],
      "name": "getBattleSeasonsAddress",
      "outputs": [
        {
          "internalType": "address[]",
          "name": "",
          "type": "address[]"
        }
      ],
      "stateMutability": "view",
      "type": "function"
    },
    {
      "inputs": [],
      "name": "getBattleSeasonsAddressLength",
      "outputs": [
        {
          "internalType": "uint256",
          "name": "",
          "type": "uint256"
        }
      ],
      "stateMutability": "view",
      "type": "function"
    },
    {
      "inputs": [
        {
          "internalType": "bytes32",
          "name": "role",
          "type": "bytes32"
        }
      ],
      "name": "getRoleAdmin",
      "outputs": [
        {
          "internalType": "bytes32",
          "name": "",
          "type": "bytes32"
        }
      ],
      "stateMutability": "view",
      "type": "function"
    },
    {
      "inputs": [
        {
          "internalType": "bytes32",
          "name": "role",
          "type": "bytes32"
        },
        {
          "internalType": "uint256",
          "name": "index",
          "type": "uint256"
        }
      ],
      "name": "getRoleMember",
      "outputs": [
        {
          "internalType": "address",
          "name": "",
          "type": "address"
        }
      ],
      "stateMutability": "view",
      "type": "function"
    },
    {
      "inputs": [
        {
          "internalType": "bytes32",
          "name": "role",
          "type": "bytes32"
        }
      ],
      "name": "getRoleMemberCount",
      "outputs": [
        {
          "internalType": "uint256",
          "name": "",
          "type": "uint256"
        }
      ],
      "stateMutability": "view",
      "type": "function"
    },
    {
      "inputs": [
        {
          "internalType": "uint256",
          "name": "seasonId",
          "type": "uint256"
        }
      ],
      "name": "getSeasonBattleData",
      "outputs": [
        {
          "components": [
            {
              "internalType": "uint256",
              "name": "timestamp",
              "type": "uint256"
            },
            {
              "internalType": "uint256",
              "name": "winMonsterId",
              "type": "uint256"
            },
            {
              "internalType": "uint256",
              "name": "loseMonsterId",
              "type": "uint256"
            },
            {
              "internalType": "string",
              "name": "battleLog",
              "type": "string"
            }
          ],
          "internalType": "struct IBattleSeason.BattleData[]",
          "name": "",
          "type": "tuple[]"
        }
      ],
      "stateMutability": "view",
      "type": "function"
    },
    {
      "inputs": [
        {
          "internalType": "uint256",
          "name": "seasonId",
          "type": "uint256"
        },
        {
          "internalType": "uint256",
          "name": "monsterId",
          "type": "uint256"
        }
      ],
      "name": "getSeasonBattleDataByMonsterId",
      "outputs": [
        {
          "components": [
            {
              "internalType": "uint256",
              "name": "timestamp",
              "type": "uint256"
            },
            {
              "internalType": "uint256",
              "name": "winMonsterId",
              "type": "uint256"
            },
            {
              "internalType": "uint256",
              "name": "loseMonsterId",
              "type": "uint256"
            },
            {
              "internalType": "string",
              "name": "battleLog",
              "type": "string"
            }
          ],
          "internalType": "struct IBattleSeason.BattleData[]",
          "name": "",
          "type": "tuple[]"
        }
      ],
      "stateMutability": "view",
      "type": "function"
    },
    {
      "inputs": [
        {
          "internalType": "uint256",
          "name": "seasonId",
          "type": "uint256"
        },
        {
          "internalType": "uint256",
          "name": "monsterId",
          "type": "uint256"
        }
      ],
      "name": "getSeasonBattleIdList",
      "outputs": [
        {
          "internalType": "uint256[]",
          "name": "",
          "type": "uint256[]"
        }
      ],
      "stateMutability": "view",
      "type": "function"
    },
    {
      "inputs": [
        {
          "internalType": "uint256",
          "name": "seasonId",
          "type": "uint256"
        },
        {
          "internalType": "uint256",
          "name": "monsterId",
          "type": "uint256"
        }
      ],
      "name": "getSeasonMatchCount",
      "outputs": [
        {
          "internalType": "uint256",
          "name": "",
          "type": "uint256"
        }
      ],
      "stateMutability": "view",
      "type": "function"
    },
    {
      "inputs": [
        {
          "internalType": "uint256",
          "name": "seasonId",
          "type": "uint256"
        },
        {
          "internalType": "uint256",
          "name": "monsterId",
          "type": "uint256"
        }
      ],
      "name": "getSeasonWinCount",
      "outputs": [
        {
          "internalType": "uint256",
          "name": "",
          "type": "uint256"
        }
      ],
      "stateMutability": "view",
      "type": "function"
    },
    {
      "inputs": [
        {
          "internalType": "bytes32",
          "name": "role",
          "type": "bytes32"
        },
        {
          "internalType": "address",
          "name": "account",
          "type": "address"
        }
      ],
      "name": "grantRole",
      "outputs": [],
      "stateMutability": "nonpayable",
      "type": "function"
    },
    {
      "inputs": [
        {
          "internalType": "bytes32",
          "name": "role",
          "type": "bytes32"
        },
        {
          "internalType": "address",
          "name": "account",
          "type": "address"
        }
      ],
      "name": "hasRole",
      "outputs": [
        {
          "internalType": "bool",
          "name": "",
          "type": "bool"
        }
      ],
      "stateMutability": "view",
      "type": "function"
    },
    {
      "inputs": [
        {
          "internalType": "address",
          "name": "promptMonstersAddress",
          "type": "address"
        },
        {
          "internalType": "address",
          "name": "staminaAddress",
          "type": "address"
        }
      ],
      "name": "initialize",
      "outputs": [],
      "stateMutability": "nonpayable",
      "type": "function"
    },
    {
      "inputs": [],
      "name": "promptMonsters",
      "outputs": [
        {
          "internalType": "contract IPromptMonsters",
          "name": "",
          "type": "address"
        }
      ],
      "stateMutability": "view",
      "type": "function"
    },
    {
      "inputs": [],
      "name": "proxiableUUID",
      "outputs": [
        {
          "internalType": "bytes32",
          "name": "",
          "type": "bytes32"
        }
      ],
      "stateMutability": "view",
      "type": "function"
    },
    {
      "inputs": [
        {
          "internalType": "bytes32",
          "name": "role",
          "type": "bytes32"
        },
        {
          "internalType": "address",
          "name": "account",
          "type": "address"
        }
      ],
      "name": "renounceRole",
      "outputs": [],
      "stateMutability": "nonpayable",
      "type": "function"
    },
    {
      "inputs": [
        {
          "internalType": "bytes32",
          "name": "role",
          "type": "bytes32"
        },
        {
          "internalType": "address",
          "name": "account",
          "type": "address"
        }
      ],
      "name": "revokeRole",
      "outputs": [],
      "stateMutability": "nonpayable",
      "type": "function"
    },
    {
      "inputs": [
        {
          "internalType": "uint256",
          "name": "seasonId",
          "type": "uint256"
        },
        {
          "internalType": "address",
          "name": "battleSeasonAddress",
          "type": "address"
        }
      ],
      "name": "setBattleSeasonAddress",
      "outputs": [],
      "stateMutability": "nonpayable",
      "type": "function"
    },
    {
      "inputs": [
        {
          "internalType": "uint256",
          "name": "battleStamina_",
          "type": "uint256"
        }
      ],
      "name": "setBattleStamina",
      "outputs": [],
      "stateMutability": "nonpayable",
      "type": "function"
    },
    {
      "inputs": [
        {
          "internalType": "address",
          "name": "promptMonstersAddress",
          "type": "address"
        }
      ],
      "name": "setPromptMonstersAddress",
      "outputs": [],
      "stateMutability": "nonpayable",
      "type": "function"
    },
    {
      "inputs": [
        {
          "internalType": "address",
          "name": "staminaAddress",
          "type": "address"
        }
      ],
      "name": "setStaminaAddress",
      "outputs": [],
      "stateMutability": "nonpayable",
      "type": "function"
    },
    {
      "inputs": [],
      "name": "stamina",
      "outputs": [
        {
          "internalType": "contract IStamina",
          "name": "",
          "type": "address"
        }
      ],
      "stateMutability": "view",
      "type": "function"
    },
    {
      "inputs": [
        {
          "internalType": "bytes4",
          "name": "interfaceId",
          "type": "bytes4"
        }
      ],
      "name": "supportsInterface",
      "outputs": [
        {
          "internalType": "bool",
          "name": "",
          "type": "bool"
        }
      ],
      "stateMutability": "view",
      "type": "function"
    },
    {
      "inputs": [
        {
          "internalType": "address",
          "name": "newImplementation",
          "type": "address"
        }
      ],
      "name": "upgradeTo",
      "outputs": [],
      "stateMutability": "nonpayable",
      "type": "function"
    },
    {
      "inputs": [
        {
          "internalType": "address",
          "name": "newImplementation",
          "type": "address"
        },
        {
          "internalType": "bytes",
          "name": "data",
          "type": "bytes"
        }
      ],
      "name": "upgradeToAndCall",
      "outputs": [],
      "stateMutability": "payable",
      "type": "function"
    }
  ],
  "bytecode": "0x60a0604052306080523480156200001557600080fd5b506200002062000026565b620000e8565b600054610100900460ff1615620000935760405162461bcd60e51b815260206004820152602760248201527f496e697469616c697a61626c653a20636f6e747261637420697320696e697469604482015266616c697a696e6760c81b606482015260840160405180910390fd5b60005460ff9081161015620000e6576000805460ff191660ff9081179091556040519081527f7f26b83ff96e1f2b6a682f133852f6798a09c465da95921460cefb38474024989060200160405180910390a15b565b60805161250562000120600039600081816107f60152818161083601528181610a3d01528181610a7d0152610b0c01526125056000f3fe6080604052600436106101e35760003560e01c806391d1485411610102578063ce32cee211610095578063d770a28811610064578063d770a2881461059c578063dc33eaac146105bc578063dde1bef5146105dc578063f53cd649146105fd57600080fd5b8063ce32cee21461051b578063d547741f1461053c578063d57880671461055c578063d5bacb031461057c57600080fd5b8063b3de2218116100d1578063b3de22181461049b578063be6b58c1146104bb578063ca15c873146104db578063cd8aaab1146104fb57600080fd5b806391d148541461042657806395a0a9e514610446578063a0aa949714610466578063a217fddf1461048657600080fd5b80634b1c115e1161017a5780637616431a116101495780637616431a1461038a5780638a569670146103b75780638af2f77b146103d75780639010d07c146103ee57600080fd5b80634b1c115e1461031f5780634f1ef2861461033557806352d1902d146103485780635dff8e1b1461035d57600080fd5b80632f2ff15d116101b65780632f2ff15d1461029d57806336568abe146102bf5780633659cfe6146102df578063485cc955146102ff57600080fd5b806301ffc9a7146101e85780630e919c121461021d578063133d5b821461024b578063248a9ca31461026d575b600080fd5b3480156101f457600080fd5b50610208610203366004611be7565b61061d565b60405190151581526020015b60405180910390f35b34801561022957600080fd5b5061023d610238366004611c11565b610648565b604051908152602001610214565b34801561025757600080fd5b506102606106dc565b6040516102149190611c33565b34801561027957600080fd5b5061023d610288366004611c80565b60009081526065602052604090206001015490565b3480156102a957600080fd5b506102bd6102b8366004611cb5565b61073f565b005b3480156102cb57600080fd5b506102bd6102da366004611cb5565b610769565b3480156102eb57600080fd5b506102bd6102fa366004611ce1565b6107ec565b34801561030b57600080fd5b506102bd61031a366004611cfc565b6108cb565b34801561032b57600080fd5b5061012f5461023d565b6102bd610343366004611dfc565b610a33565b34801561035457600080fd5b5061023d610aff565b34801561036957600080fd5b5061037d610378366004611c11565b610bb2565b6040516102149190611eae565b34801561039657600080fd5b506103aa6103a5366004611c11565b610c42565b6040516102149190611f39565b3480156103c357600080fd5b506102bd6103d2366004611ce1565b610cd3565b3480156103e357600080fd5b5061023d6101305481565b3480156103fa57600080fd5b5061040e610409366004611c11565b610d2c565b6040516001600160a01b039091168152602001610214565b34801561043257600080fd5b50610208610441366004611cb5565b610d44565b34801561045257600080fd5b506102bd610461366004611c80565b610d6f565b34801561047257600080fd5b506102bd610481366004611cb5565b610db1565b34801561049257600080fd5b5061023d600081565b3480156104a757600080fd5b5061037d6104b6366004611c80565b610e29565b3480156104c757600080fd5b506102bd6104d6366004611f71565b610eb3565b3480156104e757600080fd5b5061023d6104f6366004611c80565b61106e565b34801561050757600080fd5b5061023d610516366004611c11565b611085565b34801561052757600080fd5b5061012d5461040e906001600160a01b031681565b34801561054857600080fd5b506102bd610557366004611cb5565b6110d5565b34801561056857600080fd5b506103aa61057736600461200d565b6110fa565b34801561058857600080fd5b506102bd610597366004611ce1565b611149565b3480156105a857600080fd5b506102bd6105b7366004611ce1565b6111a2565b3480156105c857600080fd5b506103aa6105d736600461200d565b61122a565b3480156105e857600080fd5b5061012e5461040e906001600160a01b031681565b34801561060957600080fd5b5061040e610618366004611c80565b611277565b60006001600160e01b03198216635a05180f60e01b14806106425750610642826112a8565b92915050565b600061012f838154811061065e5761065e6120aa565b600091825260209091200154604051633b5bcd0f60e11b8152600481018490526001600160a01b03909116906376b79a1e906024015b602060405180830381865afa1580156106b1573d6000803e3d6000fd5b505050506040513d601f19601f820116820180604052508101906106d591906120c0565b9392505050565b606061012f80548060200260200160405190810160405280929190818152602001828054801561073557602002820191906000526020600020905b81546001600160a01b03168152600190910190602001808311610717575b5050505050905090565b60008281526065602052604090206001015461075a816112dd565b61076483836112e7565b505050565b6001600160a01b03811633146107de5760405162461bcd60e51b815260206004820152602f60248201527f416363657373436f6e74726f6c3a2063616e206f6e6c792072656e6f756e636560448201526e103937b632b9903337b91039b2b63360891b60648201526084015b60405180910390fd5b6107e88282611309565b5050565b6001600160a01b037f00000000000000000000000000000000000000000000000000000000000000001630036108345760405162461bcd60e51b81526004016107d5906120d9565b7f00000000000000000000000000000000000000000000000000000000000000006001600160a01b031661087d600080516020612489833981519152546001600160a01b031690565b6001600160a01b0316146108a35760405162461bcd60e51b81526004016107d590612125565b6108ac8161132b565b604080516000808252602082019092526108c891839190611336565b50565b600054610100900460ff16158080156108eb5750600054600160ff909116105b806109055750303b158015610905575060005460ff166001145b6109685760405162461bcd60e51b815260206004820152602e60248201527f496e697469616c697a61626c653a20636f6e747261637420697320616c72656160448201526d191e481a5b9a5d1a585b1a5e995960921b60648201526084016107d5565b6000805460ff19166001179055801561098b576000805461ff0019166101001790555b6109936114a1565b61099b6114a1565b61012d80546001600160a01b038086166001600160a01b03199283161790925561012e8054928516929091169190911790556001610130556109de6000306112e7565b6109e96000336112e7565b8015610764576000805461ff0019169055604051600181527f7f26b83ff96e1f2b6a682f133852f6798a09c465da95921460cefb38474024989060200160405180910390a1505050565b6001600160a01b037f0000000000000000000000000000000000000000000000000000000000000000163003610a7b5760405162461bcd60e51b81526004016107d5906120d9565b7f00000000000000000000000000000000000000000000000000000000000000006001600160a01b0316610ac4600080516020612489833981519152546001600160a01b031690565b6001600160a01b031614610aea5760405162461bcd60e51b81526004016107d590612125565b610af38261132b565b6107e882826001611336565b6000306001600160a01b037f00000000000000000000000000000000000000000000000000000000000000001614610b9f5760405162461bcd60e51b815260206004820152603860248201527f555550535570677261646561626c653a206d757374206e6f742062652063616c60448201527f6c6564207468726f7567682064656c656761746563616c6c000000000000000060648201526084016107d5565b5060008051602061248983398151915290565b606061012f8381548110610bc857610bc86120aa565b600091825260209091200154604051636426cea160e11b8152600481018490526001600160a01b039091169063c84d9d4290602401600060405180830381865afa158015610c1a573d6000803e3d6000fd5b505050506040513d6000823e601f3d908101601f191682016040526106d59190810190612171565b606061012f8381548110610c5857610c586120aa565b600091825260209091200154604051636304f6b760e11b8152600481018490526001600160a01b039091169063c609ed6e906024015b600060405180830381865afa158015610cab573d6000803e3d6000fd5b505050506040513d6000823e601f3d908101601f191682016040526106d591908101906122b4565b6000610cde816112dd565b61012e80546001600160a01b0319166001600160a01b03841690811790915560405133907fb8c1f74bf2e8c1ab8f3a67bf5e5d1371711ff7e39274976e5ee348a913ae8b3590600090a35050565b60008281526097602052604081206106d5908361150e565b60009182526065602090815260408084206001600160a01b0393909316845291905290205460ff1690565b6000610d7a816112dd565b610130829055604051829033907fd6df6a429c0c93b96162eadafe813ed2c37055a56eb88ba66f0b6fa9171c406090600090a35050565b6000610dbc816112dd565b8161012f8481548110610dd157610dd16120aa565b6000918252602082200180546001600160a01b0319166001600160a01b0393841617905560405191841691859133917fb06d10afe5278753c23883feba67113e9845ce326552aff72f0b2209e4320eaf9190a4505050565b606061012f8281548110610e3f57610e3f6120aa565b60009182526020822001546040805163748a6d1160e01b815290516001600160a01b039092169263748a6d11926004808401938290030181865afa158015610e8b573d6000803e3d6000fd5b505050506040513d6000823e601f3d908101601f191682016040526106429190810190612171565b6000610ebe816112dd565b61012d54604051638318646560e01b8152600481018690526001600160a01b039091169063831864659060240160006040518083038186803b158015610f0357600080fd5b505afa158015610f17573d6000803e3d6000fd5b505061012d54604051638318646560e01b8152600481018790526001600160a01b0390911692506383186465915060240160006040518083038186803b158015610f6057600080fd5b505afa158015610f74573d6000803e3d6000fd5b5050505061012f8681548110610f8c57610f8c6120aa565b6000918252602090912001546040516301a53ac760e21b81526001600160a01b0390911690630694eb1c90610fc990879087908790600401612345565b600060405180830381600087803b158015610fe357600080fd5b505af1158015610ff7573d6000803e3d6000fd5b505061012e546101305460405163739420a560e01b8152600481018a905260248101919091526001600160a01b03909116925063739420a59150604401600060405180830381600087803b15801561104e57600080fd5b505af1158015611062573d6000803e3d6000fd5b50505050505050505050565b60008181526097602052604081206106429061151a565b600061012f838154811061109b5761109b6120aa565b6000918252602090912001546040516339e0038360e21b8152600481018490526001600160a01b039091169063e7800e0c90602401610694565b6000828152606560205260409020600101546110f0816112dd565b6107648383611309565b606061012f8381548110611110576111106120aa565b60009182526020909120015460405163b34da6e360e01b81526001600160a01b039091169063b34da6e390610c8e908590600401611f39565b6000611154816112dd565b61012d80546001600160a01b0319166001600160a01b03841690811790915560405133907fbd099e12f37fee634effde3ec3b6bac8c16ade502c7275e1316d2c4bbf44589490600090a35050565b60006111ad816112dd565b61012f805460018101825560009182527f232da9e50dad2971456a78fb5cd6ff6b75019984d6e918139ce990999420f9790180546001600160a01b0319166001600160a01b038516908117909155604051909133917ffe2891ac9b5d9a1ec361546d93f3f378fd8f42f2c2080b99cf3cc69bcd3902f89190a35050565b606061012f8381548110611240576112406120aa565b6000918252602090912001546040516285f54d60e01b81526001600160a01b03909116906285f54d90610c8e908590600401611f39565b600061012f828154811061128d5761128d6120aa565b6000918252602090912001546001600160a01b031692915050565b60006001600160e01b03198216637965db0b60e01b148061064257506301ffc9a760e01b6001600160e01b0319831614610642565b6108c88133611524565b6112f1828261157d565b60008281526097602052604090206107649082611603565b6113138282611618565b6000828152609760205260409020610764908261167f565b60006107e8816112dd565b7f4910fdfa16fed3260ed0e7147f7cc6da11a60208b5b9406d12a635614ffd91435460ff16156113695761076483611694565b826001600160a01b03166352d1902d6040518163ffffffff1660e01b8152600401602060405180830381865afa9250505080156113c3575060408051601f3d908101601f191682019092526113c0918101906120c0565b60015b6114265760405162461bcd60e51b815260206004820152602e60248201527f45524331393637557067726164653a206e657720696d706c656d656e7461746960448201526d6f6e206973206e6f74205555505360901b60648201526084016107d5565b60008051602061248983398151915281146114955760405162461bcd60e51b815260206004820152602960248201527f45524331393637557067726164653a20756e737570706f727465642070726f786044820152681a58589b195555525160ba1b60648201526084016107d5565b50610764838383611730565b600054610100900460ff1661150c5760405162461bcd60e51b815260206004820152602b60248201527f496e697469616c697a61626c653a20636f6e7472616374206973206e6f74206960448201526a6e697469616c697a696e6760a81b60648201526084016107d5565b565b60006106d5838361175b565b6000610642825490565b61152e8282610d44565b6107e85761153b81611785565b611546836020611797565b604051602001611557929190612364565b60408051601f198184030181529082905262461bcd60e51b82526107d5916004016123d9565b6115878282610d44565b6107e85760008281526065602090815260408083206001600160a01b03851684529091529020805460ff191660011790556115bf3390565b6001600160a01b0316816001600160a01b0316837f2f8788117e7eff1d82e926ec794901d17c78024a50270940304540a733656f0d60405160405180910390a45050565b60006106d5836001600160a01b038416611933565b6116228282610d44565b156107e85760008281526065602090815260408083206001600160a01b0385168085529252808320805460ff1916905551339285917ff6391f5c32d9c69d2a47ea670b442974b53935d1edc7fd64eb21e047a839171b9190a45050565b60006106d5836001600160a01b038416611982565b6001600160a01b0381163b6117015760405162461bcd60e51b815260206004820152602d60248201527f455243313936373a206e657720696d706c656d656e746174696f6e206973206e60448201526c1bdd08184818dbdb9d1c9858dd609a1b60648201526084016107d5565b60008051602061248983398151915280546001600160a01b0319166001600160a01b0392909216919091179055565b61173983611a75565b6000825111806117465750805b15610764576117558383611ab5565b50505050565b6000826000018281548110611772576117726120aa565b9060005260206000200154905092915050565b60606106426001600160a01b03831660145b606060006117a6836002612402565b6117b1906002612419565b67ffffffffffffffff8111156117c9576117c9611d26565b6040519080825280601f01601f1916602001820160405280156117f3576020820181803683370190505b509050600360fc1b8160008151811061180e5761180e6120aa565b60200101906001600160f81b031916908160001a905350600f60fb1b8160018151811061183d5761183d6120aa565b60200101906001600160f81b031916908160001a9053506000611861846002612402565b61186c906001612419565b90505b60018111156118e4576f181899199a1a9b1b9c1cb0b131b232b360811b85600f16601081106118a0576118a06120aa565b1a60f81b8282815181106118b6576118b66120aa565b60200101906001600160f81b031916908160001a90535060049490941c936118dd8161242c565b905061186f565b5083156106d55760405162461bcd60e51b815260206004820181905260248201527f537472696e67733a20686578206c656e67746820696e73756666696369656e7460448201526064016107d5565b600081815260018301602052604081205461197a57508154600181810184556000848152602080822090930184905584548482528286019093526040902091909155610642565b506000610642565b60008181526001830160205260408120548015611a6b5760006119a6600183612443565b85549091506000906119ba90600190612443565b9050818114611a1f5760008660000182815481106119da576119da6120aa565b90600052602060002001549050808760000184815481106119fd576119fd6120aa565b6000918252602080832090910192909255918252600188019052604090208390555b8554869080611a3057611a30612456565b600190038181906000526020600020016000905590558560010160008681526020019081526020016000206000905560019350505050610642565b6000915050610642565b611a7e81611694565b6040516001600160a01b038216907fbc7cd75a20ee27fd9adebab32041f755214dbc6bffa90cc0225b39da2e5c2d3b90600090a250565b60606001600160a01b0383163b611b1d5760405162461bcd60e51b815260206004820152602660248201527f416464726573733a2064656c65676174652063616c6c20746f206e6f6e2d636f6044820152651b9d1c9858dd60d21b60648201526084016107d5565b600080846001600160a01b031684604051611b38919061246c565b600060405180830381855af49150503d8060008114611b73576040519150601f19603f3d011682016040523d82523d6000602084013e611b78565b606091505b5091509150611ba082826040518060600160405280602781526020016124a960279139611ba9565b95945050505050565b60608315611bb85750816106d5565b6106d58383815115611bcd5781518083602001fd5b8060405162461bcd60e51b81526004016107d591906123d9565b600060208284031215611bf957600080fd5b81356001600160e01b0319811681146106d557600080fd5b60008060408385031215611c2457600080fd5b50508035926020909101359150565b6020808252825182820181905260009190848201906040850190845b81811015611c745783516001600160a01b031683529284019291840191600101611c4f565b50909695505050505050565b600060208284031215611c9257600080fd5b5035919050565b80356001600160a01b0381168114611cb057600080fd5b919050565b60008060408385031215611cc857600080fd5b82359150611cd860208401611c99565b90509250929050565b600060208284031215611cf357600080fd5b6106d582611c99565b60008060408385031215611d0f57600080fd5b611d1883611c99565b9150611cd860208401611c99565b634e487b7160e01b600052604160045260246000fd5b6040516080810167ffffffffffffffff81118282101715611d5f57611d5f611d26565b60405290565b604051601f8201601f1916810167ffffffffffffffff81118282101715611d8e57611d8e611d26565b604052919050565b600067ffffffffffffffff821115611db057611db0611d26565b50601f01601f191660200190565b6000611dd1611dcc84611d96565b611d65565b9050828152838383011115611de557600080fd5b828260208301376000602084830101529392505050565b60008060408385031215611e0f57600080fd5b611e1883611c99565b9150602083013567ffffffffffffffff811115611e3457600080fd5b8301601f81018513611e4557600080fd5b611e5485823560208401611dbe565b9150509250929050565b60005b83811015611e79578181015183820152602001611e61565b50506000910152565b60008151808452611e9a816020860160208601611e5e565b601f01601f19169290920160200192915050565b60006020808301818452808551808352604092508286019150828160051b87010184880160005b83811015611f2b57888303603f1901855281518051845287810151888501528681015187850152606090810151608091850182905290611f1781860183611e82565b968901969450505090860190600101611ed5565b509098975050505050505050565b6020808252825182820181905260009190848201906040850190845b81811015611c7457835183529284019291840191600101611f55565b600080600080600060a08688031215611f8957600080fd5b85359450602086013593506040860135925060608601359150608086013567ffffffffffffffff811115611fbc57600080fd5b8601601f81018813611fcd57600080fd5b611fdc88823560208401611dbe565b9150509295509295909350565b600067ffffffffffffffff82111561200357612003611d26565b5060051b60200190565b6000806040838503121561202057600080fd5b8235915060208084013567ffffffffffffffff81111561203f57600080fd5b8401601f8101861361205057600080fd5b803561205e611dcc82611fe9565b81815260059190911b8201830190838101908883111561207d57600080fd5b928401925b8284101561209b57833582529284019290840190612082565b80955050505050509250929050565b634e487b7160e01b600052603260045260246000fd5b6000602082840312156120d257600080fd5b5051919050565b6020808252602c908201527f46756e6374696f6e206d7573742062652063616c6c6564207468726f7567682060408201526b19195b1959d85d1958d85b1b60a21b606082015260800190565b6020808252602c908201527f46756e6374696f6e206d7573742062652063616c6c6564207468726f7567682060408201526b6163746976652070726f787960a01b606082015260800190565b6000602080838503121561218457600080fd5b825167ffffffffffffffff8082111561219c57600080fd5b818501915085601f8301126121b057600080fd5b81516121be611dcc82611fe9565b81815260059190911b830184019084810190888311156121dd57600080fd5b8585015b838110156122a7578051858111156121f95760008081fd5b86016080818c03601f19018113156122115760008081fd5b612219611d3c565b828a01518152604080840151828c0152606080850151828401529284015192898411156122465760008081fd5b83850194508e603f86011261225d57600093508384fd5b8b850151935061226f611dcc85611d96565b8481528f838688010111156122845760008081fd5b612293858e8301858901611e5e565b9083015250855250509186019186016121e1565b5098975050505050505050565b600060208083850312156122c757600080fd5b825167ffffffffffffffff8111156122de57600080fd5b8301601f810185136122ef57600080fd5b80516122fd611dcc82611fe9565b81815260059190911b8201830190838101908783111561231c57600080fd5b928401925b8284101561233a57835182529284019290840190612321565b979650505050505050565b838152826020820152606060408201526000611ba06060830184611e82565b7f416363657373436f6e74726f6c3a206163636f756e742000000000000000000081526000835161239c816017850160208801611e5e565b7001034b99036b4b9b9b4b733903937b6329607d1b60179184019182015283516123cd816028840160208801611e5e565b01602801949350505050565b6020815260006106d56020830184611e82565b634e487b7160e01b600052601160045260246000fd5b8082028115828204841417610642576106426123ec565b80820180821115610642576106426123ec565b60008161243b5761243b6123ec565b506000190190565b81810381811115610642576106426123ec565b634e487b7160e01b600052603160045260246000fd5b6000825161247e818460208701611e5e565b919091019291505056fe360894a13ba1a3210667c828492db98dca3e2076cc3735a920a3ca505d382bbc416464726573733a206c6f772d6c6576656c2064656c65676174652063616c6c206661696c6564a2646970667358221220a47f637dbc9706d618dba4fdd1d8141b38500f8bf25881be3c2a19dd8f31543e64736f6c63430008120033",
  "linkReferences": {},
  "deployedLinkReferences": {}
}