{
  "_format": "hh-sol-artifact-1",
  "contractName": "Battle",
  "sourceName": "contracts/battle/Battle.sol",
  "abi": [
    {
      "inputs": [],
      "stateMutability": "nonpayable",
      "type": "constructor"
    },
    {
      "anonymous": false,
      "inputs": [
        {
          "indexed": true,
          "internalType": "address",
          "name": "publisher",
          "type": "address"
        },
        {
          "indexed": true,
          "internalType": "address",
          "name": "battleSeasonAddress",
          "type": "address"
        }
      ],
      "name": "AddBattleSeasonAddress",
      "type": "event"
    },
    {
      "anonymous": false,
      "inputs": [
        {
          "indexed": false,
          "internalType": "address",
          "name": "previousAdmin",
          "type": "address"
        },
        {
          "indexed": false,
          "internalType": "address",
          "name": "newAdmin",
          "type": "address"
        }
      ],
      "name": "AdminChanged",
      "type": "event"
    },
    {
      "anonymous": false,
      "inputs": [
        {
          "indexed": true,
          "internalType": "address",
          "name": "beacon",
          "type": "address"
        }
      ],
      "name": "BeaconUpgraded",
      "type": "event"
    },
    {
      "anonymous": false,
      "inputs": [
        {
          "indexed": false,
          "internalType": "uint8",
          "name": "version",
          "type": "uint8"
        }
      ],
      "name": "Initialized",
      "type": "event"
    },
    {
      "anonymous": false,
      "inputs": [
        {
          "indexed": true,
          "internalType": "bytes32",
          "name": "role",
          "type": "bytes32"
        },
        {
          "indexed": true,
          "internalType": "bytes32",
          "name": "previousAdminRole",
          "type": "bytes32"
        },
        {
          "indexed": true,
          "internalType": "bytes32",
          "name": "newAdminRole",
          "type": "bytes32"
        }
      ],
      "name": "RoleAdminChanged",
      "type": "event"
    },
    {
      "anonymous": false,
      "inputs": [
        {
          "indexed": true,
          "internalType": "bytes32",
          "name": "role",
          "type": "bytes32"
        },
        {
          "indexed": true,
          "internalType": "address",
          "name": "account",
          "type": "address"
        },
        {
          "indexed": true,
          "internalType": "address",
          "name": "sender",
          "type": "address"
        }
      ],
      "name": "RoleGranted",
      "type": "event"
    },
    {
      "anonymous": false,
      "inputs": [
        {
          "indexed": true,
          "internalType": "bytes32",
          "name": "role",
          "type": "bytes32"
        },
        {
          "indexed": true,
          "internalType": "address",
          "name": "account",
          "type": "address"
        },
        {
          "indexed": true,
          "internalType": "address",
          "name": "sender",
          "type": "address"
        }
      ],
      "name": "RoleRevoked",
      "type": "event"
    },
    {
      "anonymous": false,
      "inputs": [
        {
          "indexed": true,
          "internalType": "address",
          "name": "publisher",
          "type": "address"
        },
        {
          "indexed": true,
          "internalType": "uint256",
          "name": "seasonId",
          "type": "uint256"
        },
        {
          "indexed": true,
          "internalType": "address",
          "name": "battleSeasonAddress",
          "type": "address"
        }
      ],
      "name": "SetBattleSeasonAddress",
      "type": "event"
    },
    {
      "anonymous": false,
      "inputs": [
        {
          "indexed": true,
          "internalType": "address",
          "name": "publisher",
          "type": "address"
        },
        {
          "indexed": true,
          "internalType": "uint256",
          "name": "newValue",
          "type": "uint256"
        }
      ],
      "name": "SetBattleStamina",
      "type": "event"
    },
    {
      "anonymous": false,
      "inputs": [
        {
          "indexed": true,
          "internalType": "address",
          "name": "publisher",
          "type": "address"
        },
        {
          "indexed": true,
          "internalType": "address",
          "name": "newValue",
          "type": "address"
        }
      ],
      "name": "SetPromptMonstersAddress",
      "type": "event"
    },
    {
      "anonymous": false,
      "inputs": [
        {
          "indexed": true,
          "internalType": "address",
          "name": "publisher",
          "type": "address"
        },
        {
          "indexed": true,
          "internalType": "address",
          "name": "newValue",
          "type": "address"
        }
      ],
      "name": "SetStaminaAddress",
      "type": "event"
    },
    {
      "anonymous": false,
      "inputs": [
        {
          "indexed": true,
          "internalType": "address",
          "name": "implementation",
          "type": "address"
        }
      ],
      "name": "Upgraded",
      "type": "event"
    },
    {
      "inputs": [],
      "name": "DEFAULT_ADMIN_ROLE",
      "outputs": [
        {
          "internalType": "bytes32",
          "name": "",
          "type": "bytes32"
        }
      ],
      "stateMutability": "view",
      "type": "function"
    },
    {
      "inputs": [
        {
          "internalType": "address",
          "name": "battleSeasonAddress",
          "type": "address"
        }
      ],
      "name": "addBattleSeasonAddress",
      "outputs": [],
      "stateMutability": "nonpayable",
      "type": "function"
    },
    {
      "inputs": [
        {
          "internalType": "uint256",
          "name": "seasonId",
          "type": "uint256"
        },
        {
          "internalType": "uint256",
          "name": "monsterId",
          "type": "uint256"
        },
        {
          "internalType": "uint256",
          "name": "winMonsterId",
          "type": "uint256"
        },
        {
          "internalType": "uint256",
          "name": "loseMonsterId",
          "type": "uint256"
        },
        {
          "internalType": "string",
          "name": "battleLog",
          "type": "string"
        }
      ],
      "name": "addSeasonBattleData",
      "outputs": [],
      "stateMutability": "nonpayable",
      "type": "function"
    },
    {
      "inputs": [],
      "name": "battleStamina",
      "outputs": [
        {
          "internalType": "uint256",
          "name": "",
          "type": "uint256"
        }
      ],
      "stateMutability": "view",
      "type": "function"
    },
    {
      "inputs": [
        {
          "internalType": "uint256",
          "name": "seasonId",
          "type": "uint256"
        },
        {
          "internalType": "uint256[]",
          "name": "monsterIds",
          "type": "uint256[]"
        }
      ],
      "name": "getBatchSeasonMatchCount",
      "outputs": [
        {
          "internalType": "uint256[]",
          "name": "",
          "type": "uint256[]"
        }
      ],
      "stateMutability": "view",
      "type": "function"
    },
    {
      "inputs": [
        {
          "internalType": "uint256",
          "name": "seasonId",
          "type": "uint256"
        },
        {
          "internalType": "uint256[]",
          "name": "monsterIds",
          "type": "uint256[]"
        }
      ],
      "name": "getBatchSeasonWinCount",
      "outputs": [
        {
          "internalType": "uint256[]",
          "name": "",
          "type": "uint256[]"
        }
      ],
      "stateMutability": "view",
      "type": "function"
    },
    {
      "inputs": [
        {
          "internalType": "uint256",
          "name": "seasonId",
          "type": "uint256"
        }
      ],
      "name": "getBattleSeasonAddress",
      "outputs": [
        {
          "internalType": "address",
          "name": "",
          "type": "address"
        }
      ],
      "stateMutability": "view",
      "type": "function"
    },
    {
      "inputs": [],
      "name": "getBattleSeasonsAddress",
      "outputs": [
        {
          "internalType": "address[]",
          "name": "",
          "type": "address[]"
        }
      ],
      "stateMutability": "view",
      "type": "function"
    },
    {
      "inputs": [],
      "name": "getBattleSeasonsAddressLength",
      "outputs": [
        {
          "internalType": "uint256",
          "name": "",
          "type": "uint256"
        }
      ],
      "stateMutability": "view",
      "type": "function"
    },
    {
      "inputs": [
        {
          "internalType": "bytes32",
          "name": "role",
          "type": "bytes32"
        }
      ],
      "name": "getRoleAdmin",
      "outputs": [
        {
          "internalType": "bytes32",
          "name": "",
          "type": "bytes32"
        }
      ],
      "stateMutability": "view",
      "type": "function"
    },
    {
      "inputs": [
        {
          "internalType": "bytes32",
          "name": "role",
          "type": "bytes32"
        },
        {
          "internalType": "uint256",
          "name": "index",
          "type": "uint256"
        }
      ],
      "name": "getRoleMember",
      "outputs": [
        {
          "internalType": "address",
          "name": "",
          "type": "address"
        }
      ],
      "stateMutability": "view",
      "type": "function"
    },
    {
      "inputs": [
        {
          "internalType": "bytes32",
          "name": "role",
          "type": "bytes32"
        }
      ],
      "name": "getRoleMemberCount",
      "outputs": [
        {
          "internalType": "uint256",
          "name": "",
          "type": "uint256"
        }
      ],
      "stateMutability": "view",
      "type": "function"
    },
    {
      "inputs": [
        {
          "internalType": "uint256",
          "name": "seasonId",
          "type": "uint256"
        }
      ],
      "name": "getSeasonBattleData",
      "outputs": [
        {
          "components": [
            {
              "internalType": "uint256",
              "name": "timestamp",
              "type": "uint256"
            },
            {
              "internalType": "uint256",
              "name": "winMonsterId",
              "type": "uint256"
            },
            {
              "internalType": "uint256",
              "name": "loseMonsterId",
              "type": "uint256"
            },
            {
              "internalType": "string",
              "name": "battleLog",
              "type": "string"
            }
          ],
          "internalType": "struct IBattleSeason.BattleData[]",
          "name": "",
          "type": "tuple[]"
        }
      ],
      "stateMutability": "view",
      "type": "function"
    },
    {
      "inputs": [
        {
          "internalType": "uint256",
          "name": "seasonId",
          "type": "uint256"
        },
        {
          "internalType": "uint256",
          "name": "monsterId",
          "type": "uint256"
        }
      ],
      "name": "getSeasonBattleDataByMonsterId",
      "outputs": [
        {
          "components": [
            {
              "internalType": "uint256",
              "name": "timestamp",
              "type": "uint256"
            },
            {
              "internalType": "uint256",
              "name": "winMonsterId",
              "type": "uint256"
            },
            {
              "internalType": "uint256",
              "name": "loseMonsterId",
              "type": "uint256"
            },
            {
              "internalType": "string",
              "name": "battleLog",
              "type": "string"
            }
          ],
          "internalType": "struct IBattleSeason.BattleData[]",
          "name": "",
          "type": "tuple[]"
        }
      ],
      "stateMutability": "view",
      "type": "function"
    },
    {
      "inputs": [
        {
          "internalType": "uint256",
          "name": "seasonId",
          "type": "uint256"
        },
        {
          "internalType": "uint256",
          "name": "monsterId",
          "type": "uint256"
        }
      ],
      "name": "getSeasonBattleIdList",
      "outputs": [
        {
          "internalType": "uint256[]",
          "name": "",
          "type": "uint256[]"
        }
      ],
      "stateMutability": "view",
      "type": "function"
    },
    {
      "inputs": [
        {
          "internalType": "uint256",
          "name": "seasonId",
          "type": "uint256"
        },
        {
          "internalType": "uint256",
          "name": "monsterId",
          "type": "uint256"
        }
      ],
      "name": "getSeasonMatchCount",
      "outputs": [
        {
          "internalType": "uint256",
          "name": "",
          "type": "uint256"
        }
      ],
      "stateMutability": "view",
      "type": "function"
    },
    {
      "inputs": [
        {
          "internalType": "uint256",
          "name": "seasonId",
          "type": "uint256"
        },
        {
          "internalType": "uint256",
          "name": "monsterId",
          "type": "uint256"
        }
      ],
      "name": "getSeasonWinCount",
      "outputs": [
        {
          "internalType": "uint256",
          "name": "",
          "type": "uint256"
        }
      ],
      "stateMutability": "view",
      "type": "function"
    },
    {
      "inputs": [
        {
          "internalType": "bytes32",
          "name": "role",
          "type": "bytes32"
        },
        {
          "internalType": "address",
          "name": "account",
          "type": "address"
        }
      ],
      "name": "grantRole",
      "outputs": [],
      "stateMutability": "nonpayable",
      "type": "function"
    },
    {
      "inputs": [
        {
          "internalType": "bytes32",
          "name": "role",
          "type": "bytes32"
        },
        {
          "internalType": "address",
          "name": "account",
          "type": "address"
        }
      ],
      "name": "hasRole",
      "outputs": [
        {
          "internalType": "bool",
          "name": "",
          "type": "bool"
        }
      ],
      "stateMutability": "view",
      "type": "function"
    },
    {
      "inputs": [
        {
          "internalType": "address",
          "name": "promptMonstersAddress",
          "type": "address"
        },
        {
          "internalType": "address",
          "name": "staminaAddress",
          "type": "address"
        }
      ],
      "name": "initialize",
      "outputs": [],
      "stateMutability": "nonpayable",
      "type": "function"
    },
    {
      "inputs": [],
      "name": "promptMonsters",
      "outputs": [
        {
          "internalType": "contract IPromptMonsters",
          "name": "",
          "type": "address"
        }
      ],
      "stateMutability": "view",
      "type": "function"
    },
    {
      "inputs": [],
      "name": "proxiableUUID",
      "outputs": [
        {
          "internalType": "bytes32",
          "name": "",
          "type": "bytes32"
        }
      ],
      "stateMutability": "view",
      "type": "function"
    },
    {
      "inputs": [
        {
          "internalType": "bytes32",
          "name": "role",
          "type": "bytes32"
        },
        {
          "internalType": "address",
          "name": "account",
          "type": "address"
        }
      ],
      "name": "renounceRole",
      "outputs": [],
      "stateMutability": "nonpayable",
      "type": "function"
    },
    {
      "inputs": [
        {
          "internalType": "bytes32",
          "name": "role",
          "type": "bytes32"
        },
        {
          "internalType": "address",
          "name": "account",
          "type": "address"
        }
      ],
      "name": "revokeRole",
      "outputs": [],
      "stateMutability": "nonpayable",
      "type": "function"
    },
    {
      "inputs": [
        {
          "internalType": "uint256",
          "name": "seasonId",
          "type": "uint256"
        },
        {
          "internalType": "address",
          "name": "battleSeasonAddress",
          "type": "address"
        }
      ],
      "name": "setBattleSeasonAddress",
      "outputs": [],
      "stateMutability": "nonpayable",
      "type": "function"
    },
    {
      "inputs": [
        {
          "internalType": "uint256",
          "name": "battleStamina_",
          "type": "uint256"
        }
      ],
      "name": "setBattleStamina",
      "outputs": [],
      "stateMutability": "nonpayable",
      "type": "function"
    },
    {
      "inputs": [],
      "name": "setGameRole",
      "outputs": [],
      "stateMutability": "nonpayable",
      "type": "function"
    },
    {
      "inputs": [
        {
          "internalType": "address",
          "name": "promptMonstersAddress",
          "type": "address"
        }
      ],
      "name": "setPromptMonstersAddress",
      "outputs": [],
      "stateMutability": "nonpayable",
      "type": "function"
    },
    {
      "inputs": [
        {
          "internalType": "address",
          "name": "staminaAddress",
          "type": "address"
        }
      ],
      "name": "setStaminaAddress",
      "outputs": [],
      "stateMutability": "nonpayable",
      "type": "function"
    },
    {
      "inputs": [],
      "name": "stamina",
      "outputs": [
        {
          "internalType": "contract IStamina",
          "name": "",
          "type": "address"
        }
      ],
      "stateMutability": "view",
      "type": "function"
    },
    {
      "inputs": [
        {
          "internalType": "bytes4",
          "name": "interfaceId",
          "type": "bytes4"
        }
      ],
      "name": "supportsInterface",
      "outputs": [
        {
          "internalType": "bool",
          "name": "",
          "type": "bool"
        }
      ],
      "stateMutability": "view",
      "type": "function"
    },
    {
      "inputs": [
        {
          "internalType": "address",
          "name": "newImplementation",
          "type": "address"
        }
      ],
      "name": "upgradeTo",
      "outputs": [],
      "stateMutability": "nonpayable",
      "type": "function"
    },
    {
      "inputs": [
        {
          "internalType": "address",
          "name": "newImplementation",
          "type": "address"
        },
        {
          "internalType": "bytes",
          "name": "data",
          "type": "bytes"
        }
      ],
      "name": "upgradeToAndCall",
      "outputs": [],
      "stateMutability": "payable",
      "type": "function"
    }
  ],
  "bytecode": "0x60a0604052306080523480156200001557600080fd5b506200002062000026565b620000e7565b600054610100900460ff1615620000935760405162461bcd60e51b815260206004820152602760248201527f496e697469616c697a61626c653a20636f6e747261637420697320696e697469604482015266616c697a696e6760c81b606482015260840160405180910390fd5b60005460ff90811614620000e5576000805460ff191660ff9081179091556040519081527f7f26b83ff96e1f2b6a682f133852f6798a09c465da95921460cefb38474024989060200160405180910390a15b565b6080516125746200011f600039600081816108160152818161085601528181610a5d01528181610a9d0152610b2c01526125746000f3fe6080604052600436106101ee5760003560e01c806391d148541161010d578063ce32cee2116100a0578063d770a2881161006f578063d770a288146105a7578063dc33eaac146105c7578063dde1bef5146105e7578063f53cd64914610608578063f7d4ae341461062857600080fd5b8063ce32cee214610526578063d547741f14610547578063d578806714610567578063d5bacb031461058757600080fd5b8063b3de2218116100dc578063b3de2218146104a6578063be6b58c1146104c6578063ca15c873146104e6578063cd8aaab11461050657600080fd5b806391d148541461043157806395a0a9e514610451578063a0aa949714610471578063a217fddf1461049157600080fd5b80634b1c115e116101855780637616431a116101545780637616431a146103955780638a569670146103c25780638af2f77b146103e25780639010d07c146103f957600080fd5b80634b1c115e1461032a5780634f1ef2861461034057806352d1902d146103535780635dff8e1b1461036857600080fd5b80632f2ff15d116101c15780632f2ff15d146102a857806336568abe146102ca5780633659cfe6146102ea578063485cc9551461030a57600080fd5b806301ffc9a7146101f35780630e919c1214610228578063133d5b8214610256578063248a9ca314610278575b600080fd5b3480156101ff57600080fd5b5061021361020e366004611c4d565b61063d565b60405190151581526020015b60405180910390f35b34801561023457600080fd5b50610248610243366004611c77565b610668565b60405190815260200161021f565b34801561026257600080fd5b5061026b6106fc565b60405161021f9190611c99565b34801561028457600080fd5b50610248610293366004611ce6565b60009081526065602052604090206001015490565b3480156102b457600080fd5b506102c86102c3366004611d1b565b61075f565b005b3480156102d657600080fd5b506102c86102e5366004611d1b565b610789565b3480156102f657600080fd5b506102c8610305366004611d47565b61080c565b34801561031657600080fd5b506102c8610325366004611d62565b6108eb565b34801561033657600080fd5b5061012f54610248565b6102c861034e366004611e62565b610a53565b34801561035f57600080fd5b50610248610b1f565b34801561037457600080fd5b50610388610383366004611c77565b610bd2565b60405161021f9190611f14565b3480156103a157600080fd5b506103b56103b0366004611c77565b610c62565b60405161021f9190611f9f565b3480156103ce57600080fd5b506102c86103dd366004611d47565b610cf3565b3480156103ee57600080fd5b506102486101305481565b34801561040557600080fd5b50610419610414366004611c77565b610d4c565b6040516001600160a01b03909116815260200161021f565b34801561043d57600080fd5b5061021361044c366004611d1b565b610d64565b34801561045d57600080fd5b506102c861046c366004611ce6565b610d8f565b34801561047d57600080fd5b506102c861048c366004611d1b565b610dd1565b34801561049d57600080fd5b50610248600081565b3480156104b257600080fd5b506103886104c1366004611ce6565b610e49565b3480156104d257600080fd5b506102c86104e1366004611fd7565b610ed3565b3480156104f257600080fd5b50610248610501366004611ce6565b611090565b34801561051257600080fd5b50610248610521366004611c77565b6110a7565b34801561053257600080fd5b5061012d54610419906001600160a01b031681565b34801561055357600080fd5b506102c8610562366004611d1b565b6110f7565b34801561057357600080fd5b506103b5610582366004612073565b61111c565b34801561059357600080fd5b506102c86105a2366004611d47565b61116b565b3480156105b357600080fd5b506102c86105c2366004611d47565b6111c4565b3480156105d357600080fd5b506103b56105e2366004612073565b61124c565b3480156105f357600080fd5b5061012e54610419906001600160a01b031681565b34801561061457600080fd5b50610419610623366004611ce6565b611299565b34801561063457600080fd5b506102c86112ca565b60006001600160e01b03198216635a05180f60e01b14806106625750610662826112fd565b92915050565b600061012f838154811061067e5761067e612110565b600091825260209091200154604051633b5bcd0f60e11b8152600481018490526001600160a01b03909116906376b79a1e906024015b602060405180830381865afa1580156106d1573d6000803e3d6000fd5b505050506040513d601f19601f820116820180604052508101906106f59190612126565b9392505050565b606061012f80548060200260200160405190810160405280929190818152602001828054801561075557602002820191906000526020600020905b81546001600160a01b03168152600190910190602001808311610737575b5050505050905090565b60008281526065602052604090206001015461077a81611332565b610784838361133c565b505050565b6001600160a01b03811633146107fe5760405162461bcd60e51b815260206004820152602f60248201527f416363657373436f6e74726f6c3a2063616e206f6e6c792072656e6f756e636560448201526e103937b632b9903337b91039b2b63360891b60648201526084015b60405180910390fd5b610808828261135e565b5050565b6001600160a01b037f00000000000000000000000000000000000000000000000000000000000000001630036108545760405162461bcd60e51b81526004016107f59061213f565b7f00000000000000000000000000000000000000000000000000000000000000006001600160a01b031661089d6000805160206124f8833981519152546001600160a01b031690565b6001600160a01b0316146108c35760405162461bcd60e51b81526004016107f59061218b565b6108cc81611380565b604080516000808252602082019092526108e89183919061138b565b50565b600054610100900460ff161580801561090b5750600054600160ff909116105b806109255750303b158015610925575060005460ff166001145b6109885760405162461bcd60e51b815260206004820152602e60248201527f496e697469616c697a61626c653a20636f6e747261637420697320616c72656160448201526d191e481a5b9a5d1a585b1a5e995960921b60648201526084016107f5565b6000805460ff1916600117905580156109ab576000805461ff0019166101001790555b6109b36114f6565b6109bb6114f6565b61012d80546001600160a01b038086166001600160a01b03199283161790925561012e8054928516929091169190911790556001610130556109fe60003061133c565b610a0960003361133c565b8015610784576000805461ff0019169055604051600181527f7f26b83ff96e1f2b6a682f133852f6798a09c465da95921460cefb38474024989060200160405180910390a1505050565b6001600160a01b037f0000000000000000000000000000000000000000000000000000000000000000163003610a9b5760405162461bcd60e51b81526004016107f59061213f565b7f00000000000000000000000000000000000000000000000000000000000000006001600160a01b0316610ae46000805160206124f8833981519152546001600160a01b031690565b6001600160a01b031614610b0a5760405162461bcd60e51b81526004016107f59061218b565b610b1382611380565b6108088282600161138b565b6000306001600160a01b037f00000000000000000000000000000000000000000000000000000000000000001614610bbf5760405162461bcd60e51b815260206004820152603860248201527f555550535570677261646561626c653a206d757374206e6f742062652063616c60448201527f6c6564207468726f7567682064656c656761746563616c6c000000000000000060648201526084016107f5565b506000805160206124f883398151915290565b606061012f8381548110610be857610be8612110565b600091825260209091200154604051636426cea160e11b8152600481018490526001600160a01b039091169063c84d9d4290602401600060405180830381865afa158015610c3a573d6000803e3d6000fd5b505050506040513d6000823e601f3d908101601f191682016040526106f591908101906121d7565b606061012f8381548110610c7857610c78612110565b600091825260209091200154604051636304f6b760e11b8152600481018490526001600160a01b039091169063c609ed6e906024015b600060405180830381865afa158015610ccb573d6000803e3d6000fd5b505050506040513d6000823e601f3d908101601f191682016040526106f5919081019061231a565b6000610cfe81611332565b61012e80546001600160a01b0319166001600160a01b03841690811790915560405133907fb8c1f74bf2e8c1ab8f3a67bf5e5d1371711ff7e39274976e5ee348a913ae8b3590600090a35050565b60008281526097602052604081206106f59083611563565b60009182526065602090815260408084206001600160a01b0393909316845291905290205460ff1690565b6000610d9a81611332565b610130829055604051829033907fd6df6a429c0c93b96162eadafe813ed2c37055a56eb88ba66f0b6fa9171c406090600090a35050565b6000610ddc81611332565b8161012f8481548110610df157610df1612110565b6000918252602082200180546001600160a01b0319166001600160a01b0393841617905560405191841691859133917fb06d10afe5278753c23883feba67113e9845ce326552aff72f0b2209e4320eaf9190a4505050565b606061012f8281548110610e5f57610e5f612110565b60009182526020822001546040805163748a6d1160e01b815290516001600160a01b039092169263748a6d11926004808401938290030181865afa158015610eab573d6000803e3d6000fd5b505050506040513d6000823e601f3d908101601f1916820160405261066291908101906121d7565b61013154610ee081611332565b61012d54604051638318646560e01b8152600481018690526001600160a01b039091169063831864659060240160006040518083038186803b158015610f2557600080fd5b505afa158015610f39573d6000803e3d6000fd5b505061012d54604051638318646560e01b8152600481018790526001600160a01b0390911692506383186465915060240160006040518083038186803b158015610f8257600080fd5b505afa158015610f96573d6000803e3d6000fd5b5050505061012f8681548110610fae57610fae612110565b6000918252602090912001546040516301a53ac760e21b81526001600160a01b0390911690630694eb1c90610feb908790879087906004016123ab565b600060405180830381600087803b15801561100557600080fd5b505af1158015611019573d6000803e3d6000fd5b505061012e546101305460405163739420a560e01b8152600481018a905260248101919091526001600160a01b03909116925063739420a59150604401600060405180830381600087803b15801561107057600080fd5b505af1158015611084573d6000803e3d6000fd5b50505050505050505050565b60008181526097602052604081206106629061156f565b600061012f83815481106110bd576110bd612110565b6000918252602090912001546040516339e0038360e21b8152600481018490526001600160a01b039091169063e7800e0c906024016106b4565b60008281526065602052604090206001015461111281611332565b610784838361135e565b606061012f838154811061113257611132612110565b60009182526020909120015460405163b34da6e360e01b81526001600160a01b039091169063b34da6e390610cae908590600401611f9f565b600061117681611332565b61012d80546001600160a01b0319166001600160a01b03841690811790915560405133907fbd099e12f37fee634effde3ec3b6bac8c16ade502c7275e1316d2c4bbf44589490600090a35050565b60006111cf81611332565b61012f805460018101825560009182527f232da9e50dad2971456a78fb5cd6ff6b75019984d6e918139ce990999420f9790180546001600160a01b0319166001600160a01b038516908117909155604051909133917ffe2891ac9b5d9a1ec361546d93f3f378fd8f42f2c2080b99cf3cc69bcd3902f89190a35050565b606061012f838154811061126257611262612110565b6000918252602090912001546040516285f54d60e01b81526001600160a01b03909116906285f54d90610cae908590600401611f9f565b600061012f82815481106112af576112af612110565b6000918252602090912001546001600160a01b031692915050565b60006112d581611332565b507f6a64baf327d646d1bca72653e2a075d15fd6ac6d8cbd7f6ee03fc55875e0fa8861013155565b60006001600160e01b03198216637965db0b60e01b148061066257506301ffc9a760e01b6001600160e01b0319831614610662565b6108e88133611579565b61134682826115d2565b60008281526097602052604090206107849082611658565b611368828261166d565b600082815260976020526040902061078490826116d4565b600061080881611332565b7f4910fdfa16fed3260ed0e7147f7cc6da11a60208b5b9406d12a635614ffd91435460ff16156113be57610784836116e9565b826001600160a01b03166352d1902d6040518163ffffffff1660e01b8152600401602060405180830381865afa925050508015611418575060408051601f3d908101601f1916820190925261141591810190612126565b60015b61147b5760405162461bcd60e51b815260206004820152602e60248201527f45524331393637557067726164653a206e657720696d706c656d656e7461746960448201526d6f6e206973206e6f74205555505360901b60648201526084016107f5565b6000805160206124f883398151915281146114ea5760405162461bcd60e51b815260206004820152602960248201527f45524331393637557067726164653a20756e737570706f727465642070726f786044820152681a58589b195555525160ba1b60648201526084016107f5565b50610784838383611785565b600054610100900460ff166115615760405162461bcd60e51b815260206004820152602b60248201527f496e697469616c697a61626c653a20636f6e7472616374206973206e6f74206960448201526a6e697469616c697a696e6760a81b60648201526084016107f5565b565b60006106f583836117b0565b6000610662825490565b6115838282610d64565b61080857611590816117da565b61159b8360206117ec565b6040516020016115ac9291906123d3565b60408051601f198184030181529082905262461bcd60e51b82526107f591600401612448565b6115dc8282610d64565b6108085760008281526065602090815260408083206001600160a01b03851684529091529020805460ff191660011790556116143390565b6001600160a01b0316816001600160a01b0316837f2f8788117e7eff1d82e926ec794901d17c78024a50270940304540a733656f0d60405160405180910390a45050565b60006106f5836001600160a01b038416611988565b6116778282610d64565b156108085760008281526065602090815260408083206001600160a01b0385168085529252808320805460ff1916905551339285917ff6391f5c32d9c69d2a47ea670b442974b53935d1edc7fd64eb21e047a839171b9190a45050565b60006106f5836001600160a01b0384166119d7565b6001600160a01b0381163b6117565760405162461bcd60e51b815260206004820152602d60248201527f455243313936373a206e657720696d706c656d656e746174696f6e206973206e60448201526c1bdd08184818dbdb9d1c9858dd609a1b60648201526084016107f5565b6000805160206124f883398151915280546001600160a01b0319166001600160a01b0392909216919091179055565b61178e83611aca565b60008251118061179b5750805b15610784576117aa8383611b0a565b50505050565b60008260000182815481106117c7576117c7612110565b9060005260206000200154905092915050565b60606106626001600160a01b03831660145b606060006117fb836002612471565b611806906002612488565b67ffffffffffffffff81111561181e5761181e611d8c565b6040519080825280601f01601f191660200182016040528015611848576020820181803683370190505b509050600360fc1b8160008151811061186357611863612110565b60200101906001600160f81b031916908160001a905350600f60fb1b8160018151811061189257611892612110565b60200101906001600160f81b031916908160001a90535060006118b6846002612471565b6118c1906001612488565b90505b6001811115611939576f181899199a1a9b1b9c1cb0b131b232b360811b85600f16601081106118f5576118f5612110565b1a60f81b82828151811061190b5761190b612110565b60200101906001600160f81b031916908160001a90535060049490941c936119328161249b565b90506118c4565b5083156106f55760405162461bcd60e51b815260206004820181905260248201527f537472696e67733a20686578206c656e67746820696e73756666696369656e7460448201526064016107f5565b60008181526001830160205260408120546119cf57508154600181810184556000848152602080822090930184905584548482528286019093526040902091909155610662565b506000610662565b60008181526001830160205260408120548015611ac05760006119fb6001836124b2565b8554909150600090611a0f906001906124b2565b9050818114611a74576000866000018281548110611a2f57611a2f612110565b9060005260206000200154905080876000018481548110611a5257611a52612110565b6000918252602080832090910192909255918252600188019052604090208390555b8554869080611a8557611a856124c5565b600190038181906000526020600020016000905590558560010160008681526020019081526020016000206000905560019350505050610662565b6000915050610662565b611ad3816116e9565b6040516001600160a01b038216907fbc7cd75a20ee27fd9adebab32041f755214dbc6bffa90cc0225b39da2e5c2d3b90600090a250565b60606106f58383604051806060016040528060278152602001612518602791396060600080856001600160a01b031685604051611b4791906124db565b600060405180830381855af49150503d8060008114611b82576040519150601f19603f3d011682016040523d82523d6000602084013e611b87565b606091505b5091509150611b9886838387611ba2565b9695505050505050565b60608315611c11578251600003611c0a576001600160a01b0385163b611c0a5760405162461bcd60e51b815260206004820152601d60248201527f416464726573733a2063616c6c20746f206e6f6e2d636f6e747261637400000060448201526064016107f5565b5081611c1b565b611c1b8383611c23565b949350505050565b815115611c335781518083602001fd5b8060405162461bcd60e51b81526004016107f59190612448565b600060208284031215611c5f57600080fd5b81356001600160e01b0319811681146106f557600080fd5b60008060408385031215611c8a57600080fd5b50508035926020909101359150565b6020808252825182820181905260009190848201906040850190845b81811015611cda5783516001600160a01b031683529284019291840191600101611cb5565b50909695505050505050565b600060208284031215611cf857600080fd5b5035919050565b80356001600160a01b0381168114611d1657600080fd5b919050565b60008060408385031215611d2e57600080fd5b82359150611d3e60208401611cff565b90509250929050565b600060208284031215611d5957600080fd5b6106f582611cff565b60008060408385031215611d7557600080fd5b611d7e83611cff565b9150611d3e60208401611cff565b634e487b7160e01b600052604160045260246000fd5b6040516080810167ffffffffffffffff81118282101715611dc557611dc5611d8c565b60405290565b604051601f8201601f1916810167ffffffffffffffff81118282101715611df457611df4611d8c565b604052919050565b600067ffffffffffffffff821115611e1657611e16611d8c565b50601f01601f191660200190565b6000611e37611e3284611dfc565b611dcb565b9050828152838383011115611e4b57600080fd5b828260208301376000602084830101529392505050565b60008060408385031215611e7557600080fd5b611e7e83611cff565b9150602083013567ffffffffffffffff811115611e9a57600080fd5b8301601f81018513611eab57600080fd5b611eba85823560208401611e24565b9150509250929050565b60005b83811015611edf578181015183820152602001611ec7565b50506000910152565b60008151808452611f00816020860160208601611ec4565b601f01601f19169290920160200192915050565b60006020808301818452808551808352604092508286019150828160051b87010184880160005b83811015611f9157888303603f1901855281518051845287810151888501528681015187850152606090810151608091850182905290611f7d81860183611ee8565b968901969450505090860190600101611f3b565b509098975050505050505050565b6020808252825182820181905260009190848201906040850190845b81811015611cda57835183529284019291840191600101611fbb565b600080600080600060a08688031215611fef57600080fd5b85359450602086013593506040860135925060608601359150608086013567ffffffffffffffff81111561202257600080fd5b8601601f8101881361203357600080fd5b61204288823560208401611e24565b9150509295509295909350565b600067ffffffffffffffff82111561206957612069611d8c565b5060051b60200190565b6000806040838503121561208657600080fd5b8235915060208084013567ffffffffffffffff8111156120a557600080fd5b8401601f810186136120b657600080fd5b80356120c4611e328261204f565b81815260059190911b820183019083810190888311156120e357600080fd5b928401925b82841015612101578335825292840192908401906120e8565b80955050505050509250929050565b634e487b7160e01b600052603260045260246000fd5b60006020828403121561213857600080fd5b5051919050565b6020808252602c908201527f46756e6374696f6e206d7573742062652063616c6c6564207468726f7567682060408201526b19195b1959d85d1958d85b1b60a21b606082015260800190565b6020808252602c908201527f46756e6374696f6e206d7573742062652063616c6c6564207468726f7567682060408201526b6163746976652070726f787960a01b606082015260800190565b600060208083850312156121ea57600080fd5b825167ffffffffffffffff8082111561220257600080fd5b818501915085601f83011261221657600080fd5b8151612224611e328261204f565b81815260059190911b8301840190848101908883111561224357600080fd5b8585015b8381101561230d5780518581111561225f5760008081fd5b86016080818c03601f19018113156122775760008081fd5b61227f611da2565b828a01518152604080840151828c0152606080850151828401529284015192898411156122ac5760008081fd5b83850194508e603f8601126122c357600093508384fd5b8b85015193506122d5611e3285611dfc565b8481528f838688010111156122ea5760008081fd5b6122f9858e8301858901611ec4565b908301525085525050918601918601612247565b5098975050505050505050565b6000602080838503121561232d57600080fd5b825167ffffffffffffffff81111561234457600080fd5b8301601f8101851361235557600080fd5b8051612363611e328261204f565b81815260059190911b8201830190838101908783111561238257600080fd5b928401925b828410156123a057835182529284019290840190612387565b979650505050505050565b8381528260208201526060604082015260006123ca6060830184611ee8565b95945050505050565b7f416363657373436f6e74726f6c3a206163636f756e742000000000000000000081526000835161240b816017850160208801611ec4565b7001034b99036b4b9b9b4b733903937b6329607d1b601791840191820152835161243c816028840160208801611ec4565b01602801949350505050565b6020815260006106f56020830184611ee8565b634e487b7160e01b600052601160045260246000fd5b80820281158282048414176106625761066261245b565b808201808211156106625761066261245b565b6000816124aa576124aa61245b565b506000190190565b818103818111156106625761066261245b565b634e487b7160e01b600052603160045260246000fd5b600082516124ed818460208701611ec4565b919091019291505056fe360894a13ba1a3210667c828492db98dca3e2076cc3735a920a3ca505d382bbc416464726573733a206c6f772d6c6576656c2064656c65676174652063616c6c206661696c6564a2646970667358221220b7a35a3ae3b99ec4290e2b73cdfaa38edec0aaad621d0247dfa7628f904b8e6464736f6c63430008120033",
  "linkReferences": {},
  "deployedLinkReferences": {}
}