{
  "_format": "hh-sol-artifact-1",
  "contractName": "BossBattle",
  "sourceName": "contracts/boss-battle/BossBattle.sol",
  "abi": [
    {
      "inputs": [],
      "stateMutability": "nonpayable",
      "type": "constructor"
    },
    {
      "anonymous": false,
      "inputs": [
        {
          "indexed": true,
          "internalType": "address",
          "name": "publisher",
          "type": "address"
        },
        {
          "indexed": true,
          "internalType": "string",
          "name": "eventKey",
          "type": "string"
        },
        {
          "indexed": false,
          "internalType": "address",
          "name": "bossBattleEvent",
          "type": "address"
        }
      ],
      "name": "AddedBossBattleEvent",
      "type": "event"
    },
    {
      "anonymous": false,
      "inputs": [
        {
          "indexed": true,
          "internalType": "address",
          "name": "publisher",
          "type": "address"
        },
        {
          "indexed": true,
          "internalType": "uint256",
          "name": "index",
          "type": "uint256"
        },
        {
          "indexed": false,
          "internalType": "string",
          "name": "eventKey",
          "type": "string"
        }
      ],
      "name": "AddedEventKey",
      "type": "event"
    },
    {
      "anonymous": false,
      "inputs": [
        {
          "indexed": false,
          "internalType": "address",
          "name": "previousAdmin",
          "type": "address"
        },
        {
          "indexed": false,
          "internalType": "address",
          "name": "newAdmin",
          "type": "address"
        }
      ],
      "name": "AdminChanged",
      "type": "event"
    },
    {
      "anonymous": false,
      "inputs": [
        {
          "indexed": true,
          "internalType": "address",
          "name": "beacon",
          "type": "address"
        }
      ],
      "name": "BeaconUpgraded",
      "type": "event"
    },
    {
      "anonymous": false,
      "inputs": [
        {
          "indexed": false,
          "internalType": "uint8",
          "name": "version",
          "type": "uint8"
        }
      ],
      "name": "Initialized",
      "type": "event"
    },
    {
      "anonymous": false,
      "inputs": [
        {
          "indexed": true,
          "internalType": "bytes32",
          "name": "role",
          "type": "bytes32"
        },
        {
          "indexed": true,
          "internalType": "bytes32",
          "name": "previousAdminRole",
          "type": "bytes32"
        },
        {
          "indexed": true,
          "internalType": "bytes32",
          "name": "newAdminRole",
          "type": "bytes32"
        }
      ],
      "name": "RoleAdminChanged",
      "type": "event"
    },
    {
      "anonymous": false,
      "inputs": [
        {
          "indexed": true,
          "internalType": "bytes32",
          "name": "role",
          "type": "bytes32"
        },
        {
          "indexed": true,
          "internalType": "address",
          "name": "account",
          "type": "address"
        },
        {
          "indexed": true,
          "internalType": "address",
          "name": "sender",
          "type": "address"
        }
      ],
      "name": "RoleGranted",
      "type": "event"
    },
    {
      "anonymous": false,
      "inputs": [
        {
          "indexed": true,
          "internalType": "bytes32",
          "name": "role",
          "type": "bytes32"
        },
        {
          "indexed": true,
          "internalType": "address",
          "name": "account",
          "type": "address"
        },
        {
          "indexed": true,
          "internalType": "address",
          "name": "sender",
          "type": "address"
        }
      ],
      "name": "RoleRevoked",
      "type": "event"
    },
    {
      "anonymous": false,
      "inputs": [
        {
          "indexed": true,
          "internalType": "address",
          "name": "publisher",
          "type": "address"
        },
        {
          "indexed": true,
          "internalType": "string",
          "name": "eventKey",
          "type": "string"
        },
        {
          "indexed": true,
          "internalType": "uint256",
          "name": "bbeId",
          "type": "uint256"
        },
        {
          "indexed": false,
          "internalType": "address",
          "name": "oldValue",
          "type": "address"
        },
        {
          "indexed": false,
          "internalType": "address",
          "name": "newValue",
          "type": "address"
        }
      ],
      "name": "SetBossBattleEvent",
      "type": "event"
    },
    {
      "anonymous": false,
      "inputs": [
        {
          "indexed": true,
          "internalType": "address",
          "name": "publisher",
          "type": "address"
        },
        {
          "indexed": true,
          "internalType": "uint256",
          "name": "index",
          "type": "uint256"
        },
        {
          "indexed": false,
          "internalType": "string",
          "name": "oldValue",
          "type": "string"
        },
        {
          "indexed": false,
          "internalType": "string",
          "name": "newValue",
          "type": "string"
        }
      ],
      "name": "SetEventKey",
      "type": "event"
    },
    {
      "anonymous": false,
      "inputs": [
        {
          "indexed": true,
          "internalType": "address",
          "name": "implementation",
          "type": "address"
        }
      ],
      "name": "Upgraded",
      "type": "event"
    },
    {
      "inputs": [],
      "name": "DEFAULT_ADMIN_ROLE",
      "outputs": [
        {
          "internalType": "bytes32",
          "name": "",
          "type": "bytes32"
        }
      ],
      "stateMutability": "view",
      "type": "function"
    },
    {
      "inputs": [
        {
          "internalType": "string",
          "name": "eventKey",
          "type": "string"
        },
        {
          "internalType": "address",
          "name": "bossBattleEvent",
          "type": "address"
        }
      ],
      "name": "addBossBattleEvent",
      "outputs": [],
      "stateMutability": "nonpayable",
      "type": "function"
    },
    {
      "inputs": [
        {
          "internalType": "string",
          "name": "eventKey",
          "type": "string"
        }
      ],
      "name": "addEventKey",
      "outputs": [],
      "stateMutability": "nonpayable",
      "type": "function"
    },
    {
      "inputs": [
        {
          "internalType": "string",
          "name": "eventKey",
          "type": "string"
        },
        {
          "internalType": "uint256",
          "name": "bbeId",
          "type": "uint256"
        },
        {
          "internalType": "address",
          "name": "resurrectionPrompt",
          "type": "address"
        },
        {
          "internalType": "uint32",
          "name": "bossSign",
          "type": "uint32"
        }
      ],
      "name": "continueBossBattle",
      "outputs": [],
      "stateMutability": "nonpayable",
      "type": "function"
    },
    {
      "inputs": [
        {
          "internalType": "string",
          "name": "eventKey",
          "type": "string"
        },
        {
          "internalType": "uint256",
          "name": "bbeId",
          "type": "uint256"
        },
        {
          "internalType": "address",
          "name": "resurrectionPrompt",
          "type": "address"
        }
      ],
      "name": "endBossBattle",
      "outputs": [],
      "stateMutability": "nonpayable",
      "type": "function"
    },
    {
      "inputs": [
        {
          "internalType": "string",
          "name": "eventKey",
          "type": "string"
        },
        {
          "internalType": "uint256",
          "name": "bbeId",
          "type": "uint256"
        },
        {
          "internalType": "address",
          "name": "resurrectionPrompt",
          "type": "address"
        }
      ],
      "name": "getBBState",
      "outputs": [
        {
          "components": [
            {
              "internalType": "bool",
              "name": "bossBattleStarted",
              "type": "bool"
            },
            {
              "internalType": "bool",
              "name": "bossBattleContinued",
              "type": "bool"
            },
            {
              "internalType": "uint32",
              "name": "lp",
              "type": "uint32"
            },
            {
              "internalType": "uint32",
              "name": "turn",
              "type": "uint32"
            },
            {
              "internalType": "uint32",
              "name": "score",
              "type": "uint32"
            },
            {
              "internalType": "uint32",
              "name": "monsterAdj",
              "type": "uint32"
            },
            {
              "internalType": "uint32",
              "name": "bossAdj",
              "type": "uint32"
            },
            {
              "internalType": "uint32",
              "name": "bossSign",
              "type": "uint32"
            },
            {
              "internalType": "bool",
              "name": "hasHealItem",
              "type": "bool"
            },
            {
              "internalType": "bool",
              "name": "hasBuffItem",
              "type": "bool"
            },
            {
              "internalType": "bool",
              "name": "hasDebuffItem",
              "type": "bool"
            },
            {
              "internalType": "bool",
              "name": "hasEscapeItem",
              "type": "bool"
            }
          ],
          "internalType": "struct IBossBattleEvent.BBState",
          "name": "bbState",
          "type": "tuple"
        }
      ],
      "stateMutability": "view",
      "type": "function"
    },
    {
      "inputs": [],
      "name": "getBossBattleEvents",
      "outputs": [
        {
          "internalType": "address[][]",
          "name": "returnValue",
          "type": "address[][]"
        }
      ],
      "stateMutability": "view",
      "type": "function"
    },
    {
      "inputs": [
        {
          "internalType": "string",
          "name": "eventKey",
          "type": "string"
        },
        {
          "internalType": "uint256",
          "name": "bbeId",
          "type": "uint256"
        },
        {
          "internalType": "string",
          "name": "language",
          "type": "string"
        }
      ],
      "name": "getBossExtension",
      "outputs": [
        {
          "components": [
            {
              "internalType": "string",
              "name": "feature",
              "type": "string"
            },
            {
              "internalType": "string",
              "name": "name",
              "type": "string"
            },
            {
              "internalType": "string",
              "name": "flavor",
              "type": "string"
            },
            {
              "internalType": "string[]",
              "name": "skills",
              "type": "string[]"
            },
            {
              "internalType": "uint32",
              "name": "lv",
              "type": "uint32"
            },
            {
              "internalType": "uint32",
              "name": "hp",
              "type": "uint32"
            },
            {
              "internalType": "uint32",
              "name": "atk",
              "type": "uint32"
            },
            {
              "internalType": "uint32",
              "name": "def",
              "type": "uint32"
            },
            {
              "internalType": "uint32",
              "name": "inte",
              "type": "uint32"
            },
            {
              "internalType": "uint32",
              "name": "mgr",
              "type": "uint32"
            },
            {
              "internalType": "uint32",
              "name": "agl",
              "type": "uint32"
            },
            {
              "internalType": "uint32[]",
              "name": "skillTypes",
              "type": "uint32[]"
            },
            {
              "internalType": "address",
              "name": "resurrectionPrompt",
              "type": "address"
            }
          ],
          "internalType": "struct IPromptMonstersExtension.MonsterExtension",
          "name": "monsterExtension",
          "type": "tuple"
        }
      ],
      "stateMutability": "view",
      "type": "function"
    },
    {
      "inputs": [],
      "name": "getEventKeys",
      "outputs": [
        {
          "internalType": "string[]",
          "name": "returnValue",
          "type": "string[]"
        }
      ],
      "stateMutability": "view",
      "type": "function"
    },
    {
      "inputs": [
        {
          "internalType": "string",
          "name": "eventKey",
          "type": "string"
        },
        {
          "internalType": "uint256",
          "name": "bbeId",
          "type": "uint256"
        },
        {
          "internalType": "address",
          "name": "resurrectionPrompt",
          "type": "address"
        }
      ],
      "name": "getMonsterAdj",
      "outputs": [
        {
          "components": [
            {
              "internalType": "uint32",
              "name": "weaknessFeatureAdj",
              "type": "uint32"
            }
          ],
          "internalType": "struct IBossMonster.MonsterAdj",
          "name": "monsterAdj",
          "type": "tuple"
        }
      ],
      "stateMutability": "view",
      "type": "function"
    },
    {
      "inputs": [
        {
          "internalType": "bytes32",
          "name": "role",
          "type": "bytes32"
        }
      ],
      "name": "getRoleAdmin",
      "outputs": [
        {
          "internalType": "bytes32",
          "name": "",
          "type": "bytes32"
        }
      ],
      "stateMutability": "view",
      "type": "function"
    },
    {
      "inputs": [
        {
          "internalType": "bytes32",
          "name": "role",
          "type": "bytes32"
        },
        {
          "internalType": "uint256",
          "name": "index",
          "type": "uint256"
        }
      ],
      "name": "getRoleMember",
      "outputs": [
        {
          "internalType": "address",
          "name": "",
          "type": "address"
        }
      ],
      "stateMutability": "view",
      "type": "function"
    },
    {
      "inputs": [
        {
          "internalType": "bytes32",
          "name": "role",
          "type": "bytes32"
        }
      ],
      "name": "getRoleMemberCount",
      "outputs": [
        {
          "internalType": "uint256",
          "name": "",
          "type": "uint256"
        }
      ],
      "stateMutability": "view",
      "type": "function"
    },
    {
      "inputs": [
        {
          "internalType": "bytes32",
          "name": "role",
          "type": "bytes32"
        },
        {
          "internalType": "address",
          "name": "account",
          "type": "address"
        }
      ],
      "name": "grantRole",
      "outputs": [],
      "stateMutability": "nonpayable",
      "type": "function"
    },
    {
      "inputs": [
        {
          "internalType": "bytes32",
          "name": "role",
          "type": "bytes32"
        },
        {
          "internalType": "address",
          "name": "account",
          "type": "address"
        }
      ],
      "name": "hasRole",
      "outputs": [
        {
          "internalType": "bool",
          "name": "",
          "type": "bool"
        }
      ],
      "stateMutability": "view",
      "type": "function"
    },
    {
      "inputs": [],
      "name": "initialize",
      "outputs": [],
      "stateMutability": "nonpayable",
      "type": "function"
    },
    {
      "inputs": [],
      "name": "proxiableUUID",
      "outputs": [
        {
          "internalType": "bytes32",
          "name": "",
          "type": "bytes32"
        }
      ],
      "stateMutability": "view",
      "type": "function"
    },
    {
      "inputs": [
        {
          "internalType": "bytes32",
          "name": "role",
          "type": "bytes32"
        },
        {
          "internalType": "address",
          "name": "account",
          "type": "address"
        }
      ],
      "name": "renounceRole",
      "outputs": [],
      "stateMutability": "nonpayable",
      "type": "function"
    },
    {
      "inputs": [
        {
          "internalType": "bytes32",
          "name": "role",
          "type": "bytes32"
        },
        {
          "internalType": "address",
          "name": "account",
          "type": "address"
        }
      ],
      "name": "revokeRole",
      "outputs": [],
      "stateMutability": "nonpayable",
      "type": "function"
    },
    {
      "inputs": [
        {
          "internalType": "string",
          "name": "eventKey",
          "type": "string"
        },
        {
          "internalType": "uint256",
          "name": "bbeId",
          "type": "uint256"
        },
        {
          "internalType": "address",
          "name": "bossBattleEvent",
          "type": "address"
        }
      ],
      "name": "setBossBattleEvent",
      "outputs": [],
      "stateMutability": "nonpayable",
      "type": "function"
    },
    {
      "inputs": [
        {
          "internalType": "uint256",
          "name": "index",
          "type": "uint256"
        },
        {
          "internalType": "string",
          "name": "eventKey",
          "type": "string"
        }
      ],
      "name": "setEventKey",
      "outputs": [],
      "stateMutability": "nonpayable",
      "type": "function"
    },
    {
      "inputs": [
        {
          "internalType": "string",
          "name": "eventKey",
          "type": "string"
        },
        {
          "internalType": "uint256",
          "name": "bbeId",
          "type": "uint256"
        },
        {
          "internalType": "address",
          "name": "resurrectionPrompt",
          "type": "address"
        },
        {
          "components": [
            {
              "internalType": "uint32",
              "name": "weaknessFeatureAdj",
              "type": "uint32"
            }
          ],
          "internalType": "struct IBossMonster.MonsterAdj",
          "name": "monsterAdj",
          "type": "tuple"
        }
      ],
      "name": "setMonsterAdj",
      "outputs": [],
      "stateMutability": "nonpayable",
      "type": "function"
    },
    {
      "inputs": [
        {
          "internalType": "string",
          "name": "eventKey",
          "type": "string"
        },
        {
          "internalType": "uint256",
          "name": "bbeId",
          "type": "uint256"
        },
        {
          "internalType": "address",
          "name": "resurrectionPrompt",
          "type": "address"
        },
        {
          "internalType": "uint32",
          "name": "monsterAdj",
          "type": "uint32"
        },
        {
          "internalType": "uint32",
          "name": "bossSign",
          "type": "uint32"
        }
      ],
      "name": "startBossBattle",
      "outputs": [],
      "stateMutability": "nonpayable",
      "type": "function"
    },
    {
      "inputs": [
        {
          "internalType": "bytes4",
          "name": "interfaceId",
          "type": "bytes4"
        }
      ],
      "name": "supportsInterface",
      "outputs": [
        {
          "internalType": "bool",
          "name": "",
          "type": "bool"
        }
      ],
      "stateMutability": "view",
      "type": "function"
    },
    {
      "inputs": [
        {
          "internalType": "string",
          "name": "eventKey",
          "type": "string"
        },
        {
          "internalType": "uint256",
          "name": "bbeId",
          "type": "uint256"
        },
        {
          "internalType": "address",
          "name": "resurrectionPrompt",
          "type": "address"
        },
        {
          "components": [
            {
              "internalType": "bool",
              "name": "bossBattleStarted",
              "type": "bool"
            },
            {
              "internalType": "bool",
              "name": "bossBattleContinued",
              "type": "bool"
            },
            {
              "internalType": "uint32",
              "name": "lp",
              "type": "uint32"
            },
            {
              "internalType": "uint32",
              "name": "turn",
              "type": "uint32"
            },
            {
              "internalType": "uint32",
              "name": "score",
              "type": "uint32"
            },
            {
              "internalType": "uint32",
              "name": "monsterAdj",
              "type": "uint32"
            },
            {
              "internalType": "uint32",
              "name": "bossAdj",
              "type": "uint32"
            },
            {
              "internalType": "uint32",
              "name": "bossSign",
              "type": "uint32"
            },
            {
              "internalType": "bool",
              "name": "hasHealItem",
              "type": "bool"
            },
            {
              "internalType": "bool",
              "name": "hasBuffItem",
              "type": "bool"
            },
            {
              "internalType": "bool",
              "name": "hasDebuffItem",
              "type": "bool"
            },
            {
              "internalType": "bool",
              "name": "hasEscapeItem",
              "type": "bool"
            }
          ],
          "internalType": "struct IBossBattleEvent.BBState",
          "name": "bbState",
          "type": "tuple"
        }
      ],
      "name": "updateBossBattleResult",
      "outputs": [],
      "stateMutability": "nonpayable",
      "type": "function"
    },
    {
      "inputs": [
        {
          "internalType": "address",
          "name": "newImplementation",
          "type": "address"
        }
      ],
      "name": "upgradeTo",
      "outputs": [],
      "stateMutability": "nonpayable",
      "type": "function"
    },
    {
      "inputs": [
        {
          "internalType": "address",
          "name": "newImplementation",
          "type": "address"
        },
        {
          "internalType": "bytes",
          "name": "data",
          "type": "bytes"
        }
      ],
      "name": "upgradeToAndCall",
      "outputs": [],
      "stateMutability": "payable",
      "type": "function"
    }
  ],
  "bytecode": "0x60a0604052306080523480156200001557600080fd5b506200002062000026565b620000e8565b600054610100900460ff1615620000935760405162461bcd60e51b815260206004820152602760248201527f496e697469616c697a61626c653a20636f6e747261637420697320696e697469604482015266616c697a696e6760c81b606482015260840160405180910390fd5b60005460ff9081161015620000e6576000805460ff191660ff9081179091556040519081527f7f26b83ff96e1f2b6a682f133852f6798a09c465da95921460cefb38474024989060200160405180910390a15b565b6080516135ce620001206000396000818161074e0152818161078e015281816108de0152818161091e01526109ad01526135ce6000f3fe60806040526004361061019c5760003560e01c806365f0c7a7116100ec5780639f7011c01161008a578063ca15c87311610064578063ca15c873146104d3578063d547741f146104f3578063ed3f789414610513578063edf15d8e1461053357600080fd5b80639f7011c014610469578063a217fddf1461049e578063bef36090146104b357600080fd5b80638129fc1c116100c65780638129fc1c146103dc578063900abe7e146103f15780639010d07c1461041157806391d148541461044957600080fd5b806365f0c7a71461037a5780637ab65e581461039c5780637e90a18f146103bc57600080fd5b80633947b3641161015957806356e210fc1161013357806356e210fc146102e05780635773c7e0146103005780635a71c0a01461032d57806361b61cbe1461035a57600080fd5b80633947b364146102985780634f1ef286146102b857806352d1902d146102cb57600080fd5b806301ffc9a7146101a15780631f99342a146101d6578063248a9ca3146101f85780632f2ff15d1461023657806336568abe146102585780633659cfe614610278575b600080fd5b3480156101ad57600080fd5b506101c16101bc366004612227565b610553565b60405190151581526020015b60405180910390f35b3480156101e257600080fd5b506101eb61057e565b6040516101cd9190612251565b34801561020457600080fd5b506102286102133660046122e4565b60009081526065602052604090206001015490565b6040519081526020016101cd565b34801561024257600080fd5b50610256610251366004612312565b610697565b005b34801561026457600080fd5b50610256610273366004612312565b6106c1565b34801561028457600080fd5b50610256610293366004612342565b610744565b3480156102a457600080fd5b506102566102b33660046124d3565b610823565b6102566102c6366004612624565b6108d4565b3480156102d757600080fd5b506102286109a0565b3480156102ec57600080fd5b506102566102fb366004612687565b610a53565b34801561030c57600080fd5b5061032061031b3660046126f2565b610ad7565b6040516101cd9190612830565b34801561033957600080fd5b5061034d61034836600461283f565b610be5565b6040516101cd9190612991565b34801561036657600080fd5b506102566103753660046126f2565b610d71565b34801561038657600080fd5b5061038f610f45565b6040516101cd9190612af4565b3480156103a857600080fd5b506102566103b7366004612b07565b61101f565b3480156103c857600080fd5b506102566103d73660046126f2565b611145565b3480156103e857600080fd5b506102566111f0565b3480156103fd57600080fd5b5061025661040c366004612b90565b611344565b34801561041d57600080fd5b5061043161042c366004612c10565b6113d0565b6040516001600160a01b0390911681526020016101cd565b34801561045557600080fd5b506101c1610464366004612312565b6113ef565b34801561047557600080fd5b506104896104843660046126f2565b61141a565b604051905163ffffffff1681526020016101cd565b3480156104aa57600080fd5b50610228600081565b3480156104bf57600080fd5b506102566104ce366004612c32565b61153b565b3480156104df57600080fd5b506102286104ee3660046122e4565b6116ca565b3480156104ff57600080fd5b5061025661050e366004612312565b6116e1565b34801561051f57600080fd5b5061025661052e366004612c6e565b611706565b34801561053f57600080fd5b5061025661054e366004612ca2565b611798565b60006001600160e01b03198216635a05180f60e01b14806105785750610578826118f7565b92915050565b61012e54606090806001600160401b0381111561059d5761059d61235f565b6040519080825280602002602001820160405280156105d057816020015b60608152602001906001900390816105bb5790505b50915060005b818110156106925761012f61012e82815481106105f5576105f5612ce8565b9060005260206000200160405161060c9190612d38565b908152604080519182900360209081018320805480830285018301909352828452919083018282801561066857602002820191906000526020600020905b81546001600160a01b0316815260019091019060200180831161064a575b505050505083828151811061067f5761067f612ce8565b60209081029190910101526001016105d6565b505090565b6000828152606560205260409020600101546106b28161192c565b6106bc8383611936565b505050565b6001600160a01b03811633146107365760405162461bcd60e51b815260206004820152602f60248201527f416363657373436f6e74726f6c3a2063616e206f6e6c792072656e6f756e636560448201526e103937b632b9903337b91039b2b63360891b60648201526084015b60405180910390fd5b6107408282611958565b5050565b6001600160a01b037f000000000000000000000000000000000000000000000000000000000000000016300361078c5760405162461bcd60e51b815260040161072d90612dae565b7f00000000000000000000000000000000000000000000000000000000000000006001600160a01b03166107d5600080516020613552833981519152546001600160a01b031690565b6001600160a01b0316146107fb5760405162461bcd60e51b815260040161072d90612dfa565b6108048161197a565b6040805160008082526020820190925261082091839190611985565b50565b61012d546108308161192c565b61012f856040516108419190612e46565b9081526020016040518091039020848154811061086057610860612ce8565b60009182526020909120015460405163dd0b136560e01b81526001600160a01b039091169063dd0b13659061089b9086908690600401612e62565b600060405180830381600087803b1580156108b557600080fd5b505af11580156108c9573d6000803e3d6000fd5b505050505050505050565b6001600160a01b037f000000000000000000000000000000000000000000000000000000000000000016300361091c5760405162461bcd60e51b815260040161072d90612dae565b7f00000000000000000000000000000000000000000000000000000000000000006001600160a01b0316610965600080516020613552833981519152546001600160a01b031690565b6001600160a01b03161461098b5760405162461bcd60e51b815260040161072d90612dfa565b6109948261197a565b61074082826001611985565b6000306001600160a01b037f00000000000000000000000000000000000000000000000000000000000000001614610a405760405162461bcd60e51b815260206004820152603860248201527f555550535570677261646561626c653a206d757374206e6f742062652063616c60448201527f6c6564207468726f7567682064656c656761746563616c6c0000000000000000606482015260840161072d565b5060008051602061355283398151915290565b61012d54610a608161192c565b61012f85604051610a719190612e46565b90815260200160405180910390208481548110610a9057610a90612ce8565b600091825260209091200154604051631d45f7ad60e01b81526001600160a01b03858116600483015263ffffffff8516602483015290911690631d45f7ad9060440161089b565b6040805161018081018252600080825260208201819052818301819052606082018190526080820181905260a0820181905260c0820181905260e08201819052610100820181905261012082018190526101408201819052610160820152905161012f90610b46908690612e46565b90815260200160405180910390208381548110610b6557610b65612ce8565b60009182526020909120015460405163cba5b27f60e01b81526001600160a01b0384811660048301529091169063cba5b27f9060240161018060405180830381865afa158015610bb9573d6000803e3d6000fd5b505050506040513d601f19601f82011682018060405250810190610bdd9190612e96565b949350505050565b604080516101a08101825260608082526020820181905291810182905281810182905260006080820181905260a0820181905260c0820181905260e08201819052610100820181905261012082018190526101408201819052610160820192909252610180810191909152600061012f85604051610c639190612e46565b90815260200160405180910390208481548110610c8257610c82612ce8565b60009182526020918290200154604080516339039e5160e11b815290516001600160a01b03909216926372073ca2926004808401938290030181865afa158015610cd0573d6000803e3d6000fd5b505050506040513d601f19601f82011682018060405250810190610cf49190612f82565b604051631c0257b760e31b81529091506001600160a01b0382169063e012bdb890610d23908690600401612f9f565b600060405180830381865afa158015610d40573d6000803e3d6000fd5b505050506040513d6000823e601f3d908101601f19168201604052610d689190810190613113565b95945050505050565b6000610d7c8161192c565b6000805b61012e54811015610e0c5785604051602001610d9c9190612e46565b6040516020818303038152906040528051906020012061012e8281548110610dc657610dc6612ce8565b90600052602060002001604051602001610de09190612d38565b6040516020818303038152906040528051906020012003610e045760019150610e0c565b600101610d80565b5080610e2a5760405162461bcd60e51b815260040161072d906132a2565b600061012f86604051610e3d9190612e46565b90815260200160405180910390208581548110610e5c57610e5c612ce8565b6000918252602090912001546040516001600160a01b039091169150849061012f90610e89908990612e46565b90815260200160405180910390208681548110610ea857610ea8612ce8565b9060005260206000200160006101000a8154816001600160a01b0302191690836001600160a01b031602179055508486604051610ee59190612e46565b6040518091039020610ef43390565b604080516001600160a01b038681168252898116602083015292909216917fe774dfc733f69ed65d53e05f8317857e23f69dac471a74eb0a6b0db023423727910160405180910390a4505050505050565b606061012e805480602002602001604051908101604052809291908181526020016000905b82821015611016578382906000526020600020018054610f8990612cfe565b80601f0160208091040260200160405190810160405280929190818152602001828054610fb590612cfe565b80156110025780601f10610fd757610100808354040283529160200191611002565b820191906000526020600020905b815481529060010190602001808311610fe557829003601f168201915b505050505081526020019060010190610f6a565b50505050905090565b61012d5461102c8161192c565b600061012f8660405161103f9190612e46565b9081526020016040518091039020858154811061105e5761105e612ce8565b60009182526020918290200154604080516339039e5160e11b815290516001600160a01b03909216926372073ca2926004808401938290030181865afa1580156110ac573d6000803e3d6000fd5b505050506040513d601f19601f820116820180604052508101906110d09190612f82565b604051630b111f5160e01b81526001600160a01b038681166004830152855163ffffffff16602483015291925090821690630b111f51906044015b600060405180830381600087803b15801561112557600080fd5b505af1158015611139573d6000803e3d6000fd5b50505050505050505050565b61012d546111528161192c565b61012f846040516111639190612e46565b9081526020016040518091039020838154811061118257611182612ce8565b6000918252602090912001546040516322f5ff6560e21b81526001600160a01b03848116600483015290911690638bd7fd9490602401600060405180830381600087803b1580156111d257600080fd5b505af11580156111e6573d6000803e3d6000fd5b5050505050505050565b600054610100900460ff16158080156112105750600054600160ff909116105b8061122a5750303b15801561122a575060005460ff166001145b61128d5760405162461bcd60e51b815260206004820152602e60248201527f496e697469616c697a61626c653a20636f6e747261637420697320616c72656160448201526d191e481a5b9a5d1a585b1a5e995960921b606482015260840161072d565b6000805460ff1916600117905580156112b0576000805461ff0019166101001790555b6112b8611af0565b6112c0611af0565b7f6a64baf327d646d1bca72653e2a075d15fd6ac6d8cbd7f6ee03fc55875e0fa8861012d8190556112f19033611936565b6112fc600033611936565b8015610820576000805461ff0019169055604051600181527f7f26b83ff96e1f2b6a682f133852f6798a09c465da95921460cefb38474024989060200160405180910390a150565b61012d546113518161192c565b61012f866040516113629190612e46565b9081526020016040518091039020858154811061138157611381612ce8565b60009182526020909120015460405163012a6f4d60e71b81526001600160a01b03868116600483015263ffffffff80871660248401528516604483015290911690639537a6809060640161110b565b60008281526097602052604081206113e89083611b5d565b9392505050565b60009182526065602090815260408084206001600160a01b0393909316845291905290205460ff1690565b604080516020810190915260008152600061012f8560405161143c9190612e46565b9081526020016040518091039020848154811061145b5761145b612ce8565b60009182526020918290200154604080516339039e5160e11b815290516001600160a01b03909216926372073ca2926004808401938290030181865afa1580156114a9573d6000803e3d6000fd5b505050506040513d601f19601f820116820180604052508101906114cd9190612f82565b6040516351a0937360e11b81526001600160a01b0385811660048301529192509082169063a34126e690602401602060405180830381865afa158015611517573d6000803e3d6000fd5b505050506040513d601f19601f82011682018060405250810190610d6891906132e3565b60006115468161192c565b61012e5483106115a95760405162461bcd60e51b815260206004820152602860248201527f426f73734d6f6e737465724d6368596f73686b613a20696e646578206f7574206044820152676f662072616e676560c01b606482015260840161072d565b600061012e84815481106115bf576115bf612ce8565b9060005260206000200180546115d490612cfe565b80601f016020809104026020016040519081016040528092919081815260200182805461160090612cfe565b801561164d5780601f106116225761010080835404028352916020019161164d565b820191906000526020600020905b81548152906001019060200180831161163057829003601f168201915b505050505090508261012e858154811061166957611669612ce8565b90600052602060002001908161167f919061335f565b5083336001600160a01b03167f0c92640316bbae8777912dd020b5126932ceaf5e11365ff9f39b00b7d85f1bf783866040516116bc92919061341e565b60405180910390a350505050565b600081815260976020526040812061057890611b69565b6000828152606560205260409020600101546116fc8161192c565b6106bc8383611958565b60006117118161192c565b61012e80546001810182556000919091527fbdaadd9f750d0166045bf387a364eadd28ba243e04512a47282aa5147a68e37f0161174e838261335f565b5061012e54336001600160a01b03167fd62d9ab078db064bcb3b59ad6ec83e606cdce516856735276bb0f1644e23446e8460405161178c9190612f9f565b60405180910390a35050565b60006117a38161192c565b6000805b61012e5481101561183357846040516020016117c39190612e46565b6040516020818303038152906040528051906020012061012e82815481106117ed576117ed612ce8565b906000526020600020016040516020016118079190612d38565b604051602081830303815290604052805190602001200361182b5760019150611833565b6001016117a7565b50806118515760405162461bcd60e51b815260040161072d906132a2565b61012f846040516118629190612e46565b908152604051602091819003820181208054600181018255600091825292902090910180546001600160a01b0319166001600160a01b0386161790556118a9908590612e46565b60405180910390206118b83390565b6040516001600160a01b03868116825291909116907fe2c91415f76c1202a15ba5a3efec6a6f1c69f4a36cf527cc3bd72a5c95f1ae8d906020016116bc565b60006001600160e01b03198216637965db0b60e01b148061057857506301ffc9a760e01b6001600160e01b0319831614610578565b6108208133611b73565b6119408282611bcc565b60008281526097602052604090206106bc9082611c52565b6119628282611c67565b60008281526097602052604090206106bc9082611cce565b60006107408161192c565b7f4910fdfa16fed3260ed0e7147f7cc6da11a60208b5b9406d12a635614ffd91435460ff16156119b8576106bc83611ce3565b826001600160a01b03166352d1902d6040518163ffffffff1660e01b8152600401602060405180830381865afa925050508015611a12575060408051601f3d908101601f19168201909252611a0f91810190613443565b60015b611a755760405162461bcd60e51b815260206004820152602e60248201527f45524331393637557067726164653a206e657720696d706c656d656e7461746960448201526d6f6e206973206e6f74205555505360901b606482015260840161072d565b6000805160206135528339815191528114611ae45760405162461bcd60e51b815260206004820152602960248201527f45524331393637557067726164653a20756e737570706f727465642070726f786044820152681a58589b195555525160ba1b606482015260840161072d565b506106bc838383611d7f565b600054610100900460ff16611b5b5760405162461bcd60e51b815260206004820152602b60248201527f496e697469616c697a61626c653a20636f6e7472616374206973206e6f74206960448201526a6e697469616c697a696e6760a81b606482015260840161072d565b565b60006113e88383611daa565b6000610578825490565b611b7d82826113ef565b61074057611b8a81611dd4565b611b95836020611de6565b604051602001611ba692919061345c565b60408051601f198184030181529082905262461bcd60e51b825261072d91600401612f9f565b611bd682826113ef565b6107405760008281526065602090815260408083206001600160a01b03851684529091529020805460ff19166001179055611c0e3390565b6001600160a01b0316816001600160a01b0316837f2f8788117e7eff1d82e926ec794901d17c78024a50270940304540a733656f0d60405160405180910390a45050565b60006113e8836001600160a01b038416611f81565b611c7182826113ef565b156107405760008281526065602090815260408083206001600160a01b0385168085529252808320805460ff1916905551339285917ff6391f5c32d9c69d2a47ea670b442974b53935d1edc7fd64eb21e047a839171b9190a45050565b60006113e8836001600160a01b038416611fd0565b6001600160a01b0381163b611d505760405162461bcd60e51b815260206004820152602d60248201527f455243313936373a206e657720696d706c656d656e746174696f6e206973206e60448201526c1bdd08184818dbdb9d1c9858dd609a1b606482015260840161072d565b60008051602061355283398151915280546001600160a01b0319166001600160a01b0392909216919091179055565b611d88836120c3565b600082511180611d955750805b156106bc57611da48383612103565b50505050565b6000826000018281548110611dc157611dc1612ce8565b9060005260206000200154905092915050565b60606105786001600160a01b03831660145b60606000611df58360026134e7565b611e009060026134fe565b6001600160401b03811115611e1757611e1761235f565b6040519080825280601f01601f191660200182016040528015611e41576020820181803683370190505b509050600360fc1b81600081518110611e5c57611e5c612ce8565b60200101906001600160f81b031916908160001a905350600f60fb1b81600181518110611e8b57611e8b612ce8565b60200101906001600160f81b031916908160001a9053506000611eaf8460026134e7565b611eba9060016134fe565b90505b6001811115611f32576f181899199a1a9b1b9c1cb0b131b232b360811b85600f1660108110611eee57611eee612ce8565b1a60f81b828281518110611f0457611f04612ce8565b60200101906001600160f81b031916908160001a90535060049490941c93611f2b81613511565b9050611ebd565b5083156113e85760405162461bcd60e51b815260206004820181905260248201527f537472696e67733a20686578206c656e67746820696e73756666696369656e74604482015260640161072d565b6000818152600183016020526040812054611fc857508154600181810184556000848152602080822090930184905584548482528286019093526040902091909155610578565b506000610578565b600081815260018301602052604081205480156120b9576000611ff4600183613528565b855490915060009061200890600190613528565b905081811461206d57600086600001828154811061202857612028612ce8565b906000526020600020015490508087600001848154811061204b5761204b612ce8565b6000918252602080832090910192909255918252600188019052604090208390555b855486908061207e5761207e61353b565b600190038181906000526020600020016000905590558560010160008681526020019081526020016000206000905560019350505050610578565b6000915050610578565b6120cc81611ce3565b6040516001600160a01b038216907fbc7cd75a20ee27fd9adebab32041f755214dbc6bffa90cc0225b39da2e5c2d3b90600090a250565b60606001600160a01b0383163b61216b5760405162461bcd60e51b815260206004820152602660248201527f416464726573733a2064656c65676174652063616c6c20746f206e6f6e2d636f6044820152651b9d1c9858dd60d21b606482015260840161072d565b600080846001600160a01b0316846040516121869190612e46565b600060405180830381855af49150503d80600081146121c1576040519150601f19603f3d011682016040523d82523d6000602084013e6121c6565b606091505b5091509150610d68828260405180606001604052806027815260200161357260279139606083156121f85750816113e8565b6113e8838381511561220d5781518083602001fd5b8060405162461bcd60e51b815260040161072d9190612f9f565b60006020828403121561223957600080fd5b81356001600160e01b0319811681146113e857600080fd5b6000602080830181845280855180835260408601915060408160051b87010192508387016000805b838110156122d657888603603f19018552825180518088529088019088880190845b818110156122c05783516001600160a01b03168352928a0192918a019160010161229b565b5090975050509386019391860191600101612279565b509398975050505050505050565b6000602082840312156122f657600080fd5b5035919050565b6001600160a01b038116811461082057600080fd5b6000806040838503121561232557600080fd5b823591506020830135612337816122fd565b809150509250929050565b60006020828403121561235457600080fd5b81356113e8816122fd565b634e487b7160e01b600052604160045260246000fd5b60405161018081016001600160401b03811182821017156123985761239861235f565b60405290565b604051602081016001600160401b03811182821017156123985761239861235f565b6040516101a081016001600160401b03811182821017156123985761239861235f565b604051601f8201601f191681016001600160401b038111828210171561240b5761240b61235f565b604052919050565b60006001600160401b0382111561242c5761242c61235f565b50601f01601f191660200190565b600061244d61244884612413565b6123e3565b905082815283838301111561246157600080fd5b828260208301376000602084830101529392505050565b600082601f83011261248957600080fd5b6113e88383356020850161243a565b801515811461082057600080fd5b80356124b181612498565b919050565b63ffffffff8116811461082057600080fd5b80356124b1816124b6565b6000806000808486036101e08112156124eb57600080fd5b85356001600160401b0381111561250157600080fd5b61250d88828901612478565b955050602086013593506040860135612525816122fd565b9250610180605f19820181131561253b57600080fd5b612543612375565b9150612551606088016124a6565b825261255f608088016124a6565b602083015261257060a088016124c8565b604083015261258160c088016124c8565b606083015261259260e088016124c8565b60808301526101006125a58189016124c8565b60a08401526101206125b8818a016124c8565b60c08501526101406125cb818b016124c8565b60e08601526101606125de818c016124a6565b848701526125ed858c016124a6565b838701526125fe6101a08c016124a6565b8287015261260f6101c08c016124a6565b90860152509699959850939650909450505050565b6000806040838503121561263757600080fd5b8235612642816122fd565b915060208301356001600160401b0381111561265d57600080fd5b8301601f8101851361266e57600080fd5b61267d8582356020840161243a565b9150509250929050565b6000806000806080858703121561269d57600080fd5b84356001600160401b038111156126b357600080fd5b6126bf87828801612478565b9450506020850135925060408501356126d7816122fd565b915060608501356126e7816124b6565b939692955090935050565b60008060006060848603121561270757600080fd5b83356001600160401b0381111561271d57600080fd5b61272986828701612478565b935050602084013591506040840135612741816122fd565b809150509250925092565b8051151582526020810151612765602084018215159052565b50604081015161277d604084018263ffffffff169052565b506060810151612795606084018263ffffffff169052565b5060808101516127ad608084018263ffffffff169052565b5060a08101516127c560a084018263ffffffff169052565b5060c08101516127dd60c084018263ffffffff169052565b5060e08101516127f560e084018263ffffffff169052565b506101008181015115159083015261012080820151151590830152610140808201511515908301526101608082015180151582850152611da4565b6101808101610578828461274c565b60008060006060848603121561285457600080fd5b83356001600160401b038082111561286b57600080fd5b61287787838801612478565b945060208601359350604086013591508082111561289457600080fd5b506128a186828701612478565b9150509250925092565b60005b838110156128c65781810151838201526020016128ae565b50506000910152565b600081518084526128e78160208601602086016128ab565b601f01601f19169290920160200192915050565b600081518084526020808501808196508360051b8101915082860160005b858110156129435782840389526129318483516128cf565b98850198935090840190600101612919565b5091979650505050505050565b600081518084526020808501945080840160005b8381101561298657815163ffffffff1687529582019590820190600101612964565b509495945050505050565b60208152600082516101a08060208501526129b06101c08501836128cf565b91506020850151601f19808685030160408701526129ce84836128cf565b935060408701519150808685030160608701526129eb84836128cf565b93506060870151915080868503016080870152612a0884836128fb565b935060808701519150612a2360a087018363ffffffff169052565b60a087015163ffffffff811660c0880152915060c087015163ffffffff811660e0880152915060e08701519150610100612a648188018463ffffffff169052565b8701519150610120612a7d8782018463ffffffff169052565b8701519150610140612a968782018463ffffffff169052565b8701519150610160612aaf8782018463ffffffff169052565b80880151925050610180818786030181880152612acc8584612950565b94508088015192505050612aea828601826001600160a01b03169052565b5090949350505050565b6020815260006113e860208301846128fb565b6000806000808486036080811215612b1e57600080fd5b85356001600160401b03811115612b3457600080fd5b612b4088828901612478565b955050602086013593506040860135612b58816122fd565b92506020605f1982011215612b6c57600080fd5b50612b7561239e565b6060860135612b83816124b6565b8152939692955090935050565b600080600080600060a08688031215612ba857600080fd5b85356001600160401b03811115612bbe57600080fd5b612bca88828901612478565b955050602086013593506040860135612be2816122fd565b92506060860135612bf2816124b6565b91506080860135612c02816124b6565b809150509295509295909350565b60008060408385031215612c2357600080fd5b50508035926020909101359150565b60008060408385031215612c4557600080fd5b8235915060208301356001600160401b03811115612c6257600080fd5b61267d85828601612478565b600060208284031215612c8057600080fd5b81356001600160401b03811115612c9657600080fd5b610bdd84828501612478565b60008060408385031215612cb557600080fd5b82356001600160401b03811115612ccb57600080fd5b612cd785828601612478565b9250506020830135612337816122fd565b634e487b7160e01b600052603260045260246000fd5b600181811c90821680612d1257607f821691505b602082108103612d3257634e487b7160e01b600052602260045260246000fd5b50919050565b6000808354612d4681612cfe565b60018281168015612d5e5760018114612d7357612da2565b60ff1984168752821515830287019450612da2565b8760005260208060002060005b85811015612d995781548a820152908401908201612d80565b50505082870194505b50929695505050505050565b6020808252602c908201527f46756e6374696f6e206d7573742062652063616c6c6564207468726f7567682060408201526b19195b1959d85d1958d85b1b60a21b606082015260800190565b6020808252602c908201527f46756e6374696f6e206d7573742062652063616c6c6564207468726f7567682060408201526b6163746976652070726f787960a01b606082015260800190565b60008251612e588184602087016128ab565b9190910192915050565b6001600160a01b03831681526101a081016113e8602083018461274c565b80516124b181612498565b80516124b1816124b6565b60006101808284031215612ea957600080fd5b612eb1612375565b612eba83612e80565b8152612ec860208401612e80565b6020820152612ed960408401612e8b565b6040820152612eea60608401612e8b565b6060820152612efb60808401612e8b565b6080820152612f0c60a08401612e8b565b60a0820152612f1d60c08401612e8b565b60c0820152612f2e60e08401612e8b565b60e0820152610100612f41818501612e80565b90820152610120612f53848201612e80565b90820152610140612f65848201612e80565b90820152610160612f77848201612e80565b908201529392505050565b600060208284031215612f9457600080fd5b81516113e8816122fd565b6020815260006113e860208301846128cf565b600082601f830112612fc357600080fd5b8151612fd161244882612413565b818152846020838601011115612fe657600080fd5b610bdd8260208301602087016128ab565b60006001600160401b038211156130105761301061235f565b5060051b60200190565b600082601f83011261302b57600080fd5b8151602061303b61244883612ff7565b82815260059290921b8401810191818101908684111561305a57600080fd5b8286015b848110156130995780516001600160401b0381111561307d5760008081fd5b61308b8986838b0101612fb2565b84525091830191830161305e565b509695505050505050565b600082601f8301126130b557600080fd5b815160206130c561244883612ff7565b82815260059290921b840181019181810190868411156130e457600080fd5b8286015b848110156130995780516130fb816124b6565b83529183019183016130e8565b80516124b1816122fd565b60006020828403121561312557600080fd5b81516001600160401b038082111561313c57600080fd5b908301906101a0828603121561315157600080fd5b6131596123c0565b82518281111561316857600080fd5b61317487828601612fb2565b82525060208301518281111561318957600080fd5b61319587828601612fb2565b6020830152506040830151828111156131ad57600080fd5b6131b987828601612fb2565b6040830152506060830151828111156131d157600080fd5b6131dd8782860161301a565b6060830152506131ef60808401612e8b565b608082015261320060a08401612e8b565b60a082015261321160c08401612e8b565b60c082015261322260e08401612e8b565b60e0820152610100613235818501612e8b565b90820152610120613247848201612e8b565b90820152610140613259848201612e8b565b90820152610160838101518381111561327157600080fd5b61327d888287016130a4565b8284015250506101809150613293828401613108565b91810191909152949350505050565b60208082526021908201527f426f7373426174746c653a206576656e744b6579206e6f7420696e636c7564656040820152601960fa1b606082015260800190565b6000602082840312156132f557600080fd5b6132fd61239e565b8251613308816124b6565b81529392505050565b601f8211156106bc57600081815260208120601f850160051c810160208610156133385750805b601f850160051c820191505b8181101561335757828155600101613344565b505050505050565b81516001600160401b038111156133785761337861235f565b61338c816133868454612cfe565b84613311565b602080601f8311600181146133c157600084156133a95750858301515b600019600386901b1c1916600185901b178555613357565b600085815260208120601f198616915b828110156133f0578886015182559484019460019091019084016133d1565b508582101561340e5787850151600019600388901b60f8161c191681555b5050505050600190811b01905550565b60408152600061343160408301856128cf565b8281036020840152610d6881856128cf565b60006020828403121561345557600080fd5b5051919050565b7f416363657373436f6e74726f6c3a206163636f756e74200000000000000000008152600083516134948160178501602088016128ab565b7001034b99036b4b9b9b4b733903937b6329607d1b60179184019182015283516134c58160288401602088016128ab565b01602801949350505050565b634e487b7160e01b600052601160045260246000fd5b8082028115828204841417610578576105786134d1565b80820180821115610578576105786134d1565b600081613520576135206134d1565b506000190190565b81810381811115610578576105786134d1565b634e487b7160e01b600052603160045260246000fdfe360894a13ba1a3210667c828492db98dca3e2076cc3735a920a3ca505d382bbc416464726573733a206c6f772d6c6576656c2064656c65676174652063616c6c206661696c6564a26469706673582212208fd1a19e68f578aa21c524942fa027a0b685a8ab76fb8263dabd9b2084664b5d64736f6c63430008120033",
  "linkReferences": {},
  "deployedLinkReferences": {}
}