{
  "_format": "hh-sol-artifact-1",
  "contractName": "BossBattle",
  "sourceName": "contracts/boss-battle/BossBattle.sol",
  "abi": [
    {
      "inputs": [],
      "stateMutability": "nonpayable",
      "type": "constructor"
    },
    {
      "anonymous": false,
      "inputs": [
        {
          "indexed": true,
          "internalType": "address",
          "name": "publisher",
          "type": "address"
        },
        {
          "indexed": true,
          "internalType": "string",
          "name": "eventKey",
          "type": "string"
        },
        {
          "indexed": false,
          "internalType": "address",
          "name": "bossBattleEvent",
          "type": "address"
        }
      ],
      "name": "AddedBossBattleEvent",
      "type": "event"
    },
    {
      "anonymous": false,
      "inputs": [
        {
          "indexed": true,
          "internalType": "address",
          "name": "publisher",
          "type": "address"
        },
        {
          "indexed": true,
          "internalType": "string",
          "name": "eventKey",
          "type": "string"
        },
        {
          "indexed": false,
          "internalType": "address",
          "name": "bossMonsterWallet",
          "type": "address"
        }
      ],
      "name": "AddedBossMonsterWallet",
      "type": "event"
    },
    {
      "anonymous": false,
      "inputs": [
        {
          "indexed": true,
          "internalType": "address",
          "name": "publisher",
          "type": "address"
        },
        {
          "indexed": true,
          "internalType": "uint256",
          "name": "index",
          "type": "uint256"
        },
        {
          "indexed": false,
          "internalType": "string",
          "name": "eventKey",
          "type": "string"
        }
      ],
      "name": "AddedEventKey",
      "type": "event"
    },
    {
      "anonymous": false,
      "inputs": [
        {
          "indexed": false,
          "internalType": "address",
          "name": "previousAdmin",
          "type": "address"
        },
        {
          "indexed": false,
          "internalType": "address",
          "name": "newAdmin",
          "type": "address"
        }
      ],
      "name": "AdminChanged",
      "type": "event"
    },
    {
      "anonymous": false,
      "inputs": [
        {
          "indexed": true,
          "internalType": "address",
          "name": "beacon",
          "type": "address"
        }
      ],
      "name": "BeaconUpgraded",
      "type": "event"
    },
    {
      "anonymous": false,
      "inputs": [
        {
          "indexed": false,
          "internalType": "uint8",
          "name": "version",
          "type": "uint8"
        }
      ],
      "name": "Initialized",
      "type": "event"
    },
    {
      "anonymous": false,
      "inputs": [
        {
          "indexed": true,
          "internalType": "bytes32",
          "name": "role",
          "type": "bytes32"
        },
        {
          "indexed": true,
          "internalType": "bytes32",
          "name": "previousAdminRole",
          "type": "bytes32"
        },
        {
          "indexed": true,
          "internalType": "bytes32",
          "name": "newAdminRole",
          "type": "bytes32"
        }
      ],
      "name": "RoleAdminChanged",
      "type": "event"
    },
    {
      "anonymous": false,
      "inputs": [
        {
          "indexed": true,
          "internalType": "bytes32",
          "name": "role",
          "type": "bytes32"
        },
        {
          "indexed": true,
          "internalType": "address",
          "name": "account",
          "type": "address"
        },
        {
          "indexed": true,
          "internalType": "address",
          "name": "sender",
          "type": "address"
        }
      ],
      "name": "RoleGranted",
      "type": "event"
    },
    {
      "anonymous": false,
      "inputs": [
        {
          "indexed": true,
          "internalType": "bytes32",
          "name": "role",
          "type": "bytes32"
        },
        {
          "indexed": true,
          "internalType": "address",
          "name": "account",
          "type": "address"
        },
        {
          "indexed": true,
          "internalType": "address",
          "name": "sender",
          "type": "address"
        }
      ],
      "name": "RoleRevoked",
      "type": "event"
    },
    {
      "anonymous": false,
      "inputs": [
        {
          "indexed": true,
          "internalType": "address",
          "name": "publisher",
          "type": "address"
        },
        {
          "indexed": true,
          "internalType": "string",
          "name": "eventKey",
          "type": "string"
        },
        {
          "indexed": true,
          "internalType": "uint256",
          "name": "bbeId",
          "type": "uint256"
        },
        {
          "indexed": false,
          "internalType": "address",
          "name": "oldValue",
          "type": "address"
        },
        {
          "indexed": false,
          "internalType": "address",
          "name": "newValue",
          "type": "address"
        }
      ],
      "name": "SetBossBattleEvent",
      "type": "event"
    },
    {
      "anonymous": false,
      "inputs": [
        {
          "indexed": true,
          "internalType": "address",
          "name": "publisher",
          "type": "address"
        },
        {
          "indexed": true,
          "internalType": "string",
          "name": "eventKey",
          "type": "string"
        },
        {
          "indexed": true,
          "internalType": "uint256",
          "name": "bbeId",
          "type": "uint256"
        },
        {
          "indexed": false,
          "internalType": "address",
          "name": "oldValue",
          "type": "address"
        },
        {
          "indexed": false,
          "internalType": "address",
          "name": "newValue",
          "type": "address"
        }
      ],
      "name": "SetBossMonsterWallet",
      "type": "event"
    },
    {
      "anonymous": false,
      "inputs": [
        {
          "indexed": true,
          "internalType": "address",
          "name": "publisher",
          "type": "address"
        },
        {
          "indexed": false,
          "internalType": "contract IERC20",
          "name": "oldValue",
          "type": "address"
        },
        {
          "indexed": false,
          "internalType": "contract IERC20",
          "name": "newValue",
          "type": "address"
        }
      ],
      "name": "SetErc20",
      "type": "event"
    },
    {
      "anonymous": false,
      "inputs": [
        {
          "indexed": true,
          "internalType": "address",
          "name": "publisher",
          "type": "address"
        },
        {
          "indexed": true,
          "internalType": "uint256",
          "name": "index",
          "type": "uint256"
        },
        {
          "indexed": false,
          "internalType": "string",
          "name": "oldValue",
          "type": "string"
        },
        {
          "indexed": false,
          "internalType": "string",
          "name": "newValue",
          "type": "string"
        }
      ],
      "name": "SetEventKey",
      "type": "event"
    },
    {
      "anonymous": false,
      "inputs": [
        {
          "indexed": true,
          "internalType": "address",
          "name": "publisher",
          "type": "address"
        },
        {
          "indexed": false,
          "internalType": "uint256",
          "name": "oldValue",
          "type": "uint256"
        },
        {
          "indexed": false,
          "internalType": "uint256",
          "name": "newValue",
          "type": "uint256"
        }
      ],
      "name": "SetMintPrice",
      "type": "event"
    },
    {
      "anonymous": false,
      "inputs": [
        {
          "indexed": true,
          "internalType": "address",
          "name": "implementation",
          "type": "address"
        }
      ],
      "name": "Upgraded",
      "type": "event"
    },
    {
      "inputs": [],
      "name": "DEFAULT_ADMIN_ROLE",
      "outputs": [
        {
          "internalType": "bytes32",
          "name": "",
          "type": "bytes32"
        }
      ],
      "stateMutability": "view",
      "type": "function"
    },
    {
      "inputs": [
        {
          "internalType": "string",
          "name": "eventKey",
          "type": "string"
        },
        {
          "internalType": "address",
          "name": "bossBattleEvent",
          "type": "address"
        }
      ],
      "name": "addBossBattleEvent",
      "outputs": [],
      "stateMutability": "nonpayable",
      "type": "function"
    },
    {
      "inputs": [
        {
          "internalType": "string",
          "name": "eventKey",
          "type": "string"
        },
        {
          "internalType": "address",
          "name": "bossMonsterWallet",
          "type": "address"
        }
      ],
      "name": "addBossMonsterWallet",
      "outputs": [],
      "stateMutability": "nonpayable",
      "type": "function"
    },
    {
      "inputs": [
        {
          "internalType": "string",
          "name": "eventKey",
          "type": "string"
        }
      ],
      "name": "addEventKey",
      "outputs": [],
      "stateMutability": "nonpayable",
      "type": "function"
    },
    {
      "inputs": [
        {
          "internalType": "string",
          "name": "eventKey",
          "type": "string"
        },
        {
          "internalType": "uint256",
          "name": "bbeId",
          "type": "uint256"
        }
      ],
      "name": "changeMintable",
      "outputs": [],
      "stateMutability": "nonpayable",
      "type": "function"
    },
    {
      "inputs": [
        {
          "internalType": "string",
          "name": "eventKey",
          "type": "string"
        },
        {
          "internalType": "uint256",
          "name": "bbeId",
          "type": "uint256"
        },
        {
          "internalType": "address",
          "name": "resurrectionPrompt",
          "type": "address"
        },
        {
          "internalType": "uint32",
          "name": "bossSign",
          "type": "uint32"
        }
      ],
      "name": "continueBossBattle",
      "outputs": [],
      "stateMutability": "nonpayable",
      "type": "function"
    },
    {
      "inputs": [
        {
          "internalType": "string",
          "name": "eventKey",
          "type": "string"
        },
        {
          "internalType": "uint256",
          "name": "bbeId",
          "type": "uint256"
        },
        {
          "internalType": "address",
          "name": "resurrectionPrompt",
          "type": "address"
        }
      ],
      "name": "deleteBBState",
      "outputs": [],
      "stateMutability": "nonpayable",
      "type": "function"
    },
    {
      "inputs": [
        {
          "internalType": "string",
          "name": "eventKey",
          "type": "string"
        },
        {
          "internalType": "uint256",
          "name": "bbeId",
          "type": "uint256"
        },
        {
          "internalType": "address",
          "name": "resurrectionPrompt",
          "type": "address"
        }
      ],
      "name": "endBossBattle",
      "outputs": [],
      "stateMutability": "nonpayable",
      "type": "function"
    },
    {
      "inputs": [
        {
          "internalType": "string",
          "name": "eventKey",
          "type": "string"
        },
        {
          "internalType": "uint256",
          "name": "bbeId",
          "type": "uint256"
        },
        {
          "internalType": "address",
          "name": "resurrectionPrompt",
          "type": "address"
        }
      ],
      "name": "getBBState",
      "outputs": [
        {
          "components": [
            {
              "internalType": "bool",
              "name": "bossBattleStarted",
              "type": "bool"
            },
            {
              "internalType": "bool",
              "name": "bossBattleContinued",
              "type": "bool"
            },
            {
              "internalType": "uint32",
              "name": "lp",
              "type": "uint32"
            },
            {
              "internalType": "uint32",
              "name": "turn",
              "type": "uint32"
            },
            {
              "internalType": "uint32",
              "name": "score",
              "type": "uint32"
            },
            {
              "internalType": "uint32",
              "name": "monsterAdj",
              "type": "uint32"
            },
            {
              "internalType": "uint32",
              "name": "bossAdj",
              "type": "uint32"
            },
            {
              "internalType": "uint32",
              "name": "bossSign",
              "type": "uint32"
            },
            {
              "internalType": "bool",
              "name": "hasHealItem",
              "type": "bool"
            },
            {
              "internalType": "bool",
              "name": "hasBuffItem",
              "type": "bool"
            },
            {
              "internalType": "bool",
              "name": "hasDebuffItem",
              "type": "bool"
            },
            {
              "internalType": "bool",
              "name": "hasEscapeItem",
              "type": "bool"
            }
          ],
          "internalType": "struct IBossBattleEvent.BBState",
          "name": "bbState",
          "type": "tuple"
        }
      ],
      "stateMutability": "view",
      "type": "function"
    },
    {
      "inputs": [],
      "name": "getBossBattleEvents",
      "outputs": [
        {
          "internalType": "address[][]",
          "name": "returnValue",
          "type": "address[][]"
        }
      ],
      "stateMutability": "view",
      "type": "function"
    },
    {
      "inputs": [
        {
          "internalType": "string",
          "name": "eventKey",
          "type": "string"
        },
        {
          "internalType": "uint256",
          "name": "bbeId",
          "type": "uint256"
        },
        {
          "internalType": "string",
          "name": "language",
          "type": "string"
        }
      ],
      "name": "getBossExtension",
      "outputs": [
        {
          "components": [
            {
              "internalType": "string",
              "name": "feature",
              "type": "string"
            },
            {
              "internalType": "string",
              "name": "name",
              "type": "string"
            },
            {
              "internalType": "string",
              "name": "flavor",
              "type": "string"
            },
            {
              "internalType": "string[]",
              "name": "skills",
              "type": "string[]"
            },
            {
              "internalType": "uint32",
              "name": "lv",
              "type": "uint32"
            },
            {
              "internalType": "uint32",
              "name": "hp",
              "type": "uint32"
            },
            {
              "internalType": "uint32",
              "name": "atk",
              "type": "uint32"
            },
            {
              "internalType": "uint32",
              "name": "def",
              "type": "uint32"
            },
            {
              "internalType": "uint32",
              "name": "inte",
              "type": "uint32"
            },
            {
              "internalType": "uint32",
              "name": "mgr",
              "type": "uint32"
            },
            {
              "internalType": "uint32",
              "name": "agl",
              "type": "uint32"
            },
            {
              "internalType": "uint32[]",
              "name": "skillTypes",
              "type": "uint32[]"
            },
            {
              "internalType": "address",
              "name": "resurrectionPrompt",
              "type": "address"
            }
          ],
          "internalType": "struct IPromptMonstersExtension.MonsterExtension",
          "name": "monsterExtension",
          "type": "tuple"
        }
      ],
      "stateMutability": "view",
      "type": "function"
    },
    {
      "inputs": [
        {
          "internalType": "string",
          "name": "eventKey",
          "type": "string"
        }
      ],
      "name": "getBossMonsterWallets",
      "outputs": [
        {
          "internalType": "address[]",
          "name": "returnValue",
          "type": "address[]"
        }
      ],
      "stateMutability": "view",
      "type": "function"
    },
    {
      "inputs": [],
      "name": "getErc20",
      "outputs": [
        {
          "internalType": "contract IERC20",
          "name": "returnValue",
          "type": "address"
        }
      ],
      "stateMutability": "view",
      "type": "function"
    },
    {
      "inputs": [],
      "name": "getEventKeys",
      "outputs": [
        {
          "internalType": "string[]",
          "name": "returnValue",
          "type": "string[]"
        }
      ],
      "stateMutability": "view",
      "type": "function"
    },
    {
      "inputs": [
        {
          "internalType": "string",
          "name": "eventKey",
          "type": "string"
        },
        {
          "internalType": "uint256",
          "name": "bbeId",
          "type": "uint256"
        },
        {
          "internalType": "address[]",
          "name": "resurrectionPrompts",
          "type": "address[]"
        }
      ],
      "name": "getHighScores",
      "outputs": [
        {
          "internalType": "uint32[]",
          "name": "highScores",
          "type": "uint32[]"
        }
      ],
      "stateMutability": "view",
      "type": "function"
    },
    {
      "inputs": [],
      "name": "getMintPrice",
      "outputs": [
        {
          "internalType": "uint256",
          "name": "returnValue",
          "type": "uint256"
        }
      ],
      "stateMutability": "view",
      "type": "function"
    },
    {
      "inputs": [
        {
          "internalType": "string",
          "name": "eventKey",
          "type": "string"
        },
        {
          "internalType": "uint256",
          "name": "bbeId",
          "type": "uint256"
        },
        {
          "internalType": "address",
          "name": "user",
          "type": "address"
        }
      ],
      "name": "getMintable",
      "outputs": [
        {
          "internalType": "bool",
          "name": "returnValue",
          "type": "bool"
        }
      ],
      "stateMutability": "view",
      "type": "function"
    },
    {
      "inputs": [
        {
          "internalType": "string",
          "name": "eventKey",
          "type": "string"
        },
        {
          "internalType": "uint256",
          "name": "bbeId",
          "type": "uint256"
        },
        {
          "internalType": "address",
          "name": "resurrectionPrompt",
          "type": "address"
        }
      ],
      "name": "getMonsterAdj",
      "outputs": [
        {
          "components": [
            {
              "internalType": "uint32",
              "name": "weaknessFeatureAdj",
              "type": "uint32"
            }
          ],
          "internalType": "struct IBossMonster.MonsterAdj",
          "name": "monsterAdj",
          "type": "tuple"
        }
      ],
      "stateMutability": "view",
      "type": "function"
    },
    {
      "inputs": [
        {
          "internalType": "bytes32",
          "name": "role",
          "type": "bytes32"
        }
      ],
      "name": "getRoleAdmin",
      "outputs": [
        {
          "internalType": "bytes32",
          "name": "",
          "type": "bytes32"
        }
      ],
      "stateMutability": "view",
      "type": "function"
    },
    {
      "inputs": [
        {
          "internalType": "bytes32",
          "name": "role",
          "type": "bytes32"
        },
        {
          "internalType": "uint256",
          "name": "index",
          "type": "uint256"
        }
      ],
      "name": "getRoleMember",
      "outputs": [
        {
          "internalType": "address",
          "name": "",
          "type": "address"
        }
      ],
      "stateMutability": "view",
      "type": "function"
    },
    {
      "inputs": [
        {
          "internalType": "bytes32",
          "name": "role",
          "type": "bytes32"
        }
      ],
      "name": "getRoleMemberCount",
      "outputs": [
        {
          "internalType": "uint256",
          "name": "",
          "type": "uint256"
        }
      ],
      "stateMutability": "view",
      "type": "function"
    },
    {
      "inputs": [
        {
          "internalType": "bytes32",
          "name": "role",
          "type": "bytes32"
        },
        {
          "internalType": "address",
          "name": "account",
          "type": "address"
        }
      ],
      "name": "grantRole",
      "outputs": [],
      "stateMutability": "nonpayable",
      "type": "function"
    },
    {
      "inputs": [
        {
          "internalType": "bytes32",
          "name": "role",
          "type": "bytes32"
        },
        {
          "internalType": "address",
          "name": "account",
          "type": "address"
        }
      ],
      "name": "hasRole",
      "outputs": [
        {
          "internalType": "bool",
          "name": "",
          "type": "bool"
        }
      ],
      "stateMutability": "view",
      "type": "function"
    },
    {
      "inputs": [],
      "name": "initialize",
      "outputs": [],
      "stateMutability": "nonpayable",
      "type": "function"
    },
    {
      "inputs": [
        {
          "internalType": "string",
          "name": "eventKey",
          "type": "string"
        },
        {
          "internalType": "uint256",
          "name": "bbeId",
          "type": "uint256"
        },
        {
          "internalType": "address",
          "name": "to",
          "type": "address"
        },
        {
          "components": [
            {
              "internalType": "string",
              "name": "feature",
              "type": "string"
            },
            {
              "internalType": "string",
              "name": "name",
              "type": "string"
            },
            {
              "internalType": "string",
              "name": "flavor",
              "type": "string"
            },
            {
              "internalType": "string[]",
              "name": "skills",
              "type": "string[]"
            },
            {
              "internalType": "uint32",
              "name": "lv",
              "type": "uint32"
            },
            {
              "internalType": "uint32",
              "name": "hp",
              "type": "uint32"
            },
            {
              "internalType": "uint32",
              "name": "atk",
              "type": "uint32"
            },
            {
              "internalType": "uint32",
              "name": "def",
              "type": "uint32"
            },
            {
              "internalType": "uint32",
              "name": "inte",
              "type": "uint32"
            },
            {
              "internalType": "uint32",
              "name": "mgr",
              "type": "uint32"
            },
            {
              "internalType": "uint32",
              "name": "agl",
              "type": "uint32"
            },
            {
              "internalType": "uint32[]",
              "name": "skillTypes",
              "type": "uint32[]"
            },
            {
              "internalType": "address",
              "name": "resurrectionPrompt",
              "type": "address"
            }
          ],
          "internalType": "struct IPromptMonstersExtension.MonsterExtension",
          "name": "monsterExtension",
          "type": "tuple"
        },
        {
          "internalType": "string",
          "name": "imageURL",
          "type": "string"
        }
      ],
      "name": "mintBoss",
      "outputs": [],
      "stateMutability": "nonpayable",
      "type": "function"
    },
    {
      "inputs": [],
      "name": "proxiableUUID",
      "outputs": [
        {
          "internalType": "bytes32",
          "name": "",
          "type": "bytes32"
        }
      ],
      "stateMutability": "view",
      "type": "function"
    },
    {
      "inputs": [
        {
          "internalType": "bytes32",
          "name": "role",
          "type": "bytes32"
        },
        {
          "internalType": "address",
          "name": "account",
          "type": "address"
        }
      ],
      "name": "renounceRole",
      "outputs": [],
      "stateMutability": "nonpayable",
      "type": "function"
    },
    {
      "inputs": [
        {
          "internalType": "bytes32",
          "name": "role",
          "type": "bytes32"
        },
        {
          "internalType": "address",
          "name": "account",
          "type": "address"
        }
      ],
      "name": "revokeRole",
      "outputs": [],
      "stateMutability": "nonpayable",
      "type": "function"
    },
    {
      "inputs": [
        {
          "internalType": "string",
          "name": "eventKey",
          "type": "string"
        },
        {
          "internalType": "uint256",
          "name": "bbeId",
          "type": "uint256"
        },
        {
          "internalType": "address",
          "name": "bossBattleEvent",
          "type": "address"
        }
      ],
      "name": "setBossBattleEvent",
      "outputs": [],
      "stateMutability": "nonpayable",
      "type": "function"
    },
    {
      "inputs": [
        {
          "internalType": "string",
          "name": "eventKey",
          "type": "string"
        },
        {
          "internalType": "uint256",
          "name": "bbeId",
          "type": "uint256"
        },
        {
          "internalType": "address",
          "name": "newValue",
          "type": "address"
        }
      ],
      "name": "setBossMonsterWallet",
      "outputs": [],
      "stateMutability": "nonpayable",
      "type": "function"
    },
    {
      "inputs": [
        {
          "internalType": "address",
          "name": "newValue",
          "type": "address"
        }
      ],
      "name": "setErc20",
      "outputs": [],
      "stateMutability": "nonpayable",
      "type": "function"
    },
    {
      "inputs": [
        {
          "internalType": "uint256",
          "name": "index",
          "type": "uint256"
        },
        {
          "internalType": "string",
          "name": "eventKey",
          "type": "string"
        }
      ],
      "name": "setEventKey",
      "outputs": [],
      "stateMutability": "nonpayable",
      "type": "function"
    },
    {
      "inputs": [
        {
          "internalType": "uint256",
          "name": "newValue",
          "type": "uint256"
        }
      ],
      "name": "setMintPrice",
      "outputs": [],
      "stateMutability": "nonpayable",
      "type": "function"
    },
    {
      "inputs": [
        {
          "internalType": "string",
          "name": "eventKey",
          "type": "string"
        },
        {
          "internalType": "uint256",
          "name": "bbeId",
          "type": "uint256"
        },
        {
          "internalType": "address",
          "name": "resurrectionPrompt",
          "type": "address"
        },
        {
          "components": [
            {
              "internalType": "uint32",
              "name": "weaknessFeatureAdj",
              "type": "uint32"
            }
          ],
          "internalType": "struct IBossMonster.MonsterAdj",
          "name": "monsterAdj",
          "type": "tuple"
        }
      ],
      "name": "setMonsterAdj",
      "outputs": [],
      "stateMutability": "nonpayable",
      "type": "function"
    },
    {
      "inputs": [
        {
          "internalType": "string",
          "name": "eventKey",
          "type": "string"
        },
        {
          "internalType": "uint256",
          "name": "bbeId",
          "type": "uint256"
        },
        {
          "internalType": "address",
          "name": "resurrectionPrompt",
          "type": "address"
        },
        {
          "internalType": "uint32",
          "name": "monsterAdj",
          "type": "uint32"
        },
        {
          "internalType": "uint32",
          "name": "bossSign",
          "type": "uint32"
        }
      ],
      "name": "startBossBattle",
      "outputs": [],
      "stateMutability": "nonpayable",
      "type": "function"
    },
    {
      "inputs": [
        {
          "internalType": "bytes4",
          "name": "interfaceId",
          "type": "bytes4"
        }
      ],
      "name": "supportsInterface",
      "outputs": [
        {
          "internalType": "bool",
          "name": "",
          "type": "bool"
        }
      ],
      "stateMutability": "view",
      "type": "function"
    },
    {
      "inputs": [
        {
          "internalType": "string",
          "name": "eventKey",
          "type": "string"
        },
        {
          "internalType": "uint256",
          "name": "bbeId",
          "type": "uint256"
        },
        {
          "internalType": "address",
          "name": "resurrectionPrompt",
          "type": "address"
        },
        {
          "components": [
            {
              "internalType": "bool",
              "name": "bossBattleStarted",
              "type": "bool"
            },
            {
              "internalType": "bool",
              "name": "bossBattleContinued",
              "type": "bool"
            },
            {
              "internalType": "uint32",
              "name": "lp",
              "type": "uint32"
            },
            {
              "internalType": "uint32",
              "name": "turn",
              "type": "uint32"
            },
            {
              "internalType": "uint32",
              "name": "score",
              "type": "uint32"
            },
            {
              "internalType": "uint32",
              "name": "monsterAdj",
              "type": "uint32"
            },
            {
              "internalType": "uint32",
              "name": "bossAdj",
              "type": "uint32"
            },
            {
              "internalType": "uint32",
              "name": "bossSign",
              "type": "uint32"
            },
            {
              "internalType": "bool",
              "name": "hasHealItem",
              "type": "bool"
            },
            {
              "internalType": "bool",
              "name": "hasBuffItem",
              "type": "bool"
            },
            {
              "internalType": "bool",
              "name": "hasDebuffItem",
              "type": "bool"
            },
            {
              "internalType": "bool",
              "name": "hasEscapeItem",
              "type": "bool"
            }
          ],
          "internalType": "struct IBossBattleEvent.BBState",
          "name": "bbState",
          "type": "tuple"
        }
      ],
      "name": "updateBossBattleResult",
      "outputs": [],
      "stateMutability": "nonpayable",
      "type": "function"
    },
    {
      "inputs": [
        {
          "internalType": "address",
          "name": "newImplementation",
          "type": "address"
        }
      ],
      "name": "upgradeTo",
      "outputs": [],
      "stateMutability": "nonpayable",
      "type": "function"
    },
    {
      "inputs": [
        {
          "internalType": "address",
          "name": "newImplementation",
          "type": "address"
        },
        {
          "internalType": "bytes",
          "name": "data",
          "type": "bytes"
        }
      ],
      "name": "upgradeToAndCall",
      "outputs": [],
      "stateMutability": "payable",
      "type": "function"
    }
  ],
  "bytecode": "0x60a0604052306080523480156200001557600080fd5b506200002062000026565b620000e7565b600054610100900460ff1615620000935760405162461bcd60e51b815260206004820152602760248201527f496e697469616c697a61626c653a20636f6e747261637420697320696e697469604482015266616c697a696e6760c81b606482015260840160405180910390fd5b60005460ff90811614620000e5576000805460ff191660ff9081179091556040519081527f7f26b83ff96e1f2b6a682f133852f6798a09c465da95921460cefb38474024989060200160405180910390a15b565b6080516146d46200011f60003960008181610bae01528181610bee01528181610d3e01528181610d7e0152610e0d01526146d46000f3fe6080604052600436106102305760003560e01c80637ab65e581161012e578063a7f93ebd116100ab578063ed3f78941161006f578063ed3f7894146106d2578063edf15d8e146106f2578063ee9b80a414610712578063f0c46b6a14610732578063f4a0a5281461075257600080fd5b8063a7f93ebd1461063c578063b4381a8d14610652578063bef3609014610672578063ca15c87314610692578063d547741f146106b257600080fd5b80639010d07c116100f25780639010d07c1461059257806391d14854146105b257806399191940146105d25780639f7011c0146105f2578063a217fddf1461062757600080fd5b80637ab65e58146104ea5780637af148c01461050a5780637e90a18f1461053d5780638129fc1c1461055d578063900abe7e1461057257600080fd5b80634f1ef286116101bc5780635b00449d116101805780635b00449d1461042e57806361b61cbe1461045b57806365f0c7a71461047b5780636ab6a7721461049d578063706a230b146104bd57600080fd5b80634f1ef2861461038c57806352d1902d1461039f57806356e210fc146103b45780635773c7e0146103d45780635a71c0a01461040157600080fd5b806329f6c3941161020357806329f6c394146102ec5780632f2ff15d1461030c57806336568abe1461032c5780633659cfe61461034c5780633947b3641461036c57600080fd5b806301ffc9a7146102355780631454d20d1461026a5780631f99342a1461028c578063248a9ca3146102ae575b600080fd5b34801561024157600080fd5b50610255610250366004612e6c565b610772565b60405190151581526020015b60405180910390f35b34801561027657600080fd5b5061028a610285366004612ff4565b61079d565b005b34801561029857600080fd5b506102a16108c2565b604051610261919061304e565b3480156102ba57600080fd5b506102de6102c93660046130e1565b60009081526065602052604090206001015490565b604051908152602001610261565b3480156102f857600080fd5b50610255610307366004612ff4565b6109db565b34801561031857600080fd5b5061028a6103273660046130fa565b610af7565b34801561033857600080fd5b5061028a6103473660046130fa565b610b21565b34801561035857600080fd5b5061028a61036736600461312a565b610ba4565b34801561037857600080fd5b5061028a61038736600461317d565b610c83565b61028a61039a3660046132ce565b610d34565b3480156103ab57600080fd5b506102de610e00565b3480156103c057600080fd5b5061028a6103cf366004613331565b610eb3565b3480156103e057600080fd5b506103f46103ef366004612ff4565b610f37565b6040516102619190613480565b34801561040d57600080fd5b5061042161041c36600461348f565b611045565b604051610261919061371a565b34801561043a57600080fd5b5061044e610449366004613750565b6111c8565b604051610261919061381c565b34801561046757600080fd5b5061028a610476366004612ff4565b611278565b34801561048757600080fd5b5061049061144c565b604051610261919061382f565b3480156104a957600080fd5b5061028a6104b8366004613930565b611526565b3480156104c957600080fd5b506104dd6104d8366004613b23565b611645565b6040516102619190613b57565b3480156104f657600080fd5b5061028a610505366004613ba4565b6116c0565b34801561051657600080fd5b50610130546001600160a01b03165b6040516001600160a01b039091168152602001610261565b34801561054957600080fd5b5061028a610558366004612ff4565b6117e6565b34801561056957600080fd5b5061028a611892565b34801561057e57600080fd5b5061028a61058d366004613c2d565b6119e6565b34801561059e57600080fd5b506105256105ad366004613cad565b611a72565b3480156105be57600080fd5b506102556105cd3660046130fa565b611a91565b3480156105de57600080fd5b5061028a6105ed366004612ff4565b611abc565b3480156105fe57600080fd5b5061061261060d366004612ff4565b611b34565b604051905163ffffffff168152602001610261565b34801561063357600080fd5b506102de600081565b34801561064857600080fd5b50610132546102de565b34801561065e57600080fd5b5061028a61066d366004613ccf565b611c55565b34801561067e57600080fd5b5061028a61068d366004613d13565b611db5565b34801561069e57600080fd5b506102de6106ad3660046130e1565b611f44565b3480156106be57600080fd5b5061028a6106cd3660046130fa565b611f5b565b3480156106de57600080fd5b5061028a6106ed366004613b23565b611f80565b3480156106fe57600080fd5b5061028a61070d366004613d4f565b612012565b34801561071e57600080fd5b5061028a61072d36600461312a565b612171565b34801561073e57600080fd5b5061028a61074d366004613d4f565b6121f6565b34801561075e57600080fd5b5061028a61076d3660046130e1565b6122c0565b60006001600160e01b03198216635a05180f60e01b148061079757506107978261230c565b92915050565b60006107a881612341565b6000610131856040516107bb9190613d95565b908152602001604051809103902084815481106107da576107da613db1565b6000918252602090912001546040516001600160a01b039091169150839061013190610807908890613d95565b9081526020016040518091039020858154811061082657610826613db1565b9060005260206000200160006101000a8154816001600160a01b0302191690836001600160a01b0316021790555083856040516108639190613d95565b60405180910390206108723390565b604080516001600160a01b038681168252888116602083015292909216917fabd92a49a6e3ca99a92265d9a97d0bb48137368dc3c8ff2bf0622014cf404c1a910160405180910390a45050505050565b61012e54606090806001600160401b038111156108e1576108e1612e96565b60405190808252806020026020018201604052801561091457816020015b60608152602001906001900390816108ff5790505b50915060005b818110156109d65761012f61012e828154811061093957610939613db1565b906000526020600020016040516109509190613e01565b90815260408051918290036020908101832080548083028501830190935282845291908301828280156109ac57602002820191906000526020600020905b81546001600160a01b0316815260019091019060200180831161098e575b50505050508382815181106109c3576109c3613db1565b602090810291909101015260010161091a565b505090565b60008061012f856040516109ef9190613d95565b90815260200160405180910390208481548110610a0e57610a0e613db1565b60009182526020918290200154604080516339039e5160e11b815290516001600160a01b03909216926372073ca2926004808401938290030181865afa158015610a5c573d6000803e3d6000fd5b505050506040513d601f19601f82011682018060405250810190610a809190613e77565b60405163ca286de760e01b81526001600160a01b0385811660048301529192509082169063ca286de790602401602060405180830381865afa158015610aca573d6000803e3d6000fd5b505050506040513d601f19601f82011682018060405250810190610aee9190613e9f565b95945050505050565b600082815260656020526040902060010154610b1281612341565b610b1c838361234b565b505050565b6001600160a01b0381163314610b965760405162461bcd60e51b815260206004820152602f60248201527f416363657373436f6e74726f6c3a2063616e206f6e6c792072656e6f756e636560448201526e103937b632b9903337b91039b2b63360891b60648201526084015b60405180910390fd5b610ba0828261236d565b5050565b6001600160a01b037f0000000000000000000000000000000000000000000000000000000000000000163003610bec5760405162461bcd60e51b8152600401610b8d90613ebc565b7f00000000000000000000000000000000000000000000000000000000000000006001600160a01b0316610c35600080516020614658833981519152546001600160a01b031690565b6001600160a01b031614610c5b5760405162461bcd60e51b8152600401610b8d90613f08565b610c648161238f565b60408051600080825260208201909252610c809183919061239a565b50565b61012d54610c9081612341565b61012f85604051610ca19190613d95565b90815260200160405180910390208481548110610cc057610cc0613db1565b60009182526020909120015460405163dd0b136560e01b81526001600160a01b039091169063dd0b136590610cfb9086908690600401613f54565b600060405180830381600087803b158015610d1557600080fd5b505af1158015610d29573d6000803e3d6000fd5b505050505050505050565b6001600160a01b037f0000000000000000000000000000000000000000000000000000000000000000163003610d7c5760405162461bcd60e51b8152600401610b8d90613ebc565b7f00000000000000000000000000000000000000000000000000000000000000006001600160a01b0316610dc5600080516020614658833981519152546001600160a01b031690565b6001600160a01b031614610deb5760405162461bcd60e51b8152600401610b8d90613f08565b610df48261238f565b610ba08282600161239a565b6000306001600160a01b037f00000000000000000000000000000000000000000000000000000000000000001614610ea05760405162461bcd60e51b815260206004820152603860248201527f555550535570677261646561626c653a206d757374206e6f742062652063616c60448201527f6c6564207468726f7567682064656c656761746563616c6c00000000000000006064820152608401610b8d565b5060008051602061465883398151915290565b61012d54610ec081612341565b61012f85604051610ed19190613d95565b90815260200160405180910390208481548110610ef057610ef0613db1565b600091825260209091200154604051631d45f7ad60e01b81526001600160a01b03858116600483015263ffffffff8516602483015290911690631d45f7ad90604401610cfb565b6040805161018081018252600080825260208201819052818301819052606082018190526080820181905260a0820181905260c0820181905260e08201819052610100820181905261012082018190526101408201819052610160820152905161012f90610fa6908690613d95565b90815260200160405180910390208381548110610fc557610fc5613db1565b60009182526020909120015460405163cba5b27f60e01b81526001600160a01b0384811660048301529091169063cba5b27f9060240161018060405180830381865afa158015611019573d6000803e3d6000fd5b505050506040513d601f19601f8201168201806040525081019061103d9190613f7d565b949350505050565b604080516101a08101825260608082526020820181905291810182905281810182905260006080820181905260a0820181905260c0820181905260e08201819052610100820181905261012082018190526101408201819052610160820192909252610180810191909152600061012f856040516110c39190613d95565b908152602001604051809103902084815481106110e2576110e2613db1565b60009182526020918290200154604080516339039e5160e11b815290516001600160a01b03909216926372073ca2926004808401938290030181865afa158015611130573d6000803e3d6000fd5b505050506040513d601f19601f820116820180604052508101906111549190613e77565b604051631c0257b760e31b81529091506001600160a01b0382169063e012bdb890611183908690600401614069565b600060405180830381865afa1580156111a0573d6000803e3d6000fd5b505050506040513d6000823e601f3d908101601f19168201604052610aee91908101906141af565b606061012f846040516111db9190613d95565b908152602001604051809103902083815481106111fa576111fa613db1565b60009182526020909120015460405163c24cf1ad60e01b81526001600160a01b039091169063c24cf1ad90611233908590600401613b57565b600060405180830381865afa158015611250573d6000803e3d6000fd5b505050506040513d6000823e601f3d908101601f1916820160405261103d919081019061433e565b600061128381612341565b6000805b61012e5481101561131357856040516020016112a39190613d95565b6040516020818303038152906040528051906020012061012e82815481106112cd576112cd613db1565b906000526020600020016040516020016112e79190613e01565b604051602081830303815290604052805190602001200361130b5760019150611313565b600101611287565b50806113315760405162461bcd60e51b8152600401610b8d90614372565b600061012f866040516113449190613d95565b9081526020016040518091039020858154811061136357611363613db1565b6000918252602090912001546040516001600160a01b039091169150849061012f90611390908990613d95565b908152602001604051809103902086815481106113af576113af613db1565b9060005260206000200160006101000a8154816001600160a01b0302191690836001600160a01b0316021790555084866040516113ec9190613d95565b60405180910390206113fb3390565b604080516001600160a01b038681168252898116602083015292909216917fe774dfc733f69ed65d53e05f8317857e23f69dac471a74eb0a6b0db023423727910160405180910390a4505050505050565b606061012e805480602002602001604051908101604052809291908181526020016000905b8282101561151d57838290600052602060002001805461149090613dc7565b80601f01602080910402602001604051908101604052809291908181526020018280546114bc90613dc7565b80156115095780601f106114de57610100808354040283529160200191611509565b820191906000526020600020905b8154815290600101906020018083116114ec57829003601f168201915b505050505081526020019060010190611471565b50505050905090565b61012d5461153381612341565b600061012f876040516115469190613d95565b9081526020016040518091039020868154811061156557611565613db1565b60009182526020918290200154604080516339039e5160e11b815290516001600160a01b03909216926372073ca2926004808401938290030181865afa1580156115b3573d6000803e3d6000fd5b505050506040513d601f19601f820116820180604052508101906115d79190613e77565b6040516370c2c18360e01b81529091506001600160a01b038216906370c2c1839061160a908890889088906004016143b3565b600060405180830381600087803b15801561162457600080fd5b505af1158015611638573d6000803e3d6000fd5b5050505050505050505050565b6060610131826040516116589190613d95565b90815260408051918290036020908101832080548083028501830190935282845291908301828280156116b457602002820191906000526020600020905b81546001600160a01b03168152600190910190602001808311611696575b50505050509050919050565b61012d546116cd81612341565b600061012f866040516116e09190613d95565b908152602001604051809103902085815481106116ff576116ff613db1565b60009182526020918290200154604080516339039e5160e11b815290516001600160a01b03909216926372073ca2926004808401938290030181865afa15801561174d573d6000803e3d6000fd5b505050506040513d601f19601f820116820180604052508101906117719190613e77565b604051630b111f5160e01b81526001600160a01b038681166004830152855163ffffffff16602483015291925090821690630b111f51906044015b600060405180830381600087803b1580156117c657600080fd5b505af11580156117da573d6000803e3d6000fd5b50505050505050505050565b61012d546117f381612341565b61012f846040516118049190613d95565b9081526020016040518091039020838154811061182357611823613db1565b6000918252602090912001546040516322f5ff6560e21b81526001600160a01b03848116600483015290911690638bd7fd94906024015b600060405180830381600087803b15801561187457600080fd5b505af1158015611888573d6000803e3d6000fd5b5050505050505050565b600054610100900460ff16158080156118b25750600054600160ff909116105b806118cc5750303b1580156118cc575060005460ff166001145b61192f5760405162461bcd60e51b815260206004820152602e60248201527f496e697469616c697a61626c653a20636f6e747261637420697320616c72656160448201526d191e481a5b9a5d1a585b1a5e995960921b6064820152608401610b8d565b6000805460ff191660011790558015611952576000805461ff0019166101001790555b61195a612505565b611962612505565b7f6a64baf327d646d1bca72653e2a075d15fd6ac6d8cbd7f6ee03fc55875e0fa8861012d819055611993903361234b565b61199e60003361234b565b8015610c80576000805461ff0019169055604051600181527f7f26b83ff96e1f2b6a682f133852f6798a09c465da95921460cefb38474024989060200160405180910390a150565b61012d546119f381612341565b61012f86604051611a049190613d95565b90815260200160405180910390208581548110611a2357611a23613db1565b60009182526020909120015460405163012a6f4d60e71b81526001600160a01b03868116600483015263ffffffff80871660248401528516604483015290911690639537a680906064016117ac565b6000828152609760205260408120611a8a9083612572565b9392505050565b60009182526065602090815260408084206001600160a01b0393909316845291905290205460ff1690565b61012d54611ac981612341565b61012f84604051611ada9190613d95565b90815260200160405180910390208381548110611af957611af9613db1565b60009182526020909120015460405163a973063760e01b81526001600160a01b0384811660048301529091169063a97306379060240161185a565b604080516020810190915260008152600061012f85604051611b569190613d95565b90815260200160405180910390208481548110611b7557611b75613db1565b60009182526020918290200154604080516339039e5160e11b815290516001600160a01b03909216926372073ca2926004808401938290030181865afa158015611bc3573d6000803e3d6000fd5b505050506040513d601f19601f82011682018060405250810190611be79190613e77565b6040516351a0937360e11b81526001600160a01b0385811660048301529192509082169063a34126e690602401602060405180830381865afa158015611c31573d6000803e3d6000fd5b505050506040513d601f19601f82011682018060405250810190610aee91906143e9565b600061012f83604051611c689190613d95565b90815260200160405180910390208281548110611c8757611c87613db1565b60009182526020918290200154604080516339039e5160e11b815290516001600160a01b03909216926372073ca2926004808401938290030181865afa158015611cd5573d6000803e3d6000fd5b505050506040513d601f19601f82011682018060405250810190611cf99190613e77565b9050611d573361013185604051611d109190613d95565b90815260200160405180910390208481548110611d2f57611d2f613db1565b60009182526020909120015461013254610130546001600160a01b039081169392169061257e565b604051634260533f60e11b81523360048201526001600160a01b038216906384c0a67e90602401600060405180830381600087803b158015611d9857600080fd5b505af1158015611dac573d6000803e3d6000fd5b50505050505050565b6000611dc081612341565b61012e548310611e235760405162461bcd60e51b815260206004820152602860248201527f426f73734d6f6e737465724d6368596f73686b613a20696e646578206f7574206044820152676f662072616e676560c01b6064820152608401610b8d565b600061012e8481548110611e3957611e39613db1565b906000526020600020018054611e4e90613dc7565b80601f0160208091040260200160405190810160405280929190818152602001828054611e7a90613dc7565b8015611ec75780601f10611e9c57610100808354040283529160200191611ec7565b820191906000526020600020905b815481529060010190602001808311611eaa57829003601f168201915b505050505090508261012e8581548110611ee357611ee3613db1565b906000526020600020019081611ef99190614465565b5083336001600160a01b03167f0c92640316bbae8777912dd020b5126932ceaf5e11365ff9f39b00b7d85f1bf78386604051611f36929190614524565b60405180910390a350505050565b6000818152609760205260408120610797906125de565b600082815260656020526040902060010154611f7681612341565b610b1c838361236d565b6000611f8b81612341565b61012e80546001810182556000919091527fbdaadd9f750d0166045bf387a364eadd28ba243e04512a47282aa5147a68e37f01611fc88382614465565b5061012e54336001600160a01b03167fd62d9ab078db064bcb3b59ad6ec83e606cdce516856735276bb0f1644e23446e846040516120069190614069565b60405180910390a35050565b600061201d81612341565b6000805b61012e548110156120ad578460405160200161203d9190613d95565b6040516020818303038152906040528051906020012061012e828154811061206757612067613db1565b906000526020600020016040516020016120819190613e01565b60405160208183030381529060405280519060200120036120a557600191506120ad565b600101612021565b50806120cb5760405162461bcd60e51b8152600401610b8d90614372565b61012f846040516120dc9190613d95565b908152604051602091819003820181208054600181018255600091825292902090910180546001600160a01b0319166001600160a01b038616179055612123908590613d95565b60405180910390206121323390565b6040516001600160a01b03868116825291909116907fe2c91415f76c1202a15ba5a3efec6a6f1c69f4a36cf527cc3bd72a5c95f1ae8d90602001611f36565b600061217c81612341565b61013080546001600160a01b038481166001600160a01b0319831617909255166121a33390565b61013054604080516001600160a01b038581168252928316602082015292909116917f5ebe54482b2a8120482902e3bfe9ca1a913e9987bcb1f18c974dae585132a95491015b60405180910390a2505050565b600061220181612341565b6000805b61012e5481101561229157846040516020016122219190613d95565b6040516020818303038152906040528051906020012061012e828154811061224b5761224b613db1565b906000526020600020016040516020016122659190613e01565b60405160208183030381529060405280519060200120036122895760019150612291565b600101612205565b50806122af5760405162461bcd60e51b8152600401610b8d90614372565b610131846040516120dc9190613d95565b60006122cb81612341565b610132805490839055604080518281526020810185905233917f55cc83342b4c144a74960fdf0dfe1a7af4cbb77aaccb471b088d5fe0bdad1d4c91016121e9565b60006001600160e01b03198216637965db0b60e01b148061079757506301ffc9a760e01b6001600160e01b0319831614610797565b610c8081336125e8565b6123558282612641565b6000828152609760205260409020610b1c90826126c7565b61237782826126dc565b6000828152609760205260409020610b1c9082612743565b6000610ba081612341565b7f4910fdfa16fed3260ed0e7147f7cc6da11a60208b5b9406d12a635614ffd91435460ff16156123cd57610b1c83612758565b826001600160a01b03166352d1902d6040518163ffffffff1660e01b8152600401602060405180830381865afa925050508015612427575060408051601f3d908101601f1916820190925261242491810190614549565b60015b61248a5760405162461bcd60e51b815260206004820152602e60248201527f45524331393637557067726164653a206e657720696d706c656d656e7461746960448201526d6f6e206973206e6f74205555505360901b6064820152608401610b8d565b60008051602061465883398151915281146124f95760405162461bcd60e51b815260206004820152602960248201527f45524331393637557067726164653a20756e737570706f727465642070726f786044820152681a58589b195555525160ba1b6064820152608401610b8d565b50610b1c8383836127f4565b600054610100900460ff166125705760405162461bcd60e51b815260206004820152602b60248201527f496e697469616c697a61626c653a20636f6e7472616374206973206e6f74206960448201526a6e697469616c697a696e6760a81b6064820152608401610b8d565b565b6000611a8a8383612819565b604080516001600160a01b0385811660248301528416604482015260648082018490528251808303909101815260849091019091526020810180516001600160e01b03166323b872dd60e01b1790526125d8908590612843565b50505050565b6000610797825490565b6125f28282611a91565b610ba0576125ff81612918565b61260a83602061292a565b60405160200161261b929190614562565b60408051601f198184030181529082905262461bcd60e51b8252610b8d91600401614069565b61264b8282611a91565b610ba05760008281526065602090815260408083206001600160a01b03851684529091529020805460ff191660011790556126833390565b6001600160a01b0316816001600160a01b0316837f2f8788117e7eff1d82e926ec794901d17c78024a50270940304540a733656f0d60405160405180910390a45050565b6000611a8a836001600160a01b038416612ac5565b6126e68282611a91565b15610ba05760008281526065602090815260408083206001600160a01b0385168085529252808320805460ff1916905551339285917ff6391f5c32d9c69d2a47ea670b442974b53935d1edc7fd64eb21e047a839171b9190a45050565b6000611a8a836001600160a01b038416612b14565b6001600160a01b0381163b6127c55760405162461bcd60e51b815260206004820152602d60248201527f455243313936373a206e657720696d706c656d656e746174696f6e206973206e60448201526c1bdd08184818dbdb9d1c9858dd609a1b6064820152608401610b8d565b60008051602061465883398151915280546001600160a01b0319166001600160a01b0392909216919091179055565b6127fd83612c07565b60008251118061280a5750805b15610b1c576125d88383612c47565b600082600001828154811061283057612830613db1565b9060005260206000200154905092915050565b6000612898826040518060400160405280602081526020017f5361666545524332303a206c6f772d6c6576656c2063616c6c206661696c6564815250856001600160a01b0316612c6c9092919063ffffffff16565b90508051600014806128b95750808060200190518101906128b99190613e9f565b610b1c5760405162461bcd60e51b815260206004820152602a60248201527f5361666545524332303a204552433230206f7065726174696f6e20646964206e6044820152691bdd081cdd58d8d9595960b21b6064820152608401610b8d565b60606107976001600160a01b03831660145b606060006129398360026145ed565b612944906002614604565b6001600160401b0381111561295b5761295b612e96565b6040519080825280601f01601f191660200182016040528015612985576020820181803683370190505b509050600360fc1b816000815181106129a0576129a0613db1565b60200101906001600160f81b031916908160001a905350600f60fb1b816001815181106129cf576129cf613db1565b60200101906001600160f81b031916908160001a90535060006129f38460026145ed565b6129fe906001614604565b90505b6001811115612a76576f181899199a1a9b1b9c1cb0b131b232b360811b85600f1660108110612a3257612a32613db1565b1a60f81b828281518110612a4857612a48613db1565b60200101906001600160f81b031916908160001a90535060049490941c93612a6f81614617565b9050612a01565b508315611a8a5760405162461bcd60e51b815260206004820181905260248201527f537472696e67733a20686578206c656e67746820696e73756666696369656e746044820152606401610b8d565b6000818152600183016020526040812054612b0c57508154600181810184556000848152602080822090930184905584548482528286019093526040902091909155610797565b506000610797565b60008181526001830160205260408120548015612bfd576000612b3860018361462e565b8554909150600090612b4c9060019061462e565b9050818114612bb1576000866000018281548110612b6c57612b6c613db1565b9060005260206000200154905080876000018481548110612b8f57612b8f613db1565b6000918252602080832090910192909255918252600188019052604090208390555b8554869080612bc257612bc2614641565b600190038181906000526020600020016000905590558560010160008681526020019081526020016000206000905560019350505050610797565b6000915050610797565b612c1081612758565b6040516001600160a01b038216907fbc7cd75a20ee27fd9adebab32041f755214dbc6bffa90cc0225b39da2e5c2d3b90600090a250565b6060611a8a838360405180606001604052806027815260200161467860279139612c7b565b606061103d8484600085612cf3565b6060600080856001600160a01b031685604051612c989190613d95565b600060405180830381855af49150503d8060008114612cd3576040519150601f19603f3d011682016040523d82523d6000602084013e612cd8565b606091505b5091509150612ce986838387612dce565b9695505050505050565b606082471015612d545760405162461bcd60e51b815260206004820152602660248201527f416464726573733a20696e73756666696369656e742062616c616e636520666f6044820152651c8818d85b1b60d21b6064820152608401610b8d565b600080866001600160a01b03168587604051612d709190613d95565b60006040518083038185875af1925050503d8060008114612dad576040519150601f19603f3d011682016040523d82523d6000602084013e612db2565b606091505b5091509150612dc387838387612dce565b979650505050505050565b60608315612e3d578251600003612e36576001600160a01b0385163b612e365760405162461bcd60e51b815260206004820152601d60248201527f416464726573733a2063616c6c20746f206e6f6e2d636f6e74726163740000006044820152606401610b8d565b508161103d565b61103d8383815115612e525781518083602001fd5b8060405162461bcd60e51b8152600401610b8d9190614069565b600060208284031215612e7e57600080fd5b81356001600160e01b031981168114611a8a57600080fd5b634e487b7160e01b600052604160045260246000fd5b60405161018081016001600160401b0381118282101715612ecf57612ecf612e96565b60405290565b6040516101a081016001600160401b0381118282101715612ecf57612ecf612e96565b604051602081016001600160401b0381118282101715612ecf57612ecf612e96565b604051601f8201601f191681016001600160401b0381118282101715612f4257612f42612e96565b604052919050565b60006001600160401b03821115612f6357612f63612e96565b50601f01601f191660200190565b6000612f84612f7f84612f4a565b612f1a565b9050828152838383011115612f9857600080fd5b828260208301376000602084830101529392505050565b600082601f830112612fc057600080fd5b611a8a83833560208501612f71565b6001600160a01b0381168114610c8057600080fd5b8035612fef81612fcf565b919050565b60008060006060848603121561300957600080fd5b83356001600160401b0381111561301f57600080fd5b61302b86828701612faf565b93505060208401359150604084013561304381612fcf565b809150509250925092565b6000602080830181845280855180835260408601915060408160051b87010192508387016000805b838110156130d357888603603f19018552825180518088529088019088880190845b818110156130bd5783516001600160a01b03168352928a0192918a0191600101613098565b5090975050509386019391860191600101613076565b509398975050505050505050565b6000602082840312156130f357600080fd5b5035919050565b6000806040838503121561310d57600080fd5b82359150602083013561311f81612fcf565b809150509250929050565b60006020828403121561313c57600080fd5b8135611a8a81612fcf565b8015158114610c8057600080fd5b8035612fef81613147565b63ffffffff81168114610c8057600080fd5b8035612fef81613160565b6000806000808486036101e081121561319557600080fd5b85356001600160401b038111156131ab57600080fd5b6131b788828901612faf565b9550506020860135935060408601356131cf81612fcf565b9250610180605f1982018113156131e557600080fd5b6131ed612eac565b91506131fb60608801613155565b825261320960808801613155565b602083015261321a60a08801613172565b604083015261322b60c08801613172565b606083015261323c60e08801613172565b608083015261010061324f818901613172565b60a0840152610120613262818a01613172565b60c0850152610140613275818b01613172565b60e0860152610160613288818c01613155565b84870152613297858c01613155565b838701526132a86101a08c01613155565b828701526132b96101c08c01613155565b90860152509699959850939650909450505050565b600080604083850312156132e157600080fd5b82356132ec81612fcf565b915060208301356001600160401b0381111561330757600080fd5b8301601f8101851361331857600080fd5b61332785823560208401612f71565b9150509250929050565b6000806000806080858703121561334757600080fd5b84356001600160401b0381111561335d57600080fd5b61336987828801612faf565b94505060208501359250604085013561338181612fcf565b9150606085013561339181613160565b939692955090935050565b80511515825260208101516133b5602084018215159052565b5060408101516133cd604084018263ffffffff169052565b5060608101516133e5606084018263ffffffff169052565b5060808101516133fd608084018263ffffffff169052565b5060a081015161341560a084018263ffffffff169052565b5060c081015161342d60c084018263ffffffff169052565b5060e081015161344560e084018263ffffffff169052565b5061010081810151151590830152610120808201511515908301526101408082015115159083015261016080820151801515828501526125d8565b6101808101610797828461339c565b6000806000606084860312156134a457600080fd5b83356001600160401b03808211156134bb57600080fd5b6134c787838801612faf565b94506020860135935060408601359150808211156134e457600080fd5b506134f186828701612faf565b9150509250925092565b60005b838110156135165781810151838201526020016134fe565b50506000910152565b600081518084526135378160208601602086016134fb565b601f01601f19169290920160200192915050565b600081518084526020808501808196508360051b8101915082860160005b8581101561359357828403895261358184835161351f565b98850198935090840190600101613569565b5091979650505050505050565b600081518084526020808501945080840160005b838110156135d657815163ffffffff16875295820195908201906001016135b4565b509495945050505050565b60006101a082518185526135f78286018261351f565b91505060208301518482036020860152613611828261351f565b9150506040830151848203604086015261362b828261351f565b91505060608301518482036060860152613645828261354b565b915050608083015161365f608086018263ffffffff169052565b5060a083015161367760a086018263ffffffff169052565b5060c083015161368f60c086018263ffffffff169052565b5060e08301516136a760e086018263ffffffff169052565b506101008381015163ffffffff9081169186019190915261012080850151821690860152610140808501519091169085015261016080840151858303828701526136f183826135a0565b9250505061018080840151613710828701826001600160a01b03169052565b5090949350505050565b602081526000611a8a60208301846135e1565b60006001600160401b0382111561374657613746612e96565b5060051b60200190565b60008060006060848603121561376557600080fd5b83356001600160401b038082111561377c57600080fd5b61378887838801612faf565b9450602091508186013593506040860135818111156137a657600080fd5b86019050601f810187136137b957600080fd5b80356137c7612f7f8261372d565b81815260059190911b820183019083810190898311156137e657600080fd5b928401925b8284101561380d5783356137fe81612fcf565b825292840192908401906137eb565b80955050505050509250925092565b602081526000611a8a60208301846135a0565b602081526000611a8a602083018461354b565b600082601f83011261385357600080fd5b81356020613863612f7f8361372d565b82815260059290921b8401810191818101908684111561388257600080fd5b8286015b848110156138c15780356001600160401b038111156138a55760008081fd5b6138b38986838b0101612faf565b845250918301918301613886565b509695505050505050565b600082601f8301126138dd57600080fd5b813560206138ed612f7f8361372d565b82815260059290921b8401810191818101908684111561390c57600080fd5b8286015b848110156138c157803561392381613160565b8352918301918301613910565b600080600080600060a0868803121561394857600080fd5b85356001600160401b038082111561395f57600080fd5b61396b89838a01612faf565b9650602088013595506040880135915061398482612fcf565b9093506060870135908082111561399a57600080fd5b908701906101a0828a0312156139af57600080fd5b6139b7612ed5565b8235828111156139c657600080fd5b6139d28b828601612faf565b8252506020830135828111156139e757600080fd5b6139f38b828601612faf565b602083015250604083013582811115613a0b57600080fd5b613a178b828601612faf565b604083015250606083013582811115613a2f57600080fd5b613a3b8b828601613842565b606083015250613a4d60808401613172565b6080820152613a5e60a08401613172565b60a0820152613a6f60c08401613172565b60c0820152613a8060e08401613172565b60e0820152610100613a93818501613172565b90820152610120613aa5848201613172565b90820152610140613ab7848201613172565b908201526101608381013583811115613acf57600080fd5b613adb8c8287016138cc565b828401525050610180613aef818501612fe4565b9082015293506080880135915080821115613b0957600080fd5b50613b1688828901612faf565b9150509295509295909350565b600060208284031215613b3557600080fd5b81356001600160401b03811115613b4b57600080fd5b61103d84828501612faf565b6020808252825182820181905260009190848201906040850190845b81811015613b985783516001600160a01b031683529284019291840191600101613b73565b50909695505050505050565b6000806000808486036080811215613bbb57600080fd5b85356001600160401b03811115613bd157600080fd5b613bdd88828901612faf565b955050602086013593506040860135613bf581612fcf565b92506020605f1982011215613c0957600080fd5b50613c12612ef8565b6060860135613c2081613160565b8152939692955090935050565b600080600080600060a08688031215613c4557600080fd5b85356001600160401b03811115613c5b57600080fd5b613c6788828901612faf565b955050602086013593506040860135613c7f81612fcf565b92506060860135613c8f81613160565b91506080860135613c9f81613160565b809150509295509295909350565b60008060408385031215613cc057600080fd5b50508035926020909101359150565b60008060408385031215613ce257600080fd5b82356001600160401b03811115613cf857600080fd5b613d0485828601612faf565b95602094909401359450505050565b60008060408385031215613d2657600080fd5b8235915060208301356001600160401b03811115613d4357600080fd5b61332785828601612faf565b60008060408385031215613d6257600080fd5b82356001600160401b03811115613d7857600080fd5b613d8485828601612faf565b925050602083013561311f81612fcf565b60008251613da78184602087016134fb565b9190910192915050565b634e487b7160e01b600052603260045260246000fd5b600181811c90821680613ddb57607f821691505b602082108103613dfb57634e487b7160e01b600052602260045260246000fd5b50919050565b6000808354613e0f81613dc7565b60018281168015613e275760018114613e3c57613e6b565b60ff1984168752821515830287019450613e6b565b8760005260208060002060005b85811015613e625781548a820152908401908201613e49565b50505082870194505b50929695505050505050565b600060208284031215613e8957600080fd5b8151611a8a81612fcf565b8051612fef81613147565b600060208284031215613eb157600080fd5b8151611a8a81613147565b6020808252602c908201527f46756e6374696f6e206d7573742062652063616c6c6564207468726f7567682060408201526b19195b1959d85d1958d85b1b60a21b606082015260800190565b6020808252602c908201527f46756e6374696f6e206d7573742062652063616c6c6564207468726f7567682060408201526b6163746976652070726f787960a01b606082015260800190565b6001600160a01b03831681526101a08101611a8a602083018461339c565b8051612fef81613160565b60006101808284031215613f9057600080fd5b613f98612eac565b613fa183613e94565b8152613faf60208401613e94565b6020820152613fc060408401613f72565b6040820152613fd160608401613f72565b6060820152613fe260808401613f72565b6080820152613ff360a08401613f72565b60a082015261400460c08401613f72565b60c082015261401560e08401613f72565b60e0820152610100614028818501613e94565b9082015261012061403a848201613e94565b9082015261014061404c848201613e94565b9082015261016061405e848201613e94565b908201529392505050565b602081526000611a8a602083018461351f565b600082601f83011261408d57600080fd5b815161409b612f7f82612f4a565b8181528460208386010111156140b057600080fd5b61103d8260208301602087016134fb565b600082601f8301126140d257600080fd5b815160206140e2612f7f8361372d565b82815260059290921b8401810191818101908684111561410157600080fd5b8286015b848110156138c15780516001600160401b038111156141245760008081fd5b6141328986838b010161407c565b845250918301918301614105565b600082601f83011261415157600080fd5b81516020614161612f7f8361372d565b82815260059290921b8401810191818101908684111561418057600080fd5b8286015b848110156138c157805161419781613160565b8352918301918301614184565b8051612fef81612fcf565b6000602082840312156141c157600080fd5b81516001600160401b03808211156141d857600080fd5b908301906101a082860312156141ed57600080fd5b6141f5612ed5565b82518281111561420457600080fd5b6142108782860161407c565b82525060208301518281111561422557600080fd5b6142318782860161407c565b60208301525060408301518281111561424957600080fd5b6142558782860161407c565b60408301525060608301518281111561426d57600080fd5b614279878286016140c1565b60608301525061428b60808401613f72565b608082015261429c60a08401613f72565b60a08201526142ad60c08401613f72565b60c08201526142be60e08401613f72565b60e08201526101006142d1818501613f72565b908201526101206142e3848201613f72565b908201526101406142f5848201613f72565b90820152610160838101518381111561430d57600080fd5b61431988828701614140565b828401525050610180915061432f8284016141a4565b91810191909152949350505050565b60006020828403121561435057600080fd5b81516001600160401b0381111561436657600080fd5b61103d84828501614140565b60208082526021908201527f426f7373426174746c653a206576656e744b6579206e6f7420696e636c7564656040820152601960fa1b606082015260800190565b6001600160a01b03841681526060602082018190526000906143d7908301856135e1565b8281036040840152612ce9818561351f565b6000602082840312156143fb57600080fd5b614403612ef8565b825161440e81613160565b81529392505050565b601f821115610b1c57600081815260208120601f850160051c8101602086101561443e5750805b601f850160051c820191505b8181101561445d5782815560010161444a565b505050505050565b81516001600160401b0381111561447e5761447e612e96565b6144928161448c8454613dc7565b84614417565b602080601f8311600181146144c757600084156144af5750858301515b600019600386901b1c1916600185901b17855561445d565b600085815260208120601f198616915b828110156144f6578886015182559484019460019091019084016144d7565b50858210156145145787850151600019600388901b60f8161c191681555b5050505050600190811b01905550565b604081526000614537604083018561351f565b8281036020840152610aee818561351f565b60006020828403121561455b57600080fd5b5051919050565b7f416363657373436f6e74726f6c3a206163636f756e742000000000000000000081526000835161459a8160178501602088016134fb565b7001034b99036b4b9b9b4b733903937b6329607d1b60179184019182015283516145cb8160288401602088016134fb565b01602801949350505050565b634e487b7160e01b600052601160045260246000fd5b8082028115828204841417610797576107976145d7565b80820180821115610797576107976145d7565b600081614626576146266145d7565b506000190190565b81810381811115610797576107976145d7565b634e487b7160e01b600052603160045260246000fdfe360894a13ba1a3210667c828492db98dca3e2076cc3735a920a3ca505d382bbc416464726573733a206c6f772d6c6576656c2064656c65676174652063616c6c206661696c6564a26469706673582212209c151034430182f6303a9044b16e9afc3d1f840fc607ef2fc6c4b99dd55133d164736f6c63430008120033",
  "linkReferences": {},
  "deployedLinkReferences": {}
}