{
  "_format": "hh-sol-artifact-1",
  "contractName": "BossBattle",
  "sourceName": "contracts/boss-battle/BossBattle.sol",
  "abi": [
    {
      "inputs": [],
      "stateMutability": "nonpayable",
      "type": "constructor"
    },
    {
      "anonymous": false,
      "inputs": [
        {
          "indexed": true,
          "internalType": "address",
          "name": "publisher",
          "type": "address"
        },
        {
          "indexed": true,
          "internalType": "string",
          "name": "eventKey",
          "type": "string"
        },
        {
          "indexed": false,
          "internalType": "address",
          "name": "bossBattleEvent",
          "type": "address"
        }
      ],
      "name": "AddedBossBattleEvent",
      "type": "event"
    },
    {
      "anonymous": false,
      "inputs": [
        {
          "indexed": true,
          "internalType": "address",
          "name": "publisher",
          "type": "address"
        },
        {
          "indexed": true,
          "internalType": "uint256",
          "name": "index",
          "type": "uint256"
        },
        {
          "indexed": false,
          "internalType": "string",
          "name": "eventKey",
          "type": "string"
        }
      ],
      "name": "AddedEventKey",
      "type": "event"
    },
    {
      "anonymous": false,
      "inputs": [
        {
          "indexed": false,
          "internalType": "address",
          "name": "previousAdmin",
          "type": "address"
        },
        {
          "indexed": false,
          "internalType": "address",
          "name": "newAdmin",
          "type": "address"
        }
      ],
      "name": "AdminChanged",
      "type": "event"
    },
    {
      "anonymous": false,
      "inputs": [
        {
          "indexed": true,
          "internalType": "address",
          "name": "beacon",
          "type": "address"
        }
      ],
      "name": "BeaconUpgraded",
      "type": "event"
    },
    {
      "anonymous": false,
      "inputs": [
        {
          "indexed": false,
          "internalType": "uint8",
          "name": "version",
          "type": "uint8"
        }
      ],
      "name": "Initialized",
      "type": "event"
    },
    {
      "anonymous": false,
      "inputs": [
        {
          "indexed": true,
          "internalType": "bytes32",
          "name": "role",
          "type": "bytes32"
        },
        {
          "indexed": true,
          "internalType": "bytes32",
          "name": "previousAdminRole",
          "type": "bytes32"
        },
        {
          "indexed": true,
          "internalType": "bytes32",
          "name": "newAdminRole",
          "type": "bytes32"
        }
      ],
      "name": "RoleAdminChanged",
      "type": "event"
    },
    {
      "anonymous": false,
      "inputs": [
        {
          "indexed": true,
          "internalType": "bytes32",
          "name": "role",
          "type": "bytes32"
        },
        {
          "indexed": true,
          "internalType": "address",
          "name": "account",
          "type": "address"
        },
        {
          "indexed": true,
          "internalType": "address",
          "name": "sender",
          "type": "address"
        }
      ],
      "name": "RoleGranted",
      "type": "event"
    },
    {
      "anonymous": false,
      "inputs": [
        {
          "indexed": true,
          "internalType": "bytes32",
          "name": "role",
          "type": "bytes32"
        },
        {
          "indexed": true,
          "internalType": "address",
          "name": "account",
          "type": "address"
        },
        {
          "indexed": true,
          "internalType": "address",
          "name": "sender",
          "type": "address"
        }
      ],
      "name": "RoleRevoked",
      "type": "event"
    },
    {
      "anonymous": false,
      "inputs": [
        {
          "indexed": true,
          "internalType": "address",
          "name": "publisher",
          "type": "address"
        },
        {
          "indexed": true,
          "internalType": "string",
          "name": "eventKey",
          "type": "string"
        },
        {
          "indexed": true,
          "internalType": "uint256",
          "name": "bbeId",
          "type": "uint256"
        },
        {
          "indexed": false,
          "internalType": "address",
          "name": "oldValue",
          "type": "address"
        },
        {
          "indexed": false,
          "internalType": "address",
          "name": "newValue",
          "type": "address"
        }
      ],
      "name": "SetBossBattleEvent",
      "type": "event"
    },
    {
      "anonymous": false,
      "inputs": [
        {
          "indexed": true,
          "internalType": "address",
          "name": "publisher",
          "type": "address"
        },
        {
          "indexed": true,
          "internalType": "uint256",
          "name": "index",
          "type": "uint256"
        },
        {
          "indexed": false,
          "internalType": "string",
          "name": "oldValue",
          "type": "string"
        },
        {
          "indexed": false,
          "internalType": "string",
          "name": "newValue",
          "type": "string"
        }
      ],
      "name": "SetEventKey",
      "type": "event"
    },
    {
      "anonymous": false,
      "inputs": [
        {
          "indexed": true,
          "internalType": "address",
          "name": "implementation",
          "type": "address"
        }
      ],
      "name": "Upgraded",
      "type": "event"
    },
    {
      "inputs": [],
      "name": "DEFAULT_ADMIN_ROLE",
      "outputs": [
        {
          "internalType": "bytes32",
          "name": "",
          "type": "bytes32"
        }
      ],
      "stateMutability": "view",
      "type": "function"
    },
    {
      "inputs": [
        {
          "internalType": "string",
          "name": "eventKey",
          "type": "string"
        },
        {
          "internalType": "address",
          "name": "bossBattleEvent",
          "type": "address"
        }
      ],
      "name": "addBossBattleEvent",
      "outputs": [],
      "stateMutability": "nonpayable",
      "type": "function"
    },
    {
      "inputs": [
        {
          "internalType": "string",
          "name": "eventKey",
          "type": "string"
        }
      ],
      "name": "addEventKey",
      "outputs": [],
      "stateMutability": "nonpayable",
      "type": "function"
    },
    {
      "inputs": [
        {
          "internalType": "string",
          "name": "eventKey",
          "type": "string"
        },
        {
          "internalType": "uint256",
          "name": "bbeId",
          "type": "uint256"
        },
        {
          "internalType": "address",
          "name": "resurrectionPrompt",
          "type": "address"
        },
        {
          "internalType": "uint32",
          "name": "bossSign",
          "type": "uint32"
        }
      ],
      "name": "continueBossBattle",
      "outputs": [],
      "stateMutability": "nonpayable",
      "type": "function"
    },
    {
      "inputs": [
        {
          "internalType": "string",
          "name": "eventKey",
          "type": "string"
        },
        {
          "internalType": "uint256",
          "name": "bbeId",
          "type": "uint256"
        },
        {
          "internalType": "address",
          "name": "resurrectionPrompt",
          "type": "address"
        }
      ],
      "name": "deleteBBState",
      "outputs": [],
      "stateMutability": "nonpayable",
      "type": "function"
    },
    {
      "inputs": [
        {
          "internalType": "string",
          "name": "eventKey",
          "type": "string"
        },
        {
          "internalType": "uint256",
          "name": "bbeId",
          "type": "uint256"
        },
        {
          "internalType": "address",
          "name": "resurrectionPrompt",
          "type": "address"
        }
      ],
      "name": "endBossBattle",
      "outputs": [],
      "stateMutability": "nonpayable",
      "type": "function"
    },
    {
      "inputs": [
        {
          "internalType": "string",
          "name": "eventKey",
          "type": "string"
        },
        {
          "internalType": "uint256",
          "name": "bbeId",
          "type": "uint256"
        },
        {
          "internalType": "address",
          "name": "resurrectionPrompt",
          "type": "address"
        }
      ],
      "name": "getBBState",
      "outputs": [
        {
          "components": [
            {
              "internalType": "bool",
              "name": "bossBattleStarted",
              "type": "bool"
            },
            {
              "internalType": "bool",
              "name": "bossBattleContinued",
              "type": "bool"
            },
            {
              "internalType": "uint32",
              "name": "lp",
              "type": "uint32"
            },
            {
              "internalType": "uint32",
              "name": "turn",
              "type": "uint32"
            },
            {
              "internalType": "uint32",
              "name": "score",
              "type": "uint32"
            },
            {
              "internalType": "uint32",
              "name": "monsterAdj",
              "type": "uint32"
            },
            {
              "internalType": "uint32",
              "name": "bossAdj",
              "type": "uint32"
            },
            {
              "internalType": "uint32",
              "name": "bossSign",
              "type": "uint32"
            },
            {
              "internalType": "bool",
              "name": "hasHealItem",
              "type": "bool"
            },
            {
              "internalType": "bool",
              "name": "hasBuffItem",
              "type": "bool"
            },
            {
              "internalType": "bool",
              "name": "hasDebuffItem",
              "type": "bool"
            },
            {
              "internalType": "bool",
              "name": "hasEscapeItem",
              "type": "bool"
            }
          ],
          "internalType": "struct IBossBattleEvent.BBState",
          "name": "bbState",
          "type": "tuple"
        }
      ],
      "stateMutability": "view",
      "type": "function"
    },
    {
      "inputs": [],
      "name": "getBossBattleEvents",
      "outputs": [
        {
          "internalType": "address[][]",
          "name": "returnValue",
          "type": "address[][]"
        }
      ],
      "stateMutability": "view",
      "type": "function"
    },
    {
      "inputs": [
        {
          "internalType": "string",
          "name": "eventKey",
          "type": "string"
        },
        {
          "internalType": "uint256",
          "name": "bbeId",
          "type": "uint256"
        },
        {
          "internalType": "string",
          "name": "language",
          "type": "string"
        }
      ],
      "name": "getBossExtension",
      "outputs": [
        {
          "components": [
            {
              "internalType": "string",
              "name": "feature",
              "type": "string"
            },
            {
              "internalType": "string",
              "name": "name",
              "type": "string"
            },
            {
              "internalType": "string",
              "name": "flavor",
              "type": "string"
            },
            {
              "internalType": "string[]",
              "name": "skills",
              "type": "string[]"
            },
            {
              "internalType": "uint32",
              "name": "lv",
              "type": "uint32"
            },
            {
              "internalType": "uint32",
              "name": "hp",
              "type": "uint32"
            },
            {
              "internalType": "uint32",
              "name": "atk",
              "type": "uint32"
            },
            {
              "internalType": "uint32",
              "name": "def",
              "type": "uint32"
            },
            {
              "internalType": "uint32",
              "name": "inte",
              "type": "uint32"
            },
            {
              "internalType": "uint32",
              "name": "mgr",
              "type": "uint32"
            },
            {
              "internalType": "uint32",
              "name": "agl",
              "type": "uint32"
            },
            {
              "internalType": "uint32[]",
              "name": "skillTypes",
              "type": "uint32[]"
            },
            {
              "internalType": "address",
              "name": "resurrectionPrompt",
              "type": "address"
            }
          ],
          "internalType": "struct IPromptMonstersExtension.MonsterExtension",
          "name": "monsterExtension",
          "type": "tuple"
        }
      ],
      "stateMutability": "view",
      "type": "function"
    },
    {
      "inputs": [],
      "name": "getEventKeys",
      "outputs": [
        {
          "internalType": "string[]",
          "name": "returnValue",
          "type": "string[]"
        }
      ],
      "stateMutability": "view",
      "type": "function"
    },
    {
      "inputs": [
        {
          "internalType": "string",
          "name": "eventKey",
          "type": "string"
        },
        {
          "internalType": "uint256",
          "name": "bbeId",
          "type": "uint256"
        },
        {
          "internalType": "address[]",
          "name": "resurrectionPrompts",
          "type": "address[]"
        }
      ],
      "name": "getHighScores",
      "outputs": [
        {
          "internalType": "uint32[]",
          "name": "highScores",
          "type": "uint32[]"
        }
      ],
      "stateMutability": "view",
      "type": "function"
    },
    {
      "inputs": [
        {
          "internalType": "string",
          "name": "eventKey",
          "type": "string"
        },
        {
          "internalType": "uint256",
          "name": "bbeId",
          "type": "uint256"
        },
        {
          "internalType": "address",
          "name": "resurrectionPrompt",
          "type": "address"
        }
      ],
      "name": "getMonsterAdj",
      "outputs": [
        {
          "components": [
            {
              "internalType": "uint32",
              "name": "weaknessFeatureAdj",
              "type": "uint32"
            }
          ],
          "internalType": "struct IBossMonster.MonsterAdj",
          "name": "monsterAdj",
          "type": "tuple"
        }
      ],
      "stateMutability": "view",
      "type": "function"
    },
    {
      "inputs": [
        {
          "internalType": "bytes32",
          "name": "role",
          "type": "bytes32"
        }
      ],
      "name": "getRoleAdmin",
      "outputs": [
        {
          "internalType": "bytes32",
          "name": "",
          "type": "bytes32"
        }
      ],
      "stateMutability": "view",
      "type": "function"
    },
    {
      "inputs": [
        {
          "internalType": "bytes32",
          "name": "role",
          "type": "bytes32"
        },
        {
          "internalType": "uint256",
          "name": "index",
          "type": "uint256"
        }
      ],
      "name": "getRoleMember",
      "outputs": [
        {
          "internalType": "address",
          "name": "",
          "type": "address"
        }
      ],
      "stateMutability": "view",
      "type": "function"
    },
    {
      "inputs": [
        {
          "internalType": "bytes32",
          "name": "role",
          "type": "bytes32"
        }
      ],
      "name": "getRoleMemberCount",
      "outputs": [
        {
          "internalType": "uint256",
          "name": "",
          "type": "uint256"
        }
      ],
      "stateMutability": "view",
      "type": "function"
    },
    {
      "inputs": [
        {
          "internalType": "bytes32",
          "name": "role",
          "type": "bytes32"
        },
        {
          "internalType": "address",
          "name": "account",
          "type": "address"
        }
      ],
      "name": "grantRole",
      "outputs": [],
      "stateMutability": "nonpayable",
      "type": "function"
    },
    {
      "inputs": [
        {
          "internalType": "bytes32",
          "name": "role",
          "type": "bytes32"
        },
        {
          "internalType": "address",
          "name": "account",
          "type": "address"
        }
      ],
      "name": "hasRole",
      "outputs": [
        {
          "internalType": "bool",
          "name": "",
          "type": "bool"
        }
      ],
      "stateMutability": "view",
      "type": "function"
    },
    {
      "inputs": [],
      "name": "initialize",
      "outputs": [],
      "stateMutability": "nonpayable",
      "type": "function"
    },
    {
      "inputs": [],
      "name": "proxiableUUID",
      "outputs": [
        {
          "internalType": "bytes32",
          "name": "",
          "type": "bytes32"
        }
      ],
      "stateMutability": "view",
      "type": "function"
    },
    {
      "inputs": [
        {
          "internalType": "bytes32",
          "name": "role",
          "type": "bytes32"
        },
        {
          "internalType": "address",
          "name": "account",
          "type": "address"
        }
      ],
      "name": "renounceRole",
      "outputs": [],
      "stateMutability": "nonpayable",
      "type": "function"
    },
    {
      "inputs": [
        {
          "internalType": "bytes32",
          "name": "role",
          "type": "bytes32"
        },
        {
          "internalType": "address",
          "name": "account",
          "type": "address"
        }
      ],
      "name": "revokeRole",
      "outputs": [],
      "stateMutability": "nonpayable",
      "type": "function"
    },
    {
      "inputs": [
        {
          "internalType": "string",
          "name": "eventKey",
          "type": "string"
        },
        {
          "internalType": "uint256",
          "name": "bbeId",
          "type": "uint256"
        },
        {
          "internalType": "address",
          "name": "bossBattleEvent",
          "type": "address"
        }
      ],
      "name": "setBossBattleEvent",
      "outputs": [],
      "stateMutability": "nonpayable",
      "type": "function"
    },
    {
      "inputs": [
        {
          "internalType": "uint256",
          "name": "index",
          "type": "uint256"
        },
        {
          "internalType": "string",
          "name": "eventKey",
          "type": "string"
        }
      ],
      "name": "setEventKey",
      "outputs": [],
      "stateMutability": "nonpayable",
      "type": "function"
    },
    {
      "inputs": [
        {
          "internalType": "string",
          "name": "eventKey",
          "type": "string"
        },
        {
          "internalType": "uint256",
          "name": "bbeId",
          "type": "uint256"
        },
        {
          "internalType": "address",
          "name": "resurrectionPrompt",
          "type": "address"
        },
        {
          "components": [
            {
              "internalType": "uint32",
              "name": "weaknessFeatureAdj",
              "type": "uint32"
            }
          ],
          "internalType": "struct IBossMonster.MonsterAdj",
          "name": "monsterAdj",
          "type": "tuple"
        }
      ],
      "name": "setMonsterAdj",
      "outputs": [],
      "stateMutability": "nonpayable",
      "type": "function"
    },
    {
      "inputs": [
        {
          "internalType": "string",
          "name": "eventKey",
          "type": "string"
        },
        {
          "internalType": "uint256",
          "name": "bbeId",
          "type": "uint256"
        },
        {
          "internalType": "address",
          "name": "resurrectionPrompt",
          "type": "address"
        },
        {
          "internalType": "uint32",
          "name": "monsterAdj",
          "type": "uint32"
        },
        {
          "internalType": "uint32",
          "name": "bossSign",
          "type": "uint32"
        }
      ],
      "name": "startBossBattle",
      "outputs": [],
      "stateMutability": "nonpayable",
      "type": "function"
    },
    {
      "inputs": [
        {
          "internalType": "bytes4",
          "name": "interfaceId",
          "type": "bytes4"
        }
      ],
      "name": "supportsInterface",
      "outputs": [
        {
          "internalType": "bool",
          "name": "",
          "type": "bool"
        }
      ],
      "stateMutability": "view",
      "type": "function"
    },
    {
      "inputs": [
        {
          "internalType": "string",
          "name": "eventKey",
          "type": "string"
        },
        {
          "internalType": "uint256",
          "name": "bbeId",
          "type": "uint256"
        },
        {
          "internalType": "address",
          "name": "resurrectionPrompt",
          "type": "address"
        },
        {
          "components": [
            {
              "internalType": "bool",
              "name": "bossBattleStarted",
              "type": "bool"
            },
            {
              "internalType": "bool",
              "name": "bossBattleContinued",
              "type": "bool"
            },
            {
              "internalType": "uint32",
              "name": "lp",
              "type": "uint32"
            },
            {
              "internalType": "uint32",
              "name": "turn",
              "type": "uint32"
            },
            {
              "internalType": "uint32",
              "name": "score",
              "type": "uint32"
            },
            {
              "internalType": "uint32",
              "name": "monsterAdj",
              "type": "uint32"
            },
            {
              "internalType": "uint32",
              "name": "bossAdj",
              "type": "uint32"
            },
            {
              "internalType": "uint32",
              "name": "bossSign",
              "type": "uint32"
            },
            {
              "internalType": "bool",
              "name": "hasHealItem",
              "type": "bool"
            },
            {
              "internalType": "bool",
              "name": "hasBuffItem",
              "type": "bool"
            },
            {
              "internalType": "bool",
              "name": "hasDebuffItem",
              "type": "bool"
            },
            {
              "internalType": "bool",
              "name": "hasEscapeItem",
              "type": "bool"
            }
          ],
          "internalType": "struct IBossBattleEvent.BBState",
          "name": "bbState",
          "type": "tuple"
        }
      ],
      "name": "updateBossBattleResult",
      "outputs": [],
      "stateMutability": "nonpayable",
      "type": "function"
    },
    {
      "inputs": [
        {
          "internalType": "address",
          "name": "newImplementation",
          "type": "address"
        }
      ],
      "name": "upgradeTo",
      "outputs": [],
      "stateMutability": "nonpayable",
      "type": "function"
    },
    {
      "inputs": [
        {
          "internalType": "address",
          "name": "newImplementation",
          "type": "address"
        },
        {
          "internalType": "bytes",
          "name": "data",
          "type": "bytes"
        }
      ],
      "name": "upgradeToAndCall",
      "outputs": [],
      "stateMutability": "payable",
      "type": "function"
    }
  ],
  "bytecode": "0x60a0604052306080523480156200001557600080fd5b506200002062000026565b620000e8565b600054610100900460ff1615620000935760405162461bcd60e51b815260206004820152602760248201527f496e697469616c697a61626c653a20636f6e747261637420697320696e697469604482015266616c697a696e6760c81b606482015260840160405180910390fd5b60005460ff9081161015620000e6576000805460ff191660ff9081179091556040519081527f7f26b83ff96e1f2b6a682f133852f6798a09c465da95921460cefb38474024989060200160405180910390a15b565b6080516138ca62000120600039600081816107c10152818161080101528181610951015281816109910152610a2001526138ca6000f3fe6080604052600436106101c25760003560e01c806365f0c7a7116100f75780639919194011610095578063ca15c87311610064578063ca15c87314610546578063d547741f14610566578063ed3f789414610586578063edf15d8e146105a657600080fd5b806399191940146104bc5780639f7011c0146104dc578063a217fddf14610511578063bef360901461052657600080fd5b80638129fc1c116100d15780638129fc1c1461042f578063900abe7e146104445780639010d07c1461046457806391d148541461049c57600080fd5b806365f0c7a7146103cd5780637ab65e58146103ef5780637e90a18f1461040f57600080fd5b80634f1ef286116101645780635773c7e01161013e5780635773c7e0146103265780635a71c0a0146103535780635b00449d1461038057806361b61cbe146103ad57600080fd5b80634f1ef286146102de57806352d1902d146102f157806356e210fc1461030657600080fd5b80632f2ff15d116101a05780632f2ff15d1461025c57806336568abe1461027e5780633659cfe61461029e5780633947b364146102be57600080fd5b806301ffc9a7146101c75780631f99342a146101fc578063248a9ca31461021e575b600080fd5b3480156101d357600080fd5b506101e76101e23660046123c3565b6105c6565b60405190151581526020015b60405180910390f35b34801561020857600080fd5b506102116105f1565b6040516101f391906123ed565b34801561022a57600080fd5b5061024e610239366004612480565b60009081526065602052604090206001015490565b6040519081526020016101f3565b34801561026857600080fd5b5061027c6102773660046124ae565b61070a565b005b34801561028a57600080fd5b5061027c6102993660046124ae565b610734565b3480156102aa57600080fd5b5061027c6102b93660046124de565b6107b7565b3480156102ca57600080fd5b5061027c6102d936600461266f565b610896565b61027c6102ec3660046127c0565b610947565b3480156102fd57600080fd5b5061024e610a13565b34801561031257600080fd5b5061027c610321366004612823565b610ac6565b34801561033257600080fd5b5061034661034136600461288e565b610b4a565b6040516101f391906129cc565b34801561035f57600080fd5b5061037361036e3660046129db565b610c58565b6040516101f39190612b2d565b34801561038c57600080fd5b506103a061039b366004612cb3565b610de4565b6040516101f39190612d7f565b3480156103b957600080fd5b5061027c6103c836600461288e565b610e94565b3480156103d957600080fd5b506103e2611068565b6040516101f39190612d92565b3480156103fb57600080fd5b5061027c61040a366004612da5565b611142565b34801561041b57600080fd5b5061027c61042a36600461288e565b611268565b34801561043b57600080fd5b5061027c611314565b34801561045057600080fd5b5061027c61045f366004612e2e565b611468565b34801561047057600080fd5b5061048461047f366004612eae565b6114f4565b6040516001600160a01b0390911681526020016101f3565b3480156104a857600080fd5b506101e76104b73660046124ae565b611513565b3480156104c857600080fd5b5061027c6104d736600461288e565b61153e565b3480156104e857600080fd5b506104fc6104f736600461288e565b6115b6565b604051905163ffffffff1681526020016101f3565b34801561051d57600080fd5b5061024e600081565b34801561053257600080fd5b5061027c610541366004612ed0565b6116d7565b34801561055257600080fd5b5061024e610561366004612480565b611866565b34801561057257600080fd5b5061027c6105813660046124ae565b61187d565b34801561059257600080fd5b5061027c6105a1366004612f0c565b6118a2565b3480156105b257600080fd5b5061027c6105c1366004612f40565b611934565b60006001600160e01b03198216635a05180f60e01b14806105eb57506105eb82611a93565b92915050565b61012e54606090806001600160401b03811115610610576106106124fb565b60405190808252806020026020018201604052801561064357816020015b606081526020019060019003908161062e5790505b50915060005b818110156107055761012f61012e828154811061066857610668612f86565b9060005260206000200160405161067f9190612fd6565b90815260408051918290036020908101832080548083028501830190935282845291908301828280156106db57602002820191906000526020600020905b81546001600160a01b031681526001909101906020018083116106bd575b50505050508382815181106106f2576106f2612f86565b6020908102919091010152600101610649565b505090565b60008281526065602052604090206001015461072581611ac8565b61072f8383611ad2565b505050565b6001600160a01b03811633146107a95760405162461bcd60e51b815260206004820152602f60248201527f416363657373436f6e74726f6c3a2063616e206f6e6c792072656e6f756e636560448201526e103937b632b9903337b91039b2b63360891b60648201526084015b60405180910390fd5b6107b38282611af4565b5050565b6001600160a01b037f00000000000000000000000000000000000000000000000000000000000000001630036107ff5760405162461bcd60e51b81526004016107a09061304c565b7f00000000000000000000000000000000000000000000000000000000000000006001600160a01b031661084860008051602061384e833981519152546001600160a01b031690565b6001600160a01b03161461086e5760405162461bcd60e51b81526004016107a090613098565b61087781611b16565b6040805160008082526020820190925261089391839190611b21565b50565b61012d546108a381611ac8565b61012f856040516108b491906130e4565b908152602001604051809103902084815481106108d3576108d3612f86565b60009182526020909120015460405163dd0b136560e01b81526001600160a01b039091169063dd0b13659061090e9086908690600401613100565b600060405180830381600087803b15801561092857600080fd5b505af115801561093c573d6000803e3d6000fd5b505050505050505050565b6001600160a01b037f000000000000000000000000000000000000000000000000000000000000000016300361098f5760405162461bcd60e51b81526004016107a09061304c565b7f00000000000000000000000000000000000000000000000000000000000000006001600160a01b03166109d860008051602061384e833981519152546001600160a01b031690565b6001600160a01b0316146109fe5760405162461bcd60e51b81526004016107a090613098565b610a0782611b16565b6107b382826001611b21565b6000306001600160a01b037f00000000000000000000000000000000000000000000000000000000000000001614610ab35760405162461bcd60e51b815260206004820152603860248201527f555550535570677261646561626c653a206d757374206e6f742062652063616c60448201527f6c6564207468726f7567682064656c656761746563616c6c000000000000000060648201526084016107a0565b5060008051602061384e83398151915290565b61012d54610ad381611ac8565b61012f85604051610ae491906130e4565b90815260200160405180910390208481548110610b0357610b03612f86565b600091825260209091200154604051631d45f7ad60e01b81526001600160a01b03858116600483015263ffffffff8516602483015290911690631d45f7ad9060440161090e565b6040805161018081018252600080825260208201819052818301819052606082018190526080820181905260a0820181905260c0820181905260e08201819052610100820181905261012082018190526101408201819052610160820152905161012f90610bb99086906130e4565b90815260200160405180910390208381548110610bd857610bd8612f86565b60009182526020909120015460405163cba5b27f60e01b81526001600160a01b0384811660048301529091169063cba5b27f9060240161018060405180830381865afa158015610c2c573d6000803e3d6000fd5b505050506040513d601f19601f82011682018060405250810190610c509190613134565b949350505050565b604080516101a08101825260608082526020820181905291810182905281810182905260006080820181905260a0820181905260c0820181905260e08201819052610100820181905261012082018190526101408201819052610160820192909252610180810191909152600061012f85604051610cd691906130e4565b90815260200160405180910390208481548110610cf557610cf5612f86565b60009182526020918290200154604080516339039e5160e11b815290516001600160a01b03909216926372073ca2926004808401938290030181865afa158015610d43573d6000803e3d6000fd5b505050506040513d601f19601f82011682018060405250810190610d679190613220565b604051631c0257b760e31b81529091506001600160a01b0382169063e012bdb890610d9690869060040161323d565b600060405180830381865afa158015610db3573d6000803e3d6000fd5b505050506040513d6000823e601f3d908101601f19168201604052610ddb919081019061338e565b95945050505050565b606061012f84604051610df791906130e4565b90815260200160405180910390208381548110610e1657610e16612f86565b60009182526020909120015460405163c24cf1ad60e01b81526001600160a01b039091169063c24cf1ad90610e4f90859060040161351d565b600060405180830381865afa158015610e6c573d6000803e3d6000fd5b505050506040513d6000823e601f3d908101601f19168201604052610c50919081019061356a565b6000610e9f81611ac8565b6000805b61012e54811015610f2f5785604051602001610ebf91906130e4565b6040516020818303038152906040528051906020012061012e8281548110610ee957610ee9612f86565b90600052602060002001604051602001610f039190612fd6565b6040516020818303038152906040528051906020012003610f275760019150610f2f565b600101610ea3565b5080610f4d5760405162461bcd60e51b81526004016107a09061359e565b600061012f86604051610f6091906130e4565b90815260200160405180910390208581548110610f7f57610f7f612f86565b6000918252602090912001546040516001600160a01b039091169150849061012f90610fac9089906130e4565b90815260200160405180910390208681548110610fcb57610fcb612f86565b9060005260206000200160006101000a8154816001600160a01b0302191690836001600160a01b03160217905550848660405161100891906130e4565b60405180910390206110173390565b604080516001600160a01b038681168252898116602083015292909216917fe774dfc733f69ed65d53e05f8317857e23f69dac471a74eb0a6b0db023423727910160405180910390a4505050505050565b606061012e805480602002602001604051908101604052809291908181526020016000905b828210156111395783829060005260206000200180546110ac90612f9c565b80601f01602080910402602001604051908101604052809291908181526020018280546110d890612f9c565b80156111255780601f106110fa57610100808354040283529160200191611125565b820191906000526020600020905b81548152906001019060200180831161110857829003601f168201915b50505050508152602001906001019061108d565b50505050905090565b61012d5461114f81611ac8565b600061012f8660405161116291906130e4565b9081526020016040518091039020858154811061118157611181612f86565b60009182526020918290200154604080516339039e5160e11b815290516001600160a01b03909216926372073ca2926004808401938290030181865afa1580156111cf573d6000803e3d6000fd5b505050506040513d601f19601f820116820180604052508101906111f39190613220565b604051630b111f5160e01b81526001600160a01b038681166004830152855163ffffffff16602483015291925090821690630b111f51906044015b600060405180830381600087803b15801561124857600080fd5b505af115801561125c573d6000803e3d6000fd5b50505050505050505050565b61012d5461127581611ac8565b61012f8460405161128691906130e4565b908152602001604051809103902083815481106112a5576112a5612f86565b6000918252602090912001546040516322f5ff6560e21b81526001600160a01b03848116600483015290911690638bd7fd94906024015b600060405180830381600087803b1580156112f657600080fd5b505af115801561130a573d6000803e3d6000fd5b5050505050505050565b600054610100900460ff16158080156113345750600054600160ff909116105b8061134e5750303b15801561134e575060005460ff166001145b6113b15760405162461bcd60e51b815260206004820152602e60248201527f496e697469616c697a61626c653a20636f6e747261637420697320616c72656160448201526d191e481a5b9a5d1a585b1a5e995960921b60648201526084016107a0565b6000805460ff1916600117905580156113d4576000805461ff0019166101001790555b6113dc611c8c565b6113e4611c8c565b7f6a64baf327d646d1bca72653e2a075d15fd6ac6d8cbd7f6ee03fc55875e0fa8861012d8190556114159033611ad2565b611420600033611ad2565b8015610893576000805461ff0019169055604051600181527f7f26b83ff96e1f2b6a682f133852f6798a09c465da95921460cefb38474024989060200160405180910390a150565b61012d5461147581611ac8565b61012f8660405161148691906130e4565b908152602001604051809103902085815481106114a5576114a5612f86565b60009182526020909120015460405163012a6f4d60e71b81526001600160a01b03868116600483015263ffffffff80871660248401528516604483015290911690639537a6809060640161122e565b600082815260976020526040812061150c9083611cf9565b9392505050565b60009182526065602090815260408084206001600160a01b0393909316845291905290205460ff1690565b61012d5461154b81611ac8565b61012f8460405161155c91906130e4565b9081526020016040518091039020838154811061157b5761157b612f86565b60009182526020909120015460405163a973063760e01b81526001600160a01b0384811660048301529091169063a9730637906024016112dc565b604080516020810190915260008152600061012f856040516115d891906130e4565b908152602001604051809103902084815481106115f7576115f7612f86565b60009182526020918290200154604080516339039e5160e11b815290516001600160a01b03909216926372073ca2926004808401938290030181865afa158015611645573d6000803e3d6000fd5b505050506040513d601f19601f820116820180604052508101906116699190613220565b6040516351a0937360e11b81526001600160a01b0385811660048301529192509082169063a34126e690602401602060405180830381865afa1580156116b3573d6000803e3d6000fd5b505050506040513d601f19601f82011682018060405250810190610ddb91906135df565b60006116e281611ac8565b61012e5483106117455760405162461bcd60e51b815260206004820152602860248201527f426f73734d6f6e737465724d6368596f73686b613a20696e646578206f7574206044820152676f662072616e676560c01b60648201526084016107a0565b600061012e848154811061175b5761175b612f86565b90600052602060002001805461177090612f9c565b80601f016020809104026020016040519081016040528092919081815260200182805461179c90612f9c565b80156117e95780601f106117be576101008083540402835291602001916117e9565b820191906000526020600020905b8154815290600101906020018083116117cc57829003601f168201915b505050505090508261012e858154811061180557611805612f86565b90600052602060002001908161181b919061365b565b5083336001600160a01b03167f0c92640316bbae8777912dd020b5126932ceaf5e11365ff9f39b00b7d85f1bf7838660405161185892919061371a565b60405180910390a350505050565b60008181526097602052604081206105eb90611d05565b60008281526065602052604090206001015461189881611ac8565b61072f8383611af4565b60006118ad81611ac8565b61012e80546001810182556000919091527fbdaadd9f750d0166045bf387a364eadd28ba243e04512a47282aa5147a68e37f016118ea838261365b565b5061012e54336001600160a01b03167fd62d9ab078db064bcb3b59ad6ec83e606cdce516856735276bb0f1644e23446e84604051611928919061323d565b60405180910390a35050565b600061193f81611ac8565b6000805b61012e548110156119cf578460405160200161195f91906130e4565b6040516020818303038152906040528051906020012061012e828154811061198957611989612f86565b906000526020600020016040516020016119a39190612fd6565b60405160208183030381529060405280519060200120036119c757600191506119cf565b600101611943565b50806119ed5760405162461bcd60e51b81526004016107a09061359e565b61012f846040516119fe91906130e4565b908152604051602091819003820181208054600181018255600091825292902090910180546001600160a01b0319166001600160a01b038616179055611a459085906130e4565b6040518091039020611a543390565b6040516001600160a01b03868116825291909116907fe2c91415f76c1202a15ba5a3efec6a6f1c69f4a36cf527cc3bd72a5c95f1ae8d90602001611858565b60006001600160e01b03198216637965db0b60e01b14806105eb57506301ffc9a760e01b6001600160e01b03198316146105eb565b6108938133611d0f565b611adc8282611d68565b600082815260976020526040902061072f9082611dee565b611afe8282611e03565b600082815260976020526040902061072f9082611e6a565b60006107b381611ac8565b7f4910fdfa16fed3260ed0e7147f7cc6da11a60208b5b9406d12a635614ffd91435460ff1615611b545761072f83611e7f565b826001600160a01b03166352d1902d6040518163ffffffff1660e01b8152600401602060405180830381865afa925050508015611bae575060408051601f3d908101601f19168201909252611bab9181019061373f565b60015b611c115760405162461bcd60e51b815260206004820152602e60248201527f45524331393637557067726164653a206e657720696d706c656d656e7461746960448201526d6f6e206973206e6f74205555505360901b60648201526084016107a0565b60008051602061384e8339815191528114611c805760405162461bcd60e51b815260206004820152602960248201527f45524331393637557067726164653a20756e737570706f727465642070726f786044820152681a58589b195555525160ba1b60648201526084016107a0565b5061072f838383611f1b565b600054610100900460ff16611cf75760405162461bcd60e51b815260206004820152602b60248201527f496e697469616c697a61626c653a20636f6e7472616374206973206e6f74206960448201526a6e697469616c697a696e6760a81b60648201526084016107a0565b565b600061150c8383611f46565b60006105eb825490565b611d198282611513565b6107b357611d2681611f70565b611d31836020611f82565b604051602001611d42929190613758565b60408051601f198184030181529082905262461bcd60e51b82526107a09160040161323d565b611d728282611513565b6107b35760008281526065602090815260408083206001600160a01b03851684529091529020805460ff19166001179055611daa3390565b6001600160a01b0316816001600160a01b0316837f2f8788117e7eff1d82e926ec794901d17c78024a50270940304540a733656f0d60405160405180910390a45050565b600061150c836001600160a01b03841661211d565b611e0d8282611513565b156107b35760008281526065602090815260408083206001600160a01b0385168085529252808320805460ff1916905551339285917ff6391f5c32d9c69d2a47ea670b442974b53935d1edc7fd64eb21e047a839171b9190a45050565b600061150c836001600160a01b03841661216c565b6001600160a01b0381163b611eec5760405162461bcd60e51b815260206004820152602d60248201527f455243313936373a206e657720696d706c656d656e746174696f6e206973206e60448201526c1bdd08184818dbdb9d1c9858dd609a1b60648201526084016107a0565b60008051602061384e83398151915280546001600160a01b0319166001600160a01b0392909216919091179055565b611f248361225f565b600082511180611f315750805b1561072f57611f40838361229f565b50505050565b6000826000018281548110611f5d57611f5d612f86565b9060005260206000200154905092915050565b60606105eb6001600160a01b03831660145b60606000611f918360026137e3565b611f9c9060026137fa565b6001600160401b03811115611fb357611fb36124fb565b6040519080825280601f01601f191660200182016040528015611fdd576020820181803683370190505b509050600360fc1b81600081518110611ff857611ff8612f86565b60200101906001600160f81b031916908160001a905350600f60fb1b8160018151811061202757612027612f86565b60200101906001600160f81b031916908160001a905350600061204b8460026137e3565b6120569060016137fa565b90505b60018111156120ce576f181899199a1a9b1b9c1cb0b131b232b360811b85600f166010811061208a5761208a612f86565b1a60f81b8282815181106120a0576120a0612f86565b60200101906001600160f81b031916908160001a90535060049490941c936120c78161380d565b9050612059565b50831561150c5760405162461bcd60e51b815260206004820181905260248201527f537472696e67733a20686578206c656e67746820696e73756666696369656e7460448201526064016107a0565b6000818152600183016020526040812054612164575081546001818101845560008481526020808220909301849055845484825282860190935260409020919091556105eb565b5060006105eb565b60008181526001830160205260408120548015612255576000612190600183613824565b85549091506000906121a490600190613824565b90508181146122095760008660000182815481106121c4576121c4612f86565b90600052602060002001549050808760000184815481106121e7576121e7612f86565b6000918252602080832090910192909255918252600188019052604090208390555b855486908061221a5761221a613837565b6001900381819060005260206000200160009055905585600101600086815260200190815260200160002060009055600193505050506105eb565b60009150506105eb565b61226881611e7f565b6040516001600160a01b038216907fbc7cd75a20ee27fd9adebab32041f755214dbc6bffa90cc0225b39da2e5c2d3b90600090a250565b60606001600160a01b0383163b6123075760405162461bcd60e51b815260206004820152602660248201527f416464726573733a2064656c65676174652063616c6c20746f206e6f6e2d636f6044820152651b9d1c9858dd60d21b60648201526084016107a0565b600080846001600160a01b03168460405161232291906130e4565b600060405180830381855af49150503d806000811461235d576040519150601f19603f3d011682016040523d82523d6000602084013e612362565b606091505b5091509150610ddb828260405180606001604052806027815260200161386e602791396060831561239457508161150c565b61150c83838151156123a95781518083602001fd5b8060405162461bcd60e51b81526004016107a0919061323d565b6000602082840312156123d557600080fd5b81356001600160e01b03198116811461150c57600080fd5b6000602080830181845280855180835260408601915060408160051b87010192508387016000805b8381101561247257888603603f19018552825180518088529088019088880190845b8181101561245c5783516001600160a01b03168352928a0192918a0191600101612437565b5090975050509386019391860191600101612415565b509398975050505050505050565b60006020828403121561249257600080fd5b5035919050565b6001600160a01b038116811461089357600080fd5b600080604083850312156124c157600080fd5b8235915060208301356124d381612499565b809150509250929050565b6000602082840312156124f057600080fd5b813561150c81612499565b634e487b7160e01b600052604160045260246000fd5b60405161018081016001600160401b0381118282101715612534576125346124fb565b60405290565b604051602081016001600160401b0381118282101715612534576125346124fb565b6040516101a081016001600160401b0381118282101715612534576125346124fb565b604051601f8201601f191681016001600160401b03811182821017156125a7576125a76124fb565b604052919050565b60006001600160401b038211156125c8576125c86124fb565b50601f01601f191660200190565b60006125e96125e4846125af565b61257f565b90508281528383830111156125fd57600080fd5b828260208301376000602084830101529392505050565b600082601f83011261262557600080fd5b61150c838335602085016125d6565b801515811461089357600080fd5b803561264d81612634565b919050565b63ffffffff8116811461089357600080fd5b803561264d81612652565b6000806000808486036101e081121561268757600080fd5b85356001600160401b0381111561269d57600080fd5b6126a988828901612614565b9550506020860135935060408601356126c181612499565b9250610180605f1982018113156126d757600080fd5b6126df612511565b91506126ed60608801612642565b82526126fb60808801612642565b602083015261270c60a08801612664565b604083015261271d60c08801612664565b606083015261272e60e08801612664565b6080830152610100612741818901612664565b60a0840152610120612754818a01612664565b60c0850152610140612767818b01612664565b60e086015261016061277a818c01612642565b84870152612789858c01612642565b8387015261279a6101a08c01612642565b828701526127ab6101c08c01612642565b90860152509699959850939650909450505050565b600080604083850312156127d357600080fd5b82356127de81612499565b915060208301356001600160401b038111156127f957600080fd5b8301601f8101851361280a57600080fd5b612819858235602084016125d6565b9150509250929050565b6000806000806080858703121561283957600080fd5b84356001600160401b0381111561284f57600080fd5b61285b87828801612614565b94505060208501359250604085013561287381612499565b9150606085013561288381612652565b939692955090935050565b6000806000606084860312156128a357600080fd5b83356001600160401b038111156128b957600080fd5b6128c586828701612614565b9350506020840135915060408401356128dd81612499565b809150509250925092565b8051151582526020810151612901602084018215159052565b506040810151612919604084018263ffffffff169052565b506060810151612931606084018263ffffffff169052565b506080810151612949608084018263ffffffff169052565b5060a081015161296160a084018263ffffffff169052565b5060c081015161297960c084018263ffffffff169052565b5060e081015161299160e084018263ffffffff169052565b506101008181015115159083015261012080820151151590830152610140808201511515908301526101608082015180151582850152611f40565b61018081016105eb82846128e8565b6000806000606084860312156129f057600080fd5b83356001600160401b0380821115612a0757600080fd5b612a1387838801612614565b9450602086013593506040860135915080821115612a3057600080fd5b50612a3d86828701612614565b9150509250925092565b60005b83811015612a62578181015183820152602001612a4a565b50506000910152565b60008151808452612a83816020860160208601612a47565b601f01601f19169290920160200192915050565b600081518084526020808501808196508360051b8101915082860160005b85811015612adf578284038952612acd848351612a6b565b98850198935090840190600101612ab5565b5091979650505050505050565b600081518084526020808501945080840160005b83811015612b2257815163ffffffff1687529582019590820190600101612b00565b509495945050505050565b60208152600082516101a0806020850152612b4c6101c0850183612a6b565b91506020850151601f1980868503016040870152612b6a8483612a6b565b93506040870151915080868503016060870152612b878483612a6b565b93506060870151915080868503016080870152612ba48483612a97565b935060808701519150612bbf60a087018363ffffffff169052565b60a087015163ffffffff811660c0880152915060c087015163ffffffff811660e0880152915060e08701519150610100612c008188018463ffffffff169052565b8701519150610120612c198782018463ffffffff169052565b8701519150610140612c328782018463ffffffff169052565b8701519150610160612c4b8782018463ffffffff169052565b80880151925050610180818786030181880152612c688584612aec565b94508088015192505050612c86828601826001600160a01b03169052565b5090949350505050565b60006001600160401b03821115612ca957612ca96124fb565b5060051b60200190565b600080600060608486031215612cc857600080fd5b83356001600160401b0380821115612cdf57600080fd5b612ceb87838801612614565b945060209150818601359350604086013581811115612d0957600080fd5b86019050601f81018713612d1c57600080fd5b8035612d2a6125e482612c90565b81815260059190911b82018301908381019089831115612d4957600080fd5b928401925b82841015612d70578335612d6181612499565b82529284019290840190612d4e565b80955050505050509250925092565b60208152600061150c6020830184612aec565b60208152600061150c6020830184612a97565b6000806000808486036080811215612dbc57600080fd5b85356001600160401b03811115612dd257600080fd5b612dde88828901612614565b955050602086013593506040860135612df681612499565b92506020605f1982011215612e0a57600080fd5b50612e1361253a565b6060860135612e2181612652565b8152939692955090935050565b600080600080600060a08688031215612e4657600080fd5b85356001600160401b03811115612e5c57600080fd5b612e6888828901612614565b955050602086013593506040860135612e8081612499565b92506060860135612e9081612652565b91506080860135612ea081612652565b809150509295509295909350565b60008060408385031215612ec157600080fd5b50508035926020909101359150565b60008060408385031215612ee357600080fd5b8235915060208301356001600160401b03811115612f0057600080fd5b61281985828601612614565b600060208284031215612f1e57600080fd5b81356001600160401b03811115612f3457600080fd5b610c5084828501612614565b60008060408385031215612f5357600080fd5b82356001600160401b03811115612f6957600080fd5b612f7585828601612614565b92505060208301356124d381612499565b634e487b7160e01b600052603260045260246000fd5b600181811c90821680612fb057607f821691505b602082108103612fd057634e487b7160e01b600052602260045260246000fd5b50919050565b6000808354612fe481612f9c565b60018281168015612ffc576001811461301157613040565b60ff1984168752821515830287019450613040565b8760005260208060002060005b858110156130375781548a82015290840190820161301e565b50505082870194505b50929695505050505050565b6020808252602c908201527f46756e6374696f6e206d7573742062652063616c6c6564207468726f7567682060408201526b19195b1959d85d1958d85b1b60a21b606082015260800190565b6020808252602c908201527f46756e6374696f6e206d7573742062652063616c6c6564207468726f7567682060408201526b6163746976652070726f787960a01b606082015260800190565b600082516130f6818460208701612a47565b9190910192915050565b6001600160a01b03831681526101a0810161150c60208301846128e8565b805161264d81612634565b805161264d81612652565b6000610180828403121561314757600080fd5b61314f612511565b6131588361311e565b81526131666020840161311e565b602082015261317760408401613129565b604082015261318860608401613129565b606082015261319960808401613129565b60808201526131aa60a08401613129565b60a08201526131bb60c08401613129565b60c08201526131cc60e08401613129565b60e08201526101006131df81850161311e565b908201526101206131f184820161311e565b9082015261014061320384820161311e565b9082015261016061321584820161311e565b908201529392505050565b60006020828403121561323257600080fd5b815161150c81612499565b60208152600061150c6020830184612a6b565b600082601f83011261326157600080fd5b815161326f6125e4826125af565b81815284602083860101111561328457600080fd5b610c50826020830160208701612a47565b600082601f8301126132a657600080fd5b815160206132b66125e483612c90565b82815260059290921b840181019181810190868411156132d557600080fd5b8286015b848110156133145780516001600160401b038111156132f85760008081fd5b6133068986838b0101613250565b8452509183019183016132d9565b509695505050505050565b600082601f83011261333057600080fd5b815160206133406125e483612c90565b82815260059290921b8401810191818101908684111561335f57600080fd5b8286015b8481101561331457805161337681612652565b8352918301918301613363565b805161264d81612499565b6000602082840312156133a057600080fd5b81516001600160401b03808211156133b757600080fd5b908301906101a082860312156133cc57600080fd5b6133d461255c565b8251828111156133e357600080fd5b6133ef87828601613250565b82525060208301518281111561340457600080fd5b61341087828601613250565b60208301525060408301518281111561342857600080fd5b61343487828601613250565b60408301525060608301518281111561344c57600080fd5b61345887828601613295565b60608301525061346a60808401613129565b608082015261347b60a08401613129565b60a082015261348c60c08401613129565b60c082015261349d60e08401613129565b60e08201526101006134b0818501613129565b908201526101206134c2848201613129565b908201526101406134d4848201613129565b9082015261016083810151838111156134ec57600080fd5b6134f88882870161331f565b828401525050610180915061350e828401613383565b91810191909152949350505050565b6020808252825182820181905260009190848201906040850190845b8181101561355e5783516001600160a01b031683529284019291840191600101613539565b50909695505050505050565b60006020828403121561357c57600080fd5b81516001600160401b0381111561359257600080fd5b610c508482850161331f565b60208082526021908201527f426f7373426174746c653a206576656e744b6579206e6f7420696e636c7564656040820152601960fa1b606082015260800190565b6000602082840312156135f157600080fd5b6135f961253a565b825161360481612652565b81529392505050565b601f82111561072f57600081815260208120601f850160051c810160208610156136345750805b601f850160051c820191505b8181101561365357828155600101613640565b505050505050565b81516001600160401b03811115613674576136746124fb565b613688816136828454612f9c565b8461360d565b602080601f8311600181146136bd57600084156136a55750858301515b600019600386901b1c1916600185901b178555613653565b600085815260208120601f198616915b828110156136ec578886015182559484019460019091019084016136cd565b508582101561370a5787850151600019600388901b60f8161c191681555b5050505050600190811b01905550565b60408152600061372d6040830185612a6b565b8281036020840152610ddb8185612a6b565b60006020828403121561375157600080fd5b5051919050565b7f416363657373436f6e74726f6c3a206163636f756e7420000000000000000000815260008351613790816017850160208801612a47565b7001034b99036b4b9b9b4b733903937b6329607d1b60179184019182015283516137c1816028840160208801612a47565b01602801949350505050565b634e487b7160e01b600052601160045260246000fd5b80820281158282048414176105eb576105eb6137cd565b808201808211156105eb576105eb6137cd565b60008161381c5761381c6137cd565b506000190190565b818103818111156105eb576105eb6137cd565b634e487b7160e01b600052603160045260246000fdfe360894a13ba1a3210667c828492db98dca3e2076cc3735a920a3ca505d382bbc416464726573733a206c6f772d6c6576656c2064656c65676174652063616c6c206661696c6564a2646970667358221220d66d6cb9a4c8bfd1fd63f409de912d5f16978c297a3dfc0695339e378b89393064736f6c63430008120033",
  "linkReferences": {},
  "deployedLinkReferences": {}
}