{
  "_format": "hh-sol-artifact-1",
  "contractName": "PromptMonsters",
  "sourceName": "contracts/prompt-monsters/PromptMonsters.sol",
  "abi": [
    {
      "inputs": [],
      "stateMutability": "nonpayable",
      "type": "constructor"
    },
    {
      "anonymous": false,
      "inputs": [
        {
          "indexed": false,
          "internalType": "address",
          "name": "previousAdmin",
          "type": "address"
        },
        {
          "indexed": false,
          "internalType": "address",
          "name": "newAdmin",
          "type": "address"
        }
      ],
      "name": "AdminChanged",
      "type": "event"
    },
    {
      "anonymous": false,
      "inputs": [
        {
          "indexed": true,
          "internalType": "address",
          "name": "owner",
          "type": "address"
        },
        {
          "indexed": true,
          "internalType": "address",
          "name": "approved",
          "type": "address"
        },
        {
          "indexed": true,
          "internalType": "uint256",
          "name": "tokenId",
          "type": "uint256"
        }
      ],
      "name": "Approval",
      "type": "event"
    },
    {
      "anonymous": false,
      "inputs": [
        {
          "indexed": true,
          "internalType": "address",
          "name": "owner",
          "type": "address"
        },
        {
          "indexed": true,
          "internalType": "address",
          "name": "operator",
          "type": "address"
        },
        {
          "indexed": false,
          "internalType": "bool",
          "name": "approved",
          "type": "bool"
        }
      ],
      "name": "ApprovalForAll",
      "type": "event"
    },
    {
      "anonymous": false,
      "inputs": [
        {
          "indexed": true,
          "internalType": "address",
          "name": "beacon",
          "type": "address"
        }
      ],
      "name": "BeaconUpgraded",
      "type": "event"
    },
    {
      "anonymous": false,
      "inputs": [
        {
          "components": [
            {
              "internalType": "string",
              "name": "feature",
              "type": "string"
            },
            {
              "internalType": "string",
              "name": "name",
              "type": "string"
            },
            {
              "internalType": "string",
              "name": "flavor",
              "type": "string"
            },
            {
              "internalType": "string[]",
              "name": "skills",
              "type": "string[]"
            },
            {
              "internalType": "uint32",
              "name": "lv",
              "type": "uint32"
            },
            {
              "internalType": "uint32",
              "name": "hp",
              "type": "uint32"
            },
            {
              "internalType": "uint32",
              "name": "atk",
              "type": "uint32"
            },
            {
              "internalType": "uint32",
              "name": "def",
              "type": "uint32"
            },
            {
              "internalType": "uint32",
              "name": "inte",
              "type": "uint32"
            },
            {
              "internalType": "uint32",
              "name": "mgr",
              "type": "uint32"
            },
            {
              "internalType": "uint32",
              "name": "agl",
              "type": "uint32"
            }
          ],
          "indexed": false,
          "internalType": "struct IPromptMonsters.Monster",
          "name": "monster",
          "type": "tuple"
        }
      ],
      "name": "GenerateMonster",
      "type": "event"
    },
    {
      "anonymous": false,
      "inputs": [
        {
          "indexed": false,
          "internalType": "uint8",
          "name": "version",
          "type": "uint8"
        }
      ],
      "name": "Initialized",
      "type": "event"
    },
    {
      "anonymous": false,
      "inputs": [
        {
          "indexed": true,
          "internalType": "address",
          "name": "tokenOwner",
          "type": "address"
        },
        {
          "indexed": true,
          "internalType": "uint256",
          "name": "newTokenId",
          "type": "uint256"
        },
        {
          "components": [
            {
              "internalType": "string",
              "name": "feature",
              "type": "string"
            },
            {
              "internalType": "string",
              "name": "name",
              "type": "string"
            },
            {
              "internalType": "string",
              "name": "flavor",
              "type": "string"
            },
            {
              "internalType": "string[]",
              "name": "skills",
              "type": "string[]"
            },
            {
              "internalType": "uint32",
              "name": "lv",
              "type": "uint32"
            },
            {
              "internalType": "uint32",
              "name": "hp",
              "type": "uint32"
            },
            {
              "internalType": "uint32",
              "name": "atk",
              "type": "uint32"
            },
            {
              "internalType": "uint32",
              "name": "def",
              "type": "uint32"
            },
            {
              "internalType": "uint32",
              "name": "inte",
              "type": "uint32"
            },
            {
              "internalType": "uint32",
              "name": "mgr",
              "type": "uint32"
            },
            {
              "internalType": "uint32",
              "name": "agl",
              "type": "uint32"
            }
          ],
          "indexed": false,
          "internalType": "struct IPromptMonsters.Monster",
          "name": "monster",
          "type": "tuple"
        }
      ],
      "name": "MintedMonster",
      "type": "event"
    },
    {
      "anonymous": false,
      "inputs": [
        {
          "indexed": false,
          "internalType": "address",
          "name": "account",
          "type": "address"
        }
      ],
      "name": "Paused",
      "type": "event"
    },
    {
      "anonymous": false,
      "inputs": [
        {
          "indexed": true,
          "internalType": "bytes32",
          "name": "role",
          "type": "bytes32"
        },
        {
          "indexed": true,
          "internalType": "bytes32",
          "name": "previousAdminRole",
          "type": "bytes32"
        },
        {
          "indexed": true,
          "internalType": "bytes32",
          "name": "newAdminRole",
          "type": "bytes32"
        }
      ],
      "name": "RoleAdminChanged",
      "type": "event"
    },
    {
      "anonymous": false,
      "inputs": [
        {
          "indexed": true,
          "internalType": "bytes32",
          "name": "role",
          "type": "bytes32"
        },
        {
          "indexed": true,
          "internalType": "address",
          "name": "account",
          "type": "address"
        },
        {
          "indexed": true,
          "internalType": "address",
          "name": "sender",
          "type": "address"
        }
      ],
      "name": "RoleGranted",
      "type": "event"
    },
    {
      "anonymous": false,
      "inputs": [
        {
          "indexed": true,
          "internalType": "bytes32",
          "name": "role",
          "type": "bytes32"
        },
        {
          "indexed": true,
          "internalType": "address",
          "name": "account",
          "type": "address"
        },
        {
          "indexed": true,
          "internalType": "address",
          "name": "sender",
          "type": "address"
        }
      ],
      "name": "RoleRevoked",
      "type": "event"
    },
    {
      "anonymous": false,
      "inputs": [
        {
          "indexed": true,
          "internalType": "address",
          "name": "publisher",
          "type": "address"
        },
        {
          "indexed": false,
          "internalType": "address",
          "name": "oldValue",
          "type": "address"
        },
        {
          "indexed": false,
          "internalType": "address",
          "name": "newValue",
          "type": "address"
        }
      ],
      "name": "SetErc20",
      "type": "event"
    },
    {
      "anonymous": false,
      "inputs": [
        {
          "indexed": true,
          "internalType": "address",
          "name": "publisher",
          "type": "address"
        },
        {
          "indexed": false,
          "internalType": "string",
          "name": "oldValue",
          "type": "string"
        },
        {
          "indexed": false,
          "internalType": "string",
          "name": "newValue",
          "type": "string"
        }
      ],
      "name": "SetExternalLink",
      "type": "event"
    },
    {
      "anonymous": false,
      "inputs": [
        {
          "indexed": true,
          "internalType": "address",
          "name": "publisher",
          "type": "address"
        },
        {
          "indexed": false,
          "internalType": "uint256",
          "name": "oldValue",
          "type": "uint256"
        },
        {
          "indexed": false,
          "internalType": "uint256",
          "name": "newValue",
          "type": "uint256"
        }
      ],
      "name": "SetMintPrice",
      "type": "event"
    },
    {
      "anonymous": false,
      "inputs": [
        {
          "indexed": true,
          "internalType": "address",
          "name": "publisher",
          "type": "address"
        },
        {
          "indexed": false,
          "internalType": "uint256",
          "name": "oldValue",
          "type": "uint256"
        },
        {
          "indexed": false,
          "internalType": "uint256",
          "name": "newValue",
          "type": "uint256"
        }
      ],
      "name": "SetOwnerToTokenId",
      "type": "event"
    },
    {
      "anonymous": false,
      "inputs": [
        {
          "indexed": true,
          "internalType": "address",
          "name": "publisher",
          "type": "address"
        },
        {
          "indexed": false,
          "internalType": "uint256",
          "name": "oldValue",
          "type": "uint256"
        },
        {
          "indexed": false,
          "internalType": "uint256",
          "name": "newValue",
          "type": "uint256"
        }
      ],
      "name": "SetOwnerToTokenIdIndex",
      "type": "event"
    },
    {
      "anonymous": false,
      "inputs": [
        {
          "indexed": true,
          "internalType": "address",
          "name": "publisher",
          "type": "address"
        },
        {
          "indexed": false,
          "internalType": "address",
          "name": "oldValue",
          "type": "address"
        },
        {
          "indexed": false,
          "internalType": "address",
          "name": "newValue",
          "type": "address"
        }
      ],
      "name": "SetPromptMonstersWallet",
      "type": "event"
    },
    {
      "anonymous": false,
      "inputs": [
        {
          "indexed": true,
          "internalType": "address",
          "name": "from",
          "type": "address"
        },
        {
          "indexed": true,
          "internalType": "address",
          "name": "to",
          "type": "address"
        },
        {
          "indexed": true,
          "internalType": "uint256",
          "name": "tokenId",
          "type": "uint256"
        }
      ],
      "name": "Transfer",
      "type": "event"
    },
    {
      "anonymous": false,
      "inputs": [
        {
          "indexed": false,
          "internalType": "address",
          "name": "account",
          "type": "address"
        }
      ],
      "name": "Unpaused",
      "type": "event"
    },
    {
      "anonymous": false,
      "inputs": [
        {
          "indexed": true,
          "internalType": "address",
          "name": "implementation",
          "type": "address"
        }
      ],
      "name": "Upgraded",
      "type": "event"
    },
    {
      "inputs": [],
      "name": "DEFAULT_ADMIN_ROLE",
      "outputs": [
        {
          "internalType": "bytes32",
          "name": "",
          "type": "bytes32"
        }
      ],
      "stateMutability": "view",
      "type": "function"
    },
    {
      "inputs": [
        {
          "internalType": "address",
          "name": "to",
          "type": "address"
        },
        {
          "internalType": "uint256",
          "name": "tokenId",
          "type": "uint256"
        }
      ],
      "name": "approve",
      "outputs": [],
      "stateMutability": "nonpayable",
      "type": "function"
    },
    {
      "inputs": [
        {
          "internalType": "address",
          "name": "owner",
          "type": "address"
        }
      ],
      "name": "balanceOf",
      "outputs": [
        {
          "internalType": "uint256",
          "name": "",
          "type": "uint256"
        }
      ],
      "stateMutability": "view",
      "type": "function"
    },
    {
      "inputs": [
        {
          "internalType": "uint256",
          "name": "tokenId_",
          "type": "uint256"
        }
      ],
      "name": "burn",
      "outputs": [],
      "stateMutability": "nonpayable",
      "type": "function"
    },
    {
      "inputs": [
        {
          "internalType": "uint256",
          "name": "monsterId",
          "type": "uint256"
        }
      ],
      "name": "checkMonsterId",
      "outputs": [],
      "stateMutability": "view",
      "type": "function"
    },
    {
      "inputs": [],
      "name": "contractURI",
      "outputs": [
        {
          "internalType": "string",
          "name": "uri",
          "type": "string"
        }
      ],
      "stateMutability": "view",
      "type": "function"
    },
    {
      "inputs": [],
      "name": "erc20",
      "outputs": [
        {
          "internalType": "contract IERC20",
          "name": "",
          "type": "address"
        }
      ],
      "stateMutability": "view",
      "type": "function"
    },
    {
      "inputs": [
        {
          "internalType": "address",
          "name": "resurrectionPrompt_",
          "type": "address"
        },
        {
          "components": [
            {
              "internalType": "string",
              "name": "feature",
              "type": "string"
            },
            {
              "internalType": "string",
              "name": "name",
              "type": "string"
            },
            {
              "internalType": "string",
              "name": "flavor",
              "type": "string"
            },
            {
              "internalType": "string[]",
              "name": "skills",
              "type": "string[]"
            },
            {
              "internalType": "uint32",
              "name": "lv",
              "type": "uint32"
            },
            {
              "internalType": "uint32",
              "name": "hp",
              "type": "uint32"
            },
            {
              "internalType": "uint32",
              "name": "atk",
              "type": "uint32"
            },
            {
              "internalType": "uint32",
              "name": "def",
              "type": "uint32"
            },
            {
              "internalType": "uint32",
              "name": "inte",
              "type": "uint32"
            },
            {
              "internalType": "uint32",
              "name": "mgr",
              "type": "uint32"
            },
            {
              "internalType": "uint32",
              "name": "agl",
              "type": "uint32"
            }
          ],
          "internalType": "struct IPromptMonsters.Monster",
          "name": "monster_",
          "type": "tuple"
        }
      ],
      "name": "generateMonster",
      "outputs": [],
      "stateMutability": "nonpayable",
      "type": "function"
    },
    {
      "inputs": [
        {
          "internalType": "uint256",
          "name": "tokenId",
          "type": "uint256"
        }
      ],
      "name": "getApproved",
      "outputs": [
        {
          "internalType": "address",
          "name": "",
          "type": "address"
        }
      ],
      "stateMutability": "view",
      "type": "function"
    },
    {
      "inputs": [
        {
          "internalType": "address[]",
          "name": "resurrectionPrompts_",
          "type": "address[]"
        }
      ],
      "name": "getMonsterExtensions",
      "outputs": [
        {
          "components": [
            {
              "internalType": "string",
              "name": "feature",
              "type": "string"
            },
            {
              "internalType": "string",
              "name": "name",
              "type": "string"
            },
            {
              "internalType": "string",
              "name": "flavor",
              "type": "string"
            },
            {
              "internalType": "string[]",
              "name": "skills",
              "type": "string[]"
            },
            {
              "internalType": "uint32",
              "name": "lv",
              "type": "uint32"
            },
            {
              "internalType": "uint32",
              "name": "hp",
              "type": "uint32"
            },
            {
              "internalType": "uint32",
              "name": "atk",
              "type": "uint32"
            },
            {
              "internalType": "uint32",
              "name": "def",
              "type": "uint32"
            },
            {
              "internalType": "uint32",
              "name": "inte",
              "type": "uint32"
            },
            {
              "internalType": "uint32",
              "name": "mgr",
              "type": "uint32"
            },
            {
              "internalType": "uint32",
              "name": "agl",
              "type": "uint32"
            },
            {
              "internalType": "uint32[]",
              "name": "skillTypes",
              "type": "uint32[]"
            }
          ],
          "internalType": "struct IPromptMonstersExtension.MonsterExtension[]",
          "name": "monsterExtensions",
          "type": "tuple[]"
        }
      ],
      "stateMutability": "view",
      "type": "function"
    },
    {
      "inputs": [
        {
          "internalType": "address",
          "name": "resurrectionPrompt",
          "type": "address"
        }
      ],
      "name": "getMonsterHistory",
      "outputs": [
        {
          "components": [
            {
              "internalType": "string",
              "name": "feature",
              "type": "string"
            },
            {
              "internalType": "string",
              "name": "name",
              "type": "string"
            },
            {
              "internalType": "string",
              "name": "flavor",
              "type": "string"
            },
            {
              "internalType": "string[]",
              "name": "skills",
              "type": "string[]"
            },
            {
              "internalType": "uint32",
              "name": "lv",
              "type": "uint32"
            },
            {
              "internalType": "uint32",
              "name": "hp",
              "type": "uint32"
            },
            {
              "internalType": "uint32",
              "name": "atk",
              "type": "uint32"
            },
            {
              "internalType": "uint32",
              "name": "def",
              "type": "uint32"
            },
            {
              "internalType": "uint32",
              "name": "inte",
              "type": "uint32"
            },
            {
              "internalType": "uint32",
              "name": "mgr",
              "type": "uint32"
            },
            {
              "internalType": "uint32",
              "name": "agl",
              "type": "uint32"
            }
          ],
          "internalType": "struct IPromptMonsters.Monster",
          "name": "monsterHistory",
          "type": "tuple"
        }
      ],
      "stateMutability": "view",
      "type": "function"
    },
    {
      "inputs": [
        {
          "internalType": "uint256[]",
          "name": "tokenIds_",
          "type": "uint256[]"
        }
      ],
      "name": "getMonsters",
      "outputs": [
        {
          "components": [
            {
              "internalType": "string",
              "name": "feature",
              "type": "string"
            },
            {
              "internalType": "string",
              "name": "name",
              "type": "string"
            },
            {
              "internalType": "string",
              "name": "flavor",
              "type": "string"
            },
            {
              "internalType": "string[]",
              "name": "skills",
              "type": "string[]"
            },
            {
              "internalType": "uint32",
              "name": "lv",
              "type": "uint32"
            },
            {
              "internalType": "uint32",
              "name": "hp",
              "type": "uint32"
            },
            {
              "internalType": "uint32",
              "name": "atk",
              "type": "uint32"
            },
            {
              "internalType": "uint32",
              "name": "def",
              "type": "uint32"
            },
            {
              "internalType": "uint32",
              "name": "inte",
              "type": "uint32"
            },
            {
              "internalType": "uint32",
              "name": "mgr",
              "type": "uint32"
            },
            {
              "internalType": "uint32",
              "name": "agl",
              "type": "uint32"
            }
          ],
          "internalType": "struct IPromptMonsters.Monster[]",
          "name": "monsters",
          "type": "tuple[]"
        }
      ],
      "stateMutability": "view",
      "type": "function"
    },
    {
      "inputs": [],
      "name": "getMonstersTotalSupply",
      "outputs": [
        {
          "internalType": "uint256",
          "name": "totalSupply",
          "type": "uint256"
        }
      ],
      "stateMutability": "view",
      "type": "function"
    },
    {
      "inputs": [
        {
          "internalType": "address",
          "name": "owner",
          "type": "address"
        }
      ],
      "name": "getOwnerToTokenIds",
      "outputs": [
        {
          "internalType": "uint256[]",
          "name": "tokenIds",
          "type": "uint256[]"
        }
      ],
      "stateMutability": "view",
      "type": "function"
    },
    {
      "inputs": [
        {
          "internalType": "address",
          "name": "owner",
          "type": "address"
        },
        {
          "internalType": "uint256",
          "name": "tokenId_",
          "type": "uint256"
        }
      ],
      "name": "getOwnerToTokenIdsIndex",
      "outputs": [
        {
          "internalType": "uint256",
          "name": "tokenIdsIndex",
          "type": "uint256"
        }
      ],
      "stateMutability": "view",
      "type": "function"
    },
    {
      "inputs": [
        {
          "internalType": "bytes32",
          "name": "role",
          "type": "bytes32"
        }
      ],
      "name": "getRoleAdmin",
      "outputs": [
        {
          "internalType": "bytes32",
          "name": "",
          "type": "bytes32"
        }
      ],
      "stateMutability": "view",
      "type": "function"
    },
    {
      "inputs": [
        {
          "internalType": "bytes32",
          "name": "role",
          "type": "bytes32"
        },
        {
          "internalType": "uint256",
          "name": "index",
          "type": "uint256"
        }
      ],
      "name": "getRoleMember",
      "outputs": [
        {
          "internalType": "address",
          "name": "",
          "type": "address"
        }
      ],
      "stateMutability": "view",
      "type": "function"
    },
    {
      "inputs": [
        {
          "internalType": "bytes32",
          "name": "role",
          "type": "bytes32"
        }
      ],
      "name": "getRoleMemberCount",
      "outputs": [
        {
          "internalType": "uint256",
          "name": "",
          "type": "uint256"
        }
      ],
      "stateMutability": "view",
      "type": "function"
    },
    {
      "inputs": [
        {
          "internalType": "bytes32",
          "name": "role",
          "type": "bytes32"
        },
        {
          "internalType": "address",
          "name": "account",
          "type": "address"
        }
      ],
      "name": "grantRole",
      "outputs": [],
      "stateMutability": "nonpayable",
      "type": "function"
    },
    {
      "inputs": [
        {
          "internalType": "bytes32",
          "name": "role",
          "type": "bytes32"
        },
        {
          "internalType": "address",
          "name": "account",
          "type": "address"
        }
      ],
      "name": "hasRole",
      "outputs": [
        {
          "internalType": "bool",
          "name": "",
          "type": "bool"
        }
      ],
      "stateMutability": "view",
      "type": "function"
    },
    {
      "inputs": [
        {
          "internalType": "string",
          "name": "externalLink_",
          "type": "string"
        },
        {
          "internalType": "address",
          "name": "erc20Address_",
          "type": "address"
        },
        {
          "internalType": "uint256",
          "name": "mintPrice_",
          "type": "uint256"
        },
        {
          "internalType": "address",
          "name": "promptMonstersWallet_",
          "type": "address"
        }
      ],
      "name": "initialize",
      "outputs": [],
      "stateMutability": "nonpayable",
      "type": "function"
    },
    {
      "inputs": [
        {
          "internalType": "address",
          "name": "owner",
          "type": "address"
        },
        {
          "internalType": "address",
          "name": "operator",
          "type": "address"
        }
      ],
      "name": "isApprovedForAll",
      "outputs": [
        {
          "internalType": "bool",
          "name": "",
          "type": "bool"
        }
      ],
      "stateMutability": "view",
      "type": "function"
    },
    {
      "inputs": [
        {
          "internalType": "address",
          "name": "",
          "type": "address"
        }
      ],
      "name": "isMinted",
      "outputs": [
        {
          "internalType": "bool",
          "name": "",
          "type": "bool"
        }
      ],
      "stateMutability": "view",
      "type": "function"
    },
    {
      "inputs": [
        {
          "internalType": "address",
          "name": "resurrectionPrompt",
          "type": "address"
        }
      ],
      "name": "mint",
      "outputs": [],
      "stateMutability": "nonpayable",
      "type": "function"
    },
    {
      "inputs": [],
      "name": "mintPrice",
      "outputs": [
        {
          "internalType": "uint256",
          "name": "",
          "type": "uint256"
        }
      ],
      "stateMutability": "view",
      "type": "function"
    },
    {
      "inputs": [
        {
          "internalType": "uint256",
          "name": "",
          "type": "uint256"
        }
      ],
      "name": "monsterIdToResurrectionPrompt",
      "outputs": [
        {
          "internalType": "address",
          "name": "",
          "type": "address"
        }
      ],
      "stateMutability": "view",
      "type": "function"
    },
    {
      "inputs": [],
      "name": "name",
      "outputs": [
        {
          "internalType": "string",
          "name": "",
          "type": "string"
        }
      ],
      "stateMutability": "view",
      "type": "function"
    },
    {
      "inputs": [
        {
          "internalType": "uint256",
          "name": "tokenId",
          "type": "uint256"
        }
      ],
      "name": "ownerOf",
      "outputs": [
        {
          "internalType": "address",
          "name": "",
          "type": "address"
        }
      ],
      "stateMutability": "view",
      "type": "function"
    },
    {
      "inputs": [],
      "name": "pause",
      "outputs": [],
      "stateMutability": "nonpayable",
      "type": "function"
    },
    {
      "inputs": [],
      "name": "paused",
      "outputs": [
        {
          "internalType": "bool",
          "name": "",
          "type": "bool"
        }
      ],
      "stateMutability": "view",
      "type": "function"
    },
    {
      "inputs": [],
      "name": "promptMonstersImage",
      "outputs": [
        {
          "internalType": "contract IPromptMonstersImage",
          "name": "",
          "type": "address"
        }
      ],
      "stateMutability": "view",
      "type": "function"
    },
    {
      "inputs": [],
      "name": "promptMonstersWallet",
      "outputs": [
        {
          "internalType": "address",
          "name": "",
          "type": "address"
        }
      ],
      "stateMutability": "view",
      "type": "function"
    },
    {
      "inputs": [],
      "name": "proxiableUUID",
      "outputs": [
        {
          "internalType": "bytes32",
          "name": "",
          "type": "bytes32"
        }
      ],
      "stateMutability": "view",
      "type": "function"
    },
    {
      "inputs": [
        {
          "internalType": "bytes32",
          "name": "role",
          "type": "bytes32"
        },
        {
          "internalType": "address",
          "name": "account",
          "type": "address"
        }
      ],
      "name": "renounceRole",
      "outputs": [],
      "stateMutability": "nonpayable",
      "type": "function"
    },
    {
      "inputs": [
        {
          "internalType": "address",
          "name": "",
          "type": "address"
        }
      ],
      "name": "resurrectionIndex",
      "outputs": [
        {
          "internalType": "uint256",
          "name": "",
          "type": "uint256"
        }
      ],
      "stateMutability": "view",
      "type": "function"
    },
    {
      "inputs": [
        {
          "internalType": "bytes32",
          "name": "role",
          "type": "bytes32"
        },
        {
          "internalType": "address",
          "name": "account",
          "type": "address"
        }
      ],
      "name": "revokeRole",
      "outputs": [],
      "stateMutability": "nonpayable",
      "type": "function"
    },
    {
      "inputs": [
        {
          "internalType": "address",
          "name": "from",
          "type": "address"
        },
        {
          "internalType": "address",
          "name": "to",
          "type": "address"
        },
        {
          "internalType": "uint256",
          "name": "tokenId",
          "type": "uint256"
        }
      ],
      "name": "safeTransferFrom",
      "outputs": [],
      "stateMutability": "nonpayable",
      "type": "function"
    },
    {
      "inputs": [
        {
          "internalType": "address",
          "name": "from",
          "type": "address"
        },
        {
          "internalType": "address",
          "name": "to",
          "type": "address"
        },
        {
          "internalType": "uint256",
          "name": "tokenId",
          "type": "uint256"
        },
        {
          "internalType": "bytes",
          "name": "data",
          "type": "bytes"
        }
      ],
      "name": "safeTransferFrom",
      "outputs": [],
      "stateMutability": "nonpayable",
      "type": "function"
    },
    {
      "inputs": [
        {
          "internalType": "address",
          "name": "operator",
          "type": "address"
        },
        {
          "internalType": "bool",
          "name": "approved",
          "type": "bool"
        }
      ],
      "name": "setApprovalForAll",
      "outputs": [],
      "stateMutability": "nonpayable",
      "type": "function"
    },
    {
      "inputs": [
        {
          "internalType": "address",
          "name": "newState_",
          "type": "address"
        }
      ],
      "name": "setErc20",
      "outputs": [],
      "stateMutability": "nonpayable",
      "type": "function"
    },
    {
      "inputs": [
        {
          "internalType": "string",
          "name": "newState_",
          "type": "string"
        }
      ],
      "name": "setExternalLink",
      "outputs": [],
      "stateMutability": "nonpayable",
      "type": "function"
    },
    {
      "inputs": [
        {
          "internalType": "uint256",
          "name": "newState_",
          "type": "uint256"
        }
      ],
      "name": "setMintPrice",
      "outputs": [],
      "stateMutability": "nonpayable",
      "type": "function"
    },
    {
      "inputs": [
        {
          "internalType": "address",
          "name": "user_",
          "type": "address"
        },
        {
          "internalType": "uint256",
          "name": "ownerToTokenIdIndex_",
          "type": "uint256"
        },
        {
          "internalType": "uint256",
          "name": "newState_",
          "type": "uint256"
        }
      ],
      "name": "setOwnerToTokenId",
      "outputs": [],
      "stateMutability": "nonpayable",
      "type": "function"
    },
    {
      "inputs": [
        {
          "internalType": "address",
          "name": "user_",
          "type": "address"
        },
        {
          "internalType": "uint256",
          "name": "tokenId_",
          "type": "uint256"
        },
        {
          "internalType": "uint256",
          "name": "newState_",
          "type": "uint256"
        }
      ],
      "name": "setOwnerToTokenIdIndex",
      "outputs": [],
      "stateMutability": "nonpayable",
      "type": "function"
    },
    {
      "inputs": [
        {
          "internalType": "address",
          "name": "newState_",
          "type": "address"
        }
      ],
      "name": "setPromptMonstersExtension",
      "outputs": [],
      "stateMutability": "nonpayable",
      "type": "function"
    },
    {
      "inputs": [
        {
          "internalType": "address",
          "name": "newState_",
          "type": "address"
        }
      ],
      "name": "setPromptMonstersImage",
      "outputs": [],
      "stateMutability": "nonpayable",
      "type": "function"
    },
    {
      "inputs": [
        {
          "internalType": "address",
          "name": "newState_",
          "type": "address"
        }
      ],
      "name": "setPromptMonstersWallet",
      "outputs": [],
      "stateMutability": "nonpayable",
      "type": "function"
    },
    {
      "inputs": [
        {
          "internalType": "bytes4",
          "name": "interfaceId",
          "type": "bytes4"
        }
      ],
      "name": "supportsInterface",
      "outputs": [
        {
          "internalType": "bool",
          "name": "",
          "type": "bool"
        }
      ],
      "stateMutability": "view",
      "type": "function"
    },
    {
      "inputs": [],
      "name": "symbol",
      "outputs": [
        {
          "internalType": "string",
          "name": "",
          "type": "string"
        }
      ],
      "stateMutability": "view",
      "type": "function"
    },
    {
      "inputs": [
        {
          "internalType": "uint256",
          "name": "tokenId_",
          "type": "uint256"
        }
      ],
      "name": "tokenURI",
      "outputs": [
        {
          "internalType": "string",
          "name": "uri",
          "type": "string"
        }
      ],
      "stateMutability": "view",
      "type": "function"
    },
    {
      "inputs": [
        {
          "internalType": "address",
          "name": "from",
          "type": "address"
        },
        {
          "internalType": "address",
          "name": "to",
          "type": "address"
        },
        {
          "internalType": "uint256",
          "name": "tokenId",
          "type": "uint256"
        }
      ],
      "name": "transferFrom",
      "outputs": [],
      "stateMutability": "nonpayable",
      "type": "function"
    },
    {
      "inputs": [],
      "name": "unpause",
      "outputs": [],
      "stateMutability": "nonpayable",
      "type": "function"
    },
    {
      "inputs": [
        {
          "internalType": "address",
          "name": "newImplementation",
          "type": "address"
        }
      ],
      "name": "upgradeTo",
      "outputs": [],
      "stateMutability": "nonpayable",
      "type": "function"
    },
    {
      "inputs": [
        {
          "internalType": "address",
          "name": "newImplementation",
          "type": "address"
        },
        {
          "internalType": "bytes",
          "name": "data",
          "type": "bytes"
        }
      ],
      "name": "upgradeToAndCall",
      "outputs": [],
      "stateMutability": "payable",
      "type": "function"
    }
  ],
  "bytecode": "0x60a0604052306080523480156200001557600080fd5b506200002062000026565b620000e8565b600054610100900460ff1615620000935760405162461bcd60e51b815260206004820152602760248201527f496e697469616c697a61626c653a20636f6e747261637420697320696e697469604482015266616c697a696e6760c81b606482015260840160405180910390fd5b60005460ff9081161015620000e6576000805460ff191660ff9081179091556040519081527f7f26b83ff96e1f2b6a682f133852f6798a09c465da95921460cefb38474024989060200160405180910390a15b565b60805161585c620001206000396000818161125f0152818161129f01528181611457015281816114970152611526015261585c6000f3fe6080604052600436106103355760003560e01c806364cb5fd2116101ab578063b2664c2e116100f7578063dc328fa511610095578063e985e9c51161006f578063e985e9c5146109e8578063ee9b80a414610a31578063f4a0a52814610a51578063f9f2a7ce14610a7157600080fd5b8063dc328fa514610993578063e4bab3f5146109b3578063e8a3d485146109d357600080fd5b8063c87b56dd116100d1578063c87b56dd14610905578063ca15c87314610925578063d547741f14610945578063da430c261461096557600080fd5b8063b2664c2e1461088b578063b88d4fde146108b8578063c4b64f26146108d857600080fd5b80638456cb591161016457806391d148541161013e57806391d148541461082157806395d89b4114610841578063a217fddf14610856578063a22cb4651461086b57600080fd5b80638456cb59146107b557806385965e41146107ca5780639010d07c1461080157600080fd5b806364cb5fd2146106fd5780636817c76c1461071d5780636a6278421461073457806370a0823114610754578063785e9e8614610774578063831864651461079557600080fd5b80632f2ff15d116102855780634f1ef2861161022357806355b09456116101fd57806355b094561461067b57806356db61c81461069b5780635c975abb146106bb5780636352211e146106dd57600080fd5b80634f1ef2861461063d57806352d1902d1461065057806352dd29d21461066557600080fd5b80633659cfe61161025f5780633659cfe6146105c85780633f4ba83a146105e857806342842e0e146105fd57806342966c681461061d57600080fd5b80632f2ff15d1461056857806333a512a41461058857806336568abe146105a857600080fd5b8063145f0fa9116102f25780632114d251116102cc5780632114d251146104a657806323b872dd146104c7578063248a9ca3146104e75780632d6407cf1461052557600080fd5b8063145f0fa9146104385780631b80ef7a146104595780631f9179211461048657600080fd5b806301ffc9a71461033a578063038d18d81461036f57806306fdde0314610391578063081812fc146103b3578063095ea7b3146103eb5780630fd7efc41461040b575b600080fd5b34801561034657600080fd5b5061035a610355366004614276565b610aa2565b60405190151581526020015b60405180910390f35b34801561037b57600080fd5b5061038f61038a3660046142af565b610ab3565b005b34801561039d57600080fd5b506103a6610ae2565b604051610366919061431a565b3480156103bf57600080fd5b506103d36103ce36600461432d565b610b74565b6040516001600160a01b039091168152602001610366565b3480156103f757600080fd5b5061038f610406366004614346565b610b9b565b34801561041757600080fd5b5061042b6104263660046142af565b610cb5565b6040516103669190614370565b34801561044457600080fd5b50610192546103d3906001600160a01b031681565b34801561046557600080fd5b50610479610474366004614469565b610d22565b6040516103669190614590565b34801561049257600080fd5b5061038f6104a136600461474f565b610eed565b3480156104b257600080fd5b5061019a546103d3906001600160a01b031681565b3480156104d357600080fd5b5061038f6104e2366004614783565b610fe1565b3480156104f357600080fd5b5061051761050236600461432d565b60009081526097602052604090206001015490565b604051908152602001610366565b34801561053157600080fd5b50610517610540366004614346565b6001600160a01b03909116600090815261019560209081526040808320938352929052205490565b34801561057457600080fd5b5061038f6105833660046147bf565b611012565b34801561059457600080fd5b5061038f6105a3366004614892565b611037565b3480156105b457600080fd5b5061038f6105c33660046147bf565b6111d7565b3480156105d457600080fd5b5061038f6105e33660046142af565b611255565b3480156105f457600080fd5b5061038f611334565b34801561060957600080fd5b5061038f610618366004614783565b6113df565b34801561062957600080fd5b5061038f61063836600461432d565b6113fa565b61038f61064b3660046149fe565b61144d565b34801561065c57600080fd5b50610517611519565b34801561067157600080fd5b5061019854610517565b34801561068757600080fd5b5061038f610696366004614a4b565b6115cc565b3480156106a757600080fd5b5061038f6106b6366004614ab2565b61178e565b3480156106c757600080fd5b5061019a5461035a90600160a01b900460ff1681565b3480156106e957600080fd5b506103d36106f836600461432d565b6117d9565b34801561070957600080fd5b5061038f6107183660046142af565b611839565b34801561072957600080fd5b506105176101935481565b34801561074057600080fd5b5061038f61074f3660046142af565b611868565b34801561076057600080fd5b5061051761076f3660046142af565b611f7d565b34801561078057600080fd5b50610191546103d3906001600160a01b031681565b3480156107a157600080fd5b5061038f6107b036600461432d565b612003565b3480156107c157600080fd5b5061038f612084565b3480156107d657600080fd5b506103d36107e536600461432d565b61019c602052600090815260409020546001600160a01b031681565b34801561080d57600080fd5b506103d361081c366004614ae5565b6120f6565b34801561082d57600080fd5b5061035a61083c3660046147bf565b612115565b34801561084d57600080fd5b506103a6612140565b34801561086257600080fd5b50610517600081565b34801561087757600080fd5b5061038f610886366004614b15565b61214f565b34801561089757600080fd5b506108ab6108a6366004614b4c565b61215a565b6040516103669190614cdd565b3480156108c457600080fd5b5061038f6108d3366004614d3f565b61258c565b3480156108e457600080fd5b506108f86108f33660046142af565b6125c4565b6040516103669190614da6565b34801561091157600080fd5b506103a661092036600461432d565b6128ee565b34801561093157600080fd5b5061051761094036600461432d565b612996565b34801561095157600080fd5b5061038f6109603660046147bf565b6129ad565b34801561097157600080fd5b506105176109803660046142af565b6101996020526000908152604090205481565b34801561099f57600080fd5b5061038f6109ae366004614ab2565b6129d2565b3480156109bf57600080fd5b5061038f6109ce3660046142af565b612a05565b3480156109df57600080fd5b506103a6612a7d565b3480156109f457600080fd5b5061035a610a03366004614db9565b6001600160a01b039182166000908152606a6020908152604080832093909416825291909152205460ff1690565b348015610a3d57600080fd5b5061038f610a4c3660046142af565b612b04565b348015610a5d57600080fd5b5061038f610a6c36600461432d565b612b7c565b348015610a7d57600080fd5b5061035a610a8c3660046142af565b61019b6020526000908152604090205460ff1681565b6000610aad82612bc8565b92915050565b6000610abe81612bed565b5061019a80546001600160a01b0319166001600160a01b0392909216919091179055565b606060658054610af190614de3565b80601f0160208091040260200160405190810160405280929190818152602001828054610b1d90614de3565b8015610b6a5780601f10610b3f57610100808354040283529160200191610b6a565b820191906000526020600020905b815481529060010190602001808311610b4d57829003601f168201915b5050505050905090565b6000610b7f82612bf7565b506000908152606960205260409020546001600160a01b031690565b6000610ba6826117d9565b9050806001600160a01b0316836001600160a01b031603610c185760405162461bcd60e51b815260206004820152602160248201527f4552433732313a20617070726f76616c20746f2063757272656e74206f776e656044820152603960f91b60648201526084015b60405180910390fd5b336001600160a01b0382161480610c345750610c348133610a03565b610ca65760405162461bcd60e51b815260206004820152603d60248201527f4552433732313a20617070726f76652063616c6c6572206973206e6f7420746f60448201527f6b656e206f776e6572206f7220617070726f76656420666f7220616c6c0000006064820152608401610c0f565b610cb08383612c56565b505050565b6001600160a01b03811660009081526101976020908152604091829020805483518184028101840190945280845260609392830182828015610d1657602002820191906000526020600020905b815481526020019060010190808311610d02575b50505050509050919050565b8051606090806001600160401b03811115610d3f57610d3f6143b4565b604051908082528060200260200182016040528015610dcd57816020015b60408051610180810182526060808252602080830182905292820181905280820181905260006080830181905260a0830181905260c0830181905260e08301819052610100830181905261012083018190526101408301526101608201528252600019909201910181610d5d5790505b50915060005b81811015610ee6576000848281518110610def57610def614e1d565b6020026020010151905061019d60009054906101000a90046001600160a01b03166001600160a01b031663c61184cc826101966000898781518110610e3657610e36614e1d565b60200260200101516001600160a01b03166001600160a01b031681526020019081526020016000206040518363ffffffff1660e01b8152600401610e7b929190614fd7565b600060405180830381865afa158015610e98573d6000803e3d6000fd5b505050506040513d6000823e601f3d908101601f19168201604052610ec0919081019061512e565b848381518110610ed257610ed2614e1d565b602090810291909101015250600101610dd3565b5050919050565b6000610ef881612bed565b60006101948054610f0890614de3565b80601f0160208091040260200160405190810160405280929190818152602001828054610f3490614de3565b8015610f815780601f10610f5657610100808354040283529160200191610f81565b820191906000526020600020905b815481529060010190602001808311610f6457829003601f168201915b50505050509050826101949081610f9891906152f7565b50336001600160a01b03167ffceab947acbd3281d41fa085ba6d9503467fabd9e3d96e3ee0dbf6f8b04a9ca48285604051610fd49291906153b6565b60405180910390a2505050565b610feb3382612cc4565b6110075760405162461bcd60e51b8152600401610c0f906153db565b610cb0838383612d43565b60008281526097602052604090206001015461102d81612bed565b610cb08383612eb4565b600061104281612bed565b61104a612ed6565b6001600160a01b0383166000908152610196602052604090208251839190819061107490826152f7565b506020820151600182019061108990826152f7565b506040820151600282019061109e90826152f7565b50606082015180516110ba916003840191602090910190614148565b5060808201516004909101805460a084015160c085015160e08601516101008701516101208801516101409098015163ffffffff908116600160c01b0263ffffffff60c01b19998216600160a01b0263ffffffff60a01b19938316600160801b029390931667ffffffffffffffff60801b19948316600160601b0263ffffffff60601b19968416600160401b029690961667ffffffffffffffff60401b199784166401000000000267ffffffffffffffff1990991693909a169290921796909617949094169690961791909117161792909217929092161790556040517f510bfd2054011dabbaa045ac4dd0e4240d49b56398ef864dcfa95abec34b8e49906111c4908490614da6565b60405180910390a1610cb0600161015f55565b6001600160a01b03811633146112475760405162461bcd60e51b815260206004820152602f60248201527f416363657373436f6e74726f6c3a2063616e206f6e6c792072656e6f756e636560448201526e103937b632b9903337b91039b2b63360891b6064820152608401610c0f565b6112518282612f39565b5050565b6001600160a01b037f000000000000000000000000000000000000000000000000000000000000000016300361129d5760405162461bcd60e51b8152600401610c0f90615428565b7f00000000000000000000000000000000000000000000000000000000000000006001600160a01b03166112e66000805160206157e0833981519152546001600160a01b031690565b6001600160a01b03161461130c5760405162461bcd60e51b8152600401610c0f90615474565b61131581612f5b565b6040805160008082526020820190925261133191839190612f66565b50565b600061133f81612bed565b61019a54600160a01b900460ff166113905760405162461bcd60e51b815260206004820152601460248201527314185d5cd8589b194e881b9bdd081c185d5cd95960621b6044820152606401610c0f565b61019a805460ff60a01b191690557f5db9ee0a495bf2e6ff9c91a7834c1ba4fdd244a5e8aa4e537bd38aeae4b073aa335b6040516001600160a01b03909116815260200160405180910390a150565b610cb08383836040518060200160405280600081525061258c565b611402612ed6565b61019a54600160a01b900460ff161561142d5760405162461bcd60e51b8152600401610c0f906154c0565b6114423361143c6000806120f6565b836113df565b611331600161015f55565b6001600160a01b037f00000000000000000000000000000000000000000000000000000000000000001630036114955760405162461bcd60e51b8152600401610c0f90615428565b7f00000000000000000000000000000000000000000000000000000000000000006001600160a01b03166114de6000805160206157e0833981519152546001600160a01b031690565b6001600160a01b0316146115045760405162461bcd60e51b8152600401610c0f90615474565b61150d82612f5b565b61125182826001612f66565b6000306001600160a01b037f000000000000000000000000000000000000000000000000000000000000000016146115b95760405162461bcd60e51b815260206004820152603860248201527f555550535570677261646561626c653a206d757374206e6f742062652063616c60448201527f6c6564207468726f7567682064656c656761746563616c6c00000000000000006064820152608401610c0f565b506000805160206157e083398151915290565b600054610100900460ff16158080156115ec5750600054600160ff909116105b806116065750303b158015611606575060005460ff166001145b6116695760405162461bcd60e51b815260206004820152602e60248201527f496e697469616c697a61626c653a20636f6e747261637420697320616c72656160448201526d191e481a5b9a5d1a585b1a5e995960921b6064820152608401610c0f565b6000805460ff19166001179055801561168c576000805461ff0019166101001790555b6116d86040518060400160405280600f81526020016e50726f6d7074204d6f6e737465727360881b8152506040518060400160405280600381526020016226a7a760e91b8152506130d1565b6116e0613102565b6116e8613102565b6116f061312b565b6116fb600033612eb4565b61019461170886826152f7565b5061019180546001600160a01b038087166001600160a01b0319928316179092556101938590556101928054928516929091169190911790558015611787576000805461ff0019169055604051600181527f7f26b83ff96e1f2b6a682f133852f6798a09c465da95921460cefb38474024989060200160405180910390a15b5050505050565b600061179981612bed565b6001600160a01b0384166000908152610197602052604090208054839190859081106117c7576117c7614e1d565b60009182526020909120015550505050565b6000818152606760205260408120546001600160a01b031680610aad5760405162461bcd60e51b8152602060048201526018602482015277115490cdcc8c4e881a5b9d985b1a59081d1bdad95b88125160421b6044820152606401610c0f565b600061184481612bed565b5061019d80546001600160a01b0319166001600160a01b0392909216919091179055565b61019a54600160a01b900460ff16156118935760405162461bcd60e51b8152600401610c0f906154c0565b61019354610191546040516370a0823160e01b81523360048201526001600160a01b03909116906370a0823190602401602060405180830381865afa1580156118e0573d6000803e3d6000fd5b505050506040513d601f19601f8201168201806040525081019061190491906154ea565b10156119655760405162461bcd60e51b815260206004820152602a60248201527f50726f6d70744d6f6e73746572733a20696e73756666696369656e742045524360448201526932302062616c616e636560b01b6064820152608401610c0f565b6001600160a01b038116600090815261019660205260408082208151610160810190925280548290829061199890614de3565b80601f01602080910402602001604051908101604052809291908181526020018280546119c490614de3565b8015611a115780601f106119e657610100808354040283529160200191611a11565b820191906000526020600020905b8154815290600101906020018083116119f457829003601f168201915b50505050508152602001600182018054611a2a90614de3565b80601f0160208091040260200160405190810160405280929190818152602001828054611a5690614de3565b8015611aa35780601f10611a7857610100808354040283529160200191611aa3565b820191906000526020600020905b815481529060010190602001808311611a8657829003601f168201915b50505050508152602001600282018054611abc90614de3565b80601f0160208091040260200160405190810160405280929190818152602001828054611ae890614de3565b8015611b355780601f10611b0a57610100808354040283529160200191611b35565b820191906000526020600020905b815481529060010190602001808311611b1857829003601f168201915b5050505050815260200160038201805480602002602001604051908101604052809291908181526020016000905b82821015611c0f578382906000526020600020018054611b8290614de3565b80601f0160208091040260200160405190810160405280929190818152602001828054611bae90614de3565b8015611bfb5780601f10611bd057610100808354040283529160200191611bfb565b820191906000526020600020905b815481529060010190602001808311611bde57829003601f168201915b505050505081526020019060010190611b63565b505050908252506004919091015463ffffffff8082166020840152640100000000820481166040840152600160401b820481166060840152600160601b82048116608080850191909152600160801b8304821660a0850152600160a01b8304821660c0850152600160c01b909204811660e09093019290925282015191925016600003611cef5760405162461bcd60e51b815260206004820152602860248201527f50726f6d70744d6f6e73746572733a206d6f6e73746572206973206e6f742067604482015267195b995c985d195960c21b6064820152608401610c0f565b6101985460018101611d515760405162461bcd60e51b815260206004820152602560248201527f50726f6d70744d6f6e73746572733a20746f6b656e20494420697320746f6f206044820152646c6172676560d81b6064820152608401610c0f565b6101988054600181018255600091909152825183916005027f3f539f465397ab387efa93a617e37005205c037386b5b474fcfac82f47f77f0d01908190611d9890826152f7565b5060208201516001820190611dad90826152f7565b5060408201516002820190611dc290826152f7565b5060608201518051611dde916003840191602090910190614148565b5060808201516004909101805460a084015160c085015160e08601516101008701516101208801516101409098015163ffffffff908116600160c01b0263ffffffff60c01b19998216600160a01b0263ffffffff60a01b19938316600160801b029390931667ffffffffffffffff60801b19948316600160601b0263ffffffff60601b19968416600160401b029690961667ffffffffffffffff60401b199784166401000000000267ffffffffffffffff199099169a84169a909a179790971795909516979097179290921716929092179190911793909316929092179091556001600160a01b0380851660008181526101996020908152604080832087905586835261019c825280832080546001600160a01b0319168517905592825261019b905220805460ff19166001179055610192546101935461019154611f2c9490841693339316919061315a16565b611f3633826131b4565b80336001600160a01b03167fc6c4718f17c6ea8362f0264119a62a3048495821d7fe897562ac287bb681811284604051611f709190614da6565b60405180910390a3505050565b60006001600160a01b038216611fe75760405162461bcd60e51b815260206004820152602960248201527f4552433732313a2061646472657373207a65726f206973206e6f7420612076616044820152683634b21037bbb732b960b91b6064820152608401610c0f565b506001600160a01b031660009081526068602052604090205490565b6000818152606760205260409020546001600160a01b0316151580612029575060001981145b6113315760405162461bcd60e51b815260206004820152602660248201527f50726f6d70744d6f6e73746572733a206d6f6e7374657220646f6573206e6f7460448201526508195e1a5cdd60d21b6064820152608401610c0f565b600061208f81612bed565b61019a54600160a01b900460ff16156120ba5760405162461bcd60e51b8152600401610c0f906154c0565b61019a805460ff60a01b1916600160a01b1790557f62e78cea01bee320cd4e420270b5ea74000d11b0c9f74754ebdbfc544b05a2586113c13390565b600082815260c96020526040812061210e90836131ce565b9392505050565b60009182526097602090815260408084206001600160a01b0393909316845291905290205460ff1690565b606060668054610af190614de3565b6112513383836131da565b805161019854606091908111156121c75760405162461bcd60e51b815260206004820152602b60248201527f50726f6d70744d6f6e73746572733a20746f6b656e4964734c656e677468206960448201526a7320746f6f206c6172676560a81b6064820152608401610c0f565b806001600160401b038111156121df576121df6143b4565b60405190808252806020026020018201604052801561221857816020015b61220561419e565b8152602001906001900390816121fd5790505b50915060005b81811015610ee65761019884828151811061223b5761223b614e1d565b60200260200101518154811061225357612253614e1d565b90600052602060002090600502016040518061016001604052908160008201805461227d90614de3565b80601f01602080910402602001604051908101604052809291908181526020018280546122a990614de3565b80156122f65780601f106122cb576101008083540402835291602001916122f6565b820191906000526020600020905b8154815290600101906020018083116122d957829003601f168201915b5050505050815260200160018201805461230f90614de3565b80601f016020809104026020016040519081016040528092919081815260200182805461233b90614de3565b80156123885780601f1061235d57610100808354040283529160200191612388565b820191906000526020600020905b81548152906001019060200180831161236b57829003601f168201915b505050505081526020016002820180546123a190614de3565b80601f01602080910402602001604051908101604052809291908181526020018280546123cd90614de3565b801561241a5780601f106123ef5761010080835404028352916020019161241a565b820191906000526020600020905b8154815290600101906020018083116123fd57829003601f168201915b5050505050815260200160038201805480602002602001604051908101604052809291908181526020016000905b828210156124f457838290600052602060002001805461246790614de3565b80601f016020809104026020016040519081016040528092919081815260200182805461249390614de3565b80156124e05780601f106124b5576101008083540402835291602001916124e0565b820191906000526020600020905b8154815290600101906020018083116124c357829003601f168201915b505050505081526020019060010190612448565b505050908252506004919091015463ffffffff8082166020840152640100000000820481166040840152600160401b820481166060840152600160601b820481166080840152600160801b8204811660a0840152600160a01b8204811660c0840152600160c01b9091041660e090910152835184908390811061257957612579614e1d565b602090810291909101015260010161221e565b6125963383612cc4565b6125b25760405162461bcd60e51b8152600401610c0f906153db565b6125be848484846132a0565b50505050565b6125cc61419e565b6001600160a01b03821660009081526101966020526040908190208151610160810190925280548290829061260090614de3565b80601f016020809104026020016040519081016040528092919081815260200182805461262c90614de3565b80156126795780601f1061264e57610100808354040283529160200191612679565b820191906000526020600020905b81548152906001019060200180831161265c57829003601f168201915b5050505050815260200160018201805461269290614de3565b80601f01602080910402602001604051908101604052809291908181526020018280546126be90614de3565b801561270b5780601f106126e05761010080835404028352916020019161270b565b820191906000526020600020905b8154815290600101906020018083116126ee57829003601f168201915b5050505050815260200160028201805461272490614de3565b80601f016020809104026020016040519081016040528092919081815260200182805461275090614de3565b801561279d5780601f106127725761010080835404028352916020019161279d565b820191906000526020600020905b81548152906001019060200180831161278057829003601f168201915b5050505050815260200160038201805480602002602001604051908101604052809291908181526020016000905b828210156128775783829060005260206000200180546127ea90614de3565b80601f016020809104026020016040519081016040528092919081815260200182805461281690614de3565b80156128635780601f1061283857610100808354040283529160200191612863565b820191906000526020600020905b81548152906001019060200180831161284657829003601f168201915b5050505050815260200190600101906127cb565b505050908252506004919091015463ffffffff8082166020840152640100000000820481166040840152600160401b820481166060840152600160601b820481166080840152600160801b8204811660a0840152600160a01b8204811660c0840152600160c01b9091041660e09091015292915050565b60606128f982612bf7565b61019a5461019880546001600160a01b039092169163b688876c9185918290811061292657612926614e1d565b90600052602060002090600502016040518363ffffffff1660e01b8152600401612951929190615503565b600060405180830381865afa15801561296e573d6000803e3d6000fd5b505050506040513d6000823e601f3d908101601f19168201604052610aad919081019061551c565b600081815260c960205260408120610aad906132d3565b6000828152609760205260409020600101546129c881612bed565b610cb08383612f39565b60006129dd81612bed565b506001600160a01b039092166000908152610195602090815260408083209383529290522055565b6000612a1081612bed565b61019280546001600160a01b038481166001600160a01b031983161790925516612a373390565b604080516001600160a01b038481168252868116602083015292909216917fc791f304f706b4012579cd651a8a0d930c30d117f42ee74327000e3fc75bfbbc9101610fd4565b61019a546060906001600160a01b031663b2794520612a9a610ae2565b6101946040518363ffffffff1660e01b8152600401612aba929190615550565b600060405180830381865afa158015612ad7573d6000803e3d6000fd5b505050506040513d6000823e601f3d908101601f19168201604052612aff919081019061551c565b905090565b6000612b0f81612bed565b61019180546001600160a01b038481166001600160a01b031983161790925516612b363390565b604080516001600160a01b038481168252868116602083015292909216917f5ebe54482b2a8120482902e3bfe9ca1a913e9987bcb1f18c974dae585132a9549101610fd4565b6000612b8781612bed565b610193805490839055604080518281526020810185905233917f55cc83342b4c144a74960fdf0dfe1a7af4cbb77aaccb471b088d5fe0bdad1d4c9101610fd4565b60006001600160e01b03198216635a05180f60e01b1480610aad5750610aad826132dd565b6113318133613302565b6000818152606760205260409020546001600160a01b03166113315760405162461bcd60e51b8152602060048201526018602482015277115490cdcc8c4e881a5b9d985b1a59081d1bdad95b88125160421b6044820152606401610c0f565b600081815260696020526040902080546001600160a01b0319166001600160a01b0384169081179091558190612c8b826117d9565b6001600160a01b03167f8c5be1e5ebec7d5bd14f71427d1e84f3dd0314c0f7b2291e5b200ac8c7c3b92560405160405180910390a45050565b600080612cd0836117d9565b9050806001600160a01b0316846001600160a01b03161480612d1757506001600160a01b038082166000908152606a602090815260408083209388168352929052205460ff165b80612d3b5750836001600160a01b0316612d3084610b74565b6001600160a01b0316145b949350505050565b826001600160a01b0316612d56826117d9565b6001600160a01b031614612d7c5760405162461bcd60e51b8152600401610c0f90615575565b6001600160a01b038216612dde5760405162461bcd60e51b8152602060048201526024808201527f4552433732313a207472616e7366657220746f20746865207a65726f206164646044820152637265737360e01b6064820152608401610c0f565b612deb838383600161335b565b826001600160a01b0316612dfe826117d9565b6001600160a01b031614612e245760405162461bcd60e51b8152600401610c0f90615575565b600081815260696020908152604080832080546001600160a01b03199081169091556001600160a01b0387811680865260688552838620805460001901905590871680865283862080546001019055868652606790945282852080549092168417909155905184937fddf252ad1be2c89b69c2b068fc378daa952ba7f163c4a11628f55a4df523b3ef91a4505050565b612ebe82826133a4565b600082815260c960205260409020610cb0908261342a565b600261015f5403612f295760405162461bcd60e51b815260206004820152601f60248201527f5265656e7472616e637947756172643a207265656e7472616e742063616c6c006044820152606401610c0f565b600261015f55565b600161015f55565b612f43828261343f565b600082815260c960205260409020610cb090826134a6565b600061125181612bed565b7f4910fdfa16fed3260ed0e7147f7cc6da11a60208b5b9406d12a635614ffd91435460ff1615612f9957610cb0836134bb565b826001600160a01b03166352d1902d6040518163ffffffff1660e01b8152600401602060405180830381865afa925050508015612ff3575060408051601f3d908101601f19168201909252612ff0918101906154ea565b60015b6130565760405162461bcd60e51b815260206004820152602e60248201527f45524331393637557067726164653a206e657720696d706c656d656e7461746960448201526d6f6e206973206e6f74205555505360901b6064820152608401610c0f565b6000805160206157e083398151915281146130c55760405162461bcd60e51b815260206004820152602960248201527f45524331393637557067726164653a20756e737570706f727465642070726f786044820152681a58589b195555525160ba1b6064820152608401610c0f565b50610cb0838383613557565b600054610100900460ff166130f85760405162461bcd60e51b8152600401610c0f906155ba565b611251828261357c565b600054610100900460ff166131295760405162461bcd60e51b8152600401610c0f906155ba565b565b600054610100900460ff166131525760405162461bcd60e51b8152600401610c0f906155ba565b6131296135bc565b604080516001600160a01b0385811660248301528416604482015260648082018490528251808303909101815260849091019091526020810180516001600160e01b03166323b872dd60e01b1790526125be9085906135e3565b6112518282604051806020016040528060008152506136b5565b600061210e83836136e8565b816001600160a01b0316836001600160a01b03160361323b5760405162461bcd60e51b815260206004820152601960248201527f4552433732313a20617070726f766520746f2063616c6c6572000000000000006044820152606401610c0f565b6001600160a01b038381166000818152606a6020908152604080832094871680845294825291829020805460ff191686151590811790915591519182527f17307eab39ab6107e8899845ad3d59bd9653f200f220920489ca2b5937696c319101611f70565b6132ab848484612d43565b6132b784848484613712565b6125be5760405162461bcd60e51b8152600401610c0f90615605565b6000610aad825490565b60006001600160e01b03198216637965db0b60e01b1480610aad5750610aad82613813565b61330c8282612115565b6112515761331981613863565b613324836020613875565b604051602001613335929190615657565b60408051601f198184030181529082905262461bcd60e51b8252610c0f9160040161431a565b6001600160a01b038416613378576133738383613a10565b6125be565b6001600160a01b038316613390576133738483613a55565b61339a8483613a55565b6133738383613a10565b6133ae8282612115565b6112515760008281526097602090815260408083206001600160a01b03851684529091529020805460ff191660011790556133e63390565b6001600160a01b0316816001600160a01b0316837f2f8788117e7eff1d82e926ec794901d17c78024a50270940304540a733656f0d60405160405180910390a45050565b600061210e836001600160a01b038416613b93565b6134498282612115565b156112515760008281526097602090815260408083206001600160a01b0385168085529252808320805460ff1916905551339285917ff6391f5c32d9c69d2a47ea670b442974b53935d1edc7fd64eb21e047a839171b9190a45050565b600061210e836001600160a01b038416613be2565b6001600160a01b0381163b6135285760405162461bcd60e51b815260206004820152602d60248201527f455243313936373a206e657720696d706c656d656e746174696f6e206973206e60448201526c1bdd08184818dbdb9d1c9858dd609a1b6064820152608401610c0f565b6000805160206157e083398151915280546001600160a01b0319166001600160a01b0392909216919091179055565b61356083613cd5565b60008251118061356d5750805b15610cb0576125be8383613d15565b600054610100900460ff166135a35760405162461bcd60e51b8152600401610c0f906155ba565b60656135af83826152f7565b506066610cb082826152f7565b600054610100900460ff16612f315760405162461bcd60e51b8152600401610c0f906155ba565b6000613638826040518060400160405280602081526020017f5361666545524332303a206c6f772d6c6576656c2063616c6c206661696c6564815250856001600160a01b0316613e099092919063ffffffff16565b805190915015610cb0578080602001905181019061365691906156cc565b610cb05760405162461bcd60e51b815260206004820152602a60248201527f5361666545524332303a204552433230206f7065726174696f6e20646964206e6044820152691bdd081cdd58d8d9595960b21b6064820152608401610c0f565b6136bf8383613e18565b6136cc6000848484613712565b610cb05760405162461bcd60e51b8152600401610c0f90615605565b60008260000182815481106136ff576136ff614e1d565b9060005260206000200154905092915050565b60006001600160a01b0384163b1561380857604051630a85bd0160e11b81526001600160a01b0385169063150b7a02906137569033908990889088906004016156e9565b6020604051808303816000875af1925050508015613791575060408051601f3d908101601f1916820190925261378e91810190615726565b60015b6137ee573d8080156137bf576040519150601f19603f3d011682016040523d82523d6000602084013e6137c4565b606091505b5080516000036137e65760405162461bcd60e51b8152600401610c0f90615605565b805181602001fd5b6001600160e01b031916630a85bd0160e11b149050612d3b565b506001949350505050565b60006001600160e01b031982166380ac58cd60e01b148061384457506001600160e01b03198216635b5e139f60e01b145b80610aad57506301ffc9a760e01b6001600160e01b0319831614610aad565b6060610aad6001600160a01b03831660145b60606000613884836002615759565b61388f906002615770565b6001600160401b038111156138a6576138a66143b4565b6040519080825280601f01601f1916602001820160405280156138d0576020820181803683370190505b509050600360fc1b816000815181106138eb576138eb614e1d565b60200101906001600160f81b031916908160001a905350600f60fb1b8160018151811061391a5761391a614e1d565b60200101906001600160f81b031916908160001a905350600061393e846002615759565b613949906001615770565b90505b60018111156139c1576f181899199a1a9b1b9c1cb0b131b232b360811b85600f166010811061397d5761397d614e1d565b1a60f81b82828151811061399357613993614e1d565b60200101906001600160f81b031916908160001a90535060049490941c936139ba81615783565b905061394c565b50831561210e5760405162461bcd60e51b815260206004820181905260248201527f537472696e67733a20686578206c656e67746820696e73756666696369656e746044820152606401610c0f565b6001600160a01b039091166000908152610197602081815260408084208054610195845282862087875284529185208290559282526001810183559183529091200155565b6001600160a01b0382166000908152610197602052604081208054613a7c9060019061579a565b81548110613a8c57613a8c614e1d565b60009182526020808320909101546001600160a01b038616835261019582526040808420868552909252912054909150828214613afe576001600160a01b038416600090815261019760205260409020805483919083908110613af157613af1614e1d565b6000918252602090912001555b6001600160a01b038416600090815261019760205260409020805480613b2657613b266157ad565b6000828152602080822083016000199081018390559092019092556001600160a01b0386168252610195815260408083208684529091528120558183146125be576001600160a01b0393909316600090815261019560209081526040808320938352929052209190915550565b6000818152600183016020526040812054613bda57508154600181810184556000848152602080822090930184905584548482528286019093526040902091909155610aad565b506000610aad565b60008181526001830160205260408120548015613ccb576000613c0660018361579a565b8554909150600090613c1a9060019061579a565b9050818114613c7f576000866000018281548110613c3a57613c3a614e1d565b9060005260206000200154905080876000018481548110613c5d57613c5d614e1d565b6000918252602080832090910192909255918252600188019052604090208390555b8554869080613c9057613c906157ad565b600190038181906000526020600020016000905590558560010160008681526020019081526020016000206000905560019350505050610aad565b6000915050610aad565b613cde816134bb565b6040516001600160a01b038216907fbc7cd75a20ee27fd9adebab32041f755214dbc6bffa90cc0225b39da2e5c2d3b90600090a250565b60606001600160a01b0383163b613d7d5760405162461bcd60e51b815260206004820152602660248201527f416464726573733a2064656c65676174652063616c6c20746f206e6f6e2d636f6044820152651b9d1c9858dd60d21b6064820152608401610c0f565b600080846001600160a01b031684604051613d9891906157c3565b600060405180830381855af49150503d8060008114613dd3576040519150601f19603f3d011682016040523d82523d6000602084013e613dd8565b606091505b5091509150613e00828260405180606001604052806027815260200161580060279139613fb1565b95945050505050565b6060612d3b8484600085613fca565b6001600160a01b038216613e6e5760405162461bcd60e51b815260206004820181905260248201527f4552433732313a206d696e7420746f20746865207a65726f20616464726573736044820152606401610c0f565b6000818152606760205260409020546001600160a01b031615613ed35760405162461bcd60e51b815260206004820152601c60248201527f4552433732313a20746f6b656e20616c7265616479206d696e746564000000006044820152606401610c0f565b613ee160008383600161335b565b6000818152606760205260409020546001600160a01b031615613f465760405162461bcd60e51b815260206004820152601c60248201527f4552433732313a20746f6b656e20616c7265616479206d696e746564000000006044820152606401610c0f565b6001600160a01b038216600081815260686020908152604080832080546001019055848352606790915280822080546001600160a01b0319168417905551839291907fddf252ad1be2c89b69c2b068fc378daa952ba7f163c4a11628f55a4df523b3ef908290a45050565b60608315613fc057508161210e565b61210e83836140a5565b60608247101561402b5760405162461bcd60e51b815260206004820152602660248201527f416464726573733a20696e73756666696369656e742062616c616e636520666f6044820152651c8818d85b1b60d21b6064820152608401610c0f565b600080866001600160a01b0316858760405161404791906157c3565b60006040518083038185875af1925050503d8060008114614084576040519150601f19603f3d011682016040523d82523d6000602084013e614089565b606091505b509150915061409a878383876140cf565b979650505050505050565b8151156140b55781518083602001fd5b8060405162461bcd60e51b8152600401610c0f919061431a565b6060831561413e578251600003614137576001600160a01b0385163b6141375760405162461bcd60e51b815260206004820152601d60248201527f416464726573733a2063616c6c20746f206e6f6e2d636f6e74726163740000006044820152606401610c0f565b5081612d3b565b612d3b83836140a5565b82805482825590600052602060002090810192821561418e579160200282015b8281111561418e578251829061417e90826152f7565b5091602001919060010190614168565b5061419a9291506141f9565b5090565b60408051610160810182526060808252602082018190529181018290528181019190915260006080820181905260a0820181905260c0820181905260e082018190526101008201819052610120820181905261014082015290565b8082111561419a57600061420d8282614216565b506001016141f9565b50805461422290614de3565b6000825580601f10614232575050565b601f01602090049060005260206000209081019061133191905b8082111561419a576000815560010161424c565b6001600160e01b03198116811461133157600080fd5b60006020828403121561428857600080fd5b813561210e81614260565b80356001600160a01b03811681146142aa57600080fd5b919050565b6000602082840312156142c157600080fd5b61210e82614293565b60005b838110156142e55781810151838201526020016142cd565b50506000910152565b600081518084526143068160208601602086016142ca565b601f01601f19169290920160200192915050565b60208152600061210e60208301846142ee565b60006020828403121561433f57600080fd5b5035919050565b6000806040838503121561435957600080fd5b61436283614293565b946020939093013593505050565b6020808252825182820181905260009190848201906040850190845b818110156143a85783518352928401929184019160010161438c565b50909695505050505050565b634e487b7160e01b600052604160045260246000fd5b60405161016081016001600160401b03811182821017156143ed576143ed6143b4565b60405290565b60405161018081016001600160401b03811182821017156143ed576143ed6143b4565b604051601f8201601f191681016001600160401b038111828210171561443e5761443e6143b4565b604052919050565b60006001600160401b0382111561445f5761445f6143b4565b5060051b60200190565b6000602080838503121561447c57600080fd5b82356001600160401b0381111561449257600080fd5b8301601f810185136144a357600080fd5b80356144b66144b182614446565b614416565b81815260059190911b820183019083810190878311156144d557600080fd5b928401925b8284101561409a576144eb84614293565b825292840192908401906144da565b600081518084526020808501808196508360051b8101915082860160005b858110156145425782840389526145308483516142ee565b98850198935090840190600101614518565b5091979650505050505050565b600081518084526020808501945080840160005b8381101561458557815163ffffffff1687529582019590820190600101614563565b509495945050505050565b60006020808301818452808551808352604092508286019150828160051b87010184880160005b838110156146c957603f19898403018552815161018081518186526145de828701826142ee565b915050888201518582038a8701526145f682826142ee565b915050878201518582038987015261460e82826142ee565b9150506060808301518683038288015261462883826144fa565b925050506080808301516146438288018263ffffffff169052565b505060a08281015163ffffffff9081169187019190915260c08084015182169087015260e0808401518216908701526101008084015182169087015261012080840151821690870152610140808401519091169086015261016091820151858203928601929092526146b5818361454f565b9689019694505050908601906001016145b7565b509098975050505050505050565b60006001600160401b038211156146f0576146f06143b4565b50601f01601f191660200190565b600082601f83011261470f57600080fd5b813561471d6144b1826146d7565b81815284602083860101111561473257600080fd5b816020850160208301376000918101602001919091529392505050565b60006020828403121561476157600080fd5b81356001600160401b0381111561477757600080fd5b612d3b848285016146fe565b60008060006060848603121561479857600080fd5b6147a184614293565b92506147af60208501614293565b9150604084013590509250925092565b600080604083850312156147d257600080fd5b823591506147e260208401614293565b90509250929050565b600082601f8301126147fc57600080fd5b8135602061480c6144b183614446565b82815260059290921b8401810191818101908684111561482b57600080fd5b8286015b8481101561486a5780356001600160401b0381111561484e5760008081fd5b61485c8986838b01016146fe565b84525091830191830161482f565b509695505050505050565b63ffffffff8116811461133157600080fd5b80356142aa81614875565b600080604083850312156148a557600080fd5b6148ae83614293565b915060208301356001600160401b03808211156148ca57600080fd5b9084019061016082870312156148df57600080fd5b6148e76143ca565b8235828111156148f657600080fd5b614902888286016146fe565b82525060208301358281111561491757600080fd5b614923888286016146fe565b60208301525060408301358281111561493b57600080fd5b614947888286016146fe565b60408301525060608301358281111561495f57600080fd5b61496b888286016147eb565b60608301525061497d60808401614887565b608082015261498e60a08401614887565b60a082015261499f60c08401614887565b60c08201526149b060e08401614887565b60e082015261010091506149c5828401614887565b8282015261012091506149d9828401614887565b8282015261014091506149ed828401614887565b828201528093505050509250929050565b60008060408385031215614a1157600080fd5b614a1a83614293565b915060208301356001600160401b03811115614a3557600080fd5b614a41858286016146fe565b9150509250929050565b60008060008060808587031215614a6157600080fd5b84356001600160401b03811115614a7757600080fd5b614a83878288016146fe565b945050614a9260208601614293565b925060408501359150614aa760608601614293565b905092959194509250565b600080600060608486031215614ac757600080fd5b614ad084614293565b95602085013595506040909401359392505050565b60008060408385031215614af857600080fd5b50508035926020909101359150565b801515811461133157600080fd5b60008060408385031215614b2857600080fd5b614b3183614293565b91506020830135614b4181614b07565b809150509250929050565b60006020808385031215614b5f57600080fd5b82356001600160401b03811115614b7557600080fd5b8301601f81018513614b8657600080fd5b8035614b946144b182614446565b81815260059190911b82018301908381019087831115614bb357600080fd5b928401925b8284101561409a57833582529284019290840190614bb8565b60006101608251818552614be7828601826142ee565b91505060208301518482036020860152614c0182826142ee565b91505060408301518482036040860152614c1b82826142ee565b91505060608301518482036060860152614c3582826144fa565b9150506080830151614c4f608086018263ffffffff169052565b5060a0830151614c6760a086018263ffffffff169052565b5060c0830151614c7f60c086018263ffffffff169052565b5060e0830151614c9760e086018263ffffffff169052565b506101008381015163ffffffff81168683015250506101208381015163ffffffff81168683015250506101408381015163ffffffff8116868301525b5090949350505050565b6000602080830181845280855180835260408601915060408160051b870101925083870160005b82811015614d3257603f19888603018452614d20858351614bd1565b94509285019290850190600101614d04565b5092979650505050505050565b60008060008060808587031215614d5557600080fd5b614d5e85614293565b9350614d6c60208601614293565b92506040850135915060608501356001600160401b03811115614d8e57600080fd5b614d9a878288016146fe565b91505092959194509250565b60208152600061210e6020830184614bd1565b60008060408385031215614dcc57600080fd5b614dd583614293565b91506147e260208401614293565b600181811c90821680614df757607f821691505b602082108103614e1757634e487b7160e01b600052602260045260246000fd5b50919050565b634e487b7160e01b600052603260045260246000fd5b60008154614e4081614de3565b808552602060018381168015614e5d5760018114614e7757614ea5565b60ff1985168884015283151560051b880183019550614ea5565b866000528260002060005b85811015614e9d5781548a8201860152908301908401614e82565b890184019650505b505050505092915050565b600081548084526020808501808196508360051b81019150856000528260002060005b85811015614542578284038952614eea8483614e33565b98850198935060019182019101614ed3565b6000610160808452614f1081850184614e33565b90508381036020850152614f278160018501614e33565b90508381036040850152614f3e8160028501614e33565b90508381036060850152614f558160038501614eb0565b600484015463ffffffff8082166080880152602082901c811660a0880152604082901c811660c0880152606082901c811660e088015291925090614fa76101008701828460801c1663ffffffff169052565b614fbf6101208701828460a01c1663ffffffff169052565b614cd36101408701828460c01c1663ffffffff169052565b6001600160a01b0383168152604060208201819052600090612d3b90830184614efc565b600082601f83011261500c57600080fd5b815161501a6144b1826146d7565b81815284602083860101111561502f57600080fd5b612d3b8260208301602087016142ca565b600082601f83011261505157600080fd5b815160206150616144b183614446565b82815260059290921b8401810191818101908684111561508057600080fd5b8286015b8481101561486a5780516001600160401b038111156150a35760008081fd5b6150b18986838b0101614ffb565b845250918301918301615084565b80516142aa81614875565b600082601f8301126150db57600080fd5b815160206150eb6144b183614446565b82815260059290921b8401810191818101908684111561510a57600080fd5b8286015b8481101561486a57805161512181614875565b835291830191830161510e565b60006020828403121561514057600080fd5b81516001600160401b038082111561515757600080fd5b90830190610180828603121561516c57600080fd5b6151746143f3565b82518281111561518357600080fd5b61518f87828601614ffb565b8252506020830151828111156151a457600080fd5b6151b087828601614ffb565b6020830152506040830151828111156151c857600080fd5b6151d487828601614ffb565b6040830152506060830151828111156151ec57600080fd5b6151f887828601615040565b60608301525061520a608084016150bf565b608082015261521b60a084016150bf565b60a082015261522c60c084016150bf565b60c082015261523d60e084016150bf565b60e08201526101006152508185016150bf565b908201526101206152628482016150bf565b908201526101406152748482016150bf565b90820152610160838101518381111561528c57600080fd5b615298888287016150ca565b918301919091525095945050505050565b601f821115610cb057600081815260208120601f850160051c810160208610156152d05750805b601f850160051c820191505b818110156152ef578281556001016152dc565b505050505050565b81516001600160401b03811115615310576153106143b4565b6153248161531e8454614de3565b846152a9565b602080601f83116001811461535957600084156153415750858301515b600019600386901b1c1916600185901b1785556152ef565b600085815260208120601f198616915b8281101561538857888601518255948401946001909101908401615369565b50858210156153a65787850151600019600388901b60f8161c191681555b5050505050600190811b01905550565b6040815260006153c960408301856142ee565b8281036020840152613e0081856142ee565b6020808252602d908201527f4552433732313a2063616c6c6572206973206e6f7420746f6b656e206f776e6560408201526c1c881bdc88185c1c1c9bdd9959609a1b606082015260800190565b6020808252602c908201527f46756e6374696f6e206d7573742062652063616c6c6564207468726f7567682060408201526b19195b1959d85d1958d85b1b60a21b606082015260800190565b6020808252602c908201527f46756e6374696f6e206d7573742062652063616c6c6564207468726f7567682060408201526b6163746976652070726f787960a01b606082015260800190565b60208082526010908201526f14185d5cd8589b194e881c185d5cd95960821b604082015260600190565b6000602082840312156154fc57600080fd5b5051919050565b828152604060208201526000612d3b6040830184614efc565b60006020828403121561552e57600080fd5b81516001600160401b0381111561554457600080fd5b612d3b84828501614ffb565b60408152600061556360408301856142ee565b8281036020840152613e008185614e33565b60208082526025908201527f4552433732313a207472616e736665722066726f6d20696e636f72726563742060408201526437bbb732b960d91b606082015260800190565b6020808252602b908201527f496e697469616c697a61626c653a20636f6e7472616374206973206e6f74206960408201526a6e697469616c697a696e6760a81b606082015260800190565b60208082526032908201527f4552433732313a207472616e7366657220746f206e6f6e20455243373231526560408201527131b2b4bb32b91034b6b83632b6b2b73a32b960711b606082015260800190565b7f416363657373436f6e74726f6c3a206163636f756e742000000000000000000081526000835161568f8160178501602088016142ca565b7001034b99036b4b9b9b4b733903937b6329607d1b60179184019182015283516156c08160288401602088016142ca565b01602801949350505050565b6000602082840312156156de57600080fd5b815161210e81614b07565b6001600160a01b038581168252841660208201526040810183905260806060820181905260009061571c908301846142ee565b9695505050505050565b60006020828403121561573857600080fd5b815161210e81614260565b634e487b7160e01b600052601160045260246000fd5b8082028115828204841417610aad57610aad615743565b80820180821115610aad57610aad615743565b60008161579257615792615743565b506000190190565b81810381811115610aad57610aad615743565b634e487b7160e01b600052603160045260246000fd5b600082516157d58184602087016142ca565b919091019291505056fe360894a13ba1a3210667c828492db98dca3e2076cc3735a920a3ca505d382bbc416464726573733a206c6f772d6c6576656c2064656c65676174652063616c6c206661696c6564a264697066735822122006cb9f2a5890e09463bbc8d989c3d52b199b40d62d0c2caf70c7c5891e69d1c464736f6c63430008120033",
  "linkReferences": {},
  "deployedLinkReferences": {}
}