{
  "_format": "hh-sol-artifact-1",
  "contractName": "PromptMonsters",
  "sourceName": "contracts/prompt-monsters/PromptMonsters.sol",
  "abi": [
    {
      "inputs": [],
      "stateMutability": "nonpayable",
      "type": "constructor"
    },
    {
      "anonymous": false,
      "inputs": [
        {
          "indexed": false,
          "internalType": "address",
          "name": "previousAdmin",
          "type": "address"
        },
        {
          "indexed": false,
          "internalType": "address",
          "name": "newAdmin",
          "type": "address"
        }
      ],
      "name": "AdminChanged",
      "type": "event"
    },
    {
      "anonymous": false,
      "inputs": [
        {
          "indexed": true,
          "internalType": "address",
          "name": "owner",
          "type": "address"
        },
        {
          "indexed": true,
          "internalType": "address",
          "name": "approved",
          "type": "address"
        },
        {
          "indexed": true,
          "internalType": "uint256",
          "name": "tokenId",
          "type": "uint256"
        }
      ],
      "name": "Approval",
      "type": "event"
    },
    {
      "anonymous": false,
      "inputs": [
        {
          "indexed": true,
          "internalType": "address",
          "name": "owner",
          "type": "address"
        },
        {
          "indexed": true,
          "internalType": "address",
          "name": "operator",
          "type": "address"
        },
        {
          "indexed": false,
          "internalType": "bool",
          "name": "approved",
          "type": "bool"
        }
      ],
      "name": "ApprovalForAll",
      "type": "event"
    },
    {
      "anonymous": false,
      "inputs": [
        {
          "indexed": true,
          "internalType": "address",
          "name": "beacon",
          "type": "address"
        }
      ],
      "name": "BeaconUpgraded",
      "type": "event"
    },
    {
      "anonymous": false,
      "inputs": [
        {
          "components": [
            {
              "internalType": "string",
              "name": "feature",
              "type": "string"
            },
            {
              "internalType": "string",
              "name": "name",
              "type": "string"
            },
            {
              "internalType": "string",
              "name": "flavor",
              "type": "string"
            },
            {
              "internalType": "string[]",
              "name": "skills",
              "type": "string[]"
            },
            {
              "internalType": "uint32",
              "name": "lv",
              "type": "uint32"
            },
            {
              "internalType": "uint32",
              "name": "hp",
              "type": "uint32"
            },
            {
              "internalType": "uint32",
              "name": "atk",
              "type": "uint32"
            },
            {
              "internalType": "uint32",
              "name": "def",
              "type": "uint32"
            },
            {
              "internalType": "uint32",
              "name": "inte",
              "type": "uint32"
            },
            {
              "internalType": "uint32",
              "name": "mgr",
              "type": "uint32"
            },
            {
              "internalType": "uint32",
              "name": "agl",
              "type": "uint32"
            }
          ],
          "indexed": false,
          "internalType": "struct IPromptMonsters.Monster",
          "name": "monster",
          "type": "tuple"
        }
      ],
      "name": "GenerateMonster",
      "type": "event"
    },
    {
      "anonymous": false,
      "inputs": [
        {
          "indexed": true,
          "internalType": "address",
          "name": "resurrectionPrompt",
          "type": "address"
        },
        {
          "components": [
            {
              "internalType": "string",
              "name": "feature",
              "type": "string"
            },
            {
              "internalType": "string",
              "name": "name",
              "type": "string"
            },
            {
              "internalType": "string",
              "name": "flavor",
              "type": "string"
            },
            {
              "internalType": "string[]",
              "name": "skills",
              "type": "string[]"
            },
            {
              "internalType": "uint32",
              "name": "lv",
              "type": "uint32"
            },
            {
              "internalType": "uint32",
              "name": "hp",
              "type": "uint32"
            },
            {
              "internalType": "uint32",
              "name": "atk",
              "type": "uint32"
            },
            {
              "internalType": "uint32",
              "name": "def",
              "type": "uint32"
            },
            {
              "internalType": "uint32",
              "name": "inte",
              "type": "uint32"
            },
            {
              "internalType": "uint32",
              "name": "mgr",
              "type": "uint32"
            },
            {
              "internalType": "uint32",
              "name": "agl",
              "type": "uint32"
            }
          ],
          "indexed": false,
          "internalType": "struct IPromptMonsters.Monster",
          "name": "monster",
          "type": "tuple"
        }
      ],
      "name": "GeneratedMonsterV2",
      "type": "event"
    },
    {
      "anonymous": false,
      "inputs": [
        {
          "indexed": false,
          "internalType": "uint8",
          "name": "version",
          "type": "uint8"
        }
      ],
      "name": "Initialized",
      "type": "event"
    },
    {
      "anonymous": false,
      "inputs": [
        {
          "indexed": true,
          "internalType": "address",
          "name": "tokenOwner",
          "type": "address"
        },
        {
          "indexed": true,
          "internalType": "uint256",
          "name": "newTokenId",
          "type": "uint256"
        },
        {
          "components": [
            {
              "internalType": "string",
              "name": "feature",
              "type": "string"
            },
            {
              "internalType": "string",
              "name": "name",
              "type": "string"
            },
            {
              "internalType": "string",
              "name": "flavor",
              "type": "string"
            },
            {
              "internalType": "string[]",
              "name": "skills",
              "type": "string[]"
            },
            {
              "internalType": "uint32",
              "name": "lv",
              "type": "uint32"
            },
            {
              "internalType": "uint32",
              "name": "hp",
              "type": "uint32"
            },
            {
              "internalType": "uint32",
              "name": "atk",
              "type": "uint32"
            },
            {
              "internalType": "uint32",
              "name": "def",
              "type": "uint32"
            },
            {
              "internalType": "uint32",
              "name": "inte",
              "type": "uint32"
            },
            {
              "internalType": "uint32",
              "name": "mgr",
              "type": "uint32"
            },
            {
              "internalType": "uint32",
              "name": "agl",
              "type": "uint32"
            }
          ],
          "indexed": false,
          "internalType": "struct IPromptMonsters.Monster",
          "name": "monster",
          "type": "tuple"
        }
      ],
      "name": "MintedMonster",
      "type": "event"
    },
    {
      "anonymous": false,
      "inputs": [
        {
          "indexed": true,
          "internalType": "address",
          "name": "tokenOwner",
          "type": "address"
        },
        {
          "indexed": true,
          "internalType": "address",
          "name": "resurrectionPrompt",
          "type": "address"
        },
        {
          "indexed": true,
          "internalType": "uint256",
          "name": "newTokenId",
          "type": "uint256"
        },
        {
          "components": [
            {
              "internalType": "string",
              "name": "feature",
              "type": "string"
            },
            {
              "internalType": "string",
              "name": "name",
              "type": "string"
            },
            {
              "internalType": "string",
              "name": "flavor",
              "type": "string"
            },
            {
              "internalType": "string[]",
              "name": "skills",
              "type": "string[]"
            },
            {
              "internalType": "uint32",
              "name": "lv",
              "type": "uint32"
            },
            {
              "internalType": "uint32",
              "name": "hp",
              "type": "uint32"
            },
            {
              "internalType": "uint32",
              "name": "atk",
              "type": "uint32"
            },
            {
              "internalType": "uint32",
              "name": "def",
              "type": "uint32"
            },
            {
              "internalType": "uint32",
              "name": "inte",
              "type": "uint32"
            },
            {
              "internalType": "uint32",
              "name": "mgr",
              "type": "uint32"
            },
            {
              "internalType": "uint32",
              "name": "agl",
              "type": "uint32"
            }
          ],
          "indexed": false,
          "internalType": "struct IPromptMonsters.Monster",
          "name": "monster",
          "type": "tuple"
        }
      ],
      "name": "MintedMonsterV2",
      "type": "event"
    },
    {
      "anonymous": false,
      "inputs": [
        {
          "indexed": false,
          "internalType": "address",
          "name": "account",
          "type": "address"
        }
      ],
      "name": "Paused",
      "type": "event"
    },
    {
      "anonymous": false,
      "inputs": [
        {
          "indexed": true,
          "internalType": "bytes32",
          "name": "role",
          "type": "bytes32"
        },
        {
          "indexed": true,
          "internalType": "bytes32",
          "name": "previousAdminRole",
          "type": "bytes32"
        },
        {
          "indexed": true,
          "internalType": "bytes32",
          "name": "newAdminRole",
          "type": "bytes32"
        }
      ],
      "name": "RoleAdminChanged",
      "type": "event"
    },
    {
      "anonymous": false,
      "inputs": [
        {
          "indexed": true,
          "internalType": "bytes32",
          "name": "role",
          "type": "bytes32"
        },
        {
          "indexed": true,
          "internalType": "address",
          "name": "account",
          "type": "address"
        },
        {
          "indexed": true,
          "internalType": "address",
          "name": "sender",
          "type": "address"
        }
      ],
      "name": "RoleGranted",
      "type": "event"
    },
    {
      "anonymous": false,
      "inputs": [
        {
          "indexed": true,
          "internalType": "bytes32",
          "name": "role",
          "type": "bytes32"
        },
        {
          "indexed": true,
          "internalType": "address",
          "name": "account",
          "type": "address"
        },
        {
          "indexed": true,
          "internalType": "address",
          "name": "sender",
          "type": "address"
        }
      ],
      "name": "RoleRevoked",
      "type": "event"
    },
    {
      "anonymous": false,
      "inputs": [
        {
          "indexed": true,
          "internalType": "address",
          "name": "publisher",
          "type": "address"
        },
        {
          "indexed": false,
          "internalType": "address",
          "name": "oldValue",
          "type": "address"
        },
        {
          "indexed": false,
          "internalType": "address",
          "name": "newValue",
          "type": "address"
        }
      ],
      "name": "SetErc20",
      "type": "event"
    },
    {
      "anonymous": false,
      "inputs": [
        {
          "indexed": true,
          "internalType": "address",
          "name": "publisher",
          "type": "address"
        },
        {
          "indexed": false,
          "internalType": "string",
          "name": "oldValue",
          "type": "string"
        },
        {
          "indexed": false,
          "internalType": "string",
          "name": "newValue",
          "type": "string"
        }
      ],
      "name": "SetExternalLink",
      "type": "event"
    },
    {
      "anonymous": false,
      "inputs": [
        {
          "indexed": true,
          "internalType": "address",
          "name": "publisher",
          "type": "address"
        },
        {
          "indexed": false,
          "internalType": "uint256",
          "name": "oldValue",
          "type": "uint256"
        },
        {
          "indexed": false,
          "internalType": "uint256",
          "name": "newValue",
          "type": "uint256"
        }
      ],
      "name": "SetMintPrice",
      "type": "event"
    },
    {
      "anonymous": false,
      "inputs": [
        {
          "indexed": true,
          "internalType": "address",
          "name": "publisher",
          "type": "address"
        },
        {
          "components": [
            {
              "internalType": "string",
              "name": "feature",
              "type": "string"
            },
            {
              "internalType": "string",
              "name": "name",
              "type": "string"
            },
            {
              "internalType": "string",
              "name": "flavor",
              "type": "string"
            },
            {
              "internalType": "string[]",
              "name": "skills",
              "type": "string[]"
            },
            {
              "internalType": "uint32",
              "name": "lv",
              "type": "uint32"
            },
            {
              "internalType": "uint32",
              "name": "hp",
              "type": "uint32"
            },
            {
              "internalType": "uint32",
              "name": "atk",
              "type": "uint32"
            },
            {
              "internalType": "uint32",
              "name": "def",
              "type": "uint32"
            },
            {
              "internalType": "uint32",
              "name": "inte",
              "type": "uint32"
            },
            {
              "internalType": "uint32",
              "name": "mgr",
              "type": "uint32"
            },
            {
              "internalType": "uint32",
              "name": "agl",
              "type": "uint32"
            }
          ],
          "indexed": false,
          "internalType": "struct IPromptMonsters.Monster",
          "name": "oldValue",
          "type": "tuple"
        },
        {
          "components": [
            {
              "internalType": "string",
              "name": "feature",
              "type": "string"
            },
            {
              "internalType": "string",
              "name": "name",
              "type": "string"
            },
            {
              "internalType": "string",
              "name": "flavor",
              "type": "string"
            },
            {
              "internalType": "string[]",
              "name": "skills",
              "type": "string[]"
            },
            {
              "internalType": "uint32",
              "name": "lv",
              "type": "uint32"
            },
            {
              "internalType": "uint32",
              "name": "hp",
              "type": "uint32"
            },
            {
              "internalType": "uint32",
              "name": "atk",
              "type": "uint32"
            },
            {
              "internalType": "uint32",
              "name": "def",
              "type": "uint32"
            },
            {
              "internalType": "uint32",
              "name": "inte",
              "type": "uint32"
            },
            {
              "internalType": "uint32",
              "name": "mgr",
              "type": "uint32"
            },
            {
              "internalType": "uint32",
              "name": "agl",
              "type": "uint32"
            }
          ],
          "indexed": false,
          "internalType": "struct IPromptMonsters.Monster",
          "name": "newValue",
          "type": "tuple"
        }
      ],
      "name": "SetMonsterHistory",
      "type": "event"
    },
    {
      "anonymous": false,
      "inputs": [
        {
          "indexed": true,
          "internalType": "address",
          "name": "publisher",
          "type": "address"
        },
        {
          "indexed": false,
          "internalType": "contract IPromptMonstersExtension",
          "name": "oldValue",
          "type": "address"
        },
        {
          "indexed": false,
          "internalType": "contract IPromptMonstersExtension",
          "name": "newValue",
          "type": "address"
        }
      ],
      "name": "SetPromptMonstersExtension",
      "type": "event"
    },
    {
      "anonymous": false,
      "inputs": [
        {
          "indexed": true,
          "internalType": "address",
          "name": "publisher",
          "type": "address"
        },
        {
          "indexed": false,
          "internalType": "contract IPromptMonstersImage",
          "name": "oldValue",
          "type": "address"
        },
        {
          "indexed": false,
          "internalType": "contract IPromptMonstersImage",
          "name": "newValue",
          "type": "address"
        }
      ],
      "name": "SetPromptMonstersImage",
      "type": "event"
    },
    {
      "anonymous": false,
      "inputs": [
        {
          "indexed": true,
          "internalType": "address",
          "name": "publisher",
          "type": "address"
        },
        {
          "indexed": false,
          "internalType": "address",
          "name": "oldValue",
          "type": "address"
        },
        {
          "indexed": false,
          "internalType": "address",
          "name": "newValue",
          "type": "address"
        }
      ],
      "name": "SetPromptMonstersWallet",
      "type": "event"
    },
    {
      "anonymous": false,
      "inputs": [
        {
          "indexed": true,
          "internalType": "address",
          "name": "publisher",
          "type": "address"
        },
        {
          "indexed": false,
          "internalType": "address",
          "name": "oldValue",
          "type": "address"
        },
        {
          "indexed": false,
          "internalType": "address",
          "name": "newValue",
          "type": "address"
        }
      ],
      "name": "SetTokenIdToResurrectionPromptMap",
      "type": "event"
    },
    {
      "anonymous": false,
      "inputs": [
        {
          "indexed": true,
          "internalType": "address",
          "name": "from",
          "type": "address"
        },
        {
          "indexed": true,
          "internalType": "address",
          "name": "to",
          "type": "address"
        },
        {
          "indexed": true,
          "internalType": "uint256",
          "name": "tokenId",
          "type": "uint256"
        }
      ],
      "name": "Transfer",
      "type": "event"
    },
    {
      "anonymous": false,
      "inputs": [
        {
          "indexed": false,
          "internalType": "address",
          "name": "account",
          "type": "address"
        }
      ],
      "name": "Unpaused",
      "type": "event"
    },
    {
      "anonymous": false,
      "inputs": [
        {
          "indexed": true,
          "internalType": "address",
          "name": "implementation",
          "type": "address"
        }
      ],
      "name": "Upgraded",
      "type": "event"
    },
    {
      "inputs": [],
      "name": "DEFAULT_ADMIN_ROLE",
      "outputs": [
        {
          "internalType": "bytes32",
          "name": "",
          "type": "bytes32"
        }
      ],
      "stateMutability": "view",
      "type": "function"
    },
    {
      "inputs": [
        {
          "internalType": "address",
          "name": "to",
          "type": "address"
        },
        {
          "internalType": "uint256",
          "name": "tokenId",
          "type": "uint256"
        }
      ],
      "name": "approve",
      "outputs": [],
      "stateMutability": "nonpayable",
      "type": "function"
    },
    {
      "inputs": [
        {
          "internalType": "address",
          "name": "owner",
          "type": "address"
        }
      ],
      "name": "balanceOf",
      "outputs": [
        {
          "internalType": "uint256",
          "name": "",
          "type": "uint256"
        }
      ],
      "stateMutability": "view",
      "type": "function"
    },
    {
      "inputs": [
        {
          "internalType": "uint256",
          "name": "tokenId_",
          "type": "uint256"
        }
      ],
      "name": "burn",
      "outputs": [],
      "stateMutability": "nonpayable",
      "type": "function"
    },
    {
      "inputs": [
        {
          "internalType": "uint256",
          "name": "monsterId",
          "type": "uint256"
        }
      ],
      "name": "checkMonsterId",
      "outputs": [],
      "stateMutability": "view",
      "type": "function"
    },
    {
      "inputs": [],
      "name": "contractURI",
      "outputs": [
        {
          "internalType": "string",
          "name": "uri",
          "type": "string"
        }
      ],
      "stateMutability": "view",
      "type": "function"
    },
    {
      "inputs": [
        {
          "internalType": "address",
          "name": "resurrectionPrompt_",
          "type": "address"
        },
        {
          "components": [
            {
              "internalType": "string",
              "name": "feature",
              "type": "string"
            },
            {
              "internalType": "string",
              "name": "name",
              "type": "string"
            },
            {
              "internalType": "string",
              "name": "flavor",
              "type": "string"
            },
            {
              "internalType": "string[]",
              "name": "skills",
              "type": "string[]"
            },
            {
              "internalType": "uint32",
              "name": "lv",
              "type": "uint32"
            },
            {
              "internalType": "uint32",
              "name": "hp",
              "type": "uint32"
            },
            {
              "internalType": "uint32",
              "name": "atk",
              "type": "uint32"
            },
            {
              "internalType": "uint32",
              "name": "def",
              "type": "uint32"
            },
            {
              "internalType": "uint32",
              "name": "inte",
              "type": "uint32"
            },
            {
              "internalType": "uint32",
              "name": "mgr",
              "type": "uint32"
            },
            {
              "internalType": "uint32",
              "name": "agl",
              "type": "uint32"
            }
          ],
          "internalType": "struct IPromptMonsters.Monster",
          "name": "monster_",
          "type": "tuple"
        }
      ],
      "name": "generateMonster",
      "outputs": [],
      "stateMutability": "nonpayable",
      "type": "function"
    },
    {
      "inputs": [
        {
          "internalType": "uint256",
          "name": "tokenId",
          "type": "uint256"
        }
      ],
      "name": "getApproved",
      "outputs": [
        {
          "internalType": "address",
          "name": "",
          "type": "address"
        }
      ],
      "stateMutability": "view",
      "type": "function"
    },
    {
      "inputs": [],
      "name": "getErc20",
      "outputs": [
        {
          "internalType": "contract IERC20",
          "name": "returnValue",
          "type": "address"
        }
      ],
      "stateMutability": "view",
      "type": "function"
    },
    {
      "inputs": [],
      "name": "getMintPrice",
      "outputs": [
        {
          "internalType": "uint256",
          "name": "returnValue",
          "type": "uint256"
        }
      ],
      "stateMutability": "view",
      "type": "function"
    },
    {
      "inputs": [
        {
          "internalType": "address[]",
          "name": "resurrectionPrompts",
          "type": "address[]"
        }
      ],
      "name": "getMinteds",
      "outputs": [
        {
          "internalType": "bool[]",
          "name": "returnValue",
          "type": "bool[]"
        }
      ],
      "stateMutability": "view",
      "type": "function"
    },
    {
      "inputs": [
        {
          "internalType": "address[]",
          "name": "resurrectionPrompts_",
          "type": "address[]"
        }
      ],
      "name": "getMonsterExtensions",
      "outputs": [
        {
          "components": [
            {
              "internalType": "string",
              "name": "feature",
              "type": "string"
            },
            {
              "internalType": "string",
              "name": "name",
              "type": "string"
            },
            {
              "internalType": "string",
              "name": "flavor",
              "type": "string"
            },
            {
              "internalType": "string[]",
              "name": "skills",
              "type": "string[]"
            },
            {
              "internalType": "uint32",
              "name": "lv",
              "type": "uint32"
            },
            {
              "internalType": "uint32",
              "name": "hp",
              "type": "uint32"
            },
            {
              "internalType": "uint32",
              "name": "atk",
              "type": "uint32"
            },
            {
              "internalType": "uint32",
              "name": "def",
              "type": "uint32"
            },
            {
              "internalType": "uint32",
              "name": "inte",
              "type": "uint32"
            },
            {
              "internalType": "uint32",
              "name": "mgr",
              "type": "uint32"
            },
            {
              "internalType": "uint32",
              "name": "agl",
              "type": "uint32"
            },
            {
              "internalType": "uint32[]",
              "name": "skillTypes",
              "type": "uint32[]"
            },
            {
              "internalType": "address",
              "name": "resurrectionPrompt",
              "type": "address"
            }
          ],
          "internalType": "struct IPromptMonstersExtension.MonsterExtension[]",
          "name": "monsterExtensions",
          "type": "tuple[]"
        }
      ],
      "stateMutability": "view",
      "type": "function"
    },
    {
      "inputs": [
        {
          "internalType": "uint256[]",
          "name": "tokenIds",
          "type": "uint256[]"
        }
      ],
      "name": "getMonsters",
      "outputs": [
        {
          "components": [
            {
              "internalType": "string",
              "name": "feature",
              "type": "string"
            },
            {
              "internalType": "string",
              "name": "name",
              "type": "string"
            },
            {
              "internalType": "string",
              "name": "flavor",
              "type": "string"
            },
            {
              "internalType": "string[]",
              "name": "skills",
              "type": "string[]"
            },
            {
              "internalType": "uint32",
              "name": "lv",
              "type": "uint32"
            },
            {
              "internalType": "uint32",
              "name": "hp",
              "type": "uint32"
            },
            {
              "internalType": "uint32",
              "name": "atk",
              "type": "uint32"
            },
            {
              "internalType": "uint32",
              "name": "def",
              "type": "uint32"
            },
            {
              "internalType": "uint32",
              "name": "inte",
              "type": "uint32"
            },
            {
              "internalType": "uint32",
              "name": "mgr",
              "type": "uint32"
            },
            {
              "internalType": "uint32",
              "name": "agl",
              "type": "uint32"
            }
          ],
          "internalType": "struct IPromptMonsters.Monster[]",
          "name": "monsters",
          "type": "tuple[]"
        }
      ],
      "stateMutability": "view",
      "type": "function"
    },
    {
      "inputs": [],
      "name": "getMonstersTotalSupply",
      "outputs": [
        {
          "internalType": "uint256",
          "name": "totalSupply",
          "type": "uint256"
        }
      ],
      "stateMutability": "view",
      "type": "function"
    },
    {
      "inputs": [
        {
          "internalType": "address",
          "name": "owner",
          "type": "address"
        }
      ],
      "name": "getOwnerToTokenIds",
      "outputs": [
        {
          "internalType": "uint256[]",
          "name": "returnValue",
          "type": "uint256[]"
        }
      ],
      "stateMutability": "view",
      "type": "function"
    },
    {
      "inputs": [],
      "name": "getPaused",
      "outputs": [
        {
          "internalType": "bool",
          "name": "returnValue",
          "type": "bool"
        }
      ],
      "stateMutability": "view",
      "type": "function"
    },
    {
      "inputs": [],
      "name": "getPromptMonstersExtension",
      "outputs": [
        {
          "internalType": "contract IPromptMonstersExtension",
          "name": "returnValue",
          "type": "address"
        }
      ],
      "stateMutability": "view",
      "type": "function"
    },
    {
      "inputs": [],
      "name": "getPromptMonstersImage",
      "outputs": [
        {
          "internalType": "contract IPromptMonstersImage",
          "name": "returnValue",
          "type": "address"
        }
      ],
      "stateMutability": "view",
      "type": "function"
    },
    {
      "inputs": [],
      "name": "getPromptMonstersWallet",
      "outputs": [
        {
          "internalType": "address",
          "name": "returnValue",
          "type": "address"
        }
      ],
      "stateMutability": "view",
      "type": "function"
    },
    {
      "inputs": [
        {
          "internalType": "uint256[]",
          "name": "monsterIds_",
          "type": "uint256[]"
        }
      ],
      "name": "getResurrectionPrompts",
      "outputs": [
        {
          "internalType": "address[]",
          "name": "returnValue",
          "type": "address[]"
        }
      ],
      "stateMutability": "view",
      "type": "function"
    },
    {
      "inputs": [
        {
          "internalType": "bytes32",
          "name": "role",
          "type": "bytes32"
        }
      ],
      "name": "getRoleAdmin",
      "outputs": [
        {
          "internalType": "bytes32",
          "name": "",
          "type": "bytes32"
        }
      ],
      "stateMutability": "view",
      "type": "function"
    },
    {
      "inputs": [
        {
          "internalType": "bytes32",
          "name": "role",
          "type": "bytes32"
        },
        {
          "internalType": "uint256",
          "name": "index",
          "type": "uint256"
        }
      ],
      "name": "getRoleMember",
      "outputs": [
        {
          "internalType": "address",
          "name": "",
          "type": "address"
        }
      ],
      "stateMutability": "view",
      "type": "function"
    },
    {
      "inputs": [
        {
          "internalType": "bytes32",
          "name": "role",
          "type": "bytes32"
        }
      ],
      "name": "getRoleMemberCount",
      "outputs": [
        {
          "internalType": "uint256",
          "name": "",
          "type": "uint256"
        }
      ],
      "stateMutability": "view",
      "type": "function"
    },
    {
      "inputs": [
        {
          "internalType": "address[]",
          "name": "resurrectionPrompts",
          "type": "address[]"
        }
      ],
      "name": "getTokenIds",
      "outputs": [
        {
          "internalType": "uint256[]",
          "name": "returnValue",
          "type": "uint256[]"
        }
      ],
      "stateMutability": "view",
      "type": "function"
    },
    {
      "inputs": [
        {
          "internalType": "bytes32",
          "name": "role",
          "type": "bytes32"
        },
        {
          "internalType": "address",
          "name": "account",
          "type": "address"
        }
      ],
      "name": "grantRole",
      "outputs": [],
      "stateMutability": "nonpayable",
      "type": "function"
    },
    {
      "inputs": [
        {
          "internalType": "bytes32",
          "name": "role",
          "type": "bytes32"
        },
        {
          "internalType": "address",
          "name": "account",
          "type": "address"
        }
      ],
      "name": "hasRole",
      "outputs": [
        {
          "internalType": "bool",
          "name": "",
          "type": "bool"
        }
      ],
      "stateMutability": "view",
      "type": "function"
    },
    {
      "inputs": [
        {
          "internalType": "string",
          "name": "externalLink_",
          "type": "string"
        },
        {
          "internalType": "address",
          "name": "erc20Address_",
          "type": "address"
        },
        {
          "internalType": "uint256",
          "name": "mintPrice_",
          "type": "uint256"
        },
        {
          "internalType": "address",
          "name": "promptMonstersWallet_",
          "type": "address"
        }
      ],
      "name": "initialize",
      "outputs": [],
      "stateMutability": "nonpayable",
      "type": "function"
    },
    {
      "inputs": [
        {
          "internalType": "address",
          "name": "owner",
          "type": "address"
        },
        {
          "internalType": "address",
          "name": "operator",
          "type": "address"
        }
      ],
      "name": "isApprovedForAll",
      "outputs": [
        {
          "internalType": "bool",
          "name": "",
          "type": "bool"
        }
      ],
      "stateMutability": "view",
      "type": "function"
    },
    {
      "inputs": [
        {
          "internalType": "address",
          "name": "resurrectionPrompt",
          "type": "address"
        }
      ],
      "name": "mint",
      "outputs": [],
      "stateMutability": "nonpayable",
      "type": "function"
    },
    {
      "inputs": [],
      "name": "name",
      "outputs": [
        {
          "internalType": "string",
          "name": "",
          "type": "string"
        }
      ],
      "stateMutability": "view",
      "type": "function"
    },
    {
      "inputs": [
        {
          "internalType": "uint256",
          "name": "tokenId",
          "type": "uint256"
        }
      ],
      "name": "ownerOf",
      "outputs": [
        {
          "internalType": "address",
          "name": "",
          "type": "address"
        }
      ],
      "stateMutability": "view",
      "type": "function"
    },
    {
      "inputs": [],
      "name": "pause",
      "outputs": [],
      "stateMutability": "nonpayable",
      "type": "function"
    },
    {
      "inputs": [],
      "name": "proxiableUUID",
      "outputs": [
        {
          "internalType": "bytes32",
          "name": "",
          "type": "bytes32"
        }
      ],
      "stateMutability": "view",
      "type": "function"
    },
    {
      "inputs": [
        {
          "internalType": "bytes32",
          "name": "role",
          "type": "bytes32"
        },
        {
          "internalType": "address",
          "name": "account",
          "type": "address"
        }
      ],
      "name": "renounceRole",
      "outputs": [],
      "stateMutability": "nonpayable",
      "type": "function"
    },
    {
      "inputs": [
        {
          "internalType": "bytes32",
          "name": "role",
          "type": "bytes32"
        },
        {
          "internalType": "address",
          "name": "account",
          "type": "address"
        }
      ],
      "name": "revokeRole",
      "outputs": [],
      "stateMutability": "nonpayable",
      "type": "function"
    },
    {
      "inputs": [
        {
          "internalType": "address",
          "name": "from",
          "type": "address"
        },
        {
          "internalType": "address",
          "name": "to",
          "type": "address"
        },
        {
          "internalType": "uint256",
          "name": "tokenId",
          "type": "uint256"
        }
      ],
      "name": "safeTransferFrom",
      "outputs": [],
      "stateMutability": "nonpayable",
      "type": "function"
    },
    {
      "inputs": [
        {
          "internalType": "address",
          "name": "from",
          "type": "address"
        },
        {
          "internalType": "address",
          "name": "to",
          "type": "address"
        },
        {
          "internalType": "uint256",
          "name": "tokenId",
          "type": "uint256"
        },
        {
          "internalType": "bytes",
          "name": "data",
          "type": "bytes"
        }
      ],
      "name": "safeTransferFrom",
      "outputs": [],
      "stateMutability": "nonpayable",
      "type": "function"
    },
    {
      "inputs": [
        {
          "internalType": "address",
          "name": "operator",
          "type": "address"
        },
        {
          "internalType": "bool",
          "name": "approved",
          "type": "bool"
        }
      ],
      "name": "setApprovalForAll",
      "outputs": [],
      "stateMutability": "nonpayable",
      "type": "function"
    },
    {
      "inputs": [
        {
          "internalType": "address",
          "name": "newState_",
          "type": "address"
        }
      ],
      "name": "setErc20",
      "outputs": [],
      "stateMutability": "nonpayable",
      "type": "function"
    },
    {
      "inputs": [
        {
          "internalType": "string",
          "name": "newState_",
          "type": "string"
        }
      ],
      "name": "setExternalLink",
      "outputs": [],
      "stateMutability": "nonpayable",
      "type": "function"
    },
    {
      "inputs": [],
      "name": "setGameRole",
      "outputs": [],
      "stateMutability": "nonpayable",
      "type": "function"
    },
    {
      "inputs": [
        {
          "internalType": "uint256",
          "name": "newState_",
          "type": "uint256"
        }
      ],
      "name": "setMintPrice",
      "outputs": [],
      "stateMutability": "nonpayable",
      "type": "function"
    },
    {
      "inputs": [
        {
          "internalType": "address",
          "name": "resurrectionPrompt",
          "type": "address"
        },
        {
          "components": [
            {
              "internalType": "string",
              "name": "feature",
              "type": "string"
            },
            {
              "internalType": "string",
              "name": "name",
              "type": "string"
            },
            {
              "internalType": "string",
              "name": "flavor",
              "type": "string"
            },
            {
              "internalType": "string[]",
              "name": "skills",
              "type": "string[]"
            },
            {
              "internalType": "uint32",
              "name": "lv",
              "type": "uint32"
            },
            {
              "internalType": "uint32",
              "name": "hp",
              "type": "uint32"
            },
            {
              "internalType": "uint32",
              "name": "atk",
              "type": "uint32"
            },
            {
              "internalType": "uint32",
              "name": "def",
              "type": "uint32"
            },
            {
              "internalType": "uint32",
              "name": "inte",
              "type": "uint32"
            },
            {
              "internalType": "uint32",
              "name": "mgr",
              "type": "uint32"
            },
            {
              "internalType": "uint32",
              "name": "agl",
              "type": "uint32"
            }
          ],
          "internalType": "struct IPromptMonsters.Monster",
          "name": "newState_",
          "type": "tuple"
        }
      ],
      "name": "setMonsterHistory",
      "outputs": [],
      "stateMutability": "nonpayable",
      "type": "function"
    },
    {
      "inputs": [
        {
          "internalType": "address",
          "name": "newState_",
          "type": "address"
        }
      ],
      "name": "setPromptMonstersExtension",
      "outputs": [],
      "stateMutability": "nonpayable",
      "type": "function"
    },
    {
      "inputs": [
        {
          "internalType": "address",
          "name": "newState_",
          "type": "address"
        }
      ],
      "name": "setPromptMonstersImage",
      "outputs": [],
      "stateMutability": "nonpayable",
      "type": "function"
    },
    {
      "inputs": [
        {
          "internalType": "address",
          "name": "newState_",
          "type": "address"
        }
      ],
      "name": "setPromptMonstersWallet",
      "outputs": [],
      "stateMutability": "nonpayable",
      "type": "function"
    },
    {
      "inputs": [
        {
          "internalType": "uint256",
          "name": "tokenId",
          "type": "uint256"
        },
        {
          "internalType": "address",
          "name": "resurrectionPrompt",
          "type": "address"
        }
      ],
      "name": "setTokenIdToResurrectionPromptMap",
      "outputs": [],
      "stateMutability": "nonpayable",
      "type": "function"
    },
    {
      "inputs": [
        {
          "internalType": "bytes4",
          "name": "interfaceId",
          "type": "bytes4"
        }
      ],
      "name": "supportsInterface",
      "outputs": [
        {
          "internalType": "bool",
          "name": "",
          "type": "bool"
        }
      ],
      "stateMutability": "view",
      "type": "function"
    },
    {
      "inputs": [],
      "name": "symbol",
      "outputs": [
        {
          "internalType": "string",
          "name": "",
          "type": "string"
        }
      ],
      "stateMutability": "view",
      "type": "function"
    },
    {
      "inputs": [
        {
          "internalType": "uint256",
          "name": "tokenId_",
          "type": "uint256"
        }
      ],
      "name": "tokenURI",
      "outputs": [
        {
          "internalType": "string",
          "name": "uri",
          "type": "string"
        }
      ],
      "stateMutability": "view",
      "type": "function"
    },
    {
      "inputs": [
        {
          "internalType": "address",
          "name": "from",
          "type": "address"
        },
        {
          "internalType": "address",
          "name": "to",
          "type": "address"
        },
        {
          "internalType": "uint256",
          "name": "tokenId",
          "type": "uint256"
        }
      ],
      "name": "transferFrom",
      "outputs": [],
      "stateMutability": "nonpayable",
      "type": "function"
    },
    {
      "inputs": [],
      "name": "unpause",
      "outputs": [],
      "stateMutability": "nonpayable",
      "type": "function"
    },
    {
      "inputs": [
        {
          "internalType": "address",
          "name": "newImplementation",
          "type": "address"
        }
      ],
      "name": "upgradeTo",
      "outputs": [],
      "stateMutability": "nonpayable",
      "type": "function"
    },
    {
      "inputs": [
        {
          "internalType": "address",
          "name": "newImplementation",
          "type": "address"
        },
        {
          "internalType": "bytes",
          "name": "data",
          "type": "bytes"
        }
      ],
      "name": "upgradeToAndCall",
      "outputs": [],
      "stateMutability": "payable",
      "type": "function"
    }
  ],
  "bytecode": "0x60a0604052306080523480156200001557600080fd5b506200002062000026565b620000e8565b600054610100900460ff1615620000935760405162461bcd60e51b815260206004820152602760248201527f496e697469616c697a61626c653a20636f6e747261637420697320696e697469604482015266616c697a696e6760c81b606482015260840160405180910390fd5b60005460ff9081161015620000e6576000805460ff191660ff9081179091556040519081527f7f26b83ff96e1f2b6a682f133852f6798a09c465da95921460cefb38474024989060200160405180910390a15b565b608051615d706200012060003960008181611224015281816112640152818161141c0152818161145c01526114eb0152615d706000f3fe6080604052600436106103355760003560e01c80637af148c0116101ab578063b0173096116100f7578063e4bab3f511610095578063ee9b80a41161006f578063ee9b80a4146109cd578063eeeaa008146109ed578063f4a0a52814610a0c578063f7d4ae3414610a2c57600080fd5b8063e4bab3f51461094f578063e8a3d4851461096f578063e985e9c51461098457600080fd5b8063bacc06aa116100d1578063bacc06aa146108c2578063c87b56dd146108ef578063ca15c8731461090f578063d547741f1461092f57600080fd5b8063b017309614610848578063b2664c2e14610875578063b88d4fde146108a257600080fd5b806395d89b4111610164578063a217fddf1161013e578063a217fddf146107de578063a22cb465146107f3578063a7f93ebd14610813578063a8ef29561461082957600080fd5b806395d89b41146107895780639a8baf2f1461079e578063a11adfe7146107be57600080fd5b80637af148c0146106d55780637e9132ea146106f457806383186465146107145780638456cb59146107345780639010d07c1461074957806391d148541461076957600080fd5b806336568abe1161028557806352dd29d21161022357806364cb5fd2116101fd57806364cb5fd2146106555780636805b84b146106755780636a6278421461069557806370a08231146106b557600080fd5b806352dd29d2146105ff57806355b09456146106155780636352211e1461063557600080fd5b806342842e0e1161025f57806342842e0e1461059757806342966c68146105b75780634f1ef286146105d757806352d1902d146105ea57600080fd5b806336568abe146105425780633659cfe6146105625780633f4ba83a1461058257600080fd5b80631b80ef7a116102f2578063248a9ca3116102cc578063248a9ca3146104a557806327fde6d6146104e35780632f2ff15d1461050257806333a512a41461052257600080fd5b80631b80ef7a146104385780631f9179211461046557806323b872dd1461048557600080fd5b806301ffc9a71461033a578063038d18d81461036f57806306fdde0314610391578063081812fc146103b3578063095ea7b3146103eb5780630fd7efc41461040b575b600080fd5b34801561034657600080fd5b5061035a6103553660046146cc565b610a41565b60405190151581526020015b60405180910390f35b34801561037b57600080fd5b5061038f61038a3660046146fe565b610a52565b005b34801561039d57600080fd5b506103a6610ad7565b604051610366919061476b565b3480156103bf57600080fd5b506103d36103ce36600461477e565b610b69565b6040516001600160a01b039091168152602001610366565b3480156103f757600080fd5b5061038f610406366004614797565b610b90565b34801561041757600080fd5b5061042b6104263660046146fe565b610caa565b60405161036691906147c3565b34801561044457600080fd5b506104586104533660046148bc565b610d17565b60405161036691906149e5565b34801561047157600080fd5b5061038f610480366004614bc2565b610eb2565b34801561049157600080fd5b5061038f6104a0366004614bf6565b610f99565b3480156104b157600080fd5b506104d56104c036600461477e565b60009081526097602052604090206001015490565b604051908152602001610366565b3480156104ef57600080fd5b5061019d546001600160a01b03166103d3565b34801561050e57600080fd5b5061038f61051d366004614c37565b610fca565b34801561052e57600080fd5b5061038f61053d366004614d13565b610fef565b34801561054e57600080fd5b5061038f61055d366004614c37565b61119c565b34801561056e57600080fd5b5061038f61057d3660046146fe565b61121a565b34801561058e57600080fd5b5061038f6112f9565b3480156105a357600080fd5b5061038f6105b2366004614bf6565b6113a4565b3480156105c357600080fd5b5061038f6105d236600461477e565b6113bf565b61038f6105e5366004614e81565b611412565b3480156105f657600080fd5b506104d56114de565b34801561060b57600080fd5b50610198546104d5565b34801561062157600080fd5b5061038f610630366004614ed0565b611591565b34801561064157600080fd5b506103d361065036600461477e565b611753565b34801561066157600080fd5b5061038f6106703660046146fe565b6117b3565b34801561068157600080fd5b5061019a54600160a01b900460ff1661035a565b3480156106a157600080fd5b5061038f6106b03660046146fe565b61182f565b3480156106c157600080fd5b506104d56106d03660046146fe565b611efd565b3480156106e157600080fd5b50610191546001600160a01b03166103d3565b34801561070057600080fd5b5061038f61070f366004614d13565b611f83565b34801561072057600080fd5b5061038f61072f36600461477e565b6124b3565b34801561074057600080fd5b5061038f612534565b34801561075557600080fd5b506103d3610764366004614f3b565b6125a6565b34801561077557600080fd5b5061035a610784366004614c37565b6125c5565b34801561079557600080fd5b506103a66125f0565b3480156107aa57600080fd5b5061038f6107b9366004614c37565b6125ff565b3480156107ca57600080fd5b5061042b6107d93660046148bc565b6126f2565b3480156107ea57600080fd5b506104d5600081565b3480156107ff57600080fd5b5061038f61080e366004614f6b565b6127ab565b34801561081f57600080fd5b50610193546104d5565b34801561083557600080fd5b5061019a546001600160a01b03166103d3565b34801561085457600080fd5b506108686108633660046148bc565b6127b6565b6040516103669190614f99565b34801561088157600080fd5b50610895610890366004614fd3565b612881565b6040516103669190615164565b3480156108ae57600080fd5b5061038f6108bd3660046151c6565b612c98565b3480156108ce57600080fd5b506108e26108dd366004614fd3565b612cd0565b6040516103669190615231565b3480156108fb57600080fd5b506103a661090a36600461477e565b612d97565b34801561091b57600080fd5b506104d561092a36600461477e565b612e3f565b34801561093b57600080fd5b5061038f61094a366004614c37565b612e56565b34801561095b57600080fd5b5061038f61096a3660046146fe565b612e7b565b34801561097b57600080fd5b506103a6612ef3565b34801561099057600080fd5b5061035a61099f366004615272565b6001600160a01b039182166000908152606a6020908152604080832093909416825291909152205460ff1690565b3480156109d957600080fd5b5061038f6109e83660046146fe565b612f7a565b3480156109f957600080fd5b50610192546001600160a01b03166103d3565b348015610a1857600080fd5b5061038f610a2736600461477e565b612ff2565b348015610a3857600080fd5b5061038f61303e565b6000610a4c82613071565b92915050565b6000610a5d81613096565b61019a80546001600160a01b038481166001600160a01b031983161790925516610a843390565b61019a54604080516001600160a01b038581168252928316602082015292909116917f8cd3b162ee77219f8a05a08a052b90a5e1d7a0781f265182421bc8563f823bbc91015b60405180910390a2505050565b606060658054610ae6906152a0565b80601f0160208091040260200160405190810160405280929190818152602001828054610b12906152a0565b8015610b5f5780601f10610b3457610100808354040283529160200191610b5f565b820191906000526020600020905b815481529060010190602001808311610b4257829003601f168201915b5050505050905090565b6000610b74826130a0565b506000908152606960205260409020546001600160a01b031690565b6000610b9b82611753565b9050806001600160a01b0316836001600160a01b031603610c0d5760405162461bcd60e51b815260206004820152602160248201527f4552433732313a20617070726f76616c20746f2063757272656e74206f776e656044820152603960f91b60648201526084015b60405180910390fd5b336001600160a01b0382161480610c295750610c29813361099f565b610c9b5760405162461bcd60e51b815260206004820152603d60248201527f4552433732313a20617070726f76652063616c6c6572206973206e6f7420746f60448201527f6b656e206f776e6572206f7220617070726f76656420666f7220616c6c0000006064820152608401610c04565b610ca583836130ff565b505050565b6001600160a01b03811660009081526101976020908152604091829020805483518184028101840190945280845260609392830182828015610d0b57602002820191906000526020600020905b815481526020019060010190808311610cf7575b50505050509050919050565b8051606090806001600160401b03811115610d3457610d34614807565b604051908082528060200260200182016040528015610dcd57816020015b604080516101a0810182526060808252602080830182905292820181905280820181905260006080830181905260a0830181905260c0830181905260e083018190526101008301819052610120830181905261014083018190526101608301919091526101808201528252600019909201910181610d525790505b50915060005b81811015610eab576000848281518110610def57610def6152da565b60209081029190910181015161019d546001600160a01b0380831660009081526101969094526040938490209351633184613360e21b8152929450169163c61184cc91610e40918591600401615494565b600060405180830381865afa158015610e5d573d6000803e3d6000fd5b505050506040513d6000823e601f3d908101601f19168201604052610e8591908101906155f6565b848381518110610e9757610e976152da565b602090810291909101015250600101610dd3565b5050919050565b6000610ebd81613096565b60006101948054610ecd906152a0565b80601f0160208091040260200160405190810160405280929190818152602001828054610ef9906152a0565b8015610f465780601f10610f1b57610100808354040283529160200191610f46565b820191906000526020600020905b815481529060010190602001808311610f2957829003601f168201915b50505050509050826101949081610f5d91906157d3565b50336001600160a01b03167ffceab947acbd3281d41fa085ba6d9503467fabd9e3d96e3ee0dbf6f8b04a9ca48285604051610aca929190615892565b610fa3338261316d565b610fbf5760405162461bcd60e51b8152600401610c04906158b7565b610ca58383836131ec565b600082815260976020526040902060010154610fe581613096565b610ca5838361335d565b61019e54610ffc81613096565b61100461337f565b6001600160a01b0383166000908152610196602052604090208251839190819061102e90826157d3565b506020820151600182019061104390826157d3565b506040820151600282019061105890826157d3565b50606082015180516110749160038401916020909101906145f9565b5060808201516004909101805460a084015160c085015160e08601516101008701516101208801516101409098015163ffffffff908116600160c01b0263ffffffff60c01b19998216600160a01b0263ffffffff60a01b19938316600160801b029390931667ffffffffffffffff60801b19948316600160601b0263ffffffff60601b19968416600160401b029690961667ffffffffffffffff60401b199784166401000000000267ffffffffffffffff1990991693909a169290921796909617949094169690961791909117161792909217929092161790556040516001600160a01b038416907fff44cc285b2217920f739fd55ee2013963427c0fb71f0d49dc99cfd0c7b8325e90611189908590615904565b60405180910390a2610ca5600161015f55565b6001600160a01b038116331461120c5760405162461bcd60e51b815260206004820152602f60248201527f416363657373436f6e74726f6c3a2063616e206f6e6c792072656e6f756e636560448201526e103937b632b9903337b91039b2b63360891b6064820152608401610c04565b61121682826133e2565b5050565b6001600160a01b037f00000000000000000000000000000000000000000000000000000000000000001630036112625760405162461bcd60e51b8152600401610c0490615917565b7f00000000000000000000000000000000000000000000000000000000000000006001600160a01b03166112ab600080516020615cf4833981519152546001600160a01b031690565b6001600160a01b0316146112d15760405162461bcd60e51b8152600401610c0490615963565b6112da81613404565b604080516000808252602082019092526112f69183919061340f565b50565b600061130481613096565b61019a54600160a01b900460ff166113555760405162461bcd60e51b815260206004820152601460248201527314185d5cd8589b194e881b9bdd081c185d5cd95960621b6044820152606401610c04565b61019a805460ff60a01b191690557f5db9ee0a495bf2e6ff9c91a7834c1ba4fdd244a5e8aa4e537bd38aeae4b073aa335b6040516001600160a01b03909116815260200160405180910390a150565b610ca583838360405180602001604052806000815250612c98565b6113c761337f565b61019a54600160a01b900460ff16156113f25760405162461bcd60e51b8152600401610c04906159af565b611407336114016000806125a6565b836113a4565b6112f6600161015f55565b6001600160a01b037f000000000000000000000000000000000000000000000000000000000000000016300361145a5760405162461bcd60e51b8152600401610c0490615917565b7f00000000000000000000000000000000000000000000000000000000000000006001600160a01b03166114a3600080516020615cf4833981519152546001600160a01b031690565b6001600160a01b0316146114c95760405162461bcd60e51b8152600401610c0490615963565b6114d282613404565b6112168282600161340f565b6000306001600160a01b037f0000000000000000000000000000000000000000000000000000000000000000161461157e5760405162461bcd60e51b815260206004820152603860248201527f555550535570677261646561626c653a206d757374206e6f742062652063616c60448201527f6c6564207468726f7567682064656c656761746563616c6c00000000000000006064820152608401610c04565b50600080516020615cf483398151915290565b600054610100900460ff16158080156115b15750600054600160ff909116105b806115cb5750303b1580156115cb575060005460ff166001145b61162e5760405162461bcd60e51b815260206004820152602e60248201527f496e697469616c697a61626c653a20636f6e747261637420697320616c72656160448201526d191e481a5b9a5d1a585b1a5e995960921b6064820152608401610c04565b6000805460ff191660011790558015611651576000805461ff0019166101001790555b61169d6040518060400160405280600f81526020016e50726f6d7074204d6f6e737465727360881b8152506040518060400160405280600381526020016226a7a760e91b81525061357a565b6116a56135ab565b6116ad6135ab565b6116b56135d4565b6116c060003361335d565b6101946116cd86826157d3565b5061019180546001600160a01b038087166001600160a01b031992831617909255610193859055610192805492851692909116919091179055801561174c576000805461ff0019169055604051600181527f7f26b83ff96e1f2b6a682f133852f6798a09c465da95921460cefb38474024989060200160405180910390a15b5050505050565b6000818152606760205260408120546001600160a01b031680610a4c5760405162461bcd60e51b8152602060048201526018602482015277115490cdcc8c4e881a5b9d985b1a59081d1bdad95b88125160421b6044820152606401610c04565b60006117be81613096565b61019d80546001600160a01b038481166001600160a01b0319831617909255166117e53390565b61019d54604080516001600160a01b038581168252928316602082015292909116917f0396085acd8a6b3f499308bb193423ed9df5aaa3f8c84acc4551b87d6200371f9101610aca565b61019a54600160a01b900460ff161561185a5760405162461bcd60e51b8152600401610c04906159af565b6001600160a01b038116600090815261019b602052604090205460ff16156118db5760405162461bcd60e51b815260206004820152602e60248201527f50726f6d70744d6f6e73746572733a2054686973206d6f6e737465722069732060448201526d185b1c9958591e481b5a5b9d195960921b6064820152608401610c04565b610198546001810161193d5760405162461bcd60e51b815260206004820152602560248201527f50726f6d70744d6f6e73746572733a20746f6b656e20494420697320746f6f206044820152646c6172676560d81b6064820152608401610c04565b6001600160a01b0382166000908152610196602052604080822081516101608101909252805482908290611970906152a0565b80601f016020809104026020016040519081016040528092919081815260200182805461199c906152a0565b80156119e95780601f106119be576101008083540402835291602001916119e9565b820191906000526020600020905b8154815290600101906020018083116119cc57829003601f168201915b50505050508152602001600182018054611a02906152a0565b80601f0160208091040260200160405190810160405280929190818152602001828054611a2e906152a0565b8015611a7b5780601f10611a5057610100808354040283529160200191611a7b565b820191906000526020600020905b815481529060010190602001808311611a5e57829003601f168201915b50505050508152602001600282018054611a94906152a0565b80601f0160208091040260200160405190810160405280929190818152602001828054611ac0906152a0565b8015611b0d5780601f10611ae257610100808354040283529160200191611b0d565b820191906000526020600020905b815481529060010190602001808311611af057829003601f168201915b5050505050815260200160038201805480602002602001604051908101604052809291908181526020016000905b82821015611be7578382906000526020600020018054611b5a906152a0565b80601f0160208091040260200160405190810160405280929190818152602001828054611b86906152a0565b8015611bd35780601f10611ba857610100808354040283529160200191611bd3565b820191906000526020600020905b815481529060010190602001808311611bb657829003601f168201915b505050505081526020019060010190611b3b565b505050908252506004919091015463ffffffff8082166020840152640100000000820481166040840152600160401b820481166060840152600160601b82048116608080850191909152600160801b8304821660a0850152600160a01b8304821660c0850152600160c01b909204811660e09093019290925282015191925016600003611cc75760405162461bcd60e51b815260206004820152602860248201527f50726f6d70744d6f6e73746572733a206d6f6e73746572206973206e6f742067604482015267195b995c985d195960c21b6064820152608401610c04565b6101988054600181018255600091909152815182916005027f3f539f465397ab387efa93a617e37005205c037386b5b474fcfac82f47f77f0d01908190611d0e90826157d3565b5060208201516001820190611d2390826157d3565b5060408201516002820190611d3890826157d3565b5060608201518051611d549160038401916020909101906145f9565b5060808201516004909101805460a084015160c085015160e08601516101008701516101208801516101409098015163ffffffff908116600160c01b0263ffffffff60c01b19998216600160a01b0263ffffffff60a01b19938316600160801b029390931667ffffffffffffffff60801b19948316600160601b0263ffffffff60601b19968416600160401b029690961667ffffffffffffffff60401b199784166401000000000267ffffffffffffffff199099169a84169a909a179790971795909516979097179290921716929092179190911793909316929092179091556001600160a01b0380851660008181526101996020908152604080832088905587835261019c825280832080546001600160a01b0319168517905592825261019b905220805460ff19166001179055610192546101935461019154611ea29490841693339316919061360316565b611eac338361365d565b81836001600160a01b0316336001600160a01b03167fe9ee779cbe62e587b706f33e99b7b8cd23e7880147261deea52b25e3ecf6a5f384604051611ef09190615904565b60405180910390a4505050565b60006001600160a01b038216611f675760405162461bcd60e51b815260206004820152602960248201527f4552433732313a2061646472657373207a65726f206973206e6f7420612076616044820152683634b21037bbb732b960b91b6064820152608401610c04565b506001600160a01b031660009081526068602052604090205490565b6000611f8e81613096565b6001600160a01b0383166000908152610196602052604080822081516101608101909252805482908290611fc1906152a0565b80601f0160208091040260200160405190810160405280929190818152602001828054611fed906152a0565b801561203a5780601f1061200f5761010080835404028352916020019161203a565b820191906000526020600020905b81548152906001019060200180831161201d57829003601f168201915b50505050508152602001600182018054612053906152a0565b80601f016020809104026020016040519081016040528092919081815260200182805461207f906152a0565b80156120cc5780601f106120a1576101008083540402835291602001916120cc565b820191906000526020600020905b8154815290600101906020018083116120af57829003601f168201915b505050505081526020016002820180546120e5906152a0565b80601f0160208091040260200160405190810160405280929190818152602001828054612111906152a0565b801561215e5780601f106121335761010080835404028352916020019161215e565b820191906000526020600020905b81548152906001019060200180831161214157829003601f168201915b5050505050815260200160038201805480602002602001604051908101604052809291908181526020016000905b828210156122385783829060005260206000200180546121ab906152a0565b80601f01602080910402602001604051908101604052809291908181526020018280546121d7906152a0565b80156122245780601f106121f957610100808354040283529160200191612224565b820191906000526020600020905b81548152906001019060200180831161220757829003601f168201915b50505050508152602001906001019061218c565b505050908252506004919091015463ffffffff8082166020840152640100000000820481166040840152600160401b820481166060840152600160601b82048116608080850191909152600160801b8304821660a0850152600160a01b8304821660c0850152600160c01b909204811660e090930192909252820151919250161561231a5760405162461bcd60e51b815260206004820152602c60248201527f50726f6d70744d6f6e73746572733a206d6f6e7374657220697320616c72656160448201526b191e4819d95b995c985d195960a21b6064820152608401610c04565b6001600160a01b0384166000908152610196602052604090208351849190819061234490826157d3565b506020820151600182019061235990826157d3565b506040820151600282019061236e90826157d3565b506060820151805161238a9160038401916020909101906145f9565b5060808201516004909101805460a084015160c085015160e08601516101008701516101208801516101409098015163ffffffff908116600160c01b0263ffffffff60c01b19998216600160a01b0263ffffffff60a01b19938316600160801b029390931667ffffffffffffffff60801b19948316600160601b0263ffffffff60601b19968416600160401b029690961667ffffffffffffffff60401b199784166401000000000267ffffffffffffffff1990991693909a1692909217969096179490941696909617919091171617929092179290921617905561246b3390565b6001600160a01b03167f64973f95ccf4d61cd6e4873db3a572c9a39fba2329a28e96f353f7fca37c292682856040516124a59291906159d9565b60405180910390a250505050565b6000818152606760205260409020546001600160a01b03161515806124d9575060001981145b6112f65760405162461bcd60e51b815260206004820152602660248201527f50726f6d70744d6f6e73746572733a206d6f6e7374657220646f6573206e6f7460448201526508195e1a5cdd60d21b6064820152608401610c04565b600061253f81613096565b61019a54600160a01b900460ff161561256a5760405162461bcd60e51b8152600401610c04906159af565b61019a805460ff60a01b1916600160a01b1790557f62e78cea01bee320cd4e420270b5ea74000d11b0c9f74754ebdbfc544b05a2586113863390565b600082815260c9602052604081206125be9083613677565b9392505050565b60009182526097602090815260408084206001600160a01b0393909316845291905290205460ff1690565b606060668054610ae6906152a0565b600061260a81613096565b600083815261019c60205260409020546001600160a01b031680156126835760405162461bcd60e51b815260206004820152602960248201527f50726f6d70744d6f6e73746572733a206d6f6e7374657220697320616c726561604482015268191e481b5a5b9d195960ba1b6064820152608401610c04565b600084815261019c6020526040902080546001600160a01b0319166001600160a01b03851617905533604080516001600160a01b038481168252868116602083015292909216917fe5d69c008031be053a6640e34b83274d391e1424d9013c83a5b26d6d0949aa4691016124a5565b8051606090806001600160401b0381111561270f5761270f614807565b604051908082528060200260200182016040528015612738578160200160208202803683370190505b50915060005b81811015610eab57610199600085838151811061275d5761275d6152da565b60200260200101516001600160a01b03166001600160a01b0316815260200190815260200160002054838281518110612798576127986152da565b602090810291909101015260010161273e565b611216338383613683565b8051606090806001600160401b038111156127d3576127d3614807565b6040519080825280602002602001820160405280156127fc578160200160208202803683370190505b50915060005b81811015610eab5761019b6000858381518110612821576128216152da565b60200260200101516001600160a01b03166001600160a01b0316815260200190815260200160002060009054906101000a900460ff16838281518110612869576128696152da565b91151560209283029190910190910152600101612802565b8051606090806001600160401b0381111561289e5761289e614807565b60405190808252806020026020018201604052801561292457816020015b6040805161016081018252606080825260208083018290529282018190528082015260006080820181905260a0820181905260c0820181905260e082018190526101008201819052610120820181905261014082015282526000199092019101816128bc5790505b50915060005b81811015610eab57610198848281518110612947576129476152da565b60200260200101518154811061295f5761295f6152da565b906000526020600020906005020160405180610160016040529081600082018054612989906152a0565b80601f01602080910402602001604051908101604052809291908181526020018280546129b5906152a0565b8015612a025780601f106129d757610100808354040283529160200191612a02565b820191906000526020600020905b8154815290600101906020018083116129e557829003601f168201915b50505050508152602001600182018054612a1b906152a0565b80601f0160208091040260200160405190810160405280929190818152602001828054612a47906152a0565b8015612a945780601f10612a6957610100808354040283529160200191612a94565b820191906000526020600020905b815481529060010190602001808311612a7757829003601f168201915b50505050508152602001600282018054612aad906152a0565b80601f0160208091040260200160405190810160405280929190818152602001828054612ad9906152a0565b8015612b265780601f10612afb57610100808354040283529160200191612b26565b820191906000526020600020905b815481529060010190602001808311612b0957829003601f168201915b5050505050815260200160038201805480602002602001604051908101604052809291908181526020016000905b82821015612c00578382906000526020600020018054612b73906152a0565b80601f0160208091040260200160405190810160405280929190818152602001828054612b9f906152a0565b8015612bec5780601f10612bc157610100808354040283529160200191612bec565b820191906000526020600020905b815481529060010190602001808311612bcf57829003601f168201915b505050505081526020019060010190612b54565b505050908252506004919091015463ffffffff8082166020840152640100000000820481166040840152600160401b820481166060840152600160601b820481166080840152600160801b8204811660a0840152600160a01b8204811660c0840152600160c01b9091041660e0909101528351849083908110612c8557612c856152da565b602090810291909101015260010161292a565b612ca2338361316d565b612cbe5760405162461bcd60e51b8152600401610c04906158b7565b612cca84848484613751565b50505050565b8051606090806001600160401b03811115612ced57612ced614807565b604051908082528060200260200182016040528015612d16578160200160208202803683370190505b50915060005b81811015610eab5761019c6000858381518110612d3b57612d3b6152da565b6020026020010151815260200190815260200160002060009054906101000a90046001600160a01b0316838281518110612d7757612d776152da565b6001600160a01b0390921660209283029190910190910152600101612d1c565b6060612da2826130a0565b61019a5461019880546001600160a01b039092169163b688876c91859182908110612dcf57612dcf6152da565b90600052602060002090600502016040518363ffffffff1660e01b8152600401612dfa9291906159fe565b600060405180830381865afa158015612e17573d6000803e3d6000fd5b505050506040513d6000823e601f3d908101601f19168201604052610a4c9190810190615a17565b600081815260c960205260408120610a4c90613784565b600082815260976020526040902060010154612e7181613096565b610ca583836133e2565b6000612e8681613096565b61019280546001600160a01b038481166001600160a01b031983161790925516612ead3390565b604080516001600160a01b038481168252868116602083015292909216917fc791f304f706b4012579cd651a8a0d930c30d117f42ee74327000e3fc75bfbbc9101610aca565b61019a546060906001600160a01b031663b2794520612f10610ad7565b6101946040518363ffffffff1660e01b8152600401612f30929190615a4b565b600060405180830381865afa158015612f4d573d6000803e3d6000fd5b505050506040513d6000823e601f3d908101601f19168201604052612f759190810190615a17565b905090565b6000612f8581613096565b61019180546001600160a01b038481166001600160a01b031983161790925516612fac3390565b604080516001600160a01b038481168252868116602083015292909216917f5ebe54482b2a8120482902e3bfe9ca1a913e9987bcb1f18c974dae585132a9549101610aca565b6000612ffd81613096565b610193805490839055604080518281526020810185905233917f55cc83342b4c144a74960fdf0dfe1a7af4cbb77aaccb471b088d5fe0bdad1d4c9101610aca565b600061304981613096565b507f6a64baf327d646d1bca72653e2a075d15fd6ac6d8cbd7f6ee03fc55875e0fa8861019e55565b60006001600160e01b03198216635a05180f60e01b1480610a4c5750610a4c8261378e565b6112f681336137b3565b6000818152606760205260409020546001600160a01b03166112f65760405162461bcd60e51b8152602060048201526018602482015277115490cdcc8c4e881a5b9d985b1a59081d1bdad95b88125160421b6044820152606401610c04565b600081815260696020526040902080546001600160a01b0319166001600160a01b038416908117909155819061313482611753565b6001600160a01b03167f8c5be1e5ebec7d5bd14f71427d1e84f3dd0314c0f7b2291e5b200ac8c7c3b92560405160405180910390a45050565b60008061317983611753565b9050806001600160a01b0316846001600160a01b031614806131c057506001600160a01b038082166000908152606a602090815260408083209388168352929052205460ff165b806131e45750836001600160a01b03166131d984610b69565b6001600160a01b0316145b949350505050565b826001600160a01b03166131ff82611753565b6001600160a01b0316146132255760405162461bcd60e51b8152600401610c0490615a70565b6001600160a01b0382166132875760405162461bcd60e51b8152602060048201526024808201527f4552433732313a207472616e7366657220746f20746865207a65726f206164646044820152637265737360e01b6064820152608401610c04565b613294838383600161380c565b826001600160a01b03166132a782611753565b6001600160a01b0316146132cd5760405162461bcd60e51b8152600401610c0490615a70565b600081815260696020908152604080832080546001600160a01b03199081169091556001600160a01b0387811680865260688552838620805460001901905590871680865283862080546001019055868652606790945282852080549092168417909155905184937fddf252ad1be2c89b69c2b068fc378daa952ba7f163c4a11628f55a4df523b3ef91a4505050565b6133678282613855565b600082815260c960205260409020610ca590826138db565b600261015f54036133d25760405162461bcd60e51b815260206004820152601f60248201527f5265656e7472616e637947756172643a207265656e7472616e742063616c6c006044820152606401610c04565b600261015f55565b600161015f55565b6133ec82826138f0565b600082815260c960205260409020610ca59082613957565b600061121681613096565b7f4910fdfa16fed3260ed0e7147f7cc6da11a60208b5b9406d12a635614ffd91435460ff161561344257610ca58361396c565b826001600160a01b03166352d1902d6040518163ffffffff1660e01b8152600401602060405180830381865afa92505050801561349c575060408051601f3d908101601f1916820190925261349991810190615ab5565b60015b6134ff5760405162461bcd60e51b815260206004820152602e60248201527f45524331393637557067726164653a206e657720696d706c656d656e7461746960448201526d6f6e206973206e6f74205555505360901b6064820152608401610c04565b600080516020615cf4833981519152811461356e5760405162461bcd60e51b815260206004820152602960248201527f45524331393637557067726164653a20756e737570706f727465642070726f786044820152681a58589b195555525160ba1b6064820152608401610c04565b50610ca5838383613a08565b600054610100900460ff166135a15760405162461bcd60e51b8152600401610c0490615ace565b6112168282613a2d565b600054610100900460ff166135d25760405162461bcd60e51b8152600401610c0490615ace565b565b600054610100900460ff166135fb5760405162461bcd60e51b8152600401610c0490615ace565b6135d2613a6d565b604080516001600160a01b0385811660248301528416604482015260648082018490528251808303909101815260849091019091526020810180516001600160e01b03166323b872dd60e01b179052612cca908590613a94565b611216828260405180602001604052806000815250613b66565b60006125be8383613b99565b816001600160a01b0316836001600160a01b0316036136e45760405162461bcd60e51b815260206004820152601960248201527f4552433732313a20617070726f766520746f2063616c6c6572000000000000006044820152606401610c04565b6001600160a01b038381166000818152606a6020908152604080832094871680845294825291829020805460ff191686151590811790915591519182527f17307eab39ab6107e8899845ad3d59bd9653f200f220920489ca2b5937696c31910160405180910390a3505050565b61375c8484846131ec565b61376884848484613bc3565b612cca5760405162461bcd60e51b8152600401610c0490615b19565b6000610a4c825490565b60006001600160e01b03198216637965db0b60e01b1480610a4c5750610a4c82613cc4565b6137bd82826125c5565b611216576137ca81613d14565b6137d5836020613d26565b6040516020016137e6929190615b6b565b60408051601f198184030181529082905262461bcd60e51b8252610c049160040161476b565b6001600160a01b038416613829576138248383613ec1565b612cca565b6001600160a01b038316613841576138248483613f06565b61384b8483613f06565b6138248383613ec1565b61385f82826125c5565b6112165760008281526097602090815260408083206001600160a01b03851684529091529020805460ff191660011790556138973390565b6001600160a01b0316816001600160a01b0316837f2f8788117e7eff1d82e926ec794901d17c78024a50270940304540a733656f0d60405160405180910390a45050565b60006125be836001600160a01b038416614044565b6138fa82826125c5565b156112165760008281526097602090815260408083206001600160a01b0385168085529252808320805460ff1916905551339285917ff6391f5c32d9c69d2a47ea670b442974b53935d1edc7fd64eb21e047a839171b9190a45050565b60006125be836001600160a01b038416614093565b6001600160a01b0381163b6139d95760405162461bcd60e51b815260206004820152602d60248201527f455243313936373a206e657720696d706c656d656e746174696f6e206973206e60448201526c1bdd08184818dbdb9d1c9858dd609a1b6064820152608401610c04565b600080516020615cf483398151915280546001600160a01b0319166001600160a01b0392909216919091179055565b613a1183614186565b600082511180613a1e5750805b15610ca557612cca83836141c6565b600054610100900460ff16613a545760405162461bcd60e51b8152600401610c0490615ace565b6065613a6083826157d3565b506066610ca582826157d3565b600054610100900460ff166133da5760405162461bcd60e51b8152600401610c0490615ace565b6000613ae9826040518060400160405280602081526020017f5361666545524332303a206c6f772d6c6576656c2063616c6c206661696c6564815250856001600160a01b03166142ba9092919063ffffffff16565b805190915015610ca55780806020019051810190613b079190615be0565b610ca55760405162461bcd60e51b815260206004820152602a60248201527f5361666545524332303a204552433230206f7065726174696f6e20646964206e6044820152691bdd081cdd58d8d9595960b21b6064820152608401610c04565b613b7083836142c9565b613b7d6000848484613bc3565b610ca55760405162461bcd60e51b8152600401610c0490615b19565b6000826000018281548110613bb057613bb06152da565b9060005260206000200154905092915050565b60006001600160a01b0384163b15613cb957604051630a85bd0160e11b81526001600160a01b0385169063150b7a0290613c07903390899088908890600401615bfd565b6020604051808303816000875af1925050508015613c42575060408051601f3d908101601f19168201909252613c3f91810190615c3a565b60015b613c9f573d808015613c70576040519150601f19603f3d011682016040523d82523d6000602084013e613c75565b606091505b508051600003613c975760405162461bcd60e51b8152600401610c0490615b19565b805181602001fd5b6001600160e01b031916630a85bd0160e11b1490506131e4565b506001949350505050565b60006001600160e01b031982166380ac58cd60e01b1480613cf557506001600160e01b03198216635b5e139f60e01b145b80610a4c57506301ffc9a760e01b6001600160e01b0319831614610a4c565b6060610a4c6001600160a01b03831660145b60606000613d35836002615c6d565b613d40906002615c84565b6001600160401b03811115613d5757613d57614807565b6040519080825280601f01601f191660200182016040528015613d81576020820181803683370190505b509050600360fc1b81600081518110613d9c57613d9c6152da565b60200101906001600160f81b031916908160001a905350600f60fb1b81600181518110613dcb57613dcb6152da565b60200101906001600160f81b031916908160001a9053506000613def846002615c6d565b613dfa906001615c84565b90505b6001811115613e72576f181899199a1a9b1b9c1cb0b131b232b360811b85600f1660108110613e2e57613e2e6152da565b1a60f81b828281518110613e4457613e446152da565b60200101906001600160f81b031916908160001a90535060049490941c93613e6b81615c97565b9050613dfd565b5083156125be5760405162461bcd60e51b815260206004820181905260248201527f537472696e67733a20686578206c656e67746820696e73756666696369656e746044820152606401610c04565b6001600160a01b039091166000908152610197602081815260408084208054610195845282862087875284529185208290559282526001810183559183529091200155565b6001600160a01b0382166000908152610197602052604081208054613f2d90600190615cae565b81548110613f3d57613f3d6152da565b60009182526020808320909101546001600160a01b038616835261019582526040808420868552909252912054909150828214613faf576001600160a01b038416600090815261019760205260409020805483919083908110613fa257613fa26152da565b6000918252602090912001555b6001600160a01b038416600090815261019760205260409020805480613fd757613fd7615cc1565b6000828152602080822083016000199081018390559092019092556001600160a01b038616825261019581526040808320868452909152812055818314612cca576001600160a01b0393909316600090815261019560209081526040808320938352929052209190915550565b600081815260018301602052604081205461408b57508154600181810184556000848152602080822090930184905584548482528286019093526040902091909155610a4c565b506000610a4c565b6000818152600183016020526040812054801561417c5760006140b7600183615cae565b85549091506000906140cb90600190615cae565b90508181146141305760008660000182815481106140eb576140eb6152da565b906000526020600020015490508087600001848154811061410e5761410e6152da565b6000918252602080832090910192909255918252600188019052604090208390555b855486908061414157614141615cc1565b600190038181906000526020600020016000905590558560010160008681526020019081526020016000206000905560019350505050610a4c565b6000915050610a4c565b61418f8161396c565b6040516001600160a01b038216907fbc7cd75a20ee27fd9adebab32041f755214dbc6bffa90cc0225b39da2e5c2d3b90600090a250565b60606001600160a01b0383163b61422e5760405162461bcd60e51b815260206004820152602660248201527f416464726573733a2064656c65676174652063616c6c20746f206e6f6e2d636f6044820152651b9d1c9858dd60d21b6064820152608401610c04565b600080846001600160a01b0316846040516142499190615cd7565b600060405180830381855af49150503d8060008114614284576040519150601f19603f3d011682016040523d82523d6000602084013e614289565b606091505b50915091506142b18282604051806060016040528060278152602001615d1460279139614462565b95945050505050565b60606131e4848460008561447b565b6001600160a01b03821661431f5760405162461bcd60e51b815260206004820181905260248201527f4552433732313a206d696e7420746f20746865207a65726f20616464726573736044820152606401610c04565b6000818152606760205260409020546001600160a01b0316156143845760405162461bcd60e51b815260206004820152601c60248201527f4552433732313a20746f6b656e20616c7265616479206d696e746564000000006044820152606401610c04565b61439260008383600161380c565b6000818152606760205260409020546001600160a01b0316156143f75760405162461bcd60e51b815260206004820152601c60248201527f4552433732313a20746f6b656e20616c7265616479206d696e746564000000006044820152606401610c04565b6001600160a01b038216600081815260686020908152604080832080546001019055848352606790915280822080546001600160a01b0319168417905551839291907fddf252ad1be2c89b69c2b068fc378daa952ba7f163c4a11628f55a4df523b3ef908290a45050565b606083156144715750816125be565b6125be8383614556565b6060824710156144dc5760405162461bcd60e51b815260206004820152602660248201527f416464726573733a20696e73756666696369656e742062616c616e636520666f6044820152651c8818d85b1b60d21b6064820152608401610c04565b600080866001600160a01b031685876040516144f89190615cd7565b60006040518083038185875af1925050503d8060008114614535576040519150601f19603f3d011682016040523d82523d6000602084013e61453a565b606091505b509150915061454b87838387614580565b979650505050505050565b8151156145665781518083602001fd5b8060405162461bcd60e51b8152600401610c04919061476b565b606083156145ef5782516000036145e8576001600160a01b0385163b6145e85760405162461bcd60e51b815260206004820152601d60248201527f416464726573733a2063616c6c20746f206e6f6e2d636f6e74726163740000006044820152606401610c04565b50816131e4565b6131e48383614556565b82805482825590600052602060002090810192821561463f579160200282015b8281111561463f578251829061462f90826157d3565b5091602001919060010190614619565b5061464b92915061464f565b5090565b8082111561464b576000614663828261466c565b5060010161464f565b508054614678906152a0565b6000825580601f10614688575050565b601f0160209004906000526020600020908101906112f691905b8082111561464b57600081556001016146a2565b6001600160e01b0319811681146112f657600080fd5b6000602082840312156146de57600080fd5b81356125be816146b6565b6001600160a01b03811681146112f657600080fd5b60006020828403121561471057600080fd5b81356125be816146e9565b60005b8381101561473657818101518382015260200161471e565b50506000910152565b6000815180845261475781602086016020860161471b565b601f01601f19169290920160200192915050565b6020815260006125be602083018461473f565b60006020828403121561479057600080fd5b5035919050565b600080604083850312156147aa57600080fd5b82356147b5816146e9565b946020939093013593505050565b6020808252825182820181905260009190848201906040850190845b818110156147fb578351835292840192918401916001016147df565b50909695505050505050565b634e487b7160e01b600052604160045260246000fd5b60405161016081016001600160401b038111828210171561484057614840614807565b60405290565b6040516101a081016001600160401b038111828210171561484057614840614807565b604051601f8201601f191681016001600160401b038111828210171561489157614891614807565b604052919050565b60006001600160401b038211156148b2576148b2614807565b5060051b60200190565b600060208083850312156148cf57600080fd5b82356001600160401b038111156148e557600080fd5b8301601f810185136148f657600080fd5b803561490961490482614899565b614869565b81815260059190911b8201830190838101908783111561492857600080fd5b928401925b8284101561454b578335614940816146e9565b8252928401929084019061492d565b600081518084526020808501808196508360051b8101915082860160005b8581101561499757828403895261498584835161473f565b9885019893509084019060010161496d565b5091979650505050505050565b600081518084526020808501945080840160005b838110156149da57815163ffffffff16875295820195908201906001016149b8565b509495945050505050565b60006020808301818452808551808352604092508286019150828160051b87010184880160005b83811015614b3c57603f1989840301855281516101a08151818652614a338287018261473f565b915050888201518582038a870152614a4b828261473f565b9150508782015185820389870152614a63828261473f565b91505060608083015186830382880152614a7d838261494f565b92505050608080830151614a988288018263ffffffff169052565b505060a08281015163ffffffff9081169187019190915260c08084015182169087015260e080840151821690870152610100808401518216908701526101208084015182169087015261014080840151909116908601526101608083015186830382880152614b0783826149a4565b92505050610180808301519250614b28818701846001600160a01b03169052565b509588019593505090860190600101614a0c565b509098975050505050505050565b60006001600160401b03821115614b6357614b63614807565b50601f01601f191660200190565b600082601f830112614b8257600080fd5b8135614b9061490482614b4a565b818152846020838601011115614ba557600080fd5b816020850160208301376000918101602001919091529392505050565b600060208284031215614bd457600080fd5b81356001600160401b03811115614bea57600080fd5b6131e484828501614b71565b600080600060608486031215614c0b57600080fd5b8335614c16816146e9565b92506020840135614c26816146e9565b929592945050506040919091013590565b60008060408385031215614c4a57600080fd5b823591506020830135614c5c816146e9565b809150509250929050565b600082601f830112614c7857600080fd5b81356020614c8861490483614899565b82815260059290921b84018101918181019086841115614ca757600080fd5b8286015b84811015614ce65780356001600160401b03811115614cca5760008081fd5b614cd88986838b0101614b71565b845250918301918301614cab565b509695505050505050565b63ffffffff811681146112f657600080fd5b8035614d0e81614cf1565b919050565b60008060408385031215614d2657600080fd5b8235614d31816146e9565b915060208301356001600160401b0380821115614d4d57600080fd5b908401906101608287031215614d6257600080fd5b614d6a61481d565b823582811115614d7957600080fd5b614d8588828601614b71565b825250602083013582811115614d9a57600080fd5b614da688828601614b71565b602083015250604083013582811115614dbe57600080fd5b614dca88828601614b71565b604083015250606083013582811115614de257600080fd5b614dee88828601614c67565b606083015250614e0060808401614d03565b6080820152614e1160a08401614d03565b60a0820152614e2260c08401614d03565b60c0820152614e3360e08401614d03565b60e08201526101009150614e48828401614d03565b828201526101209150614e5c828401614d03565b828201526101409150614e70828401614d03565b828201528093505050509250929050565b60008060408385031215614e9457600080fd5b8235614e9f816146e9565b915060208301356001600160401b03811115614eba57600080fd5b614ec685828601614b71565b9150509250929050565b60008060008060808587031215614ee657600080fd5b84356001600160401b03811115614efc57600080fd5b614f0887828801614b71565b9450506020850135614f19816146e9565b9250604085013591506060850135614f30816146e9565b939692955090935050565b60008060408385031215614f4e57600080fd5b50508035926020909101359150565b80151581146112f657600080fd5b60008060408385031215614f7e57600080fd5b8235614f89816146e9565b91506020830135614c5c81614f5d565b6020808252825182820181905260009190848201906040850190845b818110156147fb578351151583529284019291840191600101614fb5565b60006020808385031215614fe657600080fd5b82356001600160401b03811115614ffc57600080fd5b8301601f8101851361500d57600080fd5b803561501b61490482614899565b81815260059190911b8201830190838101908783111561503a57600080fd5b928401925b8284101561454b5783358252928401929084019061503f565b6000610160825181855261506e8286018261473f565b91505060208301518482036020860152615088828261473f565b915050604083015184820360408601526150a2828261473f565b915050606083015184820360608601526150bc828261494f565b91505060808301516150d6608086018263ffffffff169052565b5060a08301516150ee60a086018263ffffffff169052565b5060c083015161510660c086018263ffffffff169052565b5060e083015161511e60e086018263ffffffff169052565b506101008381015163ffffffff81168683015250506101208381015163ffffffff81168683015250506101408381015163ffffffff8116868301525b5090949350505050565b6000602080830181845280855180835260408601915060408160051b870101925083870160005b828110156151b957603f198886030184526151a7858351615058565b9450928501929085019060010161518b565b5092979650505050505050565b600080600080608085870312156151dc57600080fd5b84356151e7816146e9565b935060208501356151f7816146e9565b92506040850135915060608501356001600160401b0381111561521957600080fd5b61522587828801614b71565b91505092959194509250565b6020808252825182820181905260009190848201906040850190845b818110156147fb5783516001600160a01b03168352928401929184019160010161524d565b6000806040838503121561528557600080fd5b8235615290816146e9565b91506020830135614c5c816146e9565b600181811c908216806152b457607f821691505b6020821081036152d457634e487b7160e01b600052602260045260246000fd5b50919050565b634e487b7160e01b600052603260045260246000fd5b600081546152fd816152a0565b80855260206001838116801561531a576001811461533457615362565b60ff1985168884015283151560051b880183019550615362565b866000528260002060005b8581101561535a5781548a820186015290830190840161533f565b890184019650505b505050505092915050565b600081548084526020808501808196508360051b81019150856000528260002060005b858110156149975782840389526153a784836152f0565b98850198935060019182019101615390565b60006101608084526153cd818501846152f0565b905083810360208501526153e481600185016152f0565b905083810360408501526153fb81600285016152f0565b90508381036060850152615412816003850161536d565b600484015463ffffffff8082166080880152602082901c811660a0880152604082901c811660c0880152606082901c811660e0880152919250906154646101008701828460801c1663ffffffff169052565b61547c6101208701828460a01c1663ffffffff169052565b61515a6101408701828460c01c1663ffffffff169052565b6001600160a01b03831681526040602082018190526000906131e4908301846153b9565b600082601f8301126154c957600080fd5b81516154d761490482614b4a565b8181528460208386010111156154ec57600080fd5b6131e482602083016020870161471b565b600082601f83011261550e57600080fd5b8151602061551e61490483614899565b82815260059290921b8401810191818101908684111561553d57600080fd5b8286015b84811015614ce65780516001600160401b038111156155605760008081fd5b61556e8986838b01016154b8565b845250918301918301615541565b8051614d0e81614cf1565b600082601f83011261559857600080fd5b815160206155a861490483614899565b82815260059290921b840181019181810190868411156155c757600080fd5b8286015b84811015614ce65780516155de81614cf1565b83529183019183016155cb565b8051614d0e816146e9565b60006020828403121561560857600080fd5b81516001600160401b038082111561561f57600080fd5b908301906101a0828603121561563457600080fd5b61563c614846565b82518281111561564b57600080fd5b615657878286016154b8565b82525060208301518281111561566c57600080fd5b615678878286016154b8565b60208301525060408301518281111561569057600080fd5b61569c878286016154b8565b6040830152506060830151828111156156b457600080fd5b6156c0878286016154fd565b6060830152506156d26080840161557c565b60808201526156e360a0840161557c565b60a08201526156f460c0840161557c565b60c082015261570560e0840161557c565b60e082015261010061571881850161557c565b9082015261012061572a84820161557c565b9082015261014061573c84820161557c565b90820152610160838101518381111561575457600080fd5b61576088828701615587565b82840152505061018091506157768284016155eb565b91810191909152949350505050565b601f821115610ca557600081815260208120601f850160051c810160208610156157ac5750805b601f850160051c820191505b818110156157cb578281556001016157b8565b505050505050565b81516001600160401b038111156157ec576157ec614807565b615800816157fa84546152a0565b84615785565b602080601f831160018114615835576000841561581d5750858301515b600019600386901b1c1916600185901b1785556157cb565b600085815260208120601f198616915b8281101561586457888601518255948401946001909101908401615845565b50858210156158825787850151600019600388901b60f8161c191681555b5050505050600190811b01905550565b6040815260006158a5604083018561473f565b82810360208401526142b1818561473f565b6020808252602d908201527f4552433732313a2063616c6c6572206973206e6f7420746f6b656e206f776e6560408201526c1c881bdc88185c1c1c9bdd9959609a1b606082015260800190565b6020815260006125be6020830184615058565b6020808252602c908201527f46756e6374696f6e206d7573742062652063616c6c6564207468726f7567682060408201526b19195b1959d85d1958d85b1b60a21b606082015260800190565b6020808252602c908201527f46756e6374696f6e206d7573742062652063616c6c6564207468726f7567682060408201526b6163746976652070726f787960a01b606082015260800190565b60208082526010908201526f14185d5cd8589b194e881c185d5cd95960821b604082015260600190565b6040815260006159ec6040830185615058565b82810360208401526142b18185615058565b8281526040602082015260006131e460408301846153b9565b600060208284031215615a2957600080fd5b81516001600160401b03811115615a3f57600080fd5b6131e4848285016154b8565b604081526000615a5e604083018561473f565b82810360208401526142b181856152f0565b60208082526025908201527f4552433732313a207472616e736665722066726f6d20696e636f72726563742060408201526437bbb732b960d91b606082015260800190565b600060208284031215615ac757600080fd5b5051919050565b6020808252602b908201527f496e697469616c697a61626c653a20636f6e7472616374206973206e6f74206960408201526a6e697469616c697a696e6760a81b606082015260800190565b60208082526032908201527f4552433732313a207472616e7366657220746f206e6f6e20455243373231526560408201527131b2b4bb32b91034b6b83632b6b2b73a32b960711b606082015260800190565b7f416363657373436f6e74726f6c3a206163636f756e7420000000000000000000815260008351615ba381601785016020880161471b565b7001034b99036b4b9b9b4b733903937b6329607d1b6017918401918201528351615bd481602884016020880161471b565b01602801949350505050565b600060208284031215615bf257600080fd5b81516125be81614f5d565b6001600160a01b0385811682528416602082015260408101839052608060608201819052600090615c309083018461473f565b9695505050505050565b600060208284031215615c4c57600080fd5b81516125be816146b6565b634e487b7160e01b600052601160045260246000fd5b8082028115828204841417610a4c57610a4c615c57565b80820180821115610a4c57610a4c615c57565b600081615ca657615ca6615c57565b506000190190565b81810381811115610a4c57610a4c615c57565b634e487b7160e01b600052603160045260246000fd5b60008251615ce981846020870161471b565b919091019291505056fe360894a13ba1a3210667c828492db98dca3e2076cc3735a920a3ca505d382bbc416464726573733a206c6f772d6c6576656c2064656c65676174652063616c6c206661696c6564a2646970667358221220f3c0cc4d63312493d2a782b1633769483aba96f2d739737fd3e891c5b70a684864736f6c63430008120033",
  "linkReferences": {},
  "deployedLinkReferences": {}
}