{
  "_format": "hh-sol-artifact-1",
  "contractName": "PromptMonsters",
  "sourceName": "contracts/prompt-monsters/PromptMonsters.sol",
  "abi": [
    {
      "inputs": [],
      "stateMutability": "nonpayable",
      "type": "constructor"
    },
    {
      "anonymous": false,
      "inputs": [
        {
          "indexed": false,
          "internalType": "address",
          "name": "previousAdmin",
          "type": "address"
        },
        {
          "indexed": false,
          "internalType": "address",
          "name": "newAdmin",
          "type": "address"
        }
      ],
      "name": "AdminChanged",
      "type": "event"
    },
    {
      "anonymous": false,
      "inputs": [
        {
          "indexed": true,
          "internalType": "address",
          "name": "owner",
          "type": "address"
        },
        {
          "indexed": true,
          "internalType": "address",
          "name": "approved",
          "type": "address"
        },
        {
          "indexed": true,
          "internalType": "uint256",
          "name": "tokenId",
          "type": "uint256"
        }
      ],
      "name": "Approval",
      "type": "event"
    },
    {
      "anonymous": false,
      "inputs": [
        {
          "indexed": true,
          "internalType": "address",
          "name": "owner",
          "type": "address"
        },
        {
          "indexed": true,
          "internalType": "address",
          "name": "operator",
          "type": "address"
        },
        {
          "indexed": false,
          "internalType": "bool",
          "name": "approved",
          "type": "bool"
        }
      ],
      "name": "ApprovalForAll",
      "type": "event"
    },
    {
      "anonymous": false,
      "inputs": [
        {
          "indexed": true,
          "internalType": "address",
          "name": "beacon",
          "type": "address"
        }
      ],
      "name": "BeaconUpgraded",
      "type": "event"
    },
    {
      "anonymous": false,
      "inputs": [
        {
          "components": [
            {
              "internalType": "string",
              "name": "feature",
              "type": "string"
            },
            {
              "internalType": "string",
              "name": "name",
              "type": "string"
            },
            {
              "internalType": "string",
              "name": "flavor",
              "type": "string"
            },
            {
              "internalType": "string[]",
              "name": "skills",
              "type": "string[]"
            },
            {
              "internalType": "uint32",
              "name": "lv",
              "type": "uint32"
            },
            {
              "internalType": "uint32",
              "name": "hp",
              "type": "uint32"
            },
            {
              "internalType": "uint32",
              "name": "atk",
              "type": "uint32"
            },
            {
              "internalType": "uint32",
              "name": "def",
              "type": "uint32"
            },
            {
              "internalType": "uint32",
              "name": "inte",
              "type": "uint32"
            },
            {
              "internalType": "uint32",
              "name": "mgr",
              "type": "uint32"
            },
            {
              "internalType": "uint32",
              "name": "agl",
              "type": "uint32"
            }
          ],
          "indexed": false,
          "internalType": "struct IPromptMonsters.Monster",
          "name": "monster",
          "type": "tuple"
        }
      ],
      "name": "GenerateMonster",
      "type": "event"
    },
    {
      "anonymous": false,
      "inputs": [
        {
          "indexed": true,
          "internalType": "address",
          "name": "resurrectionPrompt",
          "type": "address"
        },
        {
          "components": [
            {
              "internalType": "string",
              "name": "feature",
              "type": "string"
            },
            {
              "internalType": "string",
              "name": "name",
              "type": "string"
            },
            {
              "internalType": "string",
              "name": "flavor",
              "type": "string"
            },
            {
              "internalType": "string[]",
              "name": "skills",
              "type": "string[]"
            },
            {
              "internalType": "uint32",
              "name": "lv",
              "type": "uint32"
            },
            {
              "internalType": "uint32",
              "name": "hp",
              "type": "uint32"
            },
            {
              "internalType": "uint32",
              "name": "atk",
              "type": "uint32"
            },
            {
              "internalType": "uint32",
              "name": "def",
              "type": "uint32"
            },
            {
              "internalType": "uint32",
              "name": "inte",
              "type": "uint32"
            },
            {
              "internalType": "uint32",
              "name": "mgr",
              "type": "uint32"
            },
            {
              "internalType": "uint32",
              "name": "agl",
              "type": "uint32"
            }
          ],
          "indexed": false,
          "internalType": "struct IPromptMonsters.Monster",
          "name": "monster",
          "type": "tuple"
        }
      ],
      "name": "GeneratedMonsterV2",
      "type": "event"
    },
    {
      "anonymous": false,
      "inputs": [
        {
          "indexed": false,
          "internalType": "uint8",
          "name": "version",
          "type": "uint8"
        }
      ],
      "name": "Initialized",
      "type": "event"
    },
    {
      "anonymous": false,
      "inputs": [
        {
          "indexed": true,
          "internalType": "address",
          "name": "tokenOwner",
          "type": "address"
        },
        {
          "indexed": true,
          "internalType": "uint256",
          "name": "newTokenId",
          "type": "uint256"
        },
        {
          "components": [
            {
              "internalType": "string",
              "name": "feature",
              "type": "string"
            },
            {
              "internalType": "string",
              "name": "name",
              "type": "string"
            },
            {
              "internalType": "string",
              "name": "flavor",
              "type": "string"
            },
            {
              "internalType": "string[]",
              "name": "skills",
              "type": "string[]"
            },
            {
              "internalType": "uint32",
              "name": "lv",
              "type": "uint32"
            },
            {
              "internalType": "uint32",
              "name": "hp",
              "type": "uint32"
            },
            {
              "internalType": "uint32",
              "name": "atk",
              "type": "uint32"
            },
            {
              "internalType": "uint32",
              "name": "def",
              "type": "uint32"
            },
            {
              "internalType": "uint32",
              "name": "inte",
              "type": "uint32"
            },
            {
              "internalType": "uint32",
              "name": "mgr",
              "type": "uint32"
            },
            {
              "internalType": "uint32",
              "name": "agl",
              "type": "uint32"
            }
          ],
          "indexed": false,
          "internalType": "struct IPromptMonsters.Monster",
          "name": "monster",
          "type": "tuple"
        }
      ],
      "name": "MintedMonster",
      "type": "event"
    },
    {
      "anonymous": false,
      "inputs": [
        {
          "indexed": true,
          "internalType": "address",
          "name": "tokenOwner",
          "type": "address"
        },
        {
          "indexed": true,
          "internalType": "address",
          "name": "resurrectionPrompt",
          "type": "address"
        },
        {
          "indexed": true,
          "internalType": "uint256",
          "name": "newTokenId",
          "type": "uint256"
        },
        {
          "components": [
            {
              "internalType": "string",
              "name": "feature",
              "type": "string"
            },
            {
              "internalType": "string",
              "name": "name",
              "type": "string"
            },
            {
              "internalType": "string",
              "name": "flavor",
              "type": "string"
            },
            {
              "internalType": "string[]",
              "name": "skills",
              "type": "string[]"
            },
            {
              "internalType": "uint32",
              "name": "lv",
              "type": "uint32"
            },
            {
              "internalType": "uint32",
              "name": "hp",
              "type": "uint32"
            },
            {
              "internalType": "uint32",
              "name": "atk",
              "type": "uint32"
            },
            {
              "internalType": "uint32",
              "name": "def",
              "type": "uint32"
            },
            {
              "internalType": "uint32",
              "name": "inte",
              "type": "uint32"
            },
            {
              "internalType": "uint32",
              "name": "mgr",
              "type": "uint32"
            },
            {
              "internalType": "uint32",
              "name": "agl",
              "type": "uint32"
            }
          ],
          "indexed": false,
          "internalType": "struct IPromptMonsters.Monster",
          "name": "monster",
          "type": "tuple"
        }
      ],
      "name": "MintedMonsterV2",
      "type": "event"
    },
    {
      "anonymous": false,
      "inputs": [
        {
          "indexed": true,
          "internalType": "address",
          "name": "publisher",
          "type": "address"
        },
        {
          "indexed": true,
          "internalType": "address",
          "name": "resurrectionPrompt",
          "type": "address"
        },
        {
          "indexed": true,
          "internalType": "uint256",
          "name": "newTokenId",
          "type": "uint256"
        },
        {
          "components": [
            {
              "internalType": "string",
              "name": "feature",
              "type": "string"
            },
            {
              "internalType": "string",
              "name": "name",
              "type": "string"
            },
            {
              "internalType": "string",
              "name": "flavor",
              "type": "string"
            },
            {
              "internalType": "string[]",
              "name": "skills",
              "type": "string[]"
            },
            {
              "internalType": "uint32",
              "name": "lv",
              "type": "uint32"
            },
            {
              "internalType": "uint32",
              "name": "hp",
              "type": "uint32"
            },
            {
              "internalType": "uint32",
              "name": "atk",
              "type": "uint32"
            },
            {
              "internalType": "uint32",
              "name": "def",
              "type": "uint32"
            },
            {
              "internalType": "uint32",
              "name": "inte",
              "type": "uint32"
            },
            {
              "internalType": "uint32",
              "name": "mgr",
              "type": "uint32"
            },
            {
              "internalType": "uint32",
              "name": "agl",
              "type": "uint32"
            },
            {
              "internalType": "uint32[]",
              "name": "skillTypes",
              "type": "uint32[]"
            },
            {
              "internalType": "address",
              "name": "resurrectionPrompt",
              "type": "address"
            }
          ],
          "indexed": false,
          "internalType": "struct IPromptMonstersExtension.MonsterExtension",
          "name": "monsterExtension",
          "type": "tuple"
        }
      ],
      "name": "MintedOnlyGameRole",
      "type": "event"
    },
    {
      "anonymous": false,
      "inputs": [
        {
          "indexed": false,
          "internalType": "address",
          "name": "account",
          "type": "address"
        }
      ],
      "name": "Paused",
      "type": "event"
    },
    {
      "anonymous": false,
      "inputs": [
        {
          "indexed": true,
          "internalType": "bytes32",
          "name": "role",
          "type": "bytes32"
        },
        {
          "indexed": true,
          "internalType": "bytes32",
          "name": "previousAdminRole",
          "type": "bytes32"
        },
        {
          "indexed": true,
          "internalType": "bytes32",
          "name": "newAdminRole",
          "type": "bytes32"
        }
      ],
      "name": "RoleAdminChanged",
      "type": "event"
    },
    {
      "anonymous": false,
      "inputs": [
        {
          "indexed": true,
          "internalType": "bytes32",
          "name": "role",
          "type": "bytes32"
        },
        {
          "indexed": true,
          "internalType": "address",
          "name": "account",
          "type": "address"
        },
        {
          "indexed": true,
          "internalType": "address",
          "name": "sender",
          "type": "address"
        }
      ],
      "name": "RoleGranted",
      "type": "event"
    },
    {
      "anonymous": false,
      "inputs": [
        {
          "indexed": true,
          "internalType": "bytes32",
          "name": "role",
          "type": "bytes32"
        },
        {
          "indexed": true,
          "internalType": "address",
          "name": "account",
          "type": "address"
        },
        {
          "indexed": true,
          "internalType": "address",
          "name": "sender",
          "type": "address"
        }
      ],
      "name": "RoleRevoked",
      "type": "event"
    },
    {
      "anonymous": false,
      "inputs": [
        {
          "indexed": true,
          "internalType": "address",
          "name": "publisher",
          "type": "address"
        },
        {
          "indexed": false,
          "internalType": "address",
          "name": "oldValue",
          "type": "address"
        },
        {
          "indexed": false,
          "internalType": "address",
          "name": "newValue",
          "type": "address"
        }
      ],
      "name": "SetErc20",
      "type": "event"
    },
    {
      "anonymous": false,
      "inputs": [
        {
          "indexed": true,
          "internalType": "address",
          "name": "publisher",
          "type": "address"
        },
        {
          "indexed": false,
          "internalType": "string",
          "name": "oldValue",
          "type": "string"
        },
        {
          "indexed": false,
          "internalType": "string",
          "name": "newValue",
          "type": "string"
        }
      ],
      "name": "SetExternalLink",
      "type": "event"
    },
    {
      "anonymous": false,
      "inputs": [
        {
          "indexed": true,
          "internalType": "address",
          "name": "publisher",
          "type": "address"
        },
        {
          "indexed": false,
          "internalType": "uint256",
          "name": "oldValue",
          "type": "uint256"
        },
        {
          "indexed": false,
          "internalType": "uint256",
          "name": "newValue",
          "type": "uint256"
        }
      ],
      "name": "SetMintPrice",
      "type": "event"
    },
    {
      "anonymous": false,
      "inputs": [
        {
          "indexed": true,
          "internalType": "address",
          "name": "publisher",
          "type": "address"
        },
        {
          "components": [
            {
              "internalType": "string",
              "name": "feature",
              "type": "string"
            },
            {
              "internalType": "string",
              "name": "name",
              "type": "string"
            },
            {
              "internalType": "string",
              "name": "flavor",
              "type": "string"
            },
            {
              "internalType": "string[]",
              "name": "skills",
              "type": "string[]"
            },
            {
              "internalType": "uint32",
              "name": "lv",
              "type": "uint32"
            },
            {
              "internalType": "uint32",
              "name": "hp",
              "type": "uint32"
            },
            {
              "internalType": "uint32",
              "name": "atk",
              "type": "uint32"
            },
            {
              "internalType": "uint32",
              "name": "def",
              "type": "uint32"
            },
            {
              "internalType": "uint32",
              "name": "inte",
              "type": "uint32"
            },
            {
              "internalType": "uint32",
              "name": "mgr",
              "type": "uint32"
            },
            {
              "internalType": "uint32",
              "name": "agl",
              "type": "uint32"
            }
          ],
          "indexed": false,
          "internalType": "struct IPromptMonsters.Monster",
          "name": "oldValue",
          "type": "tuple"
        },
        {
          "components": [
            {
              "internalType": "string",
              "name": "feature",
              "type": "string"
            },
            {
              "internalType": "string",
              "name": "name",
              "type": "string"
            },
            {
              "internalType": "string",
              "name": "flavor",
              "type": "string"
            },
            {
              "internalType": "string[]",
              "name": "skills",
              "type": "string[]"
            },
            {
              "internalType": "uint32",
              "name": "lv",
              "type": "uint32"
            },
            {
              "internalType": "uint32",
              "name": "hp",
              "type": "uint32"
            },
            {
              "internalType": "uint32",
              "name": "atk",
              "type": "uint32"
            },
            {
              "internalType": "uint32",
              "name": "def",
              "type": "uint32"
            },
            {
              "internalType": "uint32",
              "name": "inte",
              "type": "uint32"
            },
            {
              "internalType": "uint32",
              "name": "mgr",
              "type": "uint32"
            },
            {
              "internalType": "uint32",
              "name": "agl",
              "type": "uint32"
            }
          ],
          "indexed": false,
          "internalType": "struct IPromptMonsters.Monster",
          "name": "newValue",
          "type": "tuple"
        }
      ],
      "name": "SetMonsterHistory",
      "type": "event"
    },
    {
      "anonymous": false,
      "inputs": [
        {
          "indexed": true,
          "internalType": "address",
          "name": "publisher",
          "type": "address"
        },
        {
          "indexed": false,
          "internalType": "contract IPromptMonstersExtension",
          "name": "oldValue",
          "type": "address"
        },
        {
          "indexed": false,
          "internalType": "contract IPromptMonstersExtension",
          "name": "newValue",
          "type": "address"
        }
      ],
      "name": "SetPromptMonstersExtension",
      "type": "event"
    },
    {
      "anonymous": false,
      "inputs": [
        {
          "indexed": true,
          "internalType": "address",
          "name": "publisher",
          "type": "address"
        },
        {
          "indexed": false,
          "internalType": "contract IPromptMonstersImage",
          "name": "oldValue",
          "type": "address"
        },
        {
          "indexed": false,
          "internalType": "contract IPromptMonstersImage",
          "name": "newValue",
          "type": "address"
        }
      ],
      "name": "SetPromptMonstersImage",
      "type": "event"
    },
    {
      "anonymous": false,
      "inputs": [
        {
          "indexed": true,
          "internalType": "address",
          "name": "publisher",
          "type": "address"
        },
        {
          "indexed": false,
          "internalType": "address",
          "name": "oldValue",
          "type": "address"
        },
        {
          "indexed": false,
          "internalType": "address",
          "name": "newValue",
          "type": "address"
        }
      ],
      "name": "SetPromptMonstersWallet",
      "type": "event"
    },
    {
      "anonymous": false,
      "inputs": [
        {
          "indexed": true,
          "internalType": "address",
          "name": "publisher",
          "type": "address"
        },
        {
          "indexed": false,
          "internalType": "uint256",
          "name": "oldValue",
          "type": "uint256"
        },
        {
          "indexed": false,
          "internalType": "uint256",
          "name": "newValue",
          "type": "uint256"
        }
      ],
      "name": "SetResurrectionPromptToTokenIdMap",
      "type": "event"
    },
    {
      "anonymous": false,
      "inputs": [
        {
          "indexed": true,
          "internalType": "address",
          "name": "publisher",
          "type": "address"
        },
        {
          "indexed": false,
          "internalType": "address",
          "name": "oldValue",
          "type": "address"
        },
        {
          "indexed": false,
          "internalType": "address",
          "name": "newValue",
          "type": "address"
        }
      ],
      "name": "SetTokenIdToResurrectionPromptMap",
      "type": "event"
    },
    {
      "anonymous": false,
      "inputs": [
        {
          "indexed": true,
          "internalType": "address",
          "name": "from",
          "type": "address"
        },
        {
          "indexed": true,
          "internalType": "address",
          "name": "to",
          "type": "address"
        },
        {
          "indexed": true,
          "internalType": "uint256",
          "name": "tokenId",
          "type": "uint256"
        }
      ],
      "name": "Transfer",
      "type": "event"
    },
    {
      "anonymous": false,
      "inputs": [
        {
          "indexed": false,
          "internalType": "address",
          "name": "account",
          "type": "address"
        }
      ],
      "name": "Unpaused",
      "type": "event"
    },
    {
      "anonymous": false,
      "inputs": [
        {
          "indexed": true,
          "internalType": "address",
          "name": "implementation",
          "type": "address"
        }
      ],
      "name": "Upgraded",
      "type": "event"
    },
    {
      "inputs": [],
      "name": "DEFAULT_ADMIN_ROLE",
      "outputs": [
        {
          "internalType": "bytes32",
          "name": "",
          "type": "bytes32"
        }
      ],
      "stateMutability": "view",
      "type": "function"
    },
    {
      "inputs": [
        {
          "internalType": "address",
          "name": "to",
          "type": "address"
        },
        {
          "internalType": "uint256",
          "name": "tokenId",
          "type": "uint256"
        }
      ],
      "name": "approve",
      "outputs": [],
      "stateMutability": "nonpayable",
      "type": "function"
    },
    {
      "inputs": [
        {
          "internalType": "address",
          "name": "owner",
          "type": "address"
        }
      ],
      "name": "balanceOf",
      "outputs": [
        {
          "internalType": "uint256",
          "name": "",
          "type": "uint256"
        }
      ],
      "stateMutability": "view",
      "type": "function"
    },
    {
      "inputs": [
        {
          "internalType": "uint256",
          "name": "tokenId_",
          "type": "uint256"
        }
      ],
      "name": "burn",
      "outputs": [],
      "stateMutability": "nonpayable",
      "type": "function"
    },
    {
      "inputs": [
        {
          "internalType": "uint256",
          "name": "monsterId",
          "type": "uint256"
        }
      ],
      "name": "checkMonsterId",
      "outputs": [],
      "stateMutability": "view",
      "type": "function"
    },
    {
      "inputs": [],
      "name": "contractURI",
      "outputs": [
        {
          "internalType": "string",
          "name": "uri",
          "type": "string"
        }
      ],
      "stateMutability": "view",
      "type": "function"
    },
    {
      "inputs": [
        {
          "internalType": "address",
          "name": "resurrectionPrompt_",
          "type": "address"
        },
        {
          "components": [
            {
              "internalType": "string",
              "name": "feature",
              "type": "string"
            },
            {
              "internalType": "string",
              "name": "name",
              "type": "string"
            },
            {
              "internalType": "string",
              "name": "flavor",
              "type": "string"
            },
            {
              "internalType": "string[]",
              "name": "skills",
              "type": "string[]"
            },
            {
              "internalType": "uint32",
              "name": "lv",
              "type": "uint32"
            },
            {
              "internalType": "uint32",
              "name": "hp",
              "type": "uint32"
            },
            {
              "internalType": "uint32",
              "name": "atk",
              "type": "uint32"
            },
            {
              "internalType": "uint32",
              "name": "def",
              "type": "uint32"
            },
            {
              "internalType": "uint32",
              "name": "inte",
              "type": "uint32"
            },
            {
              "internalType": "uint32",
              "name": "mgr",
              "type": "uint32"
            },
            {
              "internalType": "uint32",
              "name": "agl",
              "type": "uint32"
            }
          ],
          "internalType": "struct IPromptMonsters.Monster",
          "name": "monster_",
          "type": "tuple"
        }
      ],
      "name": "generateMonster",
      "outputs": [],
      "stateMutability": "nonpayable",
      "type": "function"
    },
    {
      "inputs": [
        {
          "internalType": "uint256",
          "name": "tokenId",
          "type": "uint256"
        }
      ],
      "name": "getApproved",
      "outputs": [
        {
          "internalType": "address",
          "name": "",
          "type": "address"
        }
      ],
      "stateMutability": "view",
      "type": "function"
    },
    {
      "inputs": [],
      "name": "getErc20",
      "outputs": [
        {
          "internalType": "contract IERC20",
          "name": "returnValue",
          "type": "address"
        }
      ],
      "stateMutability": "view",
      "type": "function"
    },
    {
      "inputs": [],
      "name": "getMintPrice",
      "outputs": [
        {
          "internalType": "uint256",
          "name": "returnValue",
          "type": "uint256"
        }
      ],
      "stateMutability": "view",
      "type": "function"
    },
    {
      "inputs": [
        {
          "internalType": "address[]",
          "name": "resurrectionPrompts",
          "type": "address[]"
        }
      ],
      "name": "getMinteds",
      "outputs": [
        {
          "internalType": "bool[]",
          "name": "returnValue",
          "type": "bool[]"
        }
      ],
      "stateMutability": "view",
      "type": "function"
    },
    {
      "inputs": [
        {
          "internalType": "address[]",
          "name": "resurrectionPrompts_",
          "type": "address[]"
        }
      ],
      "name": "getMonsterExtensions",
      "outputs": [
        {
          "components": [
            {
              "internalType": "string",
              "name": "feature",
              "type": "string"
            },
            {
              "internalType": "string",
              "name": "name",
              "type": "string"
            },
            {
              "internalType": "string",
              "name": "flavor",
              "type": "string"
            },
            {
              "internalType": "string[]",
              "name": "skills",
              "type": "string[]"
            },
            {
              "internalType": "uint32",
              "name": "lv",
              "type": "uint32"
            },
            {
              "internalType": "uint32",
              "name": "hp",
              "type": "uint32"
            },
            {
              "internalType": "uint32",
              "name": "atk",
              "type": "uint32"
            },
            {
              "internalType": "uint32",
              "name": "def",
              "type": "uint32"
            },
            {
              "internalType": "uint32",
              "name": "inte",
              "type": "uint32"
            },
            {
              "internalType": "uint32",
              "name": "mgr",
              "type": "uint32"
            },
            {
              "internalType": "uint32",
              "name": "agl",
              "type": "uint32"
            },
            {
              "internalType": "uint32[]",
              "name": "skillTypes",
              "type": "uint32[]"
            },
            {
              "internalType": "address",
              "name": "resurrectionPrompt",
              "type": "address"
            }
          ],
          "internalType": "struct IPromptMonstersExtension.MonsterExtension[]",
          "name": "monsterExtensions",
          "type": "tuple[]"
        }
      ],
      "stateMutability": "view",
      "type": "function"
    },
    {
      "inputs": [],
      "name": "getMonstersTotalSupply",
      "outputs": [
        {
          "internalType": "uint256",
          "name": "totalSupply",
          "type": "uint256"
        }
      ],
      "stateMutability": "view",
      "type": "function"
    },
    {
      "inputs": [
        {
          "internalType": "address",
          "name": "owner",
          "type": "address"
        }
      ],
      "name": "getOwnerToTokenIds",
      "outputs": [
        {
          "internalType": "uint256[]",
          "name": "returnValue",
          "type": "uint256[]"
        }
      ],
      "stateMutability": "view",
      "type": "function"
    },
    {
      "inputs": [],
      "name": "getPaused",
      "outputs": [
        {
          "internalType": "bool",
          "name": "returnValue",
          "type": "bool"
        }
      ],
      "stateMutability": "view",
      "type": "function"
    },
    {
      "inputs": [],
      "name": "getPromptMonstersExtension",
      "outputs": [
        {
          "internalType": "contract IPromptMonstersExtension",
          "name": "returnValue",
          "type": "address"
        }
      ],
      "stateMutability": "view",
      "type": "function"
    },
    {
      "inputs": [],
      "name": "getPromptMonstersImage",
      "outputs": [
        {
          "internalType": "contract IPromptMonstersImage",
          "name": "returnValue",
          "type": "address"
        }
      ],
      "stateMutability": "view",
      "type": "function"
    },
    {
      "inputs": [],
      "name": "getPromptMonstersWallet",
      "outputs": [
        {
          "internalType": "address",
          "name": "returnValue",
          "type": "address"
        }
      ],
      "stateMutability": "view",
      "type": "function"
    },
    {
      "inputs": [
        {
          "internalType": "uint256[]",
          "name": "monsterIds_",
          "type": "uint256[]"
        }
      ],
      "name": "getResurrectionPrompts",
      "outputs": [
        {
          "internalType": "address[]",
          "name": "returnValue",
          "type": "address[]"
        }
      ],
      "stateMutability": "view",
      "type": "function"
    },
    {
      "inputs": [
        {
          "internalType": "bytes32",
          "name": "role",
          "type": "bytes32"
        }
      ],
      "name": "getRoleAdmin",
      "outputs": [
        {
          "internalType": "bytes32",
          "name": "",
          "type": "bytes32"
        }
      ],
      "stateMutability": "view",
      "type": "function"
    },
    {
      "inputs": [
        {
          "internalType": "bytes32",
          "name": "role",
          "type": "bytes32"
        },
        {
          "internalType": "uint256",
          "name": "index",
          "type": "uint256"
        }
      ],
      "name": "getRoleMember",
      "outputs": [
        {
          "internalType": "address",
          "name": "",
          "type": "address"
        }
      ],
      "stateMutability": "view",
      "type": "function"
    },
    {
      "inputs": [
        {
          "internalType": "bytes32",
          "name": "role",
          "type": "bytes32"
        }
      ],
      "name": "getRoleMemberCount",
      "outputs": [
        {
          "internalType": "uint256",
          "name": "",
          "type": "uint256"
        }
      ],
      "stateMutability": "view",
      "type": "function"
    },
    {
      "inputs": [
        {
          "internalType": "address[]",
          "name": "resurrectionPrompts",
          "type": "address[]"
        }
      ],
      "name": "getTokenIds",
      "outputs": [
        {
          "internalType": "uint256[]",
          "name": "returnValue",
          "type": "uint256[]"
        }
      ],
      "stateMutability": "view",
      "type": "function"
    },
    {
      "inputs": [
        {
          "internalType": "bytes32",
          "name": "role",
          "type": "bytes32"
        },
        {
          "internalType": "address",
          "name": "account",
          "type": "address"
        }
      ],
      "name": "grantRole",
      "outputs": [],
      "stateMutability": "nonpayable",
      "type": "function"
    },
    {
      "inputs": [
        {
          "internalType": "bytes32",
          "name": "role",
          "type": "bytes32"
        },
        {
          "internalType": "address",
          "name": "account",
          "type": "address"
        }
      ],
      "name": "hasRole",
      "outputs": [
        {
          "internalType": "bool",
          "name": "",
          "type": "bool"
        }
      ],
      "stateMutability": "view",
      "type": "function"
    },
    {
      "inputs": [
        {
          "internalType": "string",
          "name": "externalLink_",
          "type": "string"
        },
        {
          "internalType": "address",
          "name": "erc20Address_",
          "type": "address"
        },
        {
          "internalType": "uint256",
          "name": "mintPrice_",
          "type": "uint256"
        },
        {
          "internalType": "address",
          "name": "promptMonstersWallet_",
          "type": "address"
        }
      ],
      "name": "initialize",
      "outputs": [],
      "stateMutability": "nonpayable",
      "type": "function"
    },
    {
      "inputs": [
        {
          "internalType": "address",
          "name": "owner",
          "type": "address"
        },
        {
          "internalType": "address",
          "name": "operator",
          "type": "address"
        }
      ],
      "name": "isApprovedForAll",
      "outputs": [
        {
          "internalType": "bool",
          "name": "",
          "type": "bool"
        }
      ],
      "stateMutability": "view",
      "type": "function"
    },
    {
      "inputs": [
        {
          "internalType": "address",
          "name": "resurrectionPrompt",
          "type": "address"
        }
      ],
      "name": "mint",
      "outputs": [],
      "stateMutability": "nonpayable",
      "type": "function"
    },
    {
      "inputs": [
        {
          "internalType": "address",
          "name": "to",
          "type": "address"
        },
        {
          "components": [
            {
              "internalType": "string",
              "name": "feature",
              "type": "string"
            },
            {
              "internalType": "string",
              "name": "name",
              "type": "string"
            },
            {
              "internalType": "string",
              "name": "flavor",
              "type": "string"
            },
            {
              "internalType": "string[]",
              "name": "skills",
              "type": "string[]"
            },
            {
              "internalType": "uint32",
              "name": "lv",
              "type": "uint32"
            },
            {
              "internalType": "uint32",
              "name": "hp",
              "type": "uint32"
            },
            {
              "internalType": "uint32",
              "name": "atk",
              "type": "uint32"
            },
            {
              "internalType": "uint32",
              "name": "def",
              "type": "uint32"
            },
            {
              "internalType": "uint32",
              "name": "inte",
              "type": "uint32"
            },
            {
              "internalType": "uint32",
              "name": "mgr",
              "type": "uint32"
            },
            {
              "internalType": "uint32",
              "name": "agl",
              "type": "uint32"
            },
            {
              "internalType": "uint32[]",
              "name": "skillTypes",
              "type": "uint32[]"
            },
            {
              "internalType": "address",
              "name": "resurrectionPrompt",
              "type": "address"
            }
          ],
          "internalType": "struct IPromptMonstersExtension.MonsterExtension",
          "name": "monsterExtension",
          "type": "tuple"
        },
        {
          "internalType": "string",
          "name": "imageURL",
          "type": "string"
        }
      ],
      "name": "mintOnlyGameRole",
      "outputs": [],
      "stateMutability": "nonpayable",
      "type": "function"
    },
    {
      "inputs": [],
      "name": "name",
      "outputs": [
        {
          "internalType": "string",
          "name": "",
          "type": "string"
        }
      ],
      "stateMutability": "view",
      "type": "function"
    },
    {
      "inputs": [
        {
          "internalType": "uint256",
          "name": "tokenId",
          "type": "uint256"
        }
      ],
      "name": "ownerOf",
      "outputs": [
        {
          "internalType": "address",
          "name": "",
          "type": "address"
        }
      ],
      "stateMutability": "view",
      "type": "function"
    },
    {
      "inputs": [],
      "name": "pause",
      "outputs": [],
      "stateMutability": "nonpayable",
      "type": "function"
    },
    {
      "inputs": [],
      "name": "proxiableUUID",
      "outputs": [
        {
          "internalType": "bytes32",
          "name": "",
          "type": "bytes32"
        }
      ],
      "stateMutability": "view",
      "type": "function"
    },
    {
      "inputs": [
        {
          "internalType": "bytes32",
          "name": "role",
          "type": "bytes32"
        },
        {
          "internalType": "address",
          "name": "account",
          "type": "address"
        }
      ],
      "name": "renounceRole",
      "outputs": [],
      "stateMutability": "nonpayable",
      "type": "function"
    },
    {
      "inputs": [
        {
          "internalType": "bytes32",
          "name": "role",
          "type": "bytes32"
        },
        {
          "internalType": "address",
          "name": "account",
          "type": "address"
        }
      ],
      "name": "revokeRole",
      "outputs": [],
      "stateMutability": "nonpayable",
      "type": "function"
    },
    {
      "inputs": [
        {
          "internalType": "address",
          "name": "from",
          "type": "address"
        },
        {
          "internalType": "address",
          "name": "to",
          "type": "address"
        },
        {
          "internalType": "uint256",
          "name": "tokenId",
          "type": "uint256"
        }
      ],
      "name": "safeTransferFrom",
      "outputs": [],
      "stateMutability": "nonpayable",
      "type": "function"
    },
    {
      "inputs": [
        {
          "internalType": "address",
          "name": "from",
          "type": "address"
        },
        {
          "internalType": "address",
          "name": "to",
          "type": "address"
        },
        {
          "internalType": "uint256",
          "name": "tokenId",
          "type": "uint256"
        },
        {
          "internalType": "bytes",
          "name": "data",
          "type": "bytes"
        }
      ],
      "name": "safeTransferFrom",
      "outputs": [],
      "stateMutability": "nonpayable",
      "type": "function"
    },
    {
      "inputs": [
        {
          "internalType": "address",
          "name": "operator",
          "type": "address"
        },
        {
          "internalType": "bool",
          "name": "approved",
          "type": "bool"
        }
      ],
      "name": "setApprovalForAll",
      "outputs": [],
      "stateMutability": "nonpayable",
      "type": "function"
    },
    {
      "inputs": [
        {
          "internalType": "address",
          "name": "newState_",
          "type": "address"
        }
      ],
      "name": "setErc20",
      "outputs": [],
      "stateMutability": "nonpayable",
      "type": "function"
    },
    {
      "inputs": [
        {
          "internalType": "string",
          "name": "newState_",
          "type": "string"
        }
      ],
      "name": "setExternalLink",
      "outputs": [],
      "stateMutability": "nonpayable",
      "type": "function"
    },
    {
      "inputs": [
        {
          "internalType": "uint256",
          "name": "newState_",
          "type": "uint256"
        }
      ],
      "name": "setMintPrice",
      "outputs": [],
      "stateMutability": "nonpayable",
      "type": "function"
    },
    {
      "inputs": [
        {
          "internalType": "address",
          "name": "newState_",
          "type": "address"
        }
      ],
      "name": "setPromptMonstersExtension",
      "outputs": [],
      "stateMutability": "nonpayable",
      "type": "function"
    },
    {
      "inputs": [
        {
          "internalType": "address",
          "name": "newState_",
          "type": "address"
        }
      ],
      "name": "setPromptMonstersImage",
      "outputs": [],
      "stateMutability": "nonpayable",
      "type": "function"
    },
    {
      "inputs": [
        {
          "internalType": "address",
          "name": "newState_",
          "type": "address"
        }
      ],
      "name": "setPromptMonstersWallet",
      "outputs": [],
      "stateMutability": "nonpayable",
      "type": "function"
    },
    {
      "inputs": [
        {
          "internalType": "bytes4",
          "name": "interfaceId",
          "type": "bytes4"
        }
      ],
      "name": "supportsInterface",
      "outputs": [
        {
          "internalType": "bool",
          "name": "",
          "type": "bool"
        }
      ],
      "stateMutability": "view",
      "type": "function"
    },
    {
      "inputs": [],
      "name": "symbol",
      "outputs": [
        {
          "internalType": "string",
          "name": "",
          "type": "string"
        }
      ],
      "stateMutability": "view",
      "type": "function"
    },
    {
      "inputs": [
        {
          "internalType": "uint256",
          "name": "tokenId_",
          "type": "uint256"
        }
      ],
      "name": "tokenURI",
      "outputs": [
        {
          "internalType": "string",
          "name": "uri",
          "type": "string"
        }
      ],
      "stateMutability": "view",
      "type": "function"
    },
    {
      "inputs": [
        {
          "internalType": "address",
          "name": "from",
          "type": "address"
        },
        {
          "internalType": "address",
          "name": "to",
          "type": "address"
        },
        {
          "internalType": "uint256",
          "name": "tokenId",
          "type": "uint256"
        }
      ],
      "name": "transferFrom",
      "outputs": [],
      "stateMutability": "nonpayable",
      "type": "function"
    },
    {
      "inputs": [],
      "name": "unpause",
      "outputs": [],
      "stateMutability": "nonpayable",
      "type": "function"
    },
    {
      "inputs": [
        {
          "internalType": "address",
          "name": "newImplementation",
          "type": "address"
        }
      ],
      "name": "upgradeTo",
      "outputs": [],
      "stateMutability": "nonpayable",
      "type": "function"
    },
    {
      "inputs": [
        {
          "internalType": "address",
          "name": "newImplementation",
          "type": "address"
        },
        {
          "internalType": "bytes",
          "name": "data",
          "type": "bytes"
        }
      ],
      "name": "upgradeToAndCall",
      "outputs": [],
      "stateMutability": "payable",
      "type": "function"
    }
  ],
  "bytecode": "0x60a0604052306080523480156200001557600080fd5b506200002062000026565b620000e7565b600054610100900460ff1615620000935760405162461bcd60e51b815260206004820152602760248201527f496e697469616c697a61626c653a20636f6e747261637420697320696e697469604482015266616c697a696e6760c81b606482015260840160405180910390fd5b60005460ff90811614620000e5576000805460ff191660ff9081179091556040519081527f7f26b83ff96e1f2b6a682f133852f6798a09c465da95921460cefb38474024989060200160405180910390a15b565b608051615aab6200011f600039600081816111b1015281816111f1015281816113a9015281816113e901526114780152615aab6000f3fe6080604052600436106102e45760003560e01c80636a62784211610190578063a8ef2956116100dc578063d547741f11610095578063e985e9c51161006f578063e985e9c5146108e6578063ee9b80a41461092f578063eeeaa0081461094f578063f4a0a5281461096e57600080fd5b8063d547741f14610891578063e4bab3f5146108b1578063e8a3d485146108d157600080fd5b8063a8ef2956146107b8578063b0173096146107d7578063b88d4fde14610804578063bacc06aa14610824578063c87b56dd14610851578063ca15c8731461087157600080fd5b806391d1485411610149578063a11adfe711610123578063a11adfe71461074d578063a217fddf1461076d578063a22cb46514610782578063a7f93ebd146107a257600080fd5b806391d14854146106f857806395d89b4114610718578063986ad5041461072d57600080fd5b80636a6278421461064457806370a08231146106645780637af148c01461068457806383186465146106a35780638456cb59146106c35780639010d07c146106d857600080fd5b806333a512a41161024f5780634f1ef2861161020857806355b09456116101e257806355b09456146105c45780636352211e146105e457806364cb5fd2146106045780636805b84b1461062457600080fd5b80634f1ef2861461058657806352d1902d1461059957806352dd29d2146105ae57600080fd5b806333a512a4146104d157806336568abe146104f15780633659cfe6146105115780633f4ba83a1461053157806342842e0e1461054657806342966c681461056657600080fd5b80631b80ef7a116102a15780631b80ef7a146103e75780631f9179211461041457806323b872dd14610434578063248a9ca31461045457806327fde6d6146104925780632f2ff15d146104b157600080fd5b806301ffc9a7146102e9578063038d18d81461031e57806306fdde0314610340578063081812fc14610362578063095ea7b31461039a5780630fd7efc4146103ba575b600080fd5b3480156102f557600080fd5b506103096103043660046140da565b61098e565b60405190151581526020015b60405180910390f35b34801561032a57600080fd5b5061033e61033936600461411c565b61099f565b005b34801561034c57600080fd5b50610355610a24565b6040516103159190614189565b34801561036e57600080fd5b5061038261037d36600461419c565b610ab6565b6040516001600160a01b039091168152602001610315565b3480156103a657600080fd5b5061033e6103b53660046141b5565b610add565b3480156103c657600080fd5b506103da6103d536600461411c565b610bf7565b60405161031591906141e1565b3480156103f357600080fd5b506104076104023660046142da565b610c64565b604051610315919061453c565b34801561042057600080fd5b5061033e61042f366004614616565b610dff565b34801561044057600080fd5b5061033e61044f36600461464a565b610ee6565b34801561046057600080fd5b5061048461046f36600461419c565b60009081526097602052604090206001015490565b604051908152602001610315565b34801561049e57600080fd5b5061019d546001600160a01b0316610382565b3480156104bd57600080fd5b5061033e6104cc36600461468b565b610f17565b3480156104dd57600080fd5b5061033e6104ec366004614762565b610f3c565b3480156104fd57600080fd5b5061033e61050c36600461468b565b611129565b34801561051d57600080fd5b5061033e61052c36600461411c565b6111a7565b34801561053d57600080fd5b5061033e611286565b34801561055257600080fd5b5061033e61056136600461464a565b611331565b34801561057257600080fd5b5061033e61058136600461419c565b61134c565b61033e6105943660046148d0565b61139f565b3480156105a557600080fd5b5061048461146b565b3480156105ba57600080fd5b5061019854610484565b3480156105d057600080fd5b5061033e6105df36600461491f565b61151e565b3480156105f057600080fd5b506103826105ff36600461419c565b6116e0565b34801561061057600080fd5b5061033e61061f36600461411c565b611740565b34801561063057600080fd5b5061019a54600160a01b900460ff16610309565b34801561065057600080fd5b5061033e61065f36600461411c565b6117bc565b34801561067057600080fd5b5061048461067f36600461411c565b611e05565b34801561069057600080fd5b50610191546001600160a01b0316610382565b3480156106af57600080fd5b5061033e6106be36600461419c565b611e8b565b3480156106cf57600080fd5b5061033e611f0c565b3480156106e457600080fd5b506103826106f336600461498a565b611f7e565b34801561070457600080fd5b5061030961071336600461468b565b611f9d565b34801561072457600080fd5b50610355611fc8565b34801561073957600080fd5b5061033e610748366004614a10565b611fd7565b34801561075957600080fd5b506103da6107683660046142da565b6125bc565b34801561077957600080fd5b50610484600081565b34801561078e57600080fd5b5061033e61079d366004614be0565b612675565b3480156107ae57600080fd5b5061019354610484565b3480156107c457600080fd5b5061019a546001600160a01b0316610382565b3480156107e357600080fd5b506107f76107f23660046142da565b612680565b6040516103159190614c0e565b34801561081057600080fd5b5061033e61081f366004614c48565b61274b565b34801561083057600080fd5b5061084461083f366004614cb3565b612783565b6040516103159190614d38565b34801561085d57600080fd5b5061035561086c36600461419c565b61284a565b34801561087d57600080fd5b5061048461088c36600461419c565b6128f2565b34801561089d57600080fd5b5061033e6108ac36600461468b565b612909565b3480156108bd57600080fd5b5061033e6108cc36600461411c565b61292e565b3480156108dd57600080fd5b506103556129a6565b3480156108f257600080fd5b50610309610901366004614d79565b6001600160a01b039182166000908152606a6020908152604080832093909416825291909152205460ff1690565b34801561093b57600080fd5b5061033e61094a36600461411c565b612a2d565b34801561095b57600080fd5b50610192546001600160a01b0316610382565b34801561097a57600080fd5b5061033e61098936600461419c565b612aa5565b600061099982612af1565b92915050565b60006109aa81612b16565b61019a80546001600160a01b038481166001600160a01b0319831617909255166109d13390565b61019a54604080516001600160a01b038581168252928316602082015292909116917f8cd3b162ee77219f8a05a08a052b90a5e1d7a0781f265182421bc8563f823bbc91015b60405180910390a2505050565b606060658054610a3390614da7565b80601f0160208091040260200160405190810160405280929190818152602001828054610a5f90614da7565b8015610aac5780601f10610a8157610100808354040283529160200191610aac565b820191906000526020600020905b815481529060010190602001808311610a8f57829003601f168201915b5050505050905090565b6000610ac182612b20565b506000908152606960205260409020546001600160a01b031690565b6000610ae8826116e0565b9050806001600160a01b0316836001600160a01b031603610b5a5760405162461bcd60e51b815260206004820152602160248201527f4552433732313a20617070726f76616c20746f2063757272656e74206f776e656044820152603960f91b60648201526084015b60405180910390fd5b336001600160a01b0382161480610b765750610b768133610901565b610be85760405162461bcd60e51b815260206004820152603d60248201527f4552433732313a20617070726f76652063616c6c6572206973206e6f7420746f60448201527f6b656e206f776e6572206f7220617070726f76656420666f7220616c6c0000006064820152608401610b51565b610bf28383612b7f565b505050565b6001600160a01b03811660009081526101976020908152604091829020805483518184028101840190945280845260609392830182828015610c5857602002820191906000526020600020905b815481526020019060010190808311610c44575b50505050509050919050565b8051606090806001600160401b03811115610c8157610c81614225565b604051908082528060200260200182016040528015610d1a57816020015b604080516101a0810182526060808252602080830182905292820181905280820181905260006080830181905260a0830181905260c0830181905260e083018190526101008301819052610120830181905261014083018190526101608301919091526101808201528252600019909201910181610c9f5790505b50915060005b81811015610df8576000848281518110610d3c57610d3c614de1565b60209081029190910181015161019d546001600160a01b0380831660009081526101969094526040938490209351633184613360e21b8152929450169163c61184cc91610d8d918591600401614fab565b600060405180830381865afa158015610daa573d6000803e3d6000fd5b505050506040513d6000823e601f3d908101601f19168201604052610dd2919081019061510d565b848381518110610de457610de4614de1565b602090810291909101015250600101610d20565b5050919050565b6000610e0a81612b16565b60006101948054610e1a90614da7565b80601f0160208091040260200160405190810160405280929190818152602001828054610e4690614da7565b8015610e935780601f10610e6857610100808354040283529160200191610e93565b820191906000526020600020905b815481529060010190602001808311610e7657829003601f168201915b50505050509050826101949081610eaa91906152ea565b50336001600160a01b03167ffceab947acbd3281d41fa085ba6d9503467fabd9e3d96e3ee0dbf6f8b04a9ca48285604051610a179291906153a9565b610ef03382612bed565b610f0c5760405162461bcd60e51b8152600401610b51906153d7565b610bf2838383612c6c565b600082815260976020526040902060010154610f3281612b16565b610bf28383612ddd565b61019e54610f4981612b16565b610f51612dff565b6001600160a01b0383166000908152610196602052604090206004015463ffffffff1615610f915760405162461bcd60e51b8152600401610b5190615424565b6001600160a01b03831660009081526101966020526040902082518391908190610fbb90826152ea565b5060208201516001820190610fd090826152ea565b5060408201516002820190610fe590826152ea565b5060608201518051611001916003840191602090910190614007565b5060808201516004909101805460a084015160c085015160e08601516101008701516101208801516101409098015163ffffffff908116600160c01b0263ffffffff60c01b19998216600160a01b0263ffffffff60a01b19938316600160801b029390931667ffffffffffffffff60801b19948316600160601b0263ffffffff60601b19968416600160401b029690961667ffffffffffffffff60401b199784166401000000000267ffffffffffffffff1990991693909a169290921796909617949094169690961791909117161792909217929092161790556040516001600160a01b038416907fff44cc285b2217920f739fd55ee2013963427c0fb71f0d49dc99cfd0c7b8325e90611116908590615475565b60405180910390a2610bf2600161015f55565b6001600160a01b03811633146111995760405162461bcd60e51b815260206004820152602f60248201527f416363657373436f6e74726f6c3a2063616e206f6e6c792072656e6f756e636560448201526e103937b632b9903337b91039b2b63360891b6064820152608401610b51565b6111a38282612e62565b5050565b6001600160a01b037f00000000000000000000000000000000000000000000000000000000000000001630036111ef5760405162461bcd60e51b8152600401610b519061558c565b7f00000000000000000000000000000000000000000000000000000000000000006001600160a01b0316611238600080516020615a2f833981519152546001600160a01b031690565b6001600160a01b03161461125e5760405162461bcd60e51b8152600401610b51906155d8565b61126781612e84565b6040805160008082526020820190925261128391839190612e8f565b50565b600061129181612b16565b61019a54600160a01b900460ff166112e25760405162461bcd60e51b815260206004820152601460248201527314185d5cd8589b194e881b9bdd081c185d5cd95960621b6044820152606401610b51565b61019a805460ff60a01b191690557f5db9ee0a495bf2e6ff9c91a7834c1ba4fdd244a5e8aa4e537bd38aeae4b073aa335b6040516001600160a01b03909116815260200160405180910390a150565b610bf28383836040518060200160405280600081525061274b565b611354612dff565b61019a54600160a01b900460ff161561137f5760405162461bcd60e51b8152600401610b5190615624565b6113943361138e600080611f7e565b83611331565b611283600161015f55565b6001600160a01b037f00000000000000000000000000000000000000000000000000000000000000001630036113e75760405162461bcd60e51b8152600401610b519061558c565b7f00000000000000000000000000000000000000000000000000000000000000006001600160a01b0316611430600080516020615a2f833981519152546001600160a01b031690565b6001600160a01b0316146114565760405162461bcd60e51b8152600401610b51906155d8565b61145f82612e84565b6111a382826001612e8f565b6000306001600160a01b037f0000000000000000000000000000000000000000000000000000000000000000161461150b5760405162461bcd60e51b815260206004820152603860248201527f555550535570677261646561626c653a206d757374206e6f742062652063616c60448201527f6c6564207468726f7567682064656c656761746563616c6c00000000000000006064820152608401610b51565b50600080516020615a2f83398151915290565b600054610100900460ff161580801561153e5750600054600160ff909116105b806115585750303b158015611558575060005460ff166001145b6115bb5760405162461bcd60e51b815260206004820152602e60248201527f496e697469616c697a61626c653a20636f6e747261637420697320616c72656160448201526d191e481a5b9a5d1a585b1a5e995960921b6064820152608401610b51565b6000805460ff1916600117905580156115de576000805461ff0019166101001790555b61162a6040518060400160405280600f81526020016e50726f6d7074204d6f6e737465727360881b8152506040518060400160405280600381526020016226a7a760e91b815250612ffa565b61163261302b565b61163a61302b565b611642613054565b61164d600033612ddd565b61019461165a86826152ea565b5061019180546001600160a01b038087166001600160a01b03199283161790925561019385905561019280549285169290911691909117905580156116d9576000805461ff0019169055604051600181527f7f26b83ff96e1f2b6a682f133852f6798a09c465da95921460cefb38474024989060200160405180910390a15b5050505050565b6000818152606760205260408120546001600160a01b0316806109995760405162461bcd60e51b8152602060048201526018602482015277115490cdcc8c4e881a5b9d985b1a59081d1bdad95b88125160421b6044820152606401610b51565b600061174b81612b16565b61019d80546001600160a01b038481166001600160a01b0319831617909255166117723390565b61019d54604080516001600160a01b038581168252928316602082015292909116917f0396085acd8a6b3f499308bb193423ed9df5aaa3f8c84acc4551b87d6200371f9101610a17565b61019a54600160a01b900460ff16156117e75760405162461bcd60e51b8152600401610b5190615624565b6001600160a01b038116600090815261019b602052604090205460ff16156118215760405162461bcd60e51b8152600401610b519061564e565b61019854600181016118455760405162461bcd60e51b8152600401610b519061569c565b6001600160a01b038216600090815261019660205260408082208151610160810190925280548290829061187890614da7565b80601f01602080910402602001604051908101604052809291908181526020018280546118a490614da7565b80156118f15780601f106118c6576101008083540402835291602001916118f1565b820191906000526020600020905b8154815290600101906020018083116118d457829003601f168201915b5050505050815260200160018201805461190a90614da7565b80601f016020809104026020016040519081016040528092919081815260200182805461193690614da7565b80156119835780601f1061195857610100808354040283529160200191611983565b820191906000526020600020905b81548152906001019060200180831161196657829003601f168201915b5050505050815260200160028201805461199c90614da7565b80601f01602080910402602001604051908101604052809291908181526020018280546119c890614da7565b8015611a155780601f106119ea57610100808354040283529160200191611a15565b820191906000526020600020905b8154815290600101906020018083116119f857829003601f168201915b5050505050815260200160038201805480602002602001604051908101604052809291908181526020016000905b82821015611aef578382906000526020600020018054611a6290614da7565b80601f0160208091040260200160405190810160405280929190818152602001828054611a8e90614da7565b8015611adb5780601f10611ab057610100808354040283529160200191611adb565b820191906000526020600020905b815481529060010190602001808311611abe57829003601f168201915b505050505081526020019060010190611a43565b505050908252506004919091015463ffffffff8082166020840152640100000000820481166040840152600160401b820481166060840152600160601b82048116608080850191909152600160801b8304821660a0850152600160a01b8304821660c0850152600160c01b909204811660e09093019290925282015191925016600003611bcf5760405162461bcd60e51b815260206004820152602860248201527f50726f6d70744d6f6e73746572733a206d6f6e73746572206973206e6f742067604482015267195b995c985d195960c21b6064820152608401610b51565b6101988054600181018255600091909152815182916005027f3f539f465397ab387efa93a617e37005205c037386b5b474fcfac82f47f77f0d01908190611c1690826152ea565b5060208201516001820190611c2b90826152ea565b5060408201516002820190611c4090826152ea565b5060608201518051611c5c916003840191602090910190614007565b5060808201516004909101805460a084015160c085015160e08601516101008701516101208801516101409098015163ffffffff908116600160c01b0263ffffffff60c01b19998216600160a01b0263ffffffff60a01b19938316600160801b029390931667ffffffffffffffff60801b19948316600160601b0263ffffffff60601b19968416600160401b029690961667ffffffffffffffff60401b199784166401000000000267ffffffffffffffff199099169a84169a909a179790971795909516979097179290921716929092179190911793909316929092179091556001600160a01b0380851660008181526101996020908152604080832088905587835261019c825280832080546001600160a01b0319168517905592825261019b905220805460ff19166001179055610192546101935461019154611daa9490841693339316919061308316565b611db433836130dd565b81836001600160a01b0316336001600160a01b03167fe9ee779cbe62e587b706f33e99b7b8cd23e7880147261deea52b25e3ecf6a5f384604051611df89190615475565b60405180910390a4505050565b60006001600160a01b038216611e6f5760405162461bcd60e51b815260206004820152602960248201527f4552433732313a2061646472657373207a65726f206973206e6f7420612076616044820152683634b21037bbb732b960b91b6064820152608401610b51565b506001600160a01b031660009081526068602052604090205490565b6000818152606760205260409020546001600160a01b0316151580611eb1575060001981145b6112835760405162461bcd60e51b815260206004820152602660248201527f50726f6d70744d6f6e73746572733a206d6f6e7374657220646f6573206e6f7460448201526508195e1a5cdd60d21b6064820152608401610b51565b6000611f1781612b16565b61019a54600160a01b900460ff1615611f425760405162461bcd60e51b8152600401610b5190615624565b61019a805460ff60a01b1916600160a01b1790557f62e78cea01bee320cd4e420270b5ea74000d11b0c9f74754ebdbfc544b05a2586113133390565b600082815260c960205260408120611f9690836130f7565b9392505050565b60009182526097602090815260408084206001600160a01b0393909316845291905290205460ff1690565b606060668054610a3390614da7565b61019e54611fe481612b16565b61019854600181016120085760405162461bcd60e51b8152600401610b519061569c565b6101808401516001600160a01b038116600090815261019b602052604090205460ff16156120485760405162461bcd60e51b8152600401610b519061564e565b6001600160a01b0381166000908152610196602052604090206004015463ffffffff16156120885760405162461bcd60e51b8152600401610b5190615424565b600060405180610160016040528087600001518152602001876020015181526020018760400151815260200187606001518152602001876080015163ffffffff1681526020018760a0015163ffffffff1681526020018760c0015163ffffffff1681526020018760e0015163ffffffff16815260200187610100015163ffffffff16815260200187610120015163ffffffff16815260200187610140015163ffffffff168152509050806080015163ffffffff1660000361218b5760405162461bcd60e51b815260206004820152601f60248201527f50726f6d70744d6f6e73746572733a20496e76616c6964206d6f6e73746572006044820152606401610b51565b6001600160a01b038216600090815261019660205260409020815182919081906121b590826152ea565b50602082015160018201906121ca90826152ea565b50604082015160028201906121df90826152ea565b50606082015180516121fb916003840191602090910190614007565b5060808201516004909101805460a084015160c085015160e08601516101008701516101208801516101409098015163ffffffff908116600160c01b0263ffffffff60c01b19998216600160a01b0263ffffffff60a01b19938316600160801b029390931667ffffffffffffffff60801b19948316600160601b0263ffffffff60601b19968416600160401b029690961667ffffffffffffffff60401b199784166401000000000267ffffffffffffffff1990991693909a169290921796909617949094169690961791909117161792909217929092161790556101988054600181018255600091909152815182916005027f3f539f465397ab387efa93a617e37005205c037386b5b474fcfac82f47f77f0d0190819061231c90826152ea565b506020820151600182019061233190826152ea565b506040820151600282019061234690826152ea565b5060608201518051612362916003840191602090910190614007565b5060808201516004909101805460a084015160c085015160e08601516101008701516101208801516101409098015163ffffffff908116600160c01b0263ffffffff60c01b19998216600160a01b0263ffffffff60a01b19938316600160801b029390931667ffffffffffffffff60801b19948316600160601b0263ffffffff60601b19968416600160401b029690961667ffffffffffffffff60401b199784166401000000000267ffffffffffffffff1990991693909a169290921796909617949094169690961791909117161792909217929092161790556001600160a01b03821660008181526101996020908152604080832087905586835261019c825280832080546001600160a01b0319168517905592825261019b905220805460ff1916600117905561249487846130dd565b61019d5460608701516101608801516040516397fd603960e01b81526001600160a01b03909316926397fd6039926124d09287926004016156e1565b600060405180830381600087803b1580156124ea57600080fd5b505af11580156124fe573d6000803e3d6000fd5b505061019a546040516376c5486560e11b81526001600160a01b03909116925063ed8a90ca91506125359086908990600401615717565b600060405180830381600087803b15801561254f57600080fd5b505af1158015612563573d6000803e3d6000fd5b5050505082826001600160a01b0316336001600160a01b03167f6b922a4252bea39eb39072c347b52c047a5ffe6999d01ef7427bd4c4b2f8f4c7896040516125ab9190615730565b60405180910390a450505050505050565b8051606090806001600160401b038111156125d9576125d9614225565b604051908082528060200260200182016040528015612602578160200160208202803683370190505b50915060005b81811015610df857610199600085838151811061262757612627614de1565b60200260200101516001600160a01b03166001600160a01b031681526020019081526020016000205483828151811061266257612662614de1565b6020908102919091010152600101612608565b6111a3338383613103565b8051606090806001600160401b0381111561269d5761269d614225565b6040519080825280602002602001820160405280156126c6578160200160208202803683370190505b50915060005b81811015610df85761019b60008583815181106126eb576126eb614de1565b60200260200101516001600160a01b03166001600160a01b0316815260200190815260200160002060009054906101000a900460ff1683828151811061273357612733614de1565b911515602092830291909101909101526001016126cc565b6127553383612bed565b6127715760405162461bcd60e51b8152600401610b51906153d7565b61277d848484846131d1565b50505050565b8051606090806001600160401b038111156127a0576127a0614225565b6040519080825280602002602001820160405280156127c9578160200160208202803683370190505b50915060005b81811015610df85761019c60008583815181106127ee576127ee614de1565b6020026020010151815260200190815260200160002060009054906101000a90046001600160a01b031683828151811061282a5761282a614de1565b6001600160a01b03909216602092830291909101909101526001016127cf565b606061285582612b20565b61019a5461019880546001600160a01b039092169163b688876c9185918290811061288257612882614de1565b90600052602060002090600502016040518363ffffffff1660e01b81526004016128ad929190615743565b600060405180830381865afa1580156128ca573d6000803e3d6000fd5b505050506040513d6000823e601f3d908101601f19168201604052610999919081019061575c565b600081815260c96020526040812061099990613204565b60008281526097602052604090206001015461292481612b16565b610bf28383612e62565b600061293981612b16565b61019280546001600160a01b038481166001600160a01b0319831617909255166129603390565b604080516001600160a01b038481168252868116602083015292909216917fc791f304f706b4012579cd651a8a0d930c30d117f42ee74327000e3fc75bfbbc9101610a17565b61019a546060906001600160a01b031663b27945206129c3610a24565b6101946040518363ffffffff1660e01b81526004016129e3929190615790565b600060405180830381865afa158015612a00573d6000803e3d6000fd5b505050506040513d6000823e601f3d908101601f19168201604052612a28919081019061575c565b905090565b6000612a3881612b16565b61019180546001600160a01b038481166001600160a01b031983161790925516612a5f3390565b604080516001600160a01b038481168252868116602083015292909216917f5ebe54482b2a8120482902e3bfe9ca1a913e9987bcb1f18c974dae585132a9549101610a17565b6000612ab081612b16565b610193805490839055604080518281526020810185905233917f55cc83342b4c144a74960fdf0dfe1a7af4cbb77aaccb471b088d5fe0bdad1d4c9101610a17565b60006001600160e01b03198216635a05180f60e01b148061099957506109998261320e565b6112838133613233565b6000818152606760205260409020546001600160a01b03166112835760405162461bcd60e51b8152602060048201526018602482015277115490cdcc8c4e881a5b9d985b1a59081d1bdad95b88125160421b6044820152606401610b51565b600081815260696020526040902080546001600160a01b0319166001600160a01b0384169081179091558190612bb4826116e0565b6001600160a01b03167f8c5be1e5ebec7d5bd14f71427d1e84f3dd0314c0f7b2291e5b200ac8c7c3b92560405160405180910390a45050565b600080612bf9836116e0565b9050806001600160a01b0316846001600160a01b03161480612c4057506001600160a01b038082166000908152606a602090815260408083209388168352929052205460ff165b80612c645750836001600160a01b0316612c5984610ab6565b6001600160a01b0316145b949350505050565b826001600160a01b0316612c7f826116e0565b6001600160a01b031614612ca55760405162461bcd60e51b8152600401610b51906157b5565b6001600160a01b038216612d075760405162461bcd60e51b8152602060048201526024808201527f4552433732313a207472616e7366657220746f20746865207a65726f206164646044820152637265737360e01b6064820152608401610b51565b612d14838383600161328c565b826001600160a01b0316612d27826116e0565b6001600160a01b031614612d4d5760405162461bcd60e51b8152600401610b51906157b5565b600081815260696020908152604080832080546001600160a01b03199081169091556001600160a01b0387811680865260688552838620805460001901905590871680865283862080546001019055868652606790945282852080549092168417909155905184937fddf252ad1be2c89b69c2b068fc378daa952ba7f163c4a11628f55a4df523b3ef91a4505050565b612de782826132d5565b600082815260c960205260409020610bf2908261335b565b600261015f5403612e525760405162461bcd60e51b815260206004820152601f60248201527f5265656e7472616e637947756172643a207265656e7472616e742063616c6c006044820152606401610b51565b600261015f55565b600161015f55565b612e6c8282613370565b600082815260c960205260409020610bf290826133d7565b60006111a381612b16565b7f4910fdfa16fed3260ed0e7147f7cc6da11a60208b5b9406d12a635614ffd91435460ff1615612ec257610bf2836133ec565b826001600160a01b03166352d1902d6040518163ffffffff1660e01b8152600401602060405180830381865afa925050508015612f1c575060408051601f3d908101601f19168201909252612f19918101906157fa565b60015b612f7f5760405162461bcd60e51b815260206004820152602e60248201527f45524331393637557067726164653a206e657720696d706c656d656e7461746960448201526d6f6e206973206e6f74205555505360901b6064820152608401610b51565b600080516020615a2f8339815191528114612fee5760405162461bcd60e51b815260206004820152602960248201527f45524331393637557067726164653a20756e737570706f727465642070726f786044820152681a58589b195555525160ba1b6064820152608401610b51565b50610bf2838383613488565b600054610100900460ff166130215760405162461bcd60e51b8152600401610b5190615813565b6111a382826134ad565b600054610100900460ff166130525760405162461bcd60e51b8152600401610b5190615813565b565b600054610100900460ff1661307b5760405162461bcd60e51b8152600401610b5190615813565b6130526134ed565b604080516001600160a01b0385811660248301528416604482015260648082018490528251808303909101815260849091019091526020810180516001600160e01b03166323b872dd60e01b17905261277d908590613514565b6111a38282604051806020016040528060008152506135e9565b6000611f96838361361c565b816001600160a01b0316836001600160a01b0316036131645760405162461bcd60e51b815260206004820152601960248201527f4552433732313a20617070726f766520746f2063616c6c6572000000000000006044820152606401610b51565b6001600160a01b038381166000818152606a6020908152604080832094871680845294825291829020805460ff191686151590811790915591519182527f17307eab39ab6107e8899845ad3d59bd9653f200f220920489ca2b5937696c31910160405180910390a3505050565b6131dc848484612c6c565b6131e884848484613646565b61277d5760405162461bcd60e51b8152600401610b519061585e565b6000610999825490565b60006001600160e01b03198216637965db0b60e01b1480610999575061099982613747565b61323d8282611f9d565b6111a35761324a81613797565b6132558360206137a9565b6040516020016132669291906158b0565b60408051601f198184030181529082905262461bcd60e51b8252610b5191600401614189565b6001600160a01b0384166132a9576132a48383613944565b61277d565b6001600160a01b0383166132c1576132a48483613989565b6132cb8483613989565b6132a48383613944565b6132df8282611f9d565b6111a35760008281526097602090815260408083206001600160a01b03851684529091529020805460ff191660011790556133173390565b6001600160a01b0316816001600160a01b0316837f2f8788117e7eff1d82e926ec794901d17c78024a50270940304540a733656f0d60405160405180910390a45050565b6000611f96836001600160a01b038416613ac7565b61337a8282611f9d565b156111a35760008281526097602090815260408083206001600160a01b0385168085529252808320805460ff1916905551339285917ff6391f5c32d9c69d2a47ea670b442974b53935d1edc7fd64eb21e047a839171b9190a45050565b6000611f96836001600160a01b038416613b16565b6001600160a01b0381163b6134595760405162461bcd60e51b815260206004820152602d60248201527f455243313936373a206e657720696d706c656d656e746174696f6e206973206e60448201526c1bdd08184818dbdb9d1c9858dd609a1b6064820152608401610b51565b600080516020615a2f83398151915280546001600160a01b0319166001600160a01b0392909216919091179055565b61349183613c09565b60008251118061349e5750805b15610bf25761277d8383613c49565b600054610100900460ff166134d45760405162461bcd60e51b8152600401610b5190615813565b60656134e083826152ea565b506066610bf282826152ea565b600054610100900460ff16612e5a5760405162461bcd60e51b8152600401610b5190615813565b6000613569826040518060400160405280602081526020017f5361666545524332303a206c6f772d6c6576656c2063616c6c206661696c6564815250856001600160a01b0316613c6e9092919063ffffffff16565b905080516000148061358a57508080602001905181019061358a9190615925565b610bf25760405162461bcd60e51b815260206004820152602a60248201527f5361666545524332303a204552433230206f7065726174696f6e20646964206e6044820152691bdd081cdd58d8d9595960b21b6064820152608401610b51565b6135f38383613c7d565b6136006000848484613646565b610bf25760405162461bcd60e51b8152600401610b519061585e565b600082600001828154811061363357613633614de1565b9060005260206000200154905092915050565b60006001600160a01b0384163b1561373c57604051630a85bd0160e11b81526001600160a01b0385169063150b7a029061368a903390899088908890600401615942565b6020604051808303816000875af19250505080156136c5575060408051601f3d908101601f191682019092526136c291810190615975565b60015b613722573d8080156136f3576040519150601f19603f3d011682016040523d82523d6000602084013e6136f8565b606091505b50805160000361371a5760405162461bcd60e51b8152600401610b519061585e565b805181602001fd5b6001600160e01b031916630a85bd0160e11b149050612c64565b506001949350505050565b60006001600160e01b031982166380ac58cd60e01b148061377857506001600160e01b03198216635b5e139f60e01b145b8061099957506301ffc9a760e01b6001600160e01b0319831614610999565b60606109996001600160a01b03831660145b606060006137b88360026159a8565b6137c39060026159bf565b6001600160401b038111156137da576137da614225565b6040519080825280601f01601f191660200182016040528015613804576020820181803683370190505b509050600360fc1b8160008151811061381f5761381f614de1565b60200101906001600160f81b031916908160001a905350600f60fb1b8160018151811061384e5761384e614de1565b60200101906001600160f81b031916908160001a90535060006138728460026159a8565b61387d9060016159bf565b90505b60018111156138f5576f181899199a1a9b1b9c1cb0b131b232b360811b85600f16601081106138b1576138b1614de1565b1a60f81b8282815181106138c7576138c7614de1565b60200101906001600160f81b031916908160001a90535060049490941c936138ee816159d2565b9050613880565b508315611f965760405162461bcd60e51b815260206004820181905260248201527f537472696e67733a20686578206c656e67746820696e73756666696369656e746044820152606401610b51565b6001600160a01b039091166000908152610197602081815260408084208054610195845282862087875284529185208290559282526001810183559183529091200155565b6001600160a01b03821660009081526101976020526040812080546139b0906001906159e9565b815481106139c0576139c0614de1565b60009182526020808320909101546001600160a01b038616835261019582526040808420868552909252912054909150828214613a32576001600160a01b038416600090815261019760205260409020805483919083908110613a2557613a25614de1565b6000918252602090912001555b6001600160a01b038416600090815261019760205260409020805480613a5a57613a5a6159fc565b6000828152602080822083016000199081018390559092019092556001600160a01b03861682526101958152604080832086845290915281205581831461277d576001600160a01b0393909316600090815261019560209081526040808320938352929052209190915550565b6000818152600183016020526040812054613b0e57508154600181810184556000848152602080822090930184905584548482528286019093526040902091909155610999565b506000610999565b60008181526001830160205260408120548015613bff576000613b3a6001836159e9565b8554909150600090613b4e906001906159e9565b9050818114613bb3576000866000018281548110613b6e57613b6e614de1565b9060005260206000200154905080876000018481548110613b9157613b91614de1565b6000918252602080832090910192909255918252600188019052604090208390555b8554869080613bc457613bc46159fc565b600190038181906000526020600020016000905590558560010160008681526020019081526020016000206000905560019350505050610999565b6000915050610999565b613c12816133ec565b6040516001600160a01b038216907fbc7cd75a20ee27fd9adebab32041f755214dbc6bffa90cc0225b39da2e5c2d3b90600090a250565b6060611f968383604051806060016040528060278152602001615a4f60279139613e16565b6060612c648484600085613e8e565b6001600160a01b038216613cd35760405162461bcd60e51b815260206004820181905260248201527f4552433732313a206d696e7420746f20746865207a65726f20616464726573736044820152606401610b51565b6000818152606760205260409020546001600160a01b031615613d385760405162461bcd60e51b815260206004820152601c60248201527f4552433732313a20746f6b656e20616c7265616479206d696e746564000000006044820152606401610b51565b613d4660008383600161328c565b6000818152606760205260409020546001600160a01b031615613dab5760405162461bcd60e51b815260206004820152601c60248201527f4552433732313a20746f6b656e20616c7265616479206d696e746564000000006044820152606401610b51565b6001600160a01b038216600081815260686020908152604080832080546001019055848352606790915280822080546001600160a01b0319168417905551839291907fddf252ad1be2c89b69c2b068fc378daa952ba7f163c4a11628f55a4df523b3ef908290a45050565b6060600080856001600160a01b031685604051613e339190615a12565b600060405180830381855af49150503d8060008114613e6e576040519150601f19603f3d011682016040523d82523d6000602084013e613e73565b606091505b5091509150613e8486838387613f69565b9695505050505050565b606082471015613eef5760405162461bcd60e51b815260206004820152602660248201527f416464726573733a20696e73756666696369656e742062616c616e636520666f6044820152651c8818d85b1b60d21b6064820152608401610b51565b600080866001600160a01b03168587604051613f0b9190615a12565b60006040518083038185875af1925050503d8060008114613f48576040519150601f19603f3d011682016040523d82523d6000602084013e613f4d565b606091505b5091509150613f5e87838387613f69565b979650505050505050565b60608315613fd8578251600003613fd1576001600160a01b0385163b613fd15760405162461bcd60e51b815260206004820152601d60248201527f416464726573733a2063616c6c20746f206e6f6e2d636f6e74726163740000006044820152606401610b51565b5081612c64565b612c648383815115613fed5781518083602001fd5b8060405162461bcd60e51b8152600401610b519190614189565b82805482825590600052602060002090810192821561404d579160200282015b8281111561404d578251829061403d90826152ea565b5091602001919060010190614027565b5061405992915061405d565b5090565b80821115614059576000614071828261407a565b5060010161405d565b50805461408690614da7565b6000825580601f10614096575050565b601f01602090049060005260206000209081019061128391905b8082111561405957600081556001016140b0565b6001600160e01b03198116811461128357600080fd5b6000602082840312156140ec57600080fd5b8135611f96816140c4565b6001600160a01b038116811461128357600080fd5b8035614117816140f7565b919050565b60006020828403121561412e57600080fd5b8135611f96816140f7565b60005b8381101561415457818101518382015260200161413c565b50506000910152565b60008151808452614175816020860160208601614139565b601f01601f19169290920160200192915050565b602081526000611f96602083018461415d565b6000602082840312156141ae57600080fd5b5035919050565b600080604083850312156141c857600080fd5b82356141d3816140f7565b946020939093013593505050565b6020808252825182820181905260009190848201906040850190845b81811015614219578351835292840192918401916001016141fd565b50909695505050505050565b634e487b7160e01b600052604160045260246000fd5b60405161016081016001600160401b038111828210171561425e5761425e614225565b60405290565b6040516101a081016001600160401b038111828210171561425e5761425e614225565b604051601f8201601f191681016001600160401b03811182821017156142af576142af614225565b604052919050565b60006001600160401b038211156142d0576142d0614225565b5060051b60200190565b600060208083850312156142ed57600080fd5b82356001600160401b0381111561430357600080fd5b8301601f8101851361431457600080fd5b8035614327614322826142b7565b614287565b81815260059190911b8201830190838101908783111561434657600080fd5b928401925b82841015613f5e57833561435e816140f7565b8252928401929084019061434b565b600081518084526020808501808196508360051b8101915082860160005b858110156143b55782840389526143a384835161415d565b9885019893509084019060010161438b565b5091979650505050505050565b600081518084526020808501945080840160005b838110156143f857815163ffffffff16875295820195908201906001016143d6565b509495945050505050565b60006101a082518185526144198286018261415d565b91505060208301518482036020860152614433828261415d565b9150506040830151848203604086015261444d828261415d565b91505060608301518482036060860152614467828261436d565b9150506080830151614481608086018263ffffffff169052565b5060a083015161449960a086018263ffffffff169052565b5060c08301516144b160c086018263ffffffff169052565b5060e08301516144c960e086018263ffffffff169052565b506101008381015163ffffffff90811691860191909152610120808501518216908601526101408085015190911690850152610160808401518583038287015261451383826143c2565b9250505061018080840151614532828701826001600160a01b03169052565b5090949350505050565b6000602080830181845280855180835260408601915060408160051b870101925083870160005b8281101561459157603f1988860301845261457f858351614403565b94509285019290850190600101614563565b5092979650505050505050565b60006001600160401b038211156145b7576145b7614225565b50601f01601f191660200190565b600082601f8301126145d657600080fd5b81356145e46143228261459e565b8181528460208386010111156145f957600080fd5b816020850160208301376000918101602001919091529392505050565b60006020828403121561462857600080fd5b81356001600160401b0381111561463e57600080fd5b612c64848285016145c5565b60008060006060848603121561465f57600080fd5b833561466a816140f7565b9250602084013561467a816140f7565b929592945050506040919091013590565b6000806040838503121561469e57600080fd5b8235915060208301356146b0816140f7565b809150509250929050565b600082601f8301126146cc57600080fd5b813560206146dc614322836142b7565b82815260059290921b840181019181810190868411156146fb57600080fd5b8286015b8481101561473a5780356001600160401b0381111561471e5760008081fd5b61472c8986838b01016145c5565b8452509183019183016146ff565b509695505050505050565b63ffffffff8116811461128357600080fd5b803561411781614745565b6000806040838503121561477557600080fd5b8235614780816140f7565b915060208301356001600160401b038082111561479c57600080fd5b9084019061016082870312156147b157600080fd5b6147b961423b565b8235828111156147c857600080fd5b6147d4888286016145c5565b8252506020830135828111156147e957600080fd5b6147f5888286016145c5565b60208301525060408301358281111561480d57600080fd5b614819888286016145c5565b60408301525060608301358281111561483157600080fd5b61483d888286016146bb565b60608301525061484f60808401614757565b608082015261486060a08401614757565b60a082015261487160c08401614757565b60c082015261488260e08401614757565b60e08201526101009150614897828401614757565b8282015261012091506148ab828401614757565b8282015261014091506148bf828401614757565b828201528093505050509250929050565b600080604083850312156148e357600080fd5b82356148ee816140f7565b915060208301356001600160401b0381111561490957600080fd5b614915858286016145c5565b9150509250929050565b6000806000806080858703121561493557600080fd5b84356001600160401b0381111561494b57600080fd5b614957878288016145c5565b9450506020850135614968816140f7565b925060408501359150606085013561497f816140f7565b939692955090935050565b6000806040838503121561499d57600080fd5b50508035926020909101359150565b600082601f8301126149bd57600080fd5b813560206149cd614322836142b7565b82815260059290921b840181019181810190868411156149ec57600080fd5b8286015b8481101561473a578035614a0381614745565b83529183019183016149f0565b600080600060608486031215614a2557600080fd5b8335614a30816140f7565b925060208401356001600160401b0380821115614a4c57600080fd5b908501906101a08288031215614a6157600080fd5b614a69614264565b823582811115614a7857600080fd5b614a84898286016145c5565b825250602083013582811115614a9957600080fd5b614aa5898286016145c5565b602083015250604083013582811115614abd57600080fd5b614ac9898286016145c5565b604083015250606083013582811115614ae157600080fd5b614aed898286016146bb565b606083015250614aff60808401614757565b6080820152614b1060a08401614757565b60a0820152614b2160c08401614757565b60c0820152614b3260e08401614757565b60e0820152610100614b45818501614757565b90820152610120614b57848201614757565b90820152610140614b69848201614757565b908201526101608381013583811115614b8157600080fd5b614b8d8a8287016149ac565b828401525050610180614ba181850161410c565b9082015293506040860135915080821115614bbb57600080fd5b50614bc8868287016145c5565b9150509250925092565b801515811461128357600080fd5b60008060408385031215614bf357600080fd5b8235614bfe816140f7565b915060208301356146b081614bd2565b6020808252825182820181905260009190848201906040850190845b81811015614219578351151583529284019291840191600101614c2a565b60008060008060808587031215614c5e57600080fd5b8435614c69816140f7565b93506020850135614c79816140f7565b92506040850135915060608501356001600160401b03811115614c9b57600080fd5b614ca7878288016145c5565b91505092959194509250565b60006020808385031215614cc657600080fd5b82356001600160401b03811115614cdc57600080fd5b8301601f81018513614ced57600080fd5b8035614cfb614322826142b7565b81815260059190911b82018301908381019087831115614d1a57600080fd5b928401925b82841015613f5e57833582529284019290840190614d1f565b6020808252825182820181905260009190848201906040850190845b818110156142195783516001600160a01b031683529284019291840191600101614d54565b60008060408385031215614d8c57600080fd5b8235614d97816140f7565b915060208301356146b0816140f7565b600181811c90821680614dbb57607f821691505b602082108103614ddb57634e487b7160e01b600052602260045260246000fd5b50919050565b634e487b7160e01b600052603260045260246000fd5b60008154614e0481614da7565b808552602060018381168015614e215760018114614e3b57614e69565b60ff1985168884015283151560051b880183019550614e69565b866000528260002060005b85811015614e615781548a8201860152908301908401614e46565b890184019650505b505050505092915050565b600082825480855260208086019550808260051b840101856000528160002060005b84811015614ec357858303601f19018952614eb18383614df7565b98840198925060019182019101614e96565b5090979650505050505050565b6000610160808452614ee481850184614df7565b90508381036020850152614efb8160018501614df7565b90508381036040850152614f128160028501614df7565b90508381036060850152614f298160038501614e74565b600484015463ffffffff8082166080880152602082901c811660a0880152604082901c811660c0880152606082901c811660e088015291925090614f7b6101008701828460801c1663ffffffff169052565b614f936101208701828460a01c1663ffffffff169052565b6145326101408701828460c01c1663ffffffff169052565b6001600160a01b0383168152604060208201819052600090612c6490830184614ed0565b600082601f830112614fe057600080fd5b8151614fee6143228261459e565b81815284602083860101111561500357600080fd5b612c64826020830160208701614139565b600082601f83011261502557600080fd5b81516020615035614322836142b7565b82815260059290921b8401810191818101908684111561505457600080fd5b8286015b8481101561473a5780516001600160401b038111156150775760008081fd5b6150858986838b0101614fcf565b845250918301918301615058565b805161411781614745565b600082601f8301126150af57600080fd5b815160206150bf614322836142b7565b82815260059290921b840181019181810190868411156150de57600080fd5b8286015b8481101561473a5780516150f581614745565b83529183019183016150e2565b8051614117816140f7565b60006020828403121561511f57600080fd5b81516001600160401b038082111561513657600080fd5b908301906101a0828603121561514b57600080fd5b615153614264565b82518281111561516257600080fd5b61516e87828601614fcf565b82525060208301518281111561518357600080fd5b61518f87828601614fcf565b6020830152506040830151828111156151a757600080fd5b6151b387828601614fcf565b6040830152506060830151828111156151cb57600080fd5b6151d787828601615014565b6060830152506151e960808401615093565b60808201526151fa60a08401615093565b60a082015261520b60c08401615093565b60c082015261521c60e08401615093565b60e082015261010061522f818501615093565b90820152610120615241848201615093565b90820152610140615253848201615093565b90820152610160838101518381111561526b57600080fd5b6152778882870161509e565b828401525050610180915061528d828401615102565b91810191909152949350505050565b601f821115610bf257600081815260208120601f850160051c810160208610156152c35750805b601f850160051c820191505b818110156152e2578281556001016152cf565b505050505050565b81516001600160401b0381111561530357615303614225565b615317816153118454614da7565b8461529c565b602080601f83116001811461534c57600084156153345750858301515b600019600386901b1c1916600185901b1785556152e2565b600085815260208120601f198616915b8281101561537b5788860151825594840194600190910190840161535c565b50858210156153995787850151600019600388901b60f8161c191681555b5050505050600190811b01905550565b6040815260006153bc604083018561415d565b82810360208401526153ce818561415d565b95945050505050565b6020808252602d908201527f4552433732313a2063616c6c6572206973206e6f7420746f6b656e206f776e6560408201526c1c881bdc88185c1c1c9bdd9959609a1b606082015260800190565b60208082526031908201527f50726f6d70744d6f6e73746572733a2054686973206d6f6e7374657220697320604082015270185b1c9958591e4819d95b995c985d1959607a1b606082015260800190565b602081526000825161016080602085015261549461018085018361415d565b91506020850151601f19808685030160408701526154b2848361415d565b935060408701519150808685030160608701526154cf848361415d565b93506060870151915080868503016080870152506154ed838261436d565b925050608085015161550760a086018263ffffffff169052565b5060a085015163ffffffff811660c08601525060c085015163ffffffff811660e08601525060e08501516101006155458187018363ffffffff169052565b860151905061012061555e8682018363ffffffff169052565b86015190506101406155778682018363ffffffff169052565b86015163ffffffff8116838701529050614532565b6020808252602c908201527f46756e6374696f6e206d7573742062652063616c6c6564207468726f7567682060408201526b19195b1959d85d1958d85b1b60a21b606082015260800190565b6020808252602c908201527f46756e6374696f6e206d7573742062652063616c6c6564207468726f7567682060408201526b6163746976652070726f787960a01b606082015260800190565b60208082526010908201526f14185d5cd8589b194e881c185d5cd95960821b604082015260600190565b6020808252602e908201527f50726f6d70744d6f6e73746572733a2054686973206d6f6e737465722069732060408201526d185b1c9958591e481b5a5b9d195960921b606082015260800190565b60208082526025908201527f50726f6d70744d6f6e73746572733a20746f6b656e20494420697320746f6f206040820152646c6172676560d81b606082015260800190565b6001600160a01b03841681526060602082018190526000906157059083018561436d565b8281036040840152613e8481856143c2565b828152604060208201526000612c64604083018461415d565b602081526000611f966020830184614403565b828152604060208201526000612c646040830184614ed0565b60006020828403121561576e57600080fd5b81516001600160401b0381111561578457600080fd5b612c6484828501614fcf565b6040815260006157a3604083018561415d565b82810360208401526153ce8185614df7565b60208082526025908201527f4552433732313a207472616e736665722066726f6d20696e636f72726563742060408201526437bbb732b960d91b606082015260800190565b60006020828403121561580c57600080fd5b5051919050565b6020808252602b908201527f496e697469616c697a61626c653a20636f6e7472616374206973206e6f74206960408201526a6e697469616c697a696e6760a81b606082015260800190565b60208082526032908201527f4552433732313a207472616e7366657220746f206e6f6e20455243373231526560408201527131b2b4bb32b91034b6b83632b6b2b73a32b960711b606082015260800190565b7f416363657373436f6e74726f6c3a206163636f756e74200000000000000000008152600083516158e8816017850160208801614139565b7001034b99036b4b9b9b4b733903937b6329607d1b6017918401918201528351615919816028840160208801614139565b01602801949350505050565b60006020828403121561593757600080fd5b8151611f9681614bd2565b6001600160a01b0385811682528416602082015260408101839052608060608201819052600090613e849083018461415d565b60006020828403121561598757600080fd5b8151611f96816140c4565b634e487b7160e01b600052601160045260246000fd5b808202811582820484141761099957610999615992565b8082018082111561099957610999615992565b6000816159e1576159e1615992565b506000190190565b8181038181111561099957610999615992565b634e487b7160e01b600052603160045260246000fd5b60008251615a24818460208701614139565b919091019291505056fe360894a13ba1a3210667c828492db98dca3e2076cc3735a920a3ca505d382bbc416464726573733a206c6f772d6c6576656c2064656c65676174652063616c6c206661696c6564a26469706673582212205af786b721650c11ec75e34a964c513f5037fd080e4ad0f76974d5477be8c90f64736f6c63430008120033",
  "linkReferences": {},
  "deployedLinkReferences": {}
}