{
  "_format": "hh-sol-artifact-1",
  "contractName": "PromptMonsters",
  "sourceName": "contracts/prompt-monsters/PromptMonsters.sol",
  "abi": [
    {
      "inputs": [],
      "stateMutability": "nonpayable",
      "type": "constructor"
    },
    {
      "anonymous": false,
      "inputs": [
        {
          "indexed": false,
          "internalType": "address",
          "name": "previousAdmin",
          "type": "address"
        },
        {
          "indexed": false,
          "internalType": "address",
          "name": "newAdmin",
          "type": "address"
        }
      ],
      "name": "AdminChanged",
      "type": "event"
    },
    {
      "anonymous": false,
      "inputs": [
        {
          "indexed": true,
          "internalType": "address",
          "name": "owner",
          "type": "address"
        },
        {
          "indexed": true,
          "internalType": "address",
          "name": "approved",
          "type": "address"
        },
        {
          "indexed": true,
          "internalType": "uint256",
          "name": "tokenId",
          "type": "uint256"
        }
      ],
      "name": "Approval",
      "type": "event"
    },
    {
      "anonymous": false,
      "inputs": [
        {
          "indexed": true,
          "internalType": "address",
          "name": "owner",
          "type": "address"
        },
        {
          "indexed": true,
          "internalType": "address",
          "name": "operator",
          "type": "address"
        },
        {
          "indexed": false,
          "internalType": "bool",
          "name": "approved",
          "type": "bool"
        }
      ],
      "name": "ApprovalForAll",
      "type": "event"
    },
    {
      "anonymous": false,
      "inputs": [
        {
          "indexed": true,
          "internalType": "address",
          "name": "beacon",
          "type": "address"
        }
      ],
      "name": "BeaconUpgraded",
      "type": "event"
    },
    {
      "anonymous": false,
      "inputs": [
        {
          "indexed": false,
          "internalType": "uint8",
          "name": "version",
          "type": "uint8"
        }
      ],
      "name": "Initialized",
      "type": "event"
    },
    {
      "anonymous": false,
      "inputs": [
        {
          "indexed": true,
          "internalType": "bytes32",
          "name": "role",
          "type": "bytes32"
        },
        {
          "indexed": true,
          "internalType": "bytes32",
          "name": "previousAdminRole",
          "type": "bytes32"
        },
        {
          "indexed": true,
          "internalType": "bytes32",
          "name": "newAdminRole",
          "type": "bytes32"
        }
      ],
      "name": "RoleAdminChanged",
      "type": "event"
    },
    {
      "anonymous": false,
      "inputs": [
        {
          "indexed": true,
          "internalType": "bytes32",
          "name": "role",
          "type": "bytes32"
        },
        {
          "indexed": true,
          "internalType": "address",
          "name": "account",
          "type": "address"
        },
        {
          "indexed": true,
          "internalType": "address",
          "name": "sender",
          "type": "address"
        }
      ],
      "name": "RoleGranted",
      "type": "event"
    },
    {
      "anonymous": false,
      "inputs": [
        {
          "indexed": true,
          "internalType": "bytes32",
          "name": "role",
          "type": "bytes32"
        },
        {
          "indexed": true,
          "internalType": "address",
          "name": "account",
          "type": "address"
        },
        {
          "indexed": true,
          "internalType": "address",
          "name": "sender",
          "type": "address"
        }
      ],
      "name": "RoleRevoked",
      "type": "event"
    },
    {
      "anonymous": false,
      "inputs": [
        {
          "indexed": true,
          "internalType": "address",
          "name": "publisher",
          "type": "address"
        },
        {
          "indexed": false,
          "internalType": "address",
          "name": "oldValue",
          "type": "address"
        },
        {
          "indexed": false,
          "internalType": "address",
          "name": "newValue",
          "type": "address"
        }
      ],
      "name": "SetErc20",
      "type": "event"
    },
    {
      "anonymous": false,
      "inputs": [
        {
          "indexed": true,
          "internalType": "address",
          "name": "publisher",
          "type": "address"
        },
        {
          "indexed": false,
          "internalType": "string",
          "name": "oldValue",
          "type": "string"
        },
        {
          "indexed": false,
          "internalType": "string",
          "name": "newValue",
          "type": "string"
        }
      ],
      "name": "SetExternalLink",
      "type": "event"
    },
    {
      "anonymous": false,
      "inputs": [
        {
          "indexed": true,
          "internalType": "address",
          "name": "publisher",
          "type": "address"
        },
        {
          "indexed": false,
          "internalType": "uint256",
          "name": "oldValue",
          "type": "uint256"
        },
        {
          "indexed": false,
          "internalType": "uint256",
          "name": "newValue",
          "type": "uint256"
        }
      ],
      "name": "SetMintPrice",
      "type": "event"
    },
    {
      "anonymous": false,
      "inputs": [
        {
          "indexed": true,
          "internalType": "address",
          "name": "publisher",
          "type": "address"
        },
        {
          "indexed": false,
          "internalType": "address",
          "name": "oldValue",
          "type": "address"
        },
        {
          "indexed": false,
          "internalType": "address",
          "name": "newValue",
          "type": "address"
        }
      ],
      "name": "SetPromptMonstersWallet",
      "type": "event"
    },
    {
      "anonymous": false,
      "inputs": [
        {
          "indexed": true,
          "internalType": "address",
          "name": "from",
          "type": "address"
        },
        {
          "indexed": true,
          "internalType": "address",
          "name": "to",
          "type": "address"
        },
        {
          "indexed": true,
          "internalType": "uint256",
          "name": "tokenId",
          "type": "uint256"
        }
      ],
      "name": "Transfer",
      "type": "event"
    },
    {
      "anonymous": false,
      "inputs": [
        {
          "indexed": true,
          "internalType": "address",
          "name": "implementation",
          "type": "address"
        }
      ],
      "name": "Upgraded",
      "type": "event"
    },
    {
      "inputs": [],
      "name": "DEFAULT_ADMIN_ROLE",
      "outputs": [
        {
          "internalType": "bytes32",
          "name": "",
          "type": "bytes32"
        }
      ],
      "stateMutability": "view",
      "type": "function"
    },
    {
      "inputs": [
        {
          "internalType": "address",
          "name": "to",
          "type": "address"
        },
        {
          "internalType": "uint256",
          "name": "tokenId",
          "type": "uint256"
        }
      ],
      "name": "approve",
      "outputs": [],
      "stateMutability": "nonpayable",
      "type": "function"
    },
    {
      "inputs": [
        {
          "internalType": "address",
          "name": "owner",
          "type": "address"
        }
      ],
      "name": "balanceOf",
      "outputs": [
        {
          "internalType": "uint256",
          "name": "",
          "type": "uint256"
        }
      ],
      "stateMutability": "view",
      "type": "function"
    },
    {
      "inputs": [
        {
          "internalType": "uint256",
          "name": "tokenId_",
          "type": "uint256"
        }
      ],
      "name": "burn",
      "outputs": [],
      "stateMutability": "nonpayable",
      "type": "function"
    },
    {
      "inputs": [
        {
          "internalType": "uint256",
          "name": "monsterId",
          "type": "uint256"
        }
      ],
      "name": "checkMonsterId",
      "outputs": [],
      "stateMutability": "view",
      "type": "function"
    },
    {
      "inputs": [],
      "name": "contractURI",
      "outputs": [
        {
          "internalType": "string",
          "name": "uri",
          "type": "string"
        }
      ],
      "stateMutability": "view",
      "type": "function"
    },
    {
      "inputs": [],
      "name": "erc20",
      "outputs": [
        {
          "internalType": "contract IERC20",
          "name": "",
          "type": "address"
        }
      ],
      "stateMutability": "view",
      "type": "function"
    },
    {
      "inputs": [
        {
          "internalType": "address",
          "name": "resurrectionPrompt_",
          "type": "address"
        },
        {
          "components": [
            {
              "internalType": "string",
              "name": "feature",
              "type": "string"
            },
            {
              "internalType": "string",
              "name": "name",
              "type": "string"
            },
            {
              "internalType": "string",
              "name": "flavor",
              "type": "string"
            },
            {
              "internalType": "string[]",
              "name": "skills",
              "type": "string[]"
            },
            {
              "internalType": "uint32",
              "name": "lv",
              "type": "uint32"
            },
            {
              "internalType": "uint32",
              "name": "hp",
              "type": "uint32"
            },
            {
              "internalType": "uint32",
              "name": "atk",
              "type": "uint32"
            },
            {
              "internalType": "uint32",
              "name": "def",
              "type": "uint32"
            },
            {
              "internalType": "uint32",
              "name": "inte",
              "type": "uint32"
            },
            {
              "internalType": "uint32",
              "name": "mgr",
              "type": "uint32"
            },
            {
              "internalType": "uint32",
              "name": "agl",
              "type": "uint32"
            }
          ],
          "internalType": "struct IPromptMonsters.Monster",
          "name": "monster_",
          "type": "tuple"
        }
      ],
      "name": "generateMonster",
      "outputs": [],
      "stateMutability": "nonpayable",
      "type": "function"
    },
    {
      "inputs": [
        {
          "internalType": "uint256",
          "name": "tokenId",
          "type": "uint256"
        }
      ],
      "name": "getApproved",
      "outputs": [
        {
          "internalType": "address",
          "name": "",
          "type": "address"
        }
      ],
      "stateMutability": "view",
      "type": "function"
    },
    {
      "inputs": [
        {
          "internalType": "address",
          "name": "resurrectionPrompt",
          "type": "address"
        }
      ],
      "name": "getMonsterHistory",
      "outputs": [
        {
          "components": [
            {
              "internalType": "string",
              "name": "feature",
              "type": "string"
            },
            {
              "internalType": "string",
              "name": "name",
              "type": "string"
            },
            {
              "internalType": "string",
              "name": "flavor",
              "type": "string"
            },
            {
              "internalType": "string[]",
              "name": "skills",
              "type": "string[]"
            },
            {
              "internalType": "uint32",
              "name": "lv",
              "type": "uint32"
            },
            {
              "internalType": "uint32",
              "name": "hp",
              "type": "uint32"
            },
            {
              "internalType": "uint32",
              "name": "atk",
              "type": "uint32"
            },
            {
              "internalType": "uint32",
              "name": "def",
              "type": "uint32"
            },
            {
              "internalType": "uint32",
              "name": "inte",
              "type": "uint32"
            },
            {
              "internalType": "uint32",
              "name": "mgr",
              "type": "uint32"
            },
            {
              "internalType": "uint32",
              "name": "agl",
              "type": "uint32"
            }
          ],
          "internalType": "struct IPromptMonsters.Monster",
          "name": "monsterHistory",
          "type": "tuple"
        }
      ],
      "stateMutability": "view",
      "type": "function"
    },
    {
      "inputs": [
        {
          "internalType": "uint256[]",
          "name": "tokenIds_",
          "type": "uint256[]"
        }
      ],
      "name": "getMonsters",
      "outputs": [
        {
          "components": [
            {
              "internalType": "string",
              "name": "feature",
              "type": "string"
            },
            {
              "internalType": "string",
              "name": "name",
              "type": "string"
            },
            {
              "internalType": "string",
              "name": "flavor",
              "type": "string"
            },
            {
              "internalType": "string[]",
              "name": "skills",
              "type": "string[]"
            },
            {
              "internalType": "uint32",
              "name": "lv",
              "type": "uint32"
            },
            {
              "internalType": "uint32",
              "name": "hp",
              "type": "uint32"
            },
            {
              "internalType": "uint32",
              "name": "atk",
              "type": "uint32"
            },
            {
              "internalType": "uint32",
              "name": "def",
              "type": "uint32"
            },
            {
              "internalType": "uint32",
              "name": "inte",
              "type": "uint32"
            },
            {
              "internalType": "uint32",
              "name": "mgr",
              "type": "uint32"
            },
            {
              "internalType": "uint32",
              "name": "agl",
              "type": "uint32"
            }
          ],
          "internalType": "struct IPromptMonsters.Monster[]",
          "name": "monsters",
          "type": "tuple[]"
        }
      ],
      "stateMutability": "view",
      "type": "function"
    },
    {
      "inputs": [],
      "name": "getMonstersTotalSupply",
      "outputs": [
        {
          "internalType": "uint256",
          "name": "totalSupply",
          "type": "uint256"
        }
      ],
      "stateMutability": "view",
      "type": "function"
    },
    {
      "inputs": [
        {
          "internalType": "address",
          "name": "owner",
          "type": "address"
        }
      ],
      "name": "getOwnerToTokenIds",
      "outputs": [
        {
          "internalType": "uint256[]",
          "name": "tokenIds",
          "type": "uint256[]"
        }
      ],
      "stateMutability": "view",
      "type": "function"
    },
    {
      "inputs": [
        {
          "internalType": "bytes32",
          "name": "role",
          "type": "bytes32"
        }
      ],
      "name": "getRoleAdmin",
      "outputs": [
        {
          "internalType": "bytes32",
          "name": "",
          "type": "bytes32"
        }
      ],
      "stateMutability": "view",
      "type": "function"
    },
    {
      "inputs": [
        {
          "internalType": "bytes32",
          "name": "role",
          "type": "bytes32"
        },
        {
          "internalType": "uint256",
          "name": "index",
          "type": "uint256"
        }
      ],
      "name": "getRoleMember",
      "outputs": [
        {
          "internalType": "address",
          "name": "",
          "type": "address"
        }
      ],
      "stateMutability": "view",
      "type": "function"
    },
    {
      "inputs": [
        {
          "internalType": "bytes32",
          "name": "role",
          "type": "bytes32"
        }
      ],
      "name": "getRoleMemberCount",
      "outputs": [
        {
          "internalType": "uint256",
          "name": "",
          "type": "uint256"
        }
      ],
      "stateMutability": "view",
      "type": "function"
    },
    {
      "inputs": [
        {
          "internalType": "bytes32",
          "name": "role",
          "type": "bytes32"
        },
        {
          "internalType": "address",
          "name": "account",
          "type": "address"
        }
      ],
      "name": "grantRole",
      "outputs": [],
      "stateMutability": "nonpayable",
      "type": "function"
    },
    {
      "inputs": [
        {
          "internalType": "bytes32",
          "name": "role",
          "type": "bytes32"
        },
        {
          "internalType": "address",
          "name": "account",
          "type": "address"
        }
      ],
      "name": "hasRole",
      "outputs": [
        {
          "internalType": "bool",
          "name": "",
          "type": "bool"
        }
      ],
      "stateMutability": "view",
      "type": "function"
    },
    {
      "inputs": [
        {
          "internalType": "string",
          "name": "externalLink_",
          "type": "string"
        },
        {
          "internalType": "address",
          "name": "erc20Address_",
          "type": "address"
        },
        {
          "internalType": "uint256",
          "name": "mintPrice_",
          "type": "uint256"
        },
        {
          "internalType": "address",
          "name": "promptMonstersWallet_",
          "type": "address"
        }
      ],
      "name": "initialize",
      "outputs": [],
      "stateMutability": "nonpayable",
      "type": "function"
    },
    {
      "inputs": [
        {
          "internalType": "address",
          "name": "owner",
          "type": "address"
        },
        {
          "internalType": "address",
          "name": "operator",
          "type": "address"
        }
      ],
      "name": "isApprovedForAll",
      "outputs": [
        {
          "internalType": "bool",
          "name": "",
          "type": "bool"
        }
      ],
      "stateMutability": "view",
      "type": "function"
    },
    {
      "inputs": [
        {
          "internalType": "address",
          "name": "resurrectionPrompt",
          "type": "address"
        }
      ],
      "name": "mint",
      "outputs": [],
      "stateMutability": "nonpayable",
      "type": "function"
    },
    {
      "inputs": [],
      "name": "mintPrice",
      "outputs": [
        {
          "internalType": "uint256",
          "name": "",
          "type": "uint256"
        }
      ],
      "stateMutability": "view",
      "type": "function"
    },
    {
      "inputs": [],
      "name": "name",
      "outputs": [
        {
          "internalType": "string",
          "name": "",
          "type": "string"
        }
      ],
      "stateMutability": "view",
      "type": "function"
    },
    {
      "inputs": [
        {
          "internalType": "uint256",
          "name": "tokenId",
          "type": "uint256"
        }
      ],
      "name": "ownerOf",
      "outputs": [
        {
          "internalType": "address",
          "name": "",
          "type": "address"
        }
      ],
      "stateMutability": "view",
      "type": "function"
    },
    {
      "inputs": [],
      "name": "promptMonstersWallet",
      "outputs": [
        {
          "internalType": "address",
          "name": "",
          "type": "address"
        }
      ],
      "stateMutability": "view",
      "type": "function"
    },
    {
      "inputs": [],
      "name": "proxiableUUID",
      "outputs": [
        {
          "internalType": "bytes32",
          "name": "",
          "type": "bytes32"
        }
      ],
      "stateMutability": "view",
      "type": "function"
    },
    {
      "inputs": [
        {
          "internalType": "bytes32",
          "name": "role",
          "type": "bytes32"
        },
        {
          "internalType": "address",
          "name": "account",
          "type": "address"
        }
      ],
      "name": "renounceRole",
      "outputs": [],
      "stateMutability": "nonpayable",
      "type": "function"
    },
    {
      "inputs": [
        {
          "internalType": "bytes32",
          "name": "role",
          "type": "bytes32"
        },
        {
          "internalType": "address",
          "name": "account",
          "type": "address"
        }
      ],
      "name": "revokeRole",
      "outputs": [],
      "stateMutability": "nonpayable",
      "type": "function"
    },
    {
      "inputs": [
        {
          "internalType": "address",
          "name": "from",
          "type": "address"
        },
        {
          "internalType": "address",
          "name": "to",
          "type": "address"
        },
        {
          "internalType": "uint256",
          "name": "tokenId",
          "type": "uint256"
        }
      ],
      "name": "safeTransferFrom",
      "outputs": [],
      "stateMutability": "nonpayable",
      "type": "function"
    },
    {
      "inputs": [
        {
          "internalType": "address",
          "name": "from",
          "type": "address"
        },
        {
          "internalType": "address",
          "name": "to",
          "type": "address"
        },
        {
          "internalType": "uint256",
          "name": "tokenId",
          "type": "uint256"
        },
        {
          "internalType": "bytes",
          "name": "data",
          "type": "bytes"
        }
      ],
      "name": "safeTransferFrom",
      "outputs": [],
      "stateMutability": "nonpayable",
      "type": "function"
    },
    {
      "inputs": [
        {
          "internalType": "address",
          "name": "operator",
          "type": "address"
        },
        {
          "internalType": "bool",
          "name": "approved",
          "type": "bool"
        }
      ],
      "name": "setApprovalForAll",
      "outputs": [],
      "stateMutability": "nonpayable",
      "type": "function"
    },
    {
      "inputs": [
        {
          "internalType": "address",
          "name": "newState_",
          "type": "address"
        }
      ],
      "name": "setErc20",
      "outputs": [],
      "stateMutability": "nonpayable",
      "type": "function"
    },
    {
      "inputs": [
        {
          "internalType": "string",
          "name": "newState_",
          "type": "string"
        }
      ],
      "name": "setExternalLink",
      "outputs": [],
      "stateMutability": "nonpayable",
      "type": "function"
    },
    {
      "inputs": [
        {
          "internalType": "uint256",
          "name": "newState_",
          "type": "uint256"
        }
      ],
      "name": "setMintPrice",
      "outputs": [],
      "stateMutability": "nonpayable",
      "type": "function"
    },
    {
      "inputs": [
        {
          "internalType": "address",
          "name": "newState_",
          "type": "address"
        }
      ],
      "name": "setPromptMonstersWallet",
      "outputs": [],
      "stateMutability": "nonpayable",
      "type": "function"
    },
    {
      "inputs": [
        {
          "internalType": "bytes4",
          "name": "interfaceId",
          "type": "bytes4"
        }
      ],
      "name": "supportsInterface",
      "outputs": [
        {
          "internalType": "bool",
          "name": "",
          "type": "bool"
        }
      ],
      "stateMutability": "view",
      "type": "function"
    },
    {
      "inputs": [],
      "name": "symbol",
      "outputs": [
        {
          "internalType": "string",
          "name": "",
          "type": "string"
        }
      ],
      "stateMutability": "view",
      "type": "function"
    },
    {
      "inputs": [
        {
          "internalType": "uint256",
          "name": "tokenId_",
          "type": "uint256"
        }
      ],
      "name": "tokenURI",
      "outputs": [
        {
          "internalType": "string",
          "name": "uri",
          "type": "string"
        }
      ],
      "stateMutability": "view",
      "type": "function"
    },
    {
      "inputs": [
        {
          "internalType": "address",
          "name": "from",
          "type": "address"
        },
        {
          "internalType": "address",
          "name": "to",
          "type": "address"
        },
        {
          "internalType": "uint256",
          "name": "tokenId",
          "type": "uint256"
        }
      ],
      "name": "transferFrom",
      "outputs": [],
      "stateMutability": "nonpayable",
      "type": "function"
    },
    {
      "inputs": [
        {
          "internalType": "address",
          "name": "newImplementation",
          "type": "address"
        }
      ],
      "name": "upgradeTo",
      "outputs": [],
      "stateMutability": "nonpayable",
      "type": "function"
    },
    {
      "inputs": [
        {
          "internalType": "address",
          "name": "newImplementation",
          "type": "address"
        },
        {
          "internalType": "bytes",
          "name": "data",
          "type": "bytes"
        }
      ],
      "name": "upgradeToAndCall",
      "outputs": [],
      "stateMutability": "payable",
      "type": "function"
    }
  ],
  "bytecode": "0x60a0604052306080523480156200001557600080fd5b506200002062000026565b620000e8565b600054610100900460ff1615620000935760405162461bcd60e51b815260206004820152602760248201527f496e697469616c697a61626c653a20636f6e747261637420697320696e697469604482015266616c697a696e6760c81b606482015260840160405180910390fd5b60005460ff9081161015620000e6576000805460ff191660ff9081179091556040519081527f7f26b83ff96e1f2b6a682f133852f6798a09c465da95921460cefb38474024989060200160405180910390a15b565b608051615d656200012060003960008181610d4a01528181610d8a01528181610e6c01528181610eac0152610f3b0152615d656000f3fe6080604052600436106102465760003560e01c80636817c76c11610139578063b2664c2e116100b6578063d547741f1161007a578063d547741f146106e2578063e4bab3f514610702578063e8a3d48514610722578063e985e9c514610737578063ee9b80a414610780578063f4a0a528146107a057600080fd5b8063b2664c2e14610628578063b88d4fde14610655578063c4b64f2614610675578063c87b56dd146106a2578063ca15c873146106c257600080fd5b80639010d07c116100fd5780639010d07c1461059e57806391d14854146105be57806395d89b41146105de578063a217fddf146105f3578063a22cb4651461060857600080fd5b80636817c76c146105065780636a6278421461051d57806370a082311461053d578063785e9e861461055d578063831864651461057e57600080fd5b806333a512a4116101c75780634f1ef2861161018b5780634f1ef2861461048857806352d1902d1461049b57806352dd29d2146104b057806355b09456146104c65780636352211e146104e657600080fd5b806333a512a4146103e857806336568abe146104085780633659cfe61461042857806342842e0e1461044857806342966c681461046857600080fd5b8063145f0fa91161020e578063145f0fa9146103295780631f9179211461034a57806323b872dd1461036a578063248a9ca31461038a5780632f2ff15d146103c857600080fd5b806301ffc9a71461024b57806306fdde0314610280578063081812fc146102a2578063095ea7b3146102da5780630fd7efc4146102fc575b600080fd5b34801561025757600080fd5b5061026b61026636600461469c565b6107c0565b60405190151581526020015b60405180910390f35b34801561028c57600080fd5b506102956107d1565b6040516102779190614709565b3480156102ae57600080fd5b506102c26102bd36600461471c565b610863565b6040516001600160a01b039091168152602001610277565b3480156102e657600080fd5b506102fa6102f5366004614751565b61088a565b005b34801561030857600080fd5b5061031c61031736600461477b565b6109a4565b6040516102779190614796565b34801561033557600080fd5b50610192546102c2906001600160a01b031681565b34801561035657600080fd5b506102fa6103653660046148b8565b610a11565b34801561037657600080fd5b506102fa6103853660046148ec565b610b05565b34801561039657600080fd5b506103ba6103a536600461471c565b60009081526097602052604090206001015490565b604051908152602001610277565b3480156103d457600080fd5b506102fa6103e3366004614928565b610b36565b3480156103f457600080fd5b506102fa610403366004614a1a565b610b5b565b34801561041457600080fd5b506102fa610423366004614928565b610cc2565b34801561043457600080fd5b506102fa61044336600461477b565b610d40565b34801561045457600080fd5b506102fa6104633660046148ec565b610e1f565b34801561047457600080fd5b506102fa61048336600461471c565b610e3a565b6102fa610496366004614b86565b610e62565b3480156104a757600080fd5b506103ba610f2e565b3480156104bc57600080fd5b50610198546103ba565b3480156104d257600080fd5b506102fa6104e1366004614bd3565b610fe1565b3480156104f257600080fd5b506102c261050136600461471c565b6111a3565b34801561051257600080fd5b506103ba6101935481565b34801561052957600080fd5b506102fa61053836600461477b565b611203565b34801561054957600080fd5b506103ba61055836600461477b565b6118b7565b34801561056957600080fd5b50610191546102c2906001600160a01b031681565b34801561058a57600080fd5b506102fa61059936600461471c565b61193d565b3480156105aa57600080fd5b506102c26105b9366004614c3a565b6119be565b3480156105ca57600080fd5b5061026b6105d9366004614928565b6119dd565b3480156105ea57600080fd5b50610295611a08565b3480156105ff57600080fd5b506103ba600081565b34801561061457600080fd5b506102fa610623366004614c6a565b611a17565b34801561063457600080fd5b50610648610643366004614ca1565b611a22565b6040516102779190614e79565b34801561066157600080fd5b506102fa610670366004614edb565b611e5a565b34801561068157600080fd5b5061069561069036600461477b565b611e92565b6040516102779190614f42565b3480156106ae57600080fd5b506102956106bd36600461471c565b6121bb565b3480156106ce57600080fd5b506103ba6106dd36600461471c565b612578565b3480156106ee57600080fd5b506102fa6106fd366004614928565b61258f565b34801561070e57600080fd5b506102fa61071d36600461477b565b6125b4565b34801561072e57600080fd5b5061029561262c565b34801561074357600080fd5b5061026b610752366004614f55565b6001600160a01b039182166000908152606a6020908152604080832093909416825291909152205460ff1690565b34801561078c57600080fd5b506102fa61079b36600461477b565b6126b2565b3480156107ac57600080fd5b506102fa6107bb36600461471c565b61272a565b60006107cb82612776565b92915050565b6060606580546107e090614f7f565b80601f016020809104026020016040519081016040528092919081815260200182805461080c90614f7f565b80156108595780601f1061082e57610100808354040283529160200191610859565b820191906000526020600020905b81548152906001019060200180831161083c57829003601f168201915b5050505050905090565b600061086e8261279b565b506000908152606960205260409020546001600160a01b031690565b6000610895826111a3565b9050806001600160a01b0316836001600160a01b0316036109075760405162461bcd60e51b815260206004820152602160248201527f4552433732313a20617070726f76616c20746f2063757272656e74206f776e656044820152603960f91b60648201526084015b60405180910390fd5b336001600160a01b038216148061092357506109238133610752565b6109955760405162461bcd60e51b815260206004820152603d60248201527f4552433732313a20617070726f76652063616c6c6572206973206e6f7420746f60448201527f6b656e206f776e6572206f7220617070726f76656420666f7220616c6c00000060648201526084016108fe565b61099f83836127fa565b505050565b6001600160a01b03811660009081526101976020908152604091829020805483518184028101840190945280845260609392830182828015610a0557602002820191906000526020600020905b8154815260200190600101908083116109f1575b50505050509050919050565b6000610a1c81612868565b60006101948054610a2c90614f7f565b80601f0160208091040260200160405190810160405280929190818152602001828054610a5890614f7f565b8015610aa55780601f10610a7a57610100808354040283529160200191610aa5565b820191906000526020600020905b815481529060010190602001808311610a8857829003601f168201915b50505050509050826101949081610abc9190615007565b50336001600160a01b03167ffceab947acbd3281d41fa085ba6d9503467fabd9e3d96e3ee0dbf6f8b04a9ca48285604051610af89291906150c6565b60405180910390a2505050565b610b0f3382612872565b610b2b5760405162461bcd60e51b81526004016108fe906150eb565b61099f8383836128f1565b600082815260976020526040902060010154610b5181612868565b61099f8383612a62565b6000610b6681612868565b610b6e612a84565b6001600160a01b03831660009081526101966020526040902082518391908190610b989082615007565b5060208201516001820190610bad9082615007565b5060408201516002820190610bc29082615007565b5060608201518051610bde91600384019160209091019061454b565b5060808201516004909101805460a084015160c085015160e08601516101008701516101208801516101409098015163ffffffff908116600160c01b0263ffffffff60c01b19998216600160a01b0263ffffffff60a01b19938316600160801b029390931667ffffffffffffffff60801b19948316600160601b0263ffffffff60601b19968416600160401b029690961667ffffffffffffffff60401b19978416600160201b0267ffffffffffffffff1990991693909a1692909217969096179490941696909617919091171617929092179290921617905561099f600161015f55565b6001600160a01b0381163314610d325760405162461bcd60e51b815260206004820152602f60248201527f416363657373436f6e74726f6c3a2063616e206f6e6c792072656e6f756e636560448201526e103937b632b9903337b91039b2b63360891b60648201526084016108fe565b610d3c8282612ae7565b5050565b6001600160a01b037f0000000000000000000000000000000000000000000000000000000000000000163003610d885760405162461bcd60e51b81526004016108fe90615138565b7f00000000000000000000000000000000000000000000000000000000000000006001600160a01b0316610dd1600080516020615ca9833981519152546001600160a01b031690565b6001600160a01b031614610df75760405162461bcd60e51b81526004016108fe90615184565b610e0081612b09565b60408051600080825260208201909252610e1c91839190612b14565b50565b61099f83838360405180602001604052806000815250611e5a565b610e42612a84565b610e5733610e516000806119be565b83610e1f565b610e1c600161015f55565b6001600160a01b037f0000000000000000000000000000000000000000000000000000000000000000163003610eaa5760405162461bcd60e51b81526004016108fe90615138565b7f00000000000000000000000000000000000000000000000000000000000000006001600160a01b0316610ef3600080516020615ca9833981519152546001600160a01b031690565b6001600160a01b031614610f195760405162461bcd60e51b81526004016108fe90615184565b610f2282612b09565b610d3c82826001612b14565b6000306001600160a01b037f00000000000000000000000000000000000000000000000000000000000000001614610fce5760405162461bcd60e51b815260206004820152603860248201527f555550535570677261646561626c653a206d757374206e6f742062652063616c60448201527f6c6564207468726f7567682064656c656761746563616c6c000000000000000060648201526084016108fe565b50600080516020615ca983398151915290565b600054610100900460ff16158080156110015750600054600160ff909116105b8061101b5750303b15801561101b575060005460ff166001145b61107e5760405162461bcd60e51b815260206004820152602e60248201527f496e697469616c697a61626c653a20636f6e747261637420697320616c72656160448201526d191e481a5b9a5d1a585b1a5e995960921b60648201526084016108fe565b6000805460ff1916600117905580156110a1576000805461ff0019166101001790555b6110ed6040518060400160405280600f81526020016e50726f6d7074204d6f6e737465727360881b8152506040518060400160405280600381526020016226a7a760e91b815250612c7f565b6110f5612cb0565b6110fd612cb0565b611105612cd9565b611110600033612a62565b61019461111d8682615007565b5061019180546001600160a01b038087166001600160a01b031992831617909255610193859055610192805492851692909116919091179055801561119c576000805461ff0019169055604051600181527f7f26b83ff96e1f2b6a682f133852f6798a09c465da95921460cefb38474024989060200160405180910390a15b5050505050565b6000818152606760205260408120546001600160a01b0316806107cb5760405162461bcd60e51b8152602060048201526018602482015277115490cdcc8c4e881a5b9d985b1a59081d1bdad95b88125160421b60448201526064016108fe565b61019354610191546040516370a0823160e01b81523360048201526001600160a01b03909116906370a0823190602401602060405180830381865afa158015611250573d6000803e3d6000fd5b505050506040513d601f19601f8201168201806040525081019061127491906151d0565b10156112d55760405162461bcd60e51b815260206004820152602a60248201527f50726f6d70744d6f6e73746572733a20696e73756666696369656e742045524360448201526932302062616c616e636560b01b60648201526084016108fe565b6001600160a01b038116600090815261019660205260408082208151610160810190925280548290829061130890614f7f565b80601f016020809104026020016040519081016040528092919081815260200182805461133490614f7f565b80156113815780601f1061135657610100808354040283529160200191611381565b820191906000526020600020905b81548152906001019060200180831161136457829003601f168201915b5050505050815260200160018201805461139a90614f7f565b80601f01602080910402602001604051908101604052809291908181526020018280546113c690614f7f565b80156114135780601f106113e857610100808354040283529160200191611413565b820191906000526020600020905b8154815290600101906020018083116113f657829003601f168201915b5050505050815260200160028201805461142c90614f7f565b80601f016020809104026020016040519081016040528092919081815260200182805461145890614f7f565b80156114a55780601f1061147a576101008083540402835291602001916114a5565b820191906000526020600020905b81548152906001019060200180831161148857829003601f168201915b5050505050815260200160038201805480602002602001604051908101604052809291908181526020016000905b8282101561157f5783829060005260206000200180546114f290614f7f565b80601f016020809104026020016040519081016040528092919081815260200182805461151e90614f7f565b801561156b5780601f106115405761010080835404028352916020019161156b565b820191906000526020600020905b81548152906001019060200180831161154e57829003601f168201915b5050505050815260200190600101906114d3565b505050908252506004919091015463ffffffff8082166020840152600160201b820481166040840152600160401b820481166060840152600160601b82048116608080850191909152600160801b8304821660a0850152600160a01b8304821660c0850152600160c01b909204811660e0909301929092528201519192501660000361165e5760405162461bcd60e51b815260206004820152602860248201527f50726f6d70744d6f6e73746572733a206d6f6e73746572206973206e6f742067604482015267195b995c985d195960c21b60648201526084016108fe565b61019854600181016116c05760405162461bcd60e51b815260206004820152602560248201527f50726f6d70744d6f6e73746572733a20746f6b656e20494420697320746f6f206044820152646c6172676560d81b60648201526084016108fe565b6101988054600181018255600091909152825183916005027f3f539f465397ab387efa93a617e37005205c037386b5b474fcfac82f47f77f0d019081906117079082615007565b506020820151600182019061171c9082615007565b50604082015160028201906117319082615007565b506060820151805161174d91600384019160209091019061454b565b5060808201516004909101805460a084015160c085015160e08601516101008701516101208801516101409098015163ffffffff908116600160c01b0263ffffffff60c01b19998216600160a01b0263ffffffff60a01b19938316600160801b029390931667ffffffffffffffff60801b19948316600160601b0263ffffffff60601b19968416600160401b029690961667ffffffffffffffff60401b19978416600160201b0267ffffffffffffffff1990991693909a169290921796909617949094169690961791909117161792909217929092161790556001600160a01b0383166000908152610196602052604081209061184a82826145a1565b6118586001830160006145a1565b6118666002830160006145a1565b6118746003830160006145db565b5060040180546001600160e01b03191690556101925461019354610191546118ad926001600160a01b0391821692339290911690612d08565b61099f3382612d62565b60006001600160a01b0382166119215760405162461bcd60e51b815260206004820152602960248201527f4552433732313a2061646472657373207a65726f206973206e6f7420612076616044820152683634b21037bbb732b960b91b60648201526084016108fe565b506001600160a01b031660009081526068602052604090205490565b6000818152606760205260409020546001600160a01b0316151580611963575060001981145b610e1c5760405162461bcd60e51b815260206004820152602660248201527f50726f6d70744d6f6e73746572733a206d6f6e7374657220646f6573206e6f7460448201526508195e1a5cdd60d21b60648201526084016108fe565b600082815260c9602052604081206119d69083612d7c565b9392505050565b60009182526097602090815260408084206001600160a01b0393909316845291905290205460ff1690565b6060606680546107e090614f7f565b610d3c338383612d88565b80516101985460609190811115611a8f5760405162461bcd60e51b815260206004820152602b60248201527f50726f6d70744d6f6e73746572733a20746f6b656e4964734c656e677468206960448201526a7320746f6f206c6172676560a81b60648201526084016108fe565b806001600160401b03811115611aa757611aa76147da565b604051908082528060200260200182016040528015611ae057816020015b611acd6145f9565b815260200190600190039081611ac55790505b50915060005b81811015611e5357610198848281518110611b0357611b036151e9565b602002602001015181548110611b1b57611b1b6151e9565b906000526020600020906005020160405180610160016040529081600082018054611b4590614f7f565b80601f0160208091040260200160405190810160405280929190818152602001828054611b7190614f7f565b8015611bbe5780601f10611b9357610100808354040283529160200191611bbe565b820191906000526020600020905b815481529060010190602001808311611ba157829003601f168201915b50505050508152602001600182018054611bd790614f7f565b80601f0160208091040260200160405190810160405280929190818152602001828054611c0390614f7f565b8015611c505780601f10611c2557610100808354040283529160200191611c50565b820191906000526020600020905b815481529060010190602001808311611c3357829003601f168201915b50505050508152602001600282018054611c6990614f7f565b80601f0160208091040260200160405190810160405280929190818152602001828054611c9590614f7f565b8015611ce25780601f10611cb757610100808354040283529160200191611ce2565b820191906000526020600020905b815481529060010190602001808311611cc557829003601f168201915b5050505050815260200160038201805480602002602001604051908101604052809291908181526020016000905b82821015611dbc578382906000526020600020018054611d2f90614f7f565b80601f0160208091040260200160405190810160405280929190818152602001828054611d5b90614f7f565b8015611da85780601f10611d7d57610100808354040283529160200191611da8565b820191906000526020600020905b815481529060010190602001808311611d8b57829003601f168201915b505050505081526020019060010190611d10565b505050908252506004919091015463ffffffff8082166020840152600160201b820481166040840152600160401b820481166060840152600160601b820481166080840152600160801b8204811660a0840152600160a01b8204811660c0840152600160c01b9091041660e0909101528351849083908110611e4057611e406151e9565b6020908102919091010152600101611ae6565b5050919050565b611e643383612872565b611e805760405162461bcd60e51b81526004016108fe906150eb565b611e8c84848484612e56565b50505050565b611e9a6145f9565b6001600160a01b038216600090815261019660205260409081902081516101608101909252805482908290611ece90614f7f565b80601f0160208091040260200160405190810160405280929190818152602001828054611efa90614f7f565b8015611f475780601f10611f1c57610100808354040283529160200191611f47565b820191906000526020600020905b815481529060010190602001808311611f2a57829003601f168201915b50505050508152602001600182018054611f6090614f7f565b80601f0160208091040260200160405190810160405280929190818152602001828054611f8c90614f7f565b8015611fd95780601f10611fae57610100808354040283529160200191611fd9565b820191906000526020600020905b815481529060010190602001808311611fbc57829003601f168201915b50505050508152602001600282018054611ff290614f7f565b80601f016020809104026020016040519081016040528092919081815260200182805461201e90614f7f565b801561206b5780601f106120405761010080835404028352916020019161206b565b820191906000526020600020905b81548152906001019060200180831161204e57829003601f168201915b5050505050815260200160038201805480602002602001604051908101604052809291908181526020016000905b828210156121455783829060005260206000200180546120b890614f7f565b80601f01602080910402602001604051908101604052809291908181526020018280546120e490614f7f565b80156121315780601f1061210657610100808354040283529160200191612131565b820191906000526020600020905b81548152906001019060200180831161211457829003601f168201915b505050505081526020019060010190612099565b505050908252506004919091015463ffffffff8082166020840152600160201b820481166040840152600160401b820481166060840152600160601b820481166080840152600160801b8204811660a0840152600160a01b8204811660c0840152600160c01b9091041660e09091015292915050565b60606121c68261279b565b60006121d183612e89565b9050600061019884815481106121e9576121e96151e9565b90600052602060002090600502016040518061016001604052908160008201805461221390614f7f565b80601f016020809104026020016040519081016040528092919081815260200182805461223f90614f7f565b801561228c5780601f106122615761010080835404028352916020019161228c565b820191906000526020600020905b81548152906001019060200180831161226f57829003601f168201915b505050505081526020016001820180546122a590614f7f565b80601f01602080910402602001604051908101604052809291908181526020018280546122d190614f7f565b801561231e5780601f106122f35761010080835404028352916020019161231e565b820191906000526020600020905b81548152906001019060200180831161230157829003601f168201915b5050505050815260200160028201805461233790614f7f565b80601f016020809104026020016040519081016040528092919081815260200182805461236390614f7f565b80156123b05780601f10612385576101008083540402835291602001916123b0565b820191906000526020600020905b81548152906001019060200180831161239357829003601f168201915b5050505050815260200160038201805480602002602001604051908101604052809291908181526020016000905b8282101561248a5783829060005260206000200180546123fd90614f7f565b80601f016020809104026020016040519081016040528092919081815260200182805461242990614f7f565b80156124765780601f1061244b57610100808354040283529160200191612476565b820191906000526020600020905b81548152906001019060200180831161245957829003601f168201915b5050505050815260200190600101906123de565b505050908252506004919091015463ffffffff808216602080850191909152600160201b83048216604080860191909152600160401b840483166060860152600160601b840483166080860152600160801b8404831660a0860152600160a01b8404831660c0860152600160c01b90930490911660e0909301929092529082015190820151919250600091612549919061252386613414565b6040516020016125359392919061521b565b604051602081830303815290604052613414565b905060008160405160200161255e91906152de565b60408051601f198184030181529190529695505050505050565b600081815260c9602052604081206107cb90613566565b6000828152609760205260409020600101546125aa81612868565b61099f8383612ae7565b60006125bf81612868565b61019280546001600160a01b038481166001600160a01b0319831617909255166125e63390565b604080516001600160a01b038481168252868116602083015292909216917fc791f304f706b4012579cd651a8a0d930c30d117f42ee74327000e3fc75bfbbc9101610af8565b606060006126386107d1565b905060008160405160200161264d9190615323565b60405160208183030381529060405290506000612684838461266e85613414565b61019460405160200161253594939291906154d0565b905060008160405160200161269991906152de565b60408051601f1981840301815291905295945050505050565b60006126bd81612868565b61019180546001600160a01b038481166001600160a01b0319831617909255166126e43390565b604080516001600160a01b038481168252868116602083015292909216917f5ebe54482b2a8120482902e3bfe9ca1a913e9987bcb1f18c974dae585132a9549101610af8565b600061273581612868565b610193805490839055604080518281526020810185905233917f55cc83342b4c144a74960fdf0dfe1a7af4cbb77aaccb471b088d5fe0bdad1d4c9101610af8565b60006001600160e01b03198216635a05180f60e01b14806107cb57506107cb82613570565b6000818152606760205260409020546001600160a01b0316610e1c5760405162461bcd60e51b8152602060048201526018602482015277115490cdcc8c4e881a5b9d985b1a59081d1bdad95b88125160421b60448201526064016108fe565b600081815260696020526040902080546001600160a01b0319166001600160a01b038416908117909155819061282f826111a3565b6001600160a01b03167f8c5be1e5ebec7d5bd14f71427d1e84f3dd0314c0f7b2291e5b200ac8c7c3b92560405160405180910390a45050565b610e1c8133613595565b60008061287e836111a3565b9050806001600160a01b0316846001600160a01b031614806128c557506001600160a01b038082166000908152606a602090815260408083209388168352929052205460ff165b806128e95750836001600160a01b03166128de84610863565b6001600160a01b0316145b949350505050565b826001600160a01b0316612904826111a3565b6001600160a01b03161461292a5760405162461bcd60e51b81526004016108fe9061563d565b6001600160a01b03821661298c5760405162461bcd60e51b8152602060048201526024808201527f4552433732313a207472616e7366657220746f20746865207a65726f206164646044820152637265737360e01b60648201526084016108fe565b61299983838360016135ee565b826001600160a01b03166129ac826111a3565b6001600160a01b0316146129d25760405162461bcd60e51b81526004016108fe9061563d565b600081815260696020908152604080832080546001600160a01b03199081169091556001600160a01b0387811680865260688552838620805460001901905590871680865283862080546001019055868652606790945282852080549092168417909155905184937fddf252ad1be2c89b69c2b068fc378daa952ba7f163c4a11628f55a4df523b3ef91a4505050565b612a6c8282613637565b600082815260c96020526040902061099f90826136bd565b600261015f5403612ad75760405162461bcd60e51b815260206004820152601f60248201527f5265656e7472616e637947756172643a207265656e7472616e742063616c6c0060448201526064016108fe565b600261015f55565b600161015f55565b612af182826136d2565b600082815260c96020526040902061099f9082613739565b6000610d3c81612868565b7f4910fdfa16fed3260ed0e7147f7cc6da11a60208b5b9406d12a635614ffd91435460ff1615612b475761099f8361374e565b826001600160a01b03166352d1902d6040518163ffffffff1660e01b8152600401602060405180830381865afa925050508015612ba1575060408051601f3d908101601f19168201909252612b9e918101906151d0565b60015b612c045760405162461bcd60e51b815260206004820152602e60248201527f45524331393637557067726164653a206e657720696d706c656d656e7461746960448201526d6f6e206973206e6f74205555505360901b60648201526084016108fe565b600080516020615ca98339815191528114612c735760405162461bcd60e51b815260206004820152602960248201527f45524331393637557067726164653a20756e737570706f727465642070726f786044820152681a58589b195555525160ba1b60648201526084016108fe565b5061099f8383836137ea565b600054610100900460ff16612ca65760405162461bcd60e51b81526004016108fe90615682565b610d3c828261380f565b600054610100900460ff16612cd75760405162461bcd60e51b81526004016108fe90615682565b565b600054610100900460ff16612d005760405162461bcd60e51b81526004016108fe90615682565b612cd761384f565b604080516001600160a01b0385811660248301528416604482015260648082018490528251808303909101815260849091019091526020810180516001600160e01b03166323b872dd60e01b179052611e8c908590613876565b610d3c828260405180602001604052806000815250613948565b60006119d6838361397b565b816001600160a01b0316836001600160a01b031603612de95760405162461bcd60e51b815260206004820152601960248201527f4552433732313a20617070726f766520746f2063616c6c65720000000000000060448201526064016108fe565b6001600160a01b038381166000818152606a6020908152604080832094871680845294825291829020805460ff191686151590811790915591519182527f17307eab39ab6107e8899845ad3d59bd9653f200f220920489ca2b5937696c31910160405180910390a3505050565b612e618484846128f1565b612e6d848484846139a5565b611e8c5760405162461bcd60e51b81526004016108fe906156cd565b606060006101988381548110612ea157612ea16151e9565b906000526020600020906005020160405180610160016040529081600082018054612ecb90614f7f565b80601f0160208091040260200160405190810160405280929190818152602001828054612ef790614f7f565b8015612f445780601f10612f1957610100808354040283529160200191612f44565b820191906000526020600020905b815481529060010190602001808311612f2757829003601f168201915b50505050508152602001600182018054612f5d90614f7f565b80601f0160208091040260200160405190810160405280929190818152602001828054612f8990614f7f565b8015612fd65780601f10612fab57610100808354040283529160200191612fd6565b820191906000526020600020905b815481529060010190602001808311612fb957829003601f168201915b50505050508152602001600282018054612fef90614f7f565b80601f016020809104026020016040519081016040528092919081815260200182805461301b90614f7f565b80156130685780601f1061303d57610100808354040283529160200191613068565b820191906000526020600020905b81548152906001019060200180831161304b57829003601f168201915b5050505050815260200160038201805480602002602001604051908101604052809291908181526020016000905b828210156131425783829060005260206000200180546130b590614f7f565b80601f01602080910402602001604051908101604052809291908181526020018280546130e190614f7f565b801561312e5780601f106131035761010080835404028352916020019161312e565b820191906000526020600020905b81548152906001019060200180831161311157829003601f168201915b505050505081526020019060010190613096565b505050908252506004919091015463ffffffff808216602080850191909152600160201b830482166040850152600160401b830482166060850152600160601b830482166080850152600160801b8304821660a0850152600160a01b8304821660c0850152600160c01b9092041660e0909201919091528101519091506131ce90600a90601490613aa6565b61320c600a603c6131e8856080015163ffffffff16613ae5565b6040516020016131f8919061571f565b604051602081830303815290604052613aa6565b613236600a60646132268660a0015163ffffffff16613ae5565b6040516020016131f8919061574b565b613260600a60786132508760c0015163ffffffff16613ae5565b6040516020016131f8919061576a565b61328a600a608c61327a8860e0015163ffffffff16613ae5565b6040516020016131f89190615797565b6132b5600a60a06132a589610100015163ffffffff16613ae5565b6040516020016131f891906157b7565b6132e0600a60b46132d08a610120015163ffffffff16613ae5565b6040516020016131f891906157d7565b61330b600a60c86132fb8b610140015163ffffffff16613ae5565b6040516020016131f891906157f7565b604051602001613322989796959493929190615817565b60408051601f19818403018152919052915060f060005b8260600151518110156133ea5760046133538260016159b9565b116133ea57836133b5600a6133698460146159cc565b61337390866159b9565b6133866133818660016159b9565b613ae5565b8760600151868151811061339c5761339c6151e9565b60200260200101516040516020016131f89291906159e3565b6040516020016133c6929190615a31565b604051602081830303815290604052935080806133e290615a60565b915050613339565b50826040516020016133fc9190615a79565b60405160208183030381529060405292505050919050565b6060815160000361343357505060408051602081019091526000815290565b6000604051806060016040528060408152602001615cc9604091399050600060038451600261346291906159b9565b61346c9190615aa3565b6134779060046159cc565b6001600160401b0381111561348e5761348e6147da565b6040519080825280601f01601f1916602001820160405280156134b8576020820181803683370190505b509050600182016020820185865187015b80821015613524576003820191508151603f8160121c168501518453600184019350603f81600c1c168501518453600184019350603f8160061c168501518453600184019350603f81168501518453506001830192506134c9565b505060038651066001811461354057600281146135535761355b565b603d6001830353603d600283035361355b565b603d60018303535b509195945050505050565b60006107cb825490565b60006001600160e01b03198216637965db0b60e01b14806107cb57506107cb82613b77565b61359f82826119dd565b610d3c576135ac81613bc7565b6135b7836020613bd9565b6040516020016135c8929190615ac5565b60408051601f198184030181529082905262461bcd60e51b82526108fe91600401614709565b6001600160a01b03841661360b576136068383613d74565b611e8c565b6001600160a01b038316613623576136068483613db9565b61362d8483613db9565b6136068383613d74565b61364182826119dd565b610d3c5760008281526097602090815260408083206001600160a01b03851684529091529020805460ff191660011790556136793390565b6001600160a01b0316816001600160a01b0316837f2f8788117e7eff1d82e926ec794901d17c78024a50270940304540a733656f0d60405160405180910390a45050565b60006119d6836001600160a01b038416613ebe565b6136dc82826119dd565b15610d3c5760008281526097602090815260408083206001600160a01b0385168085529252808320805460ff1916905551339285917ff6391f5c32d9c69d2a47ea670b442974b53935d1edc7fd64eb21e047a839171b9190a45050565b60006119d6836001600160a01b038416613f0d565b6001600160a01b0381163b6137bb5760405162461bcd60e51b815260206004820152602d60248201527f455243313936373a206e657720696d706c656d656e746174696f6e206973206e60448201526c1bdd08184818dbdb9d1c9858dd609a1b60648201526084016108fe565b600080516020615ca983398151915280546001600160a01b0319166001600160a01b0392909216919091179055565b6137f383614000565b6000825111806138005750805b1561099f57611e8c8383614040565b600054610100900460ff166138365760405162461bcd60e51b81526004016108fe90615682565b60656138428382615007565b50606661099f8282615007565b600054610100900460ff16612adf5760405162461bcd60e51b81526004016108fe90615682565b60006138cb826040518060400160405280602081526020017f5361666545524332303a206c6f772d6c6576656c2063616c6c206661696c6564815250856001600160a01b03166141349092919063ffffffff16565b80519091501561099f57808060200190518101906138e99190615b3a565b61099f5760405162461bcd60e51b815260206004820152602a60248201527f5361666545524332303a204552433230206f7065726174696f6e20646964206e6044820152691bdd081cdd58d8d9595960b21b60648201526084016108fe565b6139528383614143565b61395f60008484846139a5565b61099f5760405162461bcd60e51b81526004016108fe906156cd565b6000826000018281548110613992576139926151e9565b9060005260206000200154905092915050565b60006001600160a01b0384163b15613a9b57604051630a85bd0160e11b81526001600160a01b0385169063150b7a02906139e9903390899088908890600401615b57565b6020604051808303816000875af1925050508015613a24575060408051601f3d908101601f19168201909252613a2191810190615b94565b60015b613a81573d808015613a52576040519150601f19603f3d011682016040523d82523d6000602084013e613a57565b606091505b508051600003613a795760405162461bcd60e51b81526004016108fe906156cd565b805181602001fd5b6001600160e01b031916630a85bd0160e11b1490506128e9565b506001949350505050565b6060613ab184613ae5565b613aba84613ae5565b83604051602001613acd93929190615bb1565b60405160208183030381529060405290509392505050565b60606000613af2836142dc565b60010190506000816001600160401b03811115613b1157613b116147da565b6040519080825280601f01601f191660200182016040528015613b3b576020820181803683370190505b5090508181016020015b600019016f181899199a1a9b1b9c1cb0b131b232b360811b600a86061a8153600a8504945084613b4557509392505050565b60006001600160e01b031982166380ac58cd60e01b1480613ba857506001600160e01b03198216635b5e139f60e01b145b806107cb57506301ffc9a760e01b6001600160e01b03198316146107cb565b60606107cb6001600160a01b03831660145b60606000613be88360026159cc565b613bf39060026159b9565b6001600160401b03811115613c0a57613c0a6147da565b6040519080825280601f01601f191660200182016040528015613c34576020820181803683370190505b509050600360fc1b81600081518110613c4f57613c4f6151e9565b60200101906001600160f81b031916908160001a905350600f60fb1b81600181518110613c7e57613c7e6151e9565b60200101906001600160f81b031916908160001a9053506000613ca28460026159cc565b613cad9060016159b9565b90505b6001811115613d25576f181899199a1a9b1b9c1cb0b131b232b360811b85600f1660108110613ce157613ce16151e9565b1a60f81b828281518110613cf757613cf76151e9565b60200101906001600160f81b031916908160001a90535060049490941c93613d1e81615c4c565b9050613cb0565b5083156119d65760405162461bcd60e51b815260206004820181905260248201527f537472696e67733a20686578206c656e67746820696e73756666696369656e7460448201526064016108fe565b6001600160a01b039091166000908152610197602081815260408084208054610195845282862087875284529185208290559282526001810183559183529091200155565b6001600160a01b0382166000908152610197602052604081208054613de090600190615c63565b81548110613df057613df06151e9565b90600052602060002001549050808214613e57576001600160a01b0383166000818152610195602090815260408083208684528252808320549383526101979091529020805483919083908110613e4957613e496151e9565b600091825260209091200155505b6001600160a01b038316600090815261019760205260409020805480613e7f57613e7f615c76565b6000828152602080822083016000199081018390559092019092556001600160a01b039094168152610195845260408082209382529290935250812055565b6000818152600183016020526040812054613f05575081546001818101845560008481526020808220909301849055845484825282860190935260409020919091556107cb565b5060006107cb565b60008181526001830160205260408120548015613ff6576000613f31600183615c63565b8554909150600090613f4590600190615c63565b9050818114613faa576000866000018281548110613f6557613f656151e9565b9060005260206000200154905080876000018481548110613f8857613f886151e9565b6000918252602080832090910192909255918252600188019052604090208390555b8554869080613fbb57613fbb615c76565b6001900381819060005260206000200160009055905585600101600086815260200190815260200160002060009055600193505050506107cb565b60009150506107cb565b6140098161374e565b6040516001600160a01b038216907fbc7cd75a20ee27fd9adebab32041f755214dbc6bffa90cc0225b39da2e5c2d3b90600090a250565b60606001600160a01b0383163b6140a85760405162461bcd60e51b815260206004820152602660248201527f416464726573733a2064656c65676174652063616c6c20746f206e6f6e2d636f6044820152651b9d1c9858dd60d21b60648201526084016108fe565b600080846001600160a01b0316846040516140c39190615c8c565b600060405180830381855af49150503d80600081146140fe576040519150601f19603f3d011682016040523d82523d6000602084013e614103565b606091505b509150915061412b8282604051806060016040528060278152602001615d09602791396143b4565b95945050505050565b60606128e984846000856143cd565b6001600160a01b0382166141995760405162461bcd60e51b815260206004820181905260248201527f4552433732313a206d696e7420746f20746865207a65726f206164647265737360448201526064016108fe565b6000818152606760205260409020546001600160a01b0316156141fe5760405162461bcd60e51b815260206004820152601c60248201527f4552433732313a20746f6b656e20616c7265616479206d696e7465640000000060448201526064016108fe565b61420c6000838360016135ee565b6000818152606760205260409020546001600160a01b0316156142715760405162461bcd60e51b815260206004820152601c60248201527f4552433732313a20746f6b656e20616c7265616479206d696e7465640000000060448201526064016108fe565b6001600160a01b038216600081815260686020908152604080832080546001019055848352606790915280822080546001600160a01b0319168417905551839291907fddf252ad1be2c89b69c2b068fc378daa952ba7f163c4a11628f55a4df523b3ef908290a45050565b60008072184f03e93ff9f4daa797ed6e38ed64bf6a1f0160401b831061431b5772184f03e93ff9f4daa797ed6e38ed64bf6a1f0160401b830492506040015b6d04ee2d6d415b85acef81000000008310614347576d04ee2d6d415b85acef8100000000830492506020015b662386f26fc10000831061436557662386f26fc10000830492506010015b6305f5e100831061437d576305f5e100830492506008015b612710831061439157612710830492506004015b606483106143a3576064830492506002015b600a83106107cb5760010192915050565b606083156143c35750816119d6565b6119d683836144a8565b60608247101561442e5760405162461bcd60e51b815260206004820152602660248201527f416464726573733a20696e73756666696369656e742062616c616e636520666f6044820152651c8818d85b1b60d21b60648201526084016108fe565b600080866001600160a01b0316858760405161444a9190615c8c565b60006040518083038185875af1925050503d8060008114614487576040519150601f19603f3d011682016040523d82523d6000602084013e61448c565b606091505b509150915061449d878383876144d2565b979650505050505050565b8151156144b85781518083602001fd5b8060405162461bcd60e51b81526004016108fe9190614709565b6060831561454157825160000361453a576001600160a01b0385163b61453a5760405162461bcd60e51b815260206004820152601d60248201527f416464726573733a2063616c6c20746f206e6f6e2d636f6e747261637400000060448201526064016108fe565b50816128e9565b6128e983836144a8565b828054828255906000526020600020908101928215614591579160200282015b8281111561459157825182906145819082615007565b509160200191906001019061456b565b5061459d929150614654565b5090565b5080546145ad90614f7f565b6000825580601f106145bd575050565b601f016020900490600052602060002090810190610e1c9190614671565b5080546000825590600052602060002090810190610e1c9190614654565b60408051610160810182526060808252602082018190529181018290528181019190915260006080820181905260a0820181905260c0820181905260e082018190526101008201819052610120820181905261014082015290565b8082111561459d57600061466882826145a1565b50600101614654565b5b8082111561459d5760008155600101614672565b6001600160e01b031981168114610e1c57600080fd5b6000602082840312156146ae57600080fd5b81356119d681614686565b60005b838110156146d45781810151838201526020016146bc565b50506000910152565b600081518084526146f58160208601602086016146b9565b601f01601f19169290920160200192915050565b6020815260006119d660208301846146dd565b60006020828403121561472e57600080fd5b5035919050565b80356001600160a01b038116811461474c57600080fd5b919050565b6000806040838503121561476457600080fd5b61476d83614735565b946020939093013593505050565b60006020828403121561478d57600080fd5b6119d682614735565b6020808252825182820181905260009190848201906040850190845b818110156147ce578351835292840192918401916001016147b2565b50909695505050505050565b634e487b7160e01b600052604160045260246000fd5b60405161016081016001600160401b0381118282101715614813576148136147da565b60405290565b604051601f8201601f191681016001600160401b0381118282101715614841576148416147da565b604052919050565b600082601f83011261485a57600080fd5b81356001600160401b03811115614873576148736147da565b614886601f8201601f1916602001614819565b81815284602083860101111561489b57600080fd5b816020850160208301376000918101602001919091529392505050565b6000602082840312156148ca57600080fd5b81356001600160401b038111156148e057600080fd5b6128e984828501614849565b60008060006060848603121561490157600080fd5b61490a84614735565b925061491860208501614735565b9150604084013590509250925092565b6000806040838503121561493b57600080fd5b8235915061494b60208401614735565b90509250929050565b60006001600160401b0382111561496d5761496d6147da565b5060051b60200190565b600082601f83011261498857600080fd5b8135602061499d61499883614954565b614819565b82815260059290921b840181019181810190868411156149bc57600080fd5b8286015b848110156149fb5780356001600160401b038111156149df5760008081fd5b6149ed8986838b0101614849565b8452509183019183016149c0565b509695505050505050565b803563ffffffff8116811461474c57600080fd5b60008060408385031215614a2d57600080fd5b614a3683614735565b915060208301356001600160401b0380821115614a5257600080fd5b908401906101608287031215614a6757600080fd5b614a6f6147f0565b823582811115614a7e57600080fd5b614a8a88828601614849565b825250602083013582811115614a9f57600080fd5b614aab88828601614849565b602083015250604083013582811115614ac357600080fd5b614acf88828601614849565b604083015250606083013582811115614ae757600080fd5b614af388828601614977565b606083015250614b0560808401614a06565b6080820152614b1660a08401614a06565b60a0820152614b2760c08401614a06565b60c0820152614b3860e08401614a06565b60e08201526101009150614b4d828401614a06565b828201526101209150614b61828401614a06565b828201526101409150614b75828401614a06565b828201528093505050509250929050565b60008060408385031215614b9957600080fd5b614ba283614735565b915060208301356001600160401b03811115614bbd57600080fd5b614bc985828601614849565b9150509250929050565b60008060008060808587031215614be957600080fd5b84356001600160401b03811115614bff57600080fd5b614c0b87828801614849565b945050614c1a60208601614735565b925060408501359150614c2f60608601614735565b905092959194509250565b60008060408385031215614c4d57600080fd5b50508035926020909101359150565b8015158114610e1c57600080fd5b60008060408385031215614c7d57600080fd5b614c8683614735565b91506020830135614c9681614c5c565b809150509250929050565b60006020808385031215614cb457600080fd5b82356001600160401b03811115614cca57600080fd5b8301601f81018513614cdb57600080fd5b8035614ce961499882614954565b81815260059190911b82018301908381019087831115614d0857600080fd5b928401925b8284101561449d57833582529284019290840190614d0d565b600081518084526020808501808196508360051b8101915082860160005b85811015614d6e578284038952614d5c8483516146dd565b98850198935090840190600101614d44565b5091979650505050505050565b60006101608251818552614d91828601826146dd565b91505060208301518482036020860152614dab82826146dd565b91505060408301518482036040860152614dc582826146dd565b91505060608301518482036060860152614ddf8282614d26565b9150506080830151614df9608086018263ffffffff169052565b5060a0830151614e1160a086018263ffffffff169052565b5060c0830151614e2960c086018263ffffffff169052565b5060e0830151614e4160e086018263ffffffff169052565b506101008381015163ffffffff9081169186019190915261012080850151821690860152610140938401511692909301919091525090565b6000602080830181845280855180835260408601915060408160051b870101925083870160005b82811015614ece57603f19888603018452614ebc858351614d7b565b94509285019290850190600101614ea0565b5092979650505050505050565b60008060008060808587031215614ef157600080fd5b614efa85614735565b9350614f0860208601614735565b92506040850135915060608501356001600160401b03811115614f2a57600080fd5b614f3687828801614849565b91505092959194509250565b6020815260006119d66020830184614d7b565b60008060408385031215614f6857600080fd5b614f7183614735565b915061494b60208401614735565b600181811c90821680614f9357607f821691505b602082108103614fb357634e487b7160e01b600052602260045260246000fd5b50919050565b601f82111561099f57600081815260208120601f850160051c81016020861015614fe05750805b601f850160051c820191505b81811015614fff57828155600101614fec565b505050505050565b81516001600160401b03811115615020576150206147da565b6150348161502e8454614f7f565b84614fb9565b602080601f83116001811461506957600084156150515750858301515b600019600386901b1c1916600185901b178555614fff565b600085815260208120601f198616915b8281101561509857888601518255948401946001909101908401615079565b50858210156150b65787850151600019600388901b60f8161c191681555b5050505050600190811b01905550565b6040815260006150d960408301856146dd565b828103602084015261412b81856146dd565b6020808252602d908201527f4552433732313a2063616c6c6572206973206e6f7420746f6b656e206f776e6560408201526c1c881bdc88185c1c1c9bdd9959609a1b606082015260800190565b6020808252602c908201527f46756e6374696f6e206d7573742062652063616c6c6564207468726f7567682060408201526b19195b1959d85d1958d85b1b60a21b606082015260800190565b6020808252602c908201527f46756e6374696f6e206d7573742062652063616c6c6564207468726f7567682060408201526b6163746976652070726f787960a01b606082015260800190565b6000602082840312156151e257600080fd5b5051919050565b634e487b7160e01b600052603260045260246000fd5b600081516152118185602086016146b9565b9290920192915050565b693d913730b6b2911d101160b11b8152835160009061524181600a8501602089016146b9565b72111610113232b9b1b934b83a34b7b7111d101160691b600a91840191820152845161527481601d8401602089016146b9565b7f222c2022696d616765223a2022646174613a696d6167652f7376672b786d6c3b601d92909101918201526618985cd94d8d0b60ca1b603d82015283516152c28160448401602088016146b9565b61227d60f01b6044929091019182015260460195945050505050565b7f646174613a6170706c69636174696f6e2f6a736f6e3b6261736536342c00000081526000825161531681601d8501602087016146b9565b91909101601d0192915050565b7f3c73766720786d6c6e733d27687474703a2f2f7777772e77332e6f72672f323081527f30302f73766727207072657365727665417370656374526174696f3d27784d6960208201527f6e594d696e206d656574272076696577426f783d27302030203335302033353060408201527f273e3c7374796c653e2e62617365207b2066696c6c3a2077686974653b20666f60608201527f6e742d66616d696c793a2073657269663b20666f6e742d73697a653a2032347060808201527f783b207d3c2f7374796c653e3c726563742077696474683d273130302527206860a08201527f65696768743d2731303025272066696c6c3d27626c61636b27202f3e3c74657860c08201527f7420783d273530252720793d273530252720636c6173733d276261736527206460e08201527f6f6d696e616e742d626173656c696e653d276d6964646c652720746578742d616101008201526e3731b437b91e93b6b4b2323632939f60891b610120820152600061012f83516154a781838601602088016146b9565b83016154c48282016c1e17ba32bc3a1f1e17b9bb339f60991b9052565b61013c01949350505050565b693d913730b6b2911d101160b11b8152845160009060206154f782600a8601838b016146b9565b72111610113232b9b1b934b83a34b7b7111d101160691b600a92850192830152865161552981601d8501848b016146b9565b7f2069732047656e657261746976652041492047616d652e222c2022696d616765601d93909101928301527f223a2022646174613a696d6167652f7376672b786d6c3b6261736536342c0000603d830152855161558c81605b8501848a016146b9565b741116101132bc3a32b93730b62fb634b735911d101160591b605b939091019283015284546070906000906155c081614f7f565b600182811680156155d857600181146155f157615621565b60ff198416888701528215158302880186019450615621565b8a6000528660002060005b848110156156175781548a82018901529083019088016155fc565b5050858389010194505b505061227d60f01b835250506002019998505050505050505050565b60208082526025908201527f4552433732313a207472616e736665722066726f6d20696e636f72726563742060408201526437bbb732b960d91b606082015260800190565b6020808252602b908201527f496e697469616c697a61626c653a20636f6e7472616374206973206e6f74206960408201526a6e697469616c697a696e6760a81b606082015260800190565b60208082526032908201527f4552433732313a207472616e7366657220746f206e6f6e20455243373231526560408201527131b2b4bb32b91034b6b83632b6b2b73a32b960711b606082015260800190565b630262b1d160e51b81526000825161573e8160048501602087016146b9565b9190910160040192915050565b63024281d160e51b81526000825161573e8160048501602087016146b9565b64020aa259d160dd1b81526000825161578a8160058501602087016146b9565b9190910160050192915050565b6402222a31d160dd1b81526000825161578a8160058501602087016146b9565b64024a72a1d160dd1b81526000825161578a8160058501602087016146b9565b64026a3a91d160dd1b81526000825161578a8160058501602087016146b9565b64020a3a61d160dd1b81526000825161578a8160058501602087016146b9565b7f3c73766720786d6c6e733d22687474703a2f2f7777772e77332e6f72672f323081527f30302f73766722207072657365727665417370656374526174696f3d22784d6960208201527f6e594d696e206d656574222076696577426f783d22302030203335302033353060408201527f223e3c7374796c653e2e62617365207b2066696c6c3a2077686974653b20666f60608201527f6e742d66616d696c793a2073657269663b20666f6e742d73697a653a2031347060808201527f783b207d3c2f7374796c653e3c726563742077696474683d223130302522206860a08201527f65696768743d2231303025222066696c6c3d22626c61636b22202f3e0000000060c0820152600089516159338160dc850160208e016146b9565b89519083019061594a8160dc840160208e016146b9565b89519101906159608160dc840160208d016146b9565b61599361598d61598761598161597b60dc868801018e6151ff565b8c6151ff565b8a6151ff565b886151ff565b866151ff565b9c9b505050505050505050505050565b634e487b7160e01b600052601160045260246000fd5b808201808211156107cb576107cb6159a3565b80820281158282048414176107cb576107cb6159a3565b6414dada5b1b60da1b815260008351615a038160058501602088016146b9565b6101d160f51b6005918401918201528351615a258160078401602088016146b9565b01600701949350505050565b60008351615a438184602088016146b9565b835190830190615a578183602088016146b9565b01949350505050565b600060018201615a7257615a726159a3565b5060010190565b60008251615a8b8184602087016146b9565b651e17b9bb339f60d11b920191825250600601919050565b600082615ac057634e487b7160e01b600052601260045260246000fd5b500490565b7f416363657373436f6e74726f6c3a206163636f756e7420000000000000000000815260008351615afd8160178501602088016146b9565b7001034b99036b4b9b9b4b733903937b6329607d1b6017918401918201528351615b2e8160288401602088016146b9565b01602801949350505050565b600060208284031215615b4c57600080fd5b81516119d681614c5c565b6001600160a01b0385811682528416602082015260408101839052608060608201819052600090615b8a908301846146dd565b9695505050505050565b600060208284031215615ba657600080fd5b81516119d681614686565b681e3a32bc3a103c1e9160b91b81528351600090615bd68160098501602089016146b9565b6411103c9e9160d91b6009918401918201528451615bfb81600e8401602089016146b9565b6e111031b630b9b99e913130b9b2911f60891b600e92909101918201528351615c2b81601d8401602088016146b9565b661e17ba32bc3a1f60c91b601d929091019182015260240195945050505050565b600081615c5b57615c5b6159a3565b506000190190565b818103818111156107cb576107cb6159a3565b634e487b7160e01b600052603160045260246000fd5b60008251615c9e8184602087016146b9565b919091019291505056fe360894a13ba1a3210667c828492db98dca3e2076cc3735a920a3ca505d382bbc4142434445464748494a4b4c4d4e4f505152535455565758595a6162636465666768696a6b6c6d6e6f707172737475767778797a303132333435363738392b2f416464726573733a206c6f772d6c6576656c2064656c65676174652063616c6c206661696c6564a2646970667358221220d8ee65e8ac95d62e56e0b88048b0f854c2f92b09fe2e0f9fb801ab6f2fa9077964736f6c63430008120033",
  "linkReferences": {},
  "deployedLinkReferences": {}
}