{
  "_format": "hh-sol-artifact-1",
  "contractName": "PromptMonsters",
  "sourceName": "contracts/prompt-monsters/PromptMonsters.sol",
  "abi": [
    {
      "inputs": [],
      "stateMutability": "nonpayable",
      "type": "constructor"
    },
    {
      "anonymous": false,
      "inputs": [
        {
          "indexed": false,
          "internalType": "address",
          "name": "previousAdmin",
          "type": "address"
        },
        {
          "indexed": false,
          "internalType": "address",
          "name": "newAdmin",
          "type": "address"
        }
      ],
      "name": "AdminChanged",
      "type": "event"
    },
    {
      "anonymous": false,
      "inputs": [
        {
          "indexed": true,
          "internalType": "address",
          "name": "owner",
          "type": "address"
        },
        {
          "indexed": true,
          "internalType": "address",
          "name": "approved",
          "type": "address"
        },
        {
          "indexed": true,
          "internalType": "uint256",
          "name": "tokenId",
          "type": "uint256"
        }
      ],
      "name": "Approval",
      "type": "event"
    },
    {
      "anonymous": false,
      "inputs": [
        {
          "indexed": true,
          "internalType": "address",
          "name": "owner",
          "type": "address"
        },
        {
          "indexed": true,
          "internalType": "address",
          "name": "operator",
          "type": "address"
        },
        {
          "indexed": false,
          "internalType": "bool",
          "name": "approved",
          "type": "bool"
        }
      ],
      "name": "ApprovalForAll",
      "type": "event"
    },
    {
      "anonymous": false,
      "inputs": [
        {
          "indexed": true,
          "internalType": "address",
          "name": "beacon",
          "type": "address"
        }
      ],
      "name": "BeaconUpgraded",
      "type": "event"
    },
    {
      "anonymous": false,
      "inputs": [
        {
          "components": [
            {
              "internalType": "string",
              "name": "feature",
              "type": "string"
            },
            {
              "internalType": "string",
              "name": "name",
              "type": "string"
            },
            {
              "internalType": "string",
              "name": "flavor",
              "type": "string"
            },
            {
              "internalType": "string[]",
              "name": "skills",
              "type": "string[]"
            },
            {
              "internalType": "uint32",
              "name": "lv",
              "type": "uint32"
            },
            {
              "internalType": "uint32",
              "name": "hp",
              "type": "uint32"
            },
            {
              "internalType": "uint32",
              "name": "atk",
              "type": "uint32"
            },
            {
              "internalType": "uint32",
              "name": "def",
              "type": "uint32"
            },
            {
              "internalType": "uint32",
              "name": "inte",
              "type": "uint32"
            },
            {
              "internalType": "uint32",
              "name": "mgr",
              "type": "uint32"
            },
            {
              "internalType": "uint32",
              "name": "agl",
              "type": "uint32"
            }
          ],
          "indexed": false,
          "internalType": "struct IPromptMonsters.Monster",
          "name": "monster",
          "type": "tuple"
        }
      ],
      "name": "GenerateMonster",
      "type": "event"
    },
    {
      "anonymous": false,
      "inputs": [
        {
          "indexed": false,
          "internalType": "uint8",
          "name": "version",
          "type": "uint8"
        }
      ],
      "name": "Initialized",
      "type": "event"
    },
    {
      "anonymous": false,
      "inputs": [
        {
          "indexed": true,
          "internalType": "address",
          "name": "tokenOwner",
          "type": "address"
        },
        {
          "indexed": true,
          "internalType": "uint256",
          "name": "newTokenId",
          "type": "uint256"
        },
        {
          "components": [
            {
              "internalType": "string",
              "name": "feature",
              "type": "string"
            },
            {
              "internalType": "string",
              "name": "name",
              "type": "string"
            },
            {
              "internalType": "string",
              "name": "flavor",
              "type": "string"
            },
            {
              "internalType": "string[]",
              "name": "skills",
              "type": "string[]"
            },
            {
              "internalType": "uint32",
              "name": "lv",
              "type": "uint32"
            },
            {
              "internalType": "uint32",
              "name": "hp",
              "type": "uint32"
            },
            {
              "internalType": "uint32",
              "name": "atk",
              "type": "uint32"
            },
            {
              "internalType": "uint32",
              "name": "def",
              "type": "uint32"
            },
            {
              "internalType": "uint32",
              "name": "inte",
              "type": "uint32"
            },
            {
              "internalType": "uint32",
              "name": "mgr",
              "type": "uint32"
            },
            {
              "internalType": "uint32",
              "name": "agl",
              "type": "uint32"
            }
          ],
          "indexed": false,
          "internalType": "struct IPromptMonsters.Monster",
          "name": "monster",
          "type": "tuple"
        }
      ],
      "name": "MintedMonster",
      "type": "event"
    },
    {
      "anonymous": false,
      "inputs": [
        {
          "indexed": false,
          "internalType": "address",
          "name": "account",
          "type": "address"
        }
      ],
      "name": "Paused",
      "type": "event"
    },
    {
      "anonymous": false,
      "inputs": [
        {
          "indexed": true,
          "internalType": "bytes32",
          "name": "role",
          "type": "bytes32"
        },
        {
          "indexed": true,
          "internalType": "bytes32",
          "name": "previousAdminRole",
          "type": "bytes32"
        },
        {
          "indexed": true,
          "internalType": "bytes32",
          "name": "newAdminRole",
          "type": "bytes32"
        }
      ],
      "name": "RoleAdminChanged",
      "type": "event"
    },
    {
      "anonymous": false,
      "inputs": [
        {
          "indexed": true,
          "internalType": "bytes32",
          "name": "role",
          "type": "bytes32"
        },
        {
          "indexed": true,
          "internalType": "address",
          "name": "account",
          "type": "address"
        },
        {
          "indexed": true,
          "internalType": "address",
          "name": "sender",
          "type": "address"
        }
      ],
      "name": "RoleGranted",
      "type": "event"
    },
    {
      "anonymous": false,
      "inputs": [
        {
          "indexed": true,
          "internalType": "bytes32",
          "name": "role",
          "type": "bytes32"
        },
        {
          "indexed": true,
          "internalType": "address",
          "name": "account",
          "type": "address"
        },
        {
          "indexed": true,
          "internalType": "address",
          "name": "sender",
          "type": "address"
        }
      ],
      "name": "RoleRevoked",
      "type": "event"
    },
    {
      "anonymous": false,
      "inputs": [
        {
          "indexed": true,
          "internalType": "address",
          "name": "publisher",
          "type": "address"
        },
        {
          "indexed": false,
          "internalType": "address",
          "name": "oldValue",
          "type": "address"
        },
        {
          "indexed": false,
          "internalType": "address",
          "name": "newValue",
          "type": "address"
        }
      ],
      "name": "SetErc20",
      "type": "event"
    },
    {
      "anonymous": false,
      "inputs": [
        {
          "indexed": true,
          "internalType": "address",
          "name": "publisher",
          "type": "address"
        },
        {
          "indexed": false,
          "internalType": "string",
          "name": "oldValue",
          "type": "string"
        },
        {
          "indexed": false,
          "internalType": "string",
          "name": "newValue",
          "type": "string"
        }
      ],
      "name": "SetExternalLink",
      "type": "event"
    },
    {
      "anonymous": false,
      "inputs": [
        {
          "indexed": true,
          "internalType": "address",
          "name": "publisher",
          "type": "address"
        },
        {
          "indexed": false,
          "internalType": "uint256",
          "name": "oldValue",
          "type": "uint256"
        },
        {
          "indexed": false,
          "internalType": "uint256",
          "name": "newValue",
          "type": "uint256"
        }
      ],
      "name": "SetMintPrice",
      "type": "event"
    },
    {
      "anonymous": false,
      "inputs": [
        {
          "indexed": true,
          "internalType": "address",
          "name": "publisher",
          "type": "address"
        },
        {
          "indexed": false,
          "internalType": "uint256",
          "name": "oldValue",
          "type": "uint256"
        },
        {
          "indexed": false,
          "internalType": "uint256",
          "name": "newValue",
          "type": "uint256"
        }
      ],
      "name": "SetOwnerToTokenId",
      "type": "event"
    },
    {
      "anonymous": false,
      "inputs": [
        {
          "indexed": true,
          "internalType": "address",
          "name": "publisher",
          "type": "address"
        },
        {
          "indexed": false,
          "internalType": "uint256",
          "name": "oldValue",
          "type": "uint256"
        },
        {
          "indexed": false,
          "internalType": "uint256",
          "name": "newValue",
          "type": "uint256"
        }
      ],
      "name": "SetOwnerToTokenIdIndex",
      "type": "event"
    },
    {
      "anonymous": false,
      "inputs": [
        {
          "indexed": true,
          "internalType": "address",
          "name": "publisher",
          "type": "address"
        },
        {
          "indexed": false,
          "internalType": "address",
          "name": "oldValue",
          "type": "address"
        },
        {
          "indexed": false,
          "internalType": "address",
          "name": "newValue",
          "type": "address"
        }
      ],
      "name": "SetPromptMonstersWallet",
      "type": "event"
    },
    {
      "anonymous": false,
      "inputs": [
        {
          "indexed": true,
          "internalType": "address",
          "name": "from",
          "type": "address"
        },
        {
          "indexed": true,
          "internalType": "address",
          "name": "to",
          "type": "address"
        },
        {
          "indexed": true,
          "internalType": "uint256",
          "name": "tokenId",
          "type": "uint256"
        }
      ],
      "name": "Transfer",
      "type": "event"
    },
    {
      "anonymous": false,
      "inputs": [
        {
          "indexed": false,
          "internalType": "address",
          "name": "account",
          "type": "address"
        }
      ],
      "name": "Unpaused",
      "type": "event"
    },
    {
      "anonymous": false,
      "inputs": [
        {
          "indexed": true,
          "internalType": "address",
          "name": "implementation",
          "type": "address"
        }
      ],
      "name": "Upgraded",
      "type": "event"
    },
    {
      "inputs": [],
      "name": "DEFAULT_ADMIN_ROLE",
      "outputs": [
        {
          "internalType": "bytes32",
          "name": "",
          "type": "bytes32"
        }
      ],
      "stateMutability": "view",
      "type": "function"
    },
    {
      "inputs": [
        {
          "internalType": "address",
          "name": "to",
          "type": "address"
        },
        {
          "internalType": "uint256",
          "name": "tokenId",
          "type": "uint256"
        }
      ],
      "name": "approve",
      "outputs": [],
      "stateMutability": "nonpayable",
      "type": "function"
    },
    {
      "inputs": [
        {
          "internalType": "address",
          "name": "owner",
          "type": "address"
        }
      ],
      "name": "balanceOf",
      "outputs": [
        {
          "internalType": "uint256",
          "name": "",
          "type": "uint256"
        }
      ],
      "stateMutability": "view",
      "type": "function"
    },
    {
      "inputs": [
        {
          "internalType": "uint256",
          "name": "tokenId_",
          "type": "uint256"
        }
      ],
      "name": "burn",
      "outputs": [],
      "stateMutability": "nonpayable",
      "type": "function"
    },
    {
      "inputs": [
        {
          "internalType": "uint256",
          "name": "monsterId",
          "type": "uint256"
        }
      ],
      "name": "checkMonsterId",
      "outputs": [],
      "stateMutability": "view",
      "type": "function"
    },
    {
      "inputs": [],
      "name": "contractURI",
      "outputs": [
        {
          "internalType": "string",
          "name": "uri",
          "type": "string"
        }
      ],
      "stateMutability": "view",
      "type": "function"
    },
    {
      "inputs": [],
      "name": "erc20",
      "outputs": [
        {
          "internalType": "contract IERC20",
          "name": "",
          "type": "address"
        }
      ],
      "stateMutability": "view",
      "type": "function"
    },
    {
      "inputs": [
        {
          "internalType": "address",
          "name": "resurrectionPrompt_",
          "type": "address"
        },
        {
          "components": [
            {
              "internalType": "string",
              "name": "feature",
              "type": "string"
            },
            {
              "internalType": "string",
              "name": "name",
              "type": "string"
            },
            {
              "internalType": "string",
              "name": "flavor",
              "type": "string"
            },
            {
              "internalType": "string[]",
              "name": "skills",
              "type": "string[]"
            },
            {
              "internalType": "uint32",
              "name": "lv",
              "type": "uint32"
            },
            {
              "internalType": "uint32",
              "name": "hp",
              "type": "uint32"
            },
            {
              "internalType": "uint32",
              "name": "atk",
              "type": "uint32"
            },
            {
              "internalType": "uint32",
              "name": "def",
              "type": "uint32"
            },
            {
              "internalType": "uint32",
              "name": "inte",
              "type": "uint32"
            },
            {
              "internalType": "uint32",
              "name": "mgr",
              "type": "uint32"
            },
            {
              "internalType": "uint32",
              "name": "agl",
              "type": "uint32"
            }
          ],
          "internalType": "struct IPromptMonsters.Monster",
          "name": "monster_",
          "type": "tuple"
        }
      ],
      "name": "generateMonster",
      "outputs": [],
      "stateMutability": "nonpayable",
      "type": "function"
    },
    {
      "inputs": [
        {
          "internalType": "uint256",
          "name": "tokenId",
          "type": "uint256"
        }
      ],
      "name": "getApproved",
      "outputs": [
        {
          "internalType": "address",
          "name": "",
          "type": "address"
        }
      ],
      "stateMutability": "view",
      "type": "function"
    },
    {
      "inputs": [
        {
          "internalType": "address[]",
          "name": "resurrectionPrompts_",
          "type": "address[]"
        }
      ],
      "name": "getMonsterExtensions",
      "outputs": [
        {
          "components": [
            {
              "internalType": "string",
              "name": "feature",
              "type": "string"
            },
            {
              "internalType": "string",
              "name": "name",
              "type": "string"
            },
            {
              "internalType": "string",
              "name": "flavor",
              "type": "string"
            },
            {
              "internalType": "string[]",
              "name": "skills",
              "type": "string[]"
            },
            {
              "internalType": "uint32",
              "name": "lv",
              "type": "uint32"
            },
            {
              "internalType": "uint32",
              "name": "hp",
              "type": "uint32"
            },
            {
              "internalType": "uint32",
              "name": "atk",
              "type": "uint32"
            },
            {
              "internalType": "uint32",
              "name": "def",
              "type": "uint32"
            },
            {
              "internalType": "uint32",
              "name": "inte",
              "type": "uint32"
            },
            {
              "internalType": "uint32",
              "name": "mgr",
              "type": "uint32"
            },
            {
              "internalType": "uint32",
              "name": "agl",
              "type": "uint32"
            },
            {
              "internalType": "uint32[]",
              "name": "skillTypes",
              "type": "uint32[]"
            },
            {
              "internalType": "address",
              "name": "resurrectionPrompt",
              "type": "address"
            }
          ],
          "internalType": "struct IPromptMonstersExtension.MonsterExtension[]",
          "name": "monsterExtensions",
          "type": "tuple[]"
        }
      ],
      "stateMutability": "view",
      "type": "function"
    },
    {
      "inputs": [
        {
          "internalType": "address",
          "name": "resurrectionPrompt",
          "type": "address"
        }
      ],
      "name": "getMonsterHistory",
      "outputs": [
        {
          "components": [
            {
              "internalType": "string",
              "name": "feature",
              "type": "string"
            },
            {
              "internalType": "string",
              "name": "name",
              "type": "string"
            },
            {
              "internalType": "string",
              "name": "flavor",
              "type": "string"
            },
            {
              "internalType": "string[]",
              "name": "skills",
              "type": "string[]"
            },
            {
              "internalType": "uint32",
              "name": "lv",
              "type": "uint32"
            },
            {
              "internalType": "uint32",
              "name": "hp",
              "type": "uint32"
            },
            {
              "internalType": "uint32",
              "name": "atk",
              "type": "uint32"
            },
            {
              "internalType": "uint32",
              "name": "def",
              "type": "uint32"
            },
            {
              "internalType": "uint32",
              "name": "inte",
              "type": "uint32"
            },
            {
              "internalType": "uint32",
              "name": "mgr",
              "type": "uint32"
            },
            {
              "internalType": "uint32",
              "name": "agl",
              "type": "uint32"
            }
          ],
          "internalType": "struct IPromptMonsters.Monster",
          "name": "monsterHistory",
          "type": "tuple"
        }
      ],
      "stateMutability": "view",
      "type": "function"
    },
    {
      "inputs": [
        {
          "internalType": "uint256[]",
          "name": "tokenIds_",
          "type": "uint256[]"
        }
      ],
      "name": "getMonsters",
      "outputs": [
        {
          "components": [
            {
              "internalType": "string",
              "name": "feature",
              "type": "string"
            },
            {
              "internalType": "string",
              "name": "name",
              "type": "string"
            },
            {
              "internalType": "string",
              "name": "flavor",
              "type": "string"
            },
            {
              "internalType": "string[]",
              "name": "skills",
              "type": "string[]"
            },
            {
              "internalType": "uint32",
              "name": "lv",
              "type": "uint32"
            },
            {
              "internalType": "uint32",
              "name": "hp",
              "type": "uint32"
            },
            {
              "internalType": "uint32",
              "name": "atk",
              "type": "uint32"
            },
            {
              "internalType": "uint32",
              "name": "def",
              "type": "uint32"
            },
            {
              "internalType": "uint32",
              "name": "inte",
              "type": "uint32"
            },
            {
              "internalType": "uint32",
              "name": "mgr",
              "type": "uint32"
            },
            {
              "internalType": "uint32",
              "name": "agl",
              "type": "uint32"
            }
          ],
          "internalType": "struct IPromptMonsters.Monster[]",
          "name": "monsters",
          "type": "tuple[]"
        }
      ],
      "stateMutability": "view",
      "type": "function"
    },
    {
      "inputs": [],
      "name": "getMonstersTotalSupply",
      "outputs": [
        {
          "internalType": "uint256",
          "name": "totalSupply",
          "type": "uint256"
        }
      ],
      "stateMutability": "view",
      "type": "function"
    },
    {
      "inputs": [
        {
          "internalType": "address",
          "name": "owner",
          "type": "address"
        }
      ],
      "name": "getOwnerToTokenIds",
      "outputs": [
        {
          "internalType": "uint256[]",
          "name": "tokenIds",
          "type": "uint256[]"
        }
      ],
      "stateMutability": "view",
      "type": "function"
    },
    {
      "inputs": [
        {
          "internalType": "address",
          "name": "owner",
          "type": "address"
        },
        {
          "internalType": "uint256",
          "name": "tokenId_",
          "type": "uint256"
        }
      ],
      "name": "getOwnerToTokenIdsIndex",
      "outputs": [
        {
          "internalType": "uint256",
          "name": "tokenIdsIndex",
          "type": "uint256"
        }
      ],
      "stateMutability": "view",
      "type": "function"
    },
    {
      "inputs": [],
      "name": "getPromptMonstersExtension",
      "outputs": [
        {
          "internalType": "contract IPromptMonstersExtension",
          "name": "returnState",
          "type": "address"
        }
      ],
      "stateMutability": "view",
      "type": "function"
    },
    {
      "inputs": [
        {
          "internalType": "uint256[]",
          "name": "monsterIds_",
          "type": "uint256[]"
        }
      ],
      "name": "getResurrectionPrompts",
      "outputs": [
        {
          "internalType": "address[]",
          "name": "returnValue",
          "type": "address[]"
        }
      ],
      "stateMutability": "view",
      "type": "function"
    },
    {
      "inputs": [
        {
          "internalType": "bytes32",
          "name": "role",
          "type": "bytes32"
        }
      ],
      "name": "getRoleAdmin",
      "outputs": [
        {
          "internalType": "bytes32",
          "name": "",
          "type": "bytes32"
        }
      ],
      "stateMutability": "view",
      "type": "function"
    },
    {
      "inputs": [
        {
          "internalType": "bytes32",
          "name": "role",
          "type": "bytes32"
        },
        {
          "internalType": "uint256",
          "name": "index",
          "type": "uint256"
        }
      ],
      "name": "getRoleMember",
      "outputs": [
        {
          "internalType": "address",
          "name": "",
          "type": "address"
        }
      ],
      "stateMutability": "view",
      "type": "function"
    },
    {
      "inputs": [
        {
          "internalType": "bytes32",
          "name": "role",
          "type": "bytes32"
        }
      ],
      "name": "getRoleMemberCount",
      "outputs": [
        {
          "internalType": "uint256",
          "name": "",
          "type": "uint256"
        }
      ],
      "stateMutability": "view",
      "type": "function"
    },
    {
      "inputs": [
        {
          "internalType": "bytes32",
          "name": "role",
          "type": "bytes32"
        },
        {
          "internalType": "address",
          "name": "account",
          "type": "address"
        }
      ],
      "name": "grantRole",
      "outputs": [],
      "stateMutability": "nonpayable",
      "type": "function"
    },
    {
      "inputs": [
        {
          "internalType": "bytes32",
          "name": "role",
          "type": "bytes32"
        },
        {
          "internalType": "address",
          "name": "account",
          "type": "address"
        }
      ],
      "name": "hasRole",
      "outputs": [
        {
          "internalType": "bool",
          "name": "",
          "type": "bool"
        }
      ],
      "stateMutability": "view",
      "type": "function"
    },
    {
      "inputs": [
        {
          "internalType": "string",
          "name": "externalLink_",
          "type": "string"
        },
        {
          "internalType": "address",
          "name": "erc20Address_",
          "type": "address"
        },
        {
          "internalType": "uint256",
          "name": "mintPrice_",
          "type": "uint256"
        },
        {
          "internalType": "address",
          "name": "promptMonstersWallet_",
          "type": "address"
        }
      ],
      "name": "initialize",
      "outputs": [],
      "stateMutability": "nonpayable",
      "type": "function"
    },
    {
      "inputs": [
        {
          "internalType": "address",
          "name": "owner",
          "type": "address"
        },
        {
          "internalType": "address",
          "name": "operator",
          "type": "address"
        }
      ],
      "name": "isApprovedForAll",
      "outputs": [
        {
          "internalType": "bool",
          "name": "",
          "type": "bool"
        }
      ],
      "stateMutability": "view",
      "type": "function"
    },
    {
      "inputs": [
        {
          "internalType": "address",
          "name": "",
          "type": "address"
        }
      ],
      "name": "isMinted",
      "outputs": [
        {
          "internalType": "bool",
          "name": "",
          "type": "bool"
        }
      ],
      "stateMutability": "view",
      "type": "function"
    },
    {
      "inputs": [
        {
          "internalType": "address",
          "name": "resurrectionPrompt",
          "type": "address"
        }
      ],
      "name": "mint",
      "outputs": [],
      "stateMutability": "nonpayable",
      "type": "function"
    },
    {
      "inputs": [],
      "name": "mintPrice",
      "outputs": [
        {
          "internalType": "uint256",
          "name": "",
          "type": "uint256"
        }
      ],
      "stateMutability": "view",
      "type": "function"
    },
    {
      "inputs": [],
      "name": "name",
      "outputs": [
        {
          "internalType": "string",
          "name": "",
          "type": "string"
        }
      ],
      "stateMutability": "view",
      "type": "function"
    },
    {
      "inputs": [
        {
          "internalType": "uint256",
          "name": "tokenId",
          "type": "uint256"
        }
      ],
      "name": "ownerOf",
      "outputs": [
        {
          "internalType": "address",
          "name": "",
          "type": "address"
        }
      ],
      "stateMutability": "view",
      "type": "function"
    },
    {
      "inputs": [],
      "name": "pause",
      "outputs": [],
      "stateMutability": "nonpayable",
      "type": "function"
    },
    {
      "inputs": [],
      "name": "paused",
      "outputs": [
        {
          "internalType": "bool",
          "name": "",
          "type": "bool"
        }
      ],
      "stateMutability": "view",
      "type": "function"
    },
    {
      "inputs": [],
      "name": "promptMonstersImage",
      "outputs": [
        {
          "internalType": "contract IPromptMonstersImage",
          "name": "",
          "type": "address"
        }
      ],
      "stateMutability": "view",
      "type": "function"
    },
    {
      "inputs": [],
      "name": "promptMonstersWallet",
      "outputs": [
        {
          "internalType": "address",
          "name": "",
          "type": "address"
        }
      ],
      "stateMutability": "view",
      "type": "function"
    },
    {
      "inputs": [],
      "name": "proxiableUUID",
      "outputs": [
        {
          "internalType": "bytes32",
          "name": "",
          "type": "bytes32"
        }
      ],
      "stateMutability": "view",
      "type": "function"
    },
    {
      "inputs": [
        {
          "internalType": "bytes32",
          "name": "role",
          "type": "bytes32"
        },
        {
          "internalType": "address",
          "name": "account",
          "type": "address"
        }
      ],
      "name": "renounceRole",
      "outputs": [],
      "stateMutability": "nonpayable",
      "type": "function"
    },
    {
      "inputs": [
        {
          "internalType": "address",
          "name": "",
          "type": "address"
        }
      ],
      "name": "resurrectionIndex",
      "outputs": [
        {
          "internalType": "uint256",
          "name": "",
          "type": "uint256"
        }
      ],
      "stateMutability": "view",
      "type": "function"
    },
    {
      "inputs": [
        {
          "internalType": "bytes32",
          "name": "role",
          "type": "bytes32"
        },
        {
          "internalType": "address",
          "name": "account",
          "type": "address"
        }
      ],
      "name": "revokeRole",
      "outputs": [],
      "stateMutability": "nonpayable",
      "type": "function"
    },
    {
      "inputs": [
        {
          "internalType": "address",
          "name": "from",
          "type": "address"
        },
        {
          "internalType": "address",
          "name": "to",
          "type": "address"
        },
        {
          "internalType": "uint256",
          "name": "tokenId",
          "type": "uint256"
        }
      ],
      "name": "safeTransferFrom",
      "outputs": [],
      "stateMutability": "nonpayable",
      "type": "function"
    },
    {
      "inputs": [
        {
          "internalType": "address",
          "name": "from",
          "type": "address"
        },
        {
          "internalType": "address",
          "name": "to",
          "type": "address"
        },
        {
          "internalType": "uint256",
          "name": "tokenId",
          "type": "uint256"
        },
        {
          "internalType": "bytes",
          "name": "data",
          "type": "bytes"
        }
      ],
      "name": "safeTransferFrom",
      "outputs": [],
      "stateMutability": "nonpayable",
      "type": "function"
    },
    {
      "inputs": [
        {
          "internalType": "address",
          "name": "operator",
          "type": "address"
        },
        {
          "internalType": "bool",
          "name": "approved",
          "type": "bool"
        }
      ],
      "name": "setApprovalForAll",
      "outputs": [],
      "stateMutability": "nonpayable",
      "type": "function"
    },
    {
      "inputs": [
        {
          "internalType": "address",
          "name": "newState_",
          "type": "address"
        }
      ],
      "name": "setErc20",
      "outputs": [],
      "stateMutability": "nonpayable",
      "type": "function"
    },
    {
      "inputs": [
        {
          "internalType": "string",
          "name": "newState_",
          "type": "string"
        }
      ],
      "name": "setExternalLink",
      "outputs": [],
      "stateMutability": "nonpayable",
      "type": "function"
    },
    {
      "inputs": [
        {
          "internalType": "uint256",
          "name": "newState_",
          "type": "uint256"
        }
      ],
      "name": "setMintPrice",
      "outputs": [],
      "stateMutability": "nonpayable",
      "type": "function"
    },
    {
      "inputs": [
        {
          "internalType": "uint256",
          "name": "monsterId_",
          "type": "uint256"
        },
        {
          "internalType": "address",
          "name": "resurrectionPrompt_",
          "type": "address"
        }
      ],
      "name": "setMonsterHistory",
      "outputs": [],
      "stateMutability": "nonpayable",
      "type": "function"
    },
    {
      "inputs": [
        {
          "internalType": "uint256",
          "name": "monsterId_",
          "type": "uint256"
        },
        {
          "internalType": "address",
          "name": "resurrectionPrompt_",
          "type": "address"
        }
      ],
      "name": "setMonsterIdToResurrectionPrompt",
      "outputs": [],
      "stateMutability": "nonpayable",
      "type": "function"
    },
    {
      "inputs": [
        {
          "internalType": "address",
          "name": "user_",
          "type": "address"
        },
        {
          "internalType": "uint256",
          "name": "ownerToTokenIdIndex_",
          "type": "uint256"
        },
        {
          "internalType": "uint256",
          "name": "newState_",
          "type": "uint256"
        }
      ],
      "name": "setOwnerToTokenId",
      "outputs": [],
      "stateMutability": "nonpayable",
      "type": "function"
    },
    {
      "inputs": [
        {
          "internalType": "address",
          "name": "user_",
          "type": "address"
        },
        {
          "internalType": "uint256",
          "name": "tokenId_",
          "type": "uint256"
        },
        {
          "internalType": "uint256",
          "name": "newState_",
          "type": "uint256"
        }
      ],
      "name": "setOwnerToTokenIdIndex",
      "outputs": [],
      "stateMutability": "nonpayable",
      "type": "function"
    },
    {
      "inputs": [
        {
          "internalType": "address",
          "name": "newState_",
          "type": "address"
        }
      ],
      "name": "setPromptMonstersExtension",
      "outputs": [],
      "stateMutability": "nonpayable",
      "type": "function"
    },
    {
      "inputs": [
        {
          "internalType": "address",
          "name": "newState_",
          "type": "address"
        }
      ],
      "name": "setPromptMonstersImage",
      "outputs": [],
      "stateMutability": "nonpayable",
      "type": "function"
    },
    {
      "inputs": [
        {
          "internalType": "address",
          "name": "newState_",
          "type": "address"
        }
      ],
      "name": "setPromptMonstersWallet",
      "outputs": [],
      "stateMutability": "nonpayable",
      "type": "function"
    },
    {
      "inputs": [
        {
          "internalType": "bytes4",
          "name": "interfaceId",
          "type": "bytes4"
        }
      ],
      "name": "supportsInterface",
      "outputs": [
        {
          "internalType": "bool",
          "name": "",
          "type": "bool"
        }
      ],
      "stateMutability": "view",
      "type": "function"
    },
    {
      "inputs": [],
      "name": "symbol",
      "outputs": [
        {
          "internalType": "string",
          "name": "",
          "type": "string"
        }
      ],
      "stateMutability": "view",
      "type": "function"
    },
    {
      "inputs": [
        {
          "internalType": "uint256",
          "name": "tokenId_",
          "type": "uint256"
        }
      ],
      "name": "tokenURI",
      "outputs": [
        {
          "internalType": "string",
          "name": "uri",
          "type": "string"
        }
      ],
      "stateMutability": "view",
      "type": "function"
    },
    {
      "inputs": [
        {
          "internalType": "address",
          "name": "from",
          "type": "address"
        },
        {
          "internalType": "address",
          "name": "to",
          "type": "address"
        },
        {
          "internalType": "uint256",
          "name": "tokenId",
          "type": "uint256"
        }
      ],
      "name": "transferFrom",
      "outputs": [],
      "stateMutability": "nonpayable",
      "type": "function"
    },
    {
      "inputs": [],
      "name": "unpause",
      "outputs": [],
      "stateMutability": "nonpayable",
      "type": "function"
    },
    {
      "inputs": [
        {
          "internalType": "address",
          "name": "newImplementation",
          "type": "address"
        }
      ],
      "name": "upgradeTo",
      "outputs": [],
      "stateMutability": "nonpayable",
      "type": "function"
    },
    {
      "inputs": [
        {
          "internalType": "address",
          "name": "newImplementation",
          "type": "address"
        },
        {
          "internalType": "bytes",
          "name": "data",
          "type": "bytes"
        }
      ],
      "name": "upgradeToAndCall",
      "outputs": [],
      "stateMutability": "payable",
      "type": "function"
    }
  ],
  "bytecode": "0x60a0604052306080523480156200001557600080fd5b506200002062000026565b620000e8565b600054610100900460ff1615620000935760405162461bcd60e51b815260206004820152602760248201527f496e697469616c697a61626c653a20636f6e747261637420697320696e697469604482015266616c697a696e6760c81b606482015260840160405180910390fd5b60005460ff9081161015620000e6576000805460ff191660ff9081179091556040519081527f7f26b83ff96e1f2b6a682f133852f6798a09c465da95921460cefb38474024989060200160405180910390a15b565b608051615d4b62000120600039600081816113000152818161134001528181611696015281816116d601526117650152615d4b6000f3fe6080604052600436106103765760003560e01c80636352211e116101d1578063b2664c2e11610102578063da430c26116100a0578063e985e9c51161006f578063e985e9c514610a7e578063ee9b80a414610ac7578063f4a0a52814610ae7578063f9f2a7ce14610b0757600080fd5b8063da430c26146109fb578063dc328fa514610a29578063e4bab3f514610a49578063e8a3d48514610a6957600080fd5b8063c4b64f26116100dc578063c4b64f261461096e578063c87b56dd1461099b578063ca15c873146109bb578063d547741f146109db57600080fd5b8063b2664c2e146108f4578063b88d4fde14610921578063bacc06aa1461094157600080fd5b80638456cb591161016f57806395d89b411161014957806395d89b411461088a578063995005ef1461089f578063a217fddf146108bf578063a22cb465146108d457600080fd5b80638456cb59146108355780639010d07c1461084a57806391d148541461086a57600080fd5b80636a627842116101ab5780636a627842146107b457806370a08231146107d4578063785e9e86146107f4578063831864651461081557600080fd5b80636352211e1461075d57806364cb5fd21461077d5780636817c76c1461079d57600080fd5b80632f2ff15d116102ab5780634bd1ce3e1161024957806352dd29d21161022357806352dd29d2146106e557806355b09456146106fb57806356db61c81461071b5780635c975abb1461073b57600080fd5b80634bd1ce3e1461069d5780634f1ef286146106bd57806352d1902d146106d057600080fd5b80633659cfe6116102855780633659cfe6146106285780633f4ba83a1461064857806342842e0e1461065d57806342966c681461067d57600080fd5b80632f2ff15d146105c857806333a512a4146105e857806336568abe1461060857600080fd5b80631b80ef7a1161031857806323b872dd116102f257806323b872dd14610508578063248a9ca31461052857806327fde6d6146105665780632d6407cf1461058557600080fd5b80631b80ef7a1461049a5780631f917921146104c75780632114d251146104e757600080fd5b8063081812fc11610354578063081812fc146103f4578063095ea7b31461042c5780630fd7efc41461044c578063145f0fa91461047957600080fd5b806301ffc9a71461037b578063038d18d8146103b057806306fdde03146103d2575b600080fd5b34801561038757600080fd5b5061039b6103963660046145ff565b610b38565b60405190151581526020015b60405180910390f35b3480156103bc57600080fd5b506103d06103cb366004614631565b610b49565b005b3480156103de57600080fd5b506103e7610b78565b6040516103a7919061469e565b34801561040057600080fd5b5061041461040f3660046146b1565b610c0a565b6040516001600160a01b0390911681526020016103a7565b34801561043857600080fd5b506103d06104473660046146ca565b610c31565b34801561045857600080fd5b5061046c610467366004614631565b610d4b565b6040516103a791906146f6565b34801561048557600080fd5b5061019254610414906001600160a01b031681565b3480156104a657600080fd5b506104ba6104b53660046147ef565b610db8565b6040516103a79190614918565b3480156104d357600080fd5b506103d06104e2366004614af5565b610f8e565b3480156104f357600080fd5b5061019a54610414906001600160a01b031681565b34801561051457600080fd5b506103d0610523366004614b29565b611082565b34801561053457600080fd5b506105586105433660046146b1565b60009081526097602052604090206001015490565b6040519081526020016103a7565b34801561057257600080fd5b5061019d546001600160a01b0316610414565b34801561059157600080fd5b506105586105a03660046146ca565b6001600160a01b03909116600090815261019560209081526040808320938352929052205490565b3480156105d457600080fd5b506103d06105e3366004614b6a565b6110b3565b3480156105f457600080fd5b506103d0610603366004614c46565b6110d8565b34801561061457600080fd5b506103d0610623366004614b6a565b611278565b34801561063457600080fd5b506103d0610643366004614631565b6112f6565b34801561065457600080fd5b506103d06113d5565b34801561066957600080fd5b506103d0610678366004614b29565b611480565b34801561068957600080fd5b506103d06106983660046146b1565b61149b565b3480156106a957600080fd5b506103d06106b8366004614b6a565b6114ee565b6103d06106cb366004614db4565b61168c565b3480156106dc57600080fd5b50610558611758565b3480156106f157600080fd5b5061019854610558565b34801561070757600080fd5b506103d0610716366004614e03565b61180b565b34801561072757600080fd5b506103d0610736366004614e6e565b6119cd565b34801561074757600080fd5b5061019a5461039b90600160a01b900460ff1681565b34801561076957600080fd5b506104146107783660046146b1565b611a18565b34801561078957600080fd5b506103d0610798366004614631565b611a78565b3480156107a957600080fd5b506105586101935481565b3480156107c057600080fd5b506103d06107cf366004614631565b611aa7565b3480156107e057600080fd5b506105586107ef366004614631565b6121bc565b34801561080057600080fd5b5061019154610414906001600160a01b031681565b34801561082157600080fd5b506103d06108303660046146b1565b612242565b34801561084157600080fd5b506103d06122c3565b34801561085657600080fd5b50610414610865366004614ea3565b612335565b34801561087657600080fd5b5061039b610885366004614b6a565b612354565b34801561089657600080fd5b506103e761237f565b3480156108ab57600080fd5b506103d06108ba366004614b6a565b61238e565b3480156108cb57600080fd5b50610558600081565b3480156108e057600080fd5b506103d06108ef366004614ed3565b6123c9565b34801561090057600080fd5b5061091461090f366004614f01565b6123d4565b6040516103a79190615092565b34801561092d57600080fd5b506103d061093c3660046150f4565b612806565b34801561094d57600080fd5b5061096161095c366004614f01565b61283e565b6040516103a7919061515f565b34801561097a57600080fd5b5061098e610989366004614631565b612905565b6040516103a791906151a0565b3480156109a757600080fd5b506103e76109b63660046146b1565b612c2f565b3480156109c757600080fd5b506105586109d63660046146b1565b612cd7565b3480156109e757600080fd5b506103d06109f6366004614b6a565b612cee565b348015610a0757600080fd5b50610558610a16366004614631565b6101996020526000908152604090205481565b348015610a3557600080fd5b506103d0610a44366004614e6e565b612d13565b348015610a5557600080fd5b506103d0610a64366004614631565b612d46565b348015610a7557600080fd5b506103e7612dbe565b348015610a8a57600080fd5b5061039b610a993660046151b3565b6001600160a01b039182166000908152606a6020908152604080832093909416825291909152205460ff1690565b348015610ad357600080fd5b506103d0610ae2366004614631565b612e45565b348015610af357600080fd5b506103d0610b023660046146b1565b612ebd565b348015610b1357600080fd5b5061039b610b22366004614631565b61019b6020526000908152604090205460ff1681565b6000610b4382612f09565b92915050565b6000610b5481612f2e565b5061019a80546001600160a01b0319166001600160a01b0392909216919091179055565b606060658054610b87906151e1565b80601f0160208091040260200160405190810160405280929190818152602001828054610bb3906151e1565b8015610c005780601f10610bd557610100808354040283529160200191610c00565b820191906000526020600020905b815481529060010190602001808311610be357829003601f168201915b5050505050905090565b6000610c1582612f38565b506000908152606960205260409020546001600160a01b031690565b6000610c3c82611a18565b9050806001600160a01b0316836001600160a01b031603610cae5760405162461bcd60e51b815260206004820152602160248201527f4552433732313a20617070726f76616c20746f2063757272656e74206f776e656044820152603960f91b60648201526084015b60405180910390fd5b336001600160a01b0382161480610cca5750610cca8133610a99565b610d3c5760405162461bcd60e51b815260206004820152603d60248201527f4552433732313a20617070726f76652063616c6c6572206973206e6f7420746f60448201527f6b656e206f776e6572206f7220617070726f76656420666f7220616c6c0000006064820152608401610ca5565b610d468383612f97565b505050565b6001600160a01b03811660009081526101976020908152604091829020805483518184028101840190945280845260609392830182828015610dac57602002820191906000526020600020905b815481526020019060010190808311610d98575b50505050509050919050565b8051606090806001600160401b03811115610dd557610dd561473a565b604051908082528060200260200182016040528015610e6e57816020015b604080516101a0810182526060808252602080830182905292820181905280820181905260006080830181905260a0830181905260c0830181905260e083018190526101008301819052610120830181905261014083018190526101608301919091526101808201528252600019909201910181610df35790505b50915060005b81811015610f87576000848281518110610e9057610e9061521b565b6020026020010151905061019d60009054906101000a90046001600160a01b03166001600160a01b031663c61184cc826101966000898781518110610ed757610ed761521b565b60200260200101516001600160a01b03166001600160a01b031681526020019081526020016000206040518363ffffffff1660e01b8152600401610f1c9291906153d5565b600060405180830381865afa158015610f39573d6000803e3d6000fd5b505050506040513d6000823e601f3d908101601f19168201604052610f619190810190615537565b848381518110610f7357610f7361521b565b602090810291909101015250600101610e74565b5050919050565b6000610f9981612f2e565b60006101948054610fa9906151e1565b80601f0160208091040260200160405190810160405280929190818152602001828054610fd5906151e1565b80156110225780601f10610ff757610100808354040283529160200191611022565b820191906000526020600020905b81548152906001019060200180831161100557829003601f168201915b505050505090508261019490816110399190615714565b50336001600160a01b03167ffceab947acbd3281d41fa085ba6d9503467fabd9e3d96e3ee0dbf6f8b04a9ca482856040516110759291906157d3565b60405180910390a2505050565b61108c3382613005565b6110a85760405162461bcd60e51b8152600401610ca5906157f8565b610d46838383613084565b6000828152609760205260409020600101546110ce81612f2e565b610d4683836131f5565b60006110e381612f2e565b6110eb613217565b6001600160a01b038316600090815261019660205260409020825183919081906111159082615714565b506020820151600182019061112a9082615714565b506040820151600282019061113f9082615714565b506060820151805161115b916003840191602090910190614489565b5060808201516004909101805460a084015160c085015160e08601516101008701516101208801516101409098015163ffffffff908116600160c01b0263ffffffff60c01b19998216600160a01b0263ffffffff60a01b19938316600160801b029390931667ffffffffffffffff60801b19948316600160601b0263ffffffff60601b19968416600160401b029690961667ffffffffffffffff60401b199784166401000000000267ffffffffffffffff1990991693909a169290921796909617949094169690961791909117161792909217929092161790556040517f510bfd2054011dabbaa045ac4dd0e4240d49b56398ef864dcfa95abec34b8e49906112659084906151a0565b60405180910390a1610d46600161015f55565b6001600160a01b03811633146112e85760405162461bcd60e51b815260206004820152602f60248201527f416363657373436f6e74726f6c3a2063616e206f6e6c792072656e6f756e636560448201526e103937b632b9903337b91039b2b63360891b6064820152608401610ca5565b6112f2828261327a565b5050565b6001600160a01b037f000000000000000000000000000000000000000000000000000000000000000016300361133e5760405162461bcd60e51b8152600401610ca590615845565b7f00000000000000000000000000000000000000000000000000000000000000006001600160a01b0316611387600080516020615ccf833981519152546001600160a01b031690565b6001600160a01b0316146113ad5760405162461bcd60e51b8152600401610ca590615891565b6113b68161329c565b604080516000808252602082019092526113d2918391906132a7565b50565b60006113e081612f2e565b61019a54600160a01b900460ff166114315760405162461bcd60e51b815260206004820152601460248201527314185d5cd8589b194e881b9bdd081c185d5cd95960621b6044820152606401610ca5565b61019a805460ff60a01b191690557f5db9ee0a495bf2e6ff9c91a7834c1ba4fdd244a5e8aa4e537bd38aeae4b073aa335b6040516001600160a01b03909116815260200160405180910390a150565b610d4683838360405180602001604052806000815250612806565b6114a3613217565b61019a54600160a01b900460ff16156114ce5760405162461bcd60e51b8152600401610ca5906158dd565b6114e3336114dd600080612335565b83611480565b6113d2600161015f55565b60006114f981612f2e565b610198838154811061150d5761150d61521b565b600091825260208083206001600160a01b03861684526101969091526040909220600590910290910190806115428382615907565b5060018181019061155590840182615907565b5060028181019061156890840182615907565b506003828101805461157d92840191906144df565b506004918201805491909201805463ffffffff19811663ffffffff938416908117835584546401000000009081900485160267ffffffffffffffff1990921617178082558354600160401b908190048416026bffffffff0000000000000000198216811783558454600160601b9081900485160263ffffffff60601b1990911667ffffffffffffffff60401b1990921691909117178082558354600160801b9081900484160263ffffffff60801b198216811783558454600160a01b9081900485160263ffffffff60a01b1990911667ffffffffffffffff60801b1990921691909117178082559254600160c01b9081900490921690910263ffffffff60c01b19909216919091179055505050565b6001600160a01b037f00000000000000000000000000000000000000000000000000000000000000001630036116d45760405162461bcd60e51b8152600401610ca590615845565b7f00000000000000000000000000000000000000000000000000000000000000006001600160a01b031661171d600080516020615ccf833981519152546001600160a01b031690565b6001600160a01b0316146117435760405162461bcd60e51b8152600401610ca590615891565b61174c8261329c565b6112f2828260016132a7565b6000306001600160a01b037f000000000000000000000000000000000000000000000000000000000000000016146117f85760405162461bcd60e51b815260206004820152603860248201527f555550535570677261646561626c653a206d757374206e6f742062652063616c60448201527f6c6564207468726f7567682064656c656761746563616c6c00000000000000006064820152608401610ca5565b50600080516020615ccf83398151915290565b600054610100900460ff161580801561182b5750600054600160ff909116105b806118455750303b158015611845575060005460ff166001145b6118a85760405162461bcd60e51b815260206004820152602e60248201527f496e697469616c697a61626c653a20636f6e747261637420697320616c72656160448201526d191e481a5b9a5d1a585b1a5e995960921b6064820152608401610ca5565b6000805460ff1916600117905580156118cb576000805461ff0019166101001790555b6119176040518060400160405280600f81526020016e50726f6d7074204d6f6e737465727360881b8152506040518060400160405280600381526020016226a7a760e91b815250613412565b61191f613443565b611927613443565b61192f61346c565b61193a6000336131f5565b6101946119478682615714565b5061019180546001600160a01b038087166001600160a01b03199283161790925561019385905561019280549285169290911691909117905580156119c6576000805461ff0019169055604051600181527f7f26b83ff96e1f2b6a682f133852f6798a09c465da95921460cefb38474024989060200160405180910390a15b5050505050565b60006119d881612f2e565b6001600160a01b038416600090815261019760205260409020805483919085908110611a0657611a0661521b565b60009182526020909120015550505050565b6000818152606760205260408120546001600160a01b031680610b435760405162461bcd60e51b8152602060048201526018602482015277115490cdcc8c4e881a5b9d985b1a59081d1bdad95b88125160421b6044820152606401610ca5565b6000611a8381612f2e565b5061019d80546001600160a01b0319166001600160a01b0392909216919091179055565b61019a54600160a01b900460ff1615611ad25760405162461bcd60e51b8152600401610ca5906158dd565b61019354610191546040516370a0823160e01b81523360048201526001600160a01b03909116906370a0823190602401602060405180830381865afa158015611b1f573d6000803e3d6000fd5b505050506040513d601f19601f82011682018060405250810190611b4391906159d9565b1015611ba45760405162461bcd60e51b815260206004820152602a60248201527f50726f6d70744d6f6e73746572733a20696e73756666696369656e742045524360448201526932302062616c616e636560b01b6064820152608401610ca5565b6001600160a01b0381166000908152610196602052604080822081516101608101909252805482908290611bd7906151e1565b80601f0160208091040260200160405190810160405280929190818152602001828054611c03906151e1565b8015611c505780601f10611c2557610100808354040283529160200191611c50565b820191906000526020600020905b815481529060010190602001808311611c3357829003601f168201915b50505050508152602001600182018054611c69906151e1565b80601f0160208091040260200160405190810160405280929190818152602001828054611c95906151e1565b8015611ce25780601f10611cb757610100808354040283529160200191611ce2565b820191906000526020600020905b815481529060010190602001808311611cc557829003601f168201915b50505050508152602001600282018054611cfb906151e1565b80601f0160208091040260200160405190810160405280929190818152602001828054611d27906151e1565b8015611d745780601f10611d4957610100808354040283529160200191611d74565b820191906000526020600020905b815481529060010190602001808311611d5757829003601f168201915b5050505050815260200160038201805480602002602001604051908101604052809291908181526020016000905b82821015611e4e578382906000526020600020018054611dc1906151e1565b80601f0160208091040260200160405190810160405280929190818152602001828054611ded906151e1565b8015611e3a5780601f10611e0f57610100808354040283529160200191611e3a565b820191906000526020600020905b815481529060010190602001808311611e1d57829003601f168201915b505050505081526020019060010190611da2565b505050908252506004919091015463ffffffff8082166020840152640100000000820481166040840152600160401b820481166060840152600160601b82048116608080850191909152600160801b8304821660a0850152600160a01b8304821660c0850152600160c01b909204811660e09093019290925282015191925016600003611f2e5760405162461bcd60e51b815260206004820152602860248201527f50726f6d70744d6f6e73746572733a206d6f6e73746572206973206e6f742067604482015267195b995c985d195960c21b6064820152608401610ca5565b6101985460018101611f905760405162461bcd60e51b815260206004820152602560248201527f50726f6d70744d6f6e73746572733a20746f6b656e20494420697320746f6f206044820152646c6172676560d81b6064820152608401610ca5565b6101988054600181018255600091909152825183916005027f3f539f465397ab387efa93a617e37005205c037386b5b474fcfac82f47f77f0d01908190611fd79082615714565b5060208201516001820190611fec9082615714565b50604082015160028201906120019082615714565b506060820151805161201d916003840191602090910190614489565b5060808201516004909101805460a084015160c085015160e08601516101008701516101208801516101409098015163ffffffff908116600160c01b0263ffffffff60c01b19998216600160a01b0263ffffffff60a01b19938316600160801b029390931667ffffffffffffffff60801b19948316600160601b0263ffffffff60601b19968416600160401b029690961667ffffffffffffffff60401b199784166401000000000267ffffffffffffffff199099169a84169a909a179790971795909516979097179290921716929092179190911793909316929092179091556001600160a01b0380851660008181526101996020908152604080832087905586835261019c825280832080546001600160a01b0319168517905592825261019b905220805460ff1916600117905561019254610193546101915461216b9490841693339316919061349b16565b61217533826134f5565b80336001600160a01b03167fc6c4718f17c6ea8362f0264119a62a3048495821d7fe897562ac287bb6818112846040516121af91906151a0565b60405180910390a3505050565b60006001600160a01b0382166122265760405162461bcd60e51b815260206004820152602960248201527f4552433732313a2061646472657373207a65726f206973206e6f7420612076616044820152683634b21037bbb732b960b91b6064820152608401610ca5565b506001600160a01b031660009081526068602052604090205490565b6000818152606760205260409020546001600160a01b0316151580612268575060001981145b6113d25760405162461bcd60e51b815260206004820152602660248201527f50726f6d70744d6f6e73746572733a206d6f6e7374657220646f6573206e6f7460448201526508195e1a5cdd60d21b6064820152608401610ca5565b60006122ce81612f2e565b61019a54600160a01b900460ff16156122f95760405162461bcd60e51b8152600401610ca5906158dd565b61019a805460ff60a01b1916600160a01b1790557f62e78cea01bee320cd4e420270b5ea74000d11b0c9f74754ebdbfc544b05a2586114623390565b600082815260c96020526040812061234d908361350f565b9392505050565b60009182526097602090815260408084206001600160a01b0393909316845291905290205460ff1690565b606060668054610b87906151e1565b600061239981612f2e565b50600091825261019c602052604090912080546001600160a01b0319166001600160a01b03909216919091179055565b6112f233838361351b565b805161019854606091908111156124415760405162461bcd60e51b815260206004820152602b60248201527f50726f6d70744d6f6e73746572733a20746f6b656e4964734c656e677468206960448201526a7320746f6f206c6172676560a81b6064820152608401610ca5565b806001600160401b038111156124595761245961473a565b60405190808252806020026020018201604052801561249257816020015b61247f614527565b8152602001906001900390816124775790505b50915060005b81811015610f87576101988482815181106124b5576124b561521b565b6020026020010151815481106124cd576124cd61521b565b9060005260206000209060050201604051806101600160405290816000820180546124f7906151e1565b80601f0160208091040260200160405190810160405280929190818152602001828054612523906151e1565b80156125705780601f1061254557610100808354040283529160200191612570565b820191906000526020600020905b81548152906001019060200180831161255357829003601f168201915b50505050508152602001600182018054612589906151e1565b80601f01602080910402602001604051908101604052809291908181526020018280546125b5906151e1565b80156126025780601f106125d757610100808354040283529160200191612602565b820191906000526020600020905b8154815290600101906020018083116125e557829003601f168201915b5050505050815260200160028201805461261b906151e1565b80601f0160208091040260200160405190810160405280929190818152602001828054612647906151e1565b80156126945780601f1061266957610100808354040283529160200191612694565b820191906000526020600020905b81548152906001019060200180831161267757829003601f168201915b5050505050815260200160038201805480602002602001604051908101604052809291908181526020016000905b8282101561276e5783829060005260206000200180546126e1906151e1565b80601f016020809104026020016040519081016040528092919081815260200182805461270d906151e1565b801561275a5780601f1061272f5761010080835404028352916020019161275a565b820191906000526020600020905b81548152906001019060200180831161273d57829003601f168201915b5050505050815260200190600101906126c2565b505050908252506004919091015463ffffffff8082166020840152640100000000820481166040840152600160401b820481166060840152600160601b820481166080840152600160801b8204811660a0840152600160a01b8204811660c0840152600160c01b9091041660e09091015283518490839081106127f3576127f361521b565b6020908102919091010152600101612498565b6128103383613005565b61282c5760405162461bcd60e51b8152600401610ca5906157f8565b612838848484846135e1565b50505050565b8051606090806001600160401b0381111561285b5761285b61473a565b604051908082528060200260200182016040528015612884578160200160208202803683370190505b50915060005b81811015610f875761019c60008583815181106128a9576128a961521b565b6020026020010151815260200190815260200160002060009054906101000a90046001600160a01b03168382815181106128e5576128e561521b565b6001600160a01b039092166020928302919091019091015260010161288a565b61290d614527565b6001600160a01b038216600090815261019660205260409081902081516101608101909252805482908290612941906151e1565b80601f016020809104026020016040519081016040528092919081815260200182805461296d906151e1565b80156129ba5780601f1061298f576101008083540402835291602001916129ba565b820191906000526020600020905b81548152906001019060200180831161299d57829003601f168201915b505050505081526020016001820180546129d3906151e1565b80601f01602080910402602001604051908101604052809291908181526020018280546129ff906151e1565b8015612a4c5780601f10612a2157610100808354040283529160200191612a4c565b820191906000526020600020905b815481529060010190602001808311612a2f57829003601f168201915b50505050508152602001600282018054612a65906151e1565b80601f0160208091040260200160405190810160405280929190818152602001828054612a91906151e1565b8015612ade5780601f10612ab357610100808354040283529160200191612ade565b820191906000526020600020905b815481529060010190602001808311612ac157829003601f168201915b5050505050815260200160038201805480602002602001604051908101604052809291908181526020016000905b82821015612bb8578382906000526020600020018054612b2b906151e1565b80601f0160208091040260200160405190810160405280929190818152602001828054612b57906151e1565b8015612ba45780601f10612b7957610100808354040283529160200191612ba4565b820191906000526020600020905b815481529060010190602001808311612b8757829003601f168201915b505050505081526020019060010190612b0c565b505050908252506004919091015463ffffffff8082166020840152640100000000820481166040840152600160401b820481166060840152600160601b820481166080840152600160801b8204811660a0840152600160a01b8204811660c0840152600160c01b9091041660e09091015292915050565b6060612c3a82612f38565b61019a5461019880546001600160a01b039092169163b688876c91859182908110612c6757612c6761521b565b90600052602060002090600502016040518363ffffffff1660e01b8152600401612c929291906159f2565b600060405180830381865afa158015612caf573d6000803e3d6000fd5b505050506040513d6000823e601f3d908101601f19168201604052610b439190810190615a0b565b600081815260c960205260408120610b4390613614565b600082815260976020526040902060010154612d0981612f2e565b610d46838361327a565b6000612d1e81612f2e565b506001600160a01b039092166000908152610195602090815260408083209383529290522055565b6000612d5181612f2e565b61019280546001600160a01b038481166001600160a01b031983161790925516612d783390565b604080516001600160a01b038481168252868116602083015292909216917fc791f304f706b4012579cd651a8a0d930c30d117f42ee74327000e3fc75bfbbc9101611075565b61019a546060906001600160a01b031663b2794520612ddb610b78565b6101946040518363ffffffff1660e01b8152600401612dfb929190615a3f565b600060405180830381865afa158015612e18573d6000803e3d6000fd5b505050506040513d6000823e601f3d908101601f19168201604052612e409190810190615a0b565b905090565b6000612e5081612f2e565b61019180546001600160a01b038481166001600160a01b031983161790925516612e773390565b604080516001600160a01b038481168252868116602083015292909216917f5ebe54482b2a8120482902e3bfe9ca1a913e9987bcb1f18c974dae585132a9549101611075565b6000612ec881612f2e565b610193805490839055604080518281526020810185905233917f55cc83342b4c144a74960fdf0dfe1a7af4cbb77aaccb471b088d5fe0bdad1d4c9101611075565b60006001600160e01b03198216635a05180f60e01b1480610b435750610b438261361e565b6113d28133613643565b6000818152606760205260409020546001600160a01b03166113d25760405162461bcd60e51b8152602060048201526018602482015277115490cdcc8c4e881a5b9d985b1a59081d1bdad95b88125160421b6044820152606401610ca5565b600081815260696020526040902080546001600160a01b0319166001600160a01b0384169081179091558190612fcc82611a18565b6001600160a01b03167f8c5be1e5ebec7d5bd14f71427d1e84f3dd0314c0f7b2291e5b200ac8c7c3b92560405160405180910390a45050565b60008061301183611a18565b9050806001600160a01b0316846001600160a01b0316148061305857506001600160a01b038082166000908152606a602090815260408083209388168352929052205460ff165b8061307c5750836001600160a01b031661307184610c0a565b6001600160a01b0316145b949350505050565b826001600160a01b031661309782611a18565b6001600160a01b0316146130bd5760405162461bcd60e51b8152600401610ca590615a64565b6001600160a01b03821661311f5760405162461bcd60e51b8152602060048201526024808201527f4552433732313a207472616e7366657220746f20746865207a65726f206164646044820152637265737360e01b6064820152608401610ca5565b61312c838383600161369c565b826001600160a01b031661313f82611a18565b6001600160a01b0316146131655760405162461bcd60e51b8152600401610ca590615a64565b600081815260696020908152604080832080546001600160a01b03199081169091556001600160a01b0387811680865260688552838620805460001901905590871680865283862080546001019055868652606790945282852080549092168417909155905184937fddf252ad1be2c89b69c2b068fc378daa952ba7f163c4a11628f55a4df523b3ef91a4505050565b6131ff82826136e5565b600082815260c960205260409020610d46908261376b565b600261015f540361326a5760405162461bcd60e51b815260206004820152601f60248201527f5265656e7472616e637947756172643a207265656e7472616e742063616c6c006044820152606401610ca5565b600261015f55565b600161015f55565b6132848282613780565b600082815260c960205260409020610d4690826137e7565b60006112f281612f2e565b7f4910fdfa16fed3260ed0e7147f7cc6da11a60208b5b9406d12a635614ffd91435460ff16156132da57610d46836137fc565b826001600160a01b03166352d1902d6040518163ffffffff1660e01b8152600401602060405180830381865afa925050508015613334575060408051601f3d908101601f19168201909252613331918101906159d9565b60015b6133975760405162461bcd60e51b815260206004820152602e60248201527f45524331393637557067726164653a206e657720696d706c656d656e7461746960448201526d6f6e206973206e6f74205555505360901b6064820152608401610ca5565b600080516020615ccf83398151915281146134065760405162461bcd60e51b815260206004820152602960248201527f45524331393637557067726164653a20756e737570706f727465642070726f786044820152681a58589b195555525160ba1b6064820152608401610ca5565b50610d46838383613898565b600054610100900460ff166134395760405162461bcd60e51b8152600401610ca590615aa9565b6112f282826138bd565b600054610100900460ff1661346a5760405162461bcd60e51b8152600401610ca590615aa9565b565b600054610100900460ff166134935760405162461bcd60e51b8152600401610ca590615aa9565b61346a6138fd565b604080516001600160a01b0385811660248301528416604482015260648082018490528251808303909101815260849091019091526020810180516001600160e01b03166323b872dd60e01b179052612838908590613924565b6112f28282604051806020016040528060008152506139f6565b600061234d8383613a29565b816001600160a01b0316836001600160a01b03160361357c5760405162461bcd60e51b815260206004820152601960248201527f4552433732313a20617070726f766520746f2063616c6c6572000000000000006044820152606401610ca5565b6001600160a01b038381166000818152606a6020908152604080832094871680845294825291829020805460ff191686151590811790915591519182527f17307eab39ab6107e8899845ad3d59bd9653f200f220920489ca2b5937696c3191016121af565b6135ec848484613084565b6135f884848484613a53565b6128385760405162461bcd60e51b8152600401610ca590615af4565b6000610b43825490565b60006001600160e01b03198216637965db0b60e01b1480610b435750610b4382613b54565b61364d8282612354565b6112f25761365a81613ba4565b613665836020613bb6565b604051602001613676929190615b46565b60408051601f198184030181529082905262461bcd60e51b8252610ca59160040161469e565b6001600160a01b0384166136b9576136b48383613d51565b612838565b6001600160a01b0383166136d1576136b48483613d96565b6136db8483613d96565b6136b48383613d51565b6136ef8282612354565b6112f25760008281526097602090815260408083206001600160a01b03851684529091529020805460ff191660011790556137273390565b6001600160a01b0316816001600160a01b0316837f2f8788117e7eff1d82e926ec794901d17c78024a50270940304540a733656f0d60405160405180910390a45050565b600061234d836001600160a01b038416613ed4565b61378a8282612354565b156112f25760008281526097602090815260408083206001600160a01b0385168085529252808320805460ff1916905551339285917ff6391f5c32d9c69d2a47ea670b442974b53935d1edc7fd64eb21e047a839171b9190a45050565b600061234d836001600160a01b038416613f23565b6001600160a01b0381163b6138695760405162461bcd60e51b815260206004820152602d60248201527f455243313936373a206e657720696d706c656d656e746174696f6e206973206e60448201526c1bdd08184818dbdb9d1c9858dd609a1b6064820152608401610ca5565b600080516020615ccf83398151915280546001600160a01b0319166001600160a01b0392909216919091179055565b6138a183614016565b6000825111806138ae5750805b15610d46576128388383614056565b600054610100900460ff166138e45760405162461bcd60e51b8152600401610ca590615aa9565b60656138f08382615714565b506066610d468282615714565b600054610100900460ff166132725760405162461bcd60e51b8152600401610ca590615aa9565b6000613979826040518060400160405280602081526020017f5361666545524332303a206c6f772d6c6576656c2063616c6c206661696c6564815250856001600160a01b031661414a9092919063ffffffff16565b805190915015610d4657808060200190518101906139979190615bbb565b610d465760405162461bcd60e51b815260206004820152602a60248201527f5361666545524332303a204552433230206f7065726174696f6e20646964206e6044820152691bdd081cdd58d8d9595960b21b6064820152608401610ca5565b613a008383614159565b613a0d6000848484613a53565b610d465760405162461bcd60e51b8152600401610ca590615af4565b6000826000018281548110613a4057613a4061521b565b9060005260206000200154905092915050565b60006001600160a01b0384163b15613b4957604051630a85bd0160e11b81526001600160a01b0385169063150b7a0290613a97903390899088908890600401615bd8565b6020604051808303816000875af1925050508015613ad2575060408051601f3d908101601f19168201909252613acf91810190615c15565b60015b613b2f573d808015613b00576040519150601f19603f3d011682016040523d82523d6000602084013e613b05565b606091505b508051600003613b275760405162461bcd60e51b8152600401610ca590615af4565b805181602001fd5b6001600160e01b031916630a85bd0160e11b14905061307c565b506001949350505050565b60006001600160e01b031982166380ac58cd60e01b1480613b8557506001600160e01b03198216635b5e139f60e01b145b80610b4357506301ffc9a760e01b6001600160e01b0319831614610b43565b6060610b436001600160a01b03831660145b60606000613bc5836002615c48565b613bd0906002615c5f565b6001600160401b03811115613be757613be761473a565b6040519080825280601f01601f191660200182016040528015613c11576020820181803683370190505b509050600360fc1b81600081518110613c2c57613c2c61521b565b60200101906001600160f81b031916908160001a905350600f60fb1b81600181518110613c5b57613c5b61521b565b60200101906001600160f81b031916908160001a9053506000613c7f846002615c48565b613c8a906001615c5f565b90505b6001811115613d02576f181899199a1a9b1b9c1cb0b131b232b360811b85600f1660108110613cbe57613cbe61521b565b1a60f81b828281518110613cd457613cd461521b565b60200101906001600160f81b031916908160001a90535060049490941c93613cfb81615c72565b9050613c8d565b50831561234d5760405162461bcd60e51b815260206004820181905260248201527f537472696e67733a20686578206c656e67746820696e73756666696369656e746044820152606401610ca5565b6001600160a01b039091166000908152610197602081815260408084208054610195845282862087875284529185208290559282526001810183559183529091200155565b6001600160a01b0382166000908152610197602052604081208054613dbd90600190615c89565b81548110613dcd57613dcd61521b565b60009182526020808320909101546001600160a01b038616835261019582526040808420868552909252912054909150828214613e3f576001600160a01b038416600090815261019760205260409020805483919083908110613e3257613e3261521b565b6000918252602090912001555b6001600160a01b038416600090815261019760205260409020805480613e6757613e67615c9c565b6000828152602080822083016000199081018390559092019092556001600160a01b038616825261019581526040808320868452909152812055818314612838576001600160a01b0393909316600090815261019560209081526040808320938352929052209190915550565b6000818152600183016020526040812054613f1b57508154600181810184556000848152602080822090930184905584548482528286019093526040902091909155610b43565b506000610b43565b6000818152600183016020526040812054801561400c576000613f47600183615c89565b8554909150600090613f5b90600190615c89565b9050818114613fc0576000866000018281548110613f7b57613f7b61521b565b9060005260206000200154905080876000018481548110613f9e57613f9e61521b565b6000918252602080832090910192909255918252600188019052604090208390555b8554869080613fd157613fd1615c9c565b600190038181906000526020600020016000905590558560010160008681526020019081526020016000206000905560019350505050610b43565b6000915050610b43565b61401f816137fc565b6040516001600160a01b038216907fbc7cd75a20ee27fd9adebab32041f755214dbc6bffa90cc0225b39da2e5c2d3b90600090a250565b60606001600160a01b0383163b6140be5760405162461bcd60e51b815260206004820152602660248201527f416464726573733a2064656c65676174652063616c6c20746f206e6f6e2d636f6044820152651b9d1c9858dd60d21b6064820152608401610ca5565b600080846001600160a01b0316846040516140d99190615cb2565b600060405180830381855af49150503d8060008114614114576040519150601f19603f3d011682016040523d82523d6000602084013e614119565b606091505b50915091506141418282604051806060016040528060278152602001615cef602791396142f2565b95945050505050565b606061307c848460008561430b565b6001600160a01b0382166141af5760405162461bcd60e51b815260206004820181905260248201527f4552433732313a206d696e7420746f20746865207a65726f20616464726573736044820152606401610ca5565b6000818152606760205260409020546001600160a01b0316156142145760405162461bcd60e51b815260206004820152601c60248201527f4552433732313a20746f6b656e20616c7265616479206d696e746564000000006044820152606401610ca5565b61422260008383600161369c565b6000818152606760205260409020546001600160a01b0316156142875760405162461bcd60e51b815260206004820152601c60248201527f4552433732313a20746f6b656e20616c7265616479206d696e746564000000006044820152606401610ca5565b6001600160a01b038216600081815260686020908152604080832080546001019055848352606790915280822080546001600160a01b0319168417905551839291907fddf252ad1be2c89b69c2b068fc378daa952ba7f163c4a11628f55a4df523b3ef908290a45050565b6060831561430157508161234d565b61234d83836143e6565b60608247101561436c5760405162461bcd60e51b815260206004820152602660248201527f416464726573733a20696e73756666696369656e742062616c616e636520666f6044820152651c8818d85b1b60d21b6064820152608401610ca5565b600080866001600160a01b031685876040516143889190615cb2565b60006040518083038185875af1925050503d80600081146143c5576040519150601f19603f3d011682016040523d82523d6000602084013e6143ca565b606091505b50915091506143db87838387614410565b979650505050505050565b8151156143f65781518083602001fd5b8060405162461bcd60e51b8152600401610ca5919061469e565b6060831561447f578251600003614478576001600160a01b0385163b6144785760405162461bcd60e51b815260206004820152601d60248201527f416464726573733a2063616c6c20746f206e6f6e2d636f6e74726163740000006044820152606401610ca5565b508161307c565b61307c83836143e6565b8280548282559060005260206000209081019282156144cf579160200282015b828111156144cf57825182906144bf9082615714565b50916020019190600101906144a9565b506144db929150614582565b5090565b8280548282559060005260206000209081019282156144cf5760005260206000209182015b828111156144cf57816145178482615907565b5091600101919060010190614504565b60408051610160810182526060808252602082018190529181018290528181019190915260006080820181905260a0820181905260c0820181905260e082018190526101008201819052610120820181905261014082015290565b808211156144db576000614596828261459f565b50600101614582565b5080546145ab906151e1565b6000825580601f106145bb575050565b601f0160209004906000526020600020908101906113d291905b808211156144db57600081556001016145d5565b6001600160e01b0319811681146113d257600080fd5b60006020828403121561461157600080fd5b813561234d816145e9565b6001600160a01b03811681146113d257600080fd5b60006020828403121561464357600080fd5b813561234d8161461c565b60005b83811015614669578181015183820152602001614651565b50506000910152565b6000815180845261468a81602086016020860161464e565b601f01601f19169290920160200192915050565b60208152600061234d6020830184614672565b6000602082840312156146c357600080fd5b5035919050565b600080604083850312156146dd57600080fd5b82356146e88161461c565b946020939093013593505050565b6020808252825182820181905260009190848201906040850190845b8181101561472e57835183529284019291840191600101614712565b50909695505050505050565b634e487b7160e01b600052604160045260246000fd5b60405161016081016001600160401b03811182821017156147735761477361473a565b60405290565b6040516101a081016001600160401b03811182821017156147735761477361473a565b604051601f8201601f191681016001600160401b03811182821017156147c4576147c461473a565b604052919050565b60006001600160401b038211156147e5576147e561473a565b5060051b60200190565b6000602080838503121561480257600080fd5b82356001600160401b0381111561481857600080fd5b8301601f8101851361482957600080fd5b803561483c614837826147cc565b61479c565b81815260059190911b8201830190838101908783111561485b57600080fd5b928401925b828410156143db5783356148738161461c565b82529284019290840190614860565b600081518084526020808501808196508360051b8101915082860160005b858110156148ca5782840389526148b8848351614672565b988501989350908401906001016148a0565b5091979650505050505050565b600081518084526020808501945080840160005b8381101561490d57815163ffffffff16875295820195908201906001016148eb565b509495945050505050565b60006020808301818452808551808352604092508286019150828160051b87010184880160005b83811015614a6f57603f1989840301855281516101a0815181865261496682870182614672565b915050888201518582038a87015261497e8282614672565b91505087820151858203898701526149968282614672565b915050606080830151868303828801526149b08382614882565b925050506080808301516149cb8288018263ffffffff169052565b505060a08281015163ffffffff9081169187019190915260c08084015182169087015260e080840151821690870152610100808401518216908701526101208084015182169087015261014080840151909116908601526101608083015186830382880152614a3a83826148d7565b92505050610180808301519250614a5b818701846001600160a01b03169052565b50958801959350509086019060010161493f565b509098975050505050505050565b60006001600160401b03821115614a9657614a9661473a565b50601f01601f191660200190565b600082601f830112614ab557600080fd5b8135614ac361483782614a7d565b818152846020838601011115614ad857600080fd5b816020850160208301376000918101602001919091529392505050565b600060208284031215614b0757600080fd5b81356001600160401b03811115614b1d57600080fd5b61307c84828501614aa4565b600080600060608486031215614b3e57600080fd5b8335614b498161461c565b92506020840135614b598161461c565b929592945050506040919091013590565b60008060408385031215614b7d57600080fd5b823591506020830135614b8f8161461c565b809150509250929050565b600082601f830112614bab57600080fd5b81356020614bbb614837836147cc565b82815260059290921b84018101918181019086841115614bda57600080fd5b8286015b84811015614c195780356001600160401b03811115614bfd5760008081fd5b614c0b8986838b0101614aa4565b845250918301918301614bde565b509695505050505050565b63ffffffff811681146113d257600080fd5b8035614c4181614c24565b919050565b60008060408385031215614c5957600080fd5b8235614c648161461c565b915060208301356001600160401b0380821115614c8057600080fd5b908401906101608287031215614c9557600080fd5b614c9d614750565b823582811115614cac57600080fd5b614cb888828601614aa4565b825250602083013582811115614ccd57600080fd5b614cd988828601614aa4565b602083015250604083013582811115614cf157600080fd5b614cfd88828601614aa4565b604083015250606083013582811115614d1557600080fd5b614d2188828601614b9a565b606083015250614d3360808401614c36565b6080820152614d4460a08401614c36565b60a0820152614d5560c08401614c36565b60c0820152614d6660e08401614c36565b60e08201526101009150614d7b828401614c36565b828201526101209150614d8f828401614c36565b828201526101409150614da3828401614c36565b828201528093505050509250929050565b60008060408385031215614dc757600080fd5b8235614dd28161461c565b915060208301356001600160401b03811115614ded57600080fd5b614df985828601614aa4565b9150509250929050565b60008060008060808587031215614e1957600080fd5b84356001600160401b03811115614e2f57600080fd5b614e3b87828801614aa4565b9450506020850135614e4c8161461c565b9250604085013591506060850135614e638161461c565b939692955090935050565b600080600060608486031215614e8357600080fd5b8335614e8e8161461c565b95602085013595506040909401359392505050565b60008060408385031215614eb657600080fd5b50508035926020909101359150565b80151581146113d257600080fd5b60008060408385031215614ee657600080fd5b8235614ef18161461c565b91506020830135614b8f81614ec5565b60006020808385031215614f1457600080fd5b82356001600160401b03811115614f2a57600080fd5b8301601f81018513614f3b57600080fd5b8035614f49614837826147cc565b81815260059190911b82018301908381019087831115614f6857600080fd5b928401925b828410156143db57833582529284019290840190614f6d565b60006101608251818552614f9c82860182614672565b91505060208301518482036020860152614fb68282614672565b91505060408301518482036040860152614fd08282614672565b91505060608301518482036060860152614fea8282614882565b9150506080830151615004608086018263ffffffff169052565b5060a083015161501c60a086018263ffffffff169052565b5060c083015161503460c086018263ffffffff169052565b5060e083015161504c60e086018263ffffffff169052565b506101008381015163ffffffff81168683015250506101208381015163ffffffff81168683015250506101408381015163ffffffff8116868301525b5090949350505050565b6000602080830181845280855180835260408601915060408160051b870101925083870160005b828110156150e757603f198886030184526150d5858351614f86565b945092850192908501906001016150b9565b5092979650505050505050565b6000806000806080858703121561510a57600080fd5b84356151158161461c565b935060208501356151258161461c565b92506040850135915060608501356001600160401b0381111561514757600080fd5b61515387828801614aa4565b91505092959194509250565b6020808252825182820181905260009190848201906040850190845b8181101561472e5783516001600160a01b03168352928401929184019160010161517b565b60208152600061234d6020830184614f86565b600080604083850312156151c657600080fd5b82356151d18161461c565b91506020830135614b8f8161461c565b600181811c908216806151f557607f821691505b60208210810361521557634e487b7160e01b600052602260045260246000fd5b50919050565b634e487b7160e01b600052603260045260246000fd5b6000815461523e816151e1565b80855260206001838116801561525b5760018114615275576152a3565b60ff1985168884015283151560051b8801830195506152a3565b866000528260002060005b8581101561529b5781548a8201860152908301908401615280565b890184019650505b505050505092915050565b600081548084526020808501808196508360051b81019150856000528260002060005b858110156148ca5782840389526152e88483615231565b988501989350600191820191016152d1565b600061016080845261530e81850184615231565b905083810360208501526153258160018501615231565b9050838103604085015261533c8160028501615231565b9050838103606085015261535381600385016152ae565b600484015463ffffffff8082166080880152602082901c811660a0880152604082901c811660c0880152606082901c811660e0880152919250906153a56101008701828460801c1663ffffffff169052565b6153bd6101208701828460a01c1663ffffffff169052565b6150886101408701828460c01c1663ffffffff169052565b6001600160a01b038316815260406020820181905260009061307c908301846152fa565b600082601f83011261540a57600080fd5b815161541861483782614a7d565b81815284602083860101111561542d57600080fd5b61307c82602083016020870161464e565b600082601f83011261544f57600080fd5b8151602061545f614837836147cc565b82815260059290921b8401810191818101908684111561547e57600080fd5b8286015b84811015614c195780516001600160401b038111156154a15760008081fd5b6154af8986838b01016153f9565b845250918301918301615482565b8051614c4181614c24565b600082601f8301126154d957600080fd5b815160206154e9614837836147cc565b82815260059290921b8401810191818101908684111561550857600080fd5b8286015b84811015614c1957805161551f81614c24565b835291830191830161550c565b8051614c418161461c565b60006020828403121561554957600080fd5b81516001600160401b038082111561556057600080fd5b908301906101a0828603121561557557600080fd5b61557d614779565b82518281111561558c57600080fd5b615598878286016153f9565b8252506020830151828111156155ad57600080fd5b6155b9878286016153f9565b6020830152506040830151828111156155d157600080fd5b6155dd878286016153f9565b6040830152506060830151828111156155f557600080fd5b6156018782860161543e565b606083015250615613608084016154bd565b608082015261562460a084016154bd565b60a082015261563560c084016154bd565b60c082015261564660e084016154bd565b60e08201526101006156598185016154bd565b9082015261012061566b8482016154bd565b9082015261014061567d8482016154bd565b90820152610160838101518381111561569557600080fd5b6156a1888287016154c8565b82840152505061018091506156b782840161552c565b91810191909152949350505050565b601f821115610d4657600081815260208120601f850160051c810160208610156156ed5750805b601f850160051c820191505b8181101561570c578281556001016156f9565b505050505050565b81516001600160401b0381111561572d5761572d61473a565b6157418161573b84546151e1565b846156c6565b602080601f831160018114615776576000841561575e5750858301515b600019600386901b1c1916600185901b17855561570c565b600085815260208120601f198616915b828110156157a557888601518255948401946001909101908401615786565b50858210156157c35787850151600019600388901b60f8161c191681555b5050505050600190811b01905550565b6040815260006157e66040830185614672565b82810360208401526141418185614672565b6020808252602d908201527f4552433732313a2063616c6c6572206973206e6f7420746f6b656e206f776e6560408201526c1c881bdc88185c1c1c9bdd9959609a1b606082015260800190565b6020808252602c908201527f46756e6374696f6e206d7573742062652063616c6c6564207468726f7567682060408201526b19195b1959d85d1958d85b1b60a21b606082015260800190565b6020808252602c908201527f46756e6374696f6e206d7573742062652063616c6c6564207468726f7567682060408201526b6163746976652070726f787960a01b606082015260800190565b60208082526010908201526f14185d5cd8589b194e881c185d5cd95960821b604082015260600190565b818103615912575050565b61591c82546151e1565b6001600160401b038111156159335761593361473a565b6159418161573b84546151e1565b6000601f821160018114615975576000831561595d5750848201545b600019600385901b1c1916600184901b1784556119c6565b600085815260209020601f19841690600086815260209020845b838110156159af578286015482556001958601959091019060200161598f565b50858310156157c35793015460001960f8600387901b161c19169092555050600190811b01905550565b6000602082840312156159eb57600080fd5b5051919050565b82815260406020820152600061307c60408301846152fa565b600060208284031215615a1d57600080fd5b81516001600160401b03811115615a3357600080fd5b61307c848285016153f9565b604081526000615a526040830185614672565b82810360208401526141418185615231565b60208082526025908201527f4552433732313a207472616e736665722066726f6d20696e636f72726563742060408201526437bbb732b960d91b606082015260800190565b6020808252602b908201527f496e697469616c697a61626c653a20636f6e7472616374206973206e6f74206960408201526a6e697469616c697a696e6760a81b606082015260800190565b60208082526032908201527f4552433732313a207472616e7366657220746f206e6f6e20455243373231526560408201527131b2b4bb32b91034b6b83632b6b2b73a32b960711b606082015260800190565b7f416363657373436f6e74726f6c3a206163636f756e7420000000000000000000815260008351615b7e81601785016020880161464e565b7001034b99036b4b9b9b4b733903937b6329607d1b6017918401918201528351615baf81602884016020880161464e565b01602801949350505050565b600060208284031215615bcd57600080fd5b815161234d81614ec5565b6001600160a01b0385811682528416602082015260408101839052608060608201819052600090615c0b90830184614672565b9695505050505050565b600060208284031215615c2757600080fd5b815161234d816145e9565b634e487b7160e01b600052601160045260246000fd5b8082028115828204841417610b4357610b43615c32565b80820180821115610b4357610b43615c32565b600081615c8157615c81615c32565b506000190190565b81810381811115610b4357610b43615c32565b634e487b7160e01b600052603160045260246000fd5b60008251615cc481846020870161464e565b919091019291505056fe360894a13ba1a3210667c828492db98dca3e2076cc3735a920a3ca505d382bbc416464726573733a206c6f772d6c6576656c2064656c65676174652063616c6c206661696c6564a26469706673582212202410cc3afb246f3f125ebcd3b35383a1acdb2b81c3146c15fbc2234cc275a39664736f6c63430008120033",
  "linkReferences": {},
  "deployedLinkReferences": {}
}