{
  "_format": "hh-sol-artifact-1",
  "contractName": "PromptMonsters",
  "sourceName": "contracts/prompt-monsters/PromptMonsters.sol",
  "abi": [
    {
      "inputs": [],
      "stateMutability": "nonpayable",
      "type": "constructor"
    },
    {
      "anonymous": false,
      "inputs": [
        {
          "indexed": false,
          "internalType": "address",
          "name": "previousAdmin",
          "type": "address"
        },
        {
          "indexed": false,
          "internalType": "address",
          "name": "newAdmin",
          "type": "address"
        }
      ],
      "name": "AdminChanged",
      "type": "event"
    },
    {
      "anonymous": false,
      "inputs": [
        {
          "indexed": true,
          "internalType": "address",
          "name": "owner",
          "type": "address"
        },
        {
          "indexed": true,
          "internalType": "address",
          "name": "approved",
          "type": "address"
        },
        {
          "indexed": true,
          "internalType": "uint256",
          "name": "tokenId",
          "type": "uint256"
        }
      ],
      "name": "Approval",
      "type": "event"
    },
    {
      "anonymous": false,
      "inputs": [
        {
          "indexed": true,
          "internalType": "address",
          "name": "owner",
          "type": "address"
        },
        {
          "indexed": true,
          "internalType": "address",
          "name": "operator",
          "type": "address"
        },
        {
          "indexed": false,
          "internalType": "bool",
          "name": "approved",
          "type": "bool"
        }
      ],
      "name": "ApprovalForAll",
      "type": "event"
    },
    {
      "anonymous": false,
      "inputs": [
        {
          "indexed": true,
          "internalType": "address",
          "name": "beacon",
          "type": "address"
        }
      ],
      "name": "BeaconUpgraded",
      "type": "event"
    },
    {
      "anonymous": false,
      "inputs": [
        {
          "components": [
            {
              "internalType": "string",
              "name": "feature",
              "type": "string"
            },
            {
              "internalType": "string",
              "name": "name",
              "type": "string"
            },
            {
              "internalType": "string",
              "name": "flavor",
              "type": "string"
            },
            {
              "internalType": "string[]",
              "name": "skills",
              "type": "string[]"
            },
            {
              "internalType": "uint32",
              "name": "lv",
              "type": "uint32"
            },
            {
              "internalType": "uint32",
              "name": "hp",
              "type": "uint32"
            },
            {
              "internalType": "uint32",
              "name": "atk",
              "type": "uint32"
            },
            {
              "internalType": "uint32",
              "name": "def",
              "type": "uint32"
            },
            {
              "internalType": "uint32",
              "name": "inte",
              "type": "uint32"
            },
            {
              "internalType": "uint32",
              "name": "mgr",
              "type": "uint32"
            },
            {
              "internalType": "uint32",
              "name": "agl",
              "type": "uint32"
            }
          ],
          "indexed": false,
          "internalType": "struct IPromptMonsters.Monster",
          "name": "monster",
          "type": "tuple"
        }
      ],
      "name": "GenerateMonster",
      "type": "event"
    },
    {
      "anonymous": false,
      "inputs": [
        {
          "indexed": false,
          "internalType": "uint8",
          "name": "version",
          "type": "uint8"
        }
      ],
      "name": "Initialized",
      "type": "event"
    },
    {
      "anonymous": false,
      "inputs": [
        {
          "indexed": true,
          "internalType": "address",
          "name": "tokenOwner",
          "type": "address"
        },
        {
          "indexed": true,
          "internalType": "uint256",
          "name": "newTokenId",
          "type": "uint256"
        },
        {
          "components": [
            {
              "internalType": "string",
              "name": "feature",
              "type": "string"
            },
            {
              "internalType": "string",
              "name": "name",
              "type": "string"
            },
            {
              "internalType": "string",
              "name": "flavor",
              "type": "string"
            },
            {
              "internalType": "string[]",
              "name": "skills",
              "type": "string[]"
            },
            {
              "internalType": "uint32",
              "name": "lv",
              "type": "uint32"
            },
            {
              "internalType": "uint32",
              "name": "hp",
              "type": "uint32"
            },
            {
              "internalType": "uint32",
              "name": "atk",
              "type": "uint32"
            },
            {
              "internalType": "uint32",
              "name": "def",
              "type": "uint32"
            },
            {
              "internalType": "uint32",
              "name": "inte",
              "type": "uint32"
            },
            {
              "internalType": "uint32",
              "name": "mgr",
              "type": "uint32"
            },
            {
              "internalType": "uint32",
              "name": "agl",
              "type": "uint32"
            }
          ],
          "indexed": false,
          "internalType": "struct IPromptMonsters.Monster",
          "name": "monster",
          "type": "tuple"
        }
      ],
      "name": "MintedMonster",
      "type": "event"
    },
    {
      "anonymous": false,
      "inputs": [
        {
          "indexed": true,
          "internalType": "bytes32",
          "name": "role",
          "type": "bytes32"
        },
        {
          "indexed": true,
          "internalType": "bytes32",
          "name": "previousAdminRole",
          "type": "bytes32"
        },
        {
          "indexed": true,
          "internalType": "bytes32",
          "name": "newAdminRole",
          "type": "bytes32"
        }
      ],
      "name": "RoleAdminChanged",
      "type": "event"
    },
    {
      "anonymous": false,
      "inputs": [
        {
          "indexed": true,
          "internalType": "bytes32",
          "name": "role",
          "type": "bytes32"
        },
        {
          "indexed": true,
          "internalType": "address",
          "name": "account",
          "type": "address"
        },
        {
          "indexed": true,
          "internalType": "address",
          "name": "sender",
          "type": "address"
        }
      ],
      "name": "RoleGranted",
      "type": "event"
    },
    {
      "anonymous": false,
      "inputs": [
        {
          "indexed": true,
          "internalType": "bytes32",
          "name": "role",
          "type": "bytes32"
        },
        {
          "indexed": true,
          "internalType": "address",
          "name": "account",
          "type": "address"
        },
        {
          "indexed": true,
          "internalType": "address",
          "name": "sender",
          "type": "address"
        }
      ],
      "name": "RoleRevoked",
      "type": "event"
    },
    {
      "anonymous": false,
      "inputs": [
        {
          "indexed": true,
          "internalType": "address",
          "name": "publisher",
          "type": "address"
        },
        {
          "indexed": false,
          "internalType": "address",
          "name": "oldValue",
          "type": "address"
        },
        {
          "indexed": false,
          "internalType": "address",
          "name": "newValue",
          "type": "address"
        }
      ],
      "name": "SetErc20",
      "type": "event"
    },
    {
      "anonymous": false,
      "inputs": [
        {
          "indexed": true,
          "internalType": "address",
          "name": "publisher",
          "type": "address"
        },
        {
          "indexed": false,
          "internalType": "string",
          "name": "oldValue",
          "type": "string"
        },
        {
          "indexed": false,
          "internalType": "string",
          "name": "newValue",
          "type": "string"
        }
      ],
      "name": "SetExternalLink",
      "type": "event"
    },
    {
      "anonymous": false,
      "inputs": [
        {
          "indexed": true,
          "internalType": "address",
          "name": "publisher",
          "type": "address"
        },
        {
          "indexed": false,
          "internalType": "uint256",
          "name": "oldValue",
          "type": "uint256"
        },
        {
          "indexed": false,
          "internalType": "uint256",
          "name": "newValue",
          "type": "uint256"
        }
      ],
      "name": "SetMintPrice",
      "type": "event"
    },
    {
      "anonymous": false,
      "inputs": [
        {
          "indexed": true,
          "internalType": "address",
          "name": "publisher",
          "type": "address"
        },
        {
          "indexed": false,
          "internalType": "uint256",
          "name": "oldValue",
          "type": "uint256"
        },
        {
          "indexed": false,
          "internalType": "uint256",
          "name": "newValue",
          "type": "uint256"
        }
      ],
      "name": "SetOwnerToTokenId",
      "type": "event"
    },
    {
      "anonymous": false,
      "inputs": [
        {
          "indexed": true,
          "internalType": "address",
          "name": "publisher",
          "type": "address"
        },
        {
          "indexed": false,
          "internalType": "uint256",
          "name": "oldValue",
          "type": "uint256"
        },
        {
          "indexed": false,
          "internalType": "uint256",
          "name": "newValue",
          "type": "uint256"
        }
      ],
      "name": "SetOwnerToTokenIdIndex",
      "type": "event"
    },
    {
      "anonymous": false,
      "inputs": [
        {
          "indexed": true,
          "internalType": "address",
          "name": "publisher",
          "type": "address"
        },
        {
          "indexed": false,
          "internalType": "address",
          "name": "oldValue",
          "type": "address"
        },
        {
          "indexed": false,
          "internalType": "address",
          "name": "newValue",
          "type": "address"
        }
      ],
      "name": "SetPromptMonstersWallet",
      "type": "event"
    },
    {
      "anonymous": false,
      "inputs": [
        {
          "indexed": true,
          "internalType": "address",
          "name": "from",
          "type": "address"
        },
        {
          "indexed": true,
          "internalType": "address",
          "name": "to",
          "type": "address"
        },
        {
          "indexed": true,
          "internalType": "uint256",
          "name": "tokenId",
          "type": "uint256"
        }
      ],
      "name": "Transfer",
      "type": "event"
    },
    {
      "anonymous": false,
      "inputs": [
        {
          "indexed": true,
          "internalType": "address",
          "name": "implementation",
          "type": "address"
        }
      ],
      "name": "Upgraded",
      "type": "event"
    },
    {
      "inputs": [],
      "name": "DEFAULT_ADMIN_ROLE",
      "outputs": [
        {
          "internalType": "bytes32",
          "name": "",
          "type": "bytes32"
        }
      ],
      "stateMutability": "view",
      "type": "function"
    },
    {
      "inputs": [
        {
          "internalType": "address",
          "name": "to",
          "type": "address"
        },
        {
          "internalType": "uint256",
          "name": "tokenId",
          "type": "uint256"
        }
      ],
      "name": "approve",
      "outputs": [],
      "stateMutability": "nonpayable",
      "type": "function"
    },
    {
      "inputs": [
        {
          "internalType": "address",
          "name": "owner",
          "type": "address"
        }
      ],
      "name": "balanceOf",
      "outputs": [
        {
          "internalType": "uint256",
          "name": "",
          "type": "uint256"
        }
      ],
      "stateMutability": "view",
      "type": "function"
    },
    {
      "inputs": [
        {
          "internalType": "uint256",
          "name": "tokenId_",
          "type": "uint256"
        }
      ],
      "name": "burn",
      "outputs": [],
      "stateMutability": "nonpayable",
      "type": "function"
    },
    {
      "inputs": [
        {
          "internalType": "uint256",
          "name": "monsterId",
          "type": "uint256"
        }
      ],
      "name": "checkMonsterId",
      "outputs": [],
      "stateMutability": "view",
      "type": "function"
    },
    {
      "inputs": [],
      "name": "contractURI",
      "outputs": [
        {
          "internalType": "string",
          "name": "uri",
          "type": "string"
        }
      ],
      "stateMutability": "view",
      "type": "function"
    },
    {
      "inputs": [],
      "name": "erc20",
      "outputs": [
        {
          "internalType": "contract IERC20",
          "name": "",
          "type": "address"
        }
      ],
      "stateMutability": "view",
      "type": "function"
    },
    {
      "inputs": [
        {
          "internalType": "address",
          "name": "resurrectionPrompt_",
          "type": "address"
        },
        {
          "components": [
            {
              "internalType": "string",
              "name": "feature",
              "type": "string"
            },
            {
              "internalType": "string",
              "name": "name",
              "type": "string"
            },
            {
              "internalType": "string",
              "name": "flavor",
              "type": "string"
            },
            {
              "internalType": "string[]",
              "name": "skills",
              "type": "string[]"
            },
            {
              "internalType": "uint32",
              "name": "lv",
              "type": "uint32"
            },
            {
              "internalType": "uint32",
              "name": "hp",
              "type": "uint32"
            },
            {
              "internalType": "uint32",
              "name": "atk",
              "type": "uint32"
            },
            {
              "internalType": "uint32",
              "name": "def",
              "type": "uint32"
            },
            {
              "internalType": "uint32",
              "name": "inte",
              "type": "uint32"
            },
            {
              "internalType": "uint32",
              "name": "mgr",
              "type": "uint32"
            },
            {
              "internalType": "uint32",
              "name": "agl",
              "type": "uint32"
            }
          ],
          "internalType": "struct IPromptMonsters.Monster",
          "name": "monster_",
          "type": "tuple"
        }
      ],
      "name": "generateMonster",
      "outputs": [],
      "stateMutability": "nonpayable",
      "type": "function"
    },
    {
      "inputs": [
        {
          "internalType": "uint256",
          "name": "tokenId",
          "type": "uint256"
        }
      ],
      "name": "getApproved",
      "outputs": [
        {
          "internalType": "address",
          "name": "",
          "type": "address"
        }
      ],
      "stateMutability": "view",
      "type": "function"
    },
    {
      "inputs": [
        {
          "internalType": "address",
          "name": "resurrectionPrompt",
          "type": "address"
        }
      ],
      "name": "getMonsterHistory",
      "outputs": [
        {
          "components": [
            {
              "internalType": "string",
              "name": "feature",
              "type": "string"
            },
            {
              "internalType": "string",
              "name": "name",
              "type": "string"
            },
            {
              "internalType": "string",
              "name": "flavor",
              "type": "string"
            },
            {
              "internalType": "string[]",
              "name": "skills",
              "type": "string[]"
            },
            {
              "internalType": "uint32",
              "name": "lv",
              "type": "uint32"
            },
            {
              "internalType": "uint32",
              "name": "hp",
              "type": "uint32"
            },
            {
              "internalType": "uint32",
              "name": "atk",
              "type": "uint32"
            },
            {
              "internalType": "uint32",
              "name": "def",
              "type": "uint32"
            },
            {
              "internalType": "uint32",
              "name": "inte",
              "type": "uint32"
            },
            {
              "internalType": "uint32",
              "name": "mgr",
              "type": "uint32"
            },
            {
              "internalType": "uint32",
              "name": "agl",
              "type": "uint32"
            }
          ],
          "internalType": "struct IPromptMonsters.Monster",
          "name": "monsterHistory",
          "type": "tuple"
        }
      ],
      "stateMutability": "view",
      "type": "function"
    },
    {
      "inputs": [
        {
          "internalType": "uint256[]",
          "name": "tokenIds_",
          "type": "uint256[]"
        }
      ],
      "name": "getMonsters",
      "outputs": [
        {
          "components": [
            {
              "internalType": "string",
              "name": "feature",
              "type": "string"
            },
            {
              "internalType": "string",
              "name": "name",
              "type": "string"
            },
            {
              "internalType": "string",
              "name": "flavor",
              "type": "string"
            },
            {
              "internalType": "string[]",
              "name": "skills",
              "type": "string[]"
            },
            {
              "internalType": "uint32",
              "name": "lv",
              "type": "uint32"
            },
            {
              "internalType": "uint32",
              "name": "hp",
              "type": "uint32"
            },
            {
              "internalType": "uint32",
              "name": "atk",
              "type": "uint32"
            },
            {
              "internalType": "uint32",
              "name": "def",
              "type": "uint32"
            },
            {
              "internalType": "uint32",
              "name": "inte",
              "type": "uint32"
            },
            {
              "internalType": "uint32",
              "name": "mgr",
              "type": "uint32"
            },
            {
              "internalType": "uint32",
              "name": "agl",
              "type": "uint32"
            }
          ],
          "internalType": "struct IPromptMonsters.Monster[]",
          "name": "monsters",
          "type": "tuple[]"
        }
      ],
      "stateMutability": "view",
      "type": "function"
    },
    {
      "inputs": [],
      "name": "getMonstersTotalSupply",
      "outputs": [
        {
          "internalType": "uint256",
          "name": "totalSupply",
          "type": "uint256"
        }
      ],
      "stateMutability": "view",
      "type": "function"
    },
    {
      "inputs": [
        {
          "internalType": "address",
          "name": "owner",
          "type": "address"
        }
      ],
      "name": "getOwnerToTokenIds",
      "outputs": [
        {
          "internalType": "uint256[]",
          "name": "tokenIds",
          "type": "uint256[]"
        }
      ],
      "stateMutability": "view",
      "type": "function"
    },
    {
      "inputs": [
        {
          "internalType": "address",
          "name": "owner",
          "type": "address"
        },
        {
          "internalType": "uint256",
          "name": "tokenId_",
          "type": "uint256"
        }
      ],
      "name": "getOwnerToTokenIdsIndex",
      "outputs": [
        {
          "internalType": "uint256",
          "name": "tokenIdsIndex",
          "type": "uint256"
        }
      ],
      "stateMutability": "view",
      "type": "function"
    },
    {
      "inputs": [
        {
          "internalType": "bytes32",
          "name": "role",
          "type": "bytes32"
        }
      ],
      "name": "getRoleAdmin",
      "outputs": [
        {
          "internalType": "bytes32",
          "name": "",
          "type": "bytes32"
        }
      ],
      "stateMutability": "view",
      "type": "function"
    },
    {
      "inputs": [
        {
          "internalType": "bytes32",
          "name": "role",
          "type": "bytes32"
        },
        {
          "internalType": "uint256",
          "name": "index",
          "type": "uint256"
        }
      ],
      "name": "getRoleMember",
      "outputs": [
        {
          "internalType": "address",
          "name": "",
          "type": "address"
        }
      ],
      "stateMutability": "view",
      "type": "function"
    },
    {
      "inputs": [
        {
          "internalType": "bytes32",
          "name": "role",
          "type": "bytes32"
        }
      ],
      "name": "getRoleMemberCount",
      "outputs": [
        {
          "internalType": "uint256",
          "name": "",
          "type": "uint256"
        }
      ],
      "stateMutability": "view",
      "type": "function"
    },
    {
      "inputs": [
        {
          "internalType": "bytes32",
          "name": "role",
          "type": "bytes32"
        },
        {
          "internalType": "address",
          "name": "account",
          "type": "address"
        }
      ],
      "name": "grantRole",
      "outputs": [],
      "stateMutability": "nonpayable",
      "type": "function"
    },
    {
      "inputs": [
        {
          "internalType": "bytes32",
          "name": "role",
          "type": "bytes32"
        },
        {
          "internalType": "address",
          "name": "account",
          "type": "address"
        }
      ],
      "name": "hasRole",
      "outputs": [
        {
          "internalType": "bool",
          "name": "",
          "type": "bool"
        }
      ],
      "stateMutability": "view",
      "type": "function"
    },
    {
      "inputs": [
        {
          "internalType": "string",
          "name": "externalLink_",
          "type": "string"
        },
        {
          "internalType": "address",
          "name": "erc20Address_",
          "type": "address"
        },
        {
          "internalType": "uint256",
          "name": "mintPrice_",
          "type": "uint256"
        },
        {
          "internalType": "address",
          "name": "promptMonstersWallet_",
          "type": "address"
        }
      ],
      "name": "initialize",
      "outputs": [],
      "stateMutability": "nonpayable",
      "type": "function"
    },
    {
      "inputs": [
        {
          "internalType": "address",
          "name": "owner",
          "type": "address"
        },
        {
          "internalType": "address",
          "name": "operator",
          "type": "address"
        }
      ],
      "name": "isApprovedForAll",
      "outputs": [
        {
          "internalType": "bool",
          "name": "",
          "type": "bool"
        }
      ],
      "stateMutability": "view",
      "type": "function"
    },
    {
      "inputs": [
        {
          "internalType": "address",
          "name": "resurrectionPrompt",
          "type": "address"
        }
      ],
      "name": "mint",
      "outputs": [],
      "stateMutability": "nonpayable",
      "type": "function"
    },
    {
      "inputs": [],
      "name": "mintPrice",
      "outputs": [
        {
          "internalType": "uint256",
          "name": "",
          "type": "uint256"
        }
      ],
      "stateMutability": "view",
      "type": "function"
    },
    {
      "inputs": [],
      "name": "name",
      "outputs": [
        {
          "internalType": "string",
          "name": "",
          "type": "string"
        }
      ],
      "stateMutability": "view",
      "type": "function"
    },
    {
      "inputs": [
        {
          "internalType": "uint256",
          "name": "tokenId",
          "type": "uint256"
        }
      ],
      "name": "ownerOf",
      "outputs": [
        {
          "internalType": "address",
          "name": "",
          "type": "address"
        }
      ],
      "stateMutability": "view",
      "type": "function"
    },
    {
      "inputs": [],
      "name": "promptMonstersWallet",
      "outputs": [
        {
          "internalType": "address",
          "name": "",
          "type": "address"
        }
      ],
      "stateMutability": "view",
      "type": "function"
    },
    {
      "inputs": [],
      "name": "proxiableUUID",
      "outputs": [
        {
          "internalType": "bytes32",
          "name": "",
          "type": "bytes32"
        }
      ],
      "stateMutability": "view",
      "type": "function"
    },
    {
      "inputs": [
        {
          "internalType": "bytes32",
          "name": "role",
          "type": "bytes32"
        },
        {
          "internalType": "address",
          "name": "account",
          "type": "address"
        }
      ],
      "name": "renounceRole",
      "outputs": [],
      "stateMutability": "nonpayable",
      "type": "function"
    },
    {
      "inputs": [
        {
          "internalType": "address",
          "name": "",
          "type": "address"
        }
      ],
      "name": "resurrectionIndex",
      "outputs": [
        {
          "internalType": "uint256",
          "name": "",
          "type": "uint256"
        }
      ],
      "stateMutability": "view",
      "type": "function"
    },
    {
      "inputs": [
        {
          "internalType": "bytes32",
          "name": "role",
          "type": "bytes32"
        },
        {
          "internalType": "address",
          "name": "account",
          "type": "address"
        }
      ],
      "name": "revokeRole",
      "outputs": [],
      "stateMutability": "nonpayable",
      "type": "function"
    },
    {
      "inputs": [
        {
          "internalType": "address",
          "name": "from",
          "type": "address"
        },
        {
          "internalType": "address",
          "name": "to",
          "type": "address"
        },
        {
          "internalType": "uint256",
          "name": "tokenId",
          "type": "uint256"
        }
      ],
      "name": "safeTransferFrom",
      "outputs": [],
      "stateMutability": "nonpayable",
      "type": "function"
    },
    {
      "inputs": [
        {
          "internalType": "address",
          "name": "from",
          "type": "address"
        },
        {
          "internalType": "address",
          "name": "to",
          "type": "address"
        },
        {
          "internalType": "uint256",
          "name": "tokenId",
          "type": "uint256"
        },
        {
          "internalType": "bytes",
          "name": "data",
          "type": "bytes"
        }
      ],
      "name": "safeTransferFrom",
      "outputs": [],
      "stateMutability": "nonpayable",
      "type": "function"
    },
    {
      "inputs": [
        {
          "internalType": "address",
          "name": "operator",
          "type": "address"
        },
        {
          "internalType": "bool",
          "name": "approved",
          "type": "bool"
        }
      ],
      "name": "setApprovalForAll",
      "outputs": [],
      "stateMutability": "nonpayable",
      "type": "function"
    },
    {
      "inputs": [
        {
          "internalType": "address",
          "name": "newState_",
          "type": "address"
        }
      ],
      "name": "setErc20",
      "outputs": [],
      "stateMutability": "nonpayable",
      "type": "function"
    },
    {
      "inputs": [
        {
          "internalType": "string",
          "name": "newState_",
          "type": "string"
        }
      ],
      "name": "setExternalLink",
      "outputs": [],
      "stateMutability": "nonpayable",
      "type": "function"
    },
    {
      "inputs": [
        {
          "internalType": "uint256",
          "name": "newState_",
          "type": "uint256"
        }
      ],
      "name": "setMintPrice",
      "outputs": [],
      "stateMutability": "nonpayable",
      "type": "function"
    },
    {
      "inputs": [
        {
          "internalType": "address",
          "name": "user_",
          "type": "address"
        },
        {
          "internalType": "uint256",
          "name": "ownerToTokenIdIndex_",
          "type": "uint256"
        },
        {
          "internalType": "uint256",
          "name": "newState_",
          "type": "uint256"
        }
      ],
      "name": "setOwnerToTokenId",
      "outputs": [],
      "stateMutability": "nonpayable",
      "type": "function"
    },
    {
      "inputs": [
        {
          "internalType": "address",
          "name": "user_",
          "type": "address"
        },
        {
          "internalType": "uint256",
          "name": "tokenId_",
          "type": "uint256"
        },
        {
          "internalType": "uint256",
          "name": "newState_",
          "type": "uint256"
        }
      ],
      "name": "setOwnerToTokenIdIndex",
      "outputs": [],
      "stateMutability": "nonpayable",
      "type": "function"
    },
    {
      "inputs": [
        {
          "internalType": "address",
          "name": "newState_",
          "type": "address"
        }
      ],
      "name": "setPromptMonstersWallet",
      "outputs": [],
      "stateMutability": "nonpayable",
      "type": "function"
    },
    {
      "inputs": [
        {
          "internalType": "bytes4",
          "name": "interfaceId",
          "type": "bytes4"
        }
      ],
      "name": "supportsInterface",
      "outputs": [
        {
          "internalType": "bool",
          "name": "",
          "type": "bool"
        }
      ],
      "stateMutability": "view",
      "type": "function"
    },
    {
      "inputs": [],
      "name": "symbol",
      "outputs": [
        {
          "internalType": "string",
          "name": "",
          "type": "string"
        }
      ],
      "stateMutability": "view",
      "type": "function"
    },
    {
      "inputs": [
        {
          "internalType": "uint256",
          "name": "tokenId_",
          "type": "uint256"
        }
      ],
      "name": "tokenURI",
      "outputs": [
        {
          "internalType": "string",
          "name": "uri",
          "type": "string"
        }
      ],
      "stateMutability": "view",
      "type": "function"
    },
    {
      "inputs": [
        {
          "internalType": "address",
          "name": "from",
          "type": "address"
        },
        {
          "internalType": "address",
          "name": "to",
          "type": "address"
        },
        {
          "internalType": "uint256",
          "name": "tokenId",
          "type": "uint256"
        }
      ],
      "name": "transferFrom",
      "outputs": [],
      "stateMutability": "nonpayable",
      "type": "function"
    },
    {
      "inputs": [
        {
          "internalType": "address",
          "name": "newImplementation",
          "type": "address"
        }
      ],
      "name": "upgradeTo",
      "outputs": [],
      "stateMutability": "nonpayable",
      "type": "function"
    },
    {
      "inputs": [
        {
          "internalType": "address",
          "name": "newImplementation",
          "type": "address"
        },
        {
          "internalType": "bytes",
          "name": "data",
          "type": "bytes"
        }
      ],
      "name": "upgradeToAndCall",
      "outputs": [],
      "stateMutability": "payable",
      "type": "function"
    }
  ],
  "bytecode": "0x60a0604052306080523480156200001557600080fd5b506200002062000026565b620000e8565b600054610100900460ff1615620000935760405162461bcd60e51b815260206004820152602760248201527f496e697469616c697a61626c653a20636f6e747261637420697320696e697469604482015266616c697a696e6760c81b606482015260840160405180910390fd5b60005460ff9081161015620000e6576000805460ff191660ff9081179091556040519081527f7f26b83ff96e1f2b6a682f133852f6798a09c465da95921460cefb38474024989060200160405180910390a15b565b608051615fb16200012060003960008181610e5f01528181610e9f01528181610f8101528181610fc101526110500152615fb16000f3fe6080604052600436106102725760003560e01c80636817c76c1161014f578063b88d4fde116100c1578063dc328fa51161007a578063dc328fa5146107bf578063e4bab3f5146107df578063e8a3d485146107ff578063e985e9c514610814578063ee9b80a41461085d578063f4a0a5281461087d57600080fd5b8063b88d4fde146106e4578063c4b64f2614610704578063c87b56dd14610731578063ca15c87314610751578063d547741f14610771578063da430c261461079157600080fd5b80639010d07c116101135780639010d07c1461062d57806391d148541461064d57806395d89b411461066d578063a217fddf14610682578063a22cb46514610697578063b2664c2e146106b757600080fd5b80636817c76c146105955780636a627842146105ac57806370a08231146105cc578063785e9e86146105ec578063831864651461060d57600080fd5b806333a512a4116101e85780634f1ef286116101ac5780634f1ef286146104f757806352d1902d1461050a57806352dd29d21461051f57806355b094561461053557806356db61c8146105555780636352211e1461057557600080fd5b806333a512a41461045757806336568abe146104775780633659cfe61461049757806342842e0e146104b757806342966c68146104d757600080fd5b8063145f0fa91161023a578063145f0fa9146103555780631f9179211461037657806323b872dd14610396578063248a9ca3146103b65780632d6407cf146103f45780632f2ff15d1461043757600080fd5b806301ffc9a71461027757806306fdde03146102ac578063081812fc146102ce578063095ea7b3146103065780630fd7efc414610328575b600080fd5b34801561028357600080fd5b506102976102923660046148b5565b61089d565b60405190151581526020015b60405180910390f35b3480156102b857600080fd5b506102c16108ae565b6040516102a39190614922565b3480156102da57600080fd5b506102ee6102e9366004614935565b610940565b6040516001600160a01b0390911681526020016102a3565b34801561031257600080fd5b5061032661032136600461496a565b610967565b005b34801561033457600080fd5b50610348610343366004614994565b610a81565b6040516102a391906149af565b34801561036157600080fd5b50610192546102ee906001600160a01b031681565b34801561038257600080fd5b50610326610391366004614ad1565b610aee565b3480156103a257600080fd5b506103266103b1366004614b05565b610be2565b3480156103c257600080fd5b506103e66103d1366004614935565b60009081526097602052604090206001015490565b6040519081526020016102a3565b34801561040057600080fd5b506103e661040f36600461496a565b6001600160a01b03909116600090815261019560209081526040808320938352929052205490565b34801561044357600080fd5b50610326610452366004614b41565b610c13565b34801561046357600080fd5b50610326610472366004614c33565b610c38565b34801561048357600080fd5b50610326610492366004614b41565b610dd7565b3480156104a357600080fd5b506103266104b2366004614994565b610e55565b3480156104c357600080fd5b506103266104d2366004614b05565b610f34565b3480156104e357600080fd5b506103266104f2366004614935565b610f4f565b610326610505366004614d9f565b610f77565b34801561051657600080fd5b506103e6611043565b34801561052b57600080fd5b50610198546103e6565b34801561054157600080fd5b50610326610550366004614dec565b6110f6565b34801561056157600080fd5b50610326610570366004614e53565b6112b8565b34801561058157600080fd5b506102ee610590366004614935565b611303565b3480156105a157600080fd5b506103e66101935481565b3480156105b857600080fd5b506103266105c7366004614994565b611363565b3480156105d857600080fd5b506103e66105e7366004614994565b611a6c565b3480156105f857600080fd5b50610191546102ee906001600160a01b031681565b34801561061957600080fd5b50610326610628366004614935565b611af2565b34801561063957600080fd5b506102ee610648366004614e86565b611b73565b34801561065957600080fd5b50610297610668366004614b41565b611b92565b34801561067957600080fd5b506102c1611bbd565b34801561068e57600080fd5b506103e6600081565b3480156106a357600080fd5b506103266106b2366004614eb6565b611bcc565b3480156106c357600080fd5b506106d76106d2366004614eed565b611bd7565b6040516102a391906150c5565b3480156106f057600080fd5b506103266106ff366004615127565b61200f565b34801561071057600080fd5b5061072461071f366004614994565b612047565b6040516102a3919061518e565b34801561073d57600080fd5b506102c161074c366004614935565b612370565b34801561075d57600080fd5b506103e661076c366004614935565b61272d565b34801561077d57600080fd5b5061032661078c366004614b41565b612744565b34801561079d57600080fd5b506103e66107ac366004614994565b6101996020526000908152604090205481565b3480156107cb57600080fd5b506103266107da366004614e53565b612769565b3480156107eb57600080fd5b506103266107fa366004614994565b61279c565b34801561080b57600080fd5b506102c1612814565b34801561082057600080fd5b5061029761082f3660046151a1565b6001600160a01b039182166000908152606a6020908152604080832093909416825291909152205460ff1690565b34801561086957600080fd5b50610326610878366004614994565b61289a565b34801561088957600080fd5b50610326610898366004614935565b612912565b60006108a88261295e565b92915050565b6060606580546108bd906151cb565b80601f01602080910402602001604051908101604052809291908181526020018280546108e9906151cb565b80156109365780601f1061090b57610100808354040283529160200191610936565b820191906000526020600020905b81548152906001019060200180831161091957829003601f168201915b5050505050905090565b600061094b82612983565b506000908152606960205260409020546001600160a01b031690565b600061097282611303565b9050806001600160a01b0316836001600160a01b0316036109e45760405162461bcd60e51b815260206004820152602160248201527f4552433732313a20617070726f76616c20746f2063757272656e74206f776e656044820152603960f91b60648201526084015b60405180910390fd5b336001600160a01b0382161480610a005750610a00813361082f565b610a725760405162461bcd60e51b815260206004820152603d60248201527f4552433732313a20617070726f76652063616c6c6572206973206e6f7420746f60448201527f6b656e206f776e6572206f7220617070726f76656420666f7220616c6c00000060648201526084016109db565b610a7c83836129e2565b505050565b6001600160a01b03811660009081526101976020908152604091829020805483518184028101840190945280845260609392830182828015610ae257602002820191906000526020600020905b815481526020019060010190808311610ace575b50505050509050919050565b6000610af981612a50565b60006101948054610b09906151cb565b80601f0160208091040260200160405190810160405280929190818152602001828054610b35906151cb565b8015610b825780601f10610b5757610100808354040283529160200191610b82565b820191906000526020600020905b815481529060010190602001808311610b6557829003601f168201915b50505050509050826101949081610b999190615253565b50336001600160a01b03167ffceab947acbd3281d41fa085ba6d9503467fabd9e3d96e3ee0dbf6f8b04a9ca48285604051610bd5929190615312565b60405180910390a2505050565b610bec3382612a5a565b610c085760405162461bcd60e51b81526004016109db90615337565b610a7c838383612ad9565b600082815260976020526040902060010154610c2e81612a50565b610a7c8383612c4a565b6000610c4381612a50565b610c4b612c6c565b6001600160a01b03831660009081526101966020526040902082518391908190610c759082615253565b5060208201516001820190610c8a9082615253565b5060408201516002820190610c9f9082615253565b5060608201518051610cbb916003840191602090910190614764565b5060808201516004909101805460a084015160c085015160e08601516101008701516101208801516101409098015163ffffffff908116600160c01b0263ffffffff60c01b19998216600160a01b0263ffffffff60a01b19938316600160801b029390931667ffffffffffffffff60801b19948316600160601b0263ffffffff60601b19968416600160401b029690961667ffffffffffffffff60401b19978416600160201b0267ffffffffffffffff1990991693909a169290921796909617949094169690961791909117161792909217929092161790556040517f510bfd2054011dabbaa045ac4dd0e4240d49b56398ef864dcfa95abec34b8e4990610dc490849061518e565b60405180910390a1610a7c600161015f55565b6001600160a01b0381163314610e475760405162461bcd60e51b815260206004820152602f60248201527f416363657373436f6e74726f6c3a2063616e206f6e6c792072656e6f756e636560448201526e103937b632b9903337b91039b2b63360891b60648201526084016109db565b610e518282612ccf565b5050565b6001600160a01b037f0000000000000000000000000000000000000000000000000000000000000000163003610e9d5760405162461bcd60e51b81526004016109db90615384565b7f00000000000000000000000000000000000000000000000000000000000000006001600160a01b0316610ee6600080516020615ef5833981519152546001600160a01b031690565b6001600160a01b031614610f0c5760405162461bcd60e51b81526004016109db906153d0565b610f1581612cf1565b60408051600080825260208201909252610f3191839190612cfc565b50565b610a7c8383836040518060200160405280600081525061200f565b610f57612c6c565b610f6c33610f66600080611b73565b83610f34565b610f31600161015f55565b6001600160a01b037f0000000000000000000000000000000000000000000000000000000000000000163003610fbf5760405162461bcd60e51b81526004016109db90615384565b7f00000000000000000000000000000000000000000000000000000000000000006001600160a01b0316611008600080516020615ef5833981519152546001600160a01b031690565b6001600160a01b03161461102e5760405162461bcd60e51b81526004016109db906153d0565b61103782612cf1565b610e5182826001612cfc565b6000306001600160a01b037f000000000000000000000000000000000000000000000000000000000000000016146110e35760405162461bcd60e51b815260206004820152603860248201527f555550535570677261646561626c653a206d757374206e6f742062652063616c60448201527f6c6564207468726f7567682064656c656761746563616c6c000000000000000060648201526084016109db565b50600080516020615ef583398151915290565b600054610100900460ff16158080156111165750600054600160ff909116105b806111305750303b158015611130575060005460ff166001145b6111935760405162461bcd60e51b815260206004820152602e60248201527f496e697469616c697a61626c653a20636f6e747261637420697320616c72656160448201526d191e481a5b9a5d1a585b1a5e995960921b60648201526084016109db565b6000805460ff1916600117905580156111b6576000805461ff0019166101001790555b6112026040518060400160405280600f81526020016e50726f6d7074204d6f6e737465727360881b8152506040518060400160405280600381526020016226a7a760e91b815250612e67565b61120a612e98565b611212612e98565b61121a612ec1565b611225600033612c4a565b6101946112328682615253565b5061019180546001600160a01b038087166001600160a01b03199283161790925561019385905561019280549285169290911691909117905580156112b1576000805461ff0019169055604051600181527f7f26b83ff96e1f2b6a682f133852f6798a09c465da95921460cefb38474024989060200160405180910390a15b5050505050565b60006112c381612a50565b6001600160a01b0384166000908152610197602052604090208054839190859081106112f1576112f161541c565b60009182526020909120015550505050565b6000818152606760205260408120546001600160a01b0316806108a85760405162461bcd60e51b8152602060048201526018602482015277115490cdcc8c4e881a5b9d985b1a59081d1bdad95b88125160421b60448201526064016109db565b61019354610191546040516370a0823160e01b81523360048201526001600160a01b03909116906370a0823190602401602060405180830381865afa1580156113b0573d6000803e3d6000fd5b505050506040513d601f19601f820116820180604052508101906113d49190615432565b10156114355760405162461bcd60e51b815260206004820152602a60248201527f50726f6d70744d6f6e73746572733a20696e73756666696369656e742045524360448201526932302062616c616e636560b01b60648201526084016109db565b6001600160a01b0381166000908152610196602052604080822081516101608101909252805482908290611468906151cb565b80601f0160208091040260200160405190810160405280929190818152602001828054611494906151cb565b80156114e15780601f106114b6576101008083540402835291602001916114e1565b820191906000526020600020905b8154815290600101906020018083116114c457829003601f168201915b505050505081526020016001820180546114fa906151cb565b80601f0160208091040260200160405190810160405280929190818152602001828054611526906151cb565b80156115735780601f1061154857610100808354040283529160200191611573565b820191906000526020600020905b81548152906001019060200180831161155657829003601f168201915b5050505050815260200160028201805461158c906151cb565b80601f01602080910402602001604051908101604052809291908181526020018280546115b8906151cb565b80156116055780601f106115da57610100808354040283529160200191611605565b820191906000526020600020905b8154815290600101906020018083116115e857829003601f168201915b5050505050815260200160038201805480602002602001604051908101604052809291908181526020016000905b828210156116df578382906000526020600020018054611652906151cb565b80601f016020809104026020016040519081016040528092919081815260200182805461167e906151cb565b80156116cb5780601f106116a0576101008083540402835291602001916116cb565b820191906000526020600020905b8154815290600101906020018083116116ae57829003601f168201915b505050505081526020019060010190611633565b505050908252506004919091015463ffffffff8082166020840152600160201b820481166040840152600160401b820481166060840152600160601b82048116608080850191909152600160801b8304821660a0850152600160a01b8304821660c0850152600160c01b909204811660e090930192909252820151919250166000036117be5760405162461bcd60e51b815260206004820152602860248201527f50726f6d70744d6f6e73746572733a206d6f6e73746572206973206e6f742067604482015267195b995c985d195960c21b60648201526084016109db565b61019854600181016118205760405162461bcd60e51b815260206004820152602560248201527f50726f6d70744d6f6e73746572733a20746f6b656e20494420697320746f6f206044820152646c6172676560d81b60648201526084016109db565b6101988054600181018255600091909152825183916005027f3f539f465397ab387efa93a617e37005205c037386b5b474fcfac82f47f77f0d019081906118679082615253565b506020820151600182019061187c9082615253565b50604082015160028201906118919082615253565b50606082015180516118ad916003840191602090910190614764565b5060808201516004909101805460a084015160c085015160e08601516101008701516101208801516101409098015163ffffffff908116600160c01b0263ffffffff60c01b19998216600160a01b0263ffffffff60a01b19938316600160801b029390931667ffffffffffffffff60801b19948316600160601b0263ffffffff60601b19968416600160401b029690961667ffffffffffffffff60401b19978416600160201b0267ffffffffffffffff1990991693909a169290921796909617949094169690961791909117161792909217929092161790556001600160a01b0383166000908152610199602090815260408083208490556101969091528120906119b882826147ba565b6119c66001830160006147ba565b6119d46002830160006147ba565b6119e26003830160006147f4565b5060040180546001600160e01b0319169055610192546101935461019154611a1b926001600160a01b0391821692339290911690612ef0565b611a253382612f4a565b80336001600160a01b03167fc6c4718f17c6ea8362f0264119a62a3048495821d7fe897562ac287bb681811284604051611a5f919061518e565b60405180910390a3505050565b60006001600160a01b038216611ad65760405162461bcd60e51b815260206004820152602960248201527f4552433732313a2061646472657373207a65726f206973206e6f7420612076616044820152683634b21037bbb732b960b91b60648201526084016109db565b506001600160a01b031660009081526068602052604090205490565b6000818152606760205260409020546001600160a01b0316151580611b18575060001981145b610f315760405162461bcd60e51b815260206004820152602660248201527f50726f6d70744d6f6e73746572733a206d6f6e7374657220646f6573206e6f7460448201526508195e1a5cdd60d21b60648201526084016109db565b600082815260c960205260408120611b8b9083612f64565b9392505050565b60009182526097602090815260408084206001600160a01b0393909316845291905290205460ff1690565b6060606680546108bd906151cb565b610e51338383612f70565b80516101985460609190811115611c445760405162461bcd60e51b815260206004820152602b60248201527f50726f6d70744d6f6e73746572733a20746f6b656e4964734c656e677468206960448201526a7320746f6f206c6172676560a81b60648201526084016109db565b806001600160401b03811115611c5c57611c5c6149f3565b604051908082528060200260200182016040528015611c9557816020015b611c82614812565b815260200190600190039081611c7a5790505b50915060005b8181101561200857610198848281518110611cb857611cb861541c565b602002602001015181548110611cd057611cd061541c565b906000526020600020906005020160405180610160016040529081600082018054611cfa906151cb565b80601f0160208091040260200160405190810160405280929190818152602001828054611d26906151cb565b8015611d735780601f10611d4857610100808354040283529160200191611d73565b820191906000526020600020905b815481529060010190602001808311611d5657829003601f168201915b50505050508152602001600182018054611d8c906151cb565b80601f0160208091040260200160405190810160405280929190818152602001828054611db8906151cb565b8015611e055780601f10611dda57610100808354040283529160200191611e05565b820191906000526020600020905b815481529060010190602001808311611de857829003601f168201915b50505050508152602001600282018054611e1e906151cb565b80601f0160208091040260200160405190810160405280929190818152602001828054611e4a906151cb565b8015611e975780601f10611e6c57610100808354040283529160200191611e97565b820191906000526020600020905b815481529060010190602001808311611e7a57829003601f168201915b5050505050815260200160038201805480602002602001604051908101604052809291908181526020016000905b82821015611f71578382906000526020600020018054611ee4906151cb565b80601f0160208091040260200160405190810160405280929190818152602001828054611f10906151cb565b8015611f5d5780601f10611f3257610100808354040283529160200191611f5d565b820191906000526020600020905b815481529060010190602001808311611f4057829003601f168201915b505050505081526020019060010190611ec5565b505050908252506004919091015463ffffffff8082166020840152600160201b820481166040840152600160401b820481166060840152600160601b820481166080840152600160801b8204811660a0840152600160a01b8204811660c0840152600160c01b9091041660e0909101528351849083908110611ff557611ff561541c565b6020908102919091010152600101611c9b565b5050919050565b6120193383612a5a565b6120355760405162461bcd60e51b81526004016109db90615337565b61204184848484613036565b50505050565b61204f614812565b6001600160a01b038216600090815261019660205260409081902081516101608101909252805482908290612083906151cb565b80601f01602080910402602001604051908101604052809291908181526020018280546120af906151cb565b80156120fc5780601f106120d1576101008083540402835291602001916120fc565b820191906000526020600020905b8154815290600101906020018083116120df57829003601f168201915b50505050508152602001600182018054612115906151cb565b80601f0160208091040260200160405190810160405280929190818152602001828054612141906151cb565b801561218e5780601f106121635761010080835404028352916020019161218e565b820191906000526020600020905b81548152906001019060200180831161217157829003601f168201915b505050505081526020016002820180546121a7906151cb565b80601f01602080910402602001604051908101604052809291908181526020018280546121d3906151cb565b80156122205780601f106121f557610100808354040283529160200191612220565b820191906000526020600020905b81548152906001019060200180831161220357829003601f168201915b5050505050815260200160038201805480602002602001604051908101604052809291908181526020016000905b828210156122fa57838290600052602060002001805461226d906151cb565b80601f0160208091040260200160405190810160405280929190818152602001828054612299906151cb565b80156122e65780601f106122bb576101008083540402835291602001916122e6565b820191906000526020600020905b8154815290600101906020018083116122c957829003601f168201915b50505050508152602001906001019061224e565b505050908252506004919091015463ffffffff8082166020840152600160201b820481166040840152600160401b820481166060840152600160601b820481166080840152600160801b8204811660a0840152600160a01b8204811660c0840152600160c01b9091041660e09091015292915050565b606061237b82612983565b600061238683613069565b90506000610198848154811061239e5761239e61541c565b9060005260206000209060050201604051806101600160405290816000820180546123c8906151cb565b80601f01602080910402602001604051908101604052809291908181526020018280546123f4906151cb565b80156124415780601f1061241657610100808354040283529160200191612441565b820191906000526020600020905b81548152906001019060200180831161242457829003601f168201915b5050505050815260200160018201805461245a906151cb565b80601f0160208091040260200160405190810160405280929190818152602001828054612486906151cb565b80156124d35780601f106124a8576101008083540402835291602001916124d3565b820191906000526020600020905b8154815290600101906020018083116124b657829003601f168201915b505050505081526020016002820180546124ec906151cb565b80601f0160208091040260200160405190810160405280929190818152602001828054612518906151cb565b80156125655780601f1061253a57610100808354040283529160200191612565565b820191906000526020600020905b81548152906001019060200180831161254857829003601f168201915b5050505050815260200160038201805480602002602001604051908101604052809291908181526020016000905b8282101561263f5783829060005260206000200180546125b2906151cb565b80601f01602080910402602001604051908101604052809291908181526020018280546125de906151cb565b801561262b5780601f106126005761010080835404028352916020019161262b565b820191906000526020600020905b81548152906001019060200180831161260e57829003601f168201915b505050505081526020019060010190612593565b505050908252506004919091015463ffffffff808216602080850191909152600160201b83048216604080860191909152600160401b840483166060860152600160601b840483166080860152600160801b8404831660a0860152600160a01b8404831660c0860152600160c01b90930490911660e09093019290925290820151908201519192506000916126fe91906126d8866135f4565b6040516020016126ea93929190615467565b6040516020818303038152906040526135f4565b9050600081604051602001612713919061552a565b60408051601f198184030181529190529695505050505050565b600081815260c9602052604081206108a890613746565b60008281526097602052604090206001015461275f81612a50565b610a7c8383612ccf565b600061277481612a50565b506001600160a01b039092166000908152610195602090815260408083209383529290522055565b60006127a781612a50565b61019280546001600160a01b038481166001600160a01b0319831617909255166127ce3390565b604080516001600160a01b038481168252868116602083015292909216917fc791f304f706b4012579cd651a8a0d930c30d117f42ee74327000e3fc75bfbbc9101610bd5565b606060006128206108ae565b9050600081604051602001612835919061556f565b6040516020818303038152906040529050600061286c8384612856856135f4565b6101946040516020016126ea949392919061571c565b9050600081604051602001612881919061552a565b60408051601f1981840301815291905295945050505050565b60006128a581612a50565b61019180546001600160a01b038481166001600160a01b0319831617909255166128cc3390565b604080516001600160a01b038481168252868116602083015292909216917f5ebe54482b2a8120482902e3bfe9ca1a913e9987bcb1f18c974dae585132a9549101610bd5565b600061291d81612a50565b610193805490839055604080518281526020810185905233917f55cc83342b4c144a74960fdf0dfe1a7af4cbb77aaccb471b088d5fe0bdad1d4c9101610bd5565b60006001600160e01b03198216635a05180f60e01b14806108a857506108a882613750565b6000818152606760205260409020546001600160a01b0316610f315760405162461bcd60e51b8152602060048201526018602482015277115490cdcc8c4e881a5b9d985b1a59081d1bdad95b88125160421b60448201526064016109db565b600081815260696020526040902080546001600160a01b0319166001600160a01b0384169081179091558190612a1782611303565b6001600160a01b03167f8c5be1e5ebec7d5bd14f71427d1e84f3dd0314c0f7b2291e5b200ac8c7c3b92560405160405180910390a45050565b610f318133613775565b600080612a6683611303565b9050806001600160a01b0316846001600160a01b03161480612aad57506001600160a01b038082166000908152606a602090815260408083209388168352929052205460ff165b80612ad15750836001600160a01b0316612ac684610940565b6001600160a01b0316145b949350505050565b826001600160a01b0316612aec82611303565b6001600160a01b031614612b125760405162461bcd60e51b81526004016109db90615889565b6001600160a01b038216612b745760405162461bcd60e51b8152602060048201526024808201527f4552433732313a207472616e7366657220746f20746865207a65726f206164646044820152637265737360e01b60648201526084016109db565b612b8183838360016137ce565b826001600160a01b0316612b9482611303565b6001600160a01b031614612bba5760405162461bcd60e51b81526004016109db90615889565b600081815260696020908152604080832080546001600160a01b03199081169091556001600160a01b0387811680865260688552838620805460001901905590871680865283862080546001019055868652606790945282852080549092168417909155905184937fddf252ad1be2c89b69c2b068fc378daa952ba7f163c4a11628f55a4df523b3ef91a4505050565b612c548282613817565b600082815260c960205260409020610a7c908261389d565b600261015f5403612cbf5760405162461bcd60e51b815260206004820152601f60248201527f5265656e7472616e637947756172643a207265656e7472616e742063616c6c0060448201526064016109db565b600261015f55565b600161015f55565b612cd982826138b2565b600082815260c960205260409020610a7c9082613919565b6000610e5181612a50565b7f4910fdfa16fed3260ed0e7147f7cc6da11a60208b5b9406d12a635614ffd91435460ff1615612d2f57610a7c8361392e565b826001600160a01b03166352d1902d6040518163ffffffff1660e01b8152600401602060405180830381865afa925050508015612d89575060408051601f3d908101601f19168201909252612d8691810190615432565b60015b612dec5760405162461bcd60e51b815260206004820152602e60248201527f45524331393637557067726164653a206e657720696d706c656d656e7461746960448201526d6f6e206973206e6f74205555505360901b60648201526084016109db565b600080516020615ef58339815191528114612e5b5760405162461bcd60e51b815260206004820152602960248201527f45524331393637557067726164653a20756e737570706f727465642070726f786044820152681a58589b195555525160ba1b60648201526084016109db565b50610a7c8383836139ca565b600054610100900460ff16612e8e5760405162461bcd60e51b81526004016109db906158ce565b610e5182826139ef565b600054610100900460ff16612ebf5760405162461bcd60e51b81526004016109db906158ce565b565b600054610100900460ff16612ee85760405162461bcd60e51b81526004016109db906158ce565b612ebf613a2f565b604080516001600160a01b0385811660248301528416604482015260648082018490528251808303909101815260849091019091526020810180516001600160e01b03166323b872dd60e01b179052612041908590613a56565b610e51828260405180602001604052806000815250613b28565b6000611b8b8383613b5b565b816001600160a01b0316836001600160a01b031603612fd15760405162461bcd60e51b815260206004820152601960248201527f4552433732313a20617070726f766520746f2063616c6c65720000000000000060448201526064016109db565b6001600160a01b038381166000818152606a6020908152604080832094871680845294825291829020805460ff191686151590811790915591519182527f17307eab39ab6107e8899845ad3d59bd9653f200f220920489ca2b5937696c319101611a5f565b613041848484612ad9565b61304d84848484613b85565b6120415760405162461bcd60e51b81526004016109db90615919565b6060600061019883815481106130815761308161541c565b9060005260206000209060050201604051806101600160405290816000820180546130ab906151cb565b80601f01602080910402602001604051908101604052809291908181526020018280546130d7906151cb565b80156131245780601f106130f957610100808354040283529160200191613124565b820191906000526020600020905b81548152906001019060200180831161310757829003601f168201915b5050505050815260200160018201805461313d906151cb565b80601f0160208091040260200160405190810160405280929190818152602001828054613169906151cb565b80156131b65780601f1061318b576101008083540402835291602001916131b6565b820191906000526020600020905b81548152906001019060200180831161319957829003601f168201915b505050505081526020016002820180546131cf906151cb565b80601f01602080910402602001604051908101604052809291908181526020018280546131fb906151cb565b80156132485780601f1061321d57610100808354040283529160200191613248565b820191906000526020600020905b81548152906001019060200180831161322b57829003601f168201915b5050505050815260200160038201805480602002602001604051908101604052809291908181526020016000905b82821015613322578382906000526020600020018054613295906151cb565b80601f01602080910402602001604051908101604052809291908181526020018280546132c1906151cb565b801561330e5780601f106132e35761010080835404028352916020019161330e565b820191906000526020600020905b8154815290600101906020018083116132f157829003601f168201915b505050505081526020019060010190613276565b505050908252506004919091015463ffffffff808216602080850191909152600160201b830482166040850152600160401b830482166060850152600160601b830482166080850152600160801b8304821660a0850152600160a01b8304821660c0850152600160c01b9092041660e0909201919091528101519091506133ae90600a90601490613c86565b6133ec600a603c6133c8856080015163ffffffff16613cc5565b6040516020016133d8919061596b565b604051602081830303815290604052613c86565b613416600a60646134068660a0015163ffffffff16613cc5565b6040516020016133d89190615997565b613440600a60786134308760c0015163ffffffff16613cc5565b6040516020016133d891906159b6565b61346a600a608c61345a8860e0015163ffffffff16613cc5565b6040516020016133d891906159e3565b613495600a60a061348589610100015163ffffffff16613cc5565b6040516020016133d89190615a03565b6134c0600a60b46134b08a610120015163ffffffff16613cc5565b6040516020016133d89190615a23565b6134eb600a60c86134db8b610140015163ffffffff16613cc5565b6040516020016133d89190615a43565b604051602001613502989796959493929190615a63565b60408051601f19818403018152919052915060f060005b8260600151518110156135ca576004613533826001615c05565b116135ca5783613595600a613549846014615c18565b6135539086615c05565b613566613561866001615c05565b613cc5565b8760600151868151811061357c5761357c61541c565b60200260200101516040516020016133d8929190615c2f565b6040516020016135a6929190615c7d565b604051602081830303815290604052935080806135c290615cac565b915050613519565b50826040516020016135dc9190615cc5565b60405160208183030381529060405292505050919050565b6060815160000361361357505060408051602081019091526000815290565b6000604051806060016040528060408152602001615f1560409139905060006003845160026136429190615c05565b61364c9190615cef565b613657906004615c18565b6001600160401b0381111561366e5761366e6149f3565b6040519080825280601f01601f191660200182016040528015613698576020820181803683370190505b509050600182016020820185865187015b80821015613704576003820191508151603f8160121c168501518453600184019350603f81600c1c168501518453600184019350603f8160061c168501518453600184019350603f81168501518453506001830192506136a9565b505060038651066001811461372057600281146137335761373b565b603d6001830353603d600283035361373b565b603d60018303535b509195945050505050565b60006108a8825490565b60006001600160e01b03198216637965db0b60e01b14806108a857506108a882613d57565b61377f8282611b92565b610e515761378c81613da7565b613797836020613db9565b6040516020016137a8929190615d11565b60408051601f198184030181529082905262461bcd60e51b82526109db91600401614922565b6001600160a01b0384166137eb576137e68383613f54565b612041565b6001600160a01b038316613803576137e68483613f99565b61380d8483613f99565b6137e68383613f54565b6138218282611b92565b610e515760008281526097602090815260408083206001600160a01b03851684529091529020805460ff191660011790556138593390565b6001600160a01b0316816001600160a01b0316837f2f8788117e7eff1d82e926ec794901d17c78024a50270940304540a733656f0d60405160405180910390a45050565b6000611b8b836001600160a01b0384166140d7565b6138bc8282611b92565b15610e515760008281526097602090815260408083206001600160a01b0385168085529252808320805460ff1916905551339285917ff6391f5c32d9c69d2a47ea670b442974b53935d1edc7fd64eb21e047a839171b9190a45050565b6000611b8b836001600160a01b038416614126565b6001600160a01b0381163b61399b5760405162461bcd60e51b815260206004820152602d60248201527f455243313936373a206e657720696d706c656d656e746174696f6e206973206e60448201526c1bdd08184818dbdb9d1c9858dd609a1b60648201526084016109db565b600080516020615ef583398151915280546001600160a01b0319166001600160a01b0392909216919091179055565b6139d383614219565b6000825111806139e05750805b15610a7c576120418383614259565b600054610100900460ff16613a165760405162461bcd60e51b81526004016109db906158ce565b6065613a228382615253565b506066610a7c8282615253565b600054610100900460ff16612cc75760405162461bcd60e51b81526004016109db906158ce565b6000613aab826040518060400160405280602081526020017f5361666545524332303a206c6f772d6c6576656c2063616c6c206661696c6564815250856001600160a01b031661434d9092919063ffffffff16565b805190915015610a7c5780806020019051810190613ac99190615d86565b610a7c5760405162461bcd60e51b815260206004820152602a60248201527f5361666545524332303a204552433230206f7065726174696f6e20646964206e6044820152691bdd081cdd58d8d9595960b21b60648201526084016109db565b613b32838361435c565b613b3f6000848484613b85565b610a7c5760405162461bcd60e51b81526004016109db90615919565b6000826000018281548110613b7257613b7261541c565b9060005260206000200154905092915050565b60006001600160a01b0384163b15613c7b57604051630a85bd0160e11b81526001600160a01b0385169063150b7a0290613bc9903390899088908890600401615da3565b6020604051808303816000875af1925050508015613c04575060408051601f3d908101601f19168201909252613c0191810190615de0565b60015b613c61573d808015613c32576040519150601f19603f3d011682016040523d82523d6000602084013e613c37565b606091505b508051600003613c595760405162461bcd60e51b81526004016109db90615919565b805181602001fd5b6001600160e01b031916630a85bd0160e11b149050612ad1565b506001949350505050565b6060613c9184613cc5565b613c9a84613cc5565b83604051602001613cad93929190615dfd565b60405160208183030381529060405290509392505050565b60606000613cd2836144f5565b60010190506000816001600160401b03811115613cf157613cf16149f3565b6040519080825280601f01601f191660200182016040528015613d1b576020820181803683370190505b5090508181016020015b600019016f181899199a1a9b1b9c1cb0b131b232b360811b600a86061a8153600a8504945084613d2557509392505050565b60006001600160e01b031982166380ac58cd60e01b1480613d8857506001600160e01b03198216635b5e139f60e01b145b806108a857506301ffc9a760e01b6001600160e01b03198316146108a8565b60606108a86001600160a01b03831660145b60606000613dc8836002615c18565b613dd3906002615c05565b6001600160401b03811115613dea57613dea6149f3565b6040519080825280601f01601f191660200182016040528015613e14576020820181803683370190505b509050600360fc1b81600081518110613e2f57613e2f61541c565b60200101906001600160f81b031916908160001a905350600f60fb1b81600181518110613e5e57613e5e61541c565b60200101906001600160f81b031916908160001a9053506000613e82846002615c18565b613e8d906001615c05565b90505b6001811115613f05576f181899199a1a9b1b9c1cb0b131b232b360811b85600f1660108110613ec157613ec161541c565b1a60f81b828281518110613ed757613ed761541c565b60200101906001600160f81b031916908160001a90535060049490941c93613efe81615e98565b9050613e90565b508315611b8b5760405162461bcd60e51b815260206004820181905260248201527f537472696e67733a20686578206c656e67746820696e73756666696369656e7460448201526064016109db565b6001600160a01b039091166000908152610197602081815260408084208054610195845282862087875284529185208290559282526001810183559183529091200155565b6001600160a01b0382166000908152610197602052604081208054613fc090600190615eaf565b81548110613fd057613fd061541c565b60009182526020808320909101546001600160a01b038616835261019582526040808420868552909252912054909150828214614042576001600160a01b0384166000908152610197602052604090208054839190839081106140355761403561541c565b6000918252602090912001555b6001600160a01b03841660009081526101976020526040902080548061406a5761406a615ec2565b6000828152602080822083016000199081018390559092019092556001600160a01b038616825261019581526040808320868452909152812055818314612041576001600160a01b0393909316600090815261019560209081526040808320938352929052209190915550565b600081815260018301602052604081205461411e575081546001818101845560008481526020808220909301849055845484825282860190935260409020919091556108a8565b5060006108a8565b6000818152600183016020526040812054801561420f57600061414a600183615eaf565b855490915060009061415e90600190615eaf565b90508181146141c357600086600001828154811061417e5761417e61541c565b90600052602060002001549050808760000184815481106141a1576141a161541c565b6000918252602080832090910192909255918252600188019052604090208390555b85548690806141d4576141d4615ec2565b6001900381819060005260206000200160009055905585600101600086815260200190815260200160002060009055600193505050506108a8565b60009150506108a8565b6142228161392e565b6040516001600160a01b038216907fbc7cd75a20ee27fd9adebab32041f755214dbc6bffa90cc0225b39da2e5c2d3b90600090a250565b60606001600160a01b0383163b6142c15760405162461bcd60e51b815260206004820152602660248201527f416464726573733a2064656c65676174652063616c6c20746f206e6f6e2d636f6044820152651b9d1c9858dd60d21b60648201526084016109db565b600080846001600160a01b0316846040516142dc9190615ed8565b600060405180830381855af49150503d8060008114614317576040519150601f19603f3d011682016040523d82523d6000602084013e61431c565b606091505b50915091506143448282604051806060016040528060278152602001615f55602791396145cd565b95945050505050565b6060612ad184846000856145e6565b6001600160a01b0382166143b25760405162461bcd60e51b815260206004820181905260248201527f4552433732313a206d696e7420746f20746865207a65726f206164647265737360448201526064016109db565b6000818152606760205260409020546001600160a01b0316156144175760405162461bcd60e51b815260206004820152601c60248201527f4552433732313a20746f6b656e20616c7265616479206d696e7465640000000060448201526064016109db565b6144256000838360016137ce565b6000818152606760205260409020546001600160a01b03161561448a5760405162461bcd60e51b815260206004820152601c60248201527f4552433732313a20746f6b656e20616c7265616479206d696e7465640000000060448201526064016109db565b6001600160a01b038216600081815260686020908152604080832080546001019055848352606790915280822080546001600160a01b0319168417905551839291907fddf252ad1be2c89b69c2b068fc378daa952ba7f163c4a11628f55a4df523b3ef908290a45050565b60008072184f03e93ff9f4daa797ed6e38ed64bf6a1f0160401b83106145345772184f03e93ff9f4daa797ed6e38ed64bf6a1f0160401b830492506040015b6d04ee2d6d415b85acef81000000008310614560576d04ee2d6d415b85acef8100000000830492506020015b662386f26fc10000831061457e57662386f26fc10000830492506010015b6305f5e1008310614596576305f5e100830492506008015b61271083106145aa57612710830492506004015b606483106145bc576064830492506002015b600a83106108a85760010192915050565b606083156145dc575081611b8b565b611b8b83836146c1565b6060824710156146475760405162461bcd60e51b815260206004820152602660248201527f416464726573733a20696e73756666696369656e742062616c616e636520666f6044820152651c8818d85b1b60d21b60648201526084016109db565b600080866001600160a01b031685876040516146639190615ed8565b60006040518083038185875af1925050503d80600081146146a0576040519150601f19603f3d011682016040523d82523d6000602084013e6146a5565b606091505b50915091506146b6878383876146eb565b979650505050505050565b8151156146d15781518083602001fd5b8060405162461bcd60e51b81526004016109db9190614922565b6060831561475a578251600003614753576001600160a01b0385163b6147535760405162461bcd60e51b815260206004820152601d60248201527f416464726573733a2063616c6c20746f206e6f6e2d636f6e747261637400000060448201526064016109db565b5081612ad1565b612ad183836146c1565b8280548282559060005260206000209081019282156147aa579160200282015b828111156147aa578251829061479a9082615253565b5091602001919060010190614784565b506147b692915061486d565b5090565b5080546147c6906151cb565b6000825580601f106147d6575050565b601f016020900490600052602060002090810190610f31919061488a565b5080546000825590600052602060002090810190610f31919061486d565b60408051610160810182526060808252602082018190529181018290528181019190915260006080820181905260a0820181905260c0820181905260e082018190526101008201819052610120820181905261014082015290565b808211156147b657600061488182826147ba565b5060010161486d565b5b808211156147b6576000815560010161488b565b6001600160e01b031981168114610f3157600080fd5b6000602082840312156148c757600080fd5b8135611b8b8161489f565b60005b838110156148ed5781810151838201526020016148d5565b50506000910152565b6000815180845261490e8160208601602086016148d2565b601f01601f19169290920160200192915050565b602081526000611b8b60208301846148f6565b60006020828403121561494757600080fd5b5035919050565b80356001600160a01b038116811461496557600080fd5b919050565b6000806040838503121561497d57600080fd5b6149868361494e565b946020939093013593505050565b6000602082840312156149a657600080fd5b611b8b8261494e565b6020808252825182820181905260009190848201906040850190845b818110156149e7578351835292840192918401916001016149cb565b50909695505050505050565b634e487b7160e01b600052604160045260246000fd5b60405161016081016001600160401b0381118282101715614a2c57614a2c6149f3565b60405290565b604051601f8201601f191681016001600160401b0381118282101715614a5a57614a5a6149f3565b604052919050565b600082601f830112614a7357600080fd5b81356001600160401b03811115614a8c57614a8c6149f3565b614a9f601f8201601f1916602001614a32565b818152846020838601011115614ab457600080fd5b816020850160208301376000918101602001919091529392505050565b600060208284031215614ae357600080fd5b81356001600160401b03811115614af957600080fd5b612ad184828501614a62565b600080600060608486031215614b1a57600080fd5b614b238461494e565b9250614b316020850161494e565b9150604084013590509250925092565b60008060408385031215614b5457600080fd5b82359150614b646020840161494e565b90509250929050565b60006001600160401b03821115614b8657614b866149f3565b5060051b60200190565b600082601f830112614ba157600080fd5b81356020614bb6614bb183614b6d565b614a32565b82815260059290921b84018101918181019086841115614bd557600080fd5b8286015b84811015614c145780356001600160401b03811115614bf85760008081fd5b614c068986838b0101614a62565b845250918301918301614bd9565b509695505050505050565b803563ffffffff8116811461496557600080fd5b60008060408385031215614c4657600080fd5b614c4f8361494e565b915060208301356001600160401b0380821115614c6b57600080fd5b908401906101608287031215614c8057600080fd5b614c88614a09565b823582811115614c9757600080fd5b614ca388828601614a62565b825250602083013582811115614cb857600080fd5b614cc488828601614a62565b602083015250604083013582811115614cdc57600080fd5b614ce888828601614a62565b604083015250606083013582811115614d0057600080fd5b614d0c88828601614b90565b606083015250614d1e60808401614c1f565b6080820152614d2f60a08401614c1f565b60a0820152614d4060c08401614c1f565b60c0820152614d5160e08401614c1f565b60e08201526101009150614d66828401614c1f565b828201526101209150614d7a828401614c1f565b828201526101409150614d8e828401614c1f565b828201528093505050509250929050565b60008060408385031215614db257600080fd5b614dbb8361494e565b915060208301356001600160401b03811115614dd657600080fd5b614de285828601614a62565b9150509250929050565b60008060008060808587031215614e0257600080fd5b84356001600160401b03811115614e1857600080fd5b614e2487828801614a62565b945050614e336020860161494e565b925060408501359150614e486060860161494e565b905092959194509250565b600080600060608486031215614e6857600080fd5b614e718461494e565b95602085013595506040909401359392505050565b60008060408385031215614e9957600080fd5b50508035926020909101359150565b8015158114610f3157600080fd5b60008060408385031215614ec957600080fd5b614ed28361494e565b91506020830135614ee281614ea8565b809150509250929050565b60006020808385031215614f0057600080fd5b82356001600160401b03811115614f1657600080fd5b8301601f81018513614f2757600080fd5b8035614f35614bb182614b6d565b81815260059190911b82018301908381019087831115614f5457600080fd5b928401925b828410156146b657833582529284019290840190614f59565b600081518084526020808501808196508360051b8101915082860160005b85811015614fba578284038952614fa88483516148f6565b98850198935090840190600101614f90565b5091979650505050505050565b60006101608251818552614fdd828601826148f6565b91505060208301518482036020860152614ff782826148f6565b9150506040830151848203604086015261501182826148f6565b9150506060830151848203606086015261502b8282614f72565b9150506080830151615045608086018263ffffffff169052565b5060a083015161505d60a086018263ffffffff169052565b5060c083015161507560c086018263ffffffff169052565b5060e083015161508d60e086018263ffffffff169052565b506101008381015163ffffffff9081169186019190915261012080850151821690860152610140938401511692909301919091525090565b6000602080830181845280855180835260408601915060408160051b870101925083870160005b8281101561511a57603f19888603018452615108858351614fc7565b945092850192908501906001016150ec565b5092979650505050505050565b6000806000806080858703121561513d57600080fd5b6151468561494e565b93506151546020860161494e565b92506040850135915060608501356001600160401b0381111561517657600080fd5b61518287828801614a62565b91505092959194509250565b602081526000611b8b6020830184614fc7565b600080604083850312156151b457600080fd5b6151bd8361494e565b9150614b646020840161494e565b600181811c908216806151df57607f821691505b6020821081036151ff57634e487b7160e01b600052602260045260246000fd5b50919050565b601f821115610a7c57600081815260208120601f850160051c8101602086101561522c5750805b601f850160051c820191505b8181101561524b57828155600101615238565b505050505050565b81516001600160401b0381111561526c5761526c6149f3565b6152808161527a84546151cb565b84615205565b602080601f8311600181146152b5576000841561529d5750858301515b600019600386901b1c1916600185901b17855561524b565b600085815260208120601f198616915b828110156152e4578886015182559484019460019091019084016152c5565b50858210156153025787850151600019600388901b60f8161c191681555b5050505050600190811b01905550565b60408152600061532560408301856148f6565b828103602084015261434481856148f6565b6020808252602d908201527f4552433732313a2063616c6c6572206973206e6f7420746f6b656e206f776e6560408201526c1c881bdc88185c1c1c9bdd9959609a1b606082015260800190565b6020808252602c908201527f46756e6374696f6e206d7573742062652063616c6c6564207468726f7567682060408201526b19195b1959d85d1958d85b1b60a21b606082015260800190565b6020808252602c908201527f46756e6374696f6e206d7573742062652063616c6c6564207468726f7567682060408201526b6163746976652070726f787960a01b606082015260800190565b634e487b7160e01b600052603260045260246000fd5b60006020828403121561544457600080fd5b5051919050565b6000815161545d8185602086016148d2565b9290920192915050565b693d913730b6b2911d101160b11b8152835160009061548d81600a8501602089016148d2565b72111610113232b9b1b934b83a34b7b7111d101160691b600a9184019182015284516154c081601d8401602089016148d2565b7f222c2022696d616765223a2022646174613a696d6167652f7376672b786d6c3b601d92909101918201526618985cd94d8d0b60ca1b603d820152835161550e8160448401602088016148d2565b61227d60f01b6044929091019182015260460195945050505050565b7f646174613a6170706c69636174696f6e2f6a736f6e3b6261736536342c00000081526000825161556281601d8501602087016148d2565b91909101601d0192915050565b7f3c73766720786d6c6e733d27687474703a2f2f7777772e77332e6f72672f323081527f30302f73766727207072657365727665417370656374526174696f3d27784d6960208201527f6e594d696e206d656574272076696577426f783d27302030203335302033353060408201527f273e3c7374796c653e2e62617365207b2066696c6c3a2077686974653b20666f60608201527f6e742d66616d696c793a2073657269663b20666f6e742d73697a653a2032347060808201527f783b207d3c2f7374796c653e3c726563742077696474683d273130302527206860a08201527f65696768743d2731303025272066696c6c3d27626c61636b27202f3e3c74657860c08201527f7420783d273530252720793d273530252720636c6173733d276261736527206460e08201527f6f6d696e616e742d626173656c696e653d276d6964646c652720746578742d616101008201526e3731b437b91e93b6b4b2323632939f60891b610120820152600061012f83516156f381838601602088016148d2565b83016157108282016c1e17ba32bc3a1f1e17b9bb339f60991b9052565b61013c01949350505050565b693d913730b6b2911d101160b11b81528451600090602061574382600a8601838b016148d2565b72111610113232b9b1b934b83a34b7b7111d101160691b600a92850192830152865161577581601d8501848b016148d2565b7f2069732047656e657261746976652041492047616d652e222c2022696d616765601d93909101928301527f223a2022646174613a696d6167652f7376672b786d6c3b6261736536342c0000603d83015285516157d881605b8501848a016148d2565b741116101132bc3a32b93730b62fb634b735911d101160591b605b9390910192830152845460709060009061580c816151cb565b60018281168015615824576001811461583d5761586d565b60ff19841688870152821515830288018601945061586d565b8a6000528660002060005b848110156158635781548a8201890152908301908801615848565b5050858389010194505b505061227d60f01b835250506002019998505050505050505050565b60208082526025908201527f4552433732313a207472616e736665722066726f6d20696e636f72726563742060408201526437bbb732b960d91b606082015260800190565b6020808252602b908201527f496e697469616c697a61626c653a20636f6e7472616374206973206e6f74206960408201526a6e697469616c697a696e6760a81b606082015260800190565b60208082526032908201527f4552433732313a207472616e7366657220746f206e6f6e20455243373231526560408201527131b2b4bb32b91034b6b83632b6b2b73a32b960711b606082015260800190565b630262b1d160e51b81526000825161598a8160048501602087016148d2565b9190910160040192915050565b63024281d160e51b81526000825161598a8160048501602087016148d2565b64020aa259d160dd1b8152600082516159d68160058501602087016148d2565b9190910160050192915050565b6402222a31d160dd1b8152600082516159d68160058501602087016148d2565b64024a72a1d160dd1b8152600082516159d68160058501602087016148d2565b64026a3a91d160dd1b8152600082516159d68160058501602087016148d2565b64020a3a61d160dd1b8152600082516159d68160058501602087016148d2565b7f3c73766720786d6c6e733d22687474703a2f2f7777772e77332e6f72672f323081527f30302f73766722207072657365727665417370656374526174696f3d22784d6960208201527f6e594d696e206d656574222076696577426f783d22302030203335302033353060408201527f223e3c7374796c653e2e62617365207b2066696c6c3a2077686974653b20666f60608201527f6e742d66616d696c793a2073657269663b20666f6e742d73697a653a2031347060808201527f783b207d3c2f7374796c653e3c726563742077696474683d223130302522206860a08201527f65696768743d2231303025222066696c6c3d22626c61636b22202f3e0000000060c082015260008951615b7f8160dc850160208e016148d2565b895190830190615b968160dc840160208e016148d2565b8951910190615bac8160dc840160208d016148d2565b615bdf615bd9615bd3615bcd615bc760dc868801018e61544b565b8c61544b565b8a61544b565b8861544b565b8661544b565b9c9b505050505050505050505050565b634e487b7160e01b600052601160045260246000fd5b808201808211156108a8576108a8615bef565b80820281158282048414176108a8576108a8615bef565b6414dada5b1b60da1b815260008351615c4f8160058501602088016148d2565b6101d160f51b6005918401918201528351615c718160078401602088016148d2565b01600701949350505050565b60008351615c8f8184602088016148d2565b835190830190615ca38183602088016148d2565b01949350505050565b600060018201615cbe57615cbe615bef565b5060010190565b60008251615cd78184602087016148d2565b651e17b9bb339f60d11b920191825250600601919050565b600082615d0c57634e487b7160e01b600052601260045260246000fd5b500490565b7f416363657373436f6e74726f6c3a206163636f756e7420000000000000000000815260008351615d498160178501602088016148d2565b7001034b99036b4b9b9b4b733903937b6329607d1b6017918401918201528351615d7a8160288401602088016148d2565b01602801949350505050565b600060208284031215615d9857600080fd5b8151611b8b81614ea8565b6001600160a01b0385811682528416602082015260408101839052608060608201819052600090615dd6908301846148f6565b9695505050505050565b600060208284031215615df257600080fd5b8151611b8b8161489f565b681e3a32bc3a103c1e9160b91b81528351600090615e228160098501602089016148d2565b6411103c9e9160d91b6009918401918201528451615e4781600e8401602089016148d2565b6e111031b630b9b99e913130b9b2911f60891b600e92909101918201528351615e7781601d8401602088016148d2565b661e17ba32bc3a1f60c91b601d929091019182015260240195945050505050565b600081615ea757615ea7615bef565b506000190190565b818103818111156108a8576108a8615bef565b634e487b7160e01b600052603160045260246000fd5b60008251615eea8184602087016148d2565b919091019291505056fe360894a13ba1a3210667c828492db98dca3e2076cc3735a920a3ca505d382bbc4142434445464748494a4b4c4d4e4f505152535455565758595a6162636465666768696a6b6c6d6e6f707172737475767778797a303132333435363738392b2f416464726573733a206c6f772d6c6576656c2064656c65676174652063616c6c206661696c6564a26469706673582212205974edaca0e00b684d4e56b2f3dba2dfb2cc6b1c9ab849117f7973615616f5b664736f6c63430008120033",
  "linkReferences": {},
  "deployedLinkReferences": {}
}