{
  "_format": "hh-sol-artifact-1",
  "contractName": "PromptMonsters",
  "sourceName": "contracts/prompt-monsters/PromptMonsters.sol",
  "abi": [
    {
      "inputs": [],
      "stateMutability": "nonpayable",
      "type": "constructor"
    },
    {
      "anonymous": false,
      "inputs": [
        {
          "indexed": false,
          "internalType": "address",
          "name": "previousAdmin",
          "type": "address"
        },
        {
          "indexed": false,
          "internalType": "address",
          "name": "newAdmin",
          "type": "address"
        }
      ],
      "name": "AdminChanged",
      "type": "event"
    },
    {
      "anonymous": false,
      "inputs": [
        {
          "indexed": true,
          "internalType": "address",
          "name": "owner",
          "type": "address"
        },
        {
          "indexed": true,
          "internalType": "address",
          "name": "approved",
          "type": "address"
        },
        {
          "indexed": true,
          "internalType": "uint256",
          "name": "tokenId",
          "type": "uint256"
        }
      ],
      "name": "Approval",
      "type": "event"
    },
    {
      "anonymous": false,
      "inputs": [
        {
          "indexed": true,
          "internalType": "address",
          "name": "owner",
          "type": "address"
        },
        {
          "indexed": true,
          "internalType": "address",
          "name": "operator",
          "type": "address"
        },
        {
          "indexed": false,
          "internalType": "bool",
          "name": "approved",
          "type": "bool"
        }
      ],
      "name": "ApprovalForAll",
      "type": "event"
    },
    {
      "anonymous": false,
      "inputs": [
        {
          "indexed": true,
          "internalType": "address",
          "name": "beacon",
          "type": "address"
        }
      ],
      "name": "BeaconUpgraded",
      "type": "event"
    },
    {
      "anonymous": false,
      "inputs": [
        {
          "indexed": false,
          "internalType": "uint8",
          "name": "version",
          "type": "uint8"
        }
      ],
      "name": "Initialized",
      "type": "event"
    },
    {
      "anonymous": false,
      "inputs": [
        {
          "indexed": true,
          "internalType": "address",
          "name": "previousOwner",
          "type": "address"
        },
        {
          "indexed": true,
          "internalType": "address",
          "name": "newOwner",
          "type": "address"
        }
      ],
      "name": "OwnershipTransferred",
      "type": "event"
    },
    {
      "anonymous": false,
      "inputs": [
        {
          "indexed": true,
          "internalType": "address",
          "name": "publisher",
          "type": "address"
        },
        {
          "indexed": false,
          "internalType": "string",
          "name": "oldValue",
          "type": "string"
        },
        {
          "indexed": false,
          "internalType": "string",
          "name": "newValue",
          "type": "string"
        }
      ],
      "name": "SetExternalLink",
      "type": "event"
    },
    {
      "anonymous": false,
      "inputs": [
        {
          "indexed": true,
          "internalType": "address",
          "name": "from",
          "type": "address"
        },
        {
          "indexed": true,
          "internalType": "address",
          "name": "to",
          "type": "address"
        },
        {
          "indexed": true,
          "internalType": "uint256",
          "name": "tokenId",
          "type": "uint256"
        }
      ],
      "name": "Transfer",
      "type": "event"
    },
    {
      "anonymous": false,
      "inputs": [
        {
          "indexed": true,
          "internalType": "address",
          "name": "implementation",
          "type": "address"
        }
      ],
      "name": "Upgraded",
      "type": "event"
    },
    {
      "inputs": [
        {
          "internalType": "address",
          "name": "to",
          "type": "address"
        },
        {
          "internalType": "uint256",
          "name": "tokenId",
          "type": "uint256"
        }
      ],
      "name": "approve",
      "outputs": [],
      "stateMutability": "nonpayable",
      "type": "function"
    },
    {
      "inputs": [
        {
          "internalType": "address",
          "name": "owner",
          "type": "address"
        }
      ],
      "name": "balanceOf",
      "outputs": [
        {
          "internalType": "uint256",
          "name": "",
          "type": "uint256"
        }
      ],
      "stateMutability": "view",
      "type": "function"
    },
    {
      "inputs": [
        {
          "internalType": "uint256",
          "name": "tokenId_",
          "type": "uint256"
        }
      ],
      "name": "burn",
      "outputs": [],
      "stateMutability": "nonpayable",
      "type": "function"
    },
    {
      "inputs": [],
      "name": "contractURI",
      "outputs": [
        {
          "internalType": "string",
          "name": "uri",
          "type": "string"
        }
      ],
      "stateMutability": "view",
      "type": "function"
    },
    {
      "inputs": [
        {
          "internalType": "uint256",
          "name": "tokenId",
          "type": "uint256"
        }
      ],
      "name": "getApproved",
      "outputs": [
        {
          "internalType": "address",
          "name": "",
          "type": "address"
        }
      ],
      "stateMutability": "view",
      "type": "function"
    },
    {
      "inputs": [
        {
          "internalType": "uint256[]",
          "name": "tokenIds_",
          "type": "uint256[]"
        }
      ],
      "name": "getMonsters",
      "outputs": [
        {
          "components": [
            {
              "internalType": "string",
              "name": "name",
              "type": "string"
            },
            {
              "internalType": "string",
              "name": "flavor",
              "type": "string"
            },
            {
              "internalType": "string[]",
              "name": "skills",
              "type": "string[]"
            },
            {
              "internalType": "uint32",
              "name": "lv",
              "type": "uint32"
            },
            {
              "internalType": "uint32",
              "name": "hp",
              "type": "uint32"
            },
            {
              "internalType": "uint32",
              "name": "atk",
              "type": "uint32"
            },
            {
              "internalType": "uint32",
              "name": "def",
              "type": "uint32"
            },
            {
              "internalType": "uint32",
              "name": "inte",
              "type": "uint32"
            },
            {
              "internalType": "uint32",
              "name": "mgr",
              "type": "uint32"
            },
            {
              "internalType": "uint32",
              "name": "agl",
              "type": "uint32"
            },
            {
              "internalType": "uint16",
              "name": "maxSkills",
              "type": "uint16"
            },
            {
              "internalType": "uint16",
              "name": "maxSkillsSet",
              "type": "uint16"
            }
          ],
          "internalType": "struct IPromptMonsters.Monster[]",
          "name": "monsters",
          "type": "tuple[]"
        }
      ],
      "stateMutability": "view",
      "type": "function"
    },
    {
      "inputs": [],
      "name": "getMonstersTotalSupply",
      "outputs": [
        {
          "internalType": "uint256",
          "name": "totalSupply",
          "type": "uint256"
        }
      ],
      "stateMutability": "view",
      "type": "function"
    },
    {
      "inputs": [
        {
          "internalType": "address",
          "name": "owner",
          "type": "address"
        }
      ],
      "name": "getOwnerToTokenIds",
      "outputs": [
        {
          "internalType": "uint256[]",
          "name": "tokenIds",
          "type": "uint256[]"
        }
      ],
      "stateMutability": "view",
      "type": "function"
    },
    {
      "inputs": [
        {
          "internalType": "string",
          "name": "externalLink_",
          "type": "string"
        }
      ],
      "name": "initialize",
      "outputs": [],
      "stateMutability": "nonpayable",
      "type": "function"
    },
    {
      "inputs": [
        {
          "internalType": "address",
          "name": "owner",
          "type": "address"
        },
        {
          "internalType": "address",
          "name": "operator",
          "type": "address"
        }
      ],
      "name": "isApprovedForAll",
      "outputs": [
        {
          "internalType": "bool",
          "name": "",
          "type": "bool"
        }
      ],
      "stateMutability": "view",
      "type": "function"
    },
    {
      "inputs": [
        {
          "components": [
            {
              "internalType": "string",
              "name": "name",
              "type": "string"
            },
            {
              "internalType": "string",
              "name": "flavor",
              "type": "string"
            },
            {
              "internalType": "string[]",
              "name": "skills",
              "type": "string[]"
            },
            {
              "internalType": "uint32",
              "name": "lv",
              "type": "uint32"
            },
            {
              "internalType": "uint32",
              "name": "hp",
              "type": "uint32"
            },
            {
              "internalType": "uint32",
              "name": "atk",
              "type": "uint32"
            },
            {
              "internalType": "uint32",
              "name": "def",
              "type": "uint32"
            },
            {
              "internalType": "uint32",
              "name": "inte",
              "type": "uint32"
            },
            {
              "internalType": "uint32",
              "name": "mgr",
              "type": "uint32"
            },
            {
              "internalType": "uint32",
              "name": "agl",
              "type": "uint32"
            },
            {
              "internalType": "uint16",
              "name": "maxSkills",
              "type": "uint16"
            },
            {
              "internalType": "uint16",
              "name": "maxSkillsSet",
              "type": "uint16"
            }
          ],
          "internalType": "struct IPromptMonsters.Monster",
          "name": "monster_",
          "type": "tuple"
        }
      ],
      "name": "mint",
      "outputs": [],
      "stateMutability": "nonpayable",
      "type": "function"
    },
    {
      "inputs": [
        {
          "internalType": "address",
          "name": "to_",
          "type": "address"
        },
        {
          "components": [
            {
              "internalType": "string",
              "name": "name",
              "type": "string"
            },
            {
              "internalType": "string",
              "name": "flavor",
              "type": "string"
            },
            {
              "internalType": "string[]",
              "name": "skills",
              "type": "string[]"
            },
            {
              "internalType": "uint32",
              "name": "lv",
              "type": "uint32"
            },
            {
              "internalType": "uint32",
              "name": "hp",
              "type": "uint32"
            },
            {
              "internalType": "uint32",
              "name": "atk",
              "type": "uint32"
            },
            {
              "internalType": "uint32",
              "name": "def",
              "type": "uint32"
            },
            {
              "internalType": "uint32",
              "name": "inte",
              "type": "uint32"
            },
            {
              "internalType": "uint32",
              "name": "mgr",
              "type": "uint32"
            },
            {
              "internalType": "uint32",
              "name": "agl",
              "type": "uint32"
            },
            {
              "internalType": "uint16",
              "name": "maxSkills",
              "type": "uint16"
            },
            {
              "internalType": "uint16",
              "name": "maxSkillsSet",
              "type": "uint16"
            }
          ],
          "internalType": "struct IPromptMonsters.Monster",
          "name": "monster_",
          "type": "tuple"
        }
      ],
      "name": "mintOnlyOwner",
      "outputs": [],
      "stateMutability": "nonpayable",
      "type": "function"
    },
    {
      "inputs": [],
      "name": "name",
      "outputs": [
        {
          "internalType": "string",
          "name": "",
          "type": "string"
        }
      ],
      "stateMutability": "view",
      "type": "function"
    },
    {
      "inputs": [],
      "name": "owner",
      "outputs": [
        {
          "internalType": "address",
          "name": "",
          "type": "address"
        }
      ],
      "stateMutability": "view",
      "type": "function"
    },
    {
      "inputs": [
        {
          "internalType": "uint256",
          "name": "tokenId",
          "type": "uint256"
        }
      ],
      "name": "ownerOf",
      "outputs": [
        {
          "internalType": "address",
          "name": "",
          "type": "address"
        }
      ],
      "stateMutability": "view",
      "type": "function"
    },
    {
      "inputs": [],
      "name": "proxiableUUID",
      "outputs": [
        {
          "internalType": "bytes32",
          "name": "",
          "type": "bytes32"
        }
      ],
      "stateMutability": "view",
      "type": "function"
    },
    {
      "inputs": [],
      "name": "renounceOwnership",
      "outputs": [],
      "stateMutability": "nonpayable",
      "type": "function"
    },
    {
      "inputs": [
        {
          "internalType": "address",
          "name": "from",
          "type": "address"
        },
        {
          "internalType": "address",
          "name": "to",
          "type": "address"
        },
        {
          "internalType": "uint256",
          "name": "tokenId",
          "type": "uint256"
        }
      ],
      "name": "safeTransferFrom",
      "outputs": [],
      "stateMutability": "nonpayable",
      "type": "function"
    },
    {
      "inputs": [
        {
          "internalType": "address",
          "name": "from",
          "type": "address"
        },
        {
          "internalType": "address",
          "name": "to",
          "type": "address"
        },
        {
          "internalType": "uint256",
          "name": "tokenId",
          "type": "uint256"
        },
        {
          "internalType": "bytes",
          "name": "data",
          "type": "bytes"
        }
      ],
      "name": "safeTransferFrom",
      "outputs": [],
      "stateMutability": "nonpayable",
      "type": "function"
    },
    {
      "inputs": [
        {
          "internalType": "address",
          "name": "operator",
          "type": "address"
        },
        {
          "internalType": "bool",
          "name": "approved",
          "type": "bool"
        }
      ],
      "name": "setApprovalForAll",
      "outputs": [],
      "stateMutability": "nonpayable",
      "type": "function"
    },
    {
      "inputs": [
        {
          "internalType": "string",
          "name": "newState_",
          "type": "string"
        }
      ],
      "name": "setExternalLink",
      "outputs": [],
      "stateMutability": "nonpayable",
      "type": "function"
    },
    {
      "inputs": [
        {
          "internalType": "bytes4",
          "name": "interfaceId",
          "type": "bytes4"
        }
      ],
      "name": "supportsInterface",
      "outputs": [
        {
          "internalType": "bool",
          "name": "",
          "type": "bool"
        }
      ],
      "stateMutability": "view",
      "type": "function"
    },
    {
      "inputs": [],
      "name": "symbol",
      "outputs": [
        {
          "internalType": "string",
          "name": "",
          "type": "string"
        }
      ],
      "stateMutability": "view",
      "type": "function"
    },
    {
      "inputs": [
        {
          "internalType": "uint256",
          "name": "tokenId_",
          "type": "uint256"
        }
      ],
      "name": "tokenURI",
      "outputs": [
        {
          "internalType": "string",
          "name": "uri",
          "type": "string"
        }
      ],
      "stateMutability": "view",
      "type": "function"
    },
    {
      "inputs": [
        {
          "internalType": "address",
          "name": "from",
          "type": "address"
        },
        {
          "internalType": "address",
          "name": "to",
          "type": "address"
        },
        {
          "internalType": "uint256",
          "name": "tokenId",
          "type": "uint256"
        }
      ],
      "name": "transferFrom",
      "outputs": [],
      "stateMutability": "nonpayable",
      "type": "function"
    },
    {
      "inputs": [
        {
          "internalType": "address",
          "name": "newOwner",
          "type": "address"
        }
      ],
      "name": "transferOwnership",
      "outputs": [],
      "stateMutability": "nonpayable",
      "type": "function"
    },
    {
      "inputs": [
        {
          "internalType": "address",
          "name": "newImplementation",
          "type": "address"
        }
      ],
      "name": "upgradeTo",
      "outputs": [],
      "stateMutability": "nonpayable",
      "type": "function"
    },
    {
      "inputs": [
        {
          "internalType": "address",
          "name": "newImplementation",
          "type": "address"
        },
        {
          "internalType": "bytes",
          "name": "data",
          "type": "bytes"
        }
      ],
      "name": "upgradeToAndCall",
      "outputs": [],
      "stateMutability": "payable",
      "type": "function"
    }
  ],
  "bytecode": "0x60a0604052306080523480156200001557600080fd5b506200002062000026565b620000e8565b600054610100900460ff1615620000935760405162461bcd60e51b815260206004820152602760248201527f496e697469616c697a61626c653a20636f6e747261637420697320696e697469604482015266616c697a696e6760c81b606482015260840160405180910390fd5b60005460ff9081161015620000e6576000805460ff191660ff9081179091556040519081527f7f26b83ff96e1f2b6a682f133852f6798a09c465da95921460cefb38474024989060200160405180910390a15b565b608051614700620001206000396000818161090d0152818161094d01528181610bed01528181610c2d0152610cbc01526147006000f3fe6080604052600436106101b75760003560e01c80636352211e116100ec578063b5f8795b1161008a578063e8a3d48511610064578063e8a3d485146104db578063e985e9c5146104f0578063f2fde38b14610510578063f62d18881461053057600080fd5b8063b5f8795b1461047b578063b88d4fde1461049b578063c87b56dd146104bb57600080fd5b80638da5cb5b116100c65780638da5cb5b146103fb57806395d89b4114610419578063a22cb4651461042e578063b2664c2e1461044e57600080fd5b80636352211e146103a657806370a08231146103c6578063715018a6146103e657600080fd5b80633659cfe61161015957806342966c681161013357806342966c681461033a5780634f1ef2861461035a57806352d1902d1461036d57806352dd29d21461039057600080fd5b80633659cfe6146102da57806337b73f1a146102fa57806342842e0e1461031a57600080fd5b8063095ea7b311610195578063095ea7b31461024b5780630fd7efc41461026d5780631f9179211461029a57806323b872dd146102ba57600080fd5b806301ffc9a7146101bc57806306fdde03146101f1578063081812fc14610213575b600080fd5b3480156101c857600080fd5b506101dc6101d7366004613182565b610550565b60405190151581526020015b60405180910390f35b3480156101fd57600080fd5b506102066105a2565b6040516101e891906131ef565b34801561021f57600080fd5b5061023361022e366004613202565b610634565b6040516001600160a01b0390911681526020016101e8565b34801561025757600080fd5b5061026b610266366004613237565b61065b565b005b34801561027957600080fd5b5061028d610288366004613261565b610775565b6040516101e8919061327c565b3480156102a657600080fd5b5061026b6102b536600461339e565b6107e2565b3480156102c657600080fd5b5061026b6102d53660046133d2565b6108d2565b3480156102e657600080fd5b5061026b6102f5366004613261565b610903565b34801561030657600080fd5b5061026b610315366004613617565b6109e2565b34801561032657600080fd5b5061026b6103353660046133d2565b610b9f565b34801561034657600080fd5b5061026b610355366004613202565b610bba565b61026b610368366004613664565b610be3565b34801561037957600080fd5b50610382610caf565b6040519081526020016101e8565b34801561039c57600080fd5b5061015f54610382565b3480156103b257600080fd5b506102336103c1366004613202565b610d62565b3480156103d257600080fd5b506103826103e1366004613261565b610dc2565b3480156103f257600080fd5b5061026b610e48565b34801561040757600080fd5b506097546001600160a01b0316610233565b34801561042557600080fd5b50610206610e5c565b34801561043a57600080fd5b5061026b6104493660046136a7565b610e6b565b34801561045a57600080fd5b5061046e6104693660046136e3565b610e76565b6040516101e891906137c8565b34801561048757600080fd5b5061026b6104963660046138f5565b61129f565b3480156104a757600080fd5b5061026b6104b6366004613929565b611450565b3480156104c757600080fd5b506102066104d6366004613202565b611488565b3480156104e757600080fd5b506102066117d0565b3480156104fc57600080fd5b506101dc61050b366004613990565b611856565b34801561051c57600080fd5b5061026b61052b366004613261565b611884565b34801561053c57600080fd5b5061026b61054b36600461339e565b6118fa565b60006001600160e01b031982166380ac58cd60e01b148061058157506001600160e01b03198216635b5e139f60e01b145b8061059c57506301ffc9a760e01b6001600160e01b03198316145b92915050565b6060606580546105b1906139c3565b80601f01602080910402602001604051908101604052809291908181526020018280546105dd906139c3565b801561062a5780601f106105ff5761010080835404028352916020019161062a565b820191906000526020600020905b81548152906001019060200180831161060d57829003601f168201915b5050505050905090565b600061063f82611a75565b506000908152606960205260409020546001600160a01b031690565b600061066682610d62565b9050806001600160a01b0316836001600160a01b0316036106d85760405162461bcd60e51b815260206004820152602160248201527f4552433732313a20617070726f76616c20746f2063757272656e74206f776e656044820152603960f91b60648201526084015b60405180910390fd5b336001600160a01b03821614806106f457506106f48133611856565b6107665760405162461bcd60e51b815260206004820152603d60248201527f4552433732313a20617070726f76652063616c6c6572206973206e6f7420746f60448201527f6b656e206f776e6572206f7220617070726f76656420666f7220616c6c00000060648201526084016106cf565b6107708383611ad4565b505050565b6001600160a01b038116600090815261016060209081526040918290208054835181840281018401909452808452606093928301828280156107d657602002820191906000526020600020905b8154815260200190600101908083116107c2575b50505050509050919050565b6107ea611b42565b600061016280546107fa906139c3565b80601f0160208091040260200160405190810160405280929190818152602001828054610826906139c3565b80156108735780601f1061084857610100808354040283529160200191610873565b820191906000526020600020905b81548152906001019060200180831161085657829003601f168201915b5050505050905081610162908161088a9190613a4b565b50336001600160a01b03167ffceab947acbd3281d41fa085ba6d9503467fabd9e3d96e3ee0dbf6f8b04a9ca482846040516108c6929190613b0a565b60405180910390a25050565b6108dc3382611b9c565b6108f85760405162461bcd60e51b81526004016106cf90613b2f565b610770838383611bfb565b6001600160a01b037f000000000000000000000000000000000000000000000000000000000000000016300361094b5760405162461bcd60e51b81526004016106cf90613b7c565b7f00000000000000000000000000000000000000000000000000000000000000006001600160a01b0316610994600080516020614644833981519152546001600160a01b031690565b6001600160a01b0316146109ba5760405162461bcd60e51b81526004016106cf90613bc8565b6109c381611d6c565b604080516000808252602082019092526109df91839190611d74565b50565b6109ea611b42565b6109f2611edf565b61015f805460018101825560009190915281518290600483027f8c9815a58669fc89297bdc7dd447c098116f98e79093735c0992d0967b696ed901908190610a3a9082613a4b565b5060208201516001820190610a4f9082613a4b565b5060408201518051610a6b9160028401916020909101906130af565b5060608201516003919091018054608084015160a085015160c086015160e08701516101008801516101208901516101408a0151610160909a015163ffffffff998a1667ffffffffffffffff1990981697909717640100000000968a16969096029590951767ffffffffffffffff60401b1916600160401b9489169490940263ffffffff60601b191693909317600160601b928816929092029190911767ffffffffffffffff60801b1916600160801b9187169190910263ffffffff60a01b191617600160a01b918616919091021765ffffffffffff60c01b1916600160c01b949091169390930261ffff60e01b191692909217600160e01b61ffff94851602176001600160f01b0316600160f01b9390921692909202179055610b8f8382611f3a565b50610b9b600161012d55565b5050565b61077083838360405180602001604052806000815250611450565b610bc2611edf565b610bd8336097546001600160a01b031683610b9f565b6109df600161012d55565b6001600160a01b037f0000000000000000000000000000000000000000000000000000000000000000163003610c2b5760405162461bcd60e51b81526004016106cf90613b7c565b7f00000000000000000000000000000000000000000000000000000000000000006001600160a01b0316610c74600080516020614644833981519152546001600160a01b031690565b6001600160a01b031614610c9a5760405162461bcd60e51b81526004016106cf90613bc8565b610ca382611d6c565b610b9b82826001611d74565b6000306001600160a01b037f00000000000000000000000000000000000000000000000000000000000000001614610d4f5760405162461bcd60e51b815260206004820152603860248201527f555550535570677261646561626c653a206d757374206e6f742062652063616c60448201527f6c6564207468726f7567682064656c656761746563616c6c000000000000000060648201526084016106cf565b5060008051602061464483398151915290565b6000818152606760205260408120546001600160a01b03168061059c5760405162461bcd60e51b8152602060048201526018602482015277115490cdcc8c4e881a5b9d985b1a59081d1bdad95b88125160421b60448201526064016106cf565b60006001600160a01b038216610e2c5760405162461bcd60e51b815260206004820152602960248201527f4552433732313a2061646472657373207a65726f206973206e6f7420612076616044820152683634b21037bbb732b960b91b60648201526084016106cf565b506001600160a01b031660009081526068602052604090205490565b610e50611b42565b610e5a6000611f5c565b565b6060606680546105b1906139c3565b610b9b338383611fae565b805161015f5460609190811115610ee35760405162461bcd60e51b815260206004820152602b60248201527f50726f6d70744d6f6e73746572733a20746f6b656e4964734c656e677468206960448201526a7320746f6f206c6172676560a81b60648201526084016106cf565b806001600160401b03811115610efb57610efb6132c0565b604051908082528060200260200182016040528015610f8b57816020015b60408051610180810182526060808252602080830182905292820181905260009082018190526080820181905260a0820181905260c0820181905260e082018190526101008201819052610120820181905261014082018190526101608201528252600019909201910181610f195790505b50915060005b818110156112985761015f848281518110610fae57610fae613c14565b602002602001015181548110610fc657610fc6613c14565b906000526020600020906004020160405180610180016040529081600082018054610ff0906139c3565b80601f016020809104026020016040519081016040528092919081815260200182805461101c906139c3565b80156110695780601f1061103e57610100808354040283529160200191611069565b820191906000526020600020905b81548152906001019060200180831161104c57829003601f168201915b50505050508152602001600182018054611082906139c3565b80601f01602080910402602001604051908101604052809291908181526020018280546110ae906139c3565b80156110fb5780601f106110d0576101008083540402835291602001916110fb565b820191906000526020600020905b8154815290600101906020018083116110de57829003601f168201915b5050505050815260200160028201805480602002602001604051908101604052809291908181526020016000905b828210156111d5578382906000526020600020018054611148906139c3565b80601f0160208091040260200160405190810160405280929190818152602001828054611174906139c3565b80156111c15780601f10611196576101008083540402835291602001916111c1565b820191906000526020600020905b8154815290600101906020018083116111a457829003601f168201915b505050505081526020019060010190611129565b505050908252506003919091015463ffffffff8082166020840152640100000000820481166040840152600160401b820481166060840152600160601b820481166080840152600160801b8204811660a0840152600160a01b8204811660c0840152600160c01b82041660e083015261ffff600160e01b82048116610100840152600160f01b9091041661012090910152835184908390811061127a5761127a613c14565b6020026020010181905250808061129090613c40565b915050610f91565b5050919050565b6112a7611edf565b61015f805460018101825560009190915281518290600483027f8c9815a58669fc89297bdc7dd447c098116f98e79093735c0992d0967b696ed9019081906112ef9082613a4b565b50602082015160018201906113049082613a4b565b50604082015180516113209160028401916020909101906130af565b5060608201516003919091018054608084015160a085015160c086015160e08701516101008801516101208901516101408a0151610160909a015163ffffffff998a1667ffffffffffffffff1990981697909717640100000000968a16969096029590951767ffffffffffffffff60401b1916600160401b9489169490940263ffffffff60601b191693909317600160601b928816929092029190911767ffffffffffffffff60801b1916600160801b9187169190910263ffffffff60a01b191617600160a01b918616919091021765ffffffffffff60c01b1916600160c01b949091169390930261ffff60e01b191692909217600160e01b61ffff94851602176001600160f01b0316600160f01b93909216929092021790556114443382611f3a565b506109df600161012d55565b61145a3383611b9c565b6114765760405162461bcd60e51b81526004016106cf90613b2f565b6114828484848461207c565b50505050565b606061149382611a75565b600061149e836120af565b9050600061015f84815481106114b6576114b6613c14565b9060005260206000209060040201604051806101800160405290816000820180546114e0906139c3565b80601f016020809104026020016040519081016040528092919081815260200182805461150c906139c3565b80156115595780601f1061152e57610100808354040283529160200191611559565b820191906000526020600020905b81548152906001019060200180831161153c57829003601f168201915b50505050508152602001600182018054611572906139c3565b80601f016020809104026020016040519081016040528092919081815260200182805461159e906139c3565b80156115eb5780601f106115c0576101008083540402835291602001916115eb565b820191906000526020600020905b8154815290600101906020018083116115ce57829003601f168201915b5050505050815260200160028201805480602002602001604051908101604052809291908181526020016000905b828210156116c5578382906000526020600020018054611638906139c3565b80601f0160208091040260200160405190810160405280929190818152602001828054611664906139c3565b80156116b15780601f10611686576101008083540402835291602001916116b1565b820191906000526020600020905b81548152906001019060200180831161169457829003601f168201915b505050505081526020019060010190611619565b505050908252506003919091015463ffffffff808216602080850191909152640100000000830482166040850152600160401b830482166060850152600160601b830482166080850152600160801b8304821660a0850152600160a01b8304821660c0850152600160c01b830490911660e084015261ffff600160e01b83048116610100850152600160f01b909204909116610120909201919091528151908201519192506000916117a1919061177b866125c8565b60405160200161178d93929190613c75565b6040516020818303038152906040526125c8565b90506000816040516020016117b69190613d38565b60408051601f198184030181529190529695505050505050565b606060006117dc6105a2565b90506000816040516020016117f19190613d7d565b604051602081830303815290604052905060006118288384611812856125c8565b61016260405160200161178d9493929190613f2a565b905060008160405160200161183d9190613d38565b60408051601f1981840301815291905295945050505050565b6001600160a01b039182166000908152606a6020908152604080832093909416825291909152205460ff1690565b61188c611b42565b6001600160a01b0381166118f15760405162461bcd60e51b815260206004820152602660248201527f4f776e61626c653a206e6577206f776e657220697320746865207a65726f206160448201526564647265737360d01b60648201526084016106cf565b6109df81611f5c565b600054610100900460ff161580801561191a5750600054600160ff909116105b806119345750303b158015611934575060005460ff166001145b6119975760405162461bcd60e51b815260206004820152602e60248201527f496e697469616c697a61626c653a20636f6e747261637420697320616c72656160448201526d191e481a5b9a5d1a585b1a5e995960921b60648201526084016106cf565b6000805460ff1916600117905580156119ba576000805461ff0019166101001790555b611a066040518060400160405280600f81526020016e50726f6d7074204d6f6e737465727360881b8152506040518060400160405280600381526020016226a7a760e91b81525061271a565b611a0e61274b565b611a1661277a565b611a1e6127a1565b610162611a2b8382613a4b565b508015610b9b576000805461ff0019169055604051600181527f7f26b83ff96e1f2b6a682f133852f6798a09c465da95921460cefb38474024989060200160405180910390a15050565b6000818152606760205260409020546001600160a01b03166109df5760405162461bcd60e51b8152602060048201526018602482015277115490cdcc8c4e881a5b9d985b1a59081d1bdad95b88125160421b60448201526064016106cf565b600081815260696020526040902080546001600160a01b0319166001600160a01b0384169081179091558190611b0982610d62565b6001600160a01b03167f8c5be1e5ebec7d5bd14f71427d1e84f3dd0314c0f7b2291e5b200ac8c7c3b92560405160405180910390a45050565b6097546001600160a01b03163314610e5a5760405162461bcd60e51b815260206004820181905260248201527f4f776e61626c653a2063616c6c6572206973206e6f7420746865206f776e657260448201526064016106cf565b600080611ba883610d62565b9050806001600160a01b0316846001600160a01b03161480611bcf5750611bcf8185611856565b80611bf35750836001600160a01b0316611be884610634565b6001600160a01b0316145b949350505050565b826001600160a01b0316611c0e82610d62565b6001600160a01b031614611c345760405162461bcd60e51b81526004016106cf90614097565b6001600160a01b038216611c965760405162461bcd60e51b8152602060048201526024808201527f4552433732313a207472616e7366657220746f20746865207a65726f206164646044820152637265737360e01b60648201526084016106cf565b611ca383838360016127d0565b826001600160a01b0316611cb682610d62565b6001600160a01b031614611cdc5760405162461bcd60e51b81526004016106cf90614097565b600081815260696020908152604080832080546001600160a01b03199081169091556001600160a01b0387811680865260688552838620805460001901905590871680865283862080546001019055868652606790945282852080549092168417909155905184937fddf252ad1be2c89b69c2b068fc378daa952ba7f163c4a11628f55a4df523b3ef91a4505050565b6109df611b42565b7f4910fdfa16fed3260ed0e7147f7cc6da11a60208b5b9406d12a635614ffd91435460ff1615611da75761077083612819565b826001600160a01b03166352d1902d6040518163ffffffff1660e01b8152600401602060405180830381865afa925050508015611e01575060408051601f3d908101601f19168201909252611dfe918101906140dc565b60015b611e645760405162461bcd60e51b815260206004820152602e60248201527f45524331393637557067726164653a206e657720696d706c656d656e7461746960448201526d6f6e206973206e6f74205555505360901b60648201526084016106cf565b6000805160206146448339815191528114611ed35760405162461bcd60e51b815260206004820152602960248201527f45524331393637557067726164653a20756e737570706f727465642070726f786044820152681a58589b195555525160ba1b60648201526084016106cf565b506107708383836128b5565b600261012d5403611f325760405162461bcd60e51b815260206004820152601f60248201527f5265656e7472616e637947756172643a207265656e7472616e742063616c6c0060448201526064016106cf565b600261012d55565b610b9b8282604051806020016040528060008152506128da565b600161012d55565b609780546001600160a01b038381166001600160a01b0319831681179093556040519116919082907f8be0079c531659141344cd1fd0a4f28419497f9722a3daafe3b4186f6b6457e090600090a35050565b816001600160a01b0316836001600160a01b03160361200f5760405162461bcd60e51b815260206004820152601960248201527f4552433732313a20617070726f766520746f2063616c6c65720000000000000060448201526064016106cf565b6001600160a01b038381166000818152606a6020908152604080832094871680845294825291829020805460ff191686151590811790915591519182527f17307eab39ab6107e8899845ad3d59bd9653f200f220920489ca2b5937696c31910160405180910390a3505050565b612087848484611bfb565b6120938484848461290d565b6114825760405162461bcd60e51b81526004016106cf906140f5565b6060600061015f83815481106120c7576120c7613c14565b9060005260206000209060040201604051806101800160405290816000820180546120f1906139c3565b80601f016020809104026020016040519081016040528092919081815260200182805461211d906139c3565b801561216a5780601f1061213f5761010080835404028352916020019161216a565b820191906000526020600020905b81548152906001019060200180831161214d57829003601f168201915b50505050508152602001600182018054612183906139c3565b80601f01602080910402602001604051908101604052809291908181526020018280546121af906139c3565b80156121fc5780601f106121d1576101008083540402835291602001916121fc565b820191906000526020600020905b8154815290600101906020018083116121df57829003601f168201915b5050505050815260200160028201805480602002602001604051908101604052809291908181526020016000905b828210156122d6578382906000526020600020018054612249906139c3565b80601f0160208091040260200160405190810160405280929190818152602001828054612275906139c3565b80156122c25780601f10612297576101008083540402835291602001916122c2565b820191906000526020600020905b8154815290600101906020018083116122a557829003601f168201915b50505050508152602001906001019061222a565b505050908252506003919091015463ffffffff8082166020840152640100000000820481166040840152600160401b820481166060840152600160601b820481166080840152600160801b8204811660a0840152600160a01b8204811660c0840152600160c01b82041660e083015261ffff600160e01b82048116610100840152600160f01b9091041661012090910152805190915061237b90600a90601490612a0e565b6123b9600a603c612395856060015163ffffffff16612a4d565b6040516020016123a59190614147565b604051602081830303815290604052612a0e565b6123e3600a60646123d3866080015163ffffffff16612a4d565b6040516020016123a59190614173565b61240d600a60786123fd8760a0015163ffffffff16612a4d565b6040516020016123a59190614192565b612437600a608c6124278860c0015163ffffffff16612a4d565b6040516020016123a591906141bf565b612461600a60a06124518960e0015163ffffffff16612a4d565b6040516020016123a591906141df565b61248c600a60b461247c8a610100015163ffffffff16612a4d565b6040516020016123a591906141ff565b6124b7600a60c86124a78b610120015163ffffffff16612a4d565b6040516020016123a5919061421f565b6040516020016124ce98979695949392919061423f565b60408051601f19818403018152919052915060f060005b82604001515181101561259e5761016083015161ffff166125078260016143cb565b1161259e5783612569600a61251d8460146143de565b61252790866143cb565b61253a6125358660016143cb565b612a4d565b8760400151868151811061255057612550613c14565b60200260200101516040516020016123a59291906143f5565b60405160200161257a929190614443565b6040516020818303038152906040529350808061259690613c40565b9150506124e5565b50826040516020016125b09190614472565b60405160208183030381529060405292505050919050565b606081516000036125e757505060408051602081019091526000815290565b6000604051806060016040528060408152602001614664604091399050600060038451600261261691906143cb565b612620919061449c565b61262b9060046143de565b6001600160401b03811115612642576126426132c0565b6040519080825280601f01601f19166020018201604052801561266c576020820181803683370190505b509050600182016020820185865187015b808210156126d8576003820191508151603f8160121c168501518453600184019350603f81600c1c168501518453600184019350603f8160061c168501518453600184019350603f811685015184535060018301925061267d565b50506003865106600181146126f457600281146127075761270f565b603d6001830353603d600283035361270f565b603d60018303535b509195945050505050565b600054610100900460ff166127415760405162461bcd60e51b81526004016106cf906144be565b610b9b8282612adf565b600054610100900460ff166127725760405162461bcd60e51b81526004016106cf906144be565b610e5a612b1f565b600054610100900460ff16610e5a5760405162461bcd60e51b81526004016106cf906144be565b600054610100900460ff166127c85760405162461bcd60e51b81526004016106cf906144be565b610e5a612b4f565b6001600160a01b0384166127ed576127e88383612b76565b611482565b6001600160a01b038316612805576127e88483612bbb565b61280f8483612bbb565b6127e88383612b76565b6001600160a01b0381163b6128865760405162461bcd60e51b815260206004820152602d60248201527f455243313936373a206e657720696d706c656d656e746174696f6e206973206e60448201526c1bdd08184818dbdb9d1c9858dd609a1b60648201526084016106cf565b60008051602061464483398151915280546001600160a01b0319166001600160a01b0392909216919091179055565b6128be83612cc0565b6000825111806128cb5750805b15610770576114828383612d00565b6128e48383612df4565b6128f1600084848461290d565b6107705760405162461bcd60e51b81526004016106cf906140f5565b60006001600160a01b0384163b15612a0357604051630a85bd0160e11b81526001600160a01b0385169063150b7a0290612951903390899088908890600401614509565b6020604051808303816000875af192505050801561298c575060408051601f3d908101601f1916820190925261298991810190614546565b60015b6129e9573d8080156129ba576040519150601f19603f3d011682016040523d82523d6000602084013e6129bf565b606091505b5080516000036129e15760405162461bcd60e51b81526004016106cf906140f5565b805181602001fd5b6001600160e01b031916630a85bd0160e11b149050611bf3565b506001949350505050565b6060612a1984612a4d565b612a2284612a4d565b83604051602001612a3593929190614563565b60405160208183030381529060405290509392505050565b60606000612a5a83612f8d565b60010190506000816001600160401b03811115612a7957612a796132c0565b6040519080825280601f01601f191660200182016040528015612aa3576020820181803683370190505b5090508181016020015b600019016f181899199a1a9b1b9c1cb0b131b232b360811b600a86061a8153600a8504945084612aad57509392505050565b600054610100900460ff16612b065760405162461bcd60e51b81526004016106cf906144be565b6065612b128382613a4b565b5060666107708282613a4b565b600054610100900460ff16612b465760405162461bcd60e51b81526004016106cf906144be565b610e5a33611f5c565b600054610100900460ff16611f545760405162461bcd60e51b81526004016106cf906144be565b6001600160a01b039091166000908152610160602081815260408084208054610161845282862087875284529185208290559282526001810183559183529091200155565b6001600160a01b0382166000908152610160602052604081208054612be2906001906145fe565b81548110612bf257612bf2613c14565b90600052602060002001549050808214612c59576001600160a01b0383166000818152610161602090815260408083208684528252808320549383526101609091529020805483919083908110612c4b57612c4b613c14565b600091825260209091200155505b6001600160a01b038316600090815261016060205260409020805480612c8157612c81614611565b6000828152602080822083016000199081018390559092019092556001600160a01b039094168152610161845260408082209382529290935250812055565b612cc981612819565b6040516001600160a01b038216907fbc7cd75a20ee27fd9adebab32041f755214dbc6bffa90cc0225b39da2e5c2d3b90600090a250565b60606001600160a01b0383163b612d685760405162461bcd60e51b815260206004820152602660248201527f416464726573733a2064656c65676174652063616c6c20746f206e6f6e2d636f6044820152651b9d1c9858dd60d21b60648201526084016106cf565b600080846001600160a01b031684604051612d839190614627565b600060405180830381855af49150503d8060008114612dbe576040519150601f19603f3d011682016040523d82523d6000602084013e612dc3565b606091505b5091509150612deb82826040518060600160405280602781526020016146a460279139613065565b95945050505050565b6001600160a01b038216612e4a5760405162461bcd60e51b815260206004820181905260248201527f4552433732313a206d696e7420746f20746865207a65726f206164647265737360448201526064016106cf565b6000818152606760205260409020546001600160a01b031615612eaf5760405162461bcd60e51b815260206004820152601c60248201527f4552433732313a20746f6b656e20616c7265616479206d696e7465640000000060448201526064016106cf565b612ebd6000838360016127d0565b6000818152606760205260409020546001600160a01b031615612f225760405162461bcd60e51b815260206004820152601c60248201527f4552433732313a20746f6b656e20616c7265616479206d696e7465640000000060448201526064016106cf565b6001600160a01b038216600081815260686020908152604080832080546001019055848352606790915280822080546001600160a01b0319168417905551839291907fddf252ad1be2c89b69c2b068fc378daa952ba7f163c4a11628f55a4df523b3ef908290a45050565b60008072184f03e93ff9f4daa797ed6e38ed64bf6a1f0160401b8310612fcc5772184f03e93ff9f4daa797ed6e38ed64bf6a1f0160401b830492506040015b6d04ee2d6d415b85acef81000000008310612ff8576d04ee2d6d415b85acef8100000000830492506020015b662386f26fc10000831061301657662386f26fc10000830492506010015b6305f5e100831061302e576305f5e100830492506008015b612710831061304257612710830492506004015b60648310613054576064830492506002015b600a831061059c5760010192915050565b6060831561307457508161307e565b61307e8383613085565b9392505050565b8151156130955781518083602001fd5b8060405162461bcd60e51b81526004016106cf91906131ef565b8280548282559060005260206000209081019282156130f5579160200282015b828111156130f557825182906130e59082613a4b565b50916020019190600101906130cf565b50613101929150613105565b5090565b808211156131015760006131198282613122565b50600101613105565b50805461312e906139c3565b6000825580601f1061313e575050565b601f0160209004906000526020600020908101906109df91905b808211156131015760008155600101613158565b6001600160e01b0319811681146109df57600080fd5b60006020828403121561319457600080fd5b813561307e8161316c565b60005b838110156131ba5781810151838201526020016131a2565b50506000910152565b600081518084526131db81602086016020860161319f565b601f01601f19169290920160200192915050565b60208152600061307e60208301846131c3565b60006020828403121561321457600080fd5b5035919050565b80356001600160a01b038116811461323257600080fd5b919050565b6000806040838503121561324a57600080fd5b6132538361321b565b946020939093013593505050565b60006020828403121561327357600080fd5b61307e8261321b565b6020808252825182820181905260009190848201906040850190845b818110156132b457835183529284019291840191600101613298565b50909695505050505050565b634e487b7160e01b600052604160045260246000fd5b60405161018081016001600160401b03811182821017156132f9576132f96132c0565b60405290565b604051601f8201601f191681016001600160401b0381118282101715613327576133276132c0565b604052919050565b600082601f83011261334057600080fd5b81356001600160401b03811115613359576133596132c0565b61336c601f8201601f19166020016132ff565b81815284602083860101111561338157600080fd5b816020850160208301376000918101602001919091529392505050565b6000602082840312156133b057600080fd5b81356001600160401b038111156133c657600080fd5b611bf38482850161332f565b6000806000606084860312156133e757600080fd5b6133f08461321b565b92506133fe6020850161321b565b9150604084013590509250925092565b60006001600160401b03821115613427576134276132c0565b5060051b60200190565b600082601f83011261344257600080fd5b813560206134576134528361340e565b6132ff565b82815260059290921b8401810191818101908684111561347657600080fd5b8286015b848110156134b55780356001600160401b038111156134995760008081fd5b6134a78986838b010161332f565b84525091830191830161347a565b509695505050505050565b803563ffffffff8116811461323257600080fd5b803561ffff8116811461323257600080fd5b600061018082840312156134f957600080fd5b6135016132d6565b905081356001600160401b038082111561351a57600080fd5b6135268583860161332f565b8352602084013591508082111561353c57600080fd5b6135488583860161332f565b6020840152604084013591508082111561356157600080fd5b5061356e84828501613431565b604083015250613580606083016134c0565b6060820152613591608083016134c0565b60808201526135a260a083016134c0565b60a08201526135b360c083016134c0565b60c08201526135c460e083016134c0565b60e08201526101006135d78184016134c0565b908201526101206135e98382016134c0565b908201526101406135fb8382016134d4565b9082015261016061360d8382016134d4565b9082015292915050565b6000806040838503121561362a57600080fd5b6136338361321b565b915060208301356001600160401b0381111561364e57600080fd5b61365a858286016134e6565b9150509250929050565b6000806040838503121561367757600080fd5b6136808361321b565b915060208301356001600160401b0381111561369b57600080fd5b61365a8582860161332f565b600080604083850312156136ba57600080fd5b6136c38361321b565b9150602083013580151581146136d857600080fd5b809150509250929050565b600060208083850312156136f657600080fd5b82356001600160401b0381111561370c57600080fd5b8301601f8101851361371d57600080fd5b803561372b6134528261340e565b81815260059190911b8201830190838101908783111561374a57600080fd5b928401925b828410156137685783358252928401929084019061374f565b979650505050505050565b600081518084526020808501808196508360051b8101915082860160005b858110156137bb5782840389526137a98483516131c3565b98850198935090840190600101613791565b5091979650505050505050565b60006020808301818452808551808352604092508286019150828160051b87010184880160005b838110156138e757603f1989840301855281516101808151818652613816828701826131c3565b915050888201518582038a87015261382e82826131c3565b91505087820151858203898701526138468282613773565b9150506060808301516138608288018263ffffffff169052565b505060808281015163ffffffff9081169187019190915260a08084015182169087015260c08084015182169087015260e0808401518216908701526101008084015182169087015261012080840151909116908601526101408083015161ffff908116918701919091526101609283015116919094015293860193908601906001016137ef565b509098975050505050505050565b60006020828403121561390757600080fd5b81356001600160401b0381111561391d57600080fd5b611bf3848285016134e6565b6000806000806080858703121561393f57600080fd5b6139488561321b565b93506139566020860161321b565b92506040850135915060608501356001600160401b0381111561397857600080fd5b6139848782880161332f565b91505092959194509250565b600080604083850312156139a357600080fd5b6139ac8361321b565b91506139ba6020840161321b565b90509250929050565b600181811c908216806139d757607f821691505b6020821081036139f757634e487b7160e01b600052602260045260246000fd5b50919050565b601f82111561077057600081815260208120601f850160051c81016020861015613a245750805b601f850160051c820191505b81811015613a4357828155600101613a30565b505050505050565b81516001600160401b03811115613a6457613a646132c0565b613a7881613a7284546139c3565b846139fd565b602080601f831160018114613aad5760008415613a955750858301515b600019600386901b1c1916600185901b178555613a43565b600085815260208120601f198616915b82811015613adc57888601518255948401946001909101908401613abd565b5085821015613afa5787850151600019600388901b60f8161c191681555b5050505050600190811b01905550565b604081526000613b1d60408301856131c3565b8281036020840152612deb81856131c3565b6020808252602d908201527f4552433732313a2063616c6c6572206973206e6f7420746f6b656e206f776e6560408201526c1c881bdc88185c1c1c9bdd9959609a1b606082015260800190565b6020808252602c908201527f46756e6374696f6e206d7573742062652063616c6c6564207468726f7567682060408201526b19195b1959d85d1958d85b1b60a21b606082015260800190565b6020808252602c908201527f46756e6374696f6e206d7573742062652063616c6c6564207468726f7567682060408201526b6163746976652070726f787960a01b606082015260800190565b634e487b7160e01b600052603260045260246000fd5b634e487b7160e01b600052601160045260246000fd5b600060018201613c5257613c52613c2a565b5060010190565b60008151613c6b81856020860161319f565b9290920192915050565b693d913730b6b2911d101160b11b81528351600090613c9b81600a85016020890161319f565b72111610113232b9b1b934b83a34b7b7111d101160691b600a918401918201528451613cce81601d84016020890161319f565b7f222c2022696d616765223a2022646174613a696d6167652f7376672b786d6c3b601d92909101918201526618985cd94d8d0b60ca1b603d8201528351613d1c81604484016020880161319f565b61227d60f01b6044929091019182015260460195945050505050565b7f646174613a6170706c69636174696f6e2f6a736f6e3b6261736536342c000000815260008251613d7081601d85016020870161319f565b91909101601d0192915050565b7f3c73766720786d6c6e733d27687474703a2f2f7777772e77332e6f72672f323081527f30302f73766727207072657365727665417370656374526174696f3d27784d6960208201527f6e594d696e206d656574272076696577426f783d27302030203335302033353060408201527f273e3c7374796c653e2e62617365207b2066696c6c3a2077686974653b20666f60608201527f6e742d66616d696c793a2073657269663b20666f6e742d73697a653a2032347060808201527f783b207d3c2f7374796c653e3c726563742077696474683d273130302527206860a08201527f65696768743d2731303025272066696c6c3d27626c61636b27202f3e3c74657860c08201527f7420783d273530252720793d273530252720636c6173733d276261736527206460e08201527f6f6d696e616e742d626173656c696e653d276d6964646c652720746578742d616101008201526e3731b437b91e93b6b4b2323632939f60891b610120820152600061012f8351613f01818386016020880161319f565b8301613f1e8282016c1e17ba32bc3a1f1e17b9bb339f60991b9052565b61013c01949350505050565b693d913730b6b2911d101160b11b815284516000906020613f5182600a8601838b0161319f565b72111610113232b9b1b934b83a34b7b7111d101160691b600a928501928301528651613f8381601d8501848b0161319f565b7f69732047656e657261746976652041492047616d652e222c2022696d61676522601d93909101928301527f3a2022646174613a696d6167652f7376672b786d6c3b6261736536342c000000603d8301528551613fe681605a8501848a0161319f565b741116101132bc3a32b93730b62fb634b735911d101160591b605a93909101928301528454606f9060009061401a816139c3565b60018281168015614032576001811461404b5761407b565b60ff19841688870152821515830288018601945061407b565b8a6000528660002060005b848110156140715781548a8201890152908301908801614056565b5050858389010194505b505061227d60f01b835250506002019998505050505050505050565b60208082526025908201527f4552433732313a207472616e736665722066726f6d20696e636f72726563742060408201526437bbb732b960d91b606082015260800190565b6000602082840312156140ee57600080fd5b5051919050565b60208082526032908201527f4552433732313a207472616e7366657220746f206e6f6e20455243373231526560408201527131b2b4bb32b91034b6b83632b6b2b73a32b960711b606082015260800190565b630262b1d160e51b81526000825161416681600485016020870161319f565b9190910160040192915050565b63024281d160e51b81526000825161416681600485016020870161319f565b64020aa259d160dd1b8152600082516141b281600585016020870161319f565b9190910160050192915050565b6402222a31d160dd1b8152600082516141b281600585016020870161319f565b64024a72a1d160dd1b8152600082516141b281600585016020870161319f565b64026a3a91d160dd1b8152600082516141b281600585016020870161319f565b64020a3a61d160dd1b8152600082516141b281600585016020870161319f565b7f3c73766720786d6c6e733d22687474703a2f2f7777772e77332e6f72672f323081527f30302f73766722207072657365727665417370656374526174696f3d22784d6960208201527f6e594d696e206d656574222076696577426f783d22302030203335302033353060408201527f223e3c7374796c653e2e62617365207b2066696c6c3a2077686974653b20666f60608201527f6e742d66616d696c793a2073657269663b20666f6e742d73697a653a2031347060808201527f783b207d3c2f7374796c653e3c726563742077696474683d223130302522206860a08201527f65696768743d2231303025222066696c6c3d22626c61636b22202f3e0000000060c08201526000895161435b8160dc850160208e0161319f565b8951908301906143728160dc840160208e0161319f565b89519101906143888160dc840160208d0161319f565b6143bb6143b56143af6143a96143a360dc868801018e613c59565b8c613c59565b8a613c59565b88613c59565b86613c59565b9c9b505050505050505050505050565b8082018082111561059c5761059c613c2a565b808202811582820484141761059c5761059c613c2a565b6414dada5b1b60da1b81526000835161441581600585016020880161319f565b6101d160f51b600591840191820152835161443781600784016020880161319f565b01600701949350505050565b6000835161445581846020880161319f565b83519083019061446981836020880161319f565b01949350505050565b6000825161448481846020870161319f565b651e17b9bb339f60d11b920191825250600601919050565b6000826144b957634e487b7160e01b600052601260045260246000fd5b500490565b6020808252602b908201527f496e697469616c697a61626c653a20636f6e7472616374206973206e6f74206960408201526a6e697469616c697a696e6760a81b606082015260800190565b6001600160a01b038581168252841660208201526040810183905260806060820181905260009061453c908301846131c3565b9695505050505050565b60006020828403121561455857600080fd5b815161307e8161316c565b681e3a32bc3a103c1e9160b91b8152835160009061458881600985016020890161319f565b6411103c9e9160d91b60099184019182015284516145ad81600e84016020890161319f565b6e111031b630b9b99e913130b9b2911f60891b600e929091019182015283516145dd81601d84016020880161319f565b661e17ba32bc3a1f60c91b601d929091019182015260240195945050505050565b8181038181111561059c5761059c613c2a565b634e487b7160e01b600052603160045260246000fd5b6000825161463981846020870161319f565b919091019291505056fe360894a13ba1a3210667c828492db98dca3e2076cc3735a920a3ca505d382bbc4142434445464748494a4b4c4d4e4f505152535455565758595a6162636465666768696a6b6c6d6e6f707172737475767778797a303132333435363738392b2f416464726573733a206c6f772d6c6576656c2064656c65676174652063616c6c206661696c6564a2646970667358221220abee44ceb05aa177f58aff2dd69245366d99acd495b351837a59d8ad53c953db64736f6c63430008120033",
  "linkReferences": {},
  "deployedLinkReferences": {}
}