{
  "_format": "hh-sol-artifact-1",
  "contractName": "PromptMonstersExtension",
  "sourceName": "contracts/prompt-monsters-extension/PromptMonstersExtension.sol",
  "abi": [
    {
      "inputs": [],
      "stateMutability": "nonpayable",
      "type": "constructor"
    },
    {
      "anonymous": false,
      "inputs": [
        {
          "indexed": false,
          "internalType": "address",
          "name": "previousAdmin",
          "type": "address"
        },
        {
          "indexed": false,
          "internalType": "address",
          "name": "newAdmin",
          "type": "address"
        }
      ],
      "name": "AdminChanged",
      "type": "event"
    },
    {
      "anonymous": false,
      "inputs": [
        {
          "indexed": true,
          "internalType": "address",
          "name": "beacon",
          "type": "address"
        }
      ],
      "name": "BeaconUpgraded",
      "type": "event"
    },
    {
      "anonymous": false,
      "inputs": [
        {
          "indexed": false,
          "internalType": "uint8",
          "name": "version",
          "type": "uint8"
        }
      ],
      "name": "Initialized",
      "type": "event"
    },
    {
      "anonymous": false,
      "inputs": [
        {
          "indexed": true,
          "internalType": "bytes32",
          "name": "role",
          "type": "bytes32"
        },
        {
          "indexed": true,
          "internalType": "bytes32",
          "name": "previousAdminRole",
          "type": "bytes32"
        },
        {
          "indexed": true,
          "internalType": "bytes32",
          "name": "newAdminRole",
          "type": "bytes32"
        }
      ],
      "name": "RoleAdminChanged",
      "type": "event"
    },
    {
      "anonymous": false,
      "inputs": [
        {
          "indexed": true,
          "internalType": "bytes32",
          "name": "role",
          "type": "bytes32"
        },
        {
          "indexed": true,
          "internalType": "address",
          "name": "account",
          "type": "address"
        },
        {
          "indexed": true,
          "internalType": "address",
          "name": "sender",
          "type": "address"
        }
      ],
      "name": "RoleGranted",
      "type": "event"
    },
    {
      "anonymous": false,
      "inputs": [
        {
          "indexed": true,
          "internalType": "bytes32",
          "name": "role",
          "type": "bytes32"
        },
        {
          "indexed": true,
          "internalType": "address",
          "name": "account",
          "type": "address"
        },
        {
          "indexed": true,
          "internalType": "address",
          "name": "sender",
          "type": "address"
        }
      ],
      "name": "RoleRevoked",
      "type": "event"
    },
    {
      "anonymous": false,
      "inputs": [
        {
          "indexed": true,
          "internalType": "address",
          "name": "publisher",
          "type": "address"
        },
        {
          "indexed": true,
          "internalType": "address[]",
          "name": "rps",
          "type": "address[]"
        },
        {
          "indexed": true,
          "internalType": "string[][]",
          "name": "skills",
          "type": "string[][]"
        },
        {
          "indexed": false,
          "internalType": "uint32[][]",
          "name": "oldState",
          "type": "uint32[][]"
        },
        {
          "indexed": false,
          "internalType": "uint32[][]",
          "name": "newState",
          "type": "uint32[][]"
        }
      ],
      "name": "SetBatchSkillTypes",
      "type": "event"
    },
    {
      "anonymous": false,
      "inputs": [
        {
          "indexed": true,
          "internalType": "address",
          "name": "implementation",
          "type": "address"
        }
      ],
      "name": "Upgraded",
      "type": "event"
    },
    {
      "inputs": [],
      "name": "DEFAULT_ADMIN_ROLE",
      "outputs": [
        {
          "internalType": "bytes32",
          "name": "",
          "type": "bytes32"
        }
      ],
      "stateMutability": "view",
      "type": "function"
    },
    {
      "inputs": [
        {
          "internalType": "address[]",
          "name": "rps_",
          "type": "address[]"
        },
        {
          "internalType": "string[][]",
          "name": "skills_",
          "type": "string[][]"
        }
      ],
      "name": "getBatchSkillTypes",
      "outputs": [
        {
          "internalType": "uint32[][]",
          "name": "returnState",
          "type": "uint32[][]"
        }
      ],
      "stateMutability": "view",
      "type": "function"
    },
    {
      "inputs": [
        {
          "internalType": "address",
          "name": "resurrectionPrompt_",
          "type": "address"
        },
        {
          "components": [
            {
              "internalType": "string",
              "name": "feature",
              "type": "string"
            },
            {
              "internalType": "string",
              "name": "name",
              "type": "string"
            },
            {
              "internalType": "string",
              "name": "flavor",
              "type": "string"
            },
            {
              "internalType": "string[]",
              "name": "skills",
              "type": "string[]"
            },
            {
              "internalType": "uint32",
              "name": "lv",
              "type": "uint32"
            },
            {
              "internalType": "uint32",
              "name": "hp",
              "type": "uint32"
            },
            {
              "internalType": "uint32",
              "name": "atk",
              "type": "uint32"
            },
            {
              "internalType": "uint32",
              "name": "def",
              "type": "uint32"
            },
            {
              "internalType": "uint32",
              "name": "inte",
              "type": "uint32"
            },
            {
              "internalType": "uint32",
              "name": "mgr",
              "type": "uint32"
            },
            {
              "internalType": "uint32",
              "name": "agl",
              "type": "uint32"
            }
          ],
          "internalType": "struct IPromptMonsters.Monster",
          "name": "monster_",
          "type": "tuple"
        }
      ],
      "name": "getMonsterExtension",
      "outputs": [
        {
          "components": [
            {
              "internalType": "string",
              "name": "feature",
              "type": "string"
            },
            {
              "internalType": "string",
              "name": "name",
              "type": "string"
            },
            {
              "internalType": "string",
              "name": "flavor",
              "type": "string"
            },
            {
              "internalType": "string[]",
              "name": "skills",
              "type": "string[]"
            },
            {
              "internalType": "uint32",
              "name": "lv",
              "type": "uint32"
            },
            {
              "internalType": "uint32",
              "name": "hp",
              "type": "uint32"
            },
            {
              "internalType": "uint32",
              "name": "atk",
              "type": "uint32"
            },
            {
              "internalType": "uint32",
              "name": "def",
              "type": "uint32"
            },
            {
              "internalType": "uint32",
              "name": "inte",
              "type": "uint32"
            },
            {
              "internalType": "uint32",
              "name": "mgr",
              "type": "uint32"
            },
            {
              "internalType": "uint32",
              "name": "agl",
              "type": "uint32"
            },
            {
              "internalType": "uint32[]",
              "name": "skillTypes",
              "type": "uint32[]"
            }
          ],
          "internalType": "struct IPromptMonstersExtension.MonsterExtension",
          "name": "monsterExtension",
          "type": "tuple"
        }
      ],
      "stateMutability": "view",
      "type": "function"
    },
    {
      "inputs": [
        {
          "internalType": "bytes32",
          "name": "role",
          "type": "bytes32"
        }
      ],
      "name": "getRoleAdmin",
      "outputs": [
        {
          "internalType": "bytes32",
          "name": "",
          "type": "bytes32"
        }
      ],
      "stateMutability": "view",
      "type": "function"
    },
    {
      "inputs": [
        {
          "internalType": "bytes32",
          "name": "role",
          "type": "bytes32"
        },
        {
          "internalType": "uint256",
          "name": "index",
          "type": "uint256"
        }
      ],
      "name": "getRoleMember",
      "outputs": [
        {
          "internalType": "address",
          "name": "",
          "type": "address"
        }
      ],
      "stateMutability": "view",
      "type": "function"
    },
    {
      "inputs": [
        {
          "internalType": "bytes32",
          "name": "role",
          "type": "bytes32"
        }
      ],
      "name": "getRoleMemberCount",
      "outputs": [
        {
          "internalType": "uint256",
          "name": "",
          "type": "uint256"
        }
      ],
      "stateMutability": "view",
      "type": "function"
    },
    {
      "inputs": [
        {
          "internalType": "bytes32",
          "name": "role",
          "type": "bytes32"
        },
        {
          "internalType": "address",
          "name": "account",
          "type": "address"
        }
      ],
      "name": "grantRole",
      "outputs": [],
      "stateMutability": "nonpayable",
      "type": "function"
    },
    {
      "inputs": [
        {
          "internalType": "bytes32",
          "name": "role",
          "type": "bytes32"
        },
        {
          "internalType": "address",
          "name": "account",
          "type": "address"
        }
      ],
      "name": "hasRole",
      "outputs": [
        {
          "internalType": "bool",
          "name": "",
          "type": "bool"
        }
      ],
      "stateMutability": "view",
      "type": "function"
    },
    {
      "inputs": [
        {
          "internalType": "address",
          "name": "promptMonstersAddress_",
          "type": "address"
        }
      ],
      "name": "initialize",
      "outputs": [],
      "stateMutability": "nonpayable",
      "type": "function"
    },
    {
      "inputs": [],
      "name": "proxiableUUID",
      "outputs": [
        {
          "internalType": "bytes32",
          "name": "",
          "type": "bytes32"
        }
      ],
      "stateMutability": "view",
      "type": "function"
    },
    {
      "inputs": [
        {
          "internalType": "bytes32",
          "name": "role",
          "type": "bytes32"
        },
        {
          "internalType": "address",
          "name": "account",
          "type": "address"
        }
      ],
      "name": "renounceRole",
      "outputs": [],
      "stateMutability": "nonpayable",
      "type": "function"
    },
    {
      "inputs": [
        {
          "internalType": "bytes32",
          "name": "role",
          "type": "bytes32"
        },
        {
          "internalType": "address",
          "name": "account",
          "type": "address"
        }
      ],
      "name": "revokeRole",
      "outputs": [],
      "stateMutability": "nonpayable",
      "type": "function"
    },
    {
      "inputs": [
        {
          "internalType": "address[]",
          "name": "rps_",
          "type": "address[]"
        },
        {
          "internalType": "string[][]",
          "name": "skills_",
          "type": "string[][]"
        },
        {
          "internalType": "uint32[][]",
          "name": "skillTypes_",
          "type": "uint32[][]"
        }
      ],
      "name": "setBatchSkillTypes",
      "outputs": [],
      "stateMutability": "nonpayable",
      "type": "function"
    },
    {
      "inputs": [
        {
          "internalType": "bytes4",
          "name": "interfaceId",
          "type": "bytes4"
        }
      ],
      "name": "supportsInterface",
      "outputs": [
        {
          "internalType": "bool",
          "name": "",
          "type": "bool"
        }
      ],
      "stateMutability": "view",
      "type": "function"
    },
    {
      "inputs": [
        {
          "internalType": "address",
          "name": "newImplementation",
          "type": "address"
        }
      ],
      "name": "upgradeTo",
      "outputs": [],
      "stateMutability": "nonpayable",
      "type": "function"
    },
    {
      "inputs": [
        {
          "internalType": "address",
          "name": "newImplementation",
          "type": "address"
        },
        {
          "internalType": "bytes",
          "name": "data",
          "type": "bytes"
        }
      ],
      "name": "upgradeToAndCall",
      "outputs": [],
      "stateMutability": "payable",
      "type": "function"
    }
  ],
  "bytecode": "0x60a0604052306080523480156200001557600080fd5b506200002062000026565b620000e8565b600054610100900460ff1615620000935760405162461bcd60e51b815260206004820152602760248201527f496e697469616c697a61626c653a20636f6e747261637420697320696e697469604482015266616c697a696e6760c81b606482015260840160405180910390fd5b60005460ff9081161015620000e6576000805460ff191660ff9081179091556040519081527f7f26b83ff96e1f2b6a682f133852f6798a09c465da95921460cefb38474024989060200160405180910390a15b565b60805161260762000120600039600081816105fc0152818161063c015281816106db0152818161071b01526107aa01526126076000f3fe6080604052600436106100f35760003560e01c80639010d07c1161008a578063c61184cc11610059578063c61184cc146102af578063ca15c873146102dc578063d547741f146102fc578063f84400ed1461031c57600080fd5b80639010d07c1461022257806391d148541461025a578063a217fddf1461027a578063c4d66de81461028f57600080fd5b806336568abe116100c657806336568abe146101ba5780633659cfe6146101da5780634f1ef286146101fa57806352d1902d1461020d57600080fd5b806301ffc9a7146100f8578063248a9ca31461012d57806325ea15161461016b5780632f2ff15d14610198575b600080fd5b34801561010457600080fd5b5061011861011336600461197b565b61033c565b60405190151581526020015b60405180910390f35b34801561013957600080fd5b5061015d6101483660046119a5565b60009081526065602052604090206001015490565b604051908152602001610124565b34801561017757600080fd5b5061018b610186366004611c53565b610367565b6040516101249190611d49565b3480156101a457600080fd5b506101b86101b3366004611d5c565b610545565b005b3480156101c657600080fd5b506101b86101d5366004611d5c565b61056f565b3480156101e657600080fd5b506101b86101f5366004611d88565b6105f2565b6101b8610208366004611da3565b6106d1565b34801561021957600080fd5b5061015d61079d565b34801561022e57600080fd5b5061024261023d366004611dfa565b610850565b6040516001600160a01b039091168152602001610124565b34801561026657600080fd5b50610118610275366004611d5c565b61086f565b34801561028657600080fd5b5061015d600081565b34801561029b57600080fd5b506101b86102aa366004611d88565b61089a565b3480156102bb57600080fd5b506102cf6102ca366004611e30565b6109da565b6040516101249190612031565b3480156102e857600080fd5b5061015d6102f73660046119a5565b610be1565b34801561030857600080fd5b506101b8610317366004611d5c565b610bf8565b34801561032857600080fd5b506101b8610337366004612172565b610c1d565b60006001600160e01b03198216635a05180f60e01b148061036157506103618261103d565b92915050565b8151606090806001600160401b03811115610384576103846119be565b6040519080825280602002602001820160405280156103b757816020015b60608152602001906001900390816103a25790505b50915060005b8181101561053d5760008482815181106103d9576103d96122c7565b6020026020010151519050806001600160401b038111156103fc576103fc6119be565b604051908082528060200260200182016040528015610425578160200160208202803683370190505b50848381518110610438576104386122c7565b602002602001018190525081600101915060005b818110156105365761012e600088858151811061046b5761046b6122c7565b60200260200101516001600160a01b03166001600160a01b031681526020019081526020016000208684815181106104a5576104a56122c7565b602002602001015182815181106104be576104be6122c7565b60200260200101516040516104d391906122dd565b90815260405190819003602001902054855163ffffffff90911690869085908110610500576105006122c7565b60200260200101518281518110610519576105196122c7565b63ffffffff9092166020928302919091019091015260010161044c565b50506103bd565b505092915050565b60008281526065602052604090206001015461056081611072565b61056a838361107c565b505050565b6001600160a01b03811633146105e45760405162461bcd60e51b815260206004820152602f60248201527f416363657373436f6e74726f6c3a2063616e206f6e6c792072656e6f756e636560448201526e103937b632b9903337b91039b2b63360891b60648201526084015b60405180910390fd5b6105ee828261109e565b5050565b6001600160a01b037f000000000000000000000000000000000000000000000000000000000000000016300361063a5760405162461bcd60e51b81526004016105db906122f9565b7f00000000000000000000000000000000000000000000000000000000000000006001600160a01b031661068360008051602061258b833981519152546001600160a01b031690565b6001600160a01b0316146106a95760405162461bcd60e51b81526004016105db90612345565b6106b2816110c0565b604080516000808252602082019092526106ce918391906110cb565b50565b6001600160a01b037f00000000000000000000000000000000000000000000000000000000000000001630036107195760405162461bcd60e51b81526004016105db906122f9565b7f00000000000000000000000000000000000000000000000000000000000000006001600160a01b031661076260008051602061258b833981519152546001600160a01b031690565b6001600160a01b0316146107885760405162461bcd60e51b81526004016105db90612345565b610791826110c0565b6105ee828260016110cb565b6000306001600160a01b037f0000000000000000000000000000000000000000000000000000000000000000161461083d5760405162461bcd60e51b815260206004820152603860248201527f555550535570677261646561626c653a206d757374206e6f742062652063616c60448201527f6c6564207468726f7567682064656c656761746563616c6c000000000000000060648201526084016105db565b5060008051602061258b83398151915290565b60008281526097602052604081206108689083611236565b9392505050565b60009182526065602090815260408084206001600160a01b0393909316845291905290205460ff1690565b600054610100900460ff16158080156108ba5750600054600160ff909116105b806108d45750303b1580156108d4575060005460ff166001145b6109375760405162461bcd60e51b815260206004820152602e60248201527f496e697469616c697a61626c653a20636f6e747261637420697320616c72656160448201526d191e481a5b9a5d1a585b1a5e995960921b60648201526084016105db565b6000805460ff19166001179055801561095a576000805461ff0019166101001790555b610962611242565b61096a611242565b61097560003361107c565b61012d80546001600160a01b0319166001600160a01b03841617905580156105ee576000805461ff0019169055604051600181527f7f26b83ff96e1f2b6a682f133852f6798a09c465da95921460cefb38474024989060200160405180910390a15050565b604080516101808101825260608082526020820181905291810182905281810182905260006080820181905260a0820181905260c0820181905260e0820181905261010082018190526101208201819052610140820152610160810182905290820151516004811115610a4b575060045b6000816001600160401b03811115610a6557610a656119be565b604051908082528060200260200182016040528015610a8e578160200160208202803683370190505b50905060005b82811015610b2b576001600160a01b038616600090815261012e602052604090206060860151805183908110610acc57610acc6122c7565b6020026020010151604051610ae191906122dd565b90815260405190819003602001902054825163ffffffff90911690839083908110610b0e57610b0e6122c7565b63ffffffff90921660209283029190910190910152600101610a94565b5060405180610180016040528085600001518152602001856020015181526020018560400151815260200185606001518152602001856080015163ffffffff1681526020018560a0015163ffffffff1681526020018560c0015163ffffffff1681526020018560e0015163ffffffff16815260200185610100015163ffffffff16815260200185610120015163ffffffff16815260200185610140015163ffffffff168152602001828152509250505092915050565b6000818152609760205260408120610361906112af565b600082815260656020526040902060010154610c1381611072565b61056a838361109e565b6000610c2881611072565b835183518114610c8f5760405162461bcd60e51b815260206004820152602c60248201527f50726f6d70744d6f6e7374657273457874656e73696f6e3a206d69736d61746360448201526b0d040e4e0e640d8cadccee8d60a31b60648201526084016105db565b6000816001600160401b03811115610ca957610ca96119be565b604051908082528060200260200182016040528015610cdc57816020015b6060815260200190600190039081610cc75790505b50905060005b82811015610fbf576000868281518110610cfe57610cfe6122c7565b6020026020010151519050858281518110610d1b57610d1b6122c7565b6020026020010151518114610d895760405162461bcd60e51b815260206004820152602e60248201527f50726f6d70744d6f6e7374657273457874656e73696f6e3a206d69736d61746360448201526d0d040e6d6d2d8d840d8cadccee8d60931b60648201526084016105db565b806001600160401b03811115610da157610da16119be565b604051908082528060200260200182016040528015610dca578160200160208202803683370190505b50838381518110610ddd57610ddd6122c7565b602002602001018190525060005b84811015610fb55761012e60008a8581518110610e0a57610e0a6122c7565b60200260200101516001600160a01b03166001600160a01b03168152602001908152602001600020888481518110610e4457610e446122c7565b60200260200101518281518110610e5d57610e5d6122c7565b6020026020010151604051610e7291906122dd565b90815260405190819003602001902054845163ffffffff90911690859085908110610e9f57610e9f6122c7565b60200260200101518281518110610eb857610eb86122c7565b602002602001019063ffffffff16908163ffffffff1681525050868381518110610ee457610ee46122c7565b60200260200101518181518110610efd57610efd6122c7565b602002602001015161012e60008b8681518110610f1c57610f1c6122c7565b60200260200101516001600160a01b03166001600160a01b03168152602001908152602001600020898581518110610f5657610f566122c7565b60200260200101518381518110610f6f57610f6f6122c7565b6020026020010151604051610f8491906122dd565b908152604051908190036020019020805463ffffffff9290921663ffffffff19909216919091179055600101610deb565b5050600101610ce2565b5084604051610fce9190612391565b604051809103902086604051610fe49190612405565b6040518091039020610ff33390565b6001600160a01b03167f25eedb020a39313f23d83878c59222b1dd35aa982815c3641408a3b41eab536b848860405161102d929190612444565b60405180910390a4505050505050565b60006001600160e01b03198216637965db0b60e01b148061036157506301ffc9a760e01b6001600160e01b0319831614610361565b6106ce81336112b9565b6110868282611312565b600082815260976020526040902061056a9082611398565b6110a882826113ad565b600082815260976020526040902061056a9082611414565b60006105ee81611072565b7f4910fdfa16fed3260ed0e7147f7cc6da11a60208b5b9406d12a635614ffd91435460ff16156110fe5761056a83611429565b826001600160a01b03166352d1902d6040518163ffffffff1660e01b8152600401602060405180830381865afa925050508015611158575060408051601f3d908101601f1916820190925261115591810190612469565b60015b6111bb5760405162461bcd60e51b815260206004820152602e60248201527f45524331393637557067726164653a206e657720696d706c656d656e7461746960448201526d6f6e206973206e6f74205555505360901b60648201526084016105db565b60008051602061258b833981519152811461122a5760405162461bcd60e51b815260206004820152602960248201527f45524331393637557067726164653a20756e737570706f727465642070726f786044820152681a58589b195555525160ba1b60648201526084016105db565b5061056a8383836114c5565b600061086883836114f0565b600054610100900460ff166112ad5760405162461bcd60e51b815260206004820152602b60248201527f496e697469616c697a61626c653a20636f6e7472616374206973206e6f74206960448201526a6e697469616c697a696e6760a81b60648201526084016105db565b565b6000610361825490565b6112c3828261086f565b6105ee576112d08161151a565b6112db83602061152c565b6040516020016112ec929190612482565b60408051601f198184030181529082905262461bcd60e51b82526105db916004016124f7565b61131c828261086f565b6105ee5760008281526065602090815260408083206001600160a01b03851684529091529020805460ff191660011790556113543390565b6001600160a01b0316816001600160a01b0316837f2f8788117e7eff1d82e926ec794901d17c78024a50270940304540a733656f0d60405160405180910390a45050565b6000610868836001600160a01b0384166116c7565b6113b7828261086f565b156105ee5760008281526065602090815260408083206001600160a01b0385168085529252808320805460ff1916905551339285917ff6391f5c32d9c69d2a47ea670b442974b53935d1edc7fd64eb21e047a839171b9190a45050565b6000610868836001600160a01b038416611716565b6001600160a01b0381163b6114965760405162461bcd60e51b815260206004820152602d60248201527f455243313936373a206e657720696d706c656d656e746174696f6e206973206e60448201526c1bdd08184818dbdb9d1c9858dd609a1b60648201526084016105db565b60008051602061258b83398151915280546001600160a01b0319166001600160a01b0392909216919091179055565b6114ce83611809565b6000825111806114db5750805b1561056a576114ea8383611849565b50505050565b6000826000018281548110611507576115076122c7565b9060005260206000200154905092915050565b60606103616001600160a01b03831660145b6060600061153b836002612520565b611546906002612537565b6001600160401b0381111561155d5761155d6119be565b6040519080825280601f01601f191660200182016040528015611587576020820181803683370190505b509050600360fc1b816000815181106115a2576115a26122c7565b60200101906001600160f81b031916908160001a905350600f60fb1b816001815181106115d1576115d16122c7565b60200101906001600160f81b031916908160001a90535060006115f5846002612520565b611600906001612537565b90505b6001811115611678576f181899199a1a9b1b9c1cb0b131b232b360811b85600f1660108110611634576116346122c7565b1a60f81b82828151811061164a5761164a6122c7565b60200101906001600160f81b031916908160001a90535060049490941c936116718161254a565b9050611603565b5083156108685760405162461bcd60e51b815260206004820181905260248201527f537472696e67733a20686578206c656e67746820696e73756666696369656e7460448201526064016105db565b600081815260018301602052604081205461170e57508154600181810184556000848152602080822090930184905584548482528286019093526040902091909155610361565b506000610361565b600081815260018301602052604081205480156117ff57600061173a600183612561565b855490915060009061174e90600190612561565b90508181146117b357600086600001828154811061176e5761176e6122c7565b9060005260206000200154905080876000018481548110611791576117916122c7565b6000918252602080832090910192909255918252600188019052604090208390555b85548690806117c4576117c4612574565b600190038181906000526020600020016000905590558560010160008681526020019081526020016000206000905560019350505050610361565b6000915050610361565b61181281611429565b6040516001600160a01b038216907fbc7cd75a20ee27fd9adebab32041f755214dbc6bffa90cc0225b39da2e5c2d3b90600090a250565b60606001600160a01b0383163b6118b15760405162461bcd60e51b815260206004820152602660248201527f416464726573733a2064656c65676174652063616c6c20746f206e6f6e2d636f6044820152651b9d1c9858dd60d21b60648201526084016105db565b600080846001600160a01b0316846040516118cc91906122dd565b600060405180830381855af49150503d8060008114611907576040519150601f19603f3d011682016040523d82523d6000602084013e61190c565b606091505b509150915061193482826040518060600160405280602781526020016125ab6027913961193d565b95945050505050565b6060831561194c575081610868565b61086883838151156119615781518083602001fd5b8060405162461bcd60e51b81526004016105db91906124f7565b60006020828403121561198d57600080fd5b81356001600160e01b03198116811461086857600080fd5b6000602082840312156119b757600080fd5b5035919050565b634e487b7160e01b600052604160045260246000fd5b60405161016081016001600160401b03811182821017156119f7576119f76119be565b60405290565b604051601f8201601f191681016001600160401b0381118282101715611a2557611a256119be565b604052919050565b60006001600160401b03821115611a4657611a466119be565b5060051b60200190565b80356001600160a01b0381168114611a6757600080fd5b919050565b600082601f830112611a7d57600080fd5b81356020611a92611a8d83611a2d565b6119fd565b82815260059290921b84018101918181019086841115611ab157600080fd5b8286015b84811015611ad357611ac681611a50565b8352918301918301611ab5565b509695505050505050565b60006001600160401b03831115611af757611af76119be565b611b0a601f8401601f19166020016119fd565b9050828152838383011115611b1e57600080fd5b828260208301376000602084830101529392505050565b600082601f830112611b4657600080fd5b61086883833560208501611ade565b600082601f830112611b6657600080fd5b81356020611b76611a8d83611a2d565b82815260059290921b84018101918181019086841115611b9557600080fd5b8286015b84811015611ad35780356001600160401b03811115611bb85760008081fd5b611bc68986838b0101611b35565b845250918301918301611b99565b600082601f830112611be557600080fd5b81356020611bf5611a8d83611a2d565b82815260059290921b84018101918181019086841115611c1457600080fd5b8286015b84811015611ad35780356001600160401b03811115611c375760008081fd5b611c458986838b0101611b55565b845250918301918301611c18565b60008060408385031215611c6657600080fd5b82356001600160401b0380821115611c7d57600080fd5b611c8986838701611a6c565b93506020850135915080821115611c9f57600080fd5b50611cac85828601611bd4565b9150509250929050565b600081518084526020808501945080840160005b83811015611cec57815163ffffffff1687529582019590820190600101611cca565b509495945050505050565b6000815180845260208085019450848260051b860182860160005b85811015611d3c578383038952611d2a838351611cb6565b98850198925090840190600101611d12565b5090979650505050505050565b6020815260006108686020830184611cf7565b60008060408385031215611d6f57600080fd5b82359150611d7f60208401611a50565b90509250929050565b600060208284031215611d9a57600080fd5b61086882611a50565b60008060408385031215611db657600080fd5b611dbf83611a50565b915060208301356001600160401b03811115611dda57600080fd5b8301601f81018513611deb57600080fd5b611cac85823560208401611ade565b60008060408385031215611e0d57600080fd5b50508035926020909101359150565b803563ffffffff81168114611a6757600080fd5b60008060408385031215611e4357600080fd5b611e4c83611a50565b915060208301356001600160401b0380821115611e6857600080fd5b908401906101608287031215611e7d57600080fd5b611e856119d4565b823582811115611e9457600080fd5b611ea088828601611b35565b825250602083013582811115611eb557600080fd5b611ec188828601611b35565b602083015250604083013582811115611ed957600080fd5b611ee588828601611b35565b604083015250606083013582811115611efd57600080fd5b611f0988828601611b55565b606083015250611f1b60808401611e1c565b6080820152611f2c60a08401611e1c565b60a0820152611f3d60c08401611e1c565b60c0820152611f4e60e08401611e1c565b60e08201526101009150611f63828401611e1c565b828201526101209150611f77828401611e1c565b828201526101409150611f8b828401611e1c565b828201528093505050509250929050565b60005b83811015611fb7578181015183820152602001611f9f565b50506000910152565b60008151808452611fd8816020860160208601611f9c565b601f01601f19169290920160200192915050565b6000815180845260208085019450848260051b860182860160005b85811015611d3c57838303895261201f838351611fc0565b98850198925090840190600101612007565b60208152600082516101808060208501526120506101a0850183611fc0565b91506020850151601f198086850301604087015261206e8483611fc0565b9350604087015191508086850301606087015261208b8483611fc0565b935060608701519150808685030160808701526120a88483611fec565b9350608087015191506120c360a087018363ffffffff169052565b60a087015163ffffffff811660c0880152915060c087015163ffffffff811660e0880152915060e087015191506101006121048188018463ffffffff169052565b870151915061012061211d8782018463ffffffff169052565b87015191506101406121368782018463ffffffff169052565b870151915061016061214f8782018463ffffffff169052565b8701518685039091018387015290506121688382611cb6565b9695505050505050565b60008060006060848603121561218757600080fd5b83356001600160401b038082111561219e57600080fd5b6121aa87838801611a6c565b94506020915081860135818111156121c157600080fd5b6121cd88828901611bd4565b9450506040860135818111156121e257600080fd5b8601601f810188136121f357600080fd5b8035612201611a8d82611a2d565b81815260059190911b8201840190848101908a83111561222057600080fd5b8584015b838110156122b65780358681111561223c5760008081fd5b8501603f81018d1361224e5760008081fd5b8781013561225e611a8d82611a2d565b81815260059190911b820160400190898101908f83111561227f5760008081fd5b6040840193505b828410156122a65761229784611e1c565b8252928a0192908a0190612286565b8652505050918601918601612224565b508096505050505050509250925092565b634e487b7160e01b600052603260045260246000fd5b600082516122ef818460208701611f9c565b9190910192915050565b6020808252602c908201527f46756e6374696f6e206d7573742062652063616c6c6564207468726f7567682060408201526b19195b1959d85d1958d85b1b60a21b606082015260800190565b6020808252602c908201527f46756e6374696f6e206d7573742062652063616c6c6564207468726f7567682060408201526b6163746976652070726f787960a01b606082015260800190565b81516000908290602080860184805b848110156123f85782518051908501908790845b818110156123e657835180516123cd81868c8501611f9c565b94890194601f01601f19169390930192506001016123b4565b509097505050918301916001016123a0565b5093979650505050505050565b815160009082906020808601845b838110156124385781516001600160a01b031685529382019390820190600101612413565b50929695505050505050565b6040815260006124576040830185611cf7565b82810360208401526119348185611cf7565b60006020828403121561247b57600080fd5b5051919050565b7f416363657373436f6e74726f6c3a206163636f756e74200000000000000000008152600083516124ba816017850160208801611f9c565b7001034b99036b4b9b9b4b733903937b6329607d1b60179184019182015283516124eb816028840160208801611f9c565b01602801949350505050565b6020815260006108686020830184611fc0565b634e487b7160e01b600052601160045260246000fd5b80820281158282048414176103615761036161250a565b808201808211156103615761036161250a565b6000816125595761255961250a565b506000190190565b818103818111156103615761036161250a565b634e487b7160e01b600052603160045260246000fdfe360894a13ba1a3210667c828492db98dca3e2076cc3735a920a3ca505d382bbc416464726573733a206c6f772d6c6576656c2064656c65676174652063616c6c206661696c6564a26469706673582212203697a5518df8ba206647d34db4ba0fcb9cedf9b6216f8906cc329b46547599ff64736f6c63430008120033",
  "linkReferences": {},
  "deployedLinkReferences": {}
}