{
  "_format": "hh-sol-artifact-1",
  "contractName": "TestPM",
  "sourceName": "contracts/prompt-monsters/PromptMonsters.sol",
  "abi": [
    {
      "inputs": [],
      "stateMutability": "nonpayable",
      "type": "constructor"
    },
    {
      "anonymous": false,
      "inputs": [
        {
          "indexed": false,
          "internalType": "address",
          "name": "previousAdmin",
          "type": "address"
        },
        {
          "indexed": false,
          "internalType": "address",
          "name": "newAdmin",
          "type": "address"
        }
      ],
      "name": "AdminChanged",
      "type": "event"
    },
    {
      "anonymous": false,
      "inputs": [
        {
          "indexed": true,
          "internalType": "address",
          "name": "owner",
          "type": "address"
        },
        {
          "indexed": true,
          "internalType": "address",
          "name": "approved",
          "type": "address"
        },
        {
          "indexed": true,
          "internalType": "uint256",
          "name": "tokenId",
          "type": "uint256"
        }
      ],
      "name": "Approval",
      "type": "event"
    },
    {
      "anonymous": false,
      "inputs": [
        {
          "indexed": true,
          "internalType": "address",
          "name": "owner",
          "type": "address"
        },
        {
          "indexed": true,
          "internalType": "address",
          "name": "operator",
          "type": "address"
        },
        {
          "indexed": false,
          "internalType": "bool",
          "name": "approved",
          "type": "bool"
        }
      ],
      "name": "ApprovalForAll",
      "type": "event"
    },
    {
      "anonymous": false,
      "inputs": [
        {
          "indexed": true,
          "internalType": "address",
          "name": "beacon",
          "type": "address"
        }
      ],
      "name": "BeaconUpgraded",
      "type": "event"
    },
    {
      "anonymous": false,
      "inputs": [
        {
          "components": [
            {
              "internalType": "string",
              "name": "feature",
              "type": "string"
            },
            {
              "internalType": "string",
              "name": "name",
              "type": "string"
            },
            {
              "internalType": "string",
              "name": "flavor",
              "type": "string"
            },
            {
              "internalType": "string[]",
              "name": "skills",
              "type": "string[]"
            },
            {
              "internalType": "uint32",
              "name": "lv",
              "type": "uint32"
            },
            {
              "internalType": "uint32",
              "name": "hp",
              "type": "uint32"
            },
            {
              "internalType": "uint32",
              "name": "atk",
              "type": "uint32"
            },
            {
              "internalType": "uint32",
              "name": "def",
              "type": "uint32"
            },
            {
              "internalType": "uint32",
              "name": "inte",
              "type": "uint32"
            },
            {
              "internalType": "uint32",
              "name": "mgr",
              "type": "uint32"
            },
            {
              "internalType": "uint32",
              "name": "agl",
              "type": "uint32"
            }
          ],
          "indexed": false,
          "internalType": "struct ITestPM.Monster",
          "name": "monster",
          "type": "tuple"
        }
      ],
      "name": "GenerateMonster",
      "type": "event"
    },
    {
      "anonymous": false,
      "inputs": [
        {
          "indexed": true,
          "internalType": "address",
          "name": "resurrectionPrompt",
          "type": "address"
        },
        {
          "components": [
            {
              "internalType": "string",
              "name": "feature",
              "type": "string"
            },
            {
              "internalType": "string",
              "name": "name",
              "type": "string"
            },
            {
              "internalType": "string",
              "name": "flavor",
              "type": "string"
            },
            {
              "internalType": "string[]",
              "name": "skills",
              "type": "string[]"
            },
            {
              "internalType": "uint32",
              "name": "lv",
              "type": "uint32"
            },
            {
              "internalType": "uint32",
              "name": "hp",
              "type": "uint32"
            },
            {
              "internalType": "uint32",
              "name": "atk",
              "type": "uint32"
            },
            {
              "internalType": "uint32",
              "name": "def",
              "type": "uint32"
            },
            {
              "internalType": "uint32",
              "name": "inte",
              "type": "uint32"
            },
            {
              "internalType": "uint32",
              "name": "mgr",
              "type": "uint32"
            },
            {
              "internalType": "uint32",
              "name": "agl",
              "type": "uint32"
            }
          ],
          "indexed": false,
          "internalType": "struct ITestPM.Monster",
          "name": "monster",
          "type": "tuple"
        }
      ],
      "name": "GeneratedMonsterV2",
      "type": "event"
    },
    {
      "anonymous": false,
      "inputs": [
        {
          "indexed": false,
          "internalType": "uint8",
          "name": "version",
          "type": "uint8"
        }
      ],
      "name": "Initialized",
      "type": "event"
    },
    {
      "anonymous": false,
      "inputs": [
        {
          "indexed": true,
          "internalType": "address",
          "name": "tokenOwner",
          "type": "address"
        },
        {
          "indexed": true,
          "internalType": "uint256",
          "name": "newTokenId",
          "type": "uint256"
        },
        {
          "components": [
            {
              "internalType": "string",
              "name": "feature",
              "type": "string"
            },
            {
              "internalType": "string",
              "name": "name",
              "type": "string"
            },
            {
              "internalType": "string",
              "name": "flavor",
              "type": "string"
            },
            {
              "internalType": "string[]",
              "name": "skills",
              "type": "string[]"
            },
            {
              "internalType": "uint32",
              "name": "lv",
              "type": "uint32"
            },
            {
              "internalType": "uint32",
              "name": "hp",
              "type": "uint32"
            },
            {
              "internalType": "uint32",
              "name": "atk",
              "type": "uint32"
            },
            {
              "internalType": "uint32",
              "name": "def",
              "type": "uint32"
            },
            {
              "internalType": "uint32",
              "name": "inte",
              "type": "uint32"
            },
            {
              "internalType": "uint32",
              "name": "mgr",
              "type": "uint32"
            },
            {
              "internalType": "uint32",
              "name": "agl",
              "type": "uint32"
            }
          ],
          "indexed": false,
          "internalType": "struct ITestPM.Monster",
          "name": "monster",
          "type": "tuple"
        }
      ],
      "name": "MintedMonster",
      "type": "event"
    },
    {
      "anonymous": false,
      "inputs": [
        {
          "indexed": true,
          "internalType": "address",
          "name": "tokenOwner",
          "type": "address"
        },
        {
          "indexed": true,
          "internalType": "address",
          "name": "resurrectionPrompt",
          "type": "address"
        },
        {
          "indexed": true,
          "internalType": "uint256",
          "name": "newTokenId",
          "type": "uint256"
        },
        {
          "components": [
            {
              "internalType": "string",
              "name": "feature",
              "type": "string"
            },
            {
              "internalType": "string",
              "name": "name",
              "type": "string"
            },
            {
              "internalType": "string",
              "name": "flavor",
              "type": "string"
            },
            {
              "internalType": "string[]",
              "name": "skills",
              "type": "string[]"
            },
            {
              "internalType": "uint32",
              "name": "lv",
              "type": "uint32"
            },
            {
              "internalType": "uint32",
              "name": "hp",
              "type": "uint32"
            },
            {
              "internalType": "uint32",
              "name": "atk",
              "type": "uint32"
            },
            {
              "internalType": "uint32",
              "name": "def",
              "type": "uint32"
            },
            {
              "internalType": "uint32",
              "name": "inte",
              "type": "uint32"
            },
            {
              "internalType": "uint32",
              "name": "mgr",
              "type": "uint32"
            },
            {
              "internalType": "uint32",
              "name": "agl",
              "type": "uint32"
            }
          ],
          "indexed": false,
          "internalType": "struct ITestPM.Monster",
          "name": "monster",
          "type": "tuple"
        }
      ],
      "name": "MintedMonsterV2",
      "type": "event"
    },
    {
      "anonymous": false,
      "inputs": [
        {
          "indexed": false,
          "internalType": "address",
          "name": "account",
          "type": "address"
        }
      ],
      "name": "Paused",
      "type": "event"
    },
    {
      "anonymous": false,
      "inputs": [
        {
          "indexed": true,
          "internalType": "bytes32",
          "name": "role",
          "type": "bytes32"
        },
        {
          "indexed": true,
          "internalType": "bytes32",
          "name": "previousAdminRole",
          "type": "bytes32"
        },
        {
          "indexed": true,
          "internalType": "bytes32",
          "name": "newAdminRole",
          "type": "bytes32"
        }
      ],
      "name": "RoleAdminChanged",
      "type": "event"
    },
    {
      "anonymous": false,
      "inputs": [
        {
          "indexed": true,
          "internalType": "bytes32",
          "name": "role",
          "type": "bytes32"
        },
        {
          "indexed": true,
          "internalType": "address",
          "name": "account",
          "type": "address"
        },
        {
          "indexed": true,
          "internalType": "address",
          "name": "sender",
          "type": "address"
        }
      ],
      "name": "RoleGranted",
      "type": "event"
    },
    {
      "anonymous": false,
      "inputs": [
        {
          "indexed": true,
          "internalType": "bytes32",
          "name": "role",
          "type": "bytes32"
        },
        {
          "indexed": true,
          "internalType": "address",
          "name": "account",
          "type": "address"
        },
        {
          "indexed": true,
          "internalType": "address",
          "name": "sender",
          "type": "address"
        }
      ],
      "name": "RoleRevoked",
      "type": "event"
    },
    {
      "anonymous": false,
      "inputs": [
        {
          "indexed": true,
          "internalType": "address",
          "name": "publisher",
          "type": "address"
        },
        {
          "indexed": false,
          "internalType": "address",
          "name": "oldValue",
          "type": "address"
        },
        {
          "indexed": false,
          "internalType": "address",
          "name": "newValue",
          "type": "address"
        }
      ],
      "name": "SetErc20",
      "type": "event"
    },
    {
      "anonymous": false,
      "inputs": [
        {
          "indexed": true,
          "internalType": "address",
          "name": "publisher",
          "type": "address"
        },
        {
          "indexed": false,
          "internalType": "string",
          "name": "oldValue",
          "type": "string"
        },
        {
          "indexed": false,
          "internalType": "string",
          "name": "newValue",
          "type": "string"
        }
      ],
      "name": "SetExternalLink",
      "type": "event"
    },
    {
      "anonymous": false,
      "inputs": [
        {
          "indexed": true,
          "internalType": "address",
          "name": "publisher",
          "type": "address"
        },
        {
          "indexed": false,
          "internalType": "uint256",
          "name": "oldValue",
          "type": "uint256"
        },
        {
          "indexed": false,
          "internalType": "uint256",
          "name": "newValue",
          "type": "uint256"
        }
      ],
      "name": "SetMintPrice",
      "type": "event"
    },
    {
      "anonymous": false,
      "inputs": [
        {
          "indexed": true,
          "internalType": "address",
          "name": "publisher",
          "type": "address"
        },
        {
          "components": [
            {
              "internalType": "string",
              "name": "feature",
              "type": "string"
            },
            {
              "internalType": "string",
              "name": "name",
              "type": "string"
            },
            {
              "internalType": "string",
              "name": "flavor",
              "type": "string"
            },
            {
              "internalType": "string[]",
              "name": "skills",
              "type": "string[]"
            },
            {
              "internalType": "uint32",
              "name": "lv",
              "type": "uint32"
            },
            {
              "internalType": "uint32",
              "name": "hp",
              "type": "uint32"
            },
            {
              "internalType": "uint32",
              "name": "atk",
              "type": "uint32"
            },
            {
              "internalType": "uint32",
              "name": "def",
              "type": "uint32"
            },
            {
              "internalType": "uint32",
              "name": "inte",
              "type": "uint32"
            },
            {
              "internalType": "uint32",
              "name": "mgr",
              "type": "uint32"
            },
            {
              "internalType": "uint32",
              "name": "agl",
              "type": "uint32"
            }
          ],
          "indexed": false,
          "internalType": "struct ITestPM.Monster",
          "name": "oldValue",
          "type": "tuple"
        },
        {
          "components": [
            {
              "internalType": "string",
              "name": "feature",
              "type": "string"
            },
            {
              "internalType": "string",
              "name": "name",
              "type": "string"
            },
            {
              "internalType": "string",
              "name": "flavor",
              "type": "string"
            },
            {
              "internalType": "string[]",
              "name": "skills",
              "type": "string[]"
            },
            {
              "internalType": "uint32",
              "name": "lv",
              "type": "uint32"
            },
            {
              "internalType": "uint32",
              "name": "hp",
              "type": "uint32"
            },
            {
              "internalType": "uint32",
              "name": "atk",
              "type": "uint32"
            },
            {
              "internalType": "uint32",
              "name": "def",
              "type": "uint32"
            },
            {
              "internalType": "uint32",
              "name": "inte",
              "type": "uint32"
            },
            {
              "internalType": "uint32",
              "name": "mgr",
              "type": "uint32"
            },
            {
              "internalType": "uint32",
              "name": "agl",
              "type": "uint32"
            }
          ],
          "indexed": false,
          "internalType": "struct ITestPM.Monster",
          "name": "newValue",
          "type": "tuple"
        }
      ],
      "name": "SetMonsterHistory",
      "type": "event"
    },
    {
      "anonymous": false,
      "inputs": [
        {
          "indexed": true,
          "internalType": "address",
          "name": "publisher",
          "type": "address"
        },
        {
          "indexed": false,
          "internalType": "contract ITestPME",
          "name": "oldValue",
          "type": "address"
        },
        {
          "indexed": false,
          "internalType": "contract ITestPME",
          "name": "newValue",
          "type": "address"
        }
      ],
      "name": "SetPromptMonstersExtension",
      "type": "event"
    },
    {
      "anonymous": false,
      "inputs": [
        {
          "indexed": true,
          "internalType": "address",
          "name": "publisher",
          "type": "address"
        },
        {
          "indexed": false,
          "internalType": "contract ITestPMI",
          "name": "oldValue",
          "type": "address"
        },
        {
          "indexed": false,
          "internalType": "contract ITestPMI",
          "name": "newValue",
          "type": "address"
        }
      ],
      "name": "SetPromptMonstersImage",
      "type": "event"
    },
    {
      "anonymous": false,
      "inputs": [
        {
          "indexed": true,
          "internalType": "address",
          "name": "publisher",
          "type": "address"
        },
        {
          "indexed": false,
          "internalType": "address",
          "name": "oldValue",
          "type": "address"
        },
        {
          "indexed": false,
          "internalType": "address",
          "name": "newValue",
          "type": "address"
        }
      ],
      "name": "SetPromptMonstersWallet",
      "type": "event"
    },
    {
      "anonymous": false,
      "inputs": [
        {
          "indexed": true,
          "internalType": "address",
          "name": "publisher",
          "type": "address"
        },
        {
          "indexed": false,
          "internalType": "address",
          "name": "oldValue",
          "type": "address"
        },
        {
          "indexed": false,
          "internalType": "address",
          "name": "newValue",
          "type": "address"
        }
      ],
      "name": "SetTokenIdToResurrectionPromptMap",
      "type": "event"
    },
    {
      "anonymous": false,
      "inputs": [
        {
          "indexed": true,
          "internalType": "address",
          "name": "from",
          "type": "address"
        },
        {
          "indexed": true,
          "internalType": "address",
          "name": "to",
          "type": "address"
        },
        {
          "indexed": true,
          "internalType": "uint256",
          "name": "tokenId",
          "type": "uint256"
        }
      ],
      "name": "Transfer",
      "type": "event"
    },
    {
      "anonymous": false,
      "inputs": [
        {
          "indexed": false,
          "internalType": "address",
          "name": "account",
          "type": "address"
        }
      ],
      "name": "Unpaused",
      "type": "event"
    },
    {
      "anonymous": false,
      "inputs": [
        {
          "indexed": true,
          "internalType": "address",
          "name": "implementation",
          "type": "address"
        }
      ],
      "name": "Upgraded",
      "type": "event"
    },
    {
      "inputs": [],
      "name": "DEFAULT_ADMIN_ROLE",
      "outputs": [
        {
          "internalType": "bytes32",
          "name": "",
          "type": "bytes32"
        }
      ],
      "stateMutability": "view",
      "type": "function"
    },
    {
      "inputs": [
        {
          "internalType": "address",
          "name": "to",
          "type": "address"
        },
        {
          "internalType": "uint256",
          "name": "tokenId",
          "type": "uint256"
        }
      ],
      "name": "approve",
      "outputs": [],
      "stateMutability": "nonpayable",
      "type": "function"
    },
    {
      "inputs": [
        {
          "internalType": "address",
          "name": "owner",
          "type": "address"
        }
      ],
      "name": "balanceOf",
      "outputs": [
        {
          "internalType": "uint256",
          "name": "",
          "type": "uint256"
        }
      ],
      "stateMutability": "view",
      "type": "function"
    },
    {
      "inputs": [
        {
          "internalType": "uint256",
          "name": "tokenId_",
          "type": "uint256"
        }
      ],
      "name": "burn",
      "outputs": [],
      "stateMutability": "nonpayable",
      "type": "function"
    },
    {
      "inputs": [
        {
          "internalType": "uint256",
          "name": "monsterId",
          "type": "uint256"
        }
      ],
      "name": "checkMonsterId",
      "outputs": [],
      "stateMutability": "view",
      "type": "function"
    },
    {
      "inputs": [],
      "name": "contractURI",
      "outputs": [
        {
          "internalType": "string",
          "name": "uri",
          "type": "string"
        }
      ],
      "stateMutability": "view",
      "type": "function"
    },
    {
      "inputs": [
        {
          "internalType": "address",
          "name": "resurrectionPrompt_",
          "type": "address"
        },
        {
          "components": [
            {
              "internalType": "string",
              "name": "feature",
              "type": "string"
            },
            {
              "internalType": "string",
              "name": "name",
              "type": "string"
            },
            {
              "internalType": "string",
              "name": "flavor",
              "type": "string"
            },
            {
              "internalType": "string[]",
              "name": "skills",
              "type": "string[]"
            },
            {
              "internalType": "uint32",
              "name": "lv",
              "type": "uint32"
            },
            {
              "internalType": "uint32",
              "name": "hp",
              "type": "uint32"
            },
            {
              "internalType": "uint32",
              "name": "atk",
              "type": "uint32"
            },
            {
              "internalType": "uint32",
              "name": "def",
              "type": "uint32"
            },
            {
              "internalType": "uint32",
              "name": "inte",
              "type": "uint32"
            },
            {
              "internalType": "uint32",
              "name": "mgr",
              "type": "uint32"
            },
            {
              "internalType": "uint32",
              "name": "agl",
              "type": "uint32"
            }
          ],
          "internalType": "struct ITestPM.Monster",
          "name": "monster_",
          "type": "tuple"
        }
      ],
      "name": "generateMonster",
      "outputs": [],
      "stateMutability": "nonpayable",
      "type": "function"
    },
    {
      "inputs": [
        {
          "internalType": "uint256",
          "name": "tokenId",
          "type": "uint256"
        }
      ],
      "name": "getApproved",
      "outputs": [
        {
          "internalType": "address",
          "name": "",
          "type": "address"
        }
      ],
      "stateMutability": "view",
      "type": "function"
    },
    {
      "inputs": [],
      "name": "getErc20",
      "outputs": [
        {
          "internalType": "contract IERC20",
          "name": "returnValue",
          "type": "address"
        }
      ],
      "stateMutability": "view",
      "type": "function"
    },
    {
      "inputs": [],
      "name": "getMintPrice",
      "outputs": [
        {
          "internalType": "uint256",
          "name": "returnValue",
          "type": "uint256"
        }
      ],
      "stateMutability": "view",
      "type": "function"
    },
    {
      "inputs": [
        {
          "internalType": "address[]",
          "name": "resurrectionPrompts",
          "type": "address[]"
        }
      ],
      "name": "getMinteds",
      "outputs": [
        {
          "internalType": "bool[]",
          "name": "returnValue",
          "type": "bool[]"
        }
      ],
      "stateMutability": "view",
      "type": "function"
    },
    {
      "inputs": [
        {
          "internalType": "address[]",
          "name": "resurrectionPrompts_",
          "type": "address[]"
        }
      ],
      "name": "getMonsterExtensions",
      "outputs": [
        {
          "components": [
            {
              "internalType": "string",
              "name": "feature",
              "type": "string"
            },
            {
              "internalType": "string",
              "name": "name",
              "type": "string"
            },
            {
              "internalType": "string",
              "name": "flavor",
              "type": "string"
            },
            {
              "internalType": "string[]",
              "name": "skills",
              "type": "string[]"
            },
            {
              "internalType": "uint32",
              "name": "lv",
              "type": "uint32"
            },
            {
              "internalType": "uint32",
              "name": "hp",
              "type": "uint32"
            },
            {
              "internalType": "uint32",
              "name": "atk",
              "type": "uint32"
            },
            {
              "internalType": "uint32",
              "name": "def",
              "type": "uint32"
            },
            {
              "internalType": "uint32",
              "name": "inte",
              "type": "uint32"
            },
            {
              "internalType": "uint32",
              "name": "mgr",
              "type": "uint32"
            },
            {
              "internalType": "uint32",
              "name": "agl",
              "type": "uint32"
            },
            {
              "internalType": "uint32[]",
              "name": "skillTypes",
              "type": "uint32[]"
            },
            {
              "internalType": "address",
              "name": "resurrectionPrompt",
              "type": "address"
            }
          ],
          "internalType": "struct ITestPME.MonsterExtension[]",
          "name": "monsterExtensions",
          "type": "tuple[]"
        }
      ],
      "stateMutability": "view",
      "type": "function"
    },
    {
      "inputs": [
        {
          "internalType": "uint256[]",
          "name": "tokenIds",
          "type": "uint256[]"
        }
      ],
      "name": "getMonsters",
      "outputs": [
        {
          "components": [
            {
              "internalType": "string",
              "name": "feature",
              "type": "string"
            },
            {
              "internalType": "string",
              "name": "name",
              "type": "string"
            },
            {
              "internalType": "string",
              "name": "flavor",
              "type": "string"
            },
            {
              "internalType": "string[]",
              "name": "skills",
              "type": "string[]"
            },
            {
              "internalType": "uint32",
              "name": "lv",
              "type": "uint32"
            },
            {
              "internalType": "uint32",
              "name": "hp",
              "type": "uint32"
            },
            {
              "internalType": "uint32",
              "name": "atk",
              "type": "uint32"
            },
            {
              "internalType": "uint32",
              "name": "def",
              "type": "uint32"
            },
            {
              "internalType": "uint32",
              "name": "inte",
              "type": "uint32"
            },
            {
              "internalType": "uint32",
              "name": "mgr",
              "type": "uint32"
            },
            {
              "internalType": "uint32",
              "name": "agl",
              "type": "uint32"
            }
          ],
          "internalType": "struct ITestPM.Monster[]",
          "name": "monsters",
          "type": "tuple[]"
        }
      ],
      "stateMutability": "view",
      "type": "function"
    },
    {
      "inputs": [],
      "name": "getMonstersTotalSupply",
      "outputs": [
        {
          "internalType": "uint256",
          "name": "totalSupply",
          "type": "uint256"
        }
      ],
      "stateMutability": "view",
      "type": "function"
    },
    {
      "inputs": [
        {
          "internalType": "address",
          "name": "owner",
          "type": "address"
        }
      ],
      "name": "getOwnerToTokenIds",
      "outputs": [
        {
          "internalType": "uint256[]",
          "name": "returnValue",
          "type": "uint256[]"
        }
      ],
      "stateMutability": "view",
      "type": "function"
    },
    {
      "inputs": [],
      "name": "getPaused",
      "outputs": [
        {
          "internalType": "bool",
          "name": "returnValue",
          "type": "bool"
        }
      ],
      "stateMutability": "view",
      "type": "function"
    },
    {
      "inputs": [],
      "name": "getPromptMonstersExtension",
      "outputs": [
        {
          "internalType": "contract ITestPME",
          "name": "returnValue",
          "type": "address"
        }
      ],
      "stateMutability": "view",
      "type": "function"
    },
    {
      "inputs": [],
      "name": "getPromptMonstersImage",
      "outputs": [
        {
          "internalType": "contract ITestPMI",
          "name": "returnValue",
          "type": "address"
        }
      ],
      "stateMutability": "view",
      "type": "function"
    },
    {
      "inputs": [],
      "name": "getPromptMonstersWallet",
      "outputs": [
        {
          "internalType": "address",
          "name": "returnValue",
          "type": "address"
        }
      ],
      "stateMutability": "view",
      "type": "function"
    },
    {
      "inputs": [
        {
          "internalType": "uint256[]",
          "name": "monsterIds_",
          "type": "uint256[]"
        }
      ],
      "name": "getResurrectionPrompts",
      "outputs": [
        {
          "internalType": "address[]",
          "name": "returnValue",
          "type": "address[]"
        }
      ],
      "stateMutability": "view",
      "type": "function"
    },
    {
      "inputs": [
        {
          "internalType": "bytes32",
          "name": "role",
          "type": "bytes32"
        }
      ],
      "name": "getRoleAdmin",
      "outputs": [
        {
          "internalType": "bytes32",
          "name": "",
          "type": "bytes32"
        }
      ],
      "stateMutability": "view",
      "type": "function"
    },
    {
      "inputs": [
        {
          "internalType": "bytes32",
          "name": "role",
          "type": "bytes32"
        },
        {
          "internalType": "uint256",
          "name": "index",
          "type": "uint256"
        }
      ],
      "name": "getRoleMember",
      "outputs": [
        {
          "internalType": "address",
          "name": "",
          "type": "address"
        }
      ],
      "stateMutability": "view",
      "type": "function"
    },
    {
      "inputs": [
        {
          "internalType": "bytes32",
          "name": "role",
          "type": "bytes32"
        }
      ],
      "name": "getRoleMemberCount",
      "outputs": [
        {
          "internalType": "uint256",
          "name": "",
          "type": "uint256"
        }
      ],
      "stateMutability": "view",
      "type": "function"
    },
    {
      "inputs": [
        {
          "internalType": "address[]",
          "name": "resurrectionPrompts",
          "type": "address[]"
        }
      ],
      "name": "getTokenIds",
      "outputs": [
        {
          "internalType": "uint256[]",
          "name": "returnValue",
          "type": "uint256[]"
        }
      ],
      "stateMutability": "view",
      "type": "function"
    },
    {
      "inputs": [
        {
          "internalType": "bytes32",
          "name": "role",
          "type": "bytes32"
        },
        {
          "internalType": "address",
          "name": "account",
          "type": "address"
        }
      ],
      "name": "grantRole",
      "outputs": [],
      "stateMutability": "nonpayable",
      "type": "function"
    },
    {
      "inputs": [
        {
          "internalType": "bytes32",
          "name": "role",
          "type": "bytes32"
        },
        {
          "internalType": "address",
          "name": "account",
          "type": "address"
        }
      ],
      "name": "hasRole",
      "outputs": [
        {
          "internalType": "bool",
          "name": "",
          "type": "bool"
        }
      ],
      "stateMutability": "view",
      "type": "function"
    },
    {
      "inputs": [
        {
          "internalType": "string",
          "name": "externalLink_",
          "type": "string"
        },
        {
          "internalType": "address",
          "name": "erc20Address_",
          "type": "address"
        },
        {
          "internalType": "uint256",
          "name": "mintPrice_",
          "type": "uint256"
        },
        {
          "internalType": "address",
          "name": "promptMonstersWallet_",
          "type": "address"
        }
      ],
      "name": "initialize",
      "outputs": [],
      "stateMutability": "nonpayable",
      "type": "function"
    },
    {
      "inputs": [
        {
          "internalType": "address",
          "name": "owner",
          "type": "address"
        },
        {
          "internalType": "address",
          "name": "operator",
          "type": "address"
        }
      ],
      "name": "isApprovedForAll",
      "outputs": [
        {
          "internalType": "bool",
          "name": "",
          "type": "bool"
        }
      ],
      "stateMutability": "view",
      "type": "function"
    },
    {
      "inputs": [
        {
          "internalType": "address",
          "name": "resurrectionPrompt",
          "type": "address"
        }
      ],
      "name": "mint",
      "outputs": [],
      "stateMutability": "nonpayable",
      "type": "function"
    },
    {
      "inputs": [],
      "name": "name",
      "outputs": [
        {
          "internalType": "string",
          "name": "",
          "type": "string"
        }
      ],
      "stateMutability": "view",
      "type": "function"
    },
    {
      "inputs": [
        {
          "internalType": "uint256",
          "name": "tokenId",
          "type": "uint256"
        }
      ],
      "name": "ownerOf",
      "outputs": [
        {
          "internalType": "address",
          "name": "",
          "type": "address"
        }
      ],
      "stateMutability": "view",
      "type": "function"
    },
    {
      "inputs": [],
      "name": "pause",
      "outputs": [],
      "stateMutability": "nonpayable",
      "type": "function"
    },
    {
      "inputs": [],
      "name": "proxiableUUID",
      "outputs": [
        {
          "internalType": "bytes32",
          "name": "",
          "type": "bytes32"
        }
      ],
      "stateMutability": "view",
      "type": "function"
    },
    {
      "inputs": [
        {
          "internalType": "bytes32",
          "name": "role",
          "type": "bytes32"
        },
        {
          "internalType": "address",
          "name": "account",
          "type": "address"
        }
      ],
      "name": "renounceRole",
      "outputs": [],
      "stateMutability": "nonpayable",
      "type": "function"
    },
    {
      "inputs": [
        {
          "internalType": "bytes32",
          "name": "role",
          "type": "bytes32"
        },
        {
          "internalType": "address",
          "name": "account",
          "type": "address"
        }
      ],
      "name": "revokeRole",
      "outputs": [],
      "stateMutability": "nonpayable",
      "type": "function"
    },
    {
      "inputs": [
        {
          "internalType": "address",
          "name": "from",
          "type": "address"
        },
        {
          "internalType": "address",
          "name": "to",
          "type": "address"
        },
        {
          "internalType": "uint256",
          "name": "tokenId",
          "type": "uint256"
        }
      ],
      "name": "safeTransferFrom",
      "outputs": [],
      "stateMutability": "nonpayable",
      "type": "function"
    },
    {
      "inputs": [
        {
          "internalType": "address",
          "name": "from",
          "type": "address"
        },
        {
          "internalType": "address",
          "name": "to",
          "type": "address"
        },
        {
          "internalType": "uint256",
          "name": "tokenId",
          "type": "uint256"
        },
        {
          "internalType": "bytes",
          "name": "data",
          "type": "bytes"
        }
      ],
      "name": "safeTransferFrom",
      "outputs": [],
      "stateMutability": "nonpayable",
      "type": "function"
    },
    {
      "inputs": [
        {
          "internalType": "address",
          "name": "operator",
          "type": "address"
        },
        {
          "internalType": "bool",
          "name": "approved",
          "type": "bool"
        }
      ],
      "name": "setApprovalForAll",
      "outputs": [],
      "stateMutability": "nonpayable",
      "type": "function"
    },
    {
      "inputs": [
        {
          "internalType": "address",
          "name": "newState_",
          "type": "address"
        }
      ],
      "name": "setErc20",
      "outputs": [],
      "stateMutability": "nonpayable",
      "type": "function"
    },
    {
      "inputs": [
        {
          "internalType": "string",
          "name": "newState_",
          "type": "string"
        }
      ],
      "name": "setExternalLink",
      "outputs": [],
      "stateMutability": "nonpayable",
      "type": "function"
    },
    {
      "inputs": [
        {
          "internalType": "uint256",
          "name": "newState_",
          "type": "uint256"
        }
      ],
      "name": "setMintPrice",
      "outputs": [],
      "stateMutability": "nonpayable",
      "type": "function"
    },
    {
      "inputs": [
        {
          "internalType": "address",
          "name": "resurrectionPrompt",
          "type": "address"
        },
        {
          "components": [
            {
              "internalType": "string",
              "name": "feature",
              "type": "string"
            },
            {
              "internalType": "string",
              "name": "name",
              "type": "string"
            },
            {
              "internalType": "string",
              "name": "flavor",
              "type": "string"
            },
            {
              "internalType": "string[]",
              "name": "skills",
              "type": "string[]"
            },
            {
              "internalType": "uint32",
              "name": "lv",
              "type": "uint32"
            },
            {
              "internalType": "uint32",
              "name": "hp",
              "type": "uint32"
            },
            {
              "internalType": "uint32",
              "name": "atk",
              "type": "uint32"
            },
            {
              "internalType": "uint32",
              "name": "def",
              "type": "uint32"
            },
            {
              "internalType": "uint32",
              "name": "inte",
              "type": "uint32"
            },
            {
              "internalType": "uint32",
              "name": "mgr",
              "type": "uint32"
            },
            {
              "internalType": "uint32",
              "name": "agl",
              "type": "uint32"
            }
          ],
          "internalType": "struct ITestPM.Monster",
          "name": "newState_",
          "type": "tuple"
        }
      ],
      "name": "setMonsterHistory",
      "outputs": [],
      "stateMutability": "nonpayable",
      "type": "function"
    },
    {
      "inputs": [
        {
          "internalType": "address",
          "name": "newState_",
          "type": "address"
        }
      ],
      "name": "setPromptMonstersExtension",
      "outputs": [],
      "stateMutability": "nonpayable",
      "type": "function"
    },
    {
      "inputs": [
        {
          "internalType": "address",
          "name": "newState_",
          "type": "address"
        }
      ],
      "name": "setPromptMonstersImage",
      "outputs": [],
      "stateMutability": "nonpayable",
      "type": "function"
    },
    {
      "inputs": [
        {
          "internalType": "address",
          "name": "newState_",
          "type": "address"
        }
      ],
      "name": "setPromptMonstersWallet",
      "outputs": [],
      "stateMutability": "nonpayable",
      "type": "function"
    },
    {
      "inputs": [
        {
          "internalType": "uint256",
          "name": "tokenId",
          "type": "uint256"
        },
        {
          "internalType": "address",
          "name": "resurrectionPrompt",
          "type": "address"
        }
      ],
      "name": "setTokenIdToResurrectionPromptMap",
      "outputs": [],
      "stateMutability": "nonpayable",
      "type": "function"
    },
    {
      "inputs": [
        {
          "internalType": "bytes4",
          "name": "interfaceId",
          "type": "bytes4"
        }
      ],
      "name": "supportsInterface",
      "outputs": [
        {
          "internalType": "bool",
          "name": "",
          "type": "bool"
        }
      ],
      "stateMutability": "view",
      "type": "function"
    },
    {
      "inputs": [],
      "name": "symbol",
      "outputs": [
        {
          "internalType": "string",
          "name": "",
          "type": "string"
        }
      ],
      "stateMutability": "view",
      "type": "function"
    },
    {
      "inputs": [
        {
          "internalType": "uint256",
          "name": "tokenId_",
          "type": "uint256"
        }
      ],
      "name": "tokenURI",
      "outputs": [
        {
          "internalType": "string",
          "name": "uri",
          "type": "string"
        }
      ],
      "stateMutability": "view",
      "type": "function"
    },
    {
      "inputs": [
        {
          "internalType": "address",
          "name": "from",
          "type": "address"
        },
        {
          "internalType": "address",
          "name": "to",
          "type": "address"
        },
        {
          "internalType": "uint256",
          "name": "tokenId",
          "type": "uint256"
        }
      ],
      "name": "transferFrom",
      "outputs": [],
      "stateMutability": "nonpayable",
      "type": "function"
    },
    {
      "inputs": [],
      "name": "unpause",
      "outputs": [],
      "stateMutability": "nonpayable",
      "type": "function"
    },
    {
      "inputs": [
        {
          "internalType": "address",
          "name": "newImplementation",
          "type": "address"
        }
      ],
      "name": "upgradeTo",
      "outputs": [],
      "stateMutability": "nonpayable",
      "type": "function"
    },
    {
      "inputs": [
        {
          "internalType": "address",
          "name": "newImplementation",
          "type": "address"
        },
        {
          "internalType": "bytes",
          "name": "data",
          "type": "bytes"
        }
      ],
      "name": "upgradeToAndCall",
      "outputs": [],
      "stateMutability": "payable",
      "type": "function"
    }
  ],
  "bytecode": "0x60a0604052306080523480156200001557600080fd5b506200002062000026565b620000e8565b600054610100900460ff1615620000935760405162461bcd60e51b815260206004820152602760248201527f496e697469616c697a61626c653a20636f6e747261637420697320696e697469604482015266616c697a696e6760c81b606482015260840160405180910390fd5b60005460ff9081161015620000e6576000805460ff191660ff9081179091556040519081527f7f26b83ff96e1f2b6a682f133852f6798a09c465da95921460cefb38474024989060200160405180910390a15b565b608051615d0462000120600039600081816111f201528181611232015281816113ea0152818161142a01526114b90152615d046000f3fe60806040526004361061031a5760003560e01c806370a08231116101ab578063a8ef2956116100f7578063d547741f11610095578063e985e9c51161006f578063e985e9c514610969578063ee9b80a4146109b2578063eeeaa008146109d2578063f4a0a528146109f157600080fd5b8063d547741f14610914578063e4bab3f514610934578063e8a3d4851461095457600080fd5b8063b88d4fde116100d1578063b88d4fde14610887578063bacc06aa146108a7578063c87b56dd146108d4578063ca15c873146108f457600080fd5b8063a8ef29561461080e578063b01730961461082d578063b2664c2e1461085a57600080fd5b806391d1485411610164578063a11adfe71161013e578063a11adfe7146107a3578063a217fddf146107c3578063a22cb465146107d8578063a7f93ebd146107f857600080fd5b806391d148541461074e57806395d89b411461076e5780639a8baf2f1461078357600080fd5b806370a082311461069a5780637af148c0146106ba5780637e9132ea146106d957806383186465146106f95780638456cb59146107195780639010d07c1461072e57600080fd5b806336568abe1161026a57806352d1902d116102235780636352211e116101fd5780636352211e1461061a57806364cb5fd21461063a5780636805b84b1461065a5780636a6278421461067a57600080fd5b806352d1902d146105cf57806352dd29d2146105e457806355b09456146105fa57600080fd5b806336568abe146105275780633659cfe6146105475780633f4ba83a1461056757806342842e0e1461057c57806342966c681461059c5780634f1ef286146105bc57600080fd5b80631b80ef7a116102d7578063248a9ca3116102b1578063248a9ca31461048a57806327fde6d6146104c85780632f2ff15d146104e757806333a512a41461050757600080fd5b80631b80ef7a1461041d5780631f9179211461044a57806323b872dd1461046a57600080fd5b806301ffc9a71461031f578063038d18d81461035457806306fdde0314610376578063081812fc14610398578063095ea7b3146103d05780630fd7efc4146103f0575b600080fd5b34801561032b57600080fd5b5061033f61033a366004614660565b610a11565b60405190151581526020015b60405180910390f35b34801561036057600080fd5b5061037461036f366004614692565b610a22565b005b34801561038257600080fd5b5061038b610aa7565b60405161034b91906146ff565b3480156103a457600080fd5b506103b86103b3366004614712565b610b39565b6040516001600160a01b03909116815260200161034b565b3480156103dc57600080fd5b506103746103eb36600461472b565b610b60565b3480156103fc57600080fd5b5061041061040b366004614692565b610c7a565b60405161034b9190614757565b34801561042957600080fd5b5061043d610438366004614850565b610ce7565b60405161034b9190614979565b34801561045657600080fd5b50610374610465366004614b56565b610e82565b34801561047657600080fd5b50610374610485366004614b8a565b610f69565b34801561049657600080fd5b506104ba6104a5366004614712565b60009081526097602052604090206001015490565b60405190815260200161034b565b3480156104d457600080fd5b5061019d546001600160a01b03166103b8565b3480156104f357600080fd5b50610374610502366004614bcb565b610f9a565b34801561051357600080fd5b50610374610522366004614ca7565b610fbf565b34801561053357600080fd5b50610374610542366004614bcb565b61116a565b34801561055357600080fd5b50610374610562366004614692565b6111e8565b34801561057357600080fd5b506103746112c7565b34801561058857600080fd5b50610374610597366004614b8a565b611372565b3480156105a857600080fd5b506103746105b7366004614712565b61138d565b6103746105ca366004614e15565b6113e0565b3480156105db57600080fd5b506104ba6114ac565b3480156105f057600080fd5b50610198546104ba565b34801561060657600080fd5b50610374610615366004614e64565b61155f565b34801561062657600080fd5b506103b8610635366004614712565b61171a565b34801561064657600080fd5b50610374610655366004614692565b61177a565b34801561066657600080fd5b5061019a54600160a01b900460ff1661033f565b34801561068657600080fd5b50610374610695366004614692565b6117f6565b3480156106a657600080fd5b506104ba6106b5366004614692565b611ec4565b3480156106c657600080fd5b50610191546001600160a01b03166103b8565b3480156106e557600080fd5b506103746106f4366004614ca7565b611f4a565b34801561070557600080fd5b50610374610714366004614712565b61247a565b34801561072557600080fd5b506103746124fb565b34801561073a57600080fd5b506103b8610749366004614ecf565b61256d565b34801561075a57600080fd5b5061033f610769366004614bcb565b61258c565b34801561077a57600080fd5b5061038b6125b7565b34801561078f57600080fd5b5061037461079e366004614bcb565b6125c6565b3480156107af57600080fd5b506104106107be366004614850565b6126b9565b3480156107cf57600080fd5b506104ba600081565b3480156107e457600080fd5b506103746107f3366004614eff565b612772565b34801561080457600080fd5b50610193546104ba565b34801561081a57600080fd5b5061019a546001600160a01b03166103b8565b34801561083957600080fd5b5061084d610848366004614850565b61277d565b60405161034b9190614f2d565b34801561086657600080fd5b5061087a610875366004614f67565b612848565b60405161034b91906150f8565b34801561089357600080fd5b506103746108a236600461515a565b612c5f565b3480156108b357600080fd5b506108c76108c2366004614f67565b612c97565b60405161034b91906151c5565b3480156108e057600080fd5b5061038b6108ef366004614712565b612d5e565b34801561090057600080fd5b506104ba61090f366004614712565b612e06565b34801561092057600080fd5b5061037461092f366004614bcb565b612e1d565b34801561094057600080fd5b5061037461094f366004614692565b612e42565b34801561096057600080fd5b5061038b612eba565b34801561097557600080fd5b5061033f610984366004615206565b6001600160a01b039182166000908152606a6020908152604080832093909416825291909152205460ff1690565b3480156109be57600080fd5b506103746109cd366004614692565b612f41565b3480156109de57600080fd5b50610192546001600160a01b03166103b8565b3480156109fd57600080fd5b50610374610a0c366004614712565b612fb9565b6000610a1c82613005565b92915050565b6000610a2d8161302a565b61019a80546001600160a01b038481166001600160a01b031983161790925516610a543390565b61019a54604080516001600160a01b038581168252928316602082015292909116917f8cd3b162ee77219f8a05a08a052b90a5e1d7a0781f265182421bc8563f823bbc91015b60405180910390a2505050565b606060658054610ab690615234565b80601f0160208091040260200160405190810160405280929190818152602001828054610ae290615234565b8015610b2f5780601f10610b0457610100808354040283529160200191610b2f565b820191906000526020600020905b815481529060010190602001808311610b1257829003601f168201915b5050505050905090565b6000610b4482613034565b506000908152606960205260409020546001600160a01b031690565b6000610b6b8261171a565b9050806001600160a01b0316836001600160a01b031603610bdd5760405162461bcd60e51b815260206004820152602160248201527f4552433732313a20617070726f76616c20746f2063757272656e74206f776e656044820152603960f91b60648201526084015b60405180910390fd5b336001600160a01b0382161480610bf95750610bf98133610984565b610c6b5760405162461bcd60e51b815260206004820152603d60248201527f4552433732313a20617070726f76652063616c6c6572206973206e6f7420746f60448201527f6b656e206f776e6572206f7220617070726f76656420666f7220616c6c0000006064820152608401610bd4565b610c758383613093565b505050565b6001600160a01b03811660009081526101976020908152604091829020805483518184028101840190945280845260609392830182828015610cdb57602002820191906000526020600020905b815481526020019060010190808311610cc7575b50505050509050919050565b8051606090806001600160401b03811115610d0457610d0461479b565b604051908082528060200260200182016040528015610d9d57816020015b604080516101a0810182526060808252602080830182905292820181905280820181905260006080830181905260a0830181905260c0830181905260e083018190526101008301819052610120830181905261014083018190526101608301919091526101808201528252600019909201910181610d225790505b50915060005b81811015610e7b576000848281518110610dbf57610dbf61526e565b60209081029190910181015161019d546001600160a01b0380831660009081526101969094526040938490209351633184613360e21b8152929450169163c61184cc91610e10918591600401615428565b600060405180830381865afa158015610e2d573d6000803e3d6000fd5b505050506040513d6000823e601f3d908101601f19168201604052610e55919081019061558a565b848381518110610e6757610e6761526e565b602090810291909101015250600101610da3565b5050919050565b6000610e8d8161302a565b60006101948054610e9d90615234565b80601f0160208091040260200160405190810160405280929190818152602001828054610ec990615234565b8015610f165780601f10610eeb57610100808354040283529160200191610f16565b820191906000526020600020905b815481529060010190602001808311610ef957829003601f168201915b50505050509050826101949081610f2d9190615767565b50336001600160a01b03167ffceab947acbd3281d41fa085ba6d9503467fabd9e3d96e3ee0dbf6f8b04a9ca48285604051610a9a929190615826565b610f733382613101565b610f8f5760405162461bcd60e51b8152600401610bd49061584b565b610c75838383613180565b600082815260976020526040902060010154610fb58161302a565b610c7583836132f1565b6000610fca8161302a565b610fd2613313565b6001600160a01b03831660009081526101966020526040902082518391908190610ffc9082615767565b50602082015160018201906110119082615767565b50604082015160028201906110269082615767565b506060820151805161104291600384019160209091019061458d565b5060808201516004909101805460a084015160c085015160e08601516101008701516101208801516101409098015163ffffffff908116600160c01b0263ffffffff60c01b19998216600160a01b0263ffffffff60a01b19938316600160801b029390931667ffffffffffffffff60801b19948316600160601b0263ffffffff60601b19968416600160401b029690961667ffffffffffffffff60401b199784166401000000000267ffffffffffffffff1990991693909a169290921796909617949094169690961791909117161792909217929092161790556040516001600160a01b038416907fff44cc285b2217920f739fd55ee2013963427c0fb71f0d49dc99cfd0c7b8325e90611157908590615898565b60405180910390a2610c75600161015f55565b6001600160a01b03811633146111da5760405162461bcd60e51b815260206004820152602f60248201527f416363657373436f6e74726f6c3a2063616e206f6e6c792072656e6f756e636560448201526e103937b632b9903337b91039b2b63360891b6064820152608401610bd4565b6111e48282613376565b5050565b6001600160a01b037f00000000000000000000000000000000000000000000000000000000000000001630036112305760405162461bcd60e51b8152600401610bd4906158ab565b7f00000000000000000000000000000000000000000000000000000000000000006001600160a01b0316611279600080516020615c88833981519152546001600160a01b031690565b6001600160a01b03161461129f5760405162461bcd60e51b8152600401610bd4906158f7565b6112a881613398565b604080516000808252602082019092526112c4918391906133a3565b50565b60006112d28161302a565b61019a54600160a01b900460ff166113235760405162461bcd60e51b815260206004820152601460248201527314185d5cd8589b194e881b9bdd081c185d5cd95960621b6044820152606401610bd4565b61019a805460ff60a01b191690557f5db9ee0a495bf2e6ff9c91a7834c1ba4fdd244a5e8aa4e537bd38aeae4b073aa335b6040516001600160a01b03909116815260200160405180910390a150565b610c7583838360405180602001604052806000815250612c5f565b611395613313565b61019a54600160a01b900460ff16156113c05760405162461bcd60e51b8152600401610bd490615943565b6113d5336113cf60008061256d565b83611372565b6112c4600161015f55565b6001600160a01b037f00000000000000000000000000000000000000000000000000000000000000001630036114285760405162461bcd60e51b8152600401610bd4906158ab565b7f00000000000000000000000000000000000000000000000000000000000000006001600160a01b0316611471600080516020615c88833981519152546001600160a01b031690565b6001600160a01b0316146114975760405162461bcd60e51b8152600401610bd4906158f7565b6114a082613398565b6111e4828260016133a3565b6000306001600160a01b037f0000000000000000000000000000000000000000000000000000000000000000161461154c5760405162461bcd60e51b815260206004820152603860248201527f555550535570677261646561626c653a206d757374206e6f742062652063616c60448201527f6c6564207468726f7567682064656c656761746563616c6c00000000000000006064820152608401610bd4565b50600080516020615c8883398151915290565b600054610100900460ff161580801561157f5750600054600160ff909116105b806115995750303b158015611599575060005460ff166001145b6115fc5760405162461bcd60e51b815260206004820152602e60248201527f496e697469616c697a61626c653a20636f6e747261637420697320616c72656160448201526d191e481a5b9a5d1a585b1a5e995960921b6064820152608401610bd4565b6000805460ff19166001179055801561161f576000805461ff0019166101001790555b6116646040518060400160405280600681526020016554657374504d60d01b81525060405180604001604052806005815260200164546573744d60d81b81525061350e565b61166c61353f565b61167461353f565b61167c613568565b6116876000336132f1565b6101946116948682615767565b5061019180546001600160a01b038087166001600160a01b0319928316179092556101938590556101928054928516929091169190911790558015611713576000805461ff0019169055604051600181527f7f26b83ff96e1f2b6a682f133852f6798a09c465da95921460cefb38474024989060200160405180910390a15b5050505050565b6000818152606760205260408120546001600160a01b031680610a1c5760405162461bcd60e51b8152602060048201526018602482015277115490cdcc8c4e881a5b9d985b1a59081d1bdad95b88125160421b6044820152606401610bd4565b60006117858161302a565b61019d80546001600160a01b038481166001600160a01b0319831617909255166117ac3390565b61019d54604080516001600160a01b038581168252928316602082015292909116917f0396085acd8a6b3f499308bb193423ed9df5aaa3f8c84acc4551b87d6200371f9101610a9a565b61019a54600160a01b900460ff16156118215760405162461bcd60e51b8152600401610bd490615943565b6001600160a01b038116600090815261019b602052604090205460ff16156118a25760405162461bcd60e51b815260206004820152602e60248201527f50726f6d70744d6f6e73746572733a2054686973206d6f6e737465722069732060448201526d185b1c9958591e481b5a5b9d195960921b6064820152608401610bd4565b61019854600181016119045760405162461bcd60e51b815260206004820152602560248201527f50726f6d70744d6f6e73746572733a20746f6b656e20494420697320746f6f206044820152646c6172676560d81b6064820152608401610bd4565b6001600160a01b038216600090815261019660205260408082208151610160810190925280548290829061193790615234565b80601f016020809104026020016040519081016040528092919081815260200182805461196390615234565b80156119b05780601f10611985576101008083540402835291602001916119b0565b820191906000526020600020905b81548152906001019060200180831161199357829003601f168201915b505050505081526020016001820180546119c990615234565b80601f01602080910402602001604051908101604052809291908181526020018280546119f590615234565b8015611a425780601f10611a1757610100808354040283529160200191611a42565b820191906000526020600020905b815481529060010190602001808311611a2557829003601f168201915b50505050508152602001600282018054611a5b90615234565b80601f0160208091040260200160405190810160405280929190818152602001828054611a8790615234565b8015611ad45780601f10611aa957610100808354040283529160200191611ad4565b820191906000526020600020905b815481529060010190602001808311611ab757829003601f168201915b5050505050815260200160038201805480602002602001604051908101604052809291908181526020016000905b82821015611bae578382906000526020600020018054611b2190615234565b80601f0160208091040260200160405190810160405280929190818152602001828054611b4d90615234565b8015611b9a5780601f10611b6f57610100808354040283529160200191611b9a565b820191906000526020600020905b815481529060010190602001808311611b7d57829003601f168201915b505050505081526020019060010190611b02565b505050908252506004919091015463ffffffff8082166020840152640100000000820481166040840152600160401b820481166060840152600160601b82048116608080850191909152600160801b8304821660a0850152600160a01b8304821660c0850152600160c01b909204811660e09093019290925282015191925016600003611c8e5760405162461bcd60e51b815260206004820152602860248201527f50726f6d70744d6f6e73746572733a206d6f6e73746572206973206e6f742067604482015267195b995c985d195960c21b6064820152608401610bd4565b6101988054600181018255600091909152815182916005027f3f539f465397ab387efa93a617e37005205c037386b5b474fcfac82f47f77f0d01908190611cd59082615767565b5060208201516001820190611cea9082615767565b5060408201516002820190611cff9082615767565b5060608201518051611d1b91600384019160209091019061458d565b5060808201516004909101805460a084015160c085015160e08601516101008701516101208801516101409098015163ffffffff908116600160c01b0263ffffffff60c01b19998216600160a01b0263ffffffff60a01b19938316600160801b029390931667ffffffffffffffff60801b19948316600160601b0263ffffffff60601b19968416600160401b029690961667ffffffffffffffff60401b199784166401000000000267ffffffffffffffff199099169a84169a909a179790971795909516979097179290921716929092179190911793909316929092179091556001600160a01b0380851660008181526101996020908152604080832088905587835261019c825280832080546001600160a01b0319168517905592825261019b905220805460ff19166001179055610192546101935461019154611e699490841693339316919061359716565b611e7333836135f1565b81836001600160a01b0316336001600160a01b03167fe9ee779cbe62e587b706f33e99b7b8cd23e7880147261deea52b25e3ecf6a5f384604051611eb79190615898565b60405180910390a4505050565b60006001600160a01b038216611f2e5760405162461bcd60e51b815260206004820152602960248201527f4552433732313a2061646472657373207a65726f206973206e6f7420612076616044820152683634b21037bbb732b960b91b6064820152608401610bd4565b506001600160a01b031660009081526068602052604090205490565b6000611f558161302a565b6001600160a01b0383166000908152610196602052604080822081516101608101909252805482908290611f8890615234565b80601f0160208091040260200160405190810160405280929190818152602001828054611fb490615234565b80156120015780601f10611fd657610100808354040283529160200191612001565b820191906000526020600020905b815481529060010190602001808311611fe457829003601f168201915b5050505050815260200160018201805461201a90615234565b80601f016020809104026020016040519081016040528092919081815260200182805461204690615234565b80156120935780601f1061206857610100808354040283529160200191612093565b820191906000526020600020905b81548152906001019060200180831161207657829003601f168201915b505050505081526020016002820180546120ac90615234565b80601f01602080910402602001604051908101604052809291908181526020018280546120d890615234565b80156121255780601f106120fa57610100808354040283529160200191612125565b820191906000526020600020905b81548152906001019060200180831161210857829003601f168201915b5050505050815260200160038201805480602002602001604051908101604052809291908181526020016000905b828210156121ff57838290600052602060002001805461217290615234565b80601f016020809104026020016040519081016040528092919081815260200182805461219e90615234565b80156121eb5780601f106121c0576101008083540402835291602001916121eb565b820191906000526020600020905b8154815290600101906020018083116121ce57829003601f168201915b505050505081526020019060010190612153565b505050908252506004919091015463ffffffff8082166020840152640100000000820481166040840152600160401b820481166060840152600160601b82048116608080850191909152600160801b8304821660a0850152600160a01b8304821660c0850152600160c01b909204811660e09093019290925282015191925016156122e15760405162461bcd60e51b815260206004820152602c60248201527f50726f6d70744d6f6e73746572733a206d6f6e7374657220697320616c72656160448201526b191e4819d95b995c985d195960a21b6064820152608401610bd4565b6001600160a01b0384166000908152610196602052604090208351849190819061230b9082615767565b50602082015160018201906123209082615767565b50604082015160028201906123359082615767565b506060820151805161235191600384019160209091019061458d565b5060808201516004909101805460a084015160c085015160e08601516101008701516101208801516101409098015163ffffffff908116600160c01b0263ffffffff60c01b19998216600160a01b0263ffffffff60a01b19938316600160801b029390931667ffffffffffffffff60801b19948316600160601b0263ffffffff60601b19968416600160401b029690961667ffffffffffffffff60401b199784166401000000000267ffffffffffffffff1990991693909a169290921796909617949094169690961791909117161792909217929092161790556124323390565b6001600160a01b03167f64973f95ccf4d61cd6e4873db3a572c9a39fba2329a28e96f353f7fca37c2926828560405161246c92919061596d565b60405180910390a250505050565b6000818152606760205260409020546001600160a01b03161515806124a0575060001981145b6112c45760405162461bcd60e51b815260206004820152602660248201527f50726f6d70744d6f6e73746572733a206d6f6e7374657220646f6573206e6f7460448201526508195e1a5cdd60d21b6064820152608401610bd4565b60006125068161302a565b61019a54600160a01b900460ff16156125315760405162461bcd60e51b8152600401610bd490615943565b61019a805460ff60a01b1916600160a01b1790557f62e78cea01bee320cd4e420270b5ea74000d11b0c9f74754ebdbfc544b05a2586113543390565b600082815260c960205260408120612585908361360b565b9392505050565b60009182526097602090815260408084206001600160a01b0393909316845291905290205460ff1690565b606060668054610ab690615234565b60006125d18161302a565b600083815261019c60205260409020546001600160a01b0316801561264a5760405162461bcd60e51b815260206004820152602960248201527f50726f6d70744d6f6e73746572733a206d6f6e7374657220697320616c726561604482015268191e481b5a5b9d195960ba1b6064820152608401610bd4565b600084815261019c6020526040902080546001600160a01b0319166001600160a01b03851617905533604080516001600160a01b038481168252868116602083015292909216917fe5d69c008031be053a6640e34b83274d391e1424d9013c83a5b26d6d0949aa46910161246c565b8051606090806001600160401b038111156126d6576126d661479b565b6040519080825280602002602001820160405280156126ff578160200160208202803683370190505b50915060005b81811015610e7b5761019960008583815181106127245761272461526e565b60200260200101516001600160a01b03166001600160a01b031681526020019081526020016000205483828151811061275f5761275f61526e565b6020908102919091010152600101612705565b6111e4338383613617565b8051606090806001600160401b0381111561279a5761279a61479b565b6040519080825280602002602001820160405280156127c3578160200160208202803683370190505b50915060005b81811015610e7b5761019b60008583815181106127e8576127e861526e565b60200260200101516001600160a01b03166001600160a01b0316815260200190815260200160002060009054906101000a900460ff168382815181106128305761283061526e565b911515602092830291909101909101526001016127c9565b8051606090806001600160401b038111156128655761286561479b565b6040519080825280602002602001820160405280156128eb57816020015b6040805161016081018252606080825260208083018290529282018190528082015260006080820181905260a0820181905260c0820181905260e082018190526101008201819052610120820181905261014082015282526000199092019101816128835790505b50915060005b81811015610e7b5761019884828151811061290e5761290e61526e565b6020026020010151815481106129265761292661526e565b90600052602060002090600502016040518061016001604052908160008201805461295090615234565b80601f016020809104026020016040519081016040528092919081815260200182805461297c90615234565b80156129c95780601f1061299e576101008083540402835291602001916129c9565b820191906000526020600020905b8154815290600101906020018083116129ac57829003601f168201915b505050505081526020016001820180546129e290615234565b80601f0160208091040260200160405190810160405280929190818152602001828054612a0e90615234565b8015612a5b5780601f10612a3057610100808354040283529160200191612a5b565b820191906000526020600020905b815481529060010190602001808311612a3e57829003601f168201915b50505050508152602001600282018054612a7490615234565b80601f0160208091040260200160405190810160405280929190818152602001828054612aa090615234565b8015612aed5780601f10612ac257610100808354040283529160200191612aed565b820191906000526020600020905b815481529060010190602001808311612ad057829003601f168201915b5050505050815260200160038201805480602002602001604051908101604052809291908181526020016000905b82821015612bc7578382906000526020600020018054612b3a90615234565b80601f0160208091040260200160405190810160405280929190818152602001828054612b6690615234565b8015612bb35780601f10612b8857610100808354040283529160200191612bb3565b820191906000526020600020905b815481529060010190602001808311612b9657829003601f168201915b505050505081526020019060010190612b1b565b505050908252506004919091015463ffffffff8082166020840152640100000000820481166040840152600160401b820481166060840152600160601b820481166080840152600160801b8204811660a0840152600160a01b8204811660c0840152600160c01b9091041660e0909101528351849083908110612c4c57612c4c61526e565b60209081029190910101526001016128f1565b612c693383613101565b612c855760405162461bcd60e51b8152600401610bd49061584b565b612c91848484846136e5565b50505050565b8051606090806001600160401b03811115612cb457612cb461479b565b604051908082528060200260200182016040528015612cdd578160200160208202803683370190505b50915060005b81811015610e7b5761019c6000858381518110612d0257612d0261526e565b6020026020010151815260200190815260200160002060009054906101000a90046001600160a01b0316838281518110612d3e57612d3e61526e565b6001600160a01b0390921660209283029190910190910152600101612ce3565b6060612d6982613034565b61019a5461019880546001600160a01b039092169163b688876c91859182908110612d9657612d9661526e565b90600052602060002090600502016040518363ffffffff1660e01b8152600401612dc1929190615992565b600060405180830381865afa158015612dde573d6000803e3d6000fd5b505050506040513d6000823e601f3d908101601f19168201604052610a1c91908101906159ab565b600081815260c960205260408120610a1c90613718565b600082815260976020526040902060010154612e388161302a565b610c758383613376565b6000612e4d8161302a565b61019280546001600160a01b038481166001600160a01b031983161790925516612e743390565b604080516001600160a01b038481168252868116602083015292909216917fc791f304f706b4012579cd651a8a0d930c30d117f42ee74327000e3fc75bfbbc9101610a9a565b61019a546060906001600160a01b031663b2794520612ed7610aa7565b6101946040518363ffffffff1660e01b8152600401612ef79291906159df565b600060405180830381865afa158015612f14573d6000803e3d6000fd5b505050506040513d6000823e601f3d908101601f19168201604052612f3c91908101906159ab565b905090565b6000612f4c8161302a565b61019180546001600160a01b038481166001600160a01b031983161790925516612f733390565b604080516001600160a01b038481168252868116602083015292909216917f5ebe54482b2a8120482902e3bfe9ca1a913e9987bcb1f18c974dae585132a9549101610a9a565b6000612fc48161302a565b610193805490839055604080518281526020810185905233917f55cc83342b4c144a74960fdf0dfe1a7af4cbb77aaccb471b088d5fe0bdad1d4c9101610a9a565b60006001600160e01b03198216635a05180f60e01b1480610a1c5750610a1c82613722565b6112c48133613747565b6000818152606760205260409020546001600160a01b03166112c45760405162461bcd60e51b8152602060048201526018602482015277115490cdcc8c4e881a5b9d985b1a59081d1bdad95b88125160421b6044820152606401610bd4565b600081815260696020526040902080546001600160a01b0319166001600160a01b03841690811790915581906130c88261171a565b6001600160a01b03167f8c5be1e5ebec7d5bd14f71427d1e84f3dd0314c0f7b2291e5b200ac8c7c3b92560405160405180910390a45050565b60008061310d8361171a565b9050806001600160a01b0316846001600160a01b0316148061315457506001600160a01b038082166000908152606a602090815260408083209388168352929052205460ff165b806131785750836001600160a01b031661316d84610b39565b6001600160a01b0316145b949350505050565b826001600160a01b03166131938261171a565b6001600160a01b0316146131b95760405162461bcd60e51b8152600401610bd490615a04565b6001600160a01b03821661321b5760405162461bcd60e51b8152602060048201526024808201527f4552433732313a207472616e7366657220746f20746865207a65726f206164646044820152637265737360e01b6064820152608401610bd4565b61322883838360016137a0565b826001600160a01b031661323b8261171a565b6001600160a01b0316146132615760405162461bcd60e51b8152600401610bd490615a04565b600081815260696020908152604080832080546001600160a01b03199081169091556001600160a01b0387811680865260688552838620805460001901905590871680865283862080546001019055868652606790945282852080549092168417909155905184937fddf252ad1be2c89b69c2b068fc378daa952ba7f163c4a11628f55a4df523b3ef91a4505050565b6132fb82826137e9565b600082815260c960205260409020610c75908261386f565b600261015f54036133665760405162461bcd60e51b815260206004820152601f60248201527f5265656e7472616e637947756172643a207265656e7472616e742063616c6c006044820152606401610bd4565b600261015f55565b600161015f55565b6133808282613884565b600082815260c960205260409020610c7590826138eb565b60006111e48161302a565b7f4910fdfa16fed3260ed0e7147f7cc6da11a60208b5b9406d12a635614ffd91435460ff16156133d657610c7583613900565b826001600160a01b03166352d1902d6040518163ffffffff1660e01b8152600401602060405180830381865afa925050508015613430575060408051601f3d908101601f1916820190925261342d91810190615a49565b60015b6134935760405162461bcd60e51b815260206004820152602e60248201527f45524331393637557067726164653a206e657720696d706c656d656e7461746960448201526d6f6e206973206e6f74205555505360901b6064820152608401610bd4565b600080516020615c8883398151915281146135025760405162461bcd60e51b815260206004820152602960248201527f45524331393637557067726164653a20756e737570706f727465642070726f786044820152681a58589b195555525160ba1b6064820152608401610bd4565b50610c7583838361399c565b600054610100900460ff166135355760405162461bcd60e51b8152600401610bd490615a62565b6111e482826139c1565b600054610100900460ff166135665760405162461bcd60e51b8152600401610bd490615a62565b565b600054610100900460ff1661358f5760405162461bcd60e51b8152600401610bd490615a62565b613566613a01565b604080516001600160a01b0385811660248301528416604482015260648082018490528251808303909101815260849091019091526020810180516001600160e01b03166323b872dd60e01b179052612c91908590613a28565b6111e4828260405180602001604052806000815250613afa565b60006125858383613b2d565b816001600160a01b0316836001600160a01b0316036136785760405162461bcd60e51b815260206004820152601960248201527f4552433732313a20617070726f766520746f2063616c6c6572000000000000006044820152606401610bd4565b6001600160a01b038381166000818152606a6020908152604080832094871680845294825291829020805460ff191686151590811790915591519182527f17307eab39ab6107e8899845ad3d59bd9653f200f220920489ca2b5937696c31910160405180910390a3505050565b6136f0848484613180565b6136fc84848484613b57565b612c915760405162461bcd60e51b8152600401610bd490615aad565b6000610a1c825490565b60006001600160e01b03198216637965db0b60e01b1480610a1c5750610a1c82613c58565b613751828261258c565b6111e45761375e81613ca8565b613769836020613cba565b60405160200161377a929190615aff565b60408051601f198184030181529082905262461bcd60e51b8252610bd4916004016146ff565b6001600160a01b0384166137bd576137b88383613e55565b612c91565b6001600160a01b0383166137d5576137b88483613e9a565b6137df8483613e9a565b6137b88383613e55565b6137f3828261258c565b6111e45760008281526097602090815260408083206001600160a01b03851684529091529020805460ff1916600117905561382b3390565b6001600160a01b0316816001600160a01b0316837f2f8788117e7eff1d82e926ec794901d17c78024a50270940304540a733656f0d60405160405180910390a45050565b6000612585836001600160a01b038416613fd8565b61388e828261258c565b156111e45760008281526097602090815260408083206001600160a01b0385168085529252808320805460ff1916905551339285917ff6391f5c32d9c69d2a47ea670b442974b53935d1edc7fd64eb21e047a839171b9190a45050565b6000612585836001600160a01b038416614027565b6001600160a01b0381163b61396d5760405162461bcd60e51b815260206004820152602d60248201527f455243313936373a206e657720696d706c656d656e746174696f6e206973206e60448201526c1bdd08184818dbdb9d1c9858dd609a1b6064820152608401610bd4565b600080516020615c8883398151915280546001600160a01b0319166001600160a01b0392909216919091179055565b6139a58361411a565b6000825111806139b25750805b15610c7557612c91838361415a565b600054610100900460ff166139e85760405162461bcd60e51b8152600401610bd490615a62565b60656139f48382615767565b506066610c758282615767565b600054610100900460ff1661336e5760405162461bcd60e51b8152600401610bd490615a62565b6000613a7d826040518060400160405280602081526020017f5361666545524332303a206c6f772d6c6576656c2063616c6c206661696c6564815250856001600160a01b031661424e9092919063ffffffff16565b805190915015610c755780806020019051810190613a9b9190615b74565b610c755760405162461bcd60e51b815260206004820152602a60248201527f5361666545524332303a204552433230206f7065726174696f6e20646964206e6044820152691bdd081cdd58d8d9595960b21b6064820152608401610bd4565b613b04838361425d565b613b116000848484613b57565b610c755760405162461bcd60e51b8152600401610bd490615aad565b6000826000018281548110613b4457613b4461526e565b9060005260206000200154905092915050565b60006001600160a01b0384163b15613c4d57604051630a85bd0160e11b81526001600160a01b0385169063150b7a0290613b9b903390899088908890600401615b91565b6020604051808303816000875af1925050508015613bd6575060408051601f3d908101601f19168201909252613bd391810190615bce565b60015b613c33573d808015613c04576040519150601f19603f3d011682016040523d82523d6000602084013e613c09565b606091505b508051600003613c2b5760405162461bcd60e51b8152600401610bd490615aad565b805181602001fd5b6001600160e01b031916630a85bd0160e11b149050613178565b506001949350505050565b60006001600160e01b031982166380ac58cd60e01b1480613c8957506001600160e01b03198216635b5e139f60e01b145b80610a1c57506301ffc9a760e01b6001600160e01b0319831614610a1c565b6060610a1c6001600160a01b03831660145b60606000613cc9836002615c01565b613cd4906002615c18565b6001600160401b03811115613ceb57613ceb61479b565b6040519080825280601f01601f191660200182016040528015613d15576020820181803683370190505b509050600360fc1b81600081518110613d3057613d3061526e565b60200101906001600160f81b031916908160001a905350600f60fb1b81600181518110613d5f57613d5f61526e565b60200101906001600160f81b031916908160001a9053506000613d83846002615c01565b613d8e906001615c18565b90505b6001811115613e06576f181899199a1a9b1b9c1cb0b131b232b360811b85600f1660108110613dc257613dc261526e565b1a60f81b828281518110613dd857613dd861526e565b60200101906001600160f81b031916908160001a90535060049490941c93613dff81615c2b565b9050613d91565b5083156125855760405162461bcd60e51b815260206004820181905260248201527f537472696e67733a20686578206c656e67746820696e73756666696369656e746044820152606401610bd4565b6001600160a01b039091166000908152610197602081815260408084208054610195845282862087875284529185208290559282526001810183559183529091200155565b6001600160a01b0382166000908152610197602052604081208054613ec190600190615c42565b81548110613ed157613ed161526e565b60009182526020808320909101546001600160a01b038616835261019582526040808420868552909252912054909150828214613f43576001600160a01b038416600090815261019760205260409020805483919083908110613f3657613f3661526e565b6000918252602090912001555b6001600160a01b038416600090815261019760205260409020805480613f6b57613f6b615c55565b6000828152602080822083016000199081018390559092019092556001600160a01b038616825261019581526040808320868452909152812055818314612c91576001600160a01b0393909316600090815261019560209081526040808320938352929052209190915550565b600081815260018301602052604081205461401f57508154600181810184556000848152602080822090930184905584548482528286019093526040902091909155610a1c565b506000610a1c565b6000818152600183016020526040812054801561411057600061404b600183615c42565b855490915060009061405f90600190615c42565b90508181146140c457600086600001828154811061407f5761407f61526e565b90600052602060002001549050808760000184815481106140a2576140a261526e565b6000918252602080832090910192909255918252600188019052604090208390555b85548690806140d5576140d5615c55565b600190038181906000526020600020016000905590558560010160008681526020019081526020016000206000905560019350505050610a1c565b6000915050610a1c565b61412381613900565b6040516001600160a01b038216907fbc7cd75a20ee27fd9adebab32041f755214dbc6bffa90cc0225b39da2e5c2d3b90600090a250565b60606001600160a01b0383163b6141c25760405162461bcd60e51b815260206004820152602660248201527f416464726573733a2064656c65676174652063616c6c20746f206e6f6e2d636f6044820152651b9d1c9858dd60d21b6064820152608401610bd4565b600080846001600160a01b0316846040516141dd9190615c6b565b600060405180830381855af49150503d8060008114614218576040519150601f19603f3d011682016040523d82523d6000602084013e61421d565b606091505b50915091506142458282604051806060016040528060278152602001615ca8602791396143f6565b95945050505050565b6060613178848460008561440f565b6001600160a01b0382166142b35760405162461bcd60e51b815260206004820181905260248201527f4552433732313a206d696e7420746f20746865207a65726f20616464726573736044820152606401610bd4565b6000818152606760205260409020546001600160a01b0316156143185760405162461bcd60e51b815260206004820152601c60248201527f4552433732313a20746f6b656e20616c7265616479206d696e746564000000006044820152606401610bd4565b6143266000838360016137a0565b6000818152606760205260409020546001600160a01b03161561438b5760405162461bcd60e51b815260206004820152601c60248201527f4552433732313a20746f6b656e20616c7265616479206d696e746564000000006044820152606401610bd4565b6001600160a01b038216600081815260686020908152604080832080546001019055848352606790915280822080546001600160a01b0319168417905551839291907fddf252ad1be2c89b69c2b068fc378daa952ba7f163c4a11628f55a4df523b3ef908290a45050565b60608315614405575081612585565b61258583836144ea565b6060824710156144705760405162461bcd60e51b815260206004820152602660248201527f416464726573733a20696e73756666696369656e742062616c616e636520666f6044820152651c8818d85b1b60d21b6064820152608401610bd4565b600080866001600160a01b0316858760405161448c9190615c6b565b60006040518083038185875af1925050503d80600081146144c9576040519150601f19603f3d011682016040523d82523d6000602084013e6144ce565b606091505b50915091506144df87838387614514565b979650505050505050565b8151156144fa5781518083602001fd5b8060405162461bcd60e51b8152600401610bd491906146ff565b6060831561458357825160000361457c576001600160a01b0385163b61457c5760405162461bcd60e51b815260206004820152601d60248201527f416464726573733a2063616c6c20746f206e6f6e2d636f6e74726163740000006044820152606401610bd4565b5081613178565b61317883836144ea565b8280548282559060005260206000209081019282156145d3579160200282015b828111156145d357825182906145c39082615767565b50916020019190600101906145ad565b506145df9291506145e3565b5090565b808211156145df5760006145f78282614600565b506001016145e3565b50805461460c90615234565b6000825580601f1061461c575050565b601f0160209004906000526020600020908101906112c491905b808211156145df5760008155600101614636565b6001600160e01b0319811681146112c457600080fd5b60006020828403121561467257600080fd5b81356125858161464a565b6001600160a01b03811681146112c457600080fd5b6000602082840312156146a457600080fd5b81356125858161467d565b60005b838110156146ca5781810151838201526020016146b2565b50506000910152565b600081518084526146eb8160208601602086016146af565b601f01601f19169290920160200192915050565b60208152600061258560208301846146d3565b60006020828403121561472457600080fd5b5035919050565b6000806040838503121561473e57600080fd5b82356147498161467d565b946020939093013593505050565b6020808252825182820181905260009190848201906040850190845b8181101561478f57835183529284019291840191600101614773565b50909695505050505050565b634e487b7160e01b600052604160045260246000fd5b60405161016081016001600160401b03811182821017156147d4576147d461479b565b60405290565b6040516101a081016001600160401b03811182821017156147d4576147d461479b565b604051601f8201601f191681016001600160401b03811182821017156148255761482561479b565b604052919050565b60006001600160401b038211156148465761484661479b565b5060051b60200190565b6000602080838503121561486357600080fd5b82356001600160401b0381111561487957600080fd5b8301601f8101851361488a57600080fd5b803561489d6148988261482d565b6147fd565b81815260059190911b820183019083810190878311156148bc57600080fd5b928401925b828410156144df5783356148d48161467d565b825292840192908401906148c1565b600081518084526020808501808196508360051b8101915082860160005b8581101561492b5782840389526149198483516146d3565b98850198935090840190600101614901565b5091979650505050505050565b600081518084526020808501945080840160005b8381101561496e57815163ffffffff168752958201959082019060010161494c565b509495945050505050565b60006020808301818452808551808352604092508286019150828160051b87010184880160005b83811015614ad057603f1989840301855281516101a081518186526149c7828701826146d3565b915050888201518582038a8701526149df82826146d3565b91505087820151858203898701526149f782826146d3565b91505060608083015186830382880152614a1183826148e3565b92505050608080830151614a2c8288018263ffffffff169052565b505060a08281015163ffffffff9081169187019190915260c08084015182169087015260e080840151821690870152610100808401518216908701526101208084015182169087015261014080840151909116908601526101608083015186830382880152614a9b8382614938565b92505050610180808301519250614abc818701846001600160a01b03169052565b5095880195935050908601906001016149a0565b509098975050505050505050565b60006001600160401b03821115614af757614af761479b565b50601f01601f191660200190565b600082601f830112614b1657600080fd5b8135614b2461489882614ade565b818152846020838601011115614b3957600080fd5b816020850160208301376000918101602001919091529392505050565b600060208284031215614b6857600080fd5b81356001600160401b03811115614b7e57600080fd5b61317884828501614b05565b600080600060608486031215614b9f57600080fd5b8335614baa8161467d565b92506020840135614bba8161467d565b929592945050506040919091013590565b60008060408385031215614bde57600080fd5b823591506020830135614bf08161467d565b809150509250929050565b600082601f830112614c0c57600080fd5b81356020614c1c6148988361482d565b82815260059290921b84018101918181019086841115614c3b57600080fd5b8286015b84811015614c7a5780356001600160401b03811115614c5e5760008081fd5b614c6c8986838b0101614b05565b845250918301918301614c3f565b509695505050505050565b63ffffffff811681146112c457600080fd5b8035614ca281614c85565b919050565b60008060408385031215614cba57600080fd5b8235614cc58161467d565b915060208301356001600160401b0380821115614ce157600080fd5b908401906101608287031215614cf657600080fd5b614cfe6147b1565b823582811115614d0d57600080fd5b614d1988828601614b05565b825250602083013582811115614d2e57600080fd5b614d3a88828601614b05565b602083015250604083013582811115614d5257600080fd5b614d5e88828601614b05565b604083015250606083013582811115614d7657600080fd5b614d8288828601614bfb565b606083015250614d9460808401614c97565b6080820152614da560a08401614c97565b60a0820152614db660c08401614c97565b60c0820152614dc760e08401614c97565b60e08201526101009150614ddc828401614c97565b828201526101209150614df0828401614c97565b828201526101409150614e04828401614c97565b828201528093505050509250929050565b60008060408385031215614e2857600080fd5b8235614e338161467d565b915060208301356001600160401b03811115614e4e57600080fd5b614e5a85828601614b05565b9150509250929050565b60008060008060808587031215614e7a57600080fd5b84356001600160401b03811115614e9057600080fd5b614e9c87828801614b05565b9450506020850135614ead8161467d565b9250604085013591506060850135614ec48161467d565b939692955090935050565b60008060408385031215614ee257600080fd5b50508035926020909101359150565b80151581146112c457600080fd5b60008060408385031215614f1257600080fd5b8235614f1d8161467d565b91506020830135614bf081614ef1565b6020808252825182820181905260009190848201906040850190845b8181101561478f578351151583529284019291840191600101614f49565b60006020808385031215614f7a57600080fd5b82356001600160401b03811115614f9057600080fd5b8301601f81018513614fa157600080fd5b8035614faf6148988261482d565b81815260059190911b82018301908381019087831115614fce57600080fd5b928401925b828410156144df57833582529284019290840190614fd3565b60006101608251818552615002828601826146d3565b9150506020830151848203602086015261501c82826146d3565b9150506040830151848203604086015261503682826146d3565b9150506060830151848203606086015261505082826148e3565b915050608083015161506a608086018263ffffffff169052565b5060a083015161508260a086018263ffffffff169052565b5060c083015161509a60c086018263ffffffff169052565b5060e08301516150b260e086018263ffffffff169052565b506101008381015163ffffffff81168683015250506101208381015163ffffffff81168683015250506101408381015163ffffffff8116868301525b5090949350505050565b6000602080830181845280855180835260408601915060408160051b870101925083870160005b8281101561514d57603f1988860301845261513b858351614fec565b9450928501929085019060010161511f565b5092979650505050505050565b6000806000806080858703121561517057600080fd5b843561517b8161467d565b9350602085013561518b8161467d565b92506040850135915060608501356001600160401b038111156151ad57600080fd5b6151b987828801614b05565b91505092959194509250565b6020808252825182820181905260009190848201906040850190845b8181101561478f5783516001600160a01b0316835292840192918401916001016151e1565b6000806040838503121561521957600080fd5b82356152248161467d565b91506020830135614bf08161467d565b600181811c9082168061524857607f821691505b60208210810361526857634e487b7160e01b600052602260045260246000fd5b50919050565b634e487b7160e01b600052603260045260246000fd5b6000815461529181615234565b8085526020600183811680156152ae57600181146152c8576152f6565b60ff1985168884015283151560051b8801830195506152f6565b866000528260002060005b858110156152ee5781548a82018601529083019084016152d3565b890184019650505b505050505092915050565b600081548084526020808501808196508360051b81019150856000528260002060005b8581101561492b57828403895261533b8483615284565b98850198935060019182019101615324565b600061016080845261536181850184615284565b905083810360208501526153788160018501615284565b9050838103604085015261538f8160028501615284565b905083810360608501526153a68160038501615301565b600484015463ffffffff8082166080880152602082901c811660a0880152604082901c811660c0880152606082901c811660e0880152919250906153f86101008701828460801c1663ffffffff169052565b6154106101208701828460a01c1663ffffffff169052565b6150ee6101408701828460c01c1663ffffffff169052565b6001600160a01b03831681526040602082018190526000906131789083018461534d565b600082601f83011261545d57600080fd5b815161546b61489882614ade565b81815284602083860101111561548057600080fd5b6131788260208301602087016146af565b600082601f8301126154a257600080fd5b815160206154b26148988361482d565b82815260059290921b840181019181810190868411156154d157600080fd5b8286015b84811015614c7a5780516001600160401b038111156154f45760008081fd5b6155028986838b010161544c565b8452509183019183016154d5565b8051614ca281614c85565b600082601f83011261552c57600080fd5b8151602061553c6148988361482d565b82815260059290921b8401810191818101908684111561555b57600080fd5b8286015b84811015614c7a57805161557281614c85565b835291830191830161555f565b8051614ca28161467d565b60006020828403121561559c57600080fd5b81516001600160401b03808211156155b357600080fd5b908301906101a082860312156155c857600080fd5b6155d06147da565b8251828111156155df57600080fd5b6155eb8782860161544c565b82525060208301518281111561560057600080fd5b61560c8782860161544c565b60208301525060408301518281111561562457600080fd5b6156308782860161544c565b60408301525060608301518281111561564857600080fd5b61565487828601615491565b60608301525061566660808401615510565b608082015261567760a08401615510565b60a082015261568860c08401615510565b60c082015261569960e08401615510565b60e08201526101006156ac818501615510565b908201526101206156be848201615510565b908201526101406156d0848201615510565b9082015261016083810151838111156156e857600080fd5b6156f48882870161551b565b828401525050610180915061570a82840161557f565b91810191909152949350505050565b601f821115610c7557600081815260208120601f850160051c810160208610156157405750805b601f850160051c820191505b8181101561575f5782815560010161574c565b505050505050565b81516001600160401b038111156157805761578061479b565b6157948161578e8454615234565b84615719565b602080601f8311600181146157c957600084156157b15750858301515b600019600386901b1c1916600185901b17855561575f565b600085815260208120601f198616915b828110156157f8578886015182559484019460019091019084016157d9565b50858210156158165787850151600019600388901b60f8161c191681555b5050505050600190811b01905550565b60408152600061583960408301856146d3565b828103602084015261424581856146d3565b6020808252602d908201527f4552433732313a2063616c6c6572206973206e6f7420746f6b656e206f776e6560408201526c1c881bdc88185c1c1c9bdd9959609a1b606082015260800190565b6020815260006125856020830184614fec565b6020808252602c908201527f46756e6374696f6e206d7573742062652063616c6c6564207468726f7567682060408201526b19195b1959d85d1958d85b1b60a21b606082015260800190565b6020808252602c908201527f46756e6374696f6e206d7573742062652063616c6c6564207468726f7567682060408201526b6163746976652070726f787960a01b606082015260800190565b60208082526010908201526f14185d5cd8589b194e881c185d5cd95960821b604082015260600190565b6040815260006159806040830185614fec565b82810360208401526142458185614fec565b828152604060208201526000613178604083018461534d565b6000602082840312156159bd57600080fd5b81516001600160401b038111156159d357600080fd5b6131788482850161544c565b6040815260006159f260408301856146d3565b82810360208401526142458185615284565b60208082526025908201527f4552433732313a207472616e736665722066726f6d20696e636f72726563742060408201526437bbb732b960d91b606082015260800190565b600060208284031215615a5b57600080fd5b5051919050565b6020808252602b908201527f496e697469616c697a61626c653a20636f6e7472616374206973206e6f74206960408201526a6e697469616c697a696e6760a81b606082015260800190565b60208082526032908201527f4552433732313a207472616e7366657220746f206e6f6e20455243373231526560408201527131b2b4bb32b91034b6b83632b6b2b73a32b960711b606082015260800190565b7f416363657373436f6e74726f6c3a206163636f756e7420000000000000000000815260008351615b378160178501602088016146af565b7001034b99036b4b9b9b4b733903937b6329607d1b6017918401918201528351615b688160288401602088016146af565b01602801949350505050565b600060208284031215615b8657600080fd5b815161258581614ef1565b6001600160a01b0385811682528416602082015260408101839052608060608201819052600090615bc4908301846146d3565b9695505050505050565b600060208284031215615be057600080fd5b81516125858161464a565b634e487b7160e01b600052601160045260246000fd5b8082028115828204841417610a1c57610a1c615beb565b80820180821115610a1c57610a1c615beb565b600081615c3a57615c3a615beb565b506000190190565b81810381811115610a1c57610a1c615beb565b634e487b7160e01b600052603160045260246000fd5b60008251615c7d8184602087016146af565b919091019291505056fe360894a13ba1a3210667c828492db98dca3e2076cc3735a920a3ca505d382bbc416464726573733a206c6f772d6c6576656c2064656c65676174652063616c6c206661696c6564a2646970667358221220bb875ef766afbbc5ac5db1e92abc3382d2104e90fbf4bc8d611fa7bc24224dab64736f6c63430008120033",
  "linkReferences": {},
  "deployedLinkReferences": {}
}