{
  "_format": "hh-sol-artifact-1",
  "contractName": "PromptMonstersExtension",
  "sourceName": "contracts/prompt-monsters-extension/PromptMonstersExtension.sol",
  "abi": [
    {
      "inputs": [],
      "stateMutability": "nonpayable",
      "type": "constructor"
    },
    {
      "anonymous": false,
      "inputs": [
        {
          "indexed": false,
          "internalType": "address",
          "name": "previousAdmin",
          "type": "address"
        },
        {
          "indexed": false,
          "internalType": "address",
          "name": "newAdmin",
          "type": "address"
        }
      ],
      "name": "AdminChanged",
      "type": "event"
    },
    {
      "anonymous": false,
      "inputs": [
        {
          "indexed": true,
          "internalType": "address",
          "name": "beacon",
          "type": "address"
        }
      ],
      "name": "BeaconUpgraded",
      "type": "event"
    },
    {
      "anonymous": false,
      "inputs": [
        {
          "indexed": false,
          "internalType": "uint8",
          "name": "version",
          "type": "uint8"
        }
      ],
      "name": "Initialized",
      "type": "event"
    },
    {
      "anonymous": false,
      "inputs": [
        {
          "indexed": true,
          "internalType": "bytes32",
          "name": "role",
          "type": "bytes32"
        },
        {
          "indexed": true,
          "internalType": "bytes32",
          "name": "previousAdminRole",
          "type": "bytes32"
        },
        {
          "indexed": true,
          "internalType": "bytes32",
          "name": "newAdminRole",
          "type": "bytes32"
        }
      ],
      "name": "RoleAdminChanged",
      "type": "event"
    },
    {
      "anonymous": false,
      "inputs": [
        {
          "indexed": true,
          "internalType": "bytes32",
          "name": "role",
          "type": "bytes32"
        },
        {
          "indexed": true,
          "internalType": "address",
          "name": "account",
          "type": "address"
        },
        {
          "indexed": true,
          "internalType": "address",
          "name": "sender",
          "type": "address"
        }
      ],
      "name": "RoleGranted",
      "type": "event"
    },
    {
      "anonymous": false,
      "inputs": [
        {
          "indexed": true,
          "internalType": "bytes32",
          "name": "role",
          "type": "bytes32"
        },
        {
          "indexed": true,
          "internalType": "address",
          "name": "account",
          "type": "address"
        },
        {
          "indexed": true,
          "internalType": "address",
          "name": "sender",
          "type": "address"
        }
      ],
      "name": "RoleRevoked",
      "type": "event"
    },
    {
      "anonymous": false,
      "inputs": [
        {
          "indexed": true,
          "internalType": "address",
          "name": "publisher",
          "type": "address"
        },
        {
          "indexed": true,
          "internalType": "address[]",
          "name": "rps",
          "type": "address[]"
        },
        {
          "indexed": true,
          "internalType": "string[][]",
          "name": "skills",
          "type": "string[][]"
        },
        {
          "indexed": false,
          "internalType": "uint32[][]",
          "name": "oldState",
          "type": "uint32[][]"
        },
        {
          "indexed": false,
          "internalType": "uint32[][]",
          "name": "newState",
          "type": "uint32[][]"
        }
      ],
      "name": "SetBatchSkillTypes",
      "type": "event"
    },
    {
      "anonymous": false,
      "inputs": [
        {
          "indexed": true,
          "internalType": "address",
          "name": "publisher",
          "type": "address"
        },
        {
          "indexed": true,
          "internalType": "address",
          "name": "resurrectionPrompt",
          "type": "address"
        },
        {
          "indexed": true,
          "internalType": "string[]",
          "name": "skills",
          "type": "string[]"
        },
        {
          "indexed": false,
          "internalType": "uint32[]",
          "name": "oldState",
          "type": "uint32[]"
        },
        {
          "indexed": false,
          "internalType": "uint32[]",
          "name": "newState",
          "type": "uint32[]"
        }
      ],
      "name": "SetSkillTypes",
      "type": "event"
    },
    {
      "anonymous": false,
      "inputs": [
        {
          "indexed": true,
          "internalType": "address",
          "name": "implementation",
          "type": "address"
        }
      ],
      "name": "Upgraded",
      "type": "event"
    },
    {
      "inputs": [],
      "name": "DEFAULT_ADMIN_ROLE",
      "outputs": [
        {
          "internalType": "bytes32",
          "name": "",
          "type": "bytes32"
        }
      ],
      "stateMutability": "view",
      "type": "function"
    },
    {
      "inputs": [
        {
          "internalType": "address[]",
          "name": "rps_",
          "type": "address[]"
        },
        {
          "internalType": "string[][]",
          "name": "skills_",
          "type": "string[][]"
        }
      ],
      "name": "getBatchSkillTypes",
      "outputs": [
        {
          "internalType": "uint32[][]",
          "name": "returnState",
          "type": "uint32[][]"
        }
      ],
      "stateMutability": "view",
      "type": "function"
    },
    {
      "inputs": [
        {
          "internalType": "address",
          "name": "resurrectionPrompt_",
          "type": "address"
        },
        {
          "components": [
            {
              "internalType": "string",
              "name": "feature",
              "type": "string"
            },
            {
              "internalType": "string",
              "name": "name",
              "type": "string"
            },
            {
              "internalType": "string",
              "name": "flavor",
              "type": "string"
            },
            {
              "internalType": "string[]",
              "name": "skills",
              "type": "string[]"
            },
            {
              "internalType": "uint32",
              "name": "lv",
              "type": "uint32"
            },
            {
              "internalType": "uint32",
              "name": "hp",
              "type": "uint32"
            },
            {
              "internalType": "uint32",
              "name": "atk",
              "type": "uint32"
            },
            {
              "internalType": "uint32",
              "name": "def",
              "type": "uint32"
            },
            {
              "internalType": "uint32",
              "name": "inte",
              "type": "uint32"
            },
            {
              "internalType": "uint32",
              "name": "mgr",
              "type": "uint32"
            },
            {
              "internalType": "uint32",
              "name": "agl",
              "type": "uint32"
            }
          ],
          "internalType": "struct IPromptMonsters.Monster",
          "name": "monster_",
          "type": "tuple"
        }
      ],
      "name": "getMonsterExtension",
      "outputs": [
        {
          "components": [
            {
              "internalType": "string",
              "name": "feature",
              "type": "string"
            },
            {
              "internalType": "string",
              "name": "name",
              "type": "string"
            },
            {
              "internalType": "string",
              "name": "flavor",
              "type": "string"
            },
            {
              "internalType": "string[]",
              "name": "skills",
              "type": "string[]"
            },
            {
              "internalType": "uint32",
              "name": "lv",
              "type": "uint32"
            },
            {
              "internalType": "uint32",
              "name": "hp",
              "type": "uint32"
            },
            {
              "internalType": "uint32",
              "name": "atk",
              "type": "uint32"
            },
            {
              "internalType": "uint32",
              "name": "def",
              "type": "uint32"
            },
            {
              "internalType": "uint32",
              "name": "inte",
              "type": "uint32"
            },
            {
              "internalType": "uint32",
              "name": "mgr",
              "type": "uint32"
            },
            {
              "internalType": "uint32",
              "name": "agl",
              "type": "uint32"
            },
            {
              "internalType": "uint32[]",
              "name": "skillTypes",
              "type": "uint32[]"
            },
            {
              "internalType": "address",
              "name": "resurrectionPrompt",
              "type": "address"
            }
          ],
          "internalType": "struct IPromptMonstersExtension.MonsterExtension",
          "name": "monsterExtension",
          "type": "tuple"
        }
      ],
      "stateMutability": "view",
      "type": "function"
    },
    {
      "inputs": [
        {
          "internalType": "bytes32",
          "name": "role",
          "type": "bytes32"
        }
      ],
      "name": "getRoleAdmin",
      "outputs": [
        {
          "internalType": "bytes32",
          "name": "",
          "type": "bytes32"
        }
      ],
      "stateMutability": "view",
      "type": "function"
    },
    {
      "inputs": [
        {
          "internalType": "bytes32",
          "name": "role",
          "type": "bytes32"
        },
        {
          "internalType": "uint256",
          "name": "index",
          "type": "uint256"
        }
      ],
      "name": "getRoleMember",
      "outputs": [
        {
          "internalType": "address",
          "name": "",
          "type": "address"
        }
      ],
      "stateMutability": "view",
      "type": "function"
    },
    {
      "inputs": [
        {
          "internalType": "bytes32",
          "name": "role",
          "type": "bytes32"
        }
      ],
      "name": "getRoleMemberCount",
      "outputs": [
        {
          "internalType": "uint256",
          "name": "",
          "type": "uint256"
        }
      ],
      "stateMutability": "view",
      "type": "function"
    },
    {
      "inputs": [
        {
          "internalType": "bytes32",
          "name": "role",
          "type": "bytes32"
        },
        {
          "internalType": "address",
          "name": "account",
          "type": "address"
        }
      ],
      "name": "grantRole",
      "outputs": [],
      "stateMutability": "nonpayable",
      "type": "function"
    },
    {
      "inputs": [
        {
          "internalType": "bytes32",
          "name": "role",
          "type": "bytes32"
        },
        {
          "internalType": "address",
          "name": "account",
          "type": "address"
        }
      ],
      "name": "hasRole",
      "outputs": [
        {
          "internalType": "bool",
          "name": "",
          "type": "bool"
        }
      ],
      "stateMutability": "view",
      "type": "function"
    },
    {
      "inputs": [],
      "name": "initialize",
      "outputs": [],
      "stateMutability": "nonpayable",
      "type": "function"
    },
    {
      "inputs": [],
      "name": "proxiableUUID",
      "outputs": [
        {
          "internalType": "bytes32",
          "name": "",
          "type": "bytes32"
        }
      ],
      "stateMutability": "view",
      "type": "function"
    },
    {
      "inputs": [
        {
          "internalType": "bytes32",
          "name": "role",
          "type": "bytes32"
        },
        {
          "internalType": "address",
          "name": "account",
          "type": "address"
        }
      ],
      "name": "renounceRole",
      "outputs": [],
      "stateMutability": "nonpayable",
      "type": "function"
    },
    {
      "inputs": [
        {
          "internalType": "bytes32",
          "name": "role",
          "type": "bytes32"
        },
        {
          "internalType": "address",
          "name": "account",
          "type": "address"
        }
      ],
      "name": "revokeRole",
      "outputs": [],
      "stateMutability": "nonpayable",
      "type": "function"
    },
    {
      "inputs": [
        {
          "internalType": "address[]",
          "name": "rps_",
          "type": "address[]"
        },
        {
          "internalType": "string[][]",
          "name": "skills_",
          "type": "string[][]"
        },
        {
          "internalType": "uint32[][]",
          "name": "skillTypes_",
          "type": "uint32[][]"
        }
      ],
      "name": "setBatchSkillTypes",
      "outputs": [],
      "stateMutability": "nonpayable",
      "type": "function"
    },
    {
      "inputs": [
        {
          "internalType": "address",
          "name": "resurrectionPrompt",
          "type": "address"
        },
        {
          "internalType": "string[]",
          "name": "skills",
          "type": "string[]"
        },
        {
          "internalType": "uint32[]",
          "name": "skillTypes",
          "type": "uint32[]"
        }
      ],
      "name": "setSkillTypes",
      "outputs": [],
      "stateMutability": "nonpayable",
      "type": "function"
    },
    {
      "inputs": [
        {
          "internalType": "bytes4",
          "name": "interfaceId",
          "type": "bytes4"
        }
      ],
      "name": "supportsInterface",
      "outputs": [
        {
          "internalType": "bool",
          "name": "",
          "type": "bool"
        }
      ],
      "stateMutability": "view",
      "type": "function"
    },
    {
      "inputs": [
        {
          "internalType": "address",
          "name": "newImplementation",
          "type": "address"
        }
      ],
      "name": "upgradeTo",
      "outputs": [],
      "stateMutability": "nonpayable",
      "type": "function"
    },
    {
      "inputs": [
        {
          "internalType": "address",
          "name": "newImplementation",
          "type": "address"
        },
        {
          "internalType": "bytes",
          "name": "data",
          "type": "bytes"
        }
      ],
      "name": "upgradeToAndCall",
      "outputs": [],
      "stateMutability": "payable",
      "type": "function"
    }
  ],
  "bytecode": "0x60a0604052306080523480156200001557600080fd5b506200002062000026565b620000e7565b600054610100900460ff1615620000935760405162461bcd60e51b815260206004820152602760248201527f496e697469616c697a61626c653a20636f6e747261637420697320696e697469604482015266616c697a696e6760c81b606482015260840160405180910390fd5b60005460ff90811614620000e5576000805460ff191660ff9081179091556040519081527f7f26b83ff96e1f2b6a682f133852f6798a09c465da95921460cefb38474024989060200160405180910390a15b565b6080516129416200011f6000396000818161061c0152818161065c015281816106fb0152818161073b01526107ca01526129416000f3fe6080604052600436106100fe5760003560e01c80638129fc1c11610095578063a217fddf11610064578063a217fddf146102ba578063c61184cc146102cf578063ca15c873146102fc578063d547741f1461031c578063f84400ed1461033c57600080fd5b80638129fc1c1461022d5780639010d07c1461024257806391d148541461027a57806397fd60391461029a57600080fd5b806336568abe116100d157806336568abe146101c55780633659cfe6146101e55780634f1ef2861461020557806352d1902d1461021857600080fd5b806301ffc9a714610103578063248a9ca31461013857806325ea1516146101765780632f2ff15d146101a3575b600080fd5b34801561010f57600080fd5b5061012361011e366004611b95565b61035c565b60405190151581526020015b60405180910390f35b34801561014457600080fd5b50610168610153366004611bbf565b60009081526065602052604090206001015490565b60405190815260200161012f565b34801561018257600080fd5b50610196610191366004611e6d565b610387565b60405161012f9190611f66565b3480156101af57600080fd5b506101c36101be366004611f79565b610565565b005b3480156101d157600080fd5b506101c36101e0366004611f79565b61058f565b3480156101f157600080fd5b506101c3610200366004611fa5565b610612565b6101c3610213366004611fc0565b6106f1565b34801561022457600080fd5b506101686107bd565b34801561023957600080fd5b506101c3610870565b34801561024e57600080fd5b5061026261025d366004612017565b6109c4565b6040516001600160a01b03909116815260200161012f565b34801561028657600080fd5b50610123610295366004611f79565b6109e3565b3480156102a657600080fd5b506101c36102b53660046120af565b610a0e565b3480156102c657600080fd5b50610168600081565b3480156102db57600080fd5b506102ef6102ea366004612122565b610c21565b60405161012f9190612326565b34801561030857600080fd5b50610168610317366004611bbf565b610e3f565b34801561032857600080fd5b506101c3610337366004611f79565b610e56565b34801561034857600080fd5b506101c3610357366004612489565b610e7b565b60006001600160e01b03198216635a05180f60e01b1480610381575061038182611246565b92915050565b8151606090806001600160401b038111156103a4576103a4611bd8565b6040519080825280602002602001820160405280156103d757816020015b60608152602001906001900390816103c25790505b50915060005b8181101561055d5760008482815181106103f9576103f9612580565b6020026020010151519050806001600160401b0381111561041c5761041c611bd8565b604051908082528060200260200182016040528015610445578160200160208202803683370190505b5084838151811061045857610458612580565b602002602001018190525081600101915060005b818110156105565761012e600088858151811061048b5761048b612580565b60200260200101516001600160a01b03166001600160a01b031681526020019081526020016000208684815181106104c5576104c5612580565b602002602001015182815181106104de576104de612580565b60200260200101516040516104f39190612596565b90815260405190819003602001902054855163ffffffff9091169086908590811061052057610520612580565b6020026020010151828151811061053957610539612580565b63ffffffff9092166020928302919091019091015260010161046c565b50506103dd565b505092915050565b6000828152606560205260409020600101546105808161127b565b61058a8383611285565b505050565b6001600160a01b03811633146106045760405162461bcd60e51b815260206004820152602f60248201527f416363657373436f6e74726f6c3a2063616e206f6e6c792072656e6f756e636560448201526e103937b632b9903337b91039b2b63360891b60648201526084015b60405180910390fd5b61060e82826112a7565b5050565b6001600160a01b037f000000000000000000000000000000000000000000000000000000000000000016300361065a5760405162461bcd60e51b81526004016105fb906125b2565b7f00000000000000000000000000000000000000000000000000000000000000006001600160a01b03166106a36000805160206128c5833981519152546001600160a01b031690565b6001600160a01b0316146106c95760405162461bcd60e51b81526004016105fb906125fe565b6106d2816112c9565b604080516000808252602082019092526106ee918391906112d4565b50565b6001600160a01b037f00000000000000000000000000000000000000000000000000000000000000001630036107395760405162461bcd60e51b81526004016105fb906125b2565b7f00000000000000000000000000000000000000000000000000000000000000006001600160a01b03166107826000805160206128c5833981519152546001600160a01b031690565b6001600160a01b0316146107a85760405162461bcd60e51b81526004016105fb906125fe565b6107b1826112c9565b61060e828260016112d4565b6000306001600160a01b037f0000000000000000000000000000000000000000000000000000000000000000161461085d5760405162461bcd60e51b815260206004820152603860248201527f555550535570677261646561626c653a206d757374206e6f742062652063616c60448201527f6c6564207468726f7567682064656c656761746563616c6c000000000000000060648201526084016105fb565b506000805160206128c583398151915290565b600054610100900460ff16158080156108905750600054600160ff909116105b806108aa5750303b1580156108aa575060005460ff166001145b61090d5760405162461bcd60e51b815260206004820152602e60248201527f496e697469616c697a61626c653a20636f6e747261637420697320616c72656160448201526d191e481a5b9a5d1a585b1a5e995960921b60648201526084016105fb565b6000805460ff191660011790558015610930576000805461ff0019166101001790555b61093861143f565b61094061143f565b7f6a64baf327d646d1bca72653e2a075d15fd6ac6d8cbd7f6ee03fc55875e0fa8861012d8190556109719033611285565b61097c600033611285565b80156106ee576000805461ff0019169055604051600181527f7f26b83ff96e1f2b6a682f133852f6798a09c465da95921460cefb38474024989060200160405180910390a150565b60008281526097602052604081206109dc90836114ac565b9392505050565b60009182526065602090815260408084206001600160a01b0393909316845291905290205460ff1690565b61012d54610a1b8161127b565b825182518114610a3d5760405162461bcd60e51b81526004016105fb9061264a565b6000816001600160401b03811115610a5757610a57611bd8565b604051908082528060200260200182016040528015610a80578160200160208202803683370190505b50905060005b82811015610baf576001600160a01b038716600090815261012e602052604090208651879083908110610abb57610abb612580565b6020026020010151604051610ad09190612596565b90815260405190819003602001902054825163ffffffff90911690839083908110610afd57610afd612580565b602002602001019063ffffffff16908163ffffffff1681525050848181518110610b2957610b29612580565b602002602001015161012e6000896001600160a01b03166001600160a01b03168152602001908152602001600020878381518110610b6957610b69612580565b6020026020010151604051610b7e9190612596565b908152604051908190036020019020805463ffffffff9290921663ffffffff19909216919091179055600101610a86565b5084604051610bbe91906126d6565b6040518091039020866001600160a01b0316610bd73390565b6001600160a01b03167f3fa976f7ba07011a779e5d9af23a4cce365d247bbfbe790e2c6b8c46145f026c8488604051610c119291906126e2565b60405180910390a4505050505050565b604080516101a08101825260608082526020820181905291810182905281810182905260006080820181905260a0820181905260c0820181905260e08201819052610100820181905261012082018190526101408201819052610160820183905261018082015290820151516004811115610c9a575060045b6000816001600160401b03811115610cb457610cb4611bd8565b604051908082528060200260200182016040528015610cdd578160200160208202803683370190505b50905060005b82811015610d7a576001600160a01b038616600090815261012e602052604090206060860151805183908110610d1b57610d1b612580565b6020026020010151604051610d309190612596565b90815260405190819003602001902054825163ffffffff90911690839083908110610d5d57610d5d612580565b63ffffffff90921660209283029190910190910152600101610ce3565b50604051806101a0016040528085600001518152602001856020015181526020018560400151815260200185606001518152602001856080015163ffffffff1681526020018560a0015163ffffffff1681526020018560c0015163ffffffff1681526020018560e0015163ffffffff16815260200185610100015163ffffffff16815260200185610120015163ffffffff16815260200185610140015163ffffffff168152602001828152602001866001600160a01b03168152509250505092915050565b6000818152609760205260408120610381906114b8565b600082815260656020526040902060010154610e718161127b565b61058a83836112a7565b61012d54610e888161127b565b835183518114610eef5760405162461bcd60e51b815260206004820152602c60248201527f50726f6d70744d6f6e7374657273457874656e73696f6e3a206d69736d61746360448201526b0d040e4e0e640d8cadccee8d60a31b60648201526084016105fb565b6000816001600160401b03811115610f0957610f09611bd8565b604051908082528060200260200182016040528015610f3c57816020015b6060815260200190600190039081610f275790505b50905060005b828110156111d8576000868281518110610f5e57610f5e612580565b6020026020010151519050858281518110610f7b57610f7b612580565b6020026020010151518114610fa25760405162461bcd60e51b81526004016105fb9061264a565b806001600160401b03811115610fba57610fba611bd8565b604051908082528060200260200182016040528015610fe3578160200160208202803683370190505b50838381518110610ff657610ff6612580565b602002602001018190525060005b818110156111ce5761012e60008a858151811061102357611023612580565b60200260200101516001600160a01b03166001600160a01b0316815260200190815260200160002088848151811061105d5761105d612580565b6020026020010151828151811061107657611076612580565b602002602001015160405161108b9190612596565b90815260405190819003602001902054845163ffffffff909116908590859081106110b8576110b8612580565b602002602001015182815181106110d1576110d1612580565b602002602001019063ffffffff16908163ffffffff16815250508683815181106110fd576110fd612580565b6020026020010151818151811061111657611116612580565b602002602001015161012e60008b868151811061113557611135612580565b60200260200101516001600160a01b03166001600160a01b0316815260200190815260200160002089858151811061116f5761116f612580565b6020026020010151838151811061118857611188612580565b602002602001015160405161119d9190612596565b908152604051908190036020019020805463ffffffff9290921663ffffffff19909216919091179055600101611004565b5050600101610f42565b50846040516111e79190612710565b6040518091039020866040516111fd919061274b565b604051809103902061120c3390565b6001600160a01b03167f25eedb020a39313f23d83878c59222b1dd35aa982815c3641408a3b41eab536b8488604051610c1192919061277e565b60006001600160e01b03198216637965db0b60e01b148061038157506301ffc9a760e01b6001600160e01b0319831614610381565b6106ee81336114c2565b61128f828261151b565b600082815260976020526040902061058a90826115a1565b6112b182826115b6565b600082815260976020526040902061058a908261161d565b600061060e8161127b565b7f4910fdfa16fed3260ed0e7147f7cc6da11a60208b5b9406d12a635614ffd91435460ff16156113075761058a83611632565b826001600160a01b03166352d1902d6040518163ffffffff1660e01b8152600401602060405180830381865afa925050508015611361575060408051601f3d908101601f1916820190925261135e918101906127a3565b60015b6113c45760405162461bcd60e51b815260206004820152602e60248201527f45524331393637557067726164653a206e657720696d706c656d656e7461746960448201526d6f6e206973206e6f74205555505360901b60648201526084016105fb565b6000805160206128c583398151915281146114335760405162461bcd60e51b815260206004820152602960248201527f45524331393637557067726164653a20756e737570706f727465642070726f786044820152681a58589b195555525160ba1b60648201526084016105fb565b5061058a8383836116ce565b600054610100900460ff166114aa5760405162461bcd60e51b815260206004820152602b60248201527f496e697469616c697a61626c653a20636f6e7472616374206973206e6f74206960448201526a6e697469616c697a696e6760a81b60648201526084016105fb565b565b60006109dc83836116f9565b6000610381825490565b6114cc82826109e3565b61060e576114d981611723565b6114e4836020611735565b6040516020016114f59291906127bc565b60408051601f198184030181529082905262461bcd60e51b82526105fb91600401612831565b61152582826109e3565b61060e5760008281526065602090815260408083206001600160a01b03851684529091529020805460ff1916600117905561155d3390565b6001600160a01b0316816001600160a01b0316837f2f8788117e7eff1d82e926ec794901d17c78024a50270940304540a733656f0d60405160405180910390a45050565b60006109dc836001600160a01b0384166118d0565b6115c082826109e3565b1561060e5760008281526065602090815260408083206001600160a01b0385168085529252808320805460ff1916905551339285917ff6391f5c32d9c69d2a47ea670b442974b53935d1edc7fd64eb21e047a839171b9190a45050565b60006109dc836001600160a01b03841661191f565b6001600160a01b0381163b61169f5760405162461bcd60e51b815260206004820152602d60248201527f455243313936373a206e657720696d706c656d656e746174696f6e206973206e60448201526c1bdd08184818dbdb9d1c9858dd609a1b60648201526084016105fb565b6000805160206128c583398151915280546001600160a01b0319166001600160a01b0392909216919091179055565b6116d783611a12565b6000825111806116e45750805b1561058a576116f38383611a52565b50505050565b600082600001828154811061171057611710612580565b9060005260206000200154905092915050565b60606103816001600160a01b03831660145b6060600061174483600261285a565b61174f906002612871565b6001600160401b0381111561176657611766611bd8565b6040519080825280601f01601f191660200182016040528015611790576020820181803683370190505b509050600360fc1b816000815181106117ab576117ab612580565b60200101906001600160f81b031916908160001a905350600f60fb1b816001815181106117da576117da612580565b60200101906001600160f81b031916908160001a90535060006117fe84600261285a565b611809906001612871565b90505b6001811115611881576f181899199a1a9b1b9c1cb0b131b232b360811b85600f166010811061183d5761183d612580565b1a60f81b82828151811061185357611853612580565b60200101906001600160f81b031916908160001a90535060049490941c9361187a81612884565b905061180c565b5083156109dc5760405162461bcd60e51b815260206004820181905260248201527f537472696e67733a20686578206c656e67746820696e73756666696369656e7460448201526064016105fb565b600081815260018301602052604081205461191757508154600181810184556000848152602080822090930184905584548482528286019093526040902091909155610381565b506000610381565b60008181526001830160205260408120548015611a0857600061194360018361289b565b85549091506000906119579060019061289b565b90508181146119bc57600086600001828154811061197757611977612580565b906000526020600020015490508087600001848154811061199a5761199a612580565b6000918252602080832090910192909255918252600188019052604090208390555b85548690806119cd576119cd6128ae565b600190038181906000526020600020016000905590558560010160008681526020019081526020016000206000905560019350505050610381565b6000915050610381565b611a1b81611632565b6040516001600160a01b038216907fbc7cd75a20ee27fd9adebab32041f755214dbc6bffa90cc0225b39da2e5c2d3b90600090a250565b60606109dc83836040518060600160405280602781526020016128e5602791396060600080856001600160a01b031685604051611a8f9190612596565b600060405180830381855af49150503d8060008114611aca576040519150601f19603f3d011682016040523d82523d6000602084013e611acf565b606091505b5091509150611ae086838387611aea565b9695505050505050565b60608315611b59578251600003611b52576001600160a01b0385163b611b525760405162461bcd60e51b815260206004820152601d60248201527f416464726573733a2063616c6c20746f206e6f6e2d636f6e747261637400000060448201526064016105fb565b5081611b63565b611b638383611b6b565b949350505050565b815115611b7b5781518083602001fd5b8060405162461bcd60e51b81526004016105fb9190612831565b600060208284031215611ba757600080fd5b81356001600160e01b0319811681146109dc57600080fd5b600060208284031215611bd157600080fd5b5035919050565b634e487b7160e01b600052604160045260246000fd5b60405161016081016001600160401b0381118282101715611c1157611c11611bd8565b60405290565b604051601f8201601f191681016001600160401b0381118282101715611c3f57611c3f611bd8565b604052919050565b60006001600160401b03821115611c6057611c60611bd8565b5060051b60200190565b80356001600160a01b0381168114611c8157600080fd5b919050565b600082601f830112611c9757600080fd5b81356020611cac611ca783611c47565b611c17565b82815260059290921b84018101918181019086841115611ccb57600080fd5b8286015b84811015611ced57611ce081611c6a565b8352918301918301611ccf565b509695505050505050565b60006001600160401b03831115611d1157611d11611bd8565b611d24601f8401601f1916602001611c17565b9050828152838383011115611d3857600080fd5b828260208301376000602084830101529392505050565b600082601f830112611d6057600080fd5b6109dc83833560208501611cf8565b600082601f830112611d8057600080fd5b81356020611d90611ca783611c47565b82815260059290921b84018101918181019086841115611daf57600080fd5b8286015b84811015611ced5780356001600160401b03811115611dd25760008081fd5b611de08986838b0101611d4f565b845250918301918301611db3565b600082601f830112611dff57600080fd5b81356020611e0f611ca783611c47565b82815260059290921b84018101918181019086841115611e2e57600080fd5b8286015b84811015611ced5780356001600160401b03811115611e515760008081fd5b611e5f8986838b0101611d6f565b845250918301918301611e32565b60008060408385031215611e8057600080fd5b82356001600160401b0380821115611e9757600080fd5b611ea386838701611c86565b93506020850135915080821115611eb957600080fd5b50611ec685828601611dee565b9150509250929050565b600081518084526020808501945080840160005b83811015611f0657815163ffffffff1687529582019590820190600101611ee4565b509495945050505050565b600081518084526020808501808196508360051b8101915082860160005b85811015611f59578284038952611f47848351611ed0565b98850198935090840190600101611f2f565b5091979650505050505050565b6020815260006109dc6020830184611f11565b60008060408385031215611f8c57600080fd5b82359150611f9c60208401611c6a565b90509250929050565b600060208284031215611fb757600080fd5b6109dc82611c6a565b60008060408385031215611fd357600080fd5b611fdc83611c6a565b915060208301356001600160401b03811115611ff757600080fd5b8301601f8101851361200857600080fd5b611ec685823560208401611cf8565b6000806040838503121561202a57600080fd5b50508035926020909101359150565b803563ffffffff81168114611c8157600080fd5b600082601f83011261205e57600080fd5b8135602061206e611ca783611c47565b82815260059290921b8401810191818101908684111561208d57600080fd5b8286015b84811015611ced576120a281612039565b8352918301918301612091565b6000806000606084860312156120c457600080fd5b6120cd84611c6a565b925060208401356001600160401b03808211156120e957600080fd5b6120f587838801611d6f565b9350604086013591508082111561210b57600080fd5b506121188682870161204d565b9150509250925092565b6000806040838503121561213557600080fd5b61213e83611c6a565b915060208301356001600160401b038082111561215a57600080fd5b90840190610160828703121561216f57600080fd5b612177611bee565b82358281111561218657600080fd5b61219288828601611d4f565b8252506020830135828111156121a757600080fd5b6121b388828601611d4f565b6020830152506040830135828111156121cb57600080fd5b6121d788828601611d4f565b6040830152506060830135828111156121ef57600080fd5b6121fb88828601611d6f565b60608301525061220d60808401612039565b608082015261221e60a08401612039565b60a082015261222f60c08401612039565b60c082015261224060e08401612039565b60e08201526101009150612255828401612039565b828201526101209150612269828401612039565b82820152610140915061227d828401612039565b828201528093505050509250929050565b60005b838110156122a9578181015183820152602001612291565b50506000910152565b600081518084526122ca81602086016020860161228e565b601f01601f19169290920160200192915050565b600081518084526020808501808196508360051b8101915082860160005b85811015611f595782840389526123148483516122b2565b988501989350908401906001016122fc565b60208152600082516101a08060208501526123456101c08501836122b2565b91506020850151601f198086850301604087015261236384836122b2565b9350604087015191508086850301606087015261238084836122b2565b9350606087015191508086850301608087015261239d84836122de565b9350608087015191506123b860a087018363ffffffff169052565b60a087015163ffffffff811660c0880152915060c087015163ffffffff811660e0880152915060e087015191506101006123f98188018463ffffffff169052565b87015191506101206124128782018463ffffffff169052565b870151915061014061242b8782018463ffffffff169052565b87015191506101606124448782018463ffffffff169052565b808801519250506101808187860301818801526124618584611ed0565b9450808801519250505061247f828601826001600160a01b03169052565b5090949350505050565b60008060006060848603121561249e57600080fd5b83356001600160401b03808211156124b557600080fd5b6124c187838801611c86565b94506020915081860135818111156124d857600080fd5b6124e488828901611dee565b9450506040860135818111156124f957600080fd5b8601601f8101881361250a57600080fd5b8035612518611ca782611c47565b81815260059190911b8201840190848101908a83111561253757600080fd5b8584015b8381101561256f578035868111156125535760008081fd5b6125618d898389010161204d565b84525091860191860161253b565b508096505050505050509250925092565b634e487b7160e01b600052603260045260246000fd5b600082516125a881846020870161228e565b9190910192915050565b6020808252602c908201527f46756e6374696f6e206d7573742062652063616c6c6564207468726f7567682060408201526b19195b1959d85d1958d85b1b60a21b606082015260800190565b6020808252602c908201527f46756e6374696f6e206d7573742062652063616c6c6564207468726f7567682060408201526b6163746976652070726f787960a01b606082015260800190565b6020808252602e908201527f50726f6d70744d6f6e7374657273457874656e73696f6e3a206d69736d61746360408201526d0d040e6d6d2d8d840d8cadccee8d60931b606082015260800190565b60008151602080840160005b83811015611f0657815180516126bd818a87850161228e565b601f01601f1916979097019650908201906001016126a4565b60006109dc8284612698565b6040815260006126f56040830185611ed0565b82810360208401526127078185611ed0565b95945050505050565b815160009082906020808601845b8381101561273f57612731858351612698565b94509082019060010161271e565b50929695505050505050565b815160009082906020808601845b8381101561273f5781516001600160a01b031685529382019390820190600101612759565b6040815260006127916040830185611f11565b82810360208401526127078185611f11565b6000602082840312156127b557600080fd5b5051919050565b7f416363657373436f6e74726f6c3a206163636f756e74200000000000000000008152600083516127f481601785016020880161228e565b7001034b99036b4b9b9b4b733903937b6329607d1b601791840191820152835161282581602884016020880161228e565b01602801949350505050565b6020815260006109dc60208301846122b2565b634e487b7160e01b600052601160045260246000fd5b808202811582820484141761038157610381612844565b8082018082111561038157610381612844565b60008161289357612893612844565b506000190190565b8181038181111561038157610381612844565b634e487b7160e01b600052603160045260246000fdfe360894a13ba1a3210667c828492db98dca3e2076cc3735a920a3ca505d382bbc416464726573733a206c6f772d6c6576656c2064656c65676174652063616c6c206661696c6564a264697066735822122045636c99bfaf2cb356e99158cec84cbbeef8ae2860b8a44e228dcb73045dc06e64736f6c63430008120033",
  "linkReferences": {},
  "deployedLinkReferences": {}
}