{
  "_format": "hh-sol-artifact-1",
  "contractName": "PromptMonstersExtension",
  "sourceName": "contracts/prompt-monsters-extension/PromptMonstersExtension.sol",
  "abi": [
    {
      "inputs": [],
      "stateMutability": "nonpayable",
      "type": "constructor"
    },
    {
      "anonymous": false,
      "inputs": [
        {
          "indexed": false,
          "internalType": "address",
          "name": "previousAdmin",
          "type": "address"
        },
        {
          "indexed": false,
          "internalType": "address",
          "name": "newAdmin",
          "type": "address"
        }
      ],
      "name": "AdminChanged",
      "type": "event"
    },
    {
      "anonymous": false,
      "inputs": [
        {
          "indexed": true,
          "internalType": "address",
          "name": "beacon",
          "type": "address"
        }
      ],
      "name": "BeaconUpgraded",
      "type": "event"
    },
    {
      "anonymous": false,
      "inputs": [
        {
          "indexed": false,
          "internalType": "uint8",
          "name": "version",
          "type": "uint8"
        }
      ],
      "name": "Initialized",
      "type": "event"
    },
    {
      "anonymous": false,
      "inputs": [
        {
          "indexed": true,
          "internalType": "bytes32",
          "name": "role",
          "type": "bytes32"
        },
        {
          "indexed": true,
          "internalType": "bytes32",
          "name": "previousAdminRole",
          "type": "bytes32"
        },
        {
          "indexed": true,
          "internalType": "bytes32",
          "name": "newAdminRole",
          "type": "bytes32"
        }
      ],
      "name": "RoleAdminChanged",
      "type": "event"
    },
    {
      "anonymous": false,
      "inputs": [
        {
          "indexed": true,
          "internalType": "bytes32",
          "name": "role",
          "type": "bytes32"
        },
        {
          "indexed": true,
          "internalType": "address",
          "name": "account",
          "type": "address"
        },
        {
          "indexed": true,
          "internalType": "address",
          "name": "sender",
          "type": "address"
        }
      ],
      "name": "RoleGranted",
      "type": "event"
    },
    {
      "anonymous": false,
      "inputs": [
        {
          "indexed": true,
          "internalType": "bytes32",
          "name": "role",
          "type": "bytes32"
        },
        {
          "indexed": true,
          "internalType": "address",
          "name": "account",
          "type": "address"
        },
        {
          "indexed": true,
          "internalType": "address",
          "name": "sender",
          "type": "address"
        }
      ],
      "name": "RoleRevoked",
      "type": "event"
    },
    {
      "anonymous": false,
      "inputs": [
        {
          "indexed": true,
          "internalType": "address",
          "name": "publisher",
          "type": "address"
        },
        {
          "indexed": true,
          "internalType": "address[]",
          "name": "rps",
          "type": "address[]"
        },
        {
          "indexed": true,
          "internalType": "string[][]",
          "name": "skills",
          "type": "string[][]"
        },
        {
          "indexed": false,
          "internalType": "uint32[][]",
          "name": "oldState",
          "type": "uint32[][]"
        },
        {
          "indexed": false,
          "internalType": "uint32[][]",
          "name": "newState",
          "type": "uint32[][]"
        }
      ],
      "name": "SetBatchSkillTypes",
      "type": "event"
    },
    {
      "anonymous": false,
      "inputs": [
        {
          "indexed": true,
          "internalType": "address",
          "name": "publisher",
          "type": "address"
        },
        {
          "indexed": false,
          "internalType": "address",
          "name": "oldState",
          "type": "address"
        },
        {
          "indexed": false,
          "internalType": "address",
          "name": "newState",
          "type": "address"
        }
      ],
      "name": "SetPromptMonsters",
      "type": "event"
    },
    {
      "anonymous": false,
      "inputs": [
        {
          "indexed": true,
          "internalType": "address",
          "name": "implementation",
          "type": "address"
        }
      ],
      "name": "Upgraded",
      "type": "event"
    },
    {
      "inputs": [],
      "name": "DEFAULT_ADMIN_ROLE",
      "outputs": [
        {
          "internalType": "bytes32",
          "name": "",
          "type": "bytes32"
        }
      ],
      "stateMutability": "view",
      "type": "function"
    },
    {
      "inputs": [
        {
          "internalType": "address[]",
          "name": "rps_",
          "type": "address[]"
        },
        {
          "internalType": "string[][]",
          "name": "skills_",
          "type": "string[][]"
        }
      ],
      "name": "getBatchSkillTypes",
      "outputs": [
        {
          "internalType": "uint32[][]",
          "name": "returnState",
          "type": "uint32[][]"
        }
      ],
      "stateMutability": "view",
      "type": "function"
    },
    {
      "inputs": [
        {
          "internalType": "address",
          "name": "resurrectionPrompt_",
          "type": "address"
        },
        {
          "components": [
            {
              "internalType": "string",
              "name": "feature",
              "type": "string"
            },
            {
              "internalType": "string",
              "name": "name",
              "type": "string"
            },
            {
              "internalType": "string",
              "name": "flavor",
              "type": "string"
            },
            {
              "internalType": "string[]",
              "name": "skills",
              "type": "string[]"
            },
            {
              "internalType": "uint32",
              "name": "lv",
              "type": "uint32"
            },
            {
              "internalType": "uint32",
              "name": "hp",
              "type": "uint32"
            },
            {
              "internalType": "uint32",
              "name": "atk",
              "type": "uint32"
            },
            {
              "internalType": "uint32",
              "name": "def",
              "type": "uint32"
            },
            {
              "internalType": "uint32",
              "name": "inte",
              "type": "uint32"
            },
            {
              "internalType": "uint32",
              "name": "mgr",
              "type": "uint32"
            },
            {
              "internalType": "uint32",
              "name": "agl",
              "type": "uint32"
            }
          ],
          "internalType": "struct IPromptMonsters.Monster",
          "name": "monster_",
          "type": "tuple"
        }
      ],
      "name": "getMonsterExtension",
      "outputs": [
        {
          "components": [
            {
              "internalType": "string",
              "name": "feature",
              "type": "string"
            },
            {
              "internalType": "string",
              "name": "name",
              "type": "string"
            },
            {
              "internalType": "string",
              "name": "flavor",
              "type": "string"
            },
            {
              "internalType": "string[]",
              "name": "skills",
              "type": "string[]"
            },
            {
              "internalType": "uint32",
              "name": "lv",
              "type": "uint32"
            },
            {
              "internalType": "uint32",
              "name": "hp",
              "type": "uint32"
            },
            {
              "internalType": "uint32",
              "name": "atk",
              "type": "uint32"
            },
            {
              "internalType": "uint32",
              "name": "def",
              "type": "uint32"
            },
            {
              "internalType": "uint32",
              "name": "inte",
              "type": "uint32"
            },
            {
              "internalType": "uint32",
              "name": "mgr",
              "type": "uint32"
            },
            {
              "internalType": "uint32",
              "name": "agl",
              "type": "uint32"
            },
            {
              "internalType": "uint32[]",
              "name": "skillTypes",
              "type": "uint32[]"
            }
          ],
          "internalType": "struct IPromptMonstersExtension.MonsterExtension",
          "name": "monsterExtension",
          "type": "tuple"
        }
      ],
      "stateMutability": "view",
      "type": "function"
    },
    {
      "inputs": [
        {
          "internalType": "bytes32",
          "name": "role",
          "type": "bytes32"
        }
      ],
      "name": "getRoleAdmin",
      "outputs": [
        {
          "internalType": "bytes32",
          "name": "",
          "type": "bytes32"
        }
      ],
      "stateMutability": "view",
      "type": "function"
    },
    {
      "inputs": [
        {
          "internalType": "bytes32",
          "name": "role",
          "type": "bytes32"
        },
        {
          "internalType": "uint256",
          "name": "index",
          "type": "uint256"
        }
      ],
      "name": "getRoleMember",
      "outputs": [
        {
          "internalType": "address",
          "name": "",
          "type": "address"
        }
      ],
      "stateMutability": "view",
      "type": "function"
    },
    {
      "inputs": [
        {
          "internalType": "bytes32",
          "name": "role",
          "type": "bytes32"
        }
      ],
      "name": "getRoleMemberCount",
      "outputs": [
        {
          "internalType": "uint256",
          "name": "",
          "type": "uint256"
        }
      ],
      "stateMutability": "view",
      "type": "function"
    },
    {
      "inputs": [
        {
          "internalType": "bytes32",
          "name": "role",
          "type": "bytes32"
        },
        {
          "internalType": "address",
          "name": "account",
          "type": "address"
        }
      ],
      "name": "grantRole",
      "outputs": [],
      "stateMutability": "nonpayable",
      "type": "function"
    },
    {
      "inputs": [
        {
          "internalType": "bytes32",
          "name": "role",
          "type": "bytes32"
        },
        {
          "internalType": "address",
          "name": "account",
          "type": "address"
        }
      ],
      "name": "hasRole",
      "outputs": [
        {
          "internalType": "bool",
          "name": "",
          "type": "bool"
        }
      ],
      "stateMutability": "view",
      "type": "function"
    },
    {
      "inputs": [],
      "name": "initialize",
      "outputs": [],
      "stateMutability": "nonpayable",
      "type": "function"
    },
    {
      "inputs": [],
      "name": "proxiableUUID",
      "outputs": [
        {
          "internalType": "bytes32",
          "name": "",
          "type": "bytes32"
        }
      ],
      "stateMutability": "view",
      "type": "function"
    },
    {
      "inputs": [
        {
          "internalType": "bytes32",
          "name": "role",
          "type": "bytes32"
        },
        {
          "internalType": "address",
          "name": "account",
          "type": "address"
        }
      ],
      "name": "renounceRole",
      "outputs": [],
      "stateMutability": "nonpayable",
      "type": "function"
    },
    {
      "inputs": [
        {
          "internalType": "bytes32",
          "name": "role",
          "type": "bytes32"
        },
        {
          "internalType": "address",
          "name": "account",
          "type": "address"
        }
      ],
      "name": "revokeRole",
      "outputs": [],
      "stateMutability": "nonpayable",
      "type": "function"
    },
    {
      "inputs": [
        {
          "internalType": "address[]",
          "name": "rps_",
          "type": "address[]"
        },
        {
          "internalType": "string[][]",
          "name": "skills_",
          "type": "string[][]"
        },
        {
          "internalType": "uint32[][]",
          "name": "skillTypes_",
          "type": "uint32[][]"
        }
      ],
      "name": "setBatchSkillTypes",
      "outputs": [],
      "stateMutability": "nonpayable",
      "type": "function"
    },
    {
      "inputs": [
        {
          "internalType": "address",
          "name": "newState_",
          "type": "address"
        }
      ],
      "name": "setPromptMonsters",
      "outputs": [],
      "stateMutability": "nonpayable",
      "type": "function"
    },
    {
      "inputs": [
        {
          "internalType": "bytes4",
          "name": "interfaceId",
          "type": "bytes4"
        }
      ],
      "name": "supportsInterface",
      "outputs": [
        {
          "internalType": "bool",
          "name": "",
          "type": "bool"
        }
      ],
      "stateMutability": "view",
      "type": "function"
    },
    {
      "inputs": [
        {
          "internalType": "address",
          "name": "newImplementation",
          "type": "address"
        }
      ],
      "name": "upgradeTo",
      "outputs": [],
      "stateMutability": "nonpayable",
      "type": "function"
    },
    {
      "inputs": [
        {
          "internalType": "address",
          "name": "newImplementation",
          "type": "address"
        },
        {
          "internalType": "bytes",
          "name": "data",
          "type": "bytes"
        }
      ],
      "name": "upgradeToAndCall",
      "outputs": [],
      "stateMutability": "payable",
      "type": "function"
    }
  ],
  "bytecode": "0x60a0604052306080523480156200001557600080fd5b506200002062000026565b620000e8565b600054610100900460ff1615620000935760405162461bcd60e51b815260206004820152602760248201527f496e697469616c697a61626c653a20636f6e747261637420697320696e697469604482015266616c697a696e6760c81b606482015260840160405180910390fd5b60005460ff9081161015620000e6576000805460ff191660ff9081179091556040519081527f7f26b83ff96e1f2b6a682f133852f6798a09c465da95921460cefb38474024989060200160405180910390a15b565b608051612690620001206000396000818161061c0152818161065c015281816106fb0152818161073b01526107ca01526126906000f3fe6080604052600436106100fe5760003560e01c80638129fc1c11610095578063b737c1ee11610064578063b737c1ee146102af578063c61184cc146102cf578063ca15c873146102fc578063d547741f1461031c578063f84400ed1461033c57600080fd5b80638129fc1c1461022d5780639010d07c1461024257806391d148541461027a578063a217fddf1461029a57600080fd5b806336568abe116100d157806336568abe146101c55780633659cfe6146101e55780634f1ef2861461020557806352d1902d1461021857600080fd5b806301ffc9a714610103578063248a9ca31461013857806325ea1516146101765780632f2ff15d146101a3575b600080fd5b34801561010f57600080fd5b5061012361011e3660046119fe565b61035c565b60405190151581526020015b60405180910390f35b34801561014457600080fd5b50610168610153366004611a28565b60009081526065602052604090206001015490565b60405190815260200161012f565b34801561018257600080fd5b50610196610191366004611cd6565b610387565b60405161012f9190611dcf565b3480156101af57600080fd5b506101c36101be366004611de2565b610565565b005b3480156101d157600080fd5b506101c36101e0366004611de2565b61058f565b3480156101f157600080fd5b506101c3610200366004611e0e565b610612565b6101c3610213366004611e29565b6106f1565b34801561022457600080fd5b506101686107bd565b34801561023957600080fd5b506101c3610870565b34801561024e57600080fd5b5061026261025d366004611e80565b610993565b6040516001600160a01b03909116815260200161012f565b34801561028657600080fd5b50610123610295366004611de2565b6109b2565b3480156102a657600080fd5b50610168600081565b3480156102bb57600080fd5b506101c36102ca366004611e0e565b6109dd565b3480156102db57600080fd5b506102ef6102ea366004611eb6565b610a5d565b60405161012f91906120ba565b34801561030857600080fd5b50610168610317366004611a28565b610c64565b34801561032857600080fd5b506101c3610337366004611de2565b610c7b565b34801561034857600080fd5b506101c36103573660046121fb565b610ca0565b60006001600160e01b03198216635a05180f60e01b14806103815750610381826110c0565b92915050565b8151606090806001600160401b038111156103a4576103a4611a41565b6040519080825280602002602001820160405280156103d757816020015b60608152602001906001900390816103c25790505b50915060005b8181101561055d5760008482815181106103f9576103f9612350565b6020026020010151519050806001600160401b0381111561041c5761041c611a41565b604051908082528060200260200182016040528015610445578160200160208202803683370190505b5084838151811061045857610458612350565b602002602001018190525081600101915060005b818110156105565761012e600088858151811061048b5761048b612350565b60200260200101516001600160a01b03166001600160a01b031681526020019081526020016000208684815181106104c5576104c5612350565b602002602001015182815181106104de576104de612350565b60200260200101516040516104f39190612366565b90815260405190819003602001902054855163ffffffff9091169086908590811061052057610520612350565b6020026020010151828151811061053957610539612350565b63ffffffff9092166020928302919091019091015260010161046c565b50506103dd565b505092915050565b600082815260656020526040902060010154610580816110f5565b61058a83836110ff565b505050565b6001600160a01b03811633146106045760405162461bcd60e51b815260206004820152602f60248201527f416363657373436f6e74726f6c3a2063616e206f6e6c792072656e6f756e636560448201526e103937b632b9903337b91039b2b63360891b60648201526084015b60405180910390fd5b61060e8282611121565b5050565b6001600160a01b037f000000000000000000000000000000000000000000000000000000000000000016300361065a5760405162461bcd60e51b81526004016105fb90612382565b7f00000000000000000000000000000000000000000000000000000000000000006001600160a01b03166106a3600080516020612614833981519152546001600160a01b031690565b6001600160a01b0316146106c95760405162461bcd60e51b81526004016105fb906123ce565b6106d281611143565b604080516000808252602082019092526106ee9183919061114e565b50565b6001600160a01b037f00000000000000000000000000000000000000000000000000000000000000001630036107395760405162461bcd60e51b81526004016105fb90612382565b7f00000000000000000000000000000000000000000000000000000000000000006001600160a01b0316610782600080516020612614833981519152546001600160a01b031690565b6001600160a01b0316146107a85760405162461bcd60e51b81526004016105fb906123ce565b6107b182611143565b61060e8282600161114e565b6000306001600160a01b037f0000000000000000000000000000000000000000000000000000000000000000161461085d5760405162461bcd60e51b815260206004820152603860248201527f555550535570677261646561626c653a206d757374206e6f742062652063616c60448201527f6c6564207468726f7567682064656c656761746563616c6c000000000000000060648201526084016105fb565b5060008051602061261483398151915290565b600054610100900460ff16158080156108905750600054600160ff909116105b806108aa5750303b1580156108aa575060005460ff166001145b61090d5760405162461bcd60e51b815260206004820152602e60248201527f496e697469616c697a61626c653a20636f6e747261637420697320616c72656160448201526d191e481a5b9a5d1a585b1a5e995960921b60648201526084016105fb565b6000805460ff191660011790558015610930576000805461ff0019166101001790555b6109386112b9565b6109406112b9565b61094b6000336110ff565b80156106ee576000805461ff0019169055604051600181527f7f26b83ff96e1f2b6a682f133852f6798a09c465da95921460cefb38474024989060200160405180910390a150565b60008281526097602052604081206109ab9083611326565b9392505050565b60009182526065602090815260408084206001600160a01b0393909316845291905290205460ff1690565b60006109e8816110f5565b61012d80546001600160a01b038481166001600160a01b031983161790925516610a0f3390565b604080516001600160a01b038481168252868116602083015292909216917fcae53f2bd457739b1d1e9aa32ca90a3f7b93a7b392d0d9b10286ca78b12c9586910160405180910390a2505050565b604080516101808101825260608082526020820181905291810182905281810182905260006080820181905260a0820181905260c0820181905260e0820181905261010082018190526101208201819052610140820152610160810182905290820151516004811115610ace575060045b6000816001600160401b03811115610ae857610ae8611a41565b604051908082528060200260200182016040528015610b11578160200160208202803683370190505b50905060005b82811015610bae576001600160a01b038616600090815261012e602052604090206060860151805183908110610b4f57610b4f612350565b6020026020010151604051610b649190612366565b90815260405190819003602001902054825163ffffffff90911690839083908110610b9157610b91612350565b63ffffffff90921660209283029190910190910152600101610b17565b5060405180610180016040528085600001518152602001856020015181526020018560400151815260200185606001518152602001856080015163ffffffff1681526020018560a0015163ffffffff1681526020018560c0015163ffffffff1681526020018560e0015163ffffffff16815260200185610100015163ffffffff16815260200185610120015163ffffffff16815260200185610140015163ffffffff168152602001828152509250505092915050565b600081815260976020526040812061038190611332565b600082815260656020526040902060010154610c96816110f5565b61058a8383611121565b6000610cab816110f5565b835183518114610d125760405162461bcd60e51b815260206004820152602c60248201527f50726f6d70744d6f6e7374657273457874656e73696f6e3a206d69736d61746360448201526b0d040e4e0e640d8cadccee8d60a31b60648201526084016105fb565b6000816001600160401b03811115610d2c57610d2c611a41565b604051908082528060200260200182016040528015610d5f57816020015b6060815260200190600190039081610d4a5790505b50905060005b82811015611042576000868281518110610d8157610d81612350565b6020026020010151519050858281518110610d9e57610d9e612350565b6020026020010151518114610e0c5760405162461bcd60e51b815260206004820152602e60248201527f50726f6d70744d6f6e7374657273457874656e73696f6e3a206d69736d61746360448201526d0d040e6d6d2d8d840d8cadccee8d60931b60648201526084016105fb565b806001600160401b03811115610e2457610e24611a41565b604051908082528060200260200182016040528015610e4d578160200160208202803683370190505b50838381518110610e6057610e60612350565b602002602001018190525060005b848110156110385761012e60008a8581518110610e8d57610e8d612350565b60200260200101516001600160a01b03166001600160a01b03168152602001908152602001600020888481518110610ec757610ec7612350565b60200260200101518281518110610ee057610ee0612350565b6020026020010151604051610ef59190612366565b90815260405190819003602001902054845163ffffffff90911690859085908110610f2257610f22612350565b60200260200101518281518110610f3b57610f3b612350565b602002602001019063ffffffff16908163ffffffff1681525050868381518110610f6757610f67612350565b60200260200101518181518110610f8057610f80612350565b602002602001015161012e60008b8681518110610f9f57610f9f612350565b60200260200101516001600160a01b03166001600160a01b03168152602001908152602001600020898581518110610fd957610fd9612350565b60200260200101518381518110610ff257610ff2612350565b60200260200101516040516110079190612366565b908152604051908190036020019020805463ffffffff9290921663ffffffff19909216919091179055600101610e6e565b5050600101610d65565b5084604051611051919061241a565b604051809103902086604051611067919061248e565b60405180910390206110763390565b6001600160a01b03167f25eedb020a39313f23d83878c59222b1dd35aa982815c3641408a3b41eab536b84886040516110b09291906124cd565b60405180910390a4505050505050565b60006001600160e01b03198216637965db0b60e01b148061038157506301ffc9a760e01b6001600160e01b0319831614610381565b6106ee813361133c565b6111098282611395565b600082815260976020526040902061058a908261141b565b61112b8282611430565b600082815260976020526040902061058a9082611497565b600061060e816110f5565b7f4910fdfa16fed3260ed0e7147f7cc6da11a60208b5b9406d12a635614ffd91435460ff16156111815761058a836114ac565b826001600160a01b03166352d1902d6040518163ffffffff1660e01b8152600401602060405180830381865afa9250505080156111db575060408051601f3d908101601f191682019092526111d8918101906124f2565b60015b61123e5760405162461bcd60e51b815260206004820152602e60248201527f45524331393637557067726164653a206e657720696d706c656d656e7461746960448201526d6f6e206973206e6f74205555505360901b60648201526084016105fb565b60008051602061261483398151915281146112ad5760405162461bcd60e51b815260206004820152602960248201527f45524331393637557067726164653a20756e737570706f727465642070726f786044820152681a58589b195555525160ba1b60648201526084016105fb565b5061058a838383611548565b600054610100900460ff166113245760405162461bcd60e51b815260206004820152602b60248201527f496e697469616c697a61626c653a20636f6e7472616374206973206e6f74206960448201526a6e697469616c697a696e6760a81b60648201526084016105fb565b565b60006109ab8383611573565b6000610381825490565b61134682826109b2565b61060e576113538161159d565b61135e8360206115af565b60405160200161136f92919061250b565b60408051601f198184030181529082905262461bcd60e51b82526105fb91600401612580565b61139f82826109b2565b61060e5760008281526065602090815260408083206001600160a01b03851684529091529020805460ff191660011790556113d73390565b6001600160a01b0316816001600160a01b0316837f2f8788117e7eff1d82e926ec794901d17c78024a50270940304540a733656f0d60405160405180910390a45050565b60006109ab836001600160a01b03841661174a565b61143a82826109b2565b1561060e5760008281526065602090815260408083206001600160a01b0385168085529252808320805460ff1916905551339285917ff6391f5c32d9c69d2a47ea670b442974b53935d1edc7fd64eb21e047a839171b9190a45050565b60006109ab836001600160a01b038416611799565b6001600160a01b0381163b6115195760405162461bcd60e51b815260206004820152602d60248201527f455243313936373a206e657720696d706c656d656e746174696f6e206973206e60448201526c1bdd08184818dbdb9d1c9858dd609a1b60648201526084016105fb565b60008051602061261483398151915280546001600160a01b0319166001600160a01b0392909216919091179055565b6115518361188c565b60008251118061155e5750805b1561058a5761156d83836118cc565b50505050565b600082600001828154811061158a5761158a612350565b9060005260206000200154905092915050565b60606103816001600160a01b03831660145b606060006115be8360026125a9565b6115c99060026125c0565b6001600160401b038111156115e0576115e0611a41565b6040519080825280601f01601f19166020018201604052801561160a576020820181803683370190505b509050600360fc1b8160008151811061162557611625612350565b60200101906001600160f81b031916908160001a905350600f60fb1b8160018151811061165457611654612350565b60200101906001600160f81b031916908160001a90535060006116788460026125a9565b6116839060016125c0565b90505b60018111156116fb576f181899199a1a9b1b9c1cb0b131b232b360811b85600f16601081106116b7576116b7612350565b1a60f81b8282815181106116cd576116cd612350565b60200101906001600160f81b031916908160001a90535060049490941c936116f4816125d3565b9050611686565b5083156109ab5760405162461bcd60e51b815260206004820181905260248201527f537472696e67733a20686578206c656e67746820696e73756666696369656e7460448201526064016105fb565b600081815260018301602052604081205461179157508154600181810184556000848152602080822090930184905584548482528286019093526040902091909155610381565b506000610381565b600081815260018301602052604081205480156118825760006117bd6001836125ea565b85549091506000906117d1906001906125ea565b90508181146118365760008660000182815481106117f1576117f1612350565b906000526020600020015490508087600001848154811061181457611814612350565b6000918252602080832090910192909255918252600188019052604090208390555b8554869080611847576118476125fd565b600190038181906000526020600020016000905590558560010160008681526020019081526020016000206000905560019350505050610381565b6000915050610381565b611895816114ac565b6040516001600160a01b038216907fbc7cd75a20ee27fd9adebab32041f755214dbc6bffa90cc0225b39da2e5c2d3b90600090a250565b60606001600160a01b0383163b6119345760405162461bcd60e51b815260206004820152602660248201527f416464726573733a2064656c65676174652063616c6c20746f206e6f6e2d636f6044820152651b9d1c9858dd60d21b60648201526084016105fb565b600080846001600160a01b03168460405161194f9190612366565b600060405180830381855af49150503d806000811461198a576040519150601f19603f3d011682016040523d82523d6000602084013e61198f565b606091505b50915091506119b78282604051806060016040528060278152602001612634602791396119c0565b95945050505050565b606083156119cf5750816109ab565b6109ab83838151156119e45781518083602001fd5b8060405162461bcd60e51b81526004016105fb9190612580565b600060208284031215611a1057600080fd5b81356001600160e01b0319811681146109ab57600080fd5b600060208284031215611a3a57600080fd5b5035919050565b634e487b7160e01b600052604160045260246000fd5b60405161016081016001600160401b0381118282101715611a7a57611a7a611a41565b60405290565b604051601f8201601f191681016001600160401b0381118282101715611aa857611aa8611a41565b604052919050565b60006001600160401b03821115611ac957611ac9611a41565b5060051b60200190565b80356001600160a01b0381168114611aea57600080fd5b919050565b600082601f830112611b0057600080fd5b81356020611b15611b1083611ab0565b611a80565b82815260059290921b84018101918181019086841115611b3457600080fd5b8286015b84811015611b5657611b4981611ad3565b8352918301918301611b38565b509695505050505050565b60006001600160401b03831115611b7a57611b7a611a41565b611b8d601f8401601f1916602001611a80565b9050828152838383011115611ba157600080fd5b828260208301376000602084830101529392505050565b600082601f830112611bc957600080fd5b6109ab83833560208501611b61565b600082601f830112611be957600080fd5b81356020611bf9611b1083611ab0565b82815260059290921b84018101918181019086841115611c1857600080fd5b8286015b84811015611b565780356001600160401b03811115611c3b5760008081fd5b611c498986838b0101611bb8565b845250918301918301611c1c565b600082601f830112611c6857600080fd5b81356020611c78611b1083611ab0565b82815260059290921b84018101918181019086841115611c9757600080fd5b8286015b84811015611b565780356001600160401b03811115611cba5760008081fd5b611cc88986838b0101611bd8565b845250918301918301611c9b565b60008060408385031215611ce957600080fd5b82356001600160401b0380821115611d0057600080fd5b611d0c86838701611aef565b93506020850135915080821115611d2257600080fd5b50611d2f85828601611c57565b9150509250929050565b600081518084526020808501945080840160005b83811015611d6f57815163ffffffff1687529582019590820190600101611d4d565b509495945050505050565b600081518084526020808501808196508360051b8101915082860160005b85811015611dc2578284038952611db0848351611d39565b98850198935090840190600101611d98565b5091979650505050505050565b6020815260006109ab6020830184611d7a565b60008060408385031215611df557600080fd5b82359150611e0560208401611ad3565b90509250929050565b600060208284031215611e2057600080fd5b6109ab82611ad3565b60008060408385031215611e3c57600080fd5b611e4583611ad3565b915060208301356001600160401b03811115611e6057600080fd5b8301601f81018513611e7157600080fd5b611d2f85823560208401611b61565b60008060408385031215611e9357600080fd5b50508035926020909101359150565b803563ffffffff81168114611aea57600080fd5b60008060408385031215611ec957600080fd5b611ed283611ad3565b915060208301356001600160401b0380821115611eee57600080fd5b908401906101608287031215611f0357600080fd5b611f0b611a57565b823582811115611f1a57600080fd5b611f2688828601611bb8565b825250602083013582811115611f3b57600080fd5b611f4788828601611bb8565b602083015250604083013582811115611f5f57600080fd5b611f6b88828601611bb8565b604083015250606083013582811115611f8357600080fd5b611f8f88828601611bd8565b606083015250611fa160808401611ea2565b6080820152611fb260a08401611ea2565b60a0820152611fc360c08401611ea2565b60c0820152611fd460e08401611ea2565b60e08201526101009150611fe9828401611ea2565b828201526101209150611ffd828401611ea2565b828201526101409150612011828401611ea2565b828201528093505050509250929050565b60005b8381101561203d578181015183820152602001612025565b50506000910152565b6000815180845261205e816020860160208601612022565b601f01601f19169290920160200192915050565b600081518084526020808501808196508360051b8101915082860160005b85811015611dc25782840389526120a8848351612046565b98850198935090840190600101612090565b60208152600082516101808060208501526120d96101a0850183612046565b91506020850151601f19808685030160408701526120f78483612046565b935060408701519150808685030160608701526121148483612046565b935060608701519150808685030160808701526121318483612072565b93506080870151915061214c60a087018363ffffffff169052565b60a087015163ffffffff811660c0880152915060c087015163ffffffff811660e0880152915060e0870151915061010061218d8188018463ffffffff169052565b87015191506101206121a68782018463ffffffff169052565b87015191506101406121bf8782018463ffffffff169052565b87015191506101606121d88782018463ffffffff169052565b8701518685039091018387015290506121f18382611d39565b9695505050505050565b60008060006060848603121561221057600080fd5b83356001600160401b038082111561222757600080fd5b61223387838801611aef565b945060209150818601358181111561224a57600080fd5b61225688828901611c57565b94505060408601358181111561226b57600080fd5b8601601f8101881361227c57600080fd5b803561228a611b1082611ab0565b81815260059190911b8201840190848101908a8311156122a957600080fd5b8584015b8381101561233f578035868111156122c55760008081fd5b8501603f81018d136122d75760008081fd5b878101356122e7611b1082611ab0565b81815260059190911b820160400190898101908f8311156123085760008081fd5b6040840193505b8284101561232f5761232084611ea2565b8252928a0192908a019061230f565b86525050509186019186016122ad565b508096505050505050509250925092565b634e487b7160e01b600052603260045260246000fd5b60008251612378818460208701612022565b9190910192915050565b6020808252602c908201527f46756e6374696f6e206d7573742062652063616c6c6564207468726f7567682060408201526b19195b1959d85d1958d85b1b60a21b606082015260800190565b6020808252602c908201527f46756e6374696f6e206d7573742062652063616c6c6564207468726f7567682060408201526b6163746976652070726f787960a01b606082015260800190565b81516000908290602080860184805b848110156124815782518051908501908790845b8181101561246f578351805161245681868c8501612022565b94890194601f01601f191693909301925060010161243d565b50909750505091830191600101612429565b5093979650505050505050565b815160009082906020808601845b838110156124c15781516001600160a01b03168552938201939082019060010161249c565b50929695505050505050565b6040815260006124e06040830185611d7a565b82810360208401526119b78185611d7a565b60006020828403121561250457600080fd5b5051919050565b7f416363657373436f6e74726f6c3a206163636f756e7420000000000000000000815260008351612543816017850160208801612022565b7001034b99036b4b9b9b4b733903937b6329607d1b6017918401918201528351612574816028840160208801612022565b01602801949350505050565b6020815260006109ab6020830184612046565b634e487b7160e01b600052601160045260246000fd5b808202811582820484141761038157610381612593565b8082018082111561038157610381612593565b6000816125e2576125e2612593565b506000190190565b8181038181111561038157610381612593565b634e487b7160e01b600052603160045260246000fdfe360894a13ba1a3210667c828492db98dca3e2076cc3735a920a3ca505d382bbc416464726573733a206c6f772d6c6576656c2064656c65676174652063616c6c206661696c6564a2646970667358221220bb1a8cc9a5709a1925f6b206258e6f164b3dc76a974ba5f0badc4029f0ed554664736f6c63430008120033",
  "linkReferences": {},
  "deployedLinkReferences": {}
}