{
  "_format": "hh-sol-artifact-1",
  "contractName": "PromptMonstersExtension",
  "sourceName": "contracts/prompt-monsters-extension/PromptMonstersExtension.sol",
  "abi": [
    {
      "inputs": [],
      "stateMutability": "nonpayable",
      "type": "constructor"
    },
    {
      "anonymous": false,
      "inputs": [
        {
          "indexed": false,
          "internalType": "address",
          "name": "previousAdmin",
          "type": "address"
        },
        {
          "indexed": false,
          "internalType": "address",
          "name": "newAdmin",
          "type": "address"
        }
      ],
      "name": "AdminChanged",
      "type": "event"
    },
    {
      "anonymous": false,
      "inputs": [
        {
          "indexed": true,
          "internalType": "address",
          "name": "beacon",
          "type": "address"
        }
      ],
      "name": "BeaconUpgraded",
      "type": "event"
    },
    {
      "anonymous": false,
      "inputs": [
        {
          "indexed": false,
          "internalType": "uint8",
          "name": "version",
          "type": "uint8"
        }
      ],
      "name": "Initialized",
      "type": "event"
    },
    {
      "anonymous": false,
      "inputs": [
        {
          "indexed": true,
          "internalType": "bytes32",
          "name": "role",
          "type": "bytes32"
        },
        {
          "indexed": true,
          "internalType": "bytes32",
          "name": "previousAdminRole",
          "type": "bytes32"
        },
        {
          "indexed": true,
          "internalType": "bytes32",
          "name": "newAdminRole",
          "type": "bytes32"
        }
      ],
      "name": "RoleAdminChanged",
      "type": "event"
    },
    {
      "anonymous": false,
      "inputs": [
        {
          "indexed": true,
          "internalType": "bytes32",
          "name": "role",
          "type": "bytes32"
        },
        {
          "indexed": true,
          "internalType": "address",
          "name": "account",
          "type": "address"
        },
        {
          "indexed": true,
          "internalType": "address",
          "name": "sender",
          "type": "address"
        }
      ],
      "name": "RoleGranted",
      "type": "event"
    },
    {
      "anonymous": false,
      "inputs": [
        {
          "indexed": true,
          "internalType": "bytes32",
          "name": "role",
          "type": "bytes32"
        },
        {
          "indexed": true,
          "internalType": "address",
          "name": "account",
          "type": "address"
        },
        {
          "indexed": true,
          "internalType": "address",
          "name": "sender",
          "type": "address"
        }
      ],
      "name": "RoleRevoked",
      "type": "event"
    },
    {
      "anonymous": false,
      "inputs": [
        {
          "indexed": true,
          "internalType": "address",
          "name": "publisher",
          "type": "address"
        },
        {
          "indexed": true,
          "internalType": "address[]",
          "name": "rps",
          "type": "address[]"
        },
        {
          "indexed": true,
          "internalType": "string[][]",
          "name": "skills",
          "type": "string[][]"
        },
        {
          "indexed": false,
          "internalType": "uint32[][]",
          "name": "oldState",
          "type": "uint32[][]"
        },
        {
          "indexed": false,
          "internalType": "uint32[][]",
          "name": "newState",
          "type": "uint32[][]"
        }
      ],
      "name": "SetBatchSkillTypes",
      "type": "event"
    },
    {
      "anonymous": false,
      "inputs": [
        {
          "indexed": true,
          "internalType": "address",
          "name": "publisher",
          "type": "address"
        },
        {
          "indexed": false,
          "internalType": "address",
          "name": "oldState",
          "type": "address"
        },
        {
          "indexed": false,
          "internalType": "address",
          "name": "newState",
          "type": "address"
        }
      ],
      "name": "SetPromptMonsters",
      "type": "event"
    },
    {
      "anonymous": false,
      "inputs": [
        {
          "indexed": true,
          "internalType": "address",
          "name": "implementation",
          "type": "address"
        }
      ],
      "name": "Upgraded",
      "type": "event"
    },
    {
      "inputs": [],
      "name": "DEFAULT_ADMIN_ROLE",
      "outputs": [
        {
          "internalType": "bytes32",
          "name": "",
          "type": "bytes32"
        }
      ],
      "stateMutability": "view",
      "type": "function"
    },
    {
      "inputs": [
        {
          "internalType": "address[]",
          "name": "rps_",
          "type": "address[]"
        },
        {
          "internalType": "string[][]",
          "name": "skills_",
          "type": "string[][]"
        }
      ],
      "name": "getBatchSkillTypes",
      "outputs": [
        {
          "internalType": "uint32[][]",
          "name": "returnState",
          "type": "uint32[][]"
        }
      ],
      "stateMutability": "view",
      "type": "function"
    },
    {
      "inputs": [
        {
          "internalType": "address",
          "name": "resurrectionPrompt_",
          "type": "address"
        },
        {
          "components": [
            {
              "internalType": "string",
              "name": "feature",
              "type": "string"
            },
            {
              "internalType": "string",
              "name": "name",
              "type": "string"
            },
            {
              "internalType": "string",
              "name": "flavor",
              "type": "string"
            },
            {
              "internalType": "string[]",
              "name": "skills",
              "type": "string[]"
            },
            {
              "internalType": "uint32",
              "name": "lv",
              "type": "uint32"
            },
            {
              "internalType": "uint32",
              "name": "hp",
              "type": "uint32"
            },
            {
              "internalType": "uint32",
              "name": "atk",
              "type": "uint32"
            },
            {
              "internalType": "uint32",
              "name": "def",
              "type": "uint32"
            },
            {
              "internalType": "uint32",
              "name": "inte",
              "type": "uint32"
            },
            {
              "internalType": "uint32",
              "name": "mgr",
              "type": "uint32"
            },
            {
              "internalType": "uint32",
              "name": "agl",
              "type": "uint32"
            }
          ],
          "internalType": "struct IPromptMonsters.Monster",
          "name": "monster_",
          "type": "tuple"
        }
      ],
      "name": "getMonsterExtension",
      "outputs": [
        {
          "components": [
            {
              "internalType": "string",
              "name": "feature",
              "type": "string"
            },
            {
              "internalType": "string",
              "name": "name",
              "type": "string"
            },
            {
              "internalType": "string",
              "name": "flavor",
              "type": "string"
            },
            {
              "internalType": "string[]",
              "name": "skills",
              "type": "string[]"
            },
            {
              "internalType": "uint32",
              "name": "lv",
              "type": "uint32"
            },
            {
              "internalType": "uint32",
              "name": "hp",
              "type": "uint32"
            },
            {
              "internalType": "uint32",
              "name": "atk",
              "type": "uint32"
            },
            {
              "internalType": "uint32",
              "name": "def",
              "type": "uint32"
            },
            {
              "internalType": "uint32",
              "name": "inte",
              "type": "uint32"
            },
            {
              "internalType": "uint32",
              "name": "mgr",
              "type": "uint32"
            },
            {
              "internalType": "uint32",
              "name": "agl",
              "type": "uint32"
            },
            {
              "internalType": "uint32[]",
              "name": "skillTypes",
              "type": "uint32[]"
            },
            {
              "internalType": "address",
              "name": "resurrectionPrompt",
              "type": "address"
            }
          ],
          "internalType": "struct IPromptMonstersExtension.MonsterExtension",
          "name": "monsterExtension",
          "type": "tuple"
        }
      ],
      "stateMutability": "view",
      "type": "function"
    },
    {
      "inputs": [
        {
          "internalType": "bytes32",
          "name": "role",
          "type": "bytes32"
        }
      ],
      "name": "getRoleAdmin",
      "outputs": [
        {
          "internalType": "bytes32",
          "name": "",
          "type": "bytes32"
        }
      ],
      "stateMutability": "view",
      "type": "function"
    },
    {
      "inputs": [
        {
          "internalType": "bytes32",
          "name": "role",
          "type": "bytes32"
        },
        {
          "internalType": "uint256",
          "name": "index",
          "type": "uint256"
        }
      ],
      "name": "getRoleMember",
      "outputs": [
        {
          "internalType": "address",
          "name": "",
          "type": "address"
        }
      ],
      "stateMutability": "view",
      "type": "function"
    },
    {
      "inputs": [
        {
          "internalType": "bytes32",
          "name": "role",
          "type": "bytes32"
        }
      ],
      "name": "getRoleMemberCount",
      "outputs": [
        {
          "internalType": "uint256",
          "name": "",
          "type": "uint256"
        }
      ],
      "stateMutability": "view",
      "type": "function"
    },
    {
      "inputs": [
        {
          "internalType": "bytes32",
          "name": "role",
          "type": "bytes32"
        },
        {
          "internalType": "address",
          "name": "account",
          "type": "address"
        }
      ],
      "name": "grantRole",
      "outputs": [],
      "stateMutability": "nonpayable",
      "type": "function"
    },
    {
      "inputs": [
        {
          "internalType": "bytes32",
          "name": "role",
          "type": "bytes32"
        },
        {
          "internalType": "address",
          "name": "account",
          "type": "address"
        }
      ],
      "name": "hasRole",
      "outputs": [
        {
          "internalType": "bool",
          "name": "",
          "type": "bool"
        }
      ],
      "stateMutability": "view",
      "type": "function"
    },
    {
      "inputs": [],
      "name": "initialize",
      "outputs": [],
      "stateMutability": "nonpayable",
      "type": "function"
    },
    {
      "inputs": [],
      "name": "proxiableUUID",
      "outputs": [
        {
          "internalType": "bytes32",
          "name": "",
          "type": "bytes32"
        }
      ],
      "stateMutability": "view",
      "type": "function"
    },
    {
      "inputs": [
        {
          "internalType": "bytes32",
          "name": "role",
          "type": "bytes32"
        },
        {
          "internalType": "address",
          "name": "account",
          "type": "address"
        }
      ],
      "name": "renounceRole",
      "outputs": [],
      "stateMutability": "nonpayable",
      "type": "function"
    },
    {
      "inputs": [
        {
          "internalType": "bytes32",
          "name": "role",
          "type": "bytes32"
        },
        {
          "internalType": "address",
          "name": "account",
          "type": "address"
        }
      ],
      "name": "revokeRole",
      "outputs": [],
      "stateMutability": "nonpayable",
      "type": "function"
    },
    {
      "inputs": [
        {
          "internalType": "address[]",
          "name": "rps_",
          "type": "address[]"
        },
        {
          "internalType": "string[][]",
          "name": "skills_",
          "type": "string[][]"
        },
        {
          "internalType": "uint32[][]",
          "name": "skillTypes_",
          "type": "uint32[][]"
        }
      ],
      "name": "setBatchSkillTypes",
      "outputs": [],
      "stateMutability": "nonpayable",
      "type": "function"
    },
    {
      "inputs": [
        {
          "internalType": "address",
          "name": "newState_",
          "type": "address"
        }
      ],
      "name": "setPromptMonsters",
      "outputs": [],
      "stateMutability": "nonpayable",
      "type": "function"
    },
    {
      "inputs": [
        {
          "internalType": "bytes4",
          "name": "interfaceId",
          "type": "bytes4"
        }
      ],
      "name": "supportsInterface",
      "outputs": [
        {
          "internalType": "bool",
          "name": "",
          "type": "bool"
        }
      ],
      "stateMutability": "view",
      "type": "function"
    },
    {
      "inputs": [
        {
          "internalType": "address",
          "name": "newImplementation",
          "type": "address"
        }
      ],
      "name": "upgradeTo",
      "outputs": [],
      "stateMutability": "nonpayable",
      "type": "function"
    },
    {
      "inputs": [
        {
          "internalType": "address",
          "name": "newImplementation",
          "type": "address"
        },
        {
          "internalType": "bytes",
          "name": "data",
          "type": "bytes"
        }
      ],
      "name": "upgradeToAndCall",
      "outputs": [],
      "stateMutability": "payable",
      "type": "function"
    }
  ],
  "bytecode": "0x60a0604052306080523480156200001557600080fd5b506200002062000026565b620000e8565b600054610100900460ff1615620000935760405162461bcd60e51b815260206004820152602760248201527f496e697469616c697a61626c653a20636f6e747261637420697320696e697469604482015266616c697a696e6760c81b606482015260840160405180910390fd5b60005460ff9081161015620000e6576000805460ff191660ff9081179091556040519081527f7f26b83ff96e1f2b6a682f133852f6798a09c465da95921460cefb38474024989060200160405180910390a15b565b6080516126c9620001206000396000818161061c0152818161065c015281816106fb0152818161073b01526107ca01526126c96000f3fe6080604052600436106100fe5760003560e01c80638129fc1c11610095578063b737c1ee11610064578063b737c1ee146102af578063c61184cc146102cf578063ca15c873146102fc578063d547741f1461031c578063f84400ed1461033c57600080fd5b80638129fc1c1461022d5780639010d07c1461024257806391d148541461027a578063a217fddf1461029a57600080fd5b806336568abe116100d157806336568abe146101c55780633659cfe6146101e55780634f1ef2861461020557806352d1902d1461021857600080fd5b806301ffc9a714610103578063248a9ca31461013857806325ea1516146101765780632f2ff15d146101a3575b600080fd5b34801561010f57600080fd5b5061012361011e366004611a15565b61035c565b60405190151581526020015b60405180910390f35b34801561014457600080fd5b50610168610153366004611a3f565b60009081526065602052604090206001015490565b60405190815260200161012f565b34801561018257600080fd5b50610196610191366004611ced565b610387565b60405161012f9190611de6565b3480156101af57600080fd5b506101c36101be366004611df9565b610565565b005b3480156101d157600080fd5b506101c36101e0366004611df9565b61058f565b3480156101f157600080fd5b506101c3610200366004611e25565b610612565b6101c3610213366004611e40565b6106f1565b34801561022457600080fd5b506101686107bd565b34801561023957600080fd5b506101c3610870565b34801561024e57600080fd5b5061026261025d366004611e97565b610993565b6040516001600160a01b03909116815260200161012f565b34801561028657600080fd5b50610123610295366004611df9565b6109b2565b3480156102a657600080fd5b50610168600081565b3480156102bb57600080fd5b506101c36102ca366004611e25565b6109dd565b3480156102db57600080fd5b506102ef6102ea366004611ecd565b610a5d565b60405161012f91906120d1565b34801561030857600080fd5b50610168610317366004611a3f565b610c7b565b34801561032857600080fd5b506101c3610337366004611df9565b610c92565b34801561034857600080fd5b506101c3610357366004612234565b610cb7565b60006001600160e01b03198216635a05180f60e01b14806103815750610381826110d7565b92915050565b8151606090806001600160401b038111156103a4576103a4611a58565b6040519080825280602002602001820160405280156103d757816020015b60608152602001906001900390816103c25790505b50915060005b8181101561055d5760008482815181106103f9576103f9612389565b6020026020010151519050806001600160401b0381111561041c5761041c611a58565b604051908082528060200260200182016040528015610445578160200160208202803683370190505b5084838151811061045857610458612389565b602002602001018190525081600101915060005b818110156105565761012e600088858151811061048b5761048b612389565b60200260200101516001600160a01b03166001600160a01b031681526020019081526020016000208684815181106104c5576104c5612389565b602002602001015182815181106104de576104de612389565b60200260200101516040516104f3919061239f565b90815260405190819003602001902054855163ffffffff9091169086908590811061052057610520612389565b6020026020010151828151811061053957610539612389565b63ffffffff9092166020928302919091019091015260010161046c565b50506103dd565b505092915050565b6000828152606560205260409020600101546105808161110c565b61058a8383611116565b505050565b6001600160a01b03811633146106045760405162461bcd60e51b815260206004820152602f60248201527f416363657373436f6e74726f6c3a2063616e206f6e6c792072656e6f756e636560448201526e103937b632b9903337b91039b2b63360891b60648201526084015b60405180910390fd5b61060e8282611138565b5050565b6001600160a01b037f000000000000000000000000000000000000000000000000000000000000000016300361065a5760405162461bcd60e51b81526004016105fb906123bb565b7f00000000000000000000000000000000000000000000000000000000000000006001600160a01b03166106a360008051602061264d833981519152546001600160a01b031690565b6001600160a01b0316146106c95760405162461bcd60e51b81526004016105fb90612407565b6106d28161115a565b604080516000808252602082019092526106ee91839190611165565b50565b6001600160a01b037f00000000000000000000000000000000000000000000000000000000000000001630036107395760405162461bcd60e51b81526004016105fb906123bb565b7f00000000000000000000000000000000000000000000000000000000000000006001600160a01b031661078260008051602061264d833981519152546001600160a01b031690565b6001600160a01b0316146107a85760405162461bcd60e51b81526004016105fb90612407565b6107b18261115a565b61060e82826001611165565b6000306001600160a01b037f0000000000000000000000000000000000000000000000000000000000000000161461085d5760405162461bcd60e51b815260206004820152603860248201527f555550535570677261646561626c653a206d757374206e6f742062652063616c60448201527f6c6564207468726f7567682064656c656761746563616c6c000000000000000060648201526084016105fb565b5060008051602061264d83398151915290565b600054610100900460ff16158080156108905750600054600160ff909116105b806108aa5750303b1580156108aa575060005460ff166001145b61090d5760405162461bcd60e51b815260206004820152602e60248201527f496e697469616c697a61626c653a20636f6e747261637420697320616c72656160448201526d191e481a5b9a5d1a585b1a5e995960921b60648201526084016105fb565b6000805460ff191660011790558015610930576000805461ff0019166101001790555b6109386112d0565b6109406112d0565b61094b600033611116565b80156106ee576000805461ff0019169055604051600181527f7f26b83ff96e1f2b6a682f133852f6798a09c465da95921460cefb38474024989060200160405180910390a150565b60008281526097602052604081206109ab908361133d565b9392505050565b60009182526065602090815260408084206001600160a01b0393909316845291905290205460ff1690565b60006109e88161110c565b61012d80546001600160a01b038481166001600160a01b031983161790925516610a0f3390565b604080516001600160a01b038481168252868116602083015292909216917fcae53f2bd457739b1d1e9aa32ca90a3f7b93a7b392d0d9b10286ca78b12c9586910160405180910390a2505050565b604080516101a08101825260608082526020820181905291810182905281810182905260006080820181905260a0820181905260c0820181905260e08201819052610100820181905261012082018190526101408201819052610160820183905261018082015290820151516004811115610ad6575060045b6000816001600160401b03811115610af057610af0611a58565b604051908082528060200260200182016040528015610b19578160200160208202803683370190505b50905060005b82811015610bb6576001600160a01b038616600090815261012e602052604090206060860151805183908110610b5757610b57612389565b6020026020010151604051610b6c919061239f565b90815260405190819003602001902054825163ffffffff90911690839083908110610b9957610b99612389565b63ffffffff90921660209283029190910190910152600101610b1f565b50604051806101a0016040528085600001518152602001856020015181526020018560400151815260200185606001518152602001856080015163ffffffff1681526020018560a0015163ffffffff1681526020018560c0015163ffffffff1681526020018560e0015163ffffffff16815260200185610100015163ffffffff16815260200185610120015163ffffffff16815260200185610140015163ffffffff168152602001828152602001866001600160a01b03168152509250505092915050565b600081815260976020526040812061038190611349565b600082815260656020526040902060010154610cad8161110c565b61058a8383611138565b6000610cc28161110c565b835183518114610d295760405162461bcd60e51b815260206004820152602c60248201527f50726f6d70744d6f6e7374657273457874656e73696f6e3a206d69736d61746360448201526b0d040e4e0e640d8cadccee8d60a31b60648201526084016105fb565b6000816001600160401b03811115610d4357610d43611a58565b604051908082528060200260200182016040528015610d7657816020015b6060815260200190600190039081610d615790505b50905060005b82811015611059576000868281518110610d9857610d98612389565b6020026020010151519050858281518110610db557610db5612389565b6020026020010151518114610e235760405162461bcd60e51b815260206004820152602e60248201527f50726f6d70744d6f6e7374657273457874656e73696f6e3a206d69736d61746360448201526d0d040e6d6d2d8d840d8cadccee8d60931b60648201526084016105fb565b806001600160401b03811115610e3b57610e3b611a58565b604051908082528060200260200182016040528015610e64578160200160208202803683370190505b50838381518110610e7757610e77612389565b602002602001018190525060005b8181101561104f5761012e60008a8581518110610ea457610ea4612389565b60200260200101516001600160a01b03166001600160a01b03168152602001908152602001600020888481518110610ede57610ede612389565b60200260200101518281518110610ef757610ef7612389565b6020026020010151604051610f0c919061239f565b90815260405190819003602001902054845163ffffffff90911690859085908110610f3957610f39612389565b60200260200101518281518110610f5257610f52612389565b602002602001019063ffffffff16908163ffffffff1681525050868381518110610f7e57610f7e612389565b60200260200101518181518110610f9757610f97612389565b602002602001015161012e60008b8681518110610fb657610fb6612389565b60200260200101516001600160a01b03166001600160a01b03168152602001908152602001600020898581518110610ff057610ff0612389565b6020026020010151838151811061100957611009612389565b602002602001015160405161101e919061239f565b908152604051908190036020019020805463ffffffff9290921663ffffffff19909216919091179055600101610e85565b5050600101610d7c565b50846040516110689190612453565b60405180910390208660405161107e91906124c7565b604051809103902061108d3390565b6001600160a01b03167f25eedb020a39313f23d83878c59222b1dd35aa982815c3641408a3b41eab536b84886040516110c7929190612506565b60405180910390a4505050505050565b60006001600160e01b03198216637965db0b60e01b148061038157506301ffc9a760e01b6001600160e01b0319831614610381565b6106ee8133611353565b61112082826113ac565b600082815260976020526040902061058a9082611432565b6111428282611447565b600082815260976020526040902061058a90826114ae565b600061060e8161110c565b7f4910fdfa16fed3260ed0e7147f7cc6da11a60208b5b9406d12a635614ffd91435460ff16156111985761058a836114c3565b826001600160a01b03166352d1902d6040518163ffffffff1660e01b8152600401602060405180830381865afa9250505080156111f2575060408051601f3d908101601f191682019092526111ef9181019061252b565b60015b6112555760405162461bcd60e51b815260206004820152602e60248201527f45524331393637557067726164653a206e657720696d706c656d656e7461746960448201526d6f6e206973206e6f74205555505360901b60648201526084016105fb565b60008051602061264d83398151915281146112c45760405162461bcd60e51b815260206004820152602960248201527f45524331393637557067726164653a20756e737570706f727465642070726f786044820152681a58589b195555525160ba1b60648201526084016105fb565b5061058a83838361155f565b600054610100900460ff1661133b5760405162461bcd60e51b815260206004820152602b60248201527f496e697469616c697a61626c653a20636f6e7472616374206973206e6f74206960448201526a6e697469616c697a696e6760a81b60648201526084016105fb565b565b60006109ab838361158a565b6000610381825490565b61135d82826109b2565b61060e5761136a816115b4565b6113758360206115c6565b604051602001611386929190612544565b60408051601f198184030181529082905262461bcd60e51b82526105fb916004016125b9565b6113b682826109b2565b61060e5760008281526065602090815260408083206001600160a01b03851684529091529020805460ff191660011790556113ee3390565b6001600160a01b0316816001600160a01b0316837f2f8788117e7eff1d82e926ec794901d17c78024a50270940304540a733656f0d60405160405180910390a45050565b60006109ab836001600160a01b038416611761565b61145182826109b2565b1561060e5760008281526065602090815260408083206001600160a01b0385168085529252808320805460ff1916905551339285917ff6391f5c32d9c69d2a47ea670b442974b53935d1edc7fd64eb21e047a839171b9190a45050565b60006109ab836001600160a01b0384166117b0565b6001600160a01b0381163b6115305760405162461bcd60e51b815260206004820152602d60248201527f455243313936373a206e657720696d706c656d656e746174696f6e206973206e60448201526c1bdd08184818dbdb9d1c9858dd609a1b60648201526084016105fb565b60008051602061264d83398151915280546001600160a01b0319166001600160a01b0392909216919091179055565b611568836118a3565b6000825111806115755750805b1561058a5761158483836118e3565b50505050565b60008260000182815481106115a1576115a1612389565b9060005260206000200154905092915050565b60606103816001600160a01b03831660145b606060006115d58360026125e2565b6115e09060026125f9565b6001600160401b038111156115f7576115f7611a58565b6040519080825280601f01601f191660200182016040528015611621576020820181803683370190505b509050600360fc1b8160008151811061163c5761163c612389565b60200101906001600160f81b031916908160001a905350600f60fb1b8160018151811061166b5761166b612389565b60200101906001600160f81b031916908160001a905350600061168f8460026125e2565b61169a9060016125f9565b90505b6001811115611712576f181899199a1a9b1b9c1cb0b131b232b360811b85600f16601081106116ce576116ce612389565b1a60f81b8282815181106116e4576116e4612389565b60200101906001600160f81b031916908160001a90535060049490941c9361170b8161260c565b905061169d565b5083156109ab5760405162461bcd60e51b815260206004820181905260248201527f537472696e67733a20686578206c656e67746820696e73756666696369656e7460448201526064016105fb565b60008181526001830160205260408120546117a857508154600181810184556000848152602080822090930184905584548482528286019093526040902091909155610381565b506000610381565b600081815260018301602052604081205480156118995760006117d4600183612623565b85549091506000906117e890600190612623565b905081811461184d57600086600001828154811061180857611808612389565b906000526020600020015490508087600001848154811061182b5761182b612389565b6000918252602080832090910192909255918252600188019052604090208390555b855486908061185e5761185e612636565b600190038181906000526020600020016000905590558560010160008681526020019081526020016000206000905560019350505050610381565b6000915050610381565b6118ac816114c3565b6040516001600160a01b038216907fbc7cd75a20ee27fd9adebab32041f755214dbc6bffa90cc0225b39da2e5c2d3b90600090a250565b60606001600160a01b0383163b61194b5760405162461bcd60e51b815260206004820152602660248201527f416464726573733a2064656c65676174652063616c6c20746f206e6f6e2d636f6044820152651b9d1c9858dd60d21b60648201526084016105fb565b600080846001600160a01b031684604051611966919061239f565b600060405180830381855af49150503d80600081146119a1576040519150601f19603f3d011682016040523d82523d6000602084013e6119a6565b606091505b50915091506119ce828260405180606001604052806027815260200161266d602791396119d7565b95945050505050565b606083156119e65750816109ab565b6109ab83838151156119fb5781518083602001fd5b8060405162461bcd60e51b81526004016105fb91906125b9565b600060208284031215611a2757600080fd5b81356001600160e01b0319811681146109ab57600080fd5b600060208284031215611a5157600080fd5b5035919050565b634e487b7160e01b600052604160045260246000fd5b60405161016081016001600160401b0381118282101715611a9157611a91611a58565b60405290565b604051601f8201601f191681016001600160401b0381118282101715611abf57611abf611a58565b604052919050565b60006001600160401b03821115611ae057611ae0611a58565b5060051b60200190565b80356001600160a01b0381168114611b0157600080fd5b919050565b600082601f830112611b1757600080fd5b81356020611b2c611b2783611ac7565b611a97565b82815260059290921b84018101918181019086841115611b4b57600080fd5b8286015b84811015611b6d57611b6081611aea565b8352918301918301611b4f565b509695505050505050565b60006001600160401b03831115611b9157611b91611a58565b611ba4601f8401601f1916602001611a97565b9050828152838383011115611bb857600080fd5b828260208301376000602084830101529392505050565b600082601f830112611be057600080fd5b6109ab83833560208501611b78565b600082601f830112611c0057600080fd5b81356020611c10611b2783611ac7565b82815260059290921b84018101918181019086841115611c2f57600080fd5b8286015b84811015611b6d5780356001600160401b03811115611c525760008081fd5b611c608986838b0101611bcf565b845250918301918301611c33565b600082601f830112611c7f57600080fd5b81356020611c8f611b2783611ac7565b82815260059290921b84018101918181019086841115611cae57600080fd5b8286015b84811015611b6d5780356001600160401b03811115611cd15760008081fd5b611cdf8986838b0101611bef565b845250918301918301611cb2565b60008060408385031215611d0057600080fd5b82356001600160401b0380821115611d1757600080fd5b611d2386838701611b06565b93506020850135915080821115611d3957600080fd5b50611d4685828601611c6e565b9150509250929050565b600081518084526020808501945080840160005b83811015611d8657815163ffffffff1687529582019590820190600101611d64565b509495945050505050565b600081518084526020808501808196508360051b8101915082860160005b85811015611dd9578284038952611dc7848351611d50565b98850198935090840190600101611daf565b5091979650505050505050565b6020815260006109ab6020830184611d91565b60008060408385031215611e0c57600080fd5b82359150611e1c60208401611aea565b90509250929050565b600060208284031215611e3757600080fd5b6109ab82611aea565b60008060408385031215611e5357600080fd5b611e5c83611aea565b915060208301356001600160401b03811115611e7757600080fd5b8301601f81018513611e8857600080fd5b611d4685823560208401611b78565b60008060408385031215611eaa57600080fd5b50508035926020909101359150565b803563ffffffff81168114611b0157600080fd5b60008060408385031215611ee057600080fd5b611ee983611aea565b915060208301356001600160401b0380821115611f0557600080fd5b908401906101608287031215611f1a57600080fd5b611f22611a6e565b823582811115611f3157600080fd5b611f3d88828601611bcf565b825250602083013582811115611f5257600080fd5b611f5e88828601611bcf565b602083015250604083013582811115611f7657600080fd5b611f8288828601611bcf565b604083015250606083013582811115611f9a57600080fd5b611fa688828601611bef565b606083015250611fb860808401611eb9565b6080820152611fc960a08401611eb9565b60a0820152611fda60c08401611eb9565b60c0820152611feb60e08401611eb9565b60e08201526101009150612000828401611eb9565b828201526101209150612014828401611eb9565b828201526101409150612028828401611eb9565b828201528093505050509250929050565b60005b8381101561205457818101518382015260200161203c565b50506000910152565b60008151808452612075816020860160208601612039565b601f01601f19169290920160200192915050565b600081518084526020808501808196508360051b8101915082860160005b85811015611dd95782840389526120bf84835161205d565b988501989350908401906001016120a7565b60208152600082516101a08060208501526120f06101c085018361205d565b91506020850151601f198086850301604087015261210e848361205d565b9350604087015191508086850301606087015261212b848361205d565b935060608701519150808685030160808701526121488483612089565b93506080870151915061216360a087018363ffffffff169052565b60a087015163ffffffff811660c0880152915060c087015163ffffffff811660e0880152915060e087015191506101006121a48188018463ffffffff169052565b87015191506101206121bd8782018463ffffffff169052565b87015191506101406121d68782018463ffffffff169052565b87015191506101606121ef8782018463ffffffff169052565b8088015192505061018081878603018188015261220c8584611d50565b9450808801519250505061222a828601826001600160a01b03169052565b5090949350505050565b60008060006060848603121561224957600080fd5b83356001600160401b038082111561226057600080fd5b61226c87838801611b06565b945060209150818601358181111561228357600080fd5b61228f88828901611c6e565b9450506040860135818111156122a457600080fd5b8601601f810188136122b557600080fd5b80356122c3611b2782611ac7565b81815260059190911b8201840190848101908a8311156122e257600080fd5b8584015b83811015612378578035868111156122fe5760008081fd5b8501603f81018d136123105760008081fd5b87810135612320611b2782611ac7565b81815260059190911b820160400190898101908f8311156123415760008081fd5b6040840193505b828410156123685761235984611eb9565b8252928a0192908a0190612348565b86525050509186019186016122e6565b508096505050505050509250925092565b634e487b7160e01b600052603260045260246000fd5b600082516123b1818460208701612039565b9190910192915050565b6020808252602c908201527f46756e6374696f6e206d7573742062652063616c6c6564207468726f7567682060408201526b19195b1959d85d1958d85b1b60a21b606082015260800190565b6020808252602c908201527f46756e6374696f6e206d7573742062652063616c6c6564207468726f7567682060408201526b6163746976652070726f787960a01b606082015260800190565b81516000908290602080860184805b848110156124ba5782518051908501908790845b818110156124a8578351805161248f81868c8501612039565b94890194601f01601f1916939093019250600101612476565b50909750505091830191600101612462565b5093979650505050505050565b815160009082906020808601845b838110156124fa5781516001600160a01b0316855293820193908201906001016124d5565b50929695505050505050565b6040815260006125196040830185611d91565b82810360208401526119ce8185611d91565b60006020828403121561253d57600080fd5b5051919050565b7f416363657373436f6e74726f6c3a206163636f756e742000000000000000000081526000835161257c816017850160208801612039565b7001034b99036b4b9b9b4b733903937b6329607d1b60179184019182015283516125ad816028840160208801612039565b01602801949350505050565b6020815260006109ab602083018461205d565b634e487b7160e01b600052601160045260246000fd5b8082028115828204841417610381576103816125cc565b80820180821115610381576103816125cc565b60008161261b5761261b6125cc565b506000190190565b81810381811115610381576103816125cc565b634e487b7160e01b600052603160045260246000fdfe360894a13ba1a3210667c828492db98dca3e2076cc3735a920a3ca505d382bbc416464726573733a206c6f772d6c6576656c2064656c65676174652063616c6c206661696c6564a26469706673582212205338121a5b2f9178842c53df35449291fa3ef028762b7124b8250995b85305c264736f6c63430008120033",
  "linkReferences": {},
  "deployedLinkReferences": {}
}