{
  "_format": "hh-sol-artifact-1",
  "contractName": "PromptMonsters",
  "sourceName": "contracts/prompt-monsters/PromptMonsters.sol",
  "abi": [
    {
      "inputs": [],
      "stateMutability": "nonpayable",
      "type": "constructor"
    },
    {
      "anonymous": false,
      "inputs": [
        {
          "indexed": false,
          "internalType": "address",
          "name": "previousAdmin",
          "type": "address"
        },
        {
          "indexed": false,
          "internalType": "address",
          "name": "newAdmin",
          "type": "address"
        }
      ],
      "name": "AdminChanged",
      "type": "event"
    },
    {
      "anonymous": false,
      "inputs": [
        {
          "indexed": true,
          "internalType": "address",
          "name": "owner",
          "type": "address"
        },
        {
          "indexed": true,
          "internalType": "address",
          "name": "approved",
          "type": "address"
        },
        {
          "indexed": true,
          "internalType": "uint256",
          "name": "tokenId",
          "type": "uint256"
        }
      ],
      "name": "Approval",
      "type": "event"
    },
    {
      "anonymous": false,
      "inputs": [
        {
          "indexed": true,
          "internalType": "address",
          "name": "owner",
          "type": "address"
        },
        {
          "indexed": true,
          "internalType": "address",
          "name": "operator",
          "type": "address"
        },
        {
          "indexed": false,
          "internalType": "bool",
          "name": "approved",
          "type": "bool"
        }
      ],
      "name": "ApprovalForAll",
      "type": "event"
    },
    {
      "anonymous": false,
      "inputs": [
        {
          "indexed": true,
          "internalType": "address",
          "name": "beacon",
          "type": "address"
        }
      ],
      "name": "BeaconUpgraded",
      "type": "event"
    },
    {
      "anonymous": false,
      "inputs": [
        {
          "indexed": false,
          "internalType": "uint8",
          "name": "version",
          "type": "uint8"
        }
      ],
      "name": "Initialized",
      "type": "event"
    },
    {
      "anonymous": false,
      "inputs": [
        {
          "indexed": true,
          "internalType": "bytes32",
          "name": "role",
          "type": "bytes32"
        },
        {
          "indexed": true,
          "internalType": "bytes32",
          "name": "previousAdminRole",
          "type": "bytes32"
        },
        {
          "indexed": true,
          "internalType": "bytes32",
          "name": "newAdminRole",
          "type": "bytes32"
        }
      ],
      "name": "RoleAdminChanged",
      "type": "event"
    },
    {
      "anonymous": false,
      "inputs": [
        {
          "indexed": true,
          "internalType": "bytes32",
          "name": "role",
          "type": "bytes32"
        },
        {
          "indexed": true,
          "internalType": "address",
          "name": "account",
          "type": "address"
        },
        {
          "indexed": true,
          "internalType": "address",
          "name": "sender",
          "type": "address"
        }
      ],
      "name": "RoleGranted",
      "type": "event"
    },
    {
      "anonymous": false,
      "inputs": [
        {
          "indexed": true,
          "internalType": "bytes32",
          "name": "role",
          "type": "bytes32"
        },
        {
          "indexed": true,
          "internalType": "address",
          "name": "account",
          "type": "address"
        },
        {
          "indexed": true,
          "internalType": "address",
          "name": "sender",
          "type": "address"
        }
      ],
      "name": "RoleRevoked",
      "type": "event"
    },
    {
      "anonymous": false,
      "inputs": [
        {
          "indexed": true,
          "internalType": "address",
          "name": "publisher",
          "type": "address"
        },
        {
          "indexed": false,
          "internalType": "address",
          "name": "oldValue",
          "type": "address"
        },
        {
          "indexed": false,
          "internalType": "address",
          "name": "newValue",
          "type": "address"
        }
      ],
      "name": "SetErc20",
      "type": "event"
    },
    {
      "anonymous": false,
      "inputs": [
        {
          "indexed": true,
          "internalType": "address",
          "name": "publisher",
          "type": "address"
        },
        {
          "indexed": false,
          "internalType": "string",
          "name": "oldValue",
          "type": "string"
        },
        {
          "indexed": false,
          "internalType": "string",
          "name": "newValue",
          "type": "string"
        }
      ],
      "name": "SetExternalLink",
      "type": "event"
    },
    {
      "anonymous": false,
      "inputs": [
        {
          "indexed": true,
          "internalType": "address",
          "name": "publisher",
          "type": "address"
        },
        {
          "indexed": false,
          "internalType": "uint256",
          "name": "oldValue",
          "type": "uint256"
        },
        {
          "indexed": false,
          "internalType": "uint256",
          "name": "newValue",
          "type": "uint256"
        }
      ],
      "name": "SetMintPrice",
      "type": "event"
    },
    {
      "anonymous": false,
      "inputs": [
        {
          "indexed": true,
          "internalType": "address",
          "name": "publisher",
          "type": "address"
        },
        {
          "indexed": false,
          "internalType": "address",
          "name": "oldValue",
          "type": "address"
        },
        {
          "indexed": false,
          "internalType": "address",
          "name": "newValue",
          "type": "address"
        }
      ],
      "name": "SetPromptMonstersWallet",
      "type": "event"
    },
    {
      "anonymous": false,
      "inputs": [
        {
          "indexed": true,
          "internalType": "address",
          "name": "from",
          "type": "address"
        },
        {
          "indexed": true,
          "internalType": "address",
          "name": "to",
          "type": "address"
        },
        {
          "indexed": true,
          "internalType": "uint256",
          "name": "tokenId",
          "type": "uint256"
        }
      ],
      "name": "Transfer",
      "type": "event"
    },
    {
      "anonymous": false,
      "inputs": [
        {
          "indexed": true,
          "internalType": "address",
          "name": "implementation",
          "type": "address"
        }
      ],
      "name": "Upgraded",
      "type": "event"
    },
    {
      "inputs": [],
      "name": "DEFAULT_ADMIN_ROLE",
      "outputs": [
        {
          "internalType": "bytes32",
          "name": "",
          "type": "bytes32"
        }
      ],
      "stateMutability": "view",
      "type": "function"
    },
    {
      "inputs": [
        {
          "internalType": "address",
          "name": "to",
          "type": "address"
        },
        {
          "internalType": "uint256",
          "name": "tokenId",
          "type": "uint256"
        }
      ],
      "name": "approve",
      "outputs": [],
      "stateMutability": "nonpayable",
      "type": "function"
    },
    {
      "inputs": [
        {
          "internalType": "address",
          "name": "owner",
          "type": "address"
        }
      ],
      "name": "balanceOf",
      "outputs": [
        {
          "internalType": "uint256",
          "name": "",
          "type": "uint256"
        }
      ],
      "stateMutability": "view",
      "type": "function"
    },
    {
      "inputs": [
        {
          "internalType": "uint256",
          "name": "tokenId_",
          "type": "uint256"
        }
      ],
      "name": "burn",
      "outputs": [],
      "stateMutability": "nonpayable",
      "type": "function"
    },
    {
      "inputs": [
        {
          "internalType": "uint256",
          "name": "monsterId",
          "type": "uint256"
        }
      ],
      "name": "checkMonsterId",
      "outputs": [],
      "stateMutability": "view",
      "type": "function"
    },
    {
      "inputs": [],
      "name": "contractURI",
      "outputs": [
        {
          "internalType": "string",
          "name": "uri",
          "type": "string"
        }
      ],
      "stateMutability": "view",
      "type": "function"
    },
    {
      "inputs": [],
      "name": "erc20",
      "outputs": [
        {
          "internalType": "contract IERC20",
          "name": "",
          "type": "address"
        }
      ],
      "stateMutability": "view",
      "type": "function"
    },
    {
      "inputs": [
        {
          "internalType": "address",
          "name": "user_",
          "type": "address"
        },
        {
          "components": [
            {
              "internalType": "string",
              "name": "name",
              "type": "string"
            },
            {
              "internalType": "string",
              "name": "flavor",
              "type": "string"
            },
            {
              "internalType": "string[]",
              "name": "skills",
              "type": "string[]"
            },
            {
              "internalType": "uint32",
              "name": "lv",
              "type": "uint32"
            },
            {
              "internalType": "uint32",
              "name": "hp",
              "type": "uint32"
            },
            {
              "internalType": "uint32",
              "name": "atk",
              "type": "uint32"
            },
            {
              "internalType": "uint32",
              "name": "def",
              "type": "uint32"
            },
            {
              "internalType": "uint32",
              "name": "inte",
              "type": "uint32"
            },
            {
              "internalType": "uint32",
              "name": "mgr",
              "type": "uint32"
            },
            {
              "internalType": "uint32",
              "name": "agl",
              "type": "uint32"
            },
            {
              "internalType": "uint16",
              "name": "maxSkills",
              "type": "uint16"
            },
            {
              "internalType": "uint16",
              "name": "maxSkillsSet",
              "type": "uint16"
            }
          ],
          "internalType": "struct IPromptMonsters.Monster",
          "name": "monster_",
          "type": "tuple"
        }
      ],
      "name": "generateMonster",
      "outputs": [],
      "stateMutability": "nonpayable",
      "type": "function"
    },
    {
      "inputs": [
        {
          "internalType": "uint256",
          "name": "tokenId",
          "type": "uint256"
        }
      ],
      "name": "getApproved",
      "outputs": [
        {
          "internalType": "address",
          "name": "",
          "type": "address"
        }
      ],
      "stateMutability": "view",
      "type": "function"
    },
    {
      "inputs": [],
      "name": "getMonsterHistory",
      "outputs": [
        {
          "components": [
            {
              "internalType": "string",
              "name": "name",
              "type": "string"
            },
            {
              "internalType": "string",
              "name": "flavor",
              "type": "string"
            },
            {
              "internalType": "string[]",
              "name": "skills",
              "type": "string[]"
            },
            {
              "internalType": "uint32",
              "name": "lv",
              "type": "uint32"
            },
            {
              "internalType": "uint32",
              "name": "hp",
              "type": "uint32"
            },
            {
              "internalType": "uint32",
              "name": "atk",
              "type": "uint32"
            },
            {
              "internalType": "uint32",
              "name": "def",
              "type": "uint32"
            },
            {
              "internalType": "uint32",
              "name": "inte",
              "type": "uint32"
            },
            {
              "internalType": "uint32",
              "name": "mgr",
              "type": "uint32"
            },
            {
              "internalType": "uint32",
              "name": "agl",
              "type": "uint32"
            },
            {
              "internalType": "uint16",
              "name": "maxSkills",
              "type": "uint16"
            },
            {
              "internalType": "uint16",
              "name": "maxSkillsSet",
              "type": "uint16"
            }
          ],
          "internalType": "struct IPromptMonsters.Monster",
          "name": "monsterHistory",
          "type": "tuple"
        }
      ],
      "stateMutability": "view",
      "type": "function"
    },
    {
      "inputs": [
        {
          "internalType": "uint256[]",
          "name": "tokenIds_",
          "type": "uint256[]"
        }
      ],
      "name": "getMonsters",
      "outputs": [
        {
          "components": [
            {
              "internalType": "string",
              "name": "name",
              "type": "string"
            },
            {
              "internalType": "string",
              "name": "flavor",
              "type": "string"
            },
            {
              "internalType": "string[]",
              "name": "skills",
              "type": "string[]"
            },
            {
              "internalType": "uint32",
              "name": "lv",
              "type": "uint32"
            },
            {
              "internalType": "uint32",
              "name": "hp",
              "type": "uint32"
            },
            {
              "internalType": "uint32",
              "name": "atk",
              "type": "uint32"
            },
            {
              "internalType": "uint32",
              "name": "def",
              "type": "uint32"
            },
            {
              "internalType": "uint32",
              "name": "inte",
              "type": "uint32"
            },
            {
              "internalType": "uint32",
              "name": "mgr",
              "type": "uint32"
            },
            {
              "internalType": "uint32",
              "name": "agl",
              "type": "uint32"
            },
            {
              "internalType": "uint16",
              "name": "maxSkills",
              "type": "uint16"
            },
            {
              "internalType": "uint16",
              "name": "maxSkillsSet",
              "type": "uint16"
            }
          ],
          "internalType": "struct IPromptMonsters.Monster[]",
          "name": "monsters",
          "type": "tuple[]"
        }
      ],
      "stateMutability": "view",
      "type": "function"
    },
    {
      "inputs": [],
      "name": "getMonstersTotalSupply",
      "outputs": [
        {
          "internalType": "uint256",
          "name": "totalSupply",
          "type": "uint256"
        }
      ],
      "stateMutability": "view",
      "type": "function"
    },
    {
      "inputs": [
        {
          "internalType": "address",
          "name": "owner",
          "type": "address"
        }
      ],
      "name": "getOwnerToTokenIds",
      "outputs": [
        {
          "internalType": "uint256[]",
          "name": "tokenIds",
          "type": "uint256[]"
        }
      ],
      "stateMutability": "view",
      "type": "function"
    },
    {
      "inputs": [
        {
          "internalType": "bytes32",
          "name": "role",
          "type": "bytes32"
        }
      ],
      "name": "getRoleAdmin",
      "outputs": [
        {
          "internalType": "bytes32",
          "name": "",
          "type": "bytes32"
        }
      ],
      "stateMutability": "view",
      "type": "function"
    },
    {
      "inputs": [
        {
          "internalType": "bytes32",
          "name": "role",
          "type": "bytes32"
        },
        {
          "internalType": "uint256",
          "name": "index",
          "type": "uint256"
        }
      ],
      "name": "getRoleMember",
      "outputs": [
        {
          "internalType": "address",
          "name": "",
          "type": "address"
        }
      ],
      "stateMutability": "view",
      "type": "function"
    },
    {
      "inputs": [
        {
          "internalType": "bytes32",
          "name": "role",
          "type": "bytes32"
        }
      ],
      "name": "getRoleMemberCount",
      "outputs": [
        {
          "internalType": "uint256",
          "name": "",
          "type": "uint256"
        }
      ],
      "stateMutability": "view",
      "type": "function"
    },
    {
      "inputs": [
        {
          "internalType": "bytes32",
          "name": "role",
          "type": "bytes32"
        },
        {
          "internalType": "address",
          "name": "account",
          "type": "address"
        }
      ],
      "name": "grantRole",
      "outputs": [],
      "stateMutability": "nonpayable",
      "type": "function"
    },
    {
      "inputs": [
        {
          "internalType": "bytes32",
          "name": "role",
          "type": "bytes32"
        },
        {
          "internalType": "address",
          "name": "account",
          "type": "address"
        }
      ],
      "name": "hasRole",
      "outputs": [
        {
          "internalType": "bool",
          "name": "",
          "type": "bool"
        }
      ],
      "stateMutability": "view",
      "type": "function"
    },
    {
      "inputs": [
        {
          "internalType": "string",
          "name": "externalLink_",
          "type": "string"
        },
        {
          "internalType": "address",
          "name": "erc20Address_",
          "type": "address"
        },
        {
          "internalType": "uint256",
          "name": "mintPrice_",
          "type": "uint256"
        },
        {
          "internalType": "address",
          "name": "promptMonstersWallet_",
          "type": "address"
        }
      ],
      "name": "initialize",
      "outputs": [],
      "stateMutability": "nonpayable",
      "type": "function"
    },
    {
      "inputs": [
        {
          "internalType": "address",
          "name": "owner",
          "type": "address"
        },
        {
          "internalType": "address",
          "name": "operator",
          "type": "address"
        }
      ],
      "name": "isApprovedForAll",
      "outputs": [
        {
          "internalType": "bool",
          "name": "",
          "type": "bool"
        }
      ],
      "stateMutability": "view",
      "type": "function"
    },
    {
      "inputs": [],
      "name": "mint",
      "outputs": [],
      "stateMutability": "nonpayable",
      "type": "function"
    },
    {
      "inputs": [],
      "name": "mintPrice",
      "outputs": [
        {
          "internalType": "uint256",
          "name": "",
          "type": "uint256"
        }
      ],
      "stateMutability": "view",
      "type": "function"
    },
    {
      "inputs": [],
      "name": "name",
      "outputs": [
        {
          "internalType": "string",
          "name": "",
          "type": "string"
        }
      ],
      "stateMutability": "view",
      "type": "function"
    },
    {
      "inputs": [
        {
          "internalType": "uint256",
          "name": "tokenId",
          "type": "uint256"
        }
      ],
      "name": "ownerOf",
      "outputs": [
        {
          "internalType": "address",
          "name": "",
          "type": "address"
        }
      ],
      "stateMutability": "view",
      "type": "function"
    },
    {
      "inputs": [],
      "name": "promptMonstersWallet",
      "outputs": [
        {
          "internalType": "address",
          "name": "",
          "type": "address"
        }
      ],
      "stateMutability": "view",
      "type": "function"
    },
    {
      "inputs": [],
      "name": "proxiableUUID",
      "outputs": [
        {
          "internalType": "bytes32",
          "name": "",
          "type": "bytes32"
        }
      ],
      "stateMutability": "view",
      "type": "function"
    },
    {
      "inputs": [
        {
          "internalType": "bytes32",
          "name": "role",
          "type": "bytes32"
        },
        {
          "internalType": "address",
          "name": "account",
          "type": "address"
        }
      ],
      "name": "renounceRole",
      "outputs": [],
      "stateMutability": "nonpayable",
      "type": "function"
    },
    {
      "inputs": [
        {
          "internalType": "bytes32",
          "name": "role",
          "type": "bytes32"
        },
        {
          "internalType": "address",
          "name": "account",
          "type": "address"
        }
      ],
      "name": "revokeRole",
      "outputs": [],
      "stateMutability": "nonpayable",
      "type": "function"
    },
    {
      "inputs": [
        {
          "internalType": "address",
          "name": "from",
          "type": "address"
        },
        {
          "internalType": "address",
          "name": "to",
          "type": "address"
        },
        {
          "internalType": "uint256",
          "name": "tokenId",
          "type": "uint256"
        }
      ],
      "name": "safeTransferFrom",
      "outputs": [],
      "stateMutability": "nonpayable",
      "type": "function"
    },
    {
      "inputs": [
        {
          "internalType": "address",
          "name": "from",
          "type": "address"
        },
        {
          "internalType": "address",
          "name": "to",
          "type": "address"
        },
        {
          "internalType": "uint256",
          "name": "tokenId",
          "type": "uint256"
        },
        {
          "internalType": "bytes",
          "name": "data",
          "type": "bytes"
        }
      ],
      "name": "safeTransferFrom",
      "outputs": [],
      "stateMutability": "nonpayable",
      "type": "function"
    },
    {
      "inputs": [
        {
          "internalType": "address",
          "name": "operator",
          "type": "address"
        },
        {
          "internalType": "bool",
          "name": "approved",
          "type": "bool"
        }
      ],
      "name": "setApprovalForAll",
      "outputs": [],
      "stateMutability": "nonpayable",
      "type": "function"
    },
    {
      "inputs": [
        {
          "internalType": "address",
          "name": "newState_",
          "type": "address"
        }
      ],
      "name": "setErc20",
      "outputs": [],
      "stateMutability": "nonpayable",
      "type": "function"
    },
    {
      "inputs": [
        {
          "internalType": "string",
          "name": "newState_",
          "type": "string"
        }
      ],
      "name": "setExternalLink",
      "outputs": [],
      "stateMutability": "nonpayable",
      "type": "function"
    },
    {
      "inputs": [
        {
          "internalType": "uint256",
          "name": "newState_",
          "type": "uint256"
        }
      ],
      "name": "setMintPrice",
      "outputs": [],
      "stateMutability": "nonpayable",
      "type": "function"
    },
    {
      "inputs": [
        {
          "internalType": "address",
          "name": "newState_",
          "type": "address"
        }
      ],
      "name": "setPromptMonstersWallet",
      "outputs": [],
      "stateMutability": "nonpayable",
      "type": "function"
    },
    {
      "inputs": [
        {
          "internalType": "bytes4",
          "name": "interfaceId",
          "type": "bytes4"
        }
      ],
      "name": "supportsInterface",
      "outputs": [
        {
          "internalType": "bool",
          "name": "",
          "type": "bool"
        }
      ],
      "stateMutability": "view",
      "type": "function"
    },
    {
      "inputs": [],
      "name": "symbol",
      "outputs": [
        {
          "internalType": "string",
          "name": "",
          "type": "string"
        }
      ],
      "stateMutability": "view",
      "type": "function"
    },
    {
      "inputs": [
        {
          "internalType": "uint256",
          "name": "tokenId_",
          "type": "uint256"
        }
      ],
      "name": "tokenURI",
      "outputs": [
        {
          "internalType": "string",
          "name": "uri",
          "type": "string"
        }
      ],
      "stateMutability": "view",
      "type": "function"
    },
    {
      "inputs": [
        {
          "internalType": "address",
          "name": "from",
          "type": "address"
        },
        {
          "internalType": "address",
          "name": "to",
          "type": "address"
        },
        {
          "internalType": "uint256",
          "name": "tokenId",
          "type": "uint256"
        }
      ],
      "name": "transferFrom",
      "outputs": [],
      "stateMutability": "nonpayable",
      "type": "function"
    },
    {
      "inputs": [
        {
          "internalType": "address",
          "name": "newImplementation",
          "type": "address"
        }
      ],
      "name": "upgradeTo",
      "outputs": [],
      "stateMutability": "nonpayable",
      "type": "function"
    },
    {
      "inputs": [
        {
          "internalType": "address",
          "name": "newImplementation",
          "type": "address"
        },
        {
          "internalType": "bytes",
          "name": "data",
          "type": "bytes"
        }
      ],
      "name": "upgradeToAndCall",
      "outputs": [],
      "stateMutability": "payable",
      "type": "function"
    }
  ],
  "bytecode": "0x60a0604052306080523480156200001557600080fd5b506200002062000026565b620000e8565b600054610100900460ff1615620000935760405162461bcd60e51b815260206004820152602760248201527f496e697469616c697a61626c653a20636f6e747261637420697320696e697469604482015266616c697a696e6760c81b606482015260840160405180910390fd5b60005460ff9081161015620000e6576000805460ff191660ff9081179091556040519081527f7f26b83ff96e1f2b6a682f133852f6798a09c465da95921460cefb38474024989060200160405180910390a15b565b608051615a906200012060003960008181611173015281816111b301528181611295015281816112d501526113640152615a906000f3fe6080604052600436106102465760003560e01c80636817c76c11610139578063b2664c2e116100b6578063e4bab3f51161007a578063e4bab3f5146106cc578063e8a3d485146106ec578063e985e9c514610701578063ee9b80a41461074a578063ef134f761461076a578063f4a0a5281461078a57600080fd5b8063b2664c2e1461061f578063b88d4fde1461064c578063c87b56dd1461066c578063ca15c8731461068c578063d547741f146106ac57600080fd5b80639010d07c116100fd5780639010d07c1461059557806391d14854146105b557806395d89b41146105d5578063a217fddf146105ea578063a22cb465146105ff57600080fd5b80636817c76c146104fb57806370a0823114610512578063785e9e861461053257806383186465146105535780638322a2a61461057357600080fd5b80632f2ff15d116101c75780634f1ef2861161018b5780634f1ef2861461047d57806352d1902d1461049057806352dd29d2146104a557806355b09456146104bb5780636352211e146104db57600080fd5b80632f2ff15d146103dd57806336568abe146103fd5780633659cfe61461041d57806342842e0e1461043d57806342966c681461045d57600080fd5b80631249c58b1161020e5780631249c58b14610329578063145f0fa91461033e5780631f9179211461035f57806323b872dd1461037f578063248a9ca31461039f57600080fd5b806301ffc9a71461024b57806306fdde0314610280578063081812fc146102a2578063095ea7b3146102da5780630fd7efc4146102fc575b600080fd5b34801561025757600080fd5b5061026b6102663660046143a1565b6107aa565b60405190151581526020015b60405180910390f35b34801561028c57600080fd5b506102956107bb565b604051610277919061440e565b3480156102ae57600080fd5b506102c26102bd366004614421565b61084d565b6040516001600160a01b039091168152602001610277565b3480156102e657600080fd5b506102fa6102f5366004614456565b610874565b005b34801561030857600080fd5b5061031c610317366004614480565b61098e565b604051610277919061449b565b34801561033557600080fd5b506102fa6109fb565b34801561034a57600080fd5b50610192546102c2906001600160a01b031681565b34801561036b57600080fd5b506102fa61037a3660046145bd565b610fa5565b34801561038b57600080fd5b506102fa61039a3660046145f1565b611099565b3480156103ab57600080fd5b506103cf6103ba366004614421565b60009081526097602052604090206001015490565b604051908152602001610277565b3480156103e957600080fd5b506102fa6103f836600461462d565b6110ca565b34801561040957600080fd5b506102fa61041836600461462d565b6110ef565b34801561042957600080fd5b506102fa610438366004614480565b611169565b34801561044957600080fd5b506102fa6104583660046145f1565b611248565b34801561046957600080fd5b506102fa610478366004614421565b611263565b6102fa61048b366004614659565b61128b565b34801561049c57600080fd5b506103cf611357565b3480156104b157600080fd5b50610198546103cf565b3480156104c757600080fd5b506102fa6104d63660046146a6565b61140a565b3480156104e757600080fd5b506102c26104f6366004614421565b6115cc565b34801561050757600080fd5b506103cf6101935481565b34801561051e57600080fd5b506103cf61052d366004614480565b61162c565b34801561053e57600080fd5b50610191546102c2906001600160a01b031681565b34801561055f57600080fd5b506102fa61056e366004614421565b6116b2565b34801561057f57600080fd5b50610588611725565b6040516102779190614873565b3480156105a157600080fd5b506102c26105b0366004614886565b6119d2565b3480156105c157600080fd5b5061026b6105d036600461462d565b6119f1565b3480156105e157600080fd5b50610295611a1c565b3480156105f657600080fd5b506103cf600081565b34801561060b57600080fd5b506102fa61061a3660046148b6565b611a2b565b34801561062b57600080fd5b5061063f61063a366004614910565b611a36565b604051610277919061499a565b34801561065857600080fd5b506102fa6106673660046149fc565b611dfc565b34801561067857600080fd5b50610295610687366004614421565b611e34565b34801561069857600080fd5b506103cf6106a7366004614421565b61217b565b3480156106b857600080fd5b506102fa6106c736600461462d565b612192565b3480156106d857600080fd5b506102fa6106e7366004614480565b6121b7565b3480156106f857600080fd5b5061029561222f565b34801561070d57600080fd5b5061026b61071c366004614a63565b6001600160a01b039182166000908152606a6020908152604080832093909416825291909152205460ff1690565b34801561075657600080fd5b506102fa610765366004614480565b6122b5565b34801561077657600080fd5b506102fa610785366004614b3d565b61232d565b34801561079657600080fd5b506102fa6107a5366004614421565b6124bf565b60006107b58261250b565b92915050565b6060606580546107ca90614caa565b80601f01602080910402602001604051908101604052809291908181526020018280546107f690614caa565b80156108435780601f1061081857610100808354040283529160200191610843565b820191906000526020600020905b81548152906001019060200180831161082657829003601f168201915b5050505050905090565b600061085882612530565b506000908152606960205260409020546001600160a01b031690565b600061087f826115cc565b9050806001600160a01b0316836001600160a01b0316036108f15760405162461bcd60e51b815260206004820152602160248201527f4552433732313a20617070726f76616c20746f2063757272656e74206f776e656044820152603960f91b60648201526084015b60405180910390fd5b336001600160a01b038216148061090d575061090d813361071c565b61097f5760405162461bcd60e51b815260206004820152603d60248201527f4552433732313a20617070726f76652063616c6c6572206973206e6f7420746f60448201527f6b656e206f776e6572206f7220617070726f76656420666f7220616c6c00000060648201526084016108e8565b610989838361258f565b505050565b6001600160a01b038116600090815261019760209081526040918290208054835181840281018401909452808452606093928301828280156109ef57602002820191906000526020600020905b8154815260200190600101908083116109db575b50505050509050919050565b61019354610191546040516370a0823160e01b81523360048201526001600160a01b03909116906370a0823190602401602060405180830381865afa158015610a48573d6000803e3d6000fd5b505050506040513d601f19601f82011682018060405250810190610a6c9190614ce4565b1015610ad05760405162461bcd60e51b815260206004820152602d60248201527f50726f6d70744d6f6e73746572733a20696e73756666696369656e74204d434860448201526c20436f696e2062616c616e636560981b60648201526084016108e8565b336000908152610196602052604080822081516101808101909252805482908290610afa90614caa565b80601f0160208091040260200160405190810160405280929190818152602001828054610b2690614caa565b8015610b735780601f10610b4857610100808354040283529160200191610b73565b820191906000526020600020905b815481529060010190602001808311610b5657829003601f168201915b50505050508152602001600182018054610b8c90614caa565b80601f0160208091040260200160405190810160405280929190818152602001828054610bb890614caa565b8015610c055780601f10610bda57610100808354040283529160200191610c05565b820191906000526020600020905b815481529060010190602001808311610be857829003601f168201915b5050505050815260200160028201805480602002602001604051908101604052809291908181526020016000905b82821015610cdf578382906000526020600020018054610c5290614caa565b80601f0160208091040260200160405190810160405280929190818152602001828054610c7e90614caa565b8015610ccb5780601f10610ca057610100808354040283529160200191610ccb565b820191906000526020600020905b815481529060010190602001808311610cae57829003601f168201915b505050505081526020019060010190610c33565b505050908252506003919091015463ffffffff8082166020840152600160201b820481166040840152600160401b82048116606080850191909152600160601b830482166080850152600160801b8304821660a0850152600160a01b8304821660c0850152600160c01b8304821660e085015261ffff600160e01b84048116610100860152600160f01b9093049092166101209093019290925282015191925016610ddd5760405162461bcd60e51b815260206004820152602860248201527f50726f6d70744d6f6e73746572733a206d6f6e73746572206973206e6f742067604482015267195b995c985d195960c21b60648201526084016108e8565b610198805460018101825560009190915281518290600483027f3f539f465397ab387efa93a617e37005205c037386b5b474fcfac82f47f77f0d01908190610e259082614d4b565b5060208201516001820190610e3a9082614d4b565b5060408201518051610e56916002840191602090910190614269565b5060608201516003919091018054608084015160a085015160c086015160e08701516101008801516101208901516101408a0151610160909a015163ffffffff998a1667ffffffffffffffff1990981697909717600160201b968a16969096029590951767ffffffffffffffff60401b1916600160401b9489169490940263ffffffff60601b191693909317600160601b928816929092029190911767ffffffffffffffff60801b1916600160801b9187169190910263ffffffff60a01b191617600160a01b918616919091021765ffffffffffff60c01b1916600160c01b9185169190910261ffff60e01b191617600160e01b61ffff95861602176001600160f01b0316600160f01b949091169390930292909217909155610192546101935461019154610f97936001600160a01b03918216933393921691906125fd16565b610fa13382612657565b5050565b6000610fb081612671565b60006101948054610fc090614caa565b80601f0160208091040260200160405190810160405280929190818152602001828054610fec90614caa565b80156110395780601f1061100e57610100808354040283529160200191611039565b820191906000526020600020905b81548152906001019060200180831161101c57829003601f168201915b505050505090508261019490816110509190614d4b565b50336001600160a01b03167ffceab947acbd3281d41fa085ba6d9503467fabd9e3d96e3ee0dbf6f8b04a9ca4828560405161108c929190614e0a565b60405180910390a2505050565b6110a3338261267b565b6110bf5760405162461bcd60e51b81526004016108e890614e2f565b6109898383836126fa565b6000828152609760205260409020600101546110e581612671565b610989838361286b565b6001600160a01b038116331461115f5760405162461bcd60e51b815260206004820152602f60248201527f416363657373436f6e74726f6c3a2063616e206f6e6c792072656e6f756e636560448201526e103937b632b9903337b91039b2b63360891b60648201526084016108e8565b610fa1828261288d565b6001600160a01b037f00000000000000000000000000000000000000000000000000000000000000001630036111b15760405162461bcd60e51b81526004016108e890614e7c565b7f00000000000000000000000000000000000000000000000000000000000000006001600160a01b03166111fa6000805160206159d4833981519152546001600160a01b031690565b6001600160a01b0316146112205760405162461bcd60e51b81526004016108e890614ec8565b611229816128af565b60408051600080825260208201909252611245918391906128ba565b50565b61098983838360405180602001604052806000815250611dfc565b61126b612a25565b6112803361127a6000806119d2565b83611248565b611245600161015f55565b6001600160a01b037f00000000000000000000000000000000000000000000000000000000000000001630036112d35760405162461bcd60e51b81526004016108e890614e7c565b7f00000000000000000000000000000000000000000000000000000000000000006001600160a01b031661131c6000805160206159d4833981519152546001600160a01b031690565b6001600160a01b0316146113425760405162461bcd60e51b81526004016108e890614ec8565b61134b826128af565b610fa1828260016128ba565b6000306001600160a01b037f000000000000000000000000000000000000000000000000000000000000000016146113f75760405162461bcd60e51b815260206004820152603860248201527f555550535570677261646561626c653a206d757374206e6f742062652063616c60448201527f6c6564207468726f7567682064656c656761746563616c6c000000000000000060648201526084016108e8565b506000805160206159d483398151915290565b600054610100900460ff161580801561142a5750600054600160ff909116105b806114445750303b158015611444575060005460ff166001145b6114a75760405162461bcd60e51b815260206004820152602e60248201527f496e697469616c697a61626c653a20636f6e747261637420697320616c72656160448201526d191e481a5b9a5d1a585b1a5e995960921b60648201526084016108e8565b6000805460ff1916600117905580156114ca576000805461ff0019166101001790555b6115166040518060400160405280600f81526020016e50726f6d7074204d6f6e737465727360881b8152506040518060400160405280600381526020016226a7a760e91b815250612a88565b61151e612ab9565b611526612ab9565b61152e612ae2565b61153960003361286b565b6101946115468682614d4b565b5061019180546001600160a01b038087166001600160a01b03199283161790925561019385905561019280549285169290911691909117905580156115c5576000805461ff0019169055604051600181527f7f26b83ff96e1f2b6a682f133852f6798a09c465da95921460cefb38474024989060200160405180910390a15b5050505050565b6000818152606760205260408120546001600160a01b0316806107b55760405162461bcd60e51b8152602060048201526018602482015277115490cdcc8c4e881a5b9d985b1a59081d1bdad95b88125160421b60448201526064016108e8565b60006001600160a01b0382166116965760405162461bcd60e51b815260206004820152602960248201527f4552433732313a2061646472657373207a65726f206973206e6f7420612076616044820152683634b21037bbb732b960b91b60648201526084016108e8565b506001600160a01b031660009081526068602052604090205490565b6000818152606760205260409020546001600160a01b03166112455760405162461bcd60e51b815260206004820152602660248201527f50726f6d70744d6f6e73746572733a206d6f6e7374657220646f6573206e6f7460448201526508195e1a5cdd60d21b60648201526084016108e8565b61172d6142bf565b3360009081526101966020526040908190208151610180810190925280548290829061175890614caa565b80601f016020809104026020016040519081016040528092919081815260200182805461178490614caa565b80156117d15780601f106117a6576101008083540402835291602001916117d1565b820191906000526020600020905b8154815290600101906020018083116117b457829003601f168201915b505050505081526020016001820180546117ea90614caa565b80601f016020809104026020016040519081016040528092919081815260200182805461181690614caa565b80156118635780601f1061183857610100808354040283529160200191611863565b820191906000526020600020905b81548152906001019060200180831161184657829003601f168201915b5050505050815260200160028201805480602002602001604051908101604052809291908181526020016000905b8282101561193d5783829060005260206000200180546118b090614caa565b80601f01602080910402602001604051908101604052809291908181526020018280546118dc90614caa565b80156119295780601f106118fe57610100808354040283529160200191611929565b820191906000526020600020905b81548152906001019060200180831161190c57829003601f168201915b505050505081526020019060010190611891565b505050908252506003919091015463ffffffff8082166020840152600160201b820481166040840152600160401b820481166060840152600160601b820481166080840152600160801b8204811660a0840152600160a01b8204811660c0840152600160c01b82041660e083015261ffff600160e01b82048116610100840152600160f01b9091041661012090910152919050565b600082815260c9602052604081206119ea9083612b11565b9392505050565b60009182526097602090815260408084206001600160a01b0393909316845291905290205460ff1690565b6060606680546107ca90614caa565b610fa1338383612b1d565b80516101985460609190811115611aa35760405162461bcd60e51b815260206004820152602b60248201527f50726f6d70744d6f6e73746572733a20746f6b656e4964734c656e677468206960448201526a7320746f6f206c6172676560a81b60648201526084016108e8565b806001600160401b03811115611abb57611abb6144df565b604051908082528060200260200182016040528015611af457816020015b611ae16142bf565b815260200190600190039081611ad95790505b50915060005b81811015611df557610198848281518110611b1757611b17614f14565b602002602001015181548110611b2f57611b2f614f14565b906000526020600020906004020160405180610180016040529081600082018054611b5990614caa565b80601f0160208091040260200160405190810160405280929190818152602001828054611b8590614caa565b8015611bd25780601f10611ba757610100808354040283529160200191611bd2565b820191906000526020600020905b815481529060010190602001808311611bb557829003601f168201915b50505050508152602001600182018054611beb90614caa565b80601f0160208091040260200160405190810160405280929190818152602001828054611c1790614caa565b8015611c645780601f10611c3957610100808354040283529160200191611c64565b820191906000526020600020905b815481529060010190602001808311611c4757829003601f168201915b5050505050815260200160028201805480602002602001604051908101604052809291908181526020016000905b82821015611d3e578382906000526020600020018054611cb190614caa565b80601f0160208091040260200160405190810160405280929190818152602001828054611cdd90614caa565b8015611d2a5780601f10611cff57610100808354040283529160200191611d2a565b820191906000526020600020905b815481529060010190602001808311611d0d57829003601f168201915b505050505081526020019060010190611c92565b505050908252506003919091015463ffffffff8082166020840152600160201b820481166040840152600160401b820481166060840152600160601b820481166080840152600160801b8204811660a0840152600160a01b8204811660c0840152600160c01b82041660e083015261ffff600160e01b82048116610100840152600160f01b90910416610120909101528351849083908110611de257611de2614f14565b6020908102919091010152600101611afa565b5050919050565b611e06338361267b565b611e225760405162461bcd60e51b81526004016108e890614e2f565b611e2e84848484612beb565b50505050565b6060611e3f82612530565b6000611e4a83612c1e565b905060006101988481548110611e6257611e62614f14565b906000526020600020906004020160405180610180016040529081600082018054611e8c90614caa565b80601f0160208091040260200160405190810160405280929190818152602001828054611eb890614caa565b8015611f055780601f10611eda57610100808354040283529160200191611f05565b820191906000526020600020905b815481529060010190602001808311611ee857829003601f168201915b50505050508152602001600182018054611f1e90614caa565b80601f0160208091040260200160405190810160405280929190818152602001828054611f4a90614caa565b8015611f975780601f10611f6c57610100808354040283529160200191611f97565b820191906000526020600020905b815481529060010190602001808311611f7a57829003601f168201915b5050505050815260200160028201805480602002602001604051908101604052809291908181526020016000905b82821015612071578382906000526020600020018054611fe490614caa565b80601f016020809104026020016040519081016040528092919081815260200182805461201090614caa565b801561205d5780601f106120325761010080835404028352916020019161205d565b820191906000526020600020905b81548152906001019060200180831161204057829003601f168201915b505050505081526020019060010190611fc5565b505050908252506003919091015463ffffffff808216602080850191909152600160201b830482166040850152600160401b830482166060850152600160601b830482166080850152600160801b8304821660a0850152600160a01b8304821660c0850152600160c01b830490911660e084015261ffff600160e01b83048116610100850152600160f01b9092049091166101209092019190915281519082015191925060009161214c919061212686613136565b60405160200161213893929190614f46565b604051602081830303815290604052613136565b90506000816040516020016121619190615009565b60408051601f198184030181529190529695505050505050565b600081815260c9602052604081206107b590613288565b6000828152609760205260409020600101546121ad81612671565b610989838361288d565b60006121c281612671565b61019280546001600160a01b038481166001600160a01b0319831617909255166121e93390565b604080516001600160a01b038481168252868116602083015292909216917fc791f304f706b4012579cd651a8a0d930c30d117f42ee74327000e3fc75bfbbc910161108c565b6060600061223b6107bb565b9050600081604051602001612250919061504e565b60405160208183030381529060405290506000612287838461227185613136565b61019460405160200161213894939291906151fb565b905060008160405160200161229c9190615009565b60408051601f1981840301815291905295945050505050565b60006122c081612671565b61019180546001600160a01b038481166001600160a01b0319831617909255166122e73390565b604080516001600160a01b038481168252868116602083015292909216917f5ebe54482b2a8120482902e3bfe9ca1a913e9987bcb1f18c974dae585132a954910161108c565b600061233881612671565b612340612a25565b6001600160a01b0383166000908152610196602052604090208251839190819061236a9082614d4b565b506020820151600182019061237f9082614d4b565b506040820151805161239b916002840191602090910190614269565b5060608201516003919091018054608084015160a085015160c086015160e08701516101008801516101208901516101408a0151610160909a015163ffffffff998a1667ffffffffffffffff1990981697909717600160201b968a16969096029590951767ffffffffffffffff60401b1916600160401b9489169490940263ffffffff60601b191693909317600160601b928816929092029190911767ffffffffffffffff60801b1916600160801b9187169190910263ffffffff60a01b191617600160a01b918616919091021765ffffffffffff60c01b1916600160c01b949091169390930261ffff60e01b191692909217600160e01b61ffff94851602176001600160f01b0316600160f01b9390921692909202179055600161015f55505050565b60006124ca81612671565b610193805490839055604080518281526020810185905233917f55cc83342b4c144a74960fdf0dfe1a7af4cbb77aaccb471b088d5fe0bdad1d4c910161108c565b60006001600160e01b03198216635a05180f60e01b14806107b557506107b582613292565b6000818152606760205260409020546001600160a01b03166112455760405162461bcd60e51b8152602060048201526018602482015277115490cdcc8c4e881a5b9d985b1a59081d1bdad95b88125160421b60448201526064016108e8565b600081815260696020526040902080546001600160a01b0319166001600160a01b03841690811790915581906125c4826115cc565b6001600160a01b03167f8c5be1e5ebec7d5bd14f71427d1e84f3dd0314c0f7b2291e5b200ac8c7c3b92560405160405180910390a45050565b604080516001600160a01b0385811660248301528416604482015260648082018490528251808303909101815260849091019091526020810180516001600160e01b03166323b872dd60e01b179052611e2e9085906132b7565b610fa1828260405180602001604052806000815250613389565b61124581336133bc565b600080612687836115cc565b9050806001600160a01b0316846001600160a01b031614806126ce57506001600160a01b038082166000908152606a602090815260408083209388168352929052205460ff165b806126f25750836001600160a01b03166126e78461084d565b6001600160a01b0316145b949350505050565b826001600160a01b031661270d826115cc565b6001600160a01b0316146127335760405162461bcd60e51b81526004016108e890615368565b6001600160a01b0382166127955760405162461bcd60e51b8152602060048201526024808201527f4552433732313a207472616e7366657220746f20746865207a65726f206164646044820152637265737360e01b60648201526084016108e8565b6127a28383836001613415565b826001600160a01b03166127b5826115cc565b6001600160a01b0316146127db5760405162461bcd60e51b81526004016108e890615368565b600081815260696020908152604080832080546001600160a01b03199081169091556001600160a01b0387811680865260688552838620805460001901905590871680865283862080546001019055868652606790945282852080549092168417909155905184937fddf252ad1be2c89b69c2b068fc378daa952ba7f163c4a11628f55a4df523b3ef91a4505050565b612875828261345e565b600082815260c96020526040902061098990826134e4565b61289782826134f9565b600082815260c9602052604090206109899082613560565b6000610fa181612671565b7f4910fdfa16fed3260ed0e7147f7cc6da11a60208b5b9406d12a635614ffd91435460ff16156128ed5761098983613575565b826001600160a01b03166352d1902d6040518163ffffffff1660e01b8152600401602060405180830381865afa925050508015612947575060408051601f3d908101601f1916820190925261294491810190614ce4565b60015b6129aa5760405162461bcd60e51b815260206004820152602e60248201527f45524331393637557067726164653a206e657720696d706c656d656e7461746960448201526d6f6e206973206e6f74205555505360901b60648201526084016108e8565b6000805160206159d48339815191528114612a195760405162461bcd60e51b815260206004820152602960248201527f45524331393637557067726164653a20756e737570706f727465642070726f786044820152681a58589b195555525160ba1b60648201526084016108e8565b50610989838383613611565b600261015f5403612a785760405162461bcd60e51b815260206004820152601f60248201527f5265656e7472616e637947756172643a207265656e7472616e742063616c6c0060448201526064016108e8565b600261015f55565b600161015f55565b600054610100900460ff16612aaf5760405162461bcd60e51b81526004016108e8906153ad565b610fa18282613636565b600054610100900460ff16612ae05760405162461bcd60e51b81526004016108e8906153ad565b565b600054610100900460ff16612b095760405162461bcd60e51b81526004016108e8906153ad565b612ae0613676565b60006119ea838361369d565b816001600160a01b0316836001600160a01b031603612b7e5760405162461bcd60e51b815260206004820152601960248201527f4552433732313a20617070726f766520746f2063616c6c65720000000000000060448201526064016108e8565b6001600160a01b038381166000818152606a6020908152604080832094871680845294825291829020805460ff191686151590811790915591519182527f17307eab39ab6107e8899845ad3d59bd9653f200f220920489ca2b5937696c31910160405180910390a3505050565b612bf68484846126fa565b612c02848484846136c7565b611e2e5760405162461bcd60e51b81526004016108e8906153f8565b606060006101988381548110612c3657612c36614f14565b906000526020600020906004020160405180610180016040529081600082018054612c6090614caa565b80601f0160208091040260200160405190810160405280929190818152602001828054612c8c90614caa565b8015612cd95780601f10612cae57610100808354040283529160200191612cd9565b820191906000526020600020905b815481529060010190602001808311612cbc57829003601f168201915b50505050508152602001600182018054612cf290614caa565b80601f0160208091040260200160405190810160405280929190818152602001828054612d1e90614caa565b8015612d6b5780601f10612d4057610100808354040283529160200191612d6b565b820191906000526020600020905b815481529060010190602001808311612d4e57829003601f168201915b5050505050815260200160028201805480602002602001604051908101604052809291908181526020016000905b82821015612e45578382906000526020600020018054612db890614caa565b80601f0160208091040260200160405190810160405280929190818152602001828054612de490614caa565b8015612e315780601f10612e0657610100808354040283529160200191612e31565b820191906000526020600020905b815481529060010190602001808311612e1457829003601f168201915b505050505081526020019060010190612d99565b505050908252506003919091015463ffffffff8082166020840152600160201b820481166040840152600160401b820481166060840152600160601b820481166080840152600160801b8204811660a0840152600160a01b8204811660c0840152600160c01b82041660e083015261ffff600160e01b82048116610100840152600160f01b90910416610120909101528051909150612ee990600a906014906137c8565b612f27600a603c612f03856060015163ffffffff16613807565b604051602001612f13919061544a565b6040516020818303038152906040526137c8565b612f51600a6064612f41866080015163ffffffff16613807565b604051602001612f139190615476565b612f7b600a6078612f6b8760a0015163ffffffff16613807565b604051602001612f139190615495565b612fa5600a608c612f958860c0015163ffffffff16613807565b604051602001612f1391906154c2565b612fcf600a60a0612fbf8960e0015163ffffffff16613807565b604051602001612f1391906154e2565b612ffa600a60b4612fea8a610100015163ffffffff16613807565b604051602001612f139190615502565b613025600a60c86130158b610120015163ffffffff16613807565b604051602001612f139190615522565b60405160200161303c989796959493929190615542565b60408051601f19818403018152919052915060f060005b82604001515181101561310c5761016083015161ffff166130758260016156e4565b1161310c57836130d7600a61308b8460146156f7565b61309590866156e4565b6130a86130a38660016156e4565b613807565b876040015186815181106130be576130be614f14565b6020026020010151604051602001612f1392919061570e565b6040516020016130e892919061575c565b604051602081830303815290604052935080806131049061578b565b915050613053565b508260405160200161311e91906157a4565b60405160208183030381529060405292505050919050565b6060815160000361315557505060408051602081019091526000815290565b60006040518060600160405280604081526020016159f4604091399050600060038451600261318491906156e4565b61318e91906157ce565b6131999060046156f7565b6001600160401b038111156131b0576131b06144df565b6040519080825280601f01601f1916602001820160405280156131da576020820181803683370190505b509050600182016020820185865187015b80821015613246576003820191508151603f8160121c168501518453600184019350603f81600c1c168501518453600184019350603f8160061c168501518453600184019350603f81168501518453506001830192506131eb565b505060038651066001811461326257600281146132755761327d565b603d6001830353603d600283035361327d565b603d60018303535b509195945050505050565b60006107b5825490565b60006001600160e01b03198216637965db0b60e01b14806107b557506107b582613899565b600061330c826040518060400160405280602081526020017f5361666545524332303a206c6f772d6c6576656c2063616c6c206661696c6564815250856001600160a01b03166138e99092919063ffffffff16565b805190915015610989578080602001905181019061332a91906157f0565b6109895760405162461bcd60e51b815260206004820152602a60248201527f5361666545524332303a204552433230206f7065726174696f6e20646964206e6044820152691bdd081cdd58d8d9595960b21b60648201526084016108e8565b61339383836138f8565b6133a060008484846136c7565b6109895760405162461bcd60e51b81526004016108e8906153f8565b6133c682826119f1565b610fa1576133d381613a91565b6133de836020613aa3565b6040516020016133ef92919061580d565b60408051601f198184030181529082905262461bcd60e51b82526108e89160040161440e565b6001600160a01b0384166134325761342d8383613c3e565b611e2e565b6001600160a01b03831661344a5761342d8483613c83565b6134548483613c83565b61342d8383613c3e565b61346882826119f1565b610fa15760008281526097602090815260408083206001600160a01b03851684529091529020805460ff191660011790556134a03390565b6001600160a01b0316816001600160a01b0316837f2f8788117e7eff1d82e926ec794901d17c78024a50270940304540a733656f0d60405160405180910390a45050565b60006119ea836001600160a01b038416613d88565b61350382826119f1565b15610fa15760008281526097602090815260408083206001600160a01b0385168085529252808320805460ff1916905551339285917ff6391f5c32d9c69d2a47ea670b442974b53935d1edc7fd64eb21e047a839171b9190a45050565b60006119ea836001600160a01b038416613dd7565b6001600160a01b0381163b6135e25760405162461bcd60e51b815260206004820152602d60248201527f455243313936373a206e657720696d706c656d656e746174696f6e206973206e60448201526c1bdd08184818dbdb9d1c9858dd609a1b60648201526084016108e8565b6000805160206159d483398151915280546001600160a01b0319166001600160a01b0392909216919091179055565b61361a83613eca565b6000825111806136275750805b1561098957611e2e8383613f0a565b600054610100900460ff1661365d5760405162461bcd60e51b81526004016108e8906153ad565b60656136698382614d4b565b5060666109898282614d4b565b600054610100900460ff16612a805760405162461bcd60e51b81526004016108e8906153ad565b60008260000182815481106136b4576136b4614f14565b9060005260206000200154905092915050565b60006001600160a01b0384163b156137bd57604051630a85bd0160e11b81526001600160a01b0385169063150b7a029061370b903390899088908890600401615882565b6020604051808303816000875af1925050508015613746575060408051601f3d908101601f19168201909252613743918101906158bf565b60015b6137a3573d808015613774576040519150601f19603f3d011682016040523d82523d6000602084013e613779565b606091505b50805160000361379b5760405162461bcd60e51b81526004016108e8906153f8565b805181602001fd5b6001600160e01b031916630a85bd0160e11b1490506126f2565b506001949350505050565b60606137d384613807565b6137dc84613807565b836040516020016137ef939291906158dc565b60405160208183030381529060405290509392505050565b6060600061381483613ffe565b60010190506000816001600160401b03811115613833576138336144df565b6040519080825280601f01601f19166020018201604052801561385d576020820181803683370190505b5090508181016020015b600019016f181899199a1a9b1b9c1cb0b131b232b360811b600a86061a8153600a850494508461386757509392505050565b60006001600160e01b031982166380ac58cd60e01b14806138ca57506001600160e01b03198216635b5e139f60e01b145b806107b557506301ffc9a760e01b6001600160e01b03198316146107b5565b60606126f284846000856140d6565b6001600160a01b03821661394e5760405162461bcd60e51b815260206004820181905260248201527f4552433732313a206d696e7420746f20746865207a65726f206164647265737360448201526064016108e8565b6000818152606760205260409020546001600160a01b0316156139b35760405162461bcd60e51b815260206004820152601c60248201527f4552433732313a20746f6b656e20616c7265616479206d696e7465640000000060448201526064016108e8565b6139c1600083836001613415565b6000818152606760205260409020546001600160a01b031615613a265760405162461bcd60e51b815260206004820152601c60248201527f4552433732313a20746f6b656e20616c7265616479206d696e7465640000000060448201526064016108e8565b6001600160a01b038216600081815260686020908152604080832080546001019055848352606790915280822080546001600160a01b0319168417905551839291907fddf252ad1be2c89b69c2b068fc378daa952ba7f163c4a11628f55a4df523b3ef908290a45050565b60606107b56001600160a01b03831660145b60606000613ab28360026156f7565b613abd9060026156e4565b6001600160401b03811115613ad457613ad46144df565b6040519080825280601f01601f191660200182016040528015613afe576020820181803683370190505b509050600360fc1b81600081518110613b1957613b19614f14565b60200101906001600160f81b031916908160001a905350600f60fb1b81600181518110613b4857613b48614f14565b60200101906001600160f81b031916908160001a9053506000613b6c8460026156f7565b613b779060016156e4565b90505b6001811115613bef576f181899199a1a9b1b9c1cb0b131b232b360811b85600f1660108110613bab57613bab614f14565b1a60f81b828281518110613bc157613bc1614f14565b60200101906001600160f81b031916908160001a90535060049490941c93613be881615977565b9050613b7a565b5083156119ea5760405162461bcd60e51b815260206004820181905260248201527f537472696e67733a20686578206c656e67746820696e73756666696369656e7460448201526064016108e8565b6001600160a01b039091166000908152610197602081815260408084208054610195845282862087875284529185208290559282526001810183559183529091200155565b6001600160a01b0382166000908152610197602052604081208054613caa9060019061598e565b81548110613cba57613cba614f14565b90600052602060002001549050808214613d21576001600160a01b0383166000818152610195602090815260408083208684528252808320549383526101979091529020805483919083908110613d1357613d13614f14565b600091825260209091200155505b6001600160a01b038316600090815261019760205260409020805480613d4957613d496159a1565b6000828152602080822083016000199081018390559092019092556001600160a01b039094168152610195845260408082209382529290935250812055565b6000818152600183016020526040812054613dcf575081546001818101845560008481526020808220909301849055845484825282860190935260409020919091556107b5565b5060006107b5565b60008181526001830160205260408120548015613ec0576000613dfb60018361598e565b8554909150600090613e0f9060019061598e565b9050818114613e74576000866000018281548110613e2f57613e2f614f14565b9060005260206000200154905080876000018481548110613e5257613e52614f14565b6000918252602080832090910192909255918252600188019052604090208390555b8554869080613e8557613e856159a1565b6001900381819060005260206000200160009055905585600101600086815260200190815260200160002060009055600193505050506107b5565b60009150506107b5565b613ed381613575565b6040516001600160a01b038216907fbc7cd75a20ee27fd9adebab32041f755214dbc6bffa90cc0225b39da2e5c2d3b90600090a250565b60606001600160a01b0383163b613f725760405162461bcd60e51b815260206004820152602660248201527f416464726573733a2064656c65676174652063616c6c20746f206e6f6e2d636f6044820152651b9d1c9858dd60d21b60648201526084016108e8565b600080846001600160a01b031684604051613f8d91906159b7565b600060405180830381855af49150503d8060008114613fc8576040519150601f19603f3d011682016040523d82523d6000602084013e613fcd565b606091505b5091509150613ff58282604051806060016040528060278152602001615a34602791396141b1565b95945050505050565b60008072184f03e93ff9f4daa797ed6e38ed64bf6a1f0160401b831061403d5772184f03e93ff9f4daa797ed6e38ed64bf6a1f0160401b830492506040015b6d04ee2d6d415b85acef81000000008310614069576d04ee2d6d415b85acef8100000000830492506020015b662386f26fc10000831061408757662386f26fc10000830492506010015b6305f5e100831061409f576305f5e100830492506008015b61271083106140b357612710830492506004015b606483106140c5576064830492506002015b600a83106107b55760010192915050565b6060824710156141375760405162461bcd60e51b815260206004820152602660248201527f416464726573733a20696e73756666696369656e742062616c616e636520666f6044820152651c8818d85b1b60d21b60648201526084016108e8565b600080866001600160a01b0316858760405161415391906159b7565b60006040518083038185875af1925050503d8060008114614190576040519150601f19603f3d011682016040523d82523d6000602084013e614195565b606091505b50915091506141a6878383876141ca565b979650505050505050565b606083156141c05750816119ea565b6119ea838361423f565b60608315614239578251600003614232576001600160a01b0385163b6142325760405162461bcd60e51b815260206004820152601d60248201527f416464726573733a2063616c6c20746f206e6f6e2d636f6e747261637400000060448201526064016108e8565b50816126f2565b6126f283835b81511561424f5781518083602001fd5b8060405162461bcd60e51b81526004016108e8919061440e565b8280548282559060005260206000209081019282156142af579160200282015b828111156142af578251829061429f9082614d4b565b5091602001919060010190614289565b506142bb929150614324565b5090565b604080516101808101825260608082526020820181905291810182905260009181018290526080810182905260a0810182905260c0810182905260e0810182905261010081018290526101208101829052610140810182905261016081019190915290565b808211156142bb5760006143388282614341565b50600101614324565b50805461434d90614caa565b6000825580601f1061435d575050565b601f01602090049060005260206000209081019061124591905b808211156142bb5760008155600101614377565b6001600160e01b03198116811461124557600080fd5b6000602082840312156143b357600080fd5b81356119ea8161438b565b60005b838110156143d95781810151838201526020016143c1565b50506000910152565b600081518084526143fa8160208601602086016143be565b601f01601f19169290920160200192915050565b6020815260006119ea60208301846143e2565b60006020828403121561443357600080fd5b5035919050565b80356001600160a01b038116811461445157600080fd5b919050565b6000806040838503121561446957600080fd5b6144728361443a565b946020939093013593505050565b60006020828403121561449257600080fd5b6119ea8261443a565b6020808252825182820181905260009190848201906040850190845b818110156144d3578351835292840192918401916001016144b7565b50909695505050505050565b634e487b7160e01b600052604160045260246000fd5b60405161018081016001600160401b0381118282101715614518576145186144df565b60405290565b604051601f8201601f191681016001600160401b0381118282101715614546576145466144df565b604052919050565b600082601f83011261455f57600080fd5b81356001600160401b03811115614578576145786144df565b61458b601f8201601f191660200161451e565b8181528460208386010111156145a057600080fd5b816020850160208301376000918101602001919091529392505050565b6000602082840312156145cf57600080fd5b81356001600160401b038111156145e557600080fd5b6126f28482850161454e565b60008060006060848603121561460657600080fd5b61460f8461443a565b925061461d6020850161443a565b9150604084013590509250925092565b6000806040838503121561464057600080fd5b823591506146506020840161443a565b90509250929050565b6000806040838503121561466c57600080fd5b6146758361443a565b915060208301356001600160401b0381111561469057600080fd5b61469c8582860161454e565b9150509250929050565b600080600080608085870312156146bc57600080fd5b84356001600160401b038111156146d257600080fd5b6146de8782880161454e565b9450506146ed6020860161443a565b9250604085013591506147026060860161443a565b905092959194509250565b600081518084526020808501808196508360051b8101915082860160005b858110156147555782840389526147438483516143e2565b9885019893509084019060010161472b565b5091979650505050505050565b60006101808251818552614778828601826143e2565b9150506020830151848203602086015261479282826143e2565b915050604083015184820360408601526147ac828261470d565b91505060608301516147c6606086018263ffffffff169052565b5060808301516147de608086018263ffffffff169052565b5060a08301516147f660a086018263ffffffff169052565b5060c083015161480e60c086018263ffffffff169052565b5060e083015161482660e086018263ffffffff169052565b506101008381015163ffffffff9081169186019190915261012080850151909116908501526101408084015161ffff90811691860191909152610160938401511692909301919091525090565b6020815260006119ea6020830184614762565b6000806040838503121561489957600080fd5b50508035926020909101359150565b801515811461124557600080fd5b600080604083850312156148c957600080fd5b6148d28361443a565b915060208301356148e2816148a8565b809150509250929050565b60006001600160401b03821115614906576149066144df565b5060051b60200190565b6000602080838503121561492357600080fd5b82356001600160401b0381111561493957600080fd5b8301601f8101851361494a57600080fd5b803561495d614958826148ed565b61451e565b81815260059190911b8201830190838101908783111561497c57600080fd5b928401925b828410156141a657833582529284019290840190614981565b6000602080830181845280855180835260408601915060408160051b870101925083870160005b828110156149ef57603f198886030184526149dd858351614762565b945092850192908501906001016149c1565b5092979650505050505050565b60008060008060808587031215614a1257600080fd5b614a1b8561443a565b9350614a296020860161443a565b92506040850135915060608501356001600160401b03811115614a4b57600080fd5b614a578782880161454e565b91505092959194509250565b60008060408385031215614a7657600080fd5b614a7f8361443a565b91506146506020840161443a565b600082601f830112614a9e57600080fd5b81356020614aae614958836148ed565b82815260059290921b84018101918181019086841115614acd57600080fd5b8286015b84811015614b0c5780356001600160401b03811115614af05760008081fd5b614afe8986838b010161454e565b845250918301918301614ad1565b509695505050505050565b803563ffffffff8116811461445157600080fd5b803561ffff8116811461445157600080fd5b60008060408385031215614b5057600080fd5b614b598361443a565b915060208301356001600160401b0380821115614b7557600080fd5b908401906101808287031215614b8a57600080fd5b614b926144f5565b823582811115614ba157600080fd5b614bad8882860161454e565b825250602083013582811115614bc257600080fd5b614bce8882860161454e565b602083015250604083013582811115614be657600080fd5b614bf288828601614a8d565b604083015250614c0460608401614b17565b6060820152614c1560808401614b17565b6080820152614c2660a08401614b17565b60a0820152614c3760c08401614b17565b60c0820152614c4860e08401614b17565b60e08201526101009150614c5d828401614b17565b828201526101209150614c71828401614b17565b828201526101409150614c85828401614b2b565b828201526101609150614c99828401614b2b565b828201528093505050509250929050565b600181811c90821680614cbe57607f821691505b602082108103614cde57634e487b7160e01b600052602260045260246000fd5b50919050565b600060208284031215614cf657600080fd5b5051919050565b601f82111561098957600081815260208120601f850160051c81016020861015614d245750805b601f850160051c820191505b81811015614d4357828155600101614d30565b505050505050565b81516001600160401b03811115614d6457614d646144df565b614d7881614d728454614caa565b84614cfd565b602080601f831160018114614dad5760008415614d955750858301515b600019600386901b1c1916600185901b178555614d43565b600085815260208120601f198616915b82811015614ddc57888601518255948401946001909101908401614dbd565b5085821015614dfa5787850151600019600388901b60f8161c191681555b5050505050600190811b01905550565b604081526000614e1d60408301856143e2565b8281036020840152613ff581856143e2565b6020808252602d908201527f4552433732313a2063616c6c6572206973206e6f7420746f6b656e206f776e6560408201526c1c881bdc88185c1c1c9bdd9959609a1b606082015260800190565b6020808252602c908201527f46756e6374696f6e206d7573742062652063616c6c6564207468726f7567682060408201526b19195b1959d85d1958d85b1b60a21b606082015260800190565b6020808252602c908201527f46756e6374696f6e206d7573742062652063616c6c6564207468726f7567682060408201526b6163746976652070726f787960a01b606082015260800190565b634e487b7160e01b600052603260045260246000fd5b60008151614f3c8185602086016143be565b9290920192915050565b693d913730b6b2911d101160b11b81528351600090614f6c81600a8501602089016143be565b72111610113232b9b1b934b83a34b7b7111d101160691b600a918401918201528451614f9f81601d8401602089016143be565b7f222c2022696d616765223a2022646174613a696d6167652f7376672b786d6c3b601d92909101918201526618985cd94d8d0b60ca1b603d8201528351614fed8160448401602088016143be565b61227d60f01b6044929091019182015260460195945050505050565b7f646174613a6170706c69636174696f6e2f6a736f6e3b6261736536342c00000081526000825161504181601d8501602087016143be565b91909101601d0192915050565b7f3c73766720786d6c6e733d27687474703a2f2f7777772e77332e6f72672f323081527f30302f73766727207072657365727665417370656374526174696f3d27784d6960208201527f6e594d696e206d656574272076696577426f783d27302030203335302033353060408201527f273e3c7374796c653e2e62617365207b2066696c6c3a2077686974653b20666f60608201527f6e742d66616d696c793a2073657269663b20666f6e742d73697a653a2032347060808201527f783b207d3c2f7374796c653e3c726563742077696474683d273130302527206860a08201527f65696768743d2731303025272066696c6c3d27626c61636b27202f3e3c74657860c08201527f7420783d273530252720793d273530252720636c6173733d276261736527206460e08201527f6f6d696e616e742d626173656c696e653d276d6964646c652720746578742d616101008201526e3731b437b91e93b6b4b2323632939f60891b610120820152600061012f83516151d281838601602088016143be565b83016151ef8282016c1e17ba32bc3a1f1e17b9bb339f60991b9052565b61013c01949350505050565b693d913730b6b2911d101160b11b81528451600090602061522282600a8601838b016143be565b72111610113232b9b1b934b83a34b7b7111d101160691b600a92850192830152865161525481601d8501848b016143be565b7f2069732047656e657261746976652041492047616d652e222c2022696d616765601d93909101928301527f223a2022646174613a696d6167652f7376672b786d6c3b6261736536342c0000603d83015285516152b781605b8501848a016143be565b741116101132bc3a32b93730b62fb634b735911d101160591b605b939091019283015284546070906000906152eb81614caa565b60018281168015615303576001811461531c5761534c565b60ff19841688870152821515830288018601945061534c565b8a6000528660002060005b848110156153425781548a8201890152908301908801615327565b5050858389010194505b505061227d60f01b835250506002019998505050505050505050565b60208082526025908201527f4552433732313a207472616e736665722066726f6d20696e636f72726563742060408201526437bbb732b960d91b606082015260800190565b6020808252602b908201527f496e697469616c697a61626c653a20636f6e7472616374206973206e6f74206960408201526a6e697469616c697a696e6760a81b606082015260800190565b60208082526032908201527f4552433732313a207472616e7366657220746f206e6f6e20455243373231526560408201527131b2b4bb32b91034b6b83632b6b2b73a32b960711b606082015260800190565b630262b1d160e51b8152600082516154698160048501602087016143be565b9190910160040192915050565b63024281d160e51b8152600082516154698160048501602087016143be565b64020aa259d160dd1b8152600082516154b58160058501602087016143be565b9190910160050192915050565b6402222a31d160dd1b8152600082516154b58160058501602087016143be565b64024a72a1d160dd1b8152600082516154b58160058501602087016143be565b64026a3a91d160dd1b8152600082516154b58160058501602087016143be565b64020a3a61d160dd1b8152600082516154b58160058501602087016143be565b7f3c73766720786d6c6e733d22687474703a2f2f7777772e77332e6f72672f323081527f30302f73766722207072657365727665417370656374526174696f3d22784d6960208201527f6e594d696e206d656574222076696577426f783d22302030203335302033353060408201527f223e3c7374796c653e2e62617365207b2066696c6c3a2077686974653b20666f60608201527f6e742d66616d696c793a2073657269663b20666f6e742d73697a653a2031347060808201527f783b207d3c2f7374796c653e3c726563742077696474683d223130302522206860a08201527f65696768743d2231303025222066696c6c3d22626c61636b22202f3e0000000060c08201526000895161565e8160dc850160208e016143be565b8951908301906156758160dc840160208e016143be565b895191019061568b8160dc840160208d016143be565b6156be6156b86156b26156ac6156a660dc868801018e614f2a565b8c614f2a565b8a614f2a565b88614f2a565b86614f2a565b9c9b505050505050505050505050565b634e487b7160e01b600052601160045260246000fd5b808201808211156107b5576107b56156ce565b80820281158282048414176107b5576107b56156ce565b6414dada5b1b60da1b81526000835161572e8160058501602088016143be565b6101d160f51b60059184019182015283516157508160078401602088016143be565b01600701949350505050565b6000835161576e8184602088016143be565b8351908301906157828183602088016143be565b01949350505050565b60006001820161579d5761579d6156ce565b5060010190565b600082516157b68184602087016143be565b651e17b9bb339f60d11b920191825250600601919050565b6000826157eb57634e487b7160e01b600052601260045260246000fd5b500490565b60006020828403121561580257600080fd5b81516119ea816148a8565b7f416363657373436f6e74726f6c3a206163636f756e74200000000000000000008152600083516158458160178501602088016143be565b7001034b99036b4b9b9b4b733903937b6329607d1b60179184019182015283516158768160288401602088016143be565b01602801949350505050565b6001600160a01b03858116825284166020820152604081018390526080606082018190526000906158b5908301846143e2565b9695505050505050565b6000602082840312156158d157600080fd5b81516119ea8161438b565b681e3a32bc3a103c1e9160b91b815283516000906159018160098501602089016143be565b6411103c9e9160d91b600991840191820152845161592681600e8401602089016143be565b6e111031b630b9b99e913130b9b2911f60891b600e9290910191820152835161595681601d8401602088016143be565b661e17ba32bc3a1f60c91b601d929091019182015260240195945050505050565b600081615986576159866156ce565b506000190190565b818103818111156107b5576107b56156ce565b634e487b7160e01b600052603160045260246000fd5b600082516159c98184602087016143be565b919091019291505056fe360894a13ba1a3210667c828492db98dca3e2076cc3735a920a3ca505d382bbc4142434445464748494a4b4c4d4e4f505152535455565758595a6162636465666768696a6b6c6d6e6f707172737475767778797a303132333435363738392b2f416464726573733a206c6f772d6c6576656c2064656c65676174652063616c6c206661696c6564a26469706673582212204cc54723b0cd1e2885da925480667023e1830c94a15c711868eac97aad2b69cd64736f6c63430008120033",
  "linkReferences": {},
  "deployedLinkReferences": {}
}