{
  "_format": "hh-sol-artifact-1",
  "contractName": "TestPME",
  "sourceName": "contracts/prompt-monsters-extension/PromptMonstersExtension.sol",
  "abi": [
    {
      "inputs": [],
      "stateMutability": "nonpayable",
      "type": "constructor"
    },
    {
      "anonymous": false,
      "inputs": [
        {
          "indexed": false,
          "internalType": "address",
          "name": "previousAdmin",
          "type": "address"
        },
        {
          "indexed": false,
          "internalType": "address",
          "name": "newAdmin",
          "type": "address"
        }
      ],
      "name": "AdminChanged",
      "type": "event"
    },
    {
      "anonymous": false,
      "inputs": [
        {
          "indexed": true,
          "internalType": "address",
          "name": "beacon",
          "type": "address"
        }
      ],
      "name": "BeaconUpgraded",
      "type": "event"
    },
    {
      "anonymous": false,
      "inputs": [
        {
          "indexed": false,
          "internalType": "uint8",
          "name": "version",
          "type": "uint8"
        }
      ],
      "name": "Initialized",
      "type": "event"
    },
    {
      "anonymous": false,
      "inputs": [
        {
          "indexed": true,
          "internalType": "bytes32",
          "name": "role",
          "type": "bytes32"
        },
        {
          "indexed": true,
          "internalType": "bytes32",
          "name": "previousAdminRole",
          "type": "bytes32"
        },
        {
          "indexed": true,
          "internalType": "bytes32",
          "name": "newAdminRole",
          "type": "bytes32"
        }
      ],
      "name": "RoleAdminChanged",
      "type": "event"
    },
    {
      "anonymous": false,
      "inputs": [
        {
          "indexed": true,
          "internalType": "bytes32",
          "name": "role",
          "type": "bytes32"
        },
        {
          "indexed": true,
          "internalType": "address",
          "name": "account",
          "type": "address"
        },
        {
          "indexed": true,
          "internalType": "address",
          "name": "sender",
          "type": "address"
        }
      ],
      "name": "RoleGranted",
      "type": "event"
    },
    {
      "anonymous": false,
      "inputs": [
        {
          "indexed": true,
          "internalType": "bytes32",
          "name": "role",
          "type": "bytes32"
        },
        {
          "indexed": true,
          "internalType": "address",
          "name": "account",
          "type": "address"
        },
        {
          "indexed": true,
          "internalType": "address",
          "name": "sender",
          "type": "address"
        }
      ],
      "name": "RoleRevoked",
      "type": "event"
    },
    {
      "anonymous": false,
      "inputs": [
        {
          "indexed": true,
          "internalType": "address",
          "name": "publisher",
          "type": "address"
        },
        {
          "indexed": true,
          "internalType": "address[]",
          "name": "rps",
          "type": "address[]"
        },
        {
          "indexed": true,
          "internalType": "string[][]",
          "name": "skills",
          "type": "string[][]"
        },
        {
          "indexed": false,
          "internalType": "uint32[][]",
          "name": "oldState",
          "type": "uint32[][]"
        },
        {
          "indexed": false,
          "internalType": "uint32[][]",
          "name": "newState",
          "type": "uint32[][]"
        }
      ],
      "name": "SetBatchSkillTypes",
      "type": "event"
    },
    {
      "anonymous": false,
      "inputs": [
        {
          "indexed": true,
          "internalType": "address",
          "name": "implementation",
          "type": "address"
        }
      ],
      "name": "Upgraded",
      "type": "event"
    },
    {
      "inputs": [],
      "name": "DEFAULT_ADMIN_ROLE",
      "outputs": [
        {
          "internalType": "bytes32",
          "name": "",
          "type": "bytes32"
        }
      ],
      "stateMutability": "view",
      "type": "function"
    },
    {
      "inputs": [
        {
          "internalType": "address[]",
          "name": "rps_",
          "type": "address[]"
        },
        {
          "internalType": "string[][]",
          "name": "skills_",
          "type": "string[][]"
        }
      ],
      "name": "getBatchSkillTypes",
      "outputs": [
        {
          "internalType": "uint32[][]",
          "name": "returnState",
          "type": "uint32[][]"
        }
      ],
      "stateMutability": "view",
      "type": "function"
    },
    {
      "inputs": [
        {
          "internalType": "address",
          "name": "resurrectionPrompt_",
          "type": "address"
        },
        {
          "components": [
            {
              "internalType": "string",
              "name": "feature",
              "type": "string"
            },
            {
              "internalType": "string",
              "name": "name",
              "type": "string"
            },
            {
              "internalType": "string",
              "name": "flavor",
              "type": "string"
            },
            {
              "internalType": "string[]",
              "name": "skills",
              "type": "string[]"
            },
            {
              "internalType": "uint32",
              "name": "lv",
              "type": "uint32"
            },
            {
              "internalType": "uint32",
              "name": "hp",
              "type": "uint32"
            },
            {
              "internalType": "uint32",
              "name": "atk",
              "type": "uint32"
            },
            {
              "internalType": "uint32",
              "name": "def",
              "type": "uint32"
            },
            {
              "internalType": "uint32",
              "name": "inte",
              "type": "uint32"
            },
            {
              "internalType": "uint32",
              "name": "mgr",
              "type": "uint32"
            },
            {
              "internalType": "uint32",
              "name": "agl",
              "type": "uint32"
            }
          ],
          "internalType": "struct ITestPM.Monster",
          "name": "monster_",
          "type": "tuple"
        }
      ],
      "name": "getMonsterExtension",
      "outputs": [
        {
          "components": [
            {
              "internalType": "string",
              "name": "feature",
              "type": "string"
            },
            {
              "internalType": "string",
              "name": "name",
              "type": "string"
            },
            {
              "internalType": "string",
              "name": "flavor",
              "type": "string"
            },
            {
              "internalType": "string[]",
              "name": "skills",
              "type": "string[]"
            },
            {
              "internalType": "uint32",
              "name": "lv",
              "type": "uint32"
            },
            {
              "internalType": "uint32",
              "name": "hp",
              "type": "uint32"
            },
            {
              "internalType": "uint32",
              "name": "atk",
              "type": "uint32"
            },
            {
              "internalType": "uint32",
              "name": "def",
              "type": "uint32"
            },
            {
              "internalType": "uint32",
              "name": "inte",
              "type": "uint32"
            },
            {
              "internalType": "uint32",
              "name": "mgr",
              "type": "uint32"
            },
            {
              "internalType": "uint32",
              "name": "agl",
              "type": "uint32"
            },
            {
              "internalType": "uint32[]",
              "name": "skillTypes",
              "type": "uint32[]"
            },
            {
              "internalType": "address",
              "name": "resurrectionPrompt",
              "type": "address"
            }
          ],
          "internalType": "struct ITestPME.MonsterExtension",
          "name": "monsterExtension",
          "type": "tuple"
        }
      ],
      "stateMutability": "view",
      "type": "function"
    },
    {
      "inputs": [
        {
          "internalType": "bytes32",
          "name": "role",
          "type": "bytes32"
        }
      ],
      "name": "getRoleAdmin",
      "outputs": [
        {
          "internalType": "bytes32",
          "name": "",
          "type": "bytes32"
        }
      ],
      "stateMutability": "view",
      "type": "function"
    },
    {
      "inputs": [
        {
          "internalType": "bytes32",
          "name": "role",
          "type": "bytes32"
        },
        {
          "internalType": "uint256",
          "name": "index",
          "type": "uint256"
        }
      ],
      "name": "getRoleMember",
      "outputs": [
        {
          "internalType": "address",
          "name": "",
          "type": "address"
        }
      ],
      "stateMutability": "view",
      "type": "function"
    },
    {
      "inputs": [
        {
          "internalType": "bytes32",
          "name": "role",
          "type": "bytes32"
        }
      ],
      "name": "getRoleMemberCount",
      "outputs": [
        {
          "internalType": "uint256",
          "name": "",
          "type": "uint256"
        }
      ],
      "stateMutability": "view",
      "type": "function"
    },
    {
      "inputs": [
        {
          "internalType": "bytes32",
          "name": "role",
          "type": "bytes32"
        },
        {
          "internalType": "address",
          "name": "account",
          "type": "address"
        }
      ],
      "name": "grantRole",
      "outputs": [],
      "stateMutability": "nonpayable",
      "type": "function"
    },
    {
      "inputs": [
        {
          "internalType": "bytes32",
          "name": "role",
          "type": "bytes32"
        },
        {
          "internalType": "address",
          "name": "account",
          "type": "address"
        }
      ],
      "name": "hasRole",
      "outputs": [
        {
          "internalType": "bool",
          "name": "",
          "type": "bool"
        }
      ],
      "stateMutability": "view",
      "type": "function"
    },
    {
      "inputs": [],
      "name": "initialize",
      "outputs": [],
      "stateMutability": "nonpayable",
      "type": "function"
    },
    {
      "inputs": [],
      "name": "proxiableUUID",
      "outputs": [
        {
          "internalType": "bytes32",
          "name": "",
          "type": "bytes32"
        }
      ],
      "stateMutability": "view",
      "type": "function"
    },
    {
      "inputs": [
        {
          "internalType": "bytes32",
          "name": "role",
          "type": "bytes32"
        },
        {
          "internalType": "address",
          "name": "account",
          "type": "address"
        }
      ],
      "name": "renounceRole",
      "outputs": [],
      "stateMutability": "nonpayable",
      "type": "function"
    },
    {
      "inputs": [
        {
          "internalType": "bytes32",
          "name": "role",
          "type": "bytes32"
        },
        {
          "internalType": "address",
          "name": "account",
          "type": "address"
        }
      ],
      "name": "revokeRole",
      "outputs": [],
      "stateMutability": "nonpayable",
      "type": "function"
    },
    {
      "inputs": [
        {
          "internalType": "address[]",
          "name": "rps_",
          "type": "address[]"
        },
        {
          "internalType": "string[][]",
          "name": "skills_",
          "type": "string[][]"
        },
        {
          "internalType": "uint32[][]",
          "name": "skillTypes_",
          "type": "uint32[][]"
        }
      ],
      "name": "setBatchSkillTypes",
      "outputs": [],
      "stateMutability": "nonpayable",
      "type": "function"
    },
    {
      "inputs": [
        {
          "internalType": "bytes4",
          "name": "interfaceId",
          "type": "bytes4"
        }
      ],
      "name": "supportsInterface",
      "outputs": [
        {
          "internalType": "bool",
          "name": "",
          "type": "bool"
        }
      ],
      "stateMutability": "view",
      "type": "function"
    },
    {
      "inputs": [
        {
          "internalType": "address",
          "name": "newImplementation",
          "type": "address"
        }
      ],
      "name": "upgradeTo",
      "outputs": [],
      "stateMutability": "nonpayable",
      "type": "function"
    },
    {
      "inputs": [
        {
          "internalType": "address",
          "name": "newImplementation",
          "type": "address"
        },
        {
          "internalType": "bytes",
          "name": "data",
          "type": "bytes"
        }
      ],
      "name": "upgradeToAndCall",
      "outputs": [],
      "stateMutability": "payable",
      "type": "function"
    }
  ],
  "bytecode": "0x60a0604052306080523480156200001557600080fd5b506200002062000026565b620000e8565b600054610100900460ff1615620000935760405162461bcd60e51b815260206004820152602760248201527f496e697469616c697a61626c653a20636f6e747261637420697320696e697469604482015266616c697a696e6760c81b606482015260840160405180910390fd5b60005460ff9081161015620000e6576000805460ff191660ff9081179091556040519081527f7f26b83ff96e1f2b6a682f133852f6798a09c465da95921460cefb38474024989060200160405180910390a15b565b60805161265162000120600039600081816105f101528181610631015281816106d001528181610710015261079f01526126516000f3fe6080604052600436106100f35760003560e01c80638129fc1c1161008a578063c61184cc11610059578063c61184cc146102a4578063ca15c873146102d1578063d547741f146102f1578063f84400ed1461031157600080fd5b80638129fc1c146102225780639010d07c1461023757806391d148541461026f578063a217fddf1461028f57600080fd5b806336568abe116100c657806336568abe146101ba5780633659cfe6146101da5780634f1ef286146101fa57806352d1902d1461020d57600080fd5b806301ffc9a7146100f8578063248a9ca31461012d57806325ea15161461016b5780632f2ff15d14610198575b600080fd5b34801561010457600080fd5b5061011861011336600461199d565b610331565b60405190151581526020015b60405180910390f35b34801561013957600080fd5b5061015d6101483660046119c7565b60009081526065602052604090206001015490565b604051908152602001610124565b34801561017757600080fd5b5061018b610186366004611c75565b61035c565b6040516101249190611d6e565b3480156101a457600080fd5b506101b86101b3366004611d81565b61053a565b005b3480156101c657600080fd5b506101b86101d5366004611d81565b610564565b3480156101e657600080fd5b506101b86101f5366004611dad565b6105e7565b6101b8610208366004611dc8565b6106c6565b34801561021957600080fd5b5061015d610792565b34801561022e57600080fd5b506101b8610845565b34801561024357600080fd5b50610257610252366004611e1f565b610999565b6040516001600160a01b039091168152602001610124565b34801561027b57600080fd5b5061011861028a366004611d81565b6109b8565b34801561029b57600080fd5b5061015d600081565b3480156102b057600080fd5b506102c46102bf366004611e55565b6109e3565b6040516101249190612059565b3480156102dd57600080fd5b5061015d6102ec3660046119c7565b610c01565b3480156102fd57600080fd5b506101b861030c366004611d81565b610c18565b34801561031d57600080fd5b506101b861032c3660046121bc565b610c3d565b60006001600160e01b03198216635a05180f60e01b148061035657506103568261105f565b92915050565b8151606090806001600160401b03811115610379576103796119e0565b6040519080825280602002602001820160405280156103ac57816020015b60608152602001906001900390816103975790505b50915060005b818110156105325760008482815181106103ce576103ce612311565b6020026020010151519050806001600160401b038111156103f1576103f16119e0565b60405190808252806020026020018201604052801561041a578160200160208202803683370190505b5084838151811061042d5761042d612311565b602002602001018190525081600101915060005b8181101561052b5761012e600088858151811061046057610460612311565b60200260200101516001600160a01b03166001600160a01b0316815260200190815260200160002086848151811061049a5761049a612311565b602002602001015182815181106104b3576104b3612311565b60200260200101516040516104c89190612327565b90815260405190819003602001902054855163ffffffff909116908690859081106104f5576104f5612311565b6020026020010151828151811061050e5761050e612311565b63ffffffff90921660209283029190910190910152600101610441565b50506103b2565b505092915050565b60008281526065602052604090206001015461055581611094565b61055f838361109e565b505050565b6001600160a01b03811633146105d95760405162461bcd60e51b815260206004820152602f60248201527f416363657373436f6e74726f6c3a2063616e206f6e6c792072656e6f756e636560448201526e103937b632b9903337b91039b2b63360891b60648201526084015b60405180910390fd5b6105e382826110c0565b5050565b6001600160a01b037f000000000000000000000000000000000000000000000000000000000000000016300361062f5760405162461bcd60e51b81526004016105d090612343565b7f00000000000000000000000000000000000000000000000000000000000000006001600160a01b03166106786000805160206125d5833981519152546001600160a01b031690565b6001600160a01b03161461069e5760405162461bcd60e51b81526004016105d09061238f565b6106a7816110e2565b604080516000808252602082019092526106c3918391906110ed565b50565b6001600160a01b037f000000000000000000000000000000000000000000000000000000000000000016300361070e5760405162461bcd60e51b81526004016105d090612343565b7f00000000000000000000000000000000000000000000000000000000000000006001600160a01b03166107576000805160206125d5833981519152546001600160a01b031690565b6001600160a01b03161461077d5760405162461bcd60e51b81526004016105d09061238f565b610786826110e2565b6105e3828260016110ed565b6000306001600160a01b037f000000000000000000000000000000000000000000000000000000000000000016146108325760405162461bcd60e51b815260206004820152603860248201527f555550535570677261646561626c653a206d757374206e6f742062652063616c60448201527f6c6564207468726f7567682064656c656761746563616c6c000000000000000060648201526084016105d0565b506000805160206125d583398151915290565b600054610100900460ff16158080156108655750600054600160ff909116105b8061087f5750303b15801561087f575060005460ff166001145b6108e25760405162461bcd60e51b815260206004820152602e60248201527f496e697469616c697a61626c653a20636f6e747261637420697320616c72656160448201526d191e481a5b9a5d1a585b1a5e995960921b60648201526084016105d0565b6000805460ff191660011790558015610905576000805461ff0019166101001790555b61090d611258565b610915611258565b7f6a64baf327d646d1bca72653e2a075d15fd6ac6d8cbd7f6ee03fc55875e0fa8861012d819055610946903361109e565b61095160003361109e565b80156106c3576000805461ff0019169055604051600181527f7f26b83ff96e1f2b6a682f133852f6798a09c465da95921460cefb38474024989060200160405180910390a150565b60008281526097602052604081206109b190836112c5565b9392505050565b60009182526065602090815260408084206001600160a01b0393909316845291905290205460ff1690565b604080516101a08101825260608082526020820181905291810182905281810182905260006080820181905260a0820181905260c0820181905260e08201819052610100820181905261012082018190526101408201819052610160820183905261018082015290820151516004811115610a5c575060045b6000816001600160401b03811115610a7657610a766119e0565b604051908082528060200260200182016040528015610a9f578160200160208202803683370190505b50905060005b82811015610b3c576001600160a01b038616600090815261012e602052604090206060860151805183908110610add57610add612311565b6020026020010151604051610af29190612327565b90815260405190819003602001902054825163ffffffff90911690839083908110610b1f57610b1f612311565b63ffffffff90921660209283029190910190910152600101610aa5565b50604051806101a0016040528085600001518152602001856020015181526020018560400151815260200185606001518152602001856080015163ffffffff1681526020018560a0015163ffffffff1681526020018560c0015163ffffffff1681526020018560e0015163ffffffff16815260200185610100015163ffffffff16815260200185610120015163ffffffff16815260200185610140015163ffffffff168152602001828152602001866001600160a01b03168152509250505092915050565b6000818152609760205260408120610356906112d1565b600082815260656020526040902060010154610c3381611094565b61055f83836110c0565b61012d54610c4a81611094565b835183518114610cb15760405162461bcd60e51b815260206004820152602c60248201527f50726f6d70744d6f6e7374657273457874656e73696f6e3a206d69736d61746360448201526b0d040e4e0e640d8cadccee8d60a31b60648201526084016105d0565b6000816001600160401b03811115610ccb57610ccb6119e0565b604051908082528060200260200182016040528015610cfe57816020015b6060815260200190600190039081610ce95790505b50905060005b82811015610fe1576000868281518110610d2057610d20612311565b6020026020010151519050858281518110610d3d57610d3d612311565b6020026020010151518114610dab5760405162461bcd60e51b815260206004820152602e60248201527f50726f6d70744d6f6e7374657273457874656e73696f6e3a206d69736d61746360448201526d0d040e6d6d2d8d840d8cadccee8d60931b60648201526084016105d0565b806001600160401b03811115610dc357610dc36119e0565b604051908082528060200260200182016040528015610dec578160200160208202803683370190505b50838381518110610dff57610dff612311565b602002602001018190525060005b81811015610fd75761012e60008a8581518110610e2c57610e2c612311565b60200260200101516001600160a01b03166001600160a01b03168152602001908152602001600020888481518110610e6657610e66612311565b60200260200101518281518110610e7f57610e7f612311565b6020026020010151604051610e949190612327565b90815260405190819003602001902054845163ffffffff90911690859085908110610ec157610ec1612311565b60200260200101518281518110610eda57610eda612311565b602002602001019063ffffffff16908163ffffffff1681525050868381518110610f0657610f06612311565b60200260200101518181518110610f1f57610f1f612311565b602002602001015161012e60008b8681518110610f3e57610f3e612311565b60200260200101516001600160a01b03166001600160a01b03168152602001908152602001600020898581518110610f7857610f78612311565b60200260200101518381518110610f9157610f91612311565b6020026020010151604051610fa69190612327565b908152604051908190036020019020805463ffffffff9290921663ffffffff19909216919091179055600101610e0d565b5050600101610d04565b5084604051610ff091906123db565b604051809103902086604051611006919061244f565b60405180910390206110153390565b6001600160a01b03167f25eedb020a39313f23d83878c59222b1dd35aa982815c3641408a3b41eab536b848860405161104f92919061248e565b60405180910390a4505050505050565b60006001600160e01b03198216637965db0b60e01b148061035657506301ffc9a760e01b6001600160e01b0319831614610356565b6106c381336112db565b6110a88282611334565b600082815260976020526040902061055f90826113ba565b6110ca82826113cf565b600082815260976020526040902061055f9082611436565b60006105e381611094565b7f4910fdfa16fed3260ed0e7147f7cc6da11a60208b5b9406d12a635614ffd91435460ff16156111205761055f8361144b565b826001600160a01b03166352d1902d6040518163ffffffff1660e01b8152600401602060405180830381865afa92505050801561117a575060408051601f3d908101601f19168201909252611177918101906124b3565b60015b6111dd5760405162461bcd60e51b815260206004820152602e60248201527f45524331393637557067726164653a206e657720696d706c656d656e7461746960448201526d6f6e206973206e6f74205555505360901b60648201526084016105d0565b6000805160206125d5833981519152811461124c5760405162461bcd60e51b815260206004820152602960248201527f45524331393637557067726164653a20756e737570706f727465642070726f786044820152681a58589b195555525160ba1b60648201526084016105d0565b5061055f8383836114e7565b600054610100900460ff166112c35760405162461bcd60e51b815260206004820152602b60248201527f496e697469616c697a61626c653a20636f6e7472616374206973206e6f74206960448201526a6e697469616c697a696e6760a81b60648201526084016105d0565b565b60006109b18383611512565b6000610356825490565b6112e582826109b8565b6105e3576112f28161153c565b6112fd83602061154e565b60405160200161130e9291906124cc565b60408051601f198184030181529082905262461bcd60e51b82526105d091600401612541565b61133e82826109b8565b6105e35760008281526065602090815260408083206001600160a01b03851684529091529020805460ff191660011790556113763390565b6001600160a01b0316816001600160a01b0316837f2f8788117e7eff1d82e926ec794901d17c78024a50270940304540a733656f0d60405160405180910390a45050565b60006109b1836001600160a01b0384166116e9565b6113d982826109b8565b156105e35760008281526065602090815260408083206001600160a01b0385168085529252808320805460ff1916905551339285917ff6391f5c32d9c69d2a47ea670b442974b53935d1edc7fd64eb21e047a839171b9190a45050565b60006109b1836001600160a01b038416611738565b6001600160a01b0381163b6114b85760405162461bcd60e51b815260206004820152602d60248201527f455243313936373a206e657720696d706c656d656e746174696f6e206973206e60448201526c1bdd08184818dbdb9d1c9858dd609a1b60648201526084016105d0565b6000805160206125d583398151915280546001600160a01b0319166001600160a01b0392909216919091179055565b6114f08361182b565b6000825111806114fd5750805b1561055f5761150c838361186b565b50505050565b600082600001828154811061152957611529612311565b9060005260206000200154905092915050565b60606103566001600160a01b03831660145b6060600061155d83600261256a565b611568906002612581565b6001600160401b0381111561157f5761157f6119e0565b6040519080825280601f01601f1916602001820160405280156115a9576020820181803683370190505b509050600360fc1b816000815181106115c4576115c4612311565b60200101906001600160f81b031916908160001a905350600f60fb1b816001815181106115f3576115f3612311565b60200101906001600160f81b031916908160001a905350600061161784600261256a565b611622906001612581565b90505b600181111561169a576f181899199a1a9b1b9c1cb0b131b232b360811b85600f166010811061165657611656612311565b1a60f81b82828151811061166c5761166c612311565b60200101906001600160f81b031916908160001a90535060049490941c9361169381612594565b9050611625565b5083156109b15760405162461bcd60e51b815260206004820181905260248201527f537472696e67733a20686578206c656e67746820696e73756666696369656e7460448201526064016105d0565b600081815260018301602052604081205461173057508154600181810184556000848152602080822090930184905584548482528286019093526040902091909155610356565b506000610356565b6000818152600183016020526040812054801561182157600061175c6001836125ab565b8554909150600090611770906001906125ab565b90508181146117d557600086600001828154811061179057611790612311565b90600052602060002001549050808760000184815481106117b3576117b3612311565b6000918252602080832090910192909255918252600188019052604090208390555b85548690806117e6576117e66125be565b600190038181906000526020600020016000905590558560010160008681526020019081526020016000206000905560019350505050610356565b6000915050610356565b6118348161144b565b6040516001600160a01b038216907fbc7cd75a20ee27fd9adebab32041f755214dbc6bffa90cc0225b39da2e5c2d3b90600090a250565b60606001600160a01b0383163b6118d35760405162461bcd60e51b815260206004820152602660248201527f416464726573733a2064656c65676174652063616c6c20746f206e6f6e2d636f6044820152651b9d1c9858dd60d21b60648201526084016105d0565b600080846001600160a01b0316846040516118ee9190612327565b600060405180830381855af49150503d8060008114611929576040519150601f19603f3d011682016040523d82523d6000602084013e61192e565b606091505b509150915061195682826040518060600160405280602781526020016125f56027913961195f565b95945050505050565b6060831561196e5750816109b1565b6109b183838151156119835781518083602001fd5b8060405162461bcd60e51b81526004016105d09190612541565b6000602082840312156119af57600080fd5b81356001600160e01b0319811681146109b157600080fd5b6000602082840312156119d957600080fd5b5035919050565b634e487b7160e01b600052604160045260246000fd5b60405161016081016001600160401b0381118282101715611a1957611a196119e0565b60405290565b604051601f8201601f191681016001600160401b0381118282101715611a4757611a476119e0565b604052919050565b60006001600160401b03821115611a6857611a686119e0565b5060051b60200190565b80356001600160a01b0381168114611a8957600080fd5b919050565b600082601f830112611a9f57600080fd5b81356020611ab4611aaf83611a4f565b611a1f565b82815260059290921b84018101918181019086841115611ad357600080fd5b8286015b84811015611af557611ae881611a72565b8352918301918301611ad7565b509695505050505050565b60006001600160401b03831115611b1957611b196119e0565b611b2c601f8401601f1916602001611a1f565b9050828152838383011115611b4057600080fd5b828260208301376000602084830101529392505050565b600082601f830112611b6857600080fd5b6109b183833560208501611b00565b600082601f830112611b8857600080fd5b81356020611b98611aaf83611a4f565b82815260059290921b84018101918181019086841115611bb757600080fd5b8286015b84811015611af55780356001600160401b03811115611bda5760008081fd5b611be88986838b0101611b57565b845250918301918301611bbb565b600082601f830112611c0757600080fd5b81356020611c17611aaf83611a4f565b82815260059290921b84018101918181019086841115611c3657600080fd5b8286015b84811015611af55780356001600160401b03811115611c595760008081fd5b611c678986838b0101611b77565b845250918301918301611c3a565b60008060408385031215611c8857600080fd5b82356001600160401b0380821115611c9f57600080fd5b611cab86838701611a8e565b93506020850135915080821115611cc157600080fd5b50611cce85828601611bf6565b9150509250929050565b600081518084526020808501945080840160005b83811015611d0e57815163ffffffff1687529582019590820190600101611cec565b509495945050505050565b600081518084526020808501808196508360051b8101915082860160005b85811015611d61578284038952611d4f848351611cd8565b98850198935090840190600101611d37565b5091979650505050505050565b6020815260006109b16020830184611d19565b60008060408385031215611d9457600080fd5b82359150611da460208401611a72565b90509250929050565b600060208284031215611dbf57600080fd5b6109b182611a72565b60008060408385031215611ddb57600080fd5b611de483611a72565b915060208301356001600160401b03811115611dff57600080fd5b8301601f81018513611e1057600080fd5b611cce85823560208401611b00565b60008060408385031215611e3257600080fd5b50508035926020909101359150565b803563ffffffff81168114611a8957600080fd5b60008060408385031215611e6857600080fd5b611e7183611a72565b915060208301356001600160401b0380821115611e8d57600080fd5b908401906101608287031215611ea257600080fd5b611eaa6119f6565b823582811115611eb957600080fd5b611ec588828601611b57565b825250602083013582811115611eda57600080fd5b611ee688828601611b57565b602083015250604083013582811115611efe57600080fd5b611f0a88828601611b57565b604083015250606083013582811115611f2257600080fd5b611f2e88828601611b77565b606083015250611f4060808401611e41565b6080820152611f5160a08401611e41565b60a0820152611f6260c08401611e41565b60c0820152611f7360e08401611e41565b60e08201526101009150611f88828401611e41565b828201526101209150611f9c828401611e41565b828201526101409150611fb0828401611e41565b828201528093505050509250929050565b60005b83811015611fdc578181015183820152602001611fc4565b50506000910152565b60008151808452611ffd816020860160208601611fc1565b601f01601f19169290920160200192915050565b600081518084526020808501808196508360051b8101915082860160005b85811015611d61578284038952612047848351611fe5565b9885019893509084019060010161202f565b60208152600082516101a08060208501526120786101c0850183611fe5565b91506020850151601f19808685030160408701526120968483611fe5565b935060408701519150808685030160608701526120b38483611fe5565b935060608701519150808685030160808701526120d08483612011565b9350608087015191506120eb60a087018363ffffffff169052565b60a087015163ffffffff811660c0880152915060c087015163ffffffff811660e0880152915060e0870151915061010061212c8188018463ffffffff169052565b87015191506101206121458782018463ffffffff169052565b870151915061014061215e8782018463ffffffff169052565b87015191506101606121778782018463ffffffff169052565b808801519250506101808187860301818801526121948584611cd8565b945080880151925050506121b2828601826001600160a01b03169052565b5090949350505050565b6000806000606084860312156121d157600080fd5b83356001600160401b03808211156121e857600080fd5b6121f487838801611a8e565b945060209150818601358181111561220b57600080fd5b61221788828901611bf6565b94505060408601358181111561222c57600080fd5b8601601f8101881361223d57600080fd5b803561224b611aaf82611a4f565b81815260059190911b8201840190848101908a83111561226a57600080fd5b8584015b83811015612300578035868111156122865760008081fd5b8501603f81018d136122985760008081fd5b878101356122a8611aaf82611a4f565b81815260059190911b820160400190898101908f8311156122c95760008081fd5b6040840193505b828410156122f0576122e184611e41565b8252928a0192908a01906122d0565b865250505091860191860161226e565b508096505050505050509250925092565b634e487b7160e01b600052603260045260246000fd5b60008251612339818460208701611fc1565b9190910192915050565b6020808252602c908201527f46756e6374696f6e206d7573742062652063616c6c6564207468726f7567682060408201526b19195b1959d85d1958d85b1b60a21b606082015260800190565b6020808252602c908201527f46756e6374696f6e206d7573742062652063616c6c6564207468726f7567682060408201526b6163746976652070726f787960a01b606082015260800190565b81516000908290602080860184805b848110156124425782518051908501908790845b81811015612430578351805161241781868c8501611fc1565b94890194601f01601f19169390930192506001016123fe565b509097505050918301916001016123ea565b5093979650505050505050565b815160009082906020808601845b838110156124825781516001600160a01b03168552938201939082019060010161245d565b50929695505050505050565b6040815260006124a16040830185611d19565b82810360208401526119568185611d19565b6000602082840312156124c557600080fd5b5051919050565b7f416363657373436f6e74726f6c3a206163636f756e7420000000000000000000815260008351612504816017850160208801611fc1565b7001034b99036b4b9b9b4b733903937b6329607d1b6017918401918201528351612535816028840160208801611fc1565b01602801949350505050565b6020815260006109b16020830184611fe5565b634e487b7160e01b600052601160045260246000fd5b808202811582820484141761035657610356612554565b8082018082111561035657610356612554565b6000816125a3576125a3612554565b506000190190565b8181038181111561035657610356612554565b634e487b7160e01b600052603160045260246000fdfe360894a13ba1a3210667c828492db98dca3e2076cc3735a920a3ca505d382bbc416464726573733a206c6f772d6c6576656c2064656c65676174652063616c6c206661696c6564a2646970667358221220eae00319665629ad1c114bdca53f481e054c62ec3f43cf7515e242d9b38527c464736f6c63430008120033",
  "linkReferences": {},
  "deployedLinkReferences": {}
}