{
  "_format": "hh-sol-artifact-1",
  "contractName": "PromptMonsters",
  "sourceName": "contracts/prompt-monsters/PromptMonsters.sol",
  "abi": [
    {
      "inputs": [],
      "stateMutability": "nonpayable",
      "type": "constructor"
    },
    {
      "anonymous": false,
      "inputs": [
        {
          "indexed": false,
          "internalType": "address",
          "name": "previousAdmin",
          "type": "address"
        },
        {
          "indexed": false,
          "internalType": "address",
          "name": "newAdmin",
          "type": "address"
        }
      ],
      "name": "AdminChanged",
      "type": "event"
    },
    {
      "anonymous": false,
      "inputs": [
        {
          "indexed": true,
          "internalType": "address",
          "name": "owner",
          "type": "address"
        },
        {
          "indexed": true,
          "internalType": "address",
          "name": "approved",
          "type": "address"
        },
        {
          "indexed": true,
          "internalType": "uint256",
          "name": "tokenId",
          "type": "uint256"
        }
      ],
      "name": "Approval",
      "type": "event"
    },
    {
      "anonymous": false,
      "inputs": [
        {
          "indexed": true,
          "internalType": "address",
          "name": "owner",
          "type": "address"
        },
        {
          "indexed": true,
          "internalType": "address",
          "name": "operator",
          "type": "address"
        },
        {
          "indexed": false,
          "internalType": "bool",
          "name": "approved",
          "type": "bool"
        }
      ],
      "name": "ApprovalForAll",
      "type": "event"
    },
    {
      "anonymous": false,
      "inputs": [
        {
          "indexed": true,
          "internalType": "address",
          "name": "beacon",
          "type": "address"
        }
      ],
      "name": "BeaconUpgraded",
      "type": "event"
    },
    {
      "anonymous": false,
      "inputs": [
        {
          "indexed": false,
          "internalType": "uint8",
          "name": "version",
          "type": "uint8"
        }
      ],
      "name": "Initialized",
      "type": "event"
    },
    {
      "anonymous": false,
      "inputs": [
        {
          "indexed": true,
          "internalType": "bytes32",
          "name": "role",
          "type": "bytes32"
        },
        {
          "indexed": true,
          "internalType": "bytes32",
          "name": "previousAdminRole",
          "type": "bytes32"
        },
        {
          "indexed": true,
          "internalType": "bytes32",
          "name": "newAdminRole",
          "type": "bytes32"
        }
      ],
      "name": "RoleAdminChanged",
      "type": "event"
    },
    {
      "anonymous": false,
      "inputs": [
        {
          "indexed": true,
          "internalType": "bytes32",
          "name": "role",
          "type": "bytes32"
        },
        {
          "indexed": true,
          "internalType": "address",
          "name": "account",
          "type": "address"
        },
        {
          "indexed": true,
          "internalType": "address",
          "name": "sender",
          "type": "address"
        }
      ],
      "name": "RoleGranted",
      "type": "event"
    },
    {
      "anonymous": false,
      "inputs": [
        {
          "indexed": true,
          "internalType": "bytes32",
          "name": "role",
          "type": "bytes32"
        },
        {
          "indexed": true,
          "internalType": "address",
          "name": "account",
          "type": "address"
        },
        {
          "indexed": true,
          "internalType": "address",
          "name": "sender",
          "type": "address"
        }
      ],
      "name": "RoleRevoked",
      "type": "event"
    },
    {
      "anonymous": false,
      "inputs": [
        {
          "indexed": true,
          "internalType": "address",
          "name": "publisher",
          "type": "address"
        },
        {
          "indexed": false,
          "internalType": "address",
          "name": "oldValue",
          "type": "address"
        },
        {
          "indexed": false,
          "internalType": "address",
          "name": "newValue",
          "type": "address"
        }
      ],
      "name": "SetErc20",
      "type": "event"
    },
    {
      "anonymous": false,
      "inputs": [
        {
          "indexed": true,
          "internalType": "address",
          "name": "publisher",
          "type": "address"
        },
        {
          "indexed": false,
          "internalType": "string",
          "name": "oldValue",
          "type": "string"
        },
        {
          "indexed": false,
          "internalType": "string",
          "name": "newValue",
          "type": "string"
        }
      ],
      "name": "SetExternalLink",
      "type": "event"
    },
    {
      "anonymous": false,
      "inputs": [
        {
          "indexed": true,
          "internalType": "address",
          "name": "publisher",
          "type": "address"
        },
        {
          "indexed": false,
          "internalType": "uint256",
          "name": "oldValue",
          "type": "uint256"
        },
        {
          "indexed": false,
          "internalType": "uint256",
          "name": "newValue",
          "type": "uint256"
        }
      ],
      "name": "SetMintPrice",
      "type": "event"
    },
    {
      "anonymous": false,
      "inputs": [
        {
          "indexed": true,
          "internalType": "address",
          "name": "publisher",
          "type": "address"
        },
        {
          "indexed": false,
          "internalType": "address",
          "name": "oldValue",
          "type": "address"
        },
        {
          "indexed": false,
          "internalType": "address",
          "name": "newValue",
          "type": "address"
        }
      ],
      "name": "SetPromptMonstersWallet",
      "type": "event"
    },
    {
      "anonymous": false,
      "inputs": [
        {
          "indexed": true,
          "internalType": "address",
          "name": "from",
          "type": "address"
        },
        {
          "indexed": true,
          "internalType": "address",
          "name": "to",
          "type": "address"
        },
        {
          "indexed": true,
          "internalType": "uint256",
          "name": "tokenId",
          "type": "uint256"
        }
      ],
      "name": "Transfer",
      "type": "event"
    },
    {
      "anonymous": false,
      "inputs": [
        {
          "indexed": true,
          "internalType": "address",
          "name": "implementation",
          "type": "address"
        }
      ],
      "name": "Upgraded",
      "type": "event"
    },
    {
      "inputs": [],
      "name": "DEFAULT_ADMIN_ROLE",
      "outputs": [
        {
          "internalType": "bytes32",
          "name": "",
          "type": "bytes32"
        }
      ],
      "stateMutability": "view",
      "type": "function"
    },
    {
      "inputs": [
        {
          "internalType": "address",
          "name": "to",
          "type": "address"
        },
        {
          "internalType": "uint256",
          "name": "tokenId",
          "type": "uint256"
        }
      ],
      "name": "approve",
      "outputs": [],
      "stateMutability": "nonpayable",
      "type": "function"
    },
    {
      "inputs": [
        {
          "internalType": "address",
          "name": "owner",
          "type": "address"
        }
      ],
      "name": "balanceOf",
      "outputs": [
        {
          "internalType": "uint256",
          "name": "",
          "type": "uint256"
        }
      ],
      "stateMutability": "view",
      "type": "function"
    },
    {
      "inputs": [
        {
          "internalType": "uint256",
          "name": "tokenId_",
          "type": "uint256"
        }
      ],
      "name": "burn",
      "outputs": [],
      "stateMutability": "nonpayable",
      "type": "function"
    },
    {
      "inputs": [
        {
          "internalType": "uint256",
          "name": "monsterId",
          "type": "uint256"
        }
      ],
      "name": "checkMonsterId",
      "outputs": [],
      "stateMutability": "view",
      "type": "function"
    },
    {
      "inputs": [],
      "name": "contractURI",
      "outputs": [
        {
          "internalType": "string",
          "name": "uri",
          "type": "string"
        }
      ],
      "stateMutability": "view",
      "type": "function"
    },
    {
      "inputs": [],
      "name": "erc20",
      "outputs": [
        {
          "internalType": "contract IERC20",
          "name": "",
          "type": "address"
        }
      ],
      "stateMutability": "view",
      "type": "function"
    },
    {
      "inputs": [
        {
          "internalType": "address",
          "name": "user_",
          "type": "address"
        },
        {
          "components": [
            {
              "internalType": "string",
              "name": "name",
              "type": "string"
            },
            {
              "internalType": "string",
              "name": "flavor",
              "type": "string"
            },
            {
              "internalType": "string[]",
              "name": "skills",
              "type": "string[]"
            },
            {
              "internalType": "uint32",
              "name": "lv",
              "type": "uint32"
            },
            {
              "internalType": "uint32",
              "name": "hp",
              "type": "uint32"
            },
            {
              "internalType": "uint32",
              "name": "atk",
              "type": "uint32"
            },
            {
              "internalType": "uint32",
              "name": "def",
              "type": "uint32"
            },
            {
              "internalType": "uint32",
              "name": "inte",
              "type": "uint32"
            },
            {
              "internalType": "uint32",
              "name": "mgr",
              "type": "uint32"
            },
            {
              "internalType": "uint32",
              "name": "agl",
              "type": "uint32"
            },
            {
              "internalType": "uint16",
              "name": "maxSkills",
              "type": "uint16"
            },
            {
              "internalType": "uint16",
              "name": "maxSkillsSet",
              "type": "uint16"
            }
          ],
          "internalType": "struct IPromptMonsters.Monster",
          "name": "monster_",
          "type": "tuple"
        }
      ],
      "name": "generateMonster",
      "outputs": [],
      "stateMutability": "nonpayable",
      "type": "function"
    },
    {
      "inputs": [
        {
          "internalType": "uint256",
          "name": "tokenId",
          "type": "uint256"
        }
      ],
      "name": "getApproved",
      "outputs": [
        {
          "internalType": "address",
          "name": "",
          "type": "address"
        }
      ],
      "stateMutability": "view",
      "type": "function"
    },
    {
      "inputs": [
        {
          "internalType": "address",
          "name": "user",
          "type": "address"
        }
      ],
      "name": "getMonsterHistory",
      "outputs": [
        {
          "components": [
            {
              "internalType": "string",
              "name": "name",
              "type": "string"
            },
            {
              "internalType": "string",
              "name": "flavor",
              "type": "string"
            },
            {
              "internalType": "string[]",
              "name": "skills",
              "type": "string[]"
            },
            {
              "internalType": "uint32",
              "name": "lv",
              "type": "uint32"
            },
            {
              "internalType": "uint32",
              "name": "hp",
              "type": "uint32"
            },
            {
              "internalType": "uint32",
              "name": "atk",
              "type": "uint32"
            },
            {
              "internalType": "uint32",
              "name": "def",
              "type": "uint32"
            },
            {
              "internalType": "uint32",
              "name": "inte",
              "type": "uint32"
            },
            {
              "internalType": "uint32",
              "name": "mgr",
              "type": "uint32"
            },
            {
              "internalType": "uint32",
              "name": "agl",
              "type": "uint32"
            },
            {
              "internalType": "uint16",
              "name": "maxSkills",
              "type": "uint16"
            },
            {
              "internalType": "uint16",
              "name": "maxSkillsSet",
              "type": "uint16"
            }
          ],
          "internalType": "struct IPromptMonsters.Monster",
          "name": "monsterHistory",
          "type": "tuple"
        }
      ],
      "stateMutability": "view",
      "type": "function"
    },
    {
      "inputs": [
        {
          "internalType": "uint256[]",
          "name": "tokenIds_",
          "type": "uint256[]"
        }
      ],
      "name": "getMonsters",
      "outputs": [
        {
          "components": [
            {
              "internalType": "string",
              "name": "name",
              "type": "string"
            },
            {
              "internalType": "string",
              "name": "flavor",
              "type": "string"
            },
            {
              "internalType": "string[]",
              "name": "skills",
              "type": "string[]"
            },
            {
              "internalType": "uint32",
              "name": "lv",
              "type": "uint32"
            },
            {
              "internalType": "uint32",
              "name": "hp",
              "type": "uint32"
            },
            {
              "internalType": "uint32",
              "name": "atk",
              "type": "uint32"
            },
            {
              "internalType": "uint32",
              "name": "def",
              "type": "uint32"
            },
            {
              "internalType": "uint32",
              "name": "inte",
              "type": "uint32"
            },
            {
              "internalType": "uint32",
              "name": "mgr",
              "type": "uint32"
            },
            {
              "internalType": "uint32",
              "name": "agl",
              "type": "uint32"
            },
            {
              "internalType": "uint16",
              "name": "maxSkills",
              "type": "uint16"
            },
            {
              "internalType": "uint16",
              "name": "maxSkillsSet",
              "type": "uint16"
            }
          ],
          "internalType": "struct IPromptMonsters.Monster[]",
          "name": "monsters",
          "type": "tuple[]"
        }
      ],
      "stateMutability": "view",
      "type": "function"
    },
    {
      "inputs": [],
      "name": "getMonstersTotalSupply",
      "outputs": [
        {
          "internalType": "uint256",
          "name": "totalSupply",
          "type": "uint256"
        }
      ],
      "stateMutability": "view",
      "type": "function"
    },
    {
      "inputs": [
        {
          "internalType": "address",
          "name": "owner",
          "type": "address"
        }
      ],
      "name": "getOwnerToTokenIds",
      "outputs": [
        {
          "internalType": "uint256[]",
          "name": "tokenIds",
          "type": "uint256[]"
        }
      ],
      "stateMutability": "view",
      "type": "function"
    },
    {
      "inputs": [
        {
          "internalType": "bytes32",
          "name": "role",
          "type": "bytes32"
        }
      ],
      "name": "getRoleAdmin",
      "outputs": [
        {
          "internalType": "bytes32",
          "name": "",
          "type": "bytes32"
        }
      ],
      "stateMutability": "view",
      "type": "function"
    },
    {
      "inputs": [
        {
          "internalType": "bytes32",
          "name": "role",
          "type": "bytes32"
        },
        {
          "internalType": "uint256",
          "name": "index",
          "type": "uint256"
        }
      ],
      "name": "getRoleMember",
      "outputs": [
        {
          "internalType": "address",
          "name": "",
          "type": "address"
        }
      ],
      "stateMutability": "view",
      "type": "function"
    },
    {
      "inputs": [
        {
          "internalType": "bytes32",
          "name": "role",
          "type": "bytes32"
        }
      ],
      "name": "getRoleMemberCount",
      "outputs": [
        {
          "internalType": "uint256",
          "name": "",
          "type": "uint256"
        }
      ],
      "stateMutability": "view",
      "type": "function"
    },
    {
      "inputs": [
        {
          "internalType": "bytes32",
          "name": "role",
          "type": "bytes32"
        },
        {
          "internalType": "address",
          "name": "account",
          "type": "address"
        }
      ],
      "name": "grantRole",
      "outputs": [],
      "stateMutability": "nonpayable",
      "type": "function"
    },
    {
      "inputs": [
        {
          "internalType": "bytes32",
          "name": "role",
          "type": "bytes32"
        },
        {
          "internalType": "address",
          "name": "account",
          "type": "address"
        }
      ],
      "name": "hasRole",
      "outputs": [
        {
          "internalType": "bool",
          "name": "",
          "type": "bool"
        }
      ],
      "stateMutability": "view",
      "type": "function"
    },
    {
      "inputs": [
        {
          "internalType": "string",
          "name": "externalLink_",
          "type": "string"
        },
        {
          "internalType": "address",
          "name": "erc20Address_",
          "type": "address"
        },
        {
          "internalType": "uint256",
          "name": "mintPrice_",
          "type": "uint256"
        },
        {
          "internalType": "address",
          "name": "promptMonstersWallet_",
          "type": "address"
        }
      ],
      "name": "initialize",
      "outputs": [],
      "stateMutability": "nonpayable",
      "type": "function"
    },
    {
      "inputs": [
        {
          "internalType": "address",
          "name": "owner",
          "type": "address"
        },
        {
          "internalType": "address",
          "name": "operator",
          "type": "address"
        }
      ],
      "name": "isApprovedForAll",
      "outputs": [
        {
          "internalType": "bool",
          "name": "",
          "type": "bool"
        }
      ],
      "stateMutability": "view",
      "type": "function"
    },
    {
      "inputs": [
        {
          "internalType": "address",
          "name": "monsterAddress",
          "type": "address"
        }
      ],
      "name": "mint",
      "outputs": [],
      "stateMutability": "nonpayable",
      "type": "function"
    },
    {
      "inputs": [],
      "name": "mintPrice",
      "outputs": [
        {
          "internalType": "uint256",
          "name": "",
          "type": "uint256"
        }
      ],
      "stateMutability": "view",
      "type": "function"
    },
    {
      "inputs": [],
      "name": "name",
      "outputs": [
        {
          "internalType": "string",
          "name": "",
          "type": "string"
        }
      ],
      "stateMutability": "view",
      "type": "function"
    },
    {
      "inputs": [
        {
          "internalType": "uint256",
          "name": "tokenId",
          "type": "uint256"
        }
      ],
      "name": "ownerOf",
      "outputs": [
        {
          "internalType": "address",
          "name": "",
          "type": "address"
        }
      ],
      "stateMutability": "view",
      "type": "function"
    },
    {
      "inputs": [],
      "name": "promptMonstersWallet",
      "outputs": [
        {
          "internalType": "address",
          "name": "",
          "type": "address"
        }
      ],
      "stateMutability": "view",
      "type": "function"
    },
    {
      "inputs": [],
      "name": "proxiableUUID",
      "outputs": [
        {
          "internalType": "bytes32",
          "name": "",
          "type": "bytes32"
        }
      ],
      "stateMutability": "view",
      "type": "function"
    },
    {
      "inputs": [
        {
          "internalType": "bytes32",
          "name": "role",
          "type": "bytes32"
        },
        {
          "internalType": "address",
          "name": "account",
          "type": "address"
        }
      ],
      "name": "renounceRole",
      "outputs": [],
      "stateMutability": "nonpayable",
      "type": "function"
    },
    {
      "inputs": [
        {
          "internalType": "bytes32",
          "name": "role",
          "type": "bytes32"
        },
        {
          "internalType": "address",
          "name": "account",
          "type": "address"
        }
      ],
      "name": "revokeRole",
      "outputs": [],
      "stateMutability": "nonpayable",
      "type": "function"
    },
    {
      "inputs": [
        {
          "internalType": "address",
          "name": "from",
          "type": "address"
        },
        {
          "internalType": "address",
          "name": "to",
          "type": "address"
        },
        {
          "internalType": "uint256",
          "name": "tokenId",
          "type": "uint256"
        }
      ],
      "name": "safeTransferFrom",
      "outputs": [],
      "stateMutability": "nonpayable",
      "type": "function"
    },
    {
      "inputs": [
        {
          "internalType": "address",
          "name": "from",
          "type": "address"
        },
        {
          "internalType": "address",
          "name": "to",
          "type": "address"
        },
        {
          "internalType": "uint256",
          "name": "tokenId",
          "type": "uint256"
        },
        {
          "internalType": "bytes",
          "name": "data",
          "type": "bytes"
        }
      ],
      "name": "safeTransferFrom",
      "outputs": [],
      "stateMutability": "nonpayable",
      "type": "function"
    },
    {
      "inputs": [
        {
          "internalType": "address",
          "name": "operator",
          "type": "address"
        },
        {
          "internalType": "bool",
          "name": "approved",
          "type": "bool"
        }
      ],
      "name": "setApprovalForAll",
      "outputs": [],
      "stateMutability": "nonpayable",
      "type": "function"
    },
    {
      "inputs": [
        {
          "internalType": "address",
          "name": "newState_",
          "type": "address"
        }
      ],
      "name": "setErc20",
      "outputs": [],
      "stateMutability": "nonpayable",
      "type": "function"
    },
    {
      "inputs": [
        {
          "internalType": "string",
          "name": "newState_",
          "type": "string"
        }
      ],
      "name": "setExternalLink",
      "outputs": [],
      "stateMutability": "nonpayable",
      "type": "function"
    },
    {
      "inputs": [
        {
          "internalType": "uint256",
          "name": "newState_",
          "type": "uint256"
        }
      ],
      "name": "setMintPrice",
      "outputs": [],
      "stateMutability": "nonpayable",
      "type": "function"
    },
    {
      "inputs": [
        {
          "internalType": "address",
          "name": "newState_",
          "type": "address"
        }
      ],
      "name": "setPromptMonstersWallet",
      "outputs": [],
      "stateMutability": "nonpayable",
      "type": "function"
    },
    {
      "inputs": [
        {
          "internalType": "bytes4",
          "name": "interfaceId",
          "type": "bytes4"
        }
      ],
      "name": "supportsInterface",
      "outputs": [
        {
          "internalType": "bool",
          "name": "",
          "type": "bool"
        }
      ],
      "stateMutability": "view",
      "type": "function"
    },
    {
      "inputs": [],
      "name": "symbol",
      "outputs": [
        {
          "internalType": "string",
          "name": "",
          "type": "string"
        }
      ],
      "stateMutability": "view",
      "type": "function"
    },
    {
      "inputs": [
        {
          "internalType": "uint256",
          "name": "tokenId_",
          "type": "uint256"
        }
      ],
      "name": "tokenURI",
      "outputs": [
        {
          "internalType": "string",
          "name": "uri",
          "type": "string"
        }
      ],
      "stateMutability": "view",
      "type": "function"
    },
    {
      "inputs": [
        {
          "internalType": "address",
          "name": "from",
          "type": "address"
        },
        {
          "internalType": "address",
          "name": "to",
          "type": "address"
        },
        {
          "internalType": "uint256",
          "name": "tokenId",
          "type": "uint256"
        }
      ],
      "name": "transferFrom",
      "outputs": [],
      "stateMutability": "nonpayable",
      "type": "function"
    },
    {
      "inputs": [
        {
          "internalType": "address",
          "name": "newImplementation",
          "type": "address"
        }
      ],
      "name": "upgradeTo",
      "outputs": [],
      "stateMutability": "nonpayable",
      "type": "function"
    },
    {
      "inputs": [
        {
          "internalType": "address",
          "name": "newImplementation",
          "type": "address"
        },
        {
          "internalType": "bytes",
          "name": "data",
          "type": "bytes"
        }
      ],
      "name": "upgradeToAndCall",
      "outputs": [],
      "stateMutability": "payable",
      "type": "function"
    }
  ],
  "bytecode": "0x60a0604052306080523480156200001557600080fd5b506200002062000026565b620000e8565b600054610100900460ff1615620000935760405162461bcd60e51b815260206004820152602760248201527f496e697469616c697a61626c653a20636f6e747261637420697320696e697469604482015266616c697a696e6760c81b606482015260840160405180910390fd5b60005460ff9081161015620000e6576000805460ff191660ff9081179091556040519081527f7f26b83ff96e1f2b6a682f133852f6798a09c465da95921460cefb38474024989060200160405180910390a15b565b608051615b9b6200012060003960008181610be301528181610c2301528181610d0501528181610d450152610dd40152615b9b6000f3fe6080604052600436106102465760003560e01c80636a62784211610139578063b88d4fde116100b6578063e4bab3f51161007a578063e4bab3f5146106e2578063e8a3d48514610702578063e985e9c514610717578063ee9b80a414610760578063ef134f7614610780578063f4a0a528146107a057600080fd5b8063b88d4fde14610635578063c4b64f2614610655578063c87b56dd14610682578063ca15c873146106a2578063d547741f146106c257600080fd5b806391d14854116100fd57806391d148541461059e57806395d89b41146105be578063a217fddf146105d3578063a22cb465146105e8578063b2664c2e1461060857600080fd5b80636a627842146104fd57806370a082311461051d578063785e9e861461053d578063831864651461055e5780639010d07c1461057e57600080fd5b806336568abe116101c757806352d1902d1161018b57806352d1902d1461047b57806352dd29d21461049057806355b09456146104a65780636352211e146104c65780636817c76c146104e657600080fd5b806336568abe146103e85780633659cfe61461040857806342842e0e1461042857806342966c68146104485780634f1ef2861461046857600080fd5b8063145f0fa91161020e578063145f0fa9146103295780631f9179211461034a57806323b872dd1461036a578063248a9ca31461038a5780632f2ff15d146103c857600080fd5b806301ffc9a71461024b57806306fdde0314610280578063081812fc146102a2578063095ea7b3146102da5780630fd7efc4146102fc575b600080fd5b34801561025757600080fd5b5061026b6102663660046144ac565b6107c0565b60405190151581526020015b60405180910390f35b34801561028c57600080fd5b506102956107d1565b6040516102779190614519565b3480156102ae57600080fd5b506102c26102bd36600461452c565b610863565b6040516001600160a01b039091168152602001610277565b3480156102e657600080fd5b506102fa6102f5366004614561565b61088a565b005b34801561030857600080fd5b5061031c61031736600461458b565b6109a4565b60405161027791906145a6565b34801561033557600080fd5b50610192546102c2906001600160a01b031681565b34801561035657600080fd5b506102fa6103653660046146c8565b610a11565b34801561037657600080fd5b506102fa6103853660046146fc565b610b05565b34801561039657600080fd5b506103ba6103a536600461452c565b60009081526097602052604090206001015490565b604051908152602001610277565b3480156103d457600080fd5b506102fa6103e3366004614738565b610b36565b3480156103f457600080fd5b506102fa610403366004614738565b610b5b565b34801561041457600080fd5b506102fa61042336600461458b565b610bd9565b34801561043457600080fd5b506102fa6104433660046146fc565b610cb8565b34801561045457600080fd5b506102fa61046336600461452c565b610cd3565b6102fa610476366004614764565b610cfb565b34801561048757600080fd5b506103ba610dc7565b34801561049c57600080fd5b50610198546103ba565b3480156104b257600080fd5b506102fa6104c13660046147b1565b610e7a565b3480156104d257600080fd5b506102c26104e136600461452c565b61103c565b3480156104f257600080fd5b506103ba6101935481565b34801561050957600080fd5b506102fa61051836600461458b565b61109c565b34801561052957600080fd5b506103ba61053836600461458b565b6116f8565b34801561054957600080fd5b50610191546102c2906001600160a01b031681565b34801561056a57600080fd5b506102fa61057936600461452c565b61177e565b34801561058a57600080fd5b506102c2610599366004614818565b6117ff565b3480156105aa57600080fd5b5061026b6105b9366004614738565b61181e565b3480156105ca57600080fd5b50610295611849565b3480156105df57600080fd5b506103ba600081565b3480156105f457600080fd5b506102fa610603366004614848565b611858565b34801561061457600080fd5b506106286106233660046148a2565b611863565b6040516102779190614a92565b34801561064157600080fd5b506102fa610650366004614af4565b611c29565b34801561066157600080fd5b5061067561067036600461458b565b611c61565b6040516102779190614b5b565b34801561068e57600080fd5b5061029561069d36600461452c565b611f18565b3480156106ae57600080fd5b506103ba6106bd36600461452c565b61225f565b3480156106ce57600080fd5b506102fa6106dd366004614738565b612276565b3480156106ee57600080fd5b506102fa6106fd36600461458b565b61229b565b34801561070e57600080fd5b50610295612313565b34801561072357600080fd5b5061026b610732366004614b6e565b6001600160a01b039182166000908152606a6020908152604080832093909416825291909152205460ff1690565b34801561076c57600080fd5b506102fa61077b36600461458b565b612399565b34801561078c57600080fd5b506102fa61079b366004614c48565b612411565b3480156107ac57600080fd5b506102fa6107bb36600461452c565b6125a3565b60006107cb826125ef565b92915050565b6060606580546107e090614db5565b80601f016020809104026020016040519081016040528092919081815260200182805461080c90614db5565b80156108595780601f1061082e57610100808354040283529160200191610859565b820191906000526020600020905b81548152906001019060200180831161083c57829003601f168201915b5050505050905090565b600061086e82612614565b506000908152606960205260409020546001600160a01b031690565b60006108958261103c565b9050806001600160a01b0316836001600160a01b0316036109075760405162461bcd60e51b815260206004820152602160248201527f4552433732313a20617070726f76616c20746f2063757272656e74206f776e656044820152603960f91b60648201526084015b60405180910390fd5b336001600160a01b038216148061092357506109238133610732565b6109955760405162461bcd60e51b815260206004820152603d60248201527f4552433732313a20617070726f76652063616c6c6572206973206e6f7420746f60448201527f6b656e206f776e6572206f7220617070726f76656420666f7220616c6c00000060648201526084016108fe565b61099f8383612673565b505050565b6001600160a01b03811660009081526101976020908152604091829020805483518184028101840190945280845260609392830182828015610a0557602002820191906000526020600020905b8154815260200190600101908083116109f1575b50505050509050919050565b6000610a1c816126e1565b60006101948054610a2c90614db5565b80601f0160208091040260200160405190810160405280929190818152602001828054610a5890614db5565b8015610aa55780601f10610a7a57610100808354040283529160200191610aa5565b820191906000526020600020905b815481529060010190602001808311610a8857829003601f168201915b50505050509050826101949081610abc9190614e3d565b50336001600160a01b03167ffceab947acbd3281d41fa085ba6d9503467fabd9e3d96e3ee0dbf6f8b04a9ca48285604051610af8929190614efc565b60405180910390a2505050565b610b0f33826126eb565b610b2b5760405162461bcd60e51b81526004016108fe90614f21565b61099f83838361276a565b600082815260976020526040902060010154610b51816126e1565b61099f83836128db565b6001600160a01b0381163314610bcb5760405162461bcd60e51b815260206004820152602f60248201527f416363657373436f6e74726f6c3a2063616e206f6e6c792072656e6f756e636560448201526e103937b632b9903337b91039b2b63360891b60648201526084016108fe565b610bd582826128fd565b5050565b6001600160a01b037f0000000000000000000000000000000000000000000000000000000000000000163003610c215760405162461bcd60e51b81526004016108fe90614f6e565b7f00000000000000000000000000000000000000000000000000000000000000006001600160a01b0316610c6a600080516020615adf833981519152546001600160a01b031690565b6001600160a01b031614610c905760405162461bcd60e51b81526004016108fe90614fba565b610c998161291f565b60408051600080825260208201909252610cb59183919061292a565b50565b61099f83838360405180602001604052806000815250611c29565b610cdb612a95565b610cf033610cea6000806117ff565b83610cb8565b610cb5600161015f55565b6001600160a01b037f0000000000000000000000000000000000000000000000000000000000000000163003610d435760405162461bcd60e51b81526004016108fe90614f6e565b7f00000000000000000000000000000000000000000000000000000000000000006001600160a01b0316610d8c600080516020615adf833981519152546001600160a01b031690565b6001600160a01b031614610db25760405162461bcd60e51b81526004016108fe90614fba565b610dbb8261291f565b610bd58282600161292a565b6000306001600160a01b037f00000000000000000000000000000000000000000000000000000000000000001614610e675760405162461bcd60e51b815260206004820152603860248201527f555550535570677261646561626c653a206d757374206e6f742062652063616c60448201527f6c6564207468726f7567682064656c656761746563616c6c000000000000000060648201526084016108fe565b50600080516020615adf83398151915290565b600054610100900460ff1615808015610e9a5750600054600160ff909116105b80610eb45750303b158015610eb4575060005460ff166001145b610f175760405162461bcd60e51b815260206004820152602e60248201527f496e697469616c697a61626c653a20636f6e747261637420697320616c72656160448201526d191e481a5b9a5d1a585b1a5e995960921b60648201526084016108fe565b6000805460ff191660011790558015610f3a576000805461ff0019166101001790555b610f866040518060400160405280600f81526020016e50726f6d7074204d6f6e737465727360881b8152506040518060400160405280600381526020016226a7a760e91b815250612af8565b610f8e612b29565b610f96612b29565b610f9e612b52565b610fa96000336128db565b610194610fb68682614e3d565b5061019180546001600160a01b038087166001600160a01b0319928316179092556101938590556101928054928516929091169190911790558015611035576000805461ff0019169055604051600181527f7f26b83ff96e1f2b6a682f133852f6798a09c465da95921460cefb38474024989060200160405180910390a15b5050505050565b6000818152606760205260408120546001600160a01b0316806107cb5760405162461bcd60e51b8152602060048201526018602482015277115490cdcc8c4e881a5b9d985b1a59081d1bdad95b88125160421b60448201526064016108fe565b61019354610191546040516370a0823160e01b81523360048201526001600160a01b03909116906370a0823190602401602060405180830381865afa1580156110e9573d6000803e3d6000fd5b505050506040513d601f19601f8201168201806040525081019061110d9190615006565b10156111715760405162461bcd60e51b815260206004820152602d60248201527f50726f6d70744d6f6e73746572733a20696e73756666696369656e74204d434860448201526c20436f696e2062616c616e636560981b60648201526084016108fe565b6001600160a01b03811660009081526101966020526040808220815161018081019092528054829082906111a490614db5565b80601f01602080910402602001604051908101604052809291908181526020018280546111d090614db5565b801561121d5780601f106111f25761010080835404028352916020019161121d565b820191906000526020600020905b81548152906001019060200180831161120057829003601f168201915b5050505050815260200160018201805461123690614db5565b80601f016020809104026020016040519081016040528092919081815260200182805461126290614db5565b80156112af5780601f10611284576101008083540402835291602001916112af565b820191906000526020600020905b81548152906001019060200180831161129257829003601f168201915b5050505050815260200160028201805480602002602001604051908101604052809291908181526020016000905b828210156113895783829060005260206000200180546112fc90614db5565b80601f016020809104026020016040519081016040528092919081815260200182805461132890614db5565b80156113755780601f1061134a57610100808354040283529160200191611375565b820191906000526020600020905b81548152906001019060200180831161135857829003601f168201915b5050505050815260200190600101906112dd565b505050908252506003919091015463ffffffff8082166020840152600160201b820481166040840152600160401b82048116606080850191909152600160601b830482166080850152600160801b8304821660a0850152600160a01b8304821660c0850152600160c01b8304821660e085015261ffff600160e01b84048116610100860152600160f01b909304909216610120909301929092528201519192501660000361148a5760405162461bcd60e51b815260206004820152602860248201527f50726f6d70744d6f6e73746572733a206d6f6e73746572206973206e6f742067604482015267195b995c985d195960c21b60648201526084016108fe565b61019854600181016114ec5760405162461bcd60e51b815260206004820152602560248201527f50726f6d70744d6f6e73746572733a20746f6b656e20494420697320746f6f206044820152646c6172676560d81b60648201526084016108fe565b6101988054600181018255600091909152825183916004027f3f539f465397ab387efa93a617e37005205c037386b5b474fcfac82f47f77f0d019081906115339082614e3d565b50602082015160018201906115489082614e3d565b5060408201518051611564916002840191602090910190614351565b5060608201516003919091018054608084015160a085015160c086015160e08701516101008801516101208901516101408a0151610160909a015163ffffffff998a1667ffffffffffffffff1990981697909717600160201b968a16969096029590951767ffffffffffffffff60401b1916600160401b9489169490940263ffffffff60601b191693909317600160601b928816929092029190911767ffffffffffffffff60801b1916600160801b9187169190910263ffffffff60a01b191617600160a01b918616919091021765ffffffffffff60c01b1916600160c01b949091169390930261ffff60e01b191692909217600160e01b61ffff94851602176001600160f01b0316600160f01b93909216929092021790556001600160a01b038316600090815261019660205260408120906116a182826143a7565b6116af6001830160006143a7565b6116bd6002830160006143e1565b506000600391909101556101925461019354610191546116ee926001600160a01b0391821692339290911690612b81565b61099f3382612bdb565b60006001600160a01b0382166117625760405162461bcd60e51b815260206004820152602960248201527f4552433732313a2061646472657373207a65726f206973206e6f7420612076616044820152683634b21037bbb732b960b91b60648201526084016108fe565b506001600160a01b031660009081526068602052604090205490565b6000818152606760205260409020546001600160a01b03161515806117a4575060001981145b610cb55760405162461bcd60e51b815260206004820152602660248201527f50726f6d70744d6f6e73746572733a206d6f6e7374657220646f6573206e6f7460448201526508195e1a5cdd60d21b60648201526084016108fe565b600082815260c9602052604081206118179083612bf5565b9392505050565b60009182526097602090815260408084206001600160a01b0393909316845291905290205460ff1690565b6060606680546107e090614db5565b610bd5338383612c01565b805161019854606091908111156118d05760405162461bcd60e51b815260206004820152602b60248201527f50726f6d70744d6f6e73746572733a20746f6b656e4964734c656e677468206960448201526a7320746f6f206c6172676560a81b60648201526084016108fe565b806001600160401b038111156118e8576118e86145ea565b60405190808252806020026020018201604052801561192157816020015b61190e6143ff565b8152602001906001900390816119065790505b50915060005b81811015611c22576101988482815181106119445761194461501f565b60200260200101518154811061195c5761195c61501f565b90600052602060002090600402016040518061018001604052908160008201805461198690614db5565b80601f01602080910402602001604051908101604052809291908181526020018280546119b290614db5565b80156119ff5780601f106119d4576101008083540402835291602001916119ff565b820191906000526020600020905b8154815290600101906020018083116119e257829003601f168201915b50505050508152602001600182018054611a1890614db5565b80601f0160208091040260200160405190810160405280929190818152602001828054611a4490614db5565b8015611a915780601f10611a6657610100808354040283529160200191611a91565b820191906000526020600020905b815481529060010190602001808311611a7457829003601f168201915b5050505050815260200160028201805480602002602001604051908101604052809291908181526020016000905b82821015611b6b578382906000526020600020018054611ade90614db5565b80601f0160208091040260200160405190810160405280929190818152602001828054611b0a90614db5565b8015611b575780601f10611b2c57610100808354040283529160200191611b57565b820191906000526020600020905b815481529060010190602001808311611b3a57829003601f168201915b505050505081526020019060010190611abf565b505050908252506003919091015463ffffffff8082166020840152600160201b820481166040840152600160401b820481166060840152600160601b820481166080840152600160801b8204811660a0840152600160a01b8204811660c0840152600160c01b82041660e083015261ffff600160e01b82048116610100840152600160f01b90910416610120909101528351849083908110611c0f57611c0f61501f565b6020908102919091010152600101611927565b5050919050565b611c3333836126eb565b611c4f5760405162461bcd60e51b81526004016108fe90614f21565b611c5b84848484612ccf565b50505050565b611c696143ff565b6001600160a01b038216600090815261019660205260409081902081516101808101909252805482908290611c9d90614db5565b80601f0160208091040260200160405190810160405280929190818152602001828054611cc990614db5565b8015611d165780601f10611ceb57610100808354040283529160200191611d16565b820191906000526020600020905b815481529060010190602001808311611cf957829003601f168201915b50505050508152602001600182018054611d2f90614db5565b80601f0160208091040260200160405190810160405280929190818152602001828054611d5b90614db5565b8015611da85780601f10611d7d57610100808354040283529160200191611da8565b820191906000526020600020905b815481529060010190602001808311611d8b57829003601f168201915b5050505050815260200160028201805480602002602001604051908101604052809291908181526020016000905b82821015611e82578382906000526020600020018054611df590614db5565b80601f0160208091040260200160405190810160405280929190818152602001828054611e2190614db5565b8015611e6e5780601f10611e4357610100808354040283529160200191611e6e565b820191906000526020600020905b815481529060010190602001808311611e5157829003601f168201915b505050505081526020019060010190611dd6565b505050908252506003919091015463ffffffff8082166020840152600160201b820481166040840152600160401b820481166060840152600160601b820481166080840152600160801b8204811660a0840152600160a01b8204811660c0840152600160c01b82041660e083015261ffff600160e01b82048116610100840152600160f01b909104166101209091015292915050565b6060611f2382612614565b6000611f2e83612d02565b905060006101988481548110611f4657611f4661501f565b906000526020600020906004020160405180610180016040529081600082018054611f7090614db5565b80601f0160208091040260200160405190810160405280929190818152602001828054611f9c90614db5565b8015611fe95780601f10611fbe57610100808354040283529160200191611fe9565b820191906000526020600020905b815481529060010190602001808311611fcc57829003601f168201915b5050505050815260200160018201805461200290614db5565b80601f016020809104026020016040519081016040528092919081815260200182805461202e90614db5565b801561207b5780601f106120505761010080835404028352916020019161207b565b820191906000526020600020905b81548152906001019060200180831161205e57829003601f168201915b5050505050815260200160028201805480602002602001604051908101604052809291908181526020016000905b828210156121555783829060005260206000200180546120c890614db5565b80601f01602080910402602001604051908101604052809291908181526020018280546120f490614db5565b80156121415780601f1061211657610100808354040283529160200191612141565b820191906000526020600020905b81548152906001019060200180831161212457829003601f168201915b5050505050815260200190600101906120a9565b505050908252506003919091015463ffffffff808216602080850191909152600160201b830482166040850152600160401b830482166060850152600160601b830482166080850152600160801b8304821660a0850152600160a01b8304821660c0850152600160c01b830490911660e084015261ffff600160e01b83048116610100850152600160f01b90920490911661012090920191909152815190820151919250600091612230919061220a8661321a565b60405160200161221c93929190615051565b60405160208183030381529060405261321a565b90506000816040516020016122459190615114565b60408051601f198184030181529190529695505050505050565b600081815260c9602052604081206107cb9061336c565b600082815260976020526040902060010154612291816126e1565b61099f83836128fd565b60006122a6816126e1565b61019280546001600160a01b038481166001600160a01b0319831617909255166122cd3390565b604080516001600160a01b038481168252868116602083015292909216917fc791f304f706b4012579cd651a8a0d930c30d117f42ee74327000e3fc75bfbbc9101610af8565b6060600061231f6107d1565b90506000816040516020016123349190615159565b6040516020818303038152906040529050600061236b83846123558561321a565b61019460405160200161221c9493929190615306565b90506000816040516020016123809190615114565b60408051601f1981840301815291905295945050505050565b60006123a4816126e1565b61019180546001600160a01b038481166001600160a01b0319831617909255166123cb3390565b604080516001600160a01b038481168252868116602083015292909216917f5ebe54482b2a8120482902e3bfe9ca1a913e9987bcb1f18c974dae585132a9549101610af8565b600061241c816126e1565b612424612a95565b6001600160a01b0383166000908152610196602052604090208251839190819061244e9082614e3d565b50602082015160018201906124639082614e3d565b506040820151805161247f916002840191602090910190614351565b5060608201516003919091018054608084015160a085015160c086015160e08701516101008801516101208901516101408a0151610160909a015163ffffffff998a1667ffffffffffffffff1990981697909717600160201b968a16969096029590951767ffffffffffffffff60401b1916600160401b9489169490940263ffffffff60601b191693909317600160601b928816929092029190911767ffffffffffffffff60801b1916600160801b9187169190910263ffffffff60a01b191617600160a01b918616919091021765ffffffffffff60c01b1916600160c01b949091169390930261ffff60e01b191692909217600160e01b61ffff94851602176001600160f01b0316600160f01b9390921692909202179055600161015f55505050565b60006125ae816126e1565b610193805490839055604080518281526020810185905233917f55cc83342b4c144a74960fdf0dfe1a7af4cbb77aaccb471b088d5fe0bdad1d4c9101610af8565b60006001600160e01b03198216635a05180f60e01b14806107cb57506107cb82613376565b6000818152606760205260409020546001600160a01b0316610cb55760405162461bcd60e51b8152602060048201526018602482015277115490cdcc8c4e881a5b9d985b1a59081d1bdad95b88125160421b60448201526064016108fe565b600081815260696020526040902080546001600160a01b0319166001600160a01b03841690811790915581906126a88261103c565b6001600160a01b03167f8c5be1e5ebec7d5bd14f71427d1e84f3dd0314c0f7b2291e5b200ac8c7c3b92560405160405180910390a45050565b610cb5813361339b565b6000806126f78361103c565b9050806001600160a01b0316846001600160a01b0316148061273e57506001600160a01b038082166000908152606a602090815260408083209388168352929052205460ff165b806127625750836001600160a01b031661275784610863565b6001600160a01b0316145b949350505050565b826001600160a01b031661277d8261103c565b6001600160a01b0316146127a35760405162461bcd60e51b81526004016108fe90615473565b6001600160a01b0382166128055760405162461bcd60e51b8152602060048201526024808201527f4552433732313a207472616e7366657220746f20746865207a65726f206164646044820152637265737360e01b60648201526084016108fe565b61281283838360016133f4565b826001600160a01b03166128258261103c565b6001600160a01b03161461284b5760405162461bcd60e51b81526004016108fe90615473565b600081815260696020908152604080832080546001600160a01b03199081169091556001600160a01b0387811680865260688552838620805460001901905590871680865283862080546001019055868652606790945282852080549092168417909155905184937fddf252ad1be2c89b69c2b068fc378daa952ba7f163c4a11628f55a4df523b3ef91a4505050565b6128e5828261343d565b600082815260c96020526040902061099f90826134c3565b61290782826134d8565b600082815260c96020526040902061099f908261353f565b6000610bd5816126e1565b7f4910fdfa16fed3260ed0e7147f7cc6da11a60208b5b9406d12a635614ffd91435460ff161561295d5761099f83613554565b826001600160a01b03166352d1902d6040518163ffffffff1660e01b8152600401602060405180830381865afa9250505080156129b7575060408051601f3d908101601f191682019092526129b491810190615006565b60015b612a1a5760405162461bcd60e51b815260206004820152602e60248201527f45524331393637557067726164653a206e657720696d706c656d656e7461746960448201526d6f6e206973206e6f74205555505360901b60648201526084016108fe565b600080516020615adf8339815191528114612a895760405162461bcd60e51b815260206004820152602960248201527f45524331393637557067726164653a20756e737570706f727465642070726f786044820152681a58589b195555525160ba1b60648201526084016108fe565b5061099f8383836135f0565b600261015f5403612ae85760405162461bcd60e51b815260206004820152601f60248201527f5265656e7472616e637947756172643a207265656e7472616e742063616c6c0060448201526064016108fe565b600261015f55565b600161015f55565b600054610100900460ff16612b1f5760405162461bcd60e51b81526004016108fe906154b8565b610bd58282613615565b600054610100900460ff16612b505760405162461bcd60e51b81526004016108fe906154b8565b565b600054610100900460ff16612b795760405162461bcd60e51b81526004016108fe906154b8565b612b50613655565b604080516001600160a01b0385811660248301528416604482015260648082018490528251808303909101815260849091019091526020810180516001600160e01b03166323b872dd60e01b179052611c5b90859061367c565b610bd582826040518060200160405280600081525061374e565b60006118178383613781565b816001600160a01b0316836001600160a01b031603612c625760405162461bcd60e51b815260206004820152601960248201527f4552433732313a20617070726f766520746f2063616c6c65720000000000000060448201526064016108fe565b6001600160a01b038381166000818152606a6020908152604080832094871680845294825291829020805460ff191686151590811790915591519182527f17307eab39ab6107e8899845ad3d59bd9653f200f220920489ca2b5937696c31910160405180910390a3505050565b612cda84848461276a565b612ce6848484846137ab565b611c5b5760405162461bcd60e51b81526004016108fe90615503565b606060006101988381548110612d1a57612d1a61501f565b906000526020600020906004020160405180610180016040529081600082018054612d4490614db5565b80601f0160208091040260200160405190810160405280929190818152602001828054612d7090614db5565b8015612dbd5780601f10612d9257610100808354040283529160200191612dbd565b820191906000526020600020905b815481529060010190602001808311612da057829003601f168201915b50505050508152602001600182018054612dd690614db5565b80601f0160208091040260200160405190810160405280929190818152602001828054612e0290614db5565b8015612e4f5780601f10612e2457610100808354040283529160200191612e4f565b820191906000526020600020905b815481529060010190602001808311612e3257829003601f168201915b5050505050815260200160028201805480602002602001604051908101604052809291908181526020016000905b82821015612f29578382906000526020600020018054612e9c90614db5565b80601f0160208091040260200160405190810160405280929190818152602001828054612ec890614db5565b8015612f155780601f10612eea57610100808354040283529160200191612f15565b820191906000526020600020905b815481529060010190602001808311612ef857829003601f168201915b505050505081526020019060010190612e7d565b505050908252506003919091015463ffffffff8082166020840152600160201b820481166040840152600160401b820481166060840152600160601b820481166080840152600160801b8204811660a0840152600160a01b8204811660c0840152600160c01b82041660e083015261ffff600160e01b82048116610100840152600160f01b90910416610120909101528051909150612fcd90600a906014906138ac565b61300b600a603c612fe7856060015163ffffffff166138eb565b604051602001612ff79190615555565b6040516020818303038152906040526138ac565b613035600a6064613025866080015163ffffffff166138eb565b604051602001612ff79190615581565b61305f600a607861304f8760a0015163ffffffff166138eb565b604051602001612ff791906155a0565b613089600a608c6130798860c0015163ffffffff166138eb565b604051602001612ff791906155cd565b6130b3600a60a06130a38960e0015163ffffffff166138eb565b604051602001612ff791906155ed565b6130de600a60b46130ce8a610100015163ffffffff166138eb565b604051602001612ff7919061560d565b613109600a60c86130f98b610120015163ffffffff166138eb565b604051602001612ff7919061562d565b60405160200161312098979695949392919061564d565b60408051601f19818403018152919052915060f060005b8260400151518110156131f05761016083015161ffff166131598260016157ef565b116131f057836131bb600a61316f846014615802565b61317990866157ef565b61318c6131878660016157ef565b6138eb565b876040015186815181106131a2576131a261501f565b6020026020010151604051602001612ff7929190615819565b6040516020016131cc929190615867565b604051602081830303815290604052935080806131e890615896565b915050613137565b508260405160200161320291906158af565b60405160208183030381529060405292505050919050565b6060815160000361323957505060408051602081019091526000815290565b6000604051806060016040528060408152602001615aff604091399050600060038451600261326891906157ef565b61327291906158d9565b61327d906004615802565b6001600160401b03811115613294576132946145ea565b6040519080825280601f01601f1916602001820160405280156132be576020820181803683370190505b509050600182016020820185865187015b8082101561332a576003820191508151603f8160121c168501518453600184019350603f81600c1c168501518453600184019350603f8160061c168501518453600184019350603f81168501518453506001830192506132cf565b5050600386510660018114613346576002811461335957613361565b603d6001830353603d6002830353613361565b603d60018303535b509195945050505050565b60006107cb825490565b60006001600160e01b03198216637965db0b60e01b14806107cb57506107cb8261397d565b6133a5828261181e565b610bd5576133b2816139cd565b6133bd8360206139df565b6040516020016133ce9291906158fb565b60408051601f198184030181529082905262461bcd60e51b82526108fe91600401614519565b6001600160a01b0384166134115761340c8383613b7a565b611c5b565b6001600160a01b0383166134295761340c8483613bbf565b6134338483613bbf565b61340c8383613b7a565b613447828261181e565b610bd55760008281526097602090815260408083206001600160a01b03851684529091529020805460ff1916600117905561347f3390565b6001600160a01b0316816001600160a01b0316837f2f8788117e7eff1d82e926ec794901d17c78024a50270940304540a733656f0d60405160405180910390a45050565b6000611817836001600160a01b038416613cc4565b6134e2828261181e565b15610bd55760008281526097602090815260408083206001600160a01b0385168085529252808320805460ff1916905551339285917ff6391f5c32d9c69d2a47ea670b442974b53935d1edc7fd64eb21e047a839171b9190a45050565b6000611817836001600160a01b038416613d13565b6001600160a01b0381163b6135c15760405162461bcd60e51b815260206004820152602d60248201527f455243313936373a206e657720696d706c656d656e746174696f6e206973206e60448201526c1bdd08184818dbdb9d1c9858dd609a1b60648201526084016108fe565b600080516020615adf83398151915280546001600160a01b0319166001600160a01b0392909216919091179055565b6135f983613e06565b6000825111806136065750805b1561099f57611c5b8383613e46565b600054610100900460ff1661363c5760405162461bcd60e51b81526004016108fe906154b8565b60656136488382614e3d565b50606661099f8282614e3d565b600054610100900460ff16612af05760405162461bcd60e51b81526004016108fe906154b8565b60006136d1826040518060400160405280602081526020017f5361666545524332303a206c6f772d6c6576656c2063616c6c206661696c6564815250856001600160a01b0316613f3a9092919063ffffffff16565b80519091501561099f57808060200190518101906136ef9190615970565b61099f5760405162461bcd60e51b815260206004820152602a60248201527f5361666545524332303a204552433230206f7065726174696f6e20646964206e6044820152691bdd081cdd58d8d9595960b21b60648201526084016108fe565b6137588383613f49565b61376560008484846137ab565b61099f5760405162461bcd60e51b81526004016108fe90615503565b60008260000182815481106137985761379861501f565b9060005260206000200154905092915050565b60006001600160a01b0384163b156138a157604051630a85bd0160e11b81526001600160a01b0385169063150b7a02906137ef90339089908890889060040161598d565b6020604051808303816000875af192505050801561382a575060408051601f3d908101601f19168201909252613827918101906159ca565b60015b613887573d808015613858576040519150601f19603f3d011682016040523d82523d6000602084013e61385d565b606091505b50805160000361387f5760405162461bcd60e51b81526004016108fe90615503565b805181602001fd5b6001600160e01b031916630a85bd0160e11b149050612762565b506001949350505050565b60606138b7846138eb565b6138c0846138eb565b836040516020016138d3939291906159e7565b60405160208183030381529060405290509392505050565b606060006138f8836140e2565b60010190506000816001600160401b03811115613917576139176145ea565b6040519080825280601f01601f191660200182016040528015613941576020820181803683370190505b5090508181016020015b600019016f181899199a1a9b1b9c1cb0b131b232b360811b600a86061a8153600a850494508461394b57509392505050565b60006001600160e01b031982166380ac58cd60e01b14806139ae57506001600160e01b03198216635b5e139f60e01b145b806107cb57506301ffc9a760e01b6001600160e01b03198316146107cb565b60606107cb6001600160a01b03831660145b606060006139ee836002615802565b6139f99060026157ef565b6001600160401b03811115613a1057613a106145ea565b6040519080825280601f01601f191660200182016040528015613a3a576020820181803683370190505b509050600360fc1b81600081518110613a5557613a5561501f565b60200101906001600160f81b031916908160001a905350600f60fb1b81600181518110613a8457613a8461501f565b60200101906001600160f81b031916908160001a9053506000613aa8846002615802565b613ab39060016157ef565b90505b6001811115613b2b576f181899199a1a9b1b9c1cb0b131b232b360811b85600f1660108110613ae757613ae761501f565b1a60f81b828281518110613afd57613afd61501f565b60200101906001600160f81b031916908160001a90535060049490941c93613b2481615a82565b9050613ab6565b5083156118175760405162461bcd60e51b815260206004820181905260248201527f537472696e67733a20686578206c656e67746820696e73756666696369656e7460448201526064016108fe565b6001600160a01b039091166000908152610197602081815260408084208054610195845282862087875284529185208290559282526001810183559183529091200155565b6001600160a01b0382166000908152610197602052604081208054613be690600190615a99565b81548110613bf657613bf661501f565b90600052602060002001549050808214613c5d576001600160a01b0383166000818152610195602090815260408083208684528252808320549383526101979091529020805483919083908110613c4f57613c4f61501f565b600091825260209091200155505b6001600160a01b038316600090815261019760205260409020805480613c8557613c85615aac565b6000828152602080822083016000199081018390559092019092556001600160a01b039094168152610195845260408082209382529290935250812055565b6000818152600183016020526040812054613d0b575081546001818101845560008481526020808220909301849055845484825282860190935260409020919091556107cb565b5060006107cb565b60008181526001830160205260408120548015613dfc576000613d37600183615a99565b8554909150600090613d4b90600190615a99565b9050818114613db0576000866000018281548110613d6b57613d6b61501f565b9060005260206000200154905080876000018481548110613d8e57613d8e61501f565b6000918252602080832090910192909255918252600188019052604090208390555b8554869080613dc157613dc1615aac565b6001900381819060005260206000200160009055905585600101600086815260200190815260200160002060009055600193505050506107cb565b60009150506107cb565b613e0f81613554565b6040516001600160a01b038216907fbc7cd75a20ee27fd9adebab32041f755214dbc6bffa90cc0225b39da2e5c2d3b90600090a250565b60606001600160a01b0383163b613eae5760405162461bcd60e51b815260206004820152602660248201527f416464726573733a2064656c65676174652063616c6c20746f206e6f6e2d636f6044820152651b9d1c9858dd60d21b60648201526084016108fe565b600080846001600160a01b031684604051613ec99190615ac2565b600060405180830381855af49150503d8060008114613f04576040519150601f19603f3d011682016040523d82523d6000602084013e613f09565b606091505b5091509150613f318282604051806060016040528060278152602001615b3f602791396141ba565b95945050505050565b606061276284846000856141d3565b6001600160a01b038216613f9f5760405162461bcd60e51b815260206004820181905260248201527f4552433732313a206d696e7420746f20746865207a65726f206164647265737360448201526064016108fe565b6000818152606760205260409020546001600160a01b0316156140045760405162461bcd60e51b815260206004820152601c60248201527f4552433732313a20746f6b656e20616c7265616479206d696e7465640000000060448201526064016108fe565b6140126000838360016133f4565b6000818152606760205260409020546001600160a01b0316156140775760405162461bcd60e51b815260206004820152601c60248201527f4552433732313a20746f6b656e20616c7265616479206d696e7465640000000060448201526064016108fe565b6001600160a01b038216600081815260686020908152604080832080546001019055848352606790915280822080546001600160a01b0319168417905551839291907fddf252ad1be2c89b69c2b068fc378daa952ba7f163c4a11628f55a4df523b3ef908290a45050565b60008072184f03e93ff9f4daa797ed6e38ed64bf6a1f0160401b83106141215772184f03e93ff9f4daa797ed6e38ed64bf6a1f0160401b830492506040015b6d04ee2d6d415b85acef8100000000831061414d576d04ee2d6d415b85acef8100000000830492506020015b662386f26fc10000831061416b57662386f26fc10000830492506010015b6305f5e1008310614183576305f5e100830492506008015b612710831061419757612710830492506004015b606483106141a9576064830492506002015b600a83106107cb5760010192915050565b606083156141c9575081611817565b61181783836142ae565b6060824710156142345760405162461bcd60e51b815260206004820152602660248201527f416464726573733a20696e73756666696369656e742062616c616e636520666f6044820152651c8818d85b1b60d21b60648201526084016108fe565b600080866001600160a01b031685876040516142509190615ac2565b60006040518083038185875af1925050503d806000811461428d576040519150601f19603f3d011682016040523d82523d6000602084013e614292565b606091505b50915091506142a3878383876142d8565b979650505050505050565b8151156142be5781518083602001fd5b8060405162461bcd60e51b81526004016108fe9190614519565b60608315614347578251600003614340576001600160a01b0385163b6143405760405162461bcd60e51b815260206004820152601d60248201527f416464726573733a2063616c6c20746f206e6f6e2d636f6e747261637400000060448201526064016108fe565b5081612762565b61276283836142ae565b828054828255906000526020600020908101928215614397579160200282015b8281111561439757825182906143879082614e3d565b5091602001919060010190614371565b506143a3929150614464565b5090565b5080546143b390614db5565b6000825580601f106143c3575050565b601f016020900490600052602060002090810190610cb59190614481565b5080546000825590600052602060002090810190610cb59190614464565b604080516101808101825260608082526020820181905291810182905260009181018290526080810182905260a0810182905260c0810182905260e0810182905261010081018290526101208101829052610140810182905261016081019190915290565b808211156143a357600061447882826143a7565b50600101614464565b5b808211156143a35760008155600101614482565b6001600160e01b031981168114610cb557600080fd5b6000602082840312156144be57600080fd5b813561181781614496565b60005b838110156144e45781810151838201526020016144cc565b50506000910152565b600081518084526145058160208601602086016144c9565b601f01601f19169290920160200192915050565b60208152600061181760208301846144ed565b60006020828403121561453e57600080fd5b5035919050565b80356001600160a01b038116811461455c57600080fd5b919050565b6000806040838503121561457457600080fd5b61457d83614545565b946020939093013593505050565b60006020828403121561459d57600080fd5b61181782614545565b6020808252825182820181905260009190848201906040850190845b818110156145de578351835292840192918401916001016145c2565b50909695505050505050565b634e487b7160e01b600052604160045260246000fd5b60405161018081016001600160401b0381118282101715614623576146236145ea565b60405290565b604051601f8201601f191681016001600160401b0381118282101715614651576146516145ea565b604052919050565b600082601f83011261466a57600080fd5b81356001600160401b03811115614683576146836145ea565b614696601f8201601f1916602001614629565b8181528460208386010111156146ab57600080fd5b816020850160208301376000918101602001919091529392505050565b6000602082840312156146da57600080fd5b81356001600160401b038111156146f057600080fd5b61276284828501614659565b60008060006060848603121561471157600080fd5b61471a84614545565b925061472860208501614545565b9150604084013590509250925092565b6000806040838503121561474b57600080fd5b8235915061475b60208401614545565b90509250929050565b6000806040838503121561477757600080fd5b61478083614545565b915060208301356001600160401b0381111561479b57600080fd5b6147a785828601614659565b9150509250929050565b600080600080608085870312156147c757600080fd5b84356001600160401b038111156147dd57600080fd5b6147e987828801614659565b9450506147f860208601614545565b92506040850135915061480d60608601614545565b905092959194509250565b6000806040838503121561482b57600080fd5b50508035926020909101359150565b8015158114610cb557600080fd5b6000806040838503121561485b57600080fd5b61486483614545565b915060208301356148748161483a565b809150509250929050565b60006001600160401b03821115614898576148986145ea565b5060051b60200190565b600060208083850312156148b557600080fd5b82356001600160401b038111156148cb57600080fd5b8301601f810185136148dc57600080fd5b80356148ef6148ea8261487f565b614629565b81815260059190911b8201830190838101908783111561490e57600080fd5b928401925b828410156142a357833582529284019290840190614913565b600081518084526020808501808196508360051b8101915082860160005b858110156149745782840389526149628483516144ed565b9885019893509084019060010161494a565b5091979650505050505050565b60006101808251818552614997828601826144ed565b915050602083015184820360208601526149b182826144ed565b915050604083015184820360408601526149cb828261492c565b91505060608301516149e5606086018263ffffffff169052565b5060808301516149fd608086018263ffffffff169052565b5060a0830151614a1560a086018263ffffffff169052565b5060c0830151614a2d60c086018263ffffffff169052565b5060e0830151614a4560e086018263ffffffff169052565b506101008381015163ffffffff9081169186019190915261012080850151909116908501526101408084015161ffff90811691860191909152610160938401511692909301919091525090565b6000602080830181845280855180835260408601915060408160051b870101925083870160005b82811015614ae757603f19888603018452614ad5858351614981565b94509285019290850190600101614ab9565b5092979650505050505050565b60008060008060808587031215614b0a57600080fd5b614b1385614545565b9350614b2160208601614545565b92506040850135915060608501356001600160401b03811115614b4357600080fd5b614b4f87828801614659565b91505092959194509250565b6020815260006118176020830184614981565b60008060408385031215614b8157600080fd5b614b8a83614545565b915061475b60208401614545565b600082601f830112614ba957600080fd5b81356020614bb96148ea8361487f565b82815260059290921b84018101918181019086841115614bd857600080fd5b8286015b84811015614c175780356001600160401b03811115614bfb5760008081fd5b614c098986838b0101614659565b845250918301918301614bdc565b509695505050505050565b803563ffffffff8116811461455c57600080fd5b803561ffff8116811461455c57600080fd5b60008060408385031215614c5b57600080fd5b614c6483614545565b915060208301356001600160401b0380821115614c8057600080fd5b908401906101808287031215614c9557600080fd5b614c9d614600565b823582811115614cac57600080fd5b614cb888828601614659565b825250602083013582811115614ccd57600080fd5b614cd988828601614659565b602083015250604083013582811115614cf157600080fd5b614cfd88828601614b98565b604083015250614d0f60608401614c22565b6060820152614d2060808401614c22565b6080820152614d3160a08401614c22565b60a0820152614d4260c08401614c22565b60c0820152614d5360e08401614c22565b60e08201526101009150614d68828401614c22565b828201526101209150614d7c828401614c22565b828201526101409150614d90828401614c36565b828201526101609150614da4828401614c36565b828201528093505050509250929050565b600181811c90821680614dc957607f821691505b602082108103614de957634e487b7160e01b600052602260045260246000fd5b50919050565b601f82111561099f57600081815260208120601f850160051c81016020861015614e165750805b601f850160051c820191505b81811015614e3557828155600101614e22565b505050505050565b81516001600160401b03811115614e5657614e566145ea565b614e6a81614e648454614db5565b84614def565b602080601f831160018114614e9f5760008415614e875750858301515b600019600386901b1c1916600185901b178555614e35565b600085815260208120601f198616915b82811015614ece57888601518255948401946001909101908401614eaf565b5085821015614eec5787850151600019600388901b60f8161c191681555b5050505050600190811b01905550565b604081526000614f0f60408301856144ed565b8281036020840152613f3181856144ed565b6020808252602d908201527f4552433732313a2063616c6c6572206973206e6f7420746f6b656e206f776e6560408201526c1c881bdc88185c1c1c9bdd9959609a1b606082015260800190565b6020808252602c908201527f46756e6374696f6e206d7573742062652063616c6c6564207468726f7567682060408201526b19195b1959d85d1958d85b1b60a21b606082015260800190565b6020808252602c908201527f46756e6374696f6e206d7573742062652063616c6c6564207468726f7567682060408201526b6163746976652070726f787960a01b606082015260800190565b60006020828403121561501857600080fd5b5051919050565b634e487b7160e01b600052603260045260246000fd5b600081516150478185602086016144c9565b9290920192915050565b693d913730b6b2911d101160b11b8152835160009061507781600a8501602089016144c9565b72111610113232b9b1b934b83a34b7b7111d101160691b600a9184019182015284516150aa81601d8401602089016144c9565b7f222c2022696d616765223a2022646174613a696d6167652f7376672b786d6c3b601d92909101918201526618985cd94d8d0b60ca1b603d82015283516150f88160448401602088016144c9565b61227d60f01b6044929091019182015260460195945050505050565b7f646174613a6170706c69636174696f6e2f6a736f6e3b6261736536342c00000081526000825161514c81601d8501602087016144c9565b91909101601d0192915050565b7f3c73766720786d6c6e733d27687474703a2f2f7777772e77332e6f72672f323081527f30302f73766727207072657365727665417370656374526174696f3d27784d6960208201527f6e594d696e206d656574272076696577426f783d27302030203335302033353060408201527f273e3c7374796c653e2e62617365207b2066696c6c3a2077686974653b20666f60608201527f6e742d66616d696c793a2073657269663b20666f6e742d73697a653a2032347060808201527f783b207d3c2f7374796c653e3c726563742077696474683d273130302527206860a08201527f65696768743d2731303025272066696c6c3d27626c61636b27202f3e3c74657860c08201527f7420783d273530252720793d273530252720636c6173733d276261736527206460e08201527f6f6d696e616e742d626173656c696e653d276d6964646c652720746578742d616101008201526e3731b437b91e93b6b4b2323632939f60891b610120820152600061012f83516152dd81838601602088016144c9565b83016152fa8282016c1e17ba32bc3a1f1e17b9bb339f60991b9052565b61013c01949350505050565b693d913730b6b2911d101160b11b81528451600090602061532d82600a8601838b016144c9565b72111610113232b9b1b934b83a34b7b7111d101160691b600a92850192830152865161535f81601d8501848b016144c9565b7f2069732047656e657261746976652041492047616d652e222c2022696d616765601d93909101928301527f223a2022646174613a696d6167652f7376672b786d6c3b6261736536342c0000603d83015285516153c281605b8501848a016144c9565b741116101132bc3a32b93730b62fb634b735911d101160591b605b939091019283015284546070906000906153f681614db5565b6001828116801561540e576001811461542757615457565b60ff198416888701528215158302880186019450615457565b8a6000528660002060005b8481101561544d5781548a8201890152908301908801615432565b5050858389010194505b505061227d60f01b835250506002019998505050505050505050565b60208082526025908201527f4552433732313a207472616e736665722066726f6d20696e636f72726563742060408201526437bbb732b960d91b606082015260800190565b6020808252602b908201527f496e697469616c697a61626c653a20636f6e7472616374206973206e6f74206960408201526a6e697469616c697a696e6760a81b606082015260800190565b60208082526032908201527f4552433732313a207472616e7366657220746f206e6f6e20455243373231526560408201527131b2b4bb32b91034b6b83632b6b2b73a32b960711b606082015260800190565b630262b1d160e51b8152600082516155748160048501602087016144c9565b9190910160040192915050565b63024281d160e51b8152600082516155748160048501602087016144c9565b64020aa259d160dd1b8152600082516155c08160058501602087016144c9565b9190910160050192915050565b6402222a31d160dd1b8152600082516155c08160058501602087016144c9565b64024a72a1d160dd1b8152600082516155c08160058501602087016144c9565b64026a3a91d160dd1b8152600082516155c08160058501602087016144c9565b64020a3a61d160dd1b8152600082516155c08160058501602087016144c9565b7f3c73766720786d6c6e733d22687474703a2f2f7777772e77332e6f72672f323081527f30302f73766722207072657365727665417370656374526174696f3d22784d6960208201527f6e594d696e206d656574222076696577426f783d22302030203335302033353060408201527f223e3c7374796c653e2e62617365207b2066696c6c3a2077686974653b20666f60608201527f6e742d66616d696c793a2073657269663b20666f6e742d73697a653a2031347060808201527f783b207d3c2f7374796c653e3c726563742077696474683d223130302522206860a08201527f65696768743d2231303025222066696c6c3d22626c61636b22202f3e0000000060c0820152600089516157698160dc850160208e016144c9565b8951908301906157808160dc840160208e016144c9565b89519101906157968160dc840160208d016144c9565b6157c96157c36157bd6157b76157b160dc868801018e615035565b8c615035565b8a615035565b88615035565b86615035565b9c9b505050505050505050505050565b634e487b7160e01b600052601160045260246000fd5b808201808211156107cb576107cb6157d9565b80820281158282048414176107cb576107cb6157d9565b6414dada5b1b60da1b8152600083516158398160058501602088016144c9565b6101d160f51b600591840191820152835161585b8160078401602088016144c9565b01600701949350505050565b600083516158798184602088016144c9565b83519083019061588d8183602088016144c9565b01949350505050565b6000600182016158a8576158a86157d9565b5060010190565b600082516158c18184602087016144c9565b651e17b9bb339f60d11b920191825250600601919050565b6000826158f657634e487b7160e01b600052601260045260246000fd5b500490565b7f416363657373436f6e74726f6c3a206163636f756e74200000000000000000008152600083516159338160178501602088016144c9565b7001034b99036b4b9b9b4b733903937b6329607d1b60179184019182015283516159648160288401602088016144c9565b01602801949350505050565b60006020828403121561598257600080fd5b81516118178161483a565b6001600160a01b03858116825284166020820152604081018390526080606082018190526000906159c0908301846144ed565b9695505050505050565b6000602082840312156159dc57600080fd5b815161181781614496565b681e3a32bc3a103c1e9160b91b81528351600090615a0c8160098501602089016144c9565b6411103c9e9160d91b6009918401918201528451615a3181600e8401602089016144c9565b6e111031b630b9b99e913130b9b2911f60891b600e92909101918201528351615a6181601d8401602088016144c9565b661e17ba32bc3a1f60c91b601d929091019182015260240195945050505050565b600081615a9157615a916157d9565b506000190190565b818103818111156107cb576107cb6157d9565b634e487b7160e01b600052603160045260246000fd5b60008251615ad48184602087016144c9565b919091019291505056fe360894a13ba1a3210667c828492db98dca3e2076cc3735a920a3ca505d382bbc4142434445464748494a4b4c4d4e4f505152535455565758595a6162636465666768696a6b6c6d6e6f707172737475767778797a303132333435363738392b2f416464726573733a206c6f772d6c6576656c2064656c65676174652063616c6c206661696c6564a26469706673582212205051b0361f3a1b3392794a82729321c161d26931c9be8309f2d61b72a1411aed64736f6c63430008120033",
  "linkReferences": {},
  "deployedLinkReferences": {}
}