{
  "_format": "hh-sol-artifact-1",
  "contractName": "PromptMonsters",
  "sourceName": "contracts/prompt-monsters/PromptMonsters.sol",
  "abi": [
    {
      "inputs": [],
      "stateMutability": "nonpayable",
      "type": "constructor"
    },
    {
      "anonymous": false,
      "inputs": [
        {
          "indexed": false,
          "internalType": "address",
          "name": "previousAdmin",
          "type": "address"
        },
        {
          "indexed": false,
          "internalType": "address",
          "name": "newAdmin",
          "type": "address"
        }
      ],
      "name": "AdminChanged",
      "type": "event"
    },
    {
      "anonymous": false,
      "inputs": [
        {
          "indexed": true,
          "internalType": "address",
          "name": "owner",
          "type": "address"
        },
        {
          "indexed": true,
          "internalType": "address",
          "name": "approved",
          "type": "address"
        },
        {
          "indexed": true,
          "internalType": "uint256",
          "name": "tokenId",
          "type": "uint256"
        }
      ],
      "name": "Approval",
      "type": "event"
    },
    {
      "anonymous": false,
      "inputs": [
        {
          "indexed": true,
          "internalType": "address",
          "name": "owner",
          "type": "address"
        },
        {
          "indexed": true,
          "internalType": "address",
          "name": "operator",
          "type": "address"
        },
        {
          "indexed": false,
          "internalType": "bool",
          "name": "approved",
          "type": "bool"
        }
      ],
      "name": "ApprovalForAll",
      "type": "event"
    },
    {
      "anonymous": false,
      "inputs": [
        {
          "indexed": true,
          "internalType": "address",
          "name": "beacon",
          "type": "address"
        }
      ],
      "name": "BeaconUpgraded",
      "type": "event"
    },
    {
      "anonymous": false,
      "inputs": [
        {
          "indexed": false,
          "internalType": "uint8",
          "name": "version",
          "type": "uint8"
        }
      ],
      "name": "Initialized",
      "type": "event"
    },
    {
      "anonymous": false,
      "inputs": [
        {
          "indexed": true,
          "internalType": "bytes32",
          "name": "role",
          "type": "bytes32"
        },
        {
          "indexed": true,
          "internalType": "bytes32",
          "name": "previousAdminRole",
          "type": "bytes32"
        },
        {
          "indexed": true,
          "internalType": "bytes32",
          "name": "newAdminRole",
          "type": "bytes32"
        }
      ],
      "name": "RoleAdminChanged",
      "type": "event"
    },
    {
      "anonymous": false,
      "inputs": [
        {
          "indexed": true,
          "internalType": "bytes32",
          "name": "role",
          "type": "bytes32"
        },
        {
          "indexed": true,
          "internalType": "address",
          "name": "account",
          "type": "address"
        },
        {
          "indexed": true,
          "internalType": "address",
          "name": "sender",
          "type": "address"
        }
      ],
      "name": "RoleGranted",
      "type": "event"
    },
    {
      "anonymous": false,
      "inputs": [
        {
          "indexed": true,
          "internalType": "bytes32",
          "name": "role",
          "type": "bytes32"
        },
        {
          "indexed": true,
          "internalType": "address",
          "name": "account",
          "type": "address"
        },
        {
          "indexed": true,
          "internalType": "address",
          "name": "sender",
          "type": "address"
        }
      ],
      "name": "RoleRevoked",
      "type": "event"
    },
    {
      "anonymous": false,
      "inputs": [
        {
          "indexed": true,
          "internalType": "address",
          "name": "publisher",
          "type": "address"
        },
        {
          "indexed": false,
          "internalType": "string",
          "name": "oldValue",
          "type": "string"
        },
        {
          "indexed": false,
          "internalType": "string",
          "name": "newValue",
          "type": "string"
        }
      ],
      "name": "SetExternalLink",
      "type": "event"
    },
    {
      "anonymous": false,
      "inputs": [
        {
          "indexed": true,
          "internalType": "address",
          "name": "from",
          "type": "address"
        },
        {
          "indexed": true,
          "internalType": "address",
          "name": "to",
          "type": "address"
        },
        {
          "indexed": true,
          "internalType": "uint256",
          "name": "tokenId",
          "type": "uint256"
        }
      ],
      "name": "Transfer",
      "type": "event"
    },
    {
      "anonymous": false,
      "inputs": [
        {
          "indexed": true,
          "internalType": "address",
          "name": "implementation",
          "type": "address"
        }
      ],
      "name": "Upgraded",
      "type": "event"
    },
    {
      "inputs": [],
      "name": "DEFAULT_ADMIN_ROLE",
      "outputs": [
        {
          "internalType": "bytes32",
          "name": "",
          "type": "bytes32"
        }
      ],
      "stateMutability": "view",
      "type": "function"
    },
    {
      "inputs": [
        {
          "internalType": "address",
          "name": "to",
          "type": "address"
        },
        {
          "internalType": "uint256",
          "name": "tokenId",
          "type": "uint256"
        }
      ],
      "name": "approve",
      "outputs": [],
      "stateMutability": "nonpayable",
      "type": "function"
    },
    {
      "inputs": [
        {
          "internalType": "address",
          "name": "owner",
          "type": "address"
        }
      ],
      "name": "balanceOf",
      "outputs": [
        {
          "internalType": "uint256",
          "name": "",
          "type": "uint256"
        }
      ],
      "stateMutability": "view",
      "type": "function"
    },
    {
      "inputs": [
        {
          "internalType": "uint256",
          "name": "tokenId_",
          "type": "uint256"
        }
      ],
      "name": "burn",
      "outputs": [],
      "stateMutability": "nonpayable",
      "type": "function"
    },
    {
      "inputs": [],
      "name": "contractURI",
      "outputs": [
        {
          "internalType": "string",
          "name": "uri",
          "type": "string"
        }
      ],
      "stateMutability": "view",
      "type": "function"
    },
    {
      "inputs": [
        {
          "internalType": "address",
          "name": "user_",
          "type": "address"
        },
        {
          "components": [
            {
              "internalType": "string",
              "name": "name",
              "type": "string"
            },
            {
              "internalType": "string",
              "name": "flavor",
              "type": "string"
            },
            {
              "internalType": "string[]",
              "name": "skills",
              "type": "string[]"
            },
            {
              "internalType": "uint32",
              "name": "lv",
              "type": "uint32"
            },
            {
              "internalType": "uint32",
              "name": "hp",
              "type": "uint32"
            },
            {
              "internalType": "uint32",
              "name": "atk",
              "type": "uint32"
            },
            {
              "internalType": "uint32",
              "name": "def",
              "type": "uint32"
            },
            {
              "internalType": "uint32",
              "name": "inte",
              "type": "uint32"
            },
            {
              "internalType": "uint32",
              "name": "mgr",
              "type": "uint32"
            },
            {
              "internalType": "uint32",
              "name": "agl",
              "type": "uint32"
            },
            {
              "internalType": "uint16",
              "name": "maxSkills",
              "type": "uint16"
            },
            {
              "internalType": "uint16",
              "name": "maxSkillsSet",
              "type": "uint16"
            }
          ],
          "internalType": "struct IPromptMonsters.Monster",
          "name": "monster_",
          "type": "tuple"
        }
      ],
      "name": "generateMonster",
      "outputs": [],
      "stateMutability": "nonpayable",
      "type": "function"
    },
    {
      "inputs": [
        {
          "internalType": "uint256",
          "name": "tokenId",
          "type": "uint256"
        }
      ],
      "name": "getApproved",
      "outputs": [
        {
          "internalType": "address",
          "name": "",
          "type": "address"
        }
      ],
      "stateMutability": "view",
      "type": "function"
    },
    {
      "inputs": [],
      "name": "getMonsterHistory",
      "outputs": [
        {
          "components": [
            {
              "internalType": "string",
              "name": "name",
              "type": "string"
            },
            {
              "internalType": "string",
              "name": "flavor",
              "type": "string"
            },
            {
              "internalType": "string[]",
              "name": "skills",
              "type": "string[]"
            },
            {
              "internalType": "uint32",
              "name": "lv",
              "type": "uint32"
            },
            {
              "internalType": "uint32",
              "name": "hp",
              "type": "uint32"
            },
            {
              "internalType": "uint32",
              "name": "atk",
              "type": "uint32"
            },
            {
              "internalType": "uint32",
              "name": "def",
              "type": "uint32"
            },
            {
              "internalType": "uint32",
              "name": "inte",
              "type": "uint32"
            },
            {
              "internalType": "uint32",
              "name": "mgr",
              "type": "uint32"
            },
            {
              "internalType": "uint32",
              "name": "agl",
              "type": "uint32"
            },
            {
              "internalType": "uint16",
              "name": "maxSkills",
              "type": "uint16"
            },
            {
              "internalType": "uint16",
              "name": "maxSkillsSet",
              "type": "uint16"
            }
          ],
          "internalType": "struct IPromptMonsters.Monster",
          "name": "monsterHistory",
          "type": "tuple"
        }
      ],
      "stateMutability": "view",
      "type": "function"
    },
    {
      "inputs": [
        {
          "internalType": "uint256[]",
          "name": "tokenIds_",
          "type": "uint256[]"
        }
      ],
      "name": "getMonsters",
      "outputs": [
        {
          "components": [
            {
              "internalType": "string",
              "name": "name",
              "type": "string"
            },
            {
              "internalType": "string",
              "name": "flavor",
              "type": "string"
            },
            {
              "internalType": "string[]",
              "name": "skills",
              "type": "string[]"
            },
            {
              "internalType": "uint32",
              "name": "lv",
              "type": "uint32"
            },
            {
              "internalType": "uint32",
              "name": "hp",
              "type": "uint32"
            },
            {
              "internalType": "uint32",
              "name": "atk",
              "type": "uint32"
            },
            {
              "internalType": "uint32",
              "name": "def",
              "type": "uint32"
            },
            {
              "internalType": "uint32",
              "name": "inte",
              "type": "uint32"
            },
            {
              "internalType": "uint32",
              "name": "mgr",
              "type": "uint32"
            },
            {
              "internalType": "uint32",
              "name": "agl",
              "type": "uint32"
            },
            {
              "internalType": "uint16",
              "name": "maxSkills",
              "type": "uint16"
            },
            {
              "internalType": "uint16",
              "name": "maxSkillsSet",
              "type": "uint16"
            }
          ],
          "internalType": "struct IPromptMonsters.Monster[]",
          "name": "monsters",
          "type": "tuple[]"
        }
      ],
      "stateMutability": "view",
      "type": "function"
    },
    {
      "inputs": [],
      "name": "getMonstersTotalSupply",
      "outputs": [
        {
          "internalType": "uint256",
          "name": "totalSupply",
          "type": "uint256"
        }
      ],
      "stateMutability": "view",
      "type": "function"
    },
    {
      "inputs": [
        {
          "internalType": "address",
          "name": "owner",
          "type": "address"
        }
      ],
      "name": "getOwnerToTokenIds",
      "outputs": [
        {
          "internalType": "uint256[]",
          "name": "tokenIds",
          "type": "uint256[]"
        }
      ],
      "stateMutability": "view",
      "type": "function"
    },
    {
      "inputs": [
        {
          "internalType": "bytes32",
          "name": "role",
          "type": "bytes32"
        }
      ],
      "name": "getRoleAdmin",
      "outputs": [
        {
          "internalType": "bytes32",
          "name": "",
          "type": "bytes32"
        }
      ],
      "stateMutability": "view",
      "type": "function"
    },
    {
      "inputs": [
        {
          "internalType": "bytes32",
          "name": "role",
          "type": "bytes32"
        },
        {
          "internalType": "uint256",
          "name": "index",
          "type": "uint256"
        }
      ],
      "name": "getRoleMember",
      "outputs": [
        {
          "internalType": "address",
          "name": "",
          "type": "address"
        }
      ],
      "stateMutability": "view",
      "type": "function"
    },
    {
      "inputs": [
        {
          "internalType": "bytes32",
          "name": "role",
          "type": "bytes32"
        }
      ],
      "name": "getRoleMemberCount",
      "outputs": [
        {
          "internalType": "uint256",
          "name": "",
          "type": "uint256"
        }
      ],
      "stateMutability": "view",
      "type": "function"
    },
    {
      "inputs": [
        {
          "internalType": "bytes32",
          "name": "role",
          "type": "bytes32"
        },
        {
          "internalType": "address",
          "name": "account",
          "type": "address"
        }
      ],
      "name": "grantRole",
      "outputs": [],
      "stateMutability": "nonpayable",
      "type": "function"
    },
    {
      "inputs": [
        {
          "internalType": "bytes32",
          "name": "role",
          "type": "bytes32"
        },
        {
          "internalType": "address",
          "name": "account",
          "type": "address"
        }
      ],
      "name": "hasRole",
      "outputs": [
        {
          "internalType": "bool",
          "name": "",
          "type": "bool"
        }
      ],
      "stateMutability": "view",
      "type": "function"
    },
    {
      "inputs": [
        {
          "internalType": "string",
          "name": "externalLink_",
          "type": "string"
        }
      ],
      "name": "initialize",
      "outputs": [],
      "stateMutability": "nonpayable",
      "type": "function"
    },
    {
      "inputs": [
        {
          "internalType": "address",
          "name": "owner",
          "type": "address"
        },
        {
          "internalType": "address",
          "name": "operator",
          "type": "address"
        }
      ],
      "name": "isApprovedForAll",
      "outputs": [
        {
          "internalType": "bool",
          "name": "",
          "type": "bool"
        }
      ],
      "stateMutability": "view",
      "type": "function"
    },
    {
      "inputs": [],
      "name": "mint",
      "outputs": [],
      "stateMutability": "nonpayable",
      "type": "function"
    },
    {
      "inputs": [],
      "name": "name",
      "outputs": [
        {
          "internalType": "string",
          "name": "",
          "type": "string"
        }
      ],
      "stateMutability": "view",
      "type": "function"
    },
    {
      "inputs": [
        {
          "internalType": "uint256",
          "name": "tokenId",
          "type": "uint256"
        }
      ],
      "name": "ownerOf",
      "outputs": [
        {
          "internalType": "address",
          "name": "",
          "type": "address"
        }
      ],
      "stateMutability": "view",
      "type": "function"
    },
    {
      "inputs": [],
      "name": "proxiableUUID",
      "outputs": [
        {
          "internalType": "bytes32",
          "name": "",
          "type": "bytes32"
        }
      ],
      "stateMutability": "view",
      "type": "function"
    },
    {
      "inputs": [
        {
          "internalType": "bytes32",
          "name": "role",
          "type": "bytes32"
        },
        {
          "internalType": "address",
          "name": "account",
          "type": "address"
        }
      ],
      "name": "renounceRole",
      "outputs": [],
      "stateMutability": "nonpayable",
      "type": "function"
    },
    {
      "inputs": [
        {
          "internalType": "bytes32",
          "name": "role",
          "type": "bytes32"
        },
        {
          "internalType": "address",
          "name": "account",
          "type": "address"
        }
      ],
      "name": "revokeRole",
      "outputs": [],
      "stateMutability": "nonpayable",
      "type": "function"
    },
    {
      "inputs": [
        {
          "internalType": "address",
          "name": "from",
          "type": "address"
        },
        {
          "internalType": "address",
          "name": "to",
          "type": "address"
        },
        {
          "internalType": "uint256",
          "name": "tokenId",
          "type": "uint256"
        }
      ],
      "name": "safeTransferFrom",
      "outputs": [],
      "stateMutability": "nonpayable",
      "type": "function"
    },
    {
      "inputs": [
        {
          "internalType": "address",
          "name": "from",
          "type": "address"
        },
        {
          "internalType": "address",
          "name": "to",
          "type": "address"
        },
        {
          "internalType": "uint256",
          "name": "tokenId",
          "type": "uint256"
        },
        {
          "internalType": "bytes",
          "name": "data",
          "type": "bytes"
        }
      ],
      "name": "safeTransferFrom",
      "outputs": [],
      "stateMutability": "nonpayable",
      "type": "function"
    },
    {
      "inputs": [
        {
          "internalType": "address",
          "name": "operator",
          "type": "address"
        },
        {
          "internalType": "bool",
          "name": "approved",
          "type": "bool"
        }
      ],
      "name": "setApprovalForAll",
      "outputs": [],
      "stateMutability": "nonpayable",
      "type": "function"
    },
    {
      "inputs": [
        {
          "internalType": "string",
          "name": "newState_",
          "type": "string"
        }
      ],
      "name": "setExternalLink",
      "outputs": [],
      "stateMutability": "nonpayable",
      "type": "function"
    },
    {
      "inputs": [
        {
          "internalType": "bytes4",
          "name": "interfaceId",
          "type": "bytes4"
        }
      ],
      "name": "supportsInterface",
      "outputs": [
        {
          "internalType": "bool",
          "name": "",
          "type": "bool"
        }
      ],
      "stateMutability": "view",
      "type": "function"
    },
    {
      "inputs": [],
      "name": "symbol",
      "outputs": [
        {
          "internalType": "string",
          "name": "",
          "type": "string"
        }
      ],
      "stateMutability": "view",
      "type": "function"
    },
    {
      "inputs": [
        {
          "internalType": "uint256",
          "name": "tokenId_",
          "type": "uint256"
        }
      ],
      "name": "tokenURI",
      "outputs": [
        {
          "internalType": "string",
          "name": "uri",
          "type": "string"
        }
      ],
      "stateMutability": "view",
      "type": "function"
    },
    {
      "inputs": [
        {
          "internalType": "address",
          "name": "from",
          "type": "address"
        },
        {
          "internalType": "address",
          "name": "to",
          "type": "address"
        },
        {
          "internalType": "uint256",
          "name": "tokenId",
          "type": "uint256"
        }
      ],
      "name": "transferFrom",
      "outputs": [],
      "stateMutability": "nonpayable",
      "type": "function"
    },
    {
      "inputs": [
        {
          "internalType": "address",
          "name": "newImplementation",
          "type": "address"
        }
      ],
      "name": "upgradeTo",
      "outputs": [],
      "stateMutability": "nonpayable",
      "type": "function"
    },
    {
      "inputs": [
        {
          "internalType": "address",
          "name": "newImplementation",
          "type": "address"
        },
        {
          "internalType": "bytes",
          "name": "data",
          "type": "bytes"
        }
      ],
      "name": "upgradeToAndCall",
      "outputs": [],
      "stateMutability": "payable",
      "type": "function"
    }
  ],
  "bytecode": "0x60a0604052306080523480156200001557600080fd5b506200002062000026565b620000e8565b600054610100900460ff1615620000935760405162461bcd60e51b815260206004820152602760248201527f496e697469616c697a61626c653a20636f6e747261637420697320696e697469604482015266616c697a696e6760c81b606482015260840160405180910390fd5b60005460ff9081161015620000e6576000805460ff191660ff9081179091556040519081527f7f26b83ff96e1f2b6a682f133852f6798a09c465da95921460cefb38474024989060200160405180910390a15b565b6080516153856200012060003960008181610f5001528181610f9001528181611072015281816110b2015261114101526153856000f3fe6080604052600436106101f95760003560e01c80636352211e1161010d578063b2664c2e116100a0578063d547741f1161006f578063d547741f146105c6578063e8a3d485146105e6578063e985e9c5146105fb578063ef134f7614610644578063f62d18881461066457600080fd5b8063b2664c2e14610539578063b88d4fde14610566578063c87b56dd14610586578063ca15c873146105a657600080fd5b806391d14854116100dc57806391d14854146104cf57806395d89b41146104ef578063a217fddf14610504578063a22cb4651461051957600080fd5b80636352211e1461044d57806370a082311461046d5780638322a2a61461048d5780639010d07c146104af57600080fd5b8063248a9ca31161019057806342842e0e1161015f57806342842e0e146103cf57806342966c68146103ef5780634f1ef2861461040f57806352d1902d1461042257806352dd29d21461043757600080fd5b8063248a9ca3146103315780632f2ff15d1461036f57806336568abe1461038f5780633659cfe6146103af57600080fd5b80630fd7efc4116101cc5780630fd7efc4146102af5780631249c58b146102dc5780631f917921146102f157806323b872dd1461031157600080fd5b806301ffc9a7146101fe57806306fdde0314610233578063081812fc14610255578063095ea7b31461028d575b600080fd5b34801561020a57600080fd5b5061021e610219366004613d18565b610684565b60405190151581526020015b60405180910390f35b34801561023f57600080fd5b50610248610695565b60405161022a9190613d85565b34801561026157600080fd5b50610275610270366004613d98565b610727565b6040516001600160a01b03909116815260200161022a565b34801561029957600080fd5b506102ad6102a8366004613dcd565b61074e565b005b3480156102bb57600080fd5b506102cf6102ca366004613df7565b610868565b60405161022a9190613e12565b3480156102e857600080fd5b506102ad6108d5565b3480156102fd57600080fd5b506102ad61030c366004613f34565b610d82565b34801561031d57600080fd5b506102ad61032c366004613f68565b610e76565b34801561033d57600080fd5b5061036161034c366004613d98565b60009081526097602052604090206001015490565b60405190815260200161022a565b34801561037b57600080fd5b506102ad61038a366004613fa4565b610ea7565b34801561039b57600080fd5b506102ad6103aa366004613fa4565b610ecc565b3480156103bb57600080fd5b506102ad6103ca366004613df7565b610f46565b3480156103db57600080fd5b506102ad6103ea366004613f68565b611025565b3480156103fb57600080fd5b506102ad61040a366004613d98565b611040565b6102ad61041d366004613fd0565b611068565b34801561042e57600080fd5b50610361611134565b34801561044357600080fd5b5061019154610361565b34801561045957600080fd5b50610275610468366004613d98565b6111e7565b34801561047957600080fd5b50610361610488366004613df7565b611247565b34801561049957600080fd5b506104a26112cd565b60405161022a9190614183565b3480156104bb57600080fd5b506102756104ca366004614196565b61157a565b3480156104db57600080fd5b5061021e6104ea366004613fa4565b611599565b3480156104fb57600080fd5b506102486115c4565b34801561051057600080fd5b50610361600081565b34801561052557600080fd5b506102ad6105343660046141b8565b6115d3565b34801561054557600080fd5b50610559610554366004614217565b6115de565b60405161022a91906142ac565b34801561057257600080fd5b506102ad61058136600461430e565b6119af565b34801561059257600080fd5b506102486105a1366004613d98565b6119e7565b3480156105b257600080fd5b506103616105c1366004613d98565b611d2e565b3480156105d257600080fd5b506102ad6105e1366004613fa4565b611d45565b3480156105f257600080fd5b50610248611d6a565b34801561060757600080fd5b5061021e610616366004614375565b6001600160a01b039182166000908152606a6020908152604080832093909416825291909152205460ff1690565b34801561065057600080fd5b506102ad61065f36600461444f565b611df0565b34801561067057600080fd5b506102ad61067f366004613f34565b611f82565b600061068f82612108565b92915050565b6060606580546106a4906145bc565b80601f01602080910402602001604051908101604052809291908181526020018280546106d0906145bc565b801561071d5780601f106106f25761010080835404028352916020019161071d565b820191906000526020600020905b81548152906001019060200180831161070057829003601f168201915b5050505050905090565b60006107328261212d565b506000908152606960205260409020546001600160a01b031690565b6000610759826111e7565b9050806001600160a01b0316836001600160a01b0316036107cb5760405162461bcd60e51b815260206004820152602160248201527f4552433732313a20617070726f76616c20746f2063757272656e74206f776e656044820152603960f91b60648201526084015b60405180910390fd5b336001600160a01b03821614806107e757506107e78133610616565b6108595760405162461bcd60e51b815260206004820152603d60248201527f4552433732313a20617070726f76652063616c6c6572206973206e6f7420746f60448201527f6b656e206f776e6572206f7220617070726f76656420666f7220616c6c00000060648201526084016107c2565b610863838361218c565b505050565b6001600160a01b038116600090815261019260209081526040918290208054835181840281018401909452808452606093928301828280156108c957602002820191906000526020600020905b8154815260200190600101908083116108b5575b50505050509050919050565b3360009081526101956020526040808220815161018081019092528054829082906108ff906145bc565b80601f016020809104026020016040519081016040528092919081815260200182805461092b906145bc565b80156109785780601f1061094d57610100808354040283529160200191610978565b820191906000526020600020905b81548152906001019060200180831161095b57829003601f168201915b50505050508152602001600182018054610991906145bc565b80601f01602080910402602001604051908101604052809291908181526020018280546109bd906145bc565b8015610a0a5780601f106109df57610100808354040283529160200191610a0a565b820191906000526020600020905b8154815290600101906020018083116109ed57829003601f168201915b5050505050815260200160028201805480602002602001604051908101604052809291908181526020016000905b82821015610ae4578382906000526020600020018054610a57906145bc565b80601f0160208091040260200160405190810160405280929190818152602001828054610a83906145bc565b8015610ad05780601f10610aa557610100808354040283529160200191610ad0565b820191906000526020600020905b815481529060010190602001808311610ab357829003601f168201915b505050505081526020019060010190610a38565b505050908252506003919091015463ffffffff8082166020840152600160201b820481166040840152600160401b82048116606080850191909152600160601b830482166080850152600160801b8304821660a0850152600160a01b8304821660c0850152600160c01b8304821660e085015261ffff600160e01b84048116610100860152600160f01b9093049092166101209093019290925282015191925016610be25760405162461bcd60e51b815260206004820152602860248201527f50726f6d70744d6f6e73746572733a206d6f6e73746572206973206e6f742067604482015267195b995c985d195960c21b60648201526084016107c2565b610191805460018101825560009190915281518290600483027ffb4a0ff48df6de8777afc824e4cbf267beb8602db7c5a7456c954593226c1fd501908190610c2a9082614644565b5060208201516001820190610c3f9082614644565b5060408201518051610c5b916002840191602090910190613be0565b5060608201516003919091018054608084015160a085015160c086015160e08701516101008801516101208901516101408a0151610160909a015163ffffffff998a1667ffffffffffffffff1990981697909717600160201b968a16969096029590951767ffffffffffffffff60401b1916600160401b9489169490940263ffffffff60601b191693909317600160601b928816929092029190911767ffffffffffffffff60801b1916600160801b9187169190910263ffffffff60a01b191617600160a01b918616919091021765ffffffffffff60c01b1916600160c01b949091169390930261ffff60e01b191692909217600160e01b61ffff94851602176001600160f01b0316600160f01b9390921692909202179055610d7e33826121fa565b5050565b6000610d8d81612214565b60006101948054610d9d906145bc565b80601f0160208091040260200160405190810160405280929190818152602001828054610dc9906145bc565b8015610e165780601f10610deb57610100808354040283529160200191610e16565b820191906000526020600020905b815481529060010190602001808311610df957829003601f168201915b50505050509050826101949081610e2d9190614644565b50336001600160a01b03167ffceab947acbd3281d41fa085ba6d9503467fabd9e3d96e3ee0dbf6f8b04a9ca48285604051610e69929190614703565b60405180910390a2505050565b610e80338261221e565b610e9c5760405162461bcd60e51b81526004016107c290614728565b61086383838361229d565b600082815260976020526040902060010154610ec281612214565b610863838361240e565b6001600160a01b0381163314610f3c5760405162461bcd60e51b815260206004820152602f60248201527f416363657373436f6e74726f6c3a2063616e206f6e6c792072656e6f756e636560448201526e103937b632b9903337b91039b2b63360891b60648201526084016107c2565b610d7e8282612430565b6001600160a01b037f0000000000000000000000000000000000000000000000000000000000000000163003610f8e5760405162461bcd60e51b81526004016107c290614775565b7f00000000000000000000000000000000000000000000000000000000000000006001600160a01b0316610fd76000805160206152c9833981519152546001600160a01b031690565b6001600160a01b031614610ffd5760405162461bcd60e51b81526004016107c2906147c1565b61100681612452565b604080516000808252602082019092526110229183919061245d565b50565b610863838383604051806020016040528060008152506119af565b6110486125c8565b61105d3361105760008061157a565b83611025565b611022600161015f55565b6001600160a01b037f00000000000000000000000000000000000000000000000000000000000000001630036110b05760405162461bcd60e51b81526004016107c290614775565b7f00000000000000000000000000000000000000000000000000000000000000006001600160a01b03166110f96000805160206152c9833981519152546001600160a01b031690565b6001600160a01b03161461111f5760405162461bcd60e51b81526004016107c2906147c1565b61112882612452565b610d7e8282600161245d565b6000306001600160a01b037f000000000000000000000000000000000000000000000000000000000000000016146111d45760405162461bcd60e51b815260206004820152603860248201527f555550535570677261646561626c653a206d757374206e6f742062652063616c60448201527f6c6564207468726f7567682064656c656761746563616c6c000000000000000060648201526084016107c2565b506000805160206152c983398151915290565b6000818152606760205260408120546001600160a01b03168061068f5760405162461bcd60e51b8152602060048201526018602482015277115490cdcc8c4e881a5b9d985b1a59081d1bdad95b88125160421b60448201526064016107c2565b60006001600160a01b0382166112b15760405162461bcd60e51b815260206004820152602960248201527f4552433732313a2061646472657373207a65726f206973206e6f7420612076616044820152683634b21037bbb732b960b91b60648201526084016107c2565b506001600160a01b031660009081526068602052604090205490565b6112d5613c36565b33600090815261019560205260409081902081516101808101909252805482908290611300906145bc565b80601f016020809104026020016040519081016040528092919081815260200182805461132c906145bc565b80156113795780601f1061134e57610100808354040283529160200191611379565b820191906000526020600020905b81548152906001019060200180831161135c57829003601f168201915b50505050508152602001600182018054611392906145bc565b80601f01602080910402602001604051908101604052809291908181526020018280546113be906145bc565b801561140b5780601f106113e05761010080835404028352916020019161140b565b820191906000526020600020905b8154815290600101906020018083116113ee57829003601f168201915b5050505050815260200160028201805480602002602001604051908101604052809291908181526020016000905b828210156114e5578382906000526020600020018054611458906145bc565b80601f0160208091040260200160405190810160405280929190818152602001828054611484906145bc565b80156114d15780601f106114a6576101008083540402835291602001916114d1565b820191906000526020600020905b8154815290600101906020018083116114b457829003601f168201915b505050505081526020019060010190611439565b505050908252506003919091015463ffffffff8082166020840152600160201b820481166040840152600160401b820481166060840152600160601b820481166080840152600160801b8204811660a0840152600160a01b8204811660c0840152600160c01b82041660e083015261ffff600160e01b82048116610100840152600160f01b9091041661012090910152919050565b600082815260c960205260408120611592908361262b565b9392505050565b60009182526097602090815260408084206001600160a01b0393909316845291905290205460ff1690565b6060606680546106a4906145bc565b610d7e338383612637565b8051610191546060919081111561164b5760405162461bcd60e51b815260206004820152602b60248201527f50726f6d70744d6f6e73746572733a20746f6b656e4964734c656e677468206960448201526a7320746f6f206c6172676560a81b60648201526084016107c2565b806001600160401b0381111561166357611663613e56565b60405190808252806020026020018201604052801561169c57816020015b611689613c36565b8152602001906001900390816116815790505b50915060005b818110156119a8576101918482815181106116bf576116bf61480d565b6020026020010151815481106116d7576116d761480d565b906000526020600020906004020160405180610180016040529081600082018054611701906145bc565b80601f016020809104026020016040519081016040528092919081815260200182805461172d906145bc565b801561177a5780601f1061174f5761010080835404028352916020019161177a565b820191906000526020600020905b81548152906001019060200180831161175d57829003601f168201915b50505050508152602001600182018054611793906145bc565b80601f01602080910402602001604051908101604052809291908181526020018280546117bf906145bc565b801561180c5780601f106117e15761010080835404028352916020019161180c565b820191906000526020600020905b8154815290600101906020018083116117ef57829003601f168201915b5050505050815260200160028201805480602002602001604051908101604052809291908181526020016000905b828210156118e6578382906000526020600020018054611859906145bc565b80601f0160208091040260200160405190810160405280929190818152602001828054611885906145bc565b80156118d25780601f106118a7576101008083540402835291602001916118d2565b820191906000526020600020905b8154815290600101906020018083116118b557829003601f168201915b50505050508152602001906001019061183a565b505050908252506003919091015463ffffffff8082166020840152600160201b820481166040840152600160401b820481166060840152600160601b820481166080840152600160801b8204811660a0840152600160a01b8204811660c0840152600160c01b82041660e083015261ffff600160e01b82048116610100840152600160f01b9091041661012090910152835184908390811061198a5761198a61480d565b602002602001018190525080806119a090614839565b9150506116a2565b5050919050565b6119b9338361221e565b6119d55760405162461bcd60e51b81526004016107c290614728565b6119e184848484612705565b50505050565b60606119f28261212d565b60006119fd83612738565b905060006101918481548110611a1557611a1561480d565b906000526020600020906004020160405180610180016040529081600082018054611a3f906145bc565b80601f0160208091040260200160405190810160405280929190818152602001828054611a6b906145bc565b8015611ab85780601f10611a8d57610100808354040283529160200191611ab8565b820191906000526020600020905b815481529060010190602001808311611a9b57829003601f168201915b50505050508152602001600182018054611ad1906145bc565b80601f0160208091040260200160405190810160405280929190818152602001828054611afd906145bc565b8015611b4a5780601f10611b1f57610100808354040283529160200191611b4a565b820191906000526020600020905b815481529060010190602001808311611b2d57829003601f168201915b5050505050815260200160028201805480602002602001604051908101604052809291908181526020016000905b82821015611c24578382906000526020600020018054611b97906145bc565b80601f0160208091040260200160405190810160405280929190818152602001828054611bc3906145bc565b8015611c105780601f10611be557610100808354040283529160200191611c10565b820191906000526020600020905b815481529060010190602001808311611bf357829003601f168201915b505050505081526020019060010190611b78565b505050908252506003919091015463ffffffff808216602080850191909152600160201b830482166040850152600160401b830482166060850152600160601b830482166080850152600160801b8304821660a0850152600160a01b8304821660c0850152600160c01b830490911660e084015261ffff600160e01b83048116610100850152600160f01b90920490911661012090920191909152815190820151919250600091611cff9190611cd986612c50565b604051602001611ceb9392919061486e565b604051602081830303815290604052612c50565b9050600081604051602001611d149190614931565b60408051601f198184030181529190529695505050505050565b600081815260c96020526040812061068f90612da2565b600082815260976020526040902060010154611d6081612214565b6108638383612430565b60606000611d76610695565b9050600081604051602001611d8b9190614976565b60405160208183030381529060405290506000611dc28384611dac85612c50565b610194604051602001611ceb9493929190614b23565b9050600081604051602001611dd79190614931565b60408051601f1981840301815291905295945050505050565b6000611dfb81612214565b611e036125c8565b6001600160a01b03831660009081526101956020526040902082518391908190611e2d9082614644565b5060208201516001820190611e429082614644565b5060408201518051611e5e916002840191602090910190613be0565b5060608201516003919091018054608084015160a085015160c086015160e08701516101008801516101208901516101408a0151610160909a015163ffffffff998a1667ffffffffffffffff1990981697909717600160201b968a16969096029590951767ffffffffffffffff60401b1916600160401b9489169490940263ffffffff60601b191693909317600160601b928816929092029190911767ffffffffffffffff60801b1916600160801b9187169190910263ffffffff60a01b191617600160a01b918616919091021765ffffffffffff60c01b1916600160c01b949091169390930261ffff60e01b191692909217600160e01b61ffff94851602176001600160f01b0316600160f01b9390921692909202179055600161015f55505050565b600054610100900460ff1615808015611fa25750600054600160ff909116105b80611fbc5750303b158015611fbc575060005460ff166001145b61201f5760405162461bcd60e51b815260206004820152602e60248201527f496e697469616c697a61626c653a20636f6e747261637420697320616c72656160448201526d191e481a5b9a5d1a585b1a5e995960921b60648201526084016107c2565b6000805460ff191660011790558015612042576000805461ff0019166101001790555b61208e6040518060400160405280600f81526020016e50726f6d7074204d6f6e737465727360881b8152506040518060400160405280600381526020016226a7a760e91b815250612dac565b612096612ddd565b61209e612ddd565b6120a6612e06565b6120b1600033612e35565b6101946120be8382614644565b508015610d7e576000805461ff0019169055604051600181527f7f26b83ff96e1f2b6a682f133852f6798a09c465da95921460cefb38474024989060200160405180910390a15050565b60006001600160e01b03198216635a05180f60e01b148061068f575061068f82612e3f565b6000818152606760205260409020546001600160a01b03166110225760405162461bcd60e51b8152602060048201526018602482015277115490cdcc8c4e881a5b9d985b1a59081d1bdad95b88125160421b60448201526064016107c2565b600081815260696020526040902080546001600160a01b0319166001600160a01b03841690811790915581906121c1826111e7565b6001600160a01b03167f8c5be1e5ebec7d5bd14f71427d1e84f3dd0314c0f7b2291e5b200ac8c7c3b92560405160405180910390a45050565b610d7e828260405180602001604052806000815250612e64565b6110228133612e97565b60008061222a836111e7565b9050806001600160a01b0316846001600160a01b0316148061227157506001600160a01b038082166000908152606a602090815260408083209388168352929052205460ff165b806122955750836001600160a01b031661228a84610727565b6001600160a01b0316145b949350505050565b826001600160a01b03166122b0826111e7565b6001600160a01b0316146122d65760405162461bcd60e51b81526004016107c290614c90565b6001600160a01b0382166123385760405162461bcd60e51b8152602060048201526024808201527f4552433732313a207472616e7366657220746f20746865207a65726f206164646044820152637265737360e01b60648201526084016107c2565b6123458383836001612ef0565b826001600160a01b0316612358826111e7565b6001600160a01b03161461237e5760405162461bcd60e51b81526004016107c290614c90565b600081815260696020908152604080832080546001600160a01b03199081169091556001600160a01b0387811680865260688552838620805460001901905590871680865283862080546001019055868652606790945282852080549092168417909155905184937fddf252ad1be2c89b69c2b068fc378daa952ba7f163c4a11628f55a4df523b3ef91a4505050565b6124188282612f39565b600082815260c9602052604090206108639082612fbf565b61243a8282612fd4565b600082815260c960205260409020610863908261303b565b6000610d7e81612214565b7f4910fdfa16fed3260ed0e7147f7cc6da11a60208b5b9406d12a635614ffd91435460ff16156124905761086383613050565b826001600160a01b03166352d1902d6040518163ffffffff1660e01b8152600401602060405180830381865afa9250505080156124ea575060408051601f3d908101601f191682019092526124e791810190614cd5565b60015b61254d5760405162461bcd60e51b815260206004820152602e60248201527f45524331393637557067726164653a206e657720696d706c656d656e7461746960448201526d6f6e206973206e6f74205555505360901b60648201526084016107c2565b6000805160206152c983398151915281146125bc5760405162461bcd60e51b815260206004820152602960248201527f45524331393637557067726164653a20756e737570706f727465642070726f786044820152681a58589b195555525160ba1b60648201526084016107c2565b506108638383836130ec565b600261015f540361261b5760405162461bcd60e51b815260206004820152601f60248201527f5265656e7472616e637947756172643a207265656e7472616e742063616c6c0060448201526064016107c2565b600261015f55565b600161015f55565b60006115928383613111565b816001600160a01b0316836001600160a01b0316036126985760405162461bcd60e51b815260206004820152601960248201527f4552433732313a20617070726f766520746f2063616c6c65720000000000000060448201526064016107c2565b6001600160a01b038381166000818152606a6020908152604080832094871680845294825291829020805460ff191686151590811790915591519182527f17307eab39ab6107e8899845ad3d59bd9653f200f220920489ca2b5937696c31910160405180910390a3505050565b61271084848461229d565b61271c8484848461313b565b6119e15760405162461bcd60e51b81526004016107c290614cee565b6060600061019183815481106127505761275061480d565b90600052602060002090600402016040518061018001604052908160008201805461277a906145bc565b80601f01602080910402602001604051908101604052809291908181526020018280546127a6906145bc565b80156127f35780601f106127c8576101008083540402835291602001916127f3565b820191906000526020600020905b8154815290600101906020018083116127d657829003601f168201915b5050505050815260200160018201805461280c906145bc565b80601f0160208091040260200160405190810160405280929190818152602001828054612838906145bc565b80156128855780601f1061285a57610100808354040283529160200191612885565b820191906000526020600020905b81548152906001019060200180831161286857829003601f168201915b5050505050815260200160028201805480602002602001604051908101604052809291908181526020016000905b8282101561295f5783829060005260206000200180546128d2906145bc565b80601f01602080910402602001604051908101604052809291908181526020018280546128fe906145bc565b801561294b5780601f106129205761010080835404028352916020019161294b565b820191906000526020600020905b81548152906001019060200180831161292e57829003601f168201915b5050505050815260200190600101906128b3565b505050908252506003919091015463ffffffff8082166020840152600160201b820481166040840152600160401b820481166060840152600160601b820481166080840152600160801b8204811660a0840152600160a01b8204811660c0840152600160c01b82041660e083015261ffff600160e01b82048116610100840152600160f01b90910416610120909101528051909150612a0390600a9060149061323c565b612a41600a603c612a1d856060015163ffffffff1661327b565b604051602001612a2d9190614d40565b60405160208183030381529060405261323c565b612a6b600a6064612a5b866080015163ffffffff1661327b565b604051602001612a2d9190614d6c565b612a95600a6078612a858760a0015163ffffffff1661327b565b604051602001612a2d9190614d8b565b612abf600a608c612aaf8860c0015163ffffffff1661327b565b604051602001612a2d9190614db8565b612ae9600a60a0612ad98960e0015163ffffffff1661327b565b604051602001612a2d9190614dd8565b612b14600a60b4612b048a610100015163ffffffff1661327b565b604051602001612a2d9190614df8565b612b3f600a60c8612b2f8b610120015163ffffffff1661327b565b604051602001612a2d9190614e18565b604051602001612b56989796959493929190614e38565b60408051601f19818403018152919052915060f060005b826040015151811015612c265761016083015161ffff16612b8f826001614fc4565b11612c265783612bf1600a612ba5846014614fd7565b612baf9086614fc4565b612bc2612bbd866001614fc4565b61327b565b87604001518681518110612bd857612bd861480d565b6020026020010151604051602001612a2d929190614fee565b604051602001612c0292919061503c565b60405160208183030381529060405293508080612c1e90614839565b915050612b6d565b5082604051602001612c38919061506b565b60405160208183030381529060405292505050919050565b60608151600003612c6f57505060408051602081019091526000815290565b60006040518060600160405280604081526020016152e96040913990506000600384516002612c9e9190614fc4565b612ca89190615095565b612cb3906004614fd7565b6001600160401b03811115612cca57612cca613e56565b6040519080825280601f01601f191660200182016040528015612cf4576020820181803683370190505b509050600182016020820185865187015b80821015612d60576003820191508151603f8160121c168501518453600184019350603f81600c1c168501518453600184019350603f8160061c168501518453600184019350603f8116850151845350600183019250612d05565b5050600386510660018114612d7c5760028114612d8f57612d97565b603d6001830353603d6002830353612d97565b603d60018303535b509195945050505050565b600061068f825490565b600054610100900460ff16612dd35760405162461bcd60e51b81526004016107c2906150b7565b610d7e828261330d565b600054610100900460ff16612e045760405162461bcd60e51b81526004016107c2906150b7565b565b600054610100900460ff16612e2d5760405162461bcd60e51b81526004016107c2906150b7565b612e0461334d565b610d7e828261240e565b60006001600160e01b03198216637965db0b60e01b148061068f575061068f82613374565b612e6e83836133c4565b612e7b600084848461313b565b6108635760405162461bcd60e51b81526004016107c290614cee565b612ea18282611599565b610d7e57612eae8161355d565b612eb983602061356f565b604051602001612eca929190615102565b60408051601f198184030181529082905262461bcd60e51b82526107c291600401613d85565b6001600160a01b038416612f0d57612f08838361370a565b6119e1565b6001600160a01b038316612f2557612f08848361374f565b612f2f848361374f565b612f08838361370a565b612f438282611599565b610d7e5760008281526097602090815260408083206001600160a01b03851684529091529020805460ff19166001179055612f7b3390565b6001600160a01b0316816001600160a01b0316837f2f8788117e7eff1d82e926ec794901d17c78024a50270940304540a733656f0d60405160405180910390a45050565b6000611592836001600160a01b038416613854565b612fde8282611599565b15610d7e5760008281526097602090815260408083206001600160a01b0385168085529252808320805460ff1916905551339285917ff6391f5c32d9c69d2a47ea670b442974b53935d1edc7fd64eb21e047a839171b9190a45050565b6000611592836001600160a01b0384166138a3565b6001600160a01b0381163b6130bd5760405162461bcd60e51b815260206004820152602d60248201527f455243313936373a206e657720696d706c656d656e746174696f6e206973206e60448201526c1bdd08184818dbdb9d1c9858dd609a1b60648201526084016107c2565b6000805160206152c983398151915280546001600160a01b0319166001600160a01b0392909216919091179055565b6130f583613996565b6000825111806131025750805b15610863576119e183836139d6565b60008260000182815481106131285761312861480d565b9060005260206000200154905092915050565b60006001600160a01b0384163b1561323157604051630a85bd0160e11b81526001600160a01b0385169063150b7a029061317f903390899088908890600401615177565b6020604051808303816000875af19250505080156131ba575060408051601f3d908101601f191682019092526131b7918101906151b4565b60015b613217573d8080156131e8576040519150601f19603f3d011682016040523d82523d6000602084013e6131ed565b606091505b50805160000361320f5760405162461bcd60e51b81526004016107c290614cee565b805181602001fd5b6001600160e01b031916630a85bd0160e11b149050612295565b506001949350505050565b60606132478461327b565b6132508461327b565b83604051602001613263939291906151d1565b60405160208183030381529060405290509392505050565b6060600061328883613aca565b60010190506000816001600160401b038111156132a7576132a7613e56565b6040519080825280601f01601f1916602001820160405280156132d1576020820181803683370190505b5090508181016020015b600019016f181899199a1a9b1b9c1cb0b131b232b360811b600a86061a8153600a85049450846132db57509392505050565b600054610100900460ff166133345760405162461bcd60e51b81526004016107c2906150b7565b60656133408382614644565b5060666108638282614644565b600054610100900460ff166126235760405162461bcd60e51b81526004016107c2906150b7565b60006001600160e01b031982166380ac58cd60e01b14806133a557506001600160e01b03198216635b5e139f60e01b145b8061068f57506301ffc9a760e01b6001600160e01b031983161461068f565b6001600160a01b03821661341a5760405162461bcd60e51b815260206004820181905260248201527f4552433732313a206d696e7420746f20746865207a65726f206164647265737360448201526064016107c2565b6000818152606760205260409020546001600160a01b03161561347f5760405162461bcd60e51b815260206004820152601c60248201527f4552433732313a20746f6b656e20616c7265616479206d696e7465640000000060448201526064016107c2565b61348d600083836001612ef0565b6000818152606760205260409020546001600160a01b0316156134f25760405162461bcd60e51b815260206004820152601c60248201527f4552433732313a20746f6b656e20616c7265616479206d696e7465640000000060448201526064016107c2565b6001600160a01b038216600081815260686020908152604080832080546001019055848352606790915280822080546001600160a01b0319168417905551839291907fddf252ad1be2c89b69c2b068fc378daa952ba7f163c4a11628f55a4df523b3ef908290a45050565b606061068f6001600160a01b03831660145b6060600061357e836002614fd7565b613589906002614fc4565b6001600160401b038111156135a0576135a0613e56565b6040519080825280601f01601f1916602001820160405280156135ca576020820181803683370190505b509050600360fc1b816000815181106135e5576135e561480d565b60200101906001600160f81b031916908160001a905350600f60fb1b816001815181106136145761361461480d565b60200101906001600160f81b031916908160001a9053506000613638846002614fd7565b613643906001614fc4565b90505b60018111156136bb576f181899199a1a9b1b9c1cb0b131b232b360811b85600f16601081106136775761367761480d565b1a60f81b82828151811061368d5761368d61480d565b60200101906001600160f81b031916908160001a90535060049490941c936136b48161526c565b9050613646565b5083156115925760405162461bcd60e51b815260206004820181905260248201527f537472696e67733a20686578206c656e67746820696e73756666696369656e7460448201526064016107c2565b6001600160a01b039091166000908152610192602081815260408084208054610193845282862087875284529185208290559282526001810183559183529091200155565b6001600160a01b038216600090815261019260205260408120805461377690600190615283565b815481106137865761378661480d565b906000526020600020015490508082146137ed576001600160a01b03831660008181526101936020908152604080832086845282528083205493835261019290915290208054839190839081106137df576137df61480d565b600091825260209091200155505b6001600160a01b03831660009081526101926020526040902080548061381557613815615296565b6000828152602080822083016000199081018390559092019092556001600160a01b039094168152610193845260408082209382529290935250812055565b600081815260018301602052604081205461389b5750815460018181018455600084815260208082209093018490558454848252828601909352604090209190915561068f565b50600061068f565b6000818152600183016020526040812054801561398c5760006138c7600183615283565b85549091506000906138db90600190615283565b90508181146139405760008660000182815481106138fb576138fb61480d565b906000526020600020015490508087600001848154811061391e5761391e61480d565b6000918252602080832090910192909255918252600188019052604090208390555b855486908061395157613951615296565b60019003818190600052602060002001600090559055856001016000868152602001908152602001600020600090556001935050505061068f565b600091505061068f565b61399f81613050565b6040516001600160a01b038216907fbc7cd75a20ee27fd9adebab32041f755214dbc6bffa90cc0225b39da2e5c2d3b90600090a250565b60606001600160a01b0383163b613a3e5760405162461bcd60e51b815260206004820152602660248201527f416464726573733a2064656c65676174652063616c6c20746f206e6f6e2d636f6044820152651b9d1c9858dd60d21b60648201526084016107c2565b600080846001600160a01b031684604051613a5991906152ac565b600060405180830381855af49150503d8060008114613a94576040519150601f19603f3d011682016040523d82523d6000602084013e613a99565b606091505b5091509150613ac1828260405180606001604052806027815260200161532960279139613ba2565b95945050505050565b60008072184f03e93ff9f4daa797ed6e38ed64bf6a1f0160401b8310613b095772184f03e93ff9f4daa797ed6e38ed64bf6a1f0160401b830492506040015b6d04ee2d6d415b85acef81000000008310613b35576d04ee2d6d415b85acef8100000000830492506020015b662386f26fc100008310613b5357662386f26fc10000830492506010015b6305f5e1008310613b6b576305f5e100830492506008015b6127108310613b7f57612710830492506004015b60648310613b91576064830492506002015b600a831061068f5760010192915050565b60608315613bb1575081611592565b6115928383815115613bc65781518083602001fd5b8060405162461bcd60e51b81526004016107c29190613d85565b828054828255906000526020600020908101928215613c26579160200282015b82811115613c265782518290613c169082614644565b5091602001919060010190613c00565b50613c32929150613c9b565b5090565b604080516101808101825260608082526020820181905291810182905260009181018290526080810182905260a0810182905260c0810182905260e0810182905261010081018290526101208101829052610140810182905261016081019190915290565b80821115613c32576000613caf8282613cb8565b50600101613c9b565b508054613cc4906145bc565b6000825580601f10613cd4575050565b601f01602090049060005260206000209081019061102291905b80821115613c325760008155600101613cee565b6001600160e01b03198116811461102257600080fd5b600060208284031215613d2a57600080fd5b813561159281613d02565b60005b83811015613d50578181015183820152602001613d38565b50506000910152565b60008151808452613d71816020860160208601613d35565b601f01601f19169290920160200192915050565b6020815260006115926020830184613d59565b600060208284031215613daa57600080fd5b5035919050565b80356001600160a01b0381168114613dc857600080fd5b919050565b60008060408385031215613de057600080fd5b613de983613db1565b946020939093013593505050565b600060208284031215613e0957600080fd5b61159282613db1565b6020808252825182820181905260009190848201906040850190845b81811015613e4a57835183529284019291840191600101613e2e565b50909695505050505050565b634e487b7160e01b600052604160045260246000fd5b60405161018081016001600160401b0381118282101715613e8f57613e8f613e56565b60405290565b604051601f8201601f191681016001600160401b0381118282101715613ebd57613ebd613e56565b604052919050565b600082601f830112613ed657600080fd5b81356001600160401b03811115613eef57613eef613e56565b613f02601f8201601f1916602001613e95565b818152846020838601011115613f1757600080fd5b816020850160208301376000918101602001919091529392505050565b600060208284031215613f4657600080fd5b81356001600160401b03811115613f5c57600080fd5b61229584828501613ec5565b600080600060608486031215613f7d57600080fd5b613f8684613db1565b9250613f9460208501613db1565b9150604084013590509250925092565b60008060408385031215613fb757600080fd5b82359150613fc760208401613db1565b90509250929050565b60008060408385031215613fe357600080fd5b613fec83613db1565b915060208301356001600160401b0381111561400757600080fd5b61401385828601613ec5565b9150509250929050565b600081518084526020808501808196508360051b8101915082860160005b85811015614065578284038952614053848351613d59565b9885019893509084019060010161403b565b5091979650505050505050565b6000610180825181855261408882860182613d59565b915050602083015184820360208601526140a28282613d59565b915050604083015184820360408601526140bc828261401d565b91505060608301516140d6606086018263ffffffff169052565b5060808301516140ee608086018263ffffffff169052565b5060a083015161410660a086018263ffffffff169052565b5060c083015161411e60c086018263ffffffff169052565b5060e083015161413660e086018263ffffffff169052565b506101008381015163ffffffff9081169186019190915261012080850151909116908501526101408084015161ffff90811691860191909152610160938401511692909301919091525090565b6020815260006115926020830184614072565b600080604083850312156141a957600080fd5b50508035926020909101359150565b600080604083850312156141cb57600080fd5b6141d483613db1565b9150602083013580151581146141e957600080fd5b809150509250929050565b60006001600160401b0382111561420d5761420d613e56565b5060051b60200190565b6000602080838503121561422a57600080fd5b82356001600160401b0381111561424057600080fd5b8301601f8101851361425157600080fd5b803561426461425f826141f4565b613e95565b81815260059190911b8201830190838101908783111561428357600080fd5b928401925b828410156142a157833582529284019290840190614288565b979650505050505050565b6000602080830181845280855180835260408601915060408160051b870101925083870160005b8281101561430157603f198886030184526142ef858351614072565b945092850192908501906001016142d3565b5092979650505050505050565b6000806000806080858703121561432457600080fd5b61432d85613db1565b935061433b60208601613db1565b92506040850135915060608501356001600160401b0381111561435d57600080fd5b61436987828801613ec5565b91505092959194509250565b6000806040838503121561438857600080fd5b61439183613db1565b9150613fc760208401613db1565b600082601f8301126143b057600080fd5b813560206143c061425f836141f4565b82815260059290921b840181019181810190868411156143df57600080fd5b8286015b8481101561441e5780356001600160401b038111156144025760008081fd5b6144108986838b0101613ec5565b8452509183019183016143e3565b509695505050505050565b803563ffffffff81168114613dc857600080fd5b803561ffff81168114613dc857600080fd5b6000806040838503121561446257600080fd5b61446b83613db1565b915060208301356001600160401b038082111561448757600080fd5b90840190610180828703121561449c57600080fd5b6144a4613e6c565b8235828111156144b357600080fd5b6144bf88828601613ec5565b8252506020830135828111156144d457600080fd5b6144e088828601613ec5565b6020830152506040830135828111156144f857600080fd5b6145048882860161439f565b60408301525061451660608401614429565b606082015261452760808401614429565b608082015261453860a08401614429565b60a082015261454960c08401614429565b60c082015261455a60e08401614429565b60e0820152610100915061456f828401614429565b828201526101209150614583828401614429565b82820152610140915061459782840161443d565b8282015261016091506145ab82840161443d565b828201528093505050509250929050565b600181811c908216806145d057607f821691505b6020821081036145f057634e487b7160e01b600052602260045260246000fd5b50919050565b601f82111561086357600081815260208120601f850160051c8101602086101561461d5750805b601f850160051c820191505b8181101561463c57828155600101614629565b505050505050565b81516001600160401b0381111561465d5761465d613e56565b6146718161466b84546145bc565b846145f6565b602080601f8311600181146146a6576000841561468e5750858301515b600019600386901b1c1916600185901b17855561463c565b600085815260208120601f198616915b828110156146d5578886015182559484019460019091019084016146b6565b50858210156146f35787850151600019600388901b60f8161c191681555b5050505050600190811b01905550565b6040815260006147166040830185613d59565b8281036020840152613ac18185613d59565b6020808252602d908201527f4552433732313a2063616c6c6572206973206e6f7420746f6b656e206f776e6560408201526c1c881bdc88185c1c1c9bdd9959609a1b606082015260800190565b6020808252602c908201527f46756e6374696f6e206d7573742062652063616c6c6564207468726f7567682060408201526b19195b1959d85d1958d85b1b60a21b606082015260800190565b6020808252602c908201527f46756e6374696f6e206d7573742062652063616c6c6564207468726f7567682060408201526b6163746976652070726f787960a01b606082015260800190565b634e487b7160e01b600052603260045260246000fd5b634e487b7160e01b600052601160045260246000fd5b60006001820161484b5761484b614823565b5060010190565b60008151614864818560208601613d35565b9290920192915050565b693d913730b6b2911d101160b11b8152835160009061489481600a850160208901613d35565b72111610113232b9b1b934b83a34b7b7111d101160691b600a9184019182015284516148c781601d840160208901613d35565b7f222c2022696d616765223a2022646174613a696d6167652f7376672b786d6c3b601d92909101918201526618985cd94d8d0b60ca1b603d8201528351614915816044840160208801613d35565b61227d60f01b6044929091019182015260460195945050505050565b7f646174613a6170706c69636174696f6e2f6a736f6e3b6261736536342c00000081526000825161496981601d850160208701613d35565b91909101601d0192915050565b7f3c73766720786d6c6e733d27687474703a2f2f7777772e77332e6f72672f323081527f30302f73766727207072657365727665417370656374526174696f3d27784d6960208201527f6e594d696e206d656574272076696577426f783d27302030203335302033353060408201527f273e3c7374796c653e2e62617365207b2066696c6c3a2077686974653b20666f60608201527f6e742d66616d696c793a2073657269663b20666f6e742d73697a653a2032347060808201527f783b207d3c2f7374796c653e3c726563742077696474683d273130302527206860a08201527f65696768743d2731303025272066696c6c3d27626c61636b27202f3e3c74657860c08201527f7420783d273530252720793d273530252720636c6173733d276261736527206460e08201527f6f6d696e616e742d626173656c696e653d276d6964646c652720746578742d616101008201526e3731b437b91e93b6b4b2323632939f60891b610120820152600061012f8351614afa8183860160208801613d35565b8301614b178282016c1e17ba32bc3a1f1e17b9bb339f60991b9052565b61013c01949350505050565b693d913730b6b2911d101160b11b815284516000906020614b4a82600a8601838b01613d35565b72111610113232b9b1b934b83a34b7b7111d101160691b600a928501928301528651614b7c81601d8501848b01613d35565b7f2069732047656e657261746976652041492047616d652e222c2022696d616765601d93909101928301527f223a2022646174613a696d6167652f7376672b786d6c3b6261736536342c0000603d8301528551614bdf81605b8501848a01613d35565b741116101132bc3a32b93730b62fb634b735911d101160591b605b93909101928301528454607090600090614c13816145bc565b60018281168015614c2b5760018114614c4457614c74565b60ff198416888701528215158302880186019450614c74565b8a6000528660002060005b84811015614c6a5781548a8201890152908301908801614c4f565b5050858389010194505b505061227d60f01b835250506002019998505050505050505050565b60208082526025908201527f4552433732313a207472616e736665722066726f6d20696e636f72726563742060408201526437bbb732b960d91b606082015260800190565b600060208284031215614ce757600080fd5b5051919050565b60208082526032908201527f4552433732313a207472616e7366657220746f206e6f6e20455243373231526560408201527131b2b4bb32b91034b6b83632b6b2b73a32b960711b606082015260800190565b630262b1d160e51b815260008251614d5f816004850160208701613d35565b9190910160040192915050565b63024281d160e51b815260008251614d5f816004850160208701613d35565b64020aa259d160dd1b815260008251614dab816005850160208701613d35565b9190910160050192915050565b6402222a31d160dd1b815260008251614dab816005850160208701613d35565b64024a72a1d160dd1b815260008251614dab816005850160208701613d35565b64026a3a91d160dd1b815260008251614dab816005850160208701613d35565b64020a3a61d160dd1b815260008251614dab816005850160208701613d35565b7f3c73766720786d6c6e733d22687474703a2f2f7777772e77332e6f72672f323081527f30302f73766722207072657365727665417370656374526174696f3d22784d6960208201527f6e594d696e206d656574222076696577426f783d22302030203335302033353060408201527f223e3c7374796c653e2e62617365207b2066696c6c3a2077686974653b20666f60608201527f6e742d66616d696c793a2073657269663b20666f6e742d73697a653a2031347060808201527f783b207d3c2f7374796c653e3c726563742077696474683d223130302522206860a08201527f65696768743d2231303025222066696c6c3d22626c61636b22202f3e0000000060c082015260008951614f548160dc850160208e01613d35565b895190830190614f6b8160dc840160208e01613d35565b8951910190614f818160dc840160208d01613d35565b614fb4614fae614fa8614fa2614f9c60dc868801018e614852565b8c614852565b8a614852565b88614852565b86614852565b9c9b505050505050505050505050565b8082018082111561068f5761068f614823565b808202811582820484141761068f5761068f614823565b6414dada5b1b60da1b81526000835161500e816005850160208801613d35565b6101d160f51b6005918401918201528351615030816007840160208801613d35565b01600701949350505050565b6000835161504e818460208801613d35565b835190830190615062818360208801613d35565b01949350505050565b6000825161507d818460208701613d35565b651e17b9bb339f60d11b920191825250600601919050565b6000826150b257634e487b7160e01b600052601260045260246000fd5b500490565b6020808252602b908201527f496e697469616c697a61626c653a20636f6e7472616374206973206e6f74206960408201526a6e697469616c697a696e6760a81b606082015260800190565b7f416363657373436f6e74726f6c3a206163636f756e742000000000000000000081526000835161513a816017850160208801613d35565b7001034b99036b4b9b9b4b733903937b6329607d1b601791840191820152835161516b816028840160208801613d35565b01602801949350505050565b6001600160a01b03858116825284166020820152604081018390526080606082018190526000906151aa90830184613d59565b9695505050505050565b6000602082840312156151c657600080fd5b815161159281613d02565b681e3a32bc3a103c1e9160b91b815283516000906151f6816009850160208901613d35565b6411103c9e9160d91b600991840191820152845161521b81600e840160208901613d35565b6e111031b630b9b99e913130b9b2911f60891b600e9290910191820152835161524b81601d840160208801613d35565b661e17ba32bc3a1f60c91b601d929091019182015260240195945050505050565b60008161527b5761527b614823565b506000190190565b8181038181111561068f5761068f614823565b634e487b7160e01b600052603160045260246000fd5b600082516152be818460208701613d35565b919091019291505056fe360894a13ba1a3210667c828492db98dca3e2076cc3735a920a3ca505d382bbc4142434445464748494a4b4c4d4e4f505152535455565758595a6162636465666768696a6b6c6d6e6f707172737475767778797a303132333435363738392b2f416464726573733a206c6f772d6c6576656c2064656c65676174652063616c6c206661696c6564a2646970667358221220d0c47da216e20cb0d6e0d8b318c87029bbbf2a1b5acf2268b2b7cc59c7c87ca564736f6c63430008120033",
  "linkReferences": {},
  "deployedLinkReferences": {}
}