{
  "_format": "hh-sol-artifact-1",
  "contractName": "PromptMonsters",
  "sourceName": "contracts/prompt-monsters/PromptMonsters.sol",
  "abi": [
    {
      "inputs": [],
      "stateMutability": "nonpayable",
      "type": "constructor"
    },
    {
      "anonymous": false,
      "inputs": [
        {
          "indexed": false,
          "internalType": "address",
          "name": "previousAdmin",
          "type": "address"
        },
        {
          "indexed": false,
          "internalType": "address",
          "name": "newAdmin",
          "type": "address"
        }
      ],
      "name": "AdminChanged",
      "type": "event"
    },
    {
      "anonymous": false,
      "inputs": [
        {
          "indexed": true,
          "internalType": "address",
          "name": "owner",
          "type": "address"
        },
        {
          "indexed": true,
          "internalType": "address",
          "name": "approved",
          "type": "address"
        },
        {
          "indexed": true,
          "internalType": "uint256",
          "name": "tokenId",
          "type": "uint256"
        }
      ],
      "name": "Approval",
      "type": "event"
    },
    {
      "anonymous": false,
      "inputs": [
        {
          "indexed": true,
          "internalType": "address",
          "name": "owner",
          "type": "address"
        },
        {
          "indexed": true,
          "internalType": "address",
          "name": "operator",
          "type": "address"
        },
        {
          "indexed": false,
          "internalType": "bool",
          "name": "approved",
          "type": "bool"
        }
      ],
      "name": "ApprovalForAll",
      "type": "event"
    },
    {
      "anonymous": false,
      "inputs": [
        {
          "indexed": true,
          "internalType": "address",
          "name": "beacon",
          "type": "address"
        }
      ],
      "name": "BeaconUpgraded",
      "type": "event"
    },
    {
      "anonymous": false,
      "inputs": [
        {
          "components": [
            {
              "internalType": "string",
              "name": "feature",
              "type": "string"
            },
            {
              "internalType": "string",
              "name": "name",
              "type": "string"
            },
            {
              "internalType": "string",
              "name": "flavor",
              "type": "string"
            },
            {
              "internalType": "string[]",
              "name": "skills",
              "type": "string[]"
            },
            {
              "internalType": "uint32",
              "name": "lv",
              "type": "uint32"
            },
            {
              "internalType": "uint32",
              "name": "hp",
              "type": "uint32"
            },
            {
              "internalType": "uint32",
              "name": "atk",
              "type": "uint32"
            },
            {
              "internalType": "uint32",
              "name": "def",
              "type": "uint32"
            },
            {
              "internalType": "uint32",
              "name": "inte",
              "type": "uint32"
            },
            {
              "internalType": "uint32",
              "name": "mgr",
              "type": "uint32"
            },
            {
              "internalType": "uint32",
              "name": "agl",
              "type": "uint32"
            }
          ],
          "indexed": false,
          "internalType": "struct IPromptMonsters.Monster",
          "name": "monster",
          "type": "tuple"
        }
      ],
      "name": "GenerateMonster",
      "type": "event"
    },
    {
      "anonymous": false,
      "inputs": [
        {
          "indexed": true,
          "internalType": "address",
          "name": "resurrectionPrompt",
          "type": "address"
        },
        {
          "components": [
            {
              "internalType": "string",
              "name": "feature",
              "type": "string"
            },
            {
              "internalType": "string",
              "name": "name",
              "type": "string"
            },
            {
              "internalType": "string",
              "name": "flavor",
              "type": "string"
            },
            {
              "internalType": "string[]",
              "name": "skills",
              "type": "string[]"
            },
            {
              "internalType": "uint32",
              "name": "lv",
              "type": "uint32"
            },
            {
              "internalType": "uint32",
              "name": "hp",
              "type": "uint32"
            },
            {
              "internalType": "uint32",
              "name": "atk",
              "type": "uint32"
            },
            {
              "internalType": "uint32",
              "name": "def",
              "type": "uint32"
            },
            {
              "internalType": "uint32",
              "name": "inte",
              "type": "uint32"
            },
            {
              "internalType": "uint32",
              "name": "mgr",
              "type": "uint32"
            },
            {
              "internalType": "uint32",
              "name": "agl",
              "type": "uint32"
            }
          ],
          "indexed": false,
          "internalType": "struct IPromptMonsters.Monster",
          "name": "monster",
          "type": "tuple"
        }
      ],
      "name": "GeneratedMonsterV2",
      "type": "event"
    },
    {
      "anonymous": false,
      "inputs": [
        {
          "indexed": false,
          "internalType": "uint8",
          "name": "version",
          "type": "uint8"
        }
      ],
      "name": "Initialized",
      "type": "event"
    },
    {
      "anonymous": false,
      "inputs": [
        {
          "indexed": true,
          "internalType": "address",
          "name": "tokenOwner",
          "type": "address"
        },
        {
          "indexed": true,
          "internalType": "uint256",
          "name": "newTokenId",
          "type": "uint256"
        },
        {
          "components": [
            {
              "internalType": "string",
              "name": "feature",
              "type": "string"
            },
            {
              "internalType": "string",
              "name": "name",
              "type": "string"
            },
            {
              "internalType": "string",
              "name": "flavor",
              "type": "string"
            },
            {
              "internalType": "string[]",
              "name": "skills",
              "type": "string[]"
            },
            {
              "internalType": "uint32",
              "name": "lv",
              "type": "uint32"
            },
            {
              "internalType": "uint32",
              "name": "hp",
              "type": "uint32"
            },
            {
              "internalType": "uint32",
              "name": "atk",
              "type": "uint32"
            },
            {
              "internalType": "uint32",
              "name": "def",
              "type": "uint32"
            },
            {
              "internalType": "uint32",
              "name": "inte",
              "type": "uint32"
            },
            {
              "internalType": "uint32",
              "name": "mgr",
              "type": "uint32"
            },
            {
              "internalType": "uint32",
              "name": "agl",
              "type": "uint32"
            }
          ],
          "indexed": false,
          "internalType": "struct IPromptMonsters.Monster",
          "name": "monster",
          "type": "tuple"
        }
      ],
      "name": "MintedMonster",
      "type": "event"
    },
    {
      "anonymous": false,
      "inputs": [
        {
          "indexed": true,
          "internalType": "address",
          "name": "tokenOwner",
          "type": "address"
        },
        {
          "indexed": true,
          "internalType": "address",
          "name": "resurrectionPrompt",
          "type": "address"
        },
        {
          "indexed": true,
          "internalType": "uint256",
          "name": "newTokenId",
          "type": "uint256"
        },
        {
          "components": [
            {
              "internalType": "string",
              "name": "feature",
              "type": "string"
            },
            {
              "internalType": "string",
              "name": "name",
              "type": "string"
            },
            {
              "internalType": "string",
              "name": "flavor",
              "type": "string"
            },
            {
              "internalType": "string[]",
              "name": "skills",
              "type": "string[]"
            },
            {
              "internalType": "uint32",
              "name": "lv",
              "type": "uint32"
            },
            {
              "internalType": "uint32",
              "name": "hp",
              "type": "uint32"
            },
            {
              "internalType": "uint32",
              "name": "atk",
              "type": "uint32"
            },
            {
              "internalType": "uint32",
              "name": "def",
              "type": "uint32"
            },
            {
              "internalType": "uint32",
              "name": "inte",
              "type": "uint32"
            },
            {
              "internalType": "uint32",
              "name": "mgr",
              "type": "uint32"
            },
            {
              "internalType": "uint32",
              "name": "agl",
              "type": "uint32"
            }
          ],
          "indexed": false,
          "internalType": "struct IPromptMonsters.Monster",
          "name": "monster",
          "type": "tuple"
        }
      ],
      "name": "MintedMonsterV2",
      "type": "event"
    },
    {
      "anonymous": false,
      "inputs": [
        {
          "indexed": false,
          "internalType": "address",
          "name": "account",
          "type": "address"
        }
      ],
      "name": "Paused",
      "type": "event"
    },
    {
      "anonymous": false,
      "inputs": [
        {
          "indexed": true,
          "internalType": "bytes32",
          "name": "role",
          "type": "bytes32"
        },
        {
          "indexed": true,
          "internalType": "bytes32",
          "name": "previousAdminRole",
          "type": "bytes32"
        },
        {
          "indexed": true,
          "internalType": "bytes32",
          "name": "newAdminRole",
          "type": "bytes32"
        }
      ],
      "name": "RoleAdminChanged",
      "type": "event"
    },
    {
      "anonymous": false,
      "inputs": [
        {
          "indexed": true,
          "internalType": "bytes32",
          "name": "role",
          "type": "bytes32"
        },
        {
          "indexed": true,
          "internalType": "address",
          "name": "account",
          "type": "address"
        },
        {
          "indexed": true,
          "internalType": "address",
          "name": "sender",
          "type": "address"
        }
      ],
      "name": "RoleGranted",
      "type": "event"
    },
    {
      "anonymous": false,
      "inputs": [
        {
          "indexed": true,
          "internalType": "bytes32",
          "name": "role",
          "type": "bytes32"
        },
        {
          "indexed": true,
          "internalType": "address",
          "name": "account",
          "type": "address"
        },
        {
          "indexed": true,
          "internalType": "address",
          "name": "sender",
          "type": "address"
        }
      ],
      "name": "RoleRevoked",
      "type": "event"
    },
    {
      "anonymous": false,
      "inputs": [
        {
          "indexed": true,
          "internalType": "address",
          "name": "publisher",
          "type": "address"
        },
        {
          "indexed": false,
          "internalType": "address",
          "name": "oldValue",
          "type": "address"
        },
        {
          "indexed": false,
          "internalType": "address",
          "name": "newValue",
          "type": "address"
        }
      ],
      "name": "SetErc20",
      "type": "event"
    },
    {
      "anonymous": false,
      "inputs": [
        {
          "indexed": true,
          "internalType": "address",
          "name": "publisher",
          "type": "address"
        },
        {
          "indexed": false,
          "internalType": "string",
          "name": "oldValue",
          "type": "string"
        },
        {
          "indexed": false,
          "internalType": "string",
          "name": "newValue",
          "type": "string"
        }
      ],
      "name": "SetExternalLink",
      "type": "event"
    },
    {
      "anonymous": false,
      "inputs": [
        {
          "indexed": true,
          "internalType": "address",
          "name": "publisher",
          "type": "address"
        },
        {
          "indexed": false,
          "internalType": "uint256",
          "name": "oldValue",
          "type": "uint256"
        },
        {
          "indexed": false,
          "internalType": "uint256",
          "name": "newValue",
          "type": "uint256"
        }
      ],
      "name": "SetMintPrice",
      "type": "event"
    },
    {
      "anonymous": false,
      "inputs": [
        {
          "indexed": true,
          "internalType": "address",
          "name": "publisher",
          "type": "address"
        },
        {
          "components": [
            {
              "internalType": "string",
              "name": "feature",
              "type": "string"
            },
            {
              "internalType": "string",
              "name": "name",
              "type": "string"
            },
            {
              "internalType": "string",
              "name": "flavor",
              "type": "string"
            },
            {
              "internalType": "string[]",
              "name": "skills",
              "type": "string[]"
            },
            {
              "internalType": "uint32",
              "name": "lv",
              "type": "uint32"
            },
            {
              "internalType": "uint32",
              "name": "hp",
              "type": "uint32"
            },
            {
              "internalType": "uint32",
              "name": "atk",
              "type": "uint32"
            },
            {
              "internalType": "uint32",
              "name": "def",
              "type": "uint32"
            },
            {
              "internalType": "uint32",
              "name": "inte",
              "type": "uint32"
            },
            {
              "internalType": "uint32",
              "name": "mgr",
              "type": "uint32"
            },
            {
              "internalType": "uint32",
              "name": "agl",
              "type": "uint32"
            }
          ],
          "indexed": false,
          "internalType": "struct IPromptMonsters.Monster",
          "name": "oldValue",
          "type": "tuple"
        },
        {
          "components": [
            {
              "internalType": "string",
              "name": "feature",
              "type": "string"
            },
            {
              "internalType": "string",
              "name": "name",
              "type": "string"
            },
            {
              "internalType": "string",
              "name": "flavor",
              "type": "string"
            },
            {
              "internalType": "string[]",
              "name": "skills",
              "type": "string[]"
            },
            {
              "internalType": "uint32",
              "name": "lv",
              "type": "uint32"
            },
            {
              "internalType": "uint32",
              "name": "hp",
              "type": "uint32"
            },
            {
              "internalType": "uint32",
              "name": "atk",
              "type": "uint32"
            },
            {
              "internalType": "uint32",
              "name": "def",
              "type": "uint32"
            },
            {
              "internalType": "uint32",
              "name": "inte",
              "type": "uint32"
            },
            {
              "internalType": "uint32",
              "name": "mgr",
              "type": "uint32"
            },
            {
              "internalType": "uint32",
              "name": "agl",
              "type": "uint32"
            }
          ],
          "indexed": false,
          "internalType": "struct IPromptMonsters.Monster",
          "name": "newValue",
          "type": "tuple"
        }
      ],
      "name": "SetMonsterHistory",
      "type": "event"
    },
    {
      "anonymous": false,
      "inputs": [
        {
          "indexed": true,
          "internalType": "address",
          "name": "publisher",
          "type": "address"
        },
        {
          "indexed": false,
          "internalType": "contract IPromptMonstersExtension",
          "name": "oldValue",
          "type": "address"
        },
        {
          "indexed": false,
          "internalType": "contract IPromptMonstersExtension",
          "name": "newValue",
          "type": "address"
        }
      ],
      "name": "SetPromptMonstersExtension",
      "type": "event"
    },
    {
      "anonymous": false,
      "inputs": [
        {
          "indexed": true,
          "internalType": "address",
          "name": "publisher",
          "type": "address"
        },
        {
          "indexed": false,
          "internalType": "contract IPromptMonstersImage",
          "name": "oldValue",
          "type": "address"
        },
        {
          "indexed": false,
          "internalType": "contract IPromptMonstersImage",
          "name": "newValue",
          "type": "address"
        }
      ],
      "name": "SetPromptMonstersImage",
      "type": "event"
    },
    {
      "anonymous": false,
      "inputs": [
        {
          "indexed": true,
          "internalType": "address",
          "name": "publisher",
          "type": "address"
        },
        {
          "indexed": false,
          "internalType": "address",
          "name": "oldValue",
          "type": "address"
        },
        {
          "indexed": false,
          "internalType": "address",
          "name": "newValue",
          "type": "address"
        }
      ],
      "name": "SetPromptMonstersWallet",
      "type": "event"
    },
    {
      "anonymous": false,
      "inputs": [
        {
          "indexed": true,
          "internalType": "address",
          "name": "publisher",
          "type": "address"
        },
        {
          "indexed": false,
          "internalType": "uint256",
          "name": "oldValue",
          "type": "uint256"
        },
        {
          "indexed": false,
          "internalType": "uint256",
          "name": "newValue",
          "type": "uint256"
        }
      ],
      "name": "SetResurrectionPromptToTokenIdMap",
      "type": "event"
    },
    {
      "anonymous": false,
      "inputs": [
        {
          "indexed": true,
          "internalType": "address",
          "name": "publisher",
          "type": "address"
        },
        {
          "indexed": false,
          "internalType": "address",
          "name": "oldValue",
          "type": "address"
        },
        {
          "indexed": false,
          "internalType": "address",
          "name": "newValue",
          "type": "address"
        }
      ],
      "name": "SetTokenIdToResurrectionPromptMap",
      "type": "event"
    },
    {
      "anonymous": false,
      "inputs": [
        {
          "indexed": true,
          "internalType": "address",
          "name": "from",
          "type": "address"
        },
        {
          "indexed": true,
          "internalType": "address",
          "name": "to",
          "type": "address"
        },
        {
          "indexed": true,
          "internalType": "uint256",
          "name": "tokenId",
          "type": "uint256"
        }
      ],
      "name": "Transfer",
      "type": "event"
    },
    {
      "anonymous": false,
      "inputs": [
        {
          "indexed": false,
          "internalType": "address",
          "name": "account",
          "type": "address"
        }
      ],
      "name": "Unpaused",
      "type": "event"
    },
    {
      "anonymous": false,
      "inputs": [
        {
          "indexed": true,
          "internalType": "address",
          "name": "implementation",
          "type": "address"
        }
      ],
      "name": "Upgraded",
      "type": "event"
    },
    {
      "inputs": [],
      "name": "DEFAULT_ADMIN_ROLE",
      "outputs": [
        {
          "internalType": "bytes32",
          "name": "",
          "type": "bytes32"
        }
      ],
      "stateMutability": "view",
      "type": "function"
    },
    {
      "inputs": [
        {
          "internalType": "address",
          "name": "to",
          "type": "address"
        },
        {
          "internalType": "uint256",
          "name": "tokenId",
          "type": "uint256"
        }
      ],
      "name": "approve",
      "outputs": [],
      "stateMutability": "nonpayable",
      "type": "function"
    },
    {
      "inputs": [
        {
          "internalType": "address",
          "name": "owner",
          "type": "address"
        }
      ],
      "name": "balanceOf",
      "outputs": [
        {
          "internalType": "uint256",
          "name": "",
          "type": "uint256"
        }
      ],
      "stateMutability": "view",
      "type": "function"
    },
    {
      "inputs": [
        {
          "internalType": "uint256",
          "name": "tokenId_",
          "type": "uint256"
        }
      ],
      "name": "burn",
      "outputs": [],
      "stateMutability": "nonpayable",
      "type": "function"
    },
    {
      "inputs": [
        {
          "internalType": "uint256",
          "name": "monsterId",
          "type": "uint256"
        }
      ],
      "name": "checkMonsterId",
      "outputs": [],
      "stateMutability": "view",
      "type": "function"
    },
    {
      "inputs": [],
      "name": "contractURI",
      "outputs": [
        {
          "internalType": "string",
          "name": "uri",
          "type": "string"
        }
      ],
      "stateMutability": "view",
      "type": "function"
    },
    {
      "inputs": [
        {
          "internalType": "address",
          "name": "resurrectionPrompt_",
          "type": "address"
        },
        {
          "components": [
            {
              "internalType": "string",
              "name": "feature",
              "type": "string"
            },
            {
              "internalType": "string",
              "name": "name",
              "type": "string"
            },
            {
              "internalType": "string",
              "name": "flavor",
              "type": "string"
            },
            {
              "internalType": "string[]",
              "name": "skills",
              "type": "string[]"
            },
            {
              "internalType": "uint32",
              "name": "lv",
              "type": "uint32"
            },
            {
              "internalType": "uint32",
              "name": "hp",
              "type": "uint32"
            },
            {
              "internalType": "uint32",
              "name": "atk",
              "type": "uint32"
            },
            {
              "internalType": "uint32",
              "name": "def",
              "type": "uint32"
            },
            {
              "internalType": "uint32",
              "name": "inte",
              "type": "uint32"
            },
            {
              "internalType": "uint32",
              "name": "mgr",
              "type": "uint32"
            },
            {
              "internalType": "uint32",
              "name": "agl",
              "type": "uint32"
            }
          ],
          "internalType": "struct IPromptMonsters.Monster",
          "name": "monster_",
          "type": "tuple"
        }
      ],
      "name": "generateMonster",
      "outputs": [],
      "stateMutability": "nonpayable",
      "type": "function"
    },
    {
      "inputs": [
        {
          "internalType": "uint256",
          "name": "tokenId",
          "type": "uint256"
        }
      ],
      "name": "getApproved",
      "outputs": [
        {
          "internalType": "address",
          "name": "",
          "type": "address"
        }
      ],
      "stateMutability": "view",
      "type": "function"
    },
    {
      "inputs": [],
      "name": "getErc20",
      "outputs": [
        {
          "internalType": "contract IERC20",
          "name": "returnValue",
          "type": "address"
        }
      ],
      "stateMutability": "view",
      "type": "function"
    },
    {
      "inputs": [],
      "name": "getMintPrice",
      "outputs": [
        {
          "internalType": "uint256",
          "name": "returnValue",
          "type": "uint256"
        }
      ],
      "stateMutability": "view",
      "type": "function"
    },
    {
      "inputs": [
        {
          "internalType": "address[]",
          "name": "resurrectionPrompts",
          "type": "address[]"
        }
      ],
      "name": "getMinteds",
      "outputs": [
        {
          "internalType": "bool[]",
          "name": "returnValue",
          "type": "bool[]"
        }
      ],
      "stateMutability": "view",
      "type": "function"
    },
    {
      "inputs": [
        {
          "internalType": "address[]",
          "name": "resurrectionPrompts_",
          "type": "address[]"
        }
      ],
      "name": "getMonsterExtensions",
      "outputs": [
        {
          "components": [
            {
              "internalType": "string",
              "name": "feature",
              "type": "string"
            },
            {
              "internalType": "string",
              "name": "name",
              "type": "string"
            },
            {
              "internalType": "string",
              "name": "flavor",
              "type": "string"
            },
            {
              "internalType": "string[]",
              "name": "skills",
              "type": "string[]"
            },
            {
              "internalType": "uint32",
              "name": "lv",
              "type": "uint32"
            },
            {
              "internalType": "uint32",
              "name": "hp",
              "type": "uint32"
            },
            {
              "internalType": "uint32",
              "name": "atk",
              "type": "uint32"
            },
            {
              "internalType": "uint32",
              "name": "def",
              "type": "uint32"
            },
            {
              "internalType": "uint32",
              "name": "inte",
              "type": "uint32"
            },
            {
              "internalType": "uint32",
              "name": "mgr",
              "type": "uint32"
            },
            {
              "internalType": "uint32",
              "name": "agl",
              "type": "uint32"
            },
            {
              "internalType": "uint32[]",
              "name": "skillTypes",
              "type": "uint32[]"
            },
            {
              "internalType": "address",
              "name": "resurrectionPrompt",
              "type": "address"
            }
          ],
          "internalType": "struct IPromptMonstersExtension.MonsterExtension[]",
          "name": "monsterExtensions",
          "type": "tuple[]"
        }
      ],
      "stateMutability": "view",
      "type": "function"
    },
    {
      "inputs": [],
      "name": "getMonstersTotalSupply",
      "outputs": [
        {
          "internalType": "uint256",
          "name": "totalSupply",
          "type": "uint256"
        }
      ],
      "stateMutability": "view",
      "type": "function"
    },
    {
      "inputs": [
        {
          "internalType": "address",
          "name": "owner",
          "type": "address"
        }
      ],
      "name": "getOwnerToTokenIds",
      "outputs": [
        {
          "internalType": "uint256[]",
          "name": "returnValue",
          "type": "uint256[]"
        }
      ],
      "stateMutability": "view",
      "type": "function"
    },
    {
      "inputs": [],
      "name": "getPaused",
      "outputs": [
        {
          "internalType": "bool",
          "name": "returnValue",
          "type": "bool"
        }
      ],
      "stateMutability": "view",
      "type": "function"
    },
    {
      "inputs": [],
      "name": "getPromptMonstersExtension",
      "outputs": [
        {
          "internalType": "contract IPromptMonstersExtension",
          "name": "returnValue",
          "type": "address"
        }
      ],
      "stateMutability": "view",
      "type": "function"
    },
    {
      "inputs": [],
      "name": "getPromptMonstersImage",
      "outputs": [
        {
          "internalType": "contract IPromptMonstersImage",
          "name": "returnValue",
          "type": "address"
        }
      ],
      "stateMutability": "view",
      "type": "function"
    },
    {
      "inputs": [],
      "name": "getPromptMonstersWallet",
      "outputs": [
        {
          "internalType": "address",
          "name": "returnValue",
          "type": "address"
        }
      ],
      "stateMutability": "view",
      "type": "function"
    },
    {
      "inputs": [
        {
          "internalType": "uint256[]",
          "name": "monsterIds_",
          "type": "uint256[]"
        }
      ],
      "name": "getResurrectionPrompts",
      "outputs": [
        {
          "internalType": "address[]",
          "name": "returnValue",
          "type": "address[]"
        }
      ],
      "stateMutability": "view",
      "type": "function"
    },
    {
      "inputs": [
        {
          "internalType": "bytes32",
          "name": "role",
          "type": "bytes32"
        }
      ],
      "name": "getRoleAdmin",
      "outputs": [
        {
          "internalType": "bytes32",
          "name": "",
          "type": "bytes32"
        }
      ],
      "stateMutability": "view",
      "type": "function"
    },
    {
      "inputs": [
        {
          "internalType": "bytes32",
          "name": "role",
          "type": "bytes32"
        },
        {
          "internalType": "uint256",
          "name": "index",
          "type": "uint256"
        }
      ],
      "name": "getRoleMember",
      "outputs": [
        {
          "internalType": "address",
          "name": "",
          "type": "address"
        }
      ],
      "stateMutability": "view",
      "type": "function"
    },
    {
      "inputs": [
        {
          "internalType": "bytes32",
          "name": "role",
          "type": "bytes32"
        }
      ],
      "name": "getRoleMemberCount",
      "outputs": [
        {
          "internalType": "uint256",
          "name": "",
          "type": "uint256"
        }
      ],
      "stateMutability": "view",
      "type": "function"
    },
    {
      "inputs": [
        {
          "internalType": "address[]",
          "name": "resurrectionPrompts",
          "type": "address[]"
        }
      ],
      "name": "getTokenIds",
      "outputs": [
        {
          "internalType": "uint256[]",
          "name": "returnValue",
          "type": "uint256[]"
        }
      ],
      "stateMutability": "view",
      "type": "function"
    },
    {
      "inputs": [
        {
          "internalType": "bytes32",
          "name": "role",
          "type": "bytes32"
        },
        {
          "internalType": "address",
          "name": "account",
          "type": "address"
        }
      ],
      "name": "grantRole",
      "outputs": [],
      "stateMutability": "nonpayable",
      "type": "function"
    },
    {
      "inputs": [
        {
          "internalType": "bytes32",
          "name": "role",
          "type": "bytes32"
        },
        {
          "internalType": "address",
          "name": "account",
          "type": "address"
        }
      ],
      "name": "hasRole",
      "outputs": [
        {
          "internalType": "bool",
          "name": "",
          "type": "bool"
        }
      ],
      "stateMutability": "view",
      "type": "function"
    },
    {
      "inputs": [
        {
          "internalType": "string",
          "name": "externalLink_",
          "type": "string"
        },
        {
          "internalType": "address",
          "name": "erc20Address_",
          "type": "address"
        },
        {
          "internalType": "uint256",
          "name": "mintPrice_",
          "type": "uint256"
        },
        {
          "internalType": "address",
          "name": "promptMonstersWallet_",
          "type": "address"
        }
      ],
      "name": "initialize",
      "outputs": [],
      "stateMutability": "nonpayable",
      "type": "function"
    },
    {
      "inputs": [
        {
          "internalType": "address",
          "name": "owner",
          "type": "address"
        },
        {
          "internalType": "address",
          "name": "operator",
          "type": "address"
        }
      ],
      "name": "isApprovedForAll",
      "outputs": [
        {
          "internalType": "bool",
          "name": "",
          "type": "bool"
        }
      ],
      "stateMutability": "view",
      "type": "function"
    },
    {
      "inputs": [
        {
          "internalType": "address",
          "name": "resurrectionPrompt",
          "type": "address"
        }
      ],
      "name": "mint",
      "outputs": [],
      "stateMutability": "nonpayable",
      "type": "function"
    },
    {
      "inputs": [],
      "name": "name",
      "outputs": [
        {
          "internalType": "string",
          "name": "",
          "type": "string"
        }
      ],
      "stateMutability": "view",
      "type": "function"
    },
    {
      "inputs": [
        {
          "internalType": "uint256",
          "name": "tokenId",
          "type": "uint256"
        }
      ],
      "name": "ownerOf",
      "outputs": [
        {
          "internalType": "address",
          "name": "",
          "type": "address"
        }
      ],
      "stateMutability": "view",
      "type": "function"
    },
    {
      "inputs": [],
      "name": "pause",
      "outputs": [],
      "stateMutability": "nonpayable",
      "type": "function"
    },
    {
      "inputs": [],
      "name": "proxiableUUID",
      "outputs": [
        {
          "internalType": "bytes32",
          "name": "",
          "type": "bytes32"
        }
      ],
      "stateMutability": "view",
      "type": "function"
    },
    {
      "inputs": [
        {
          "internalType": "bytes32",
          "name": "role",
          "type": "bytes32"
        },
        {
          "internalType": "address",
          "name": "account",
          "type": "address"
        }
      ],
      "name": "renounceRole",
      "outputs": [],
      "stateMutability": "nonpayable",
      "type": "function"
    },
    {
      "inputs": [
        {
          "internalType": "bytes32",
          "name": "role",
          "type": "bytes32"
        },
        {
          "internalType": "address",
          "name": "account",
          "type": "address"
        }
      ],
      "name": "revokeRole",
      "outputs": [],
      "stateMutability": "nonpayable",
      "type": "function"
    },
    {
      "inputs": [
        {
          "internalType": "address",
          "name": "from",
          "type": "address"
        },
        {
          "internalType": "address",
          "name": "to",
          "type": "address"
        },
        {
          "internalType": "uint256",
          "name": "tokenId",
          "type": "uint256"
        }
      ],
      "name": "safeTransferFrom",
      "outputs": [],
      "stateMutability": "nonpayable",
      "type": "function"
    },
    {
      "inputs": [
        {
          "internalType": "address",
          "name": "from",
          "type": "address"
        },
        {
          "internalType": "address",
          "name": "to",
          "type": "address"
        },
        {
          "internalType": "uint256",
          "name": "tokenId",
          "type": "uint256"
        },
        {
          "internalType": "bytes",
          "name": "data",
          "type": "bytes"
        }
      ],
      "name": "safeTransferFrom",
      "outputs": [],
      "stateMutability": "nonpayable",
      "type": "function"
    },
    {
      "inputs": [
        {
          "internalType": "address",
          "name": "operator",
          "type": "address"
        },
        {
          "internalType": "bool",
          "name": "approved",
          "type": "bool"
        }
      ],
      "name": "setApprovalForAll",
      "outputs": [],
      "stateMutability": "nonpayable",
      "type": "function"
    },
    {
      "inputs": [
        {
          "internalType": "address",
          "name": "newState_",
          "type": "address"
        }
      ],
      "name": "setErc20",
      "outputs": [],
      "stateMutability": "nonpayable",
      "type": "function"
    },
    {
      "inputs": [
        {
          "internalType": "string",
          "name": "newState_",
          "type": "string"
        }
      ],
      "name": "setExternalLink",
      "outputs": [],
      "stateMutability": "nonpayable",
      "type": "function"
    },
    {
      "inputs": [
        {
          "internalType": "uint256",
          "name": "newState_",
          "type": "uint256"
        }
      ],
      "name": "setMintPrice",
      "outputs": [],
      "stateMutability": "nonpayable",
      "type": "function"
    },
    {
      "inputs": [
        {
          "internalType": "address",
          "name": "newState_",
          "type": "address"
        }
      ],
      "name": "setPromptMonstersExtension",
      "outputs": [],
      "stateMutability": "nonpayable",
      "type": "function"
    },
    {
      "inputs": [
        {
          "internalType": "address",
          "name": "newState_",
          "type": "address"
        }
      ],
      "name": "setPromptMonstersImage",
      "outputs": [],
      "stateMutability": "nonpayable",
      "type": "function"
    },
    {
      "inputs": [
        {
          "internalType": "address",
          "name": "newState_",
          "type": "address"
        }
      ],
      "name": "setPromptMonstersWallet",
      "outputs": [],
      "stateMutability": "nonpayable",
      "type": "function"
    },
    {
      "inputs": [
        {
          "internalType": "bytes4",
          "name": "interfaceId",
          "type": "bytes4"
        }
      ],
      "name": "supportsInterface",
      "outputs": [
        {
          "internalType": "bool",
          "name": "",
          "type": "bool"
        }
      ],
      "stateMutability": "view",
      "type": "function"
    },
    {
      "inputs": [],
      "name": "symbol",
      "outputs": [
        {
          "internalType": "string",
          "name": "",
          "type": "string"
        }
      ],
      "stateMutability": "view",
      "type": "function"
    },
    {
      "inputs": [
        {
          "internalType": "uint256",
          "name": "tokenId_",
          "type": "uint256"
        }
      ],
      "name": "tokenURI",
      "outputs": [
        {
          "internalType": "string",
          "name": "uri",
          "type": "string"
        }
      ],
      "stateMutability": "view",
      "type": "function"
    },
    {
      "inputs": [
        {
          "internalType": "address",
          "name": "from",
          "type": "address"
        },
        {
          "internalType": "address",
          "name": "to",
          "type": "address"
        },
        {
          "internalType": "uint256",
          "name": "tokenId",
          "type": "uint256"
        }
      ],
      "name": "transferFrom",
      "outputs": [],
      "stateMutability": "nonpayable",
      "type": "function"
    },
    {
      "inputs": [],
      "name": "unpause",
      "outputs": [],
      "stateMutability": "nonpayable",
      "type": "function"
    },
    {
      "inputs": [
        {
          "internalType": "address",
          "name": "newImplementation",
          "type": "address"
        }
      ],
      "name": "upgradeTo",
      "outputs": [],
      "stateMutability": "nonpayable",
      "type": "function"
    },
    {
      "inputs": [
        {
          "internalType": "address",
          "name": "newImplementation",
          "type": "address"
        },
        {
          "internalType": "bytes",
          "name": "data",
          "type": "bytes"
        }
      ],
      "name": "upgradeToAndCall",
      "outputs": [],
      "stateMutability": "payable",
      "type": "function"
    }
  ],
  "bytecode": "0x60a0604052306080523480156200001557600080fd5b506200002062000026565b620000e8565b600054610100900460ff1615620000935760405162461bcd60e51b815260206004820152602760248201527f496e697469616c697a61626c653a20636f6e747261637420697320696e697469604482015266616c697a696e6760c81b606482015260840160405180910390fd5b60005460ff9081161015620000e6576000805460ff191660ff9081179091556040519081527f7f26b83ff96e1f2b6a682f133852f6798a09c465da95921460cefb38474024989060200160405180910390a15b565b6080516151906200012060003960008181611136015281816111760152818161132e0152818161136e01526113fd01526151906000f3fe6080604052600436106102c95760003560e01c80636a62784211610175578063a8ef2956116100dc578063d547741f11610095578063e985e9c51161006f578063e985e9c5146108ab578063ee9b80a4146108f4578063eeeaa00814610914578063f4a0a5281461093357600080fd5b8063d547741f14610856578063e4bab3f514610876578063e8a3d4851461089657600080fd5b8063a8ef29561461077d578063b01730961461079c578063b88d4fde146107c9578063bacc06aa146107e9578063c87b56dd14610816578063ca15c8731461083657600080fd5b806391d148541161012e57806391d14854146106dd57806395d89b41146106fd578063a11adfe714610712578063a217fddf14610732578063a22cb46514610747578063a7f93ebd1461076757600080fd5b80636a6278421461062957806370a08231146106495780637af148c01461066957806383186465146106885780638456cb59146106a85780639010d07c146106bd57600080fd5b806333a512a4116102345780634f1ef286116101ed57806355b09456116101c757806355b09456146105a95780636352211e146105c957806364cb5fd2146105e95780636805b84b1461060957600080fd5b80634f1ef2861461056b57806352d1902d1461057e57806352dd29d21461059357600080fd5b806333a512a4146104b657806336568abe146104d65780633659cfe6146104f65780633f4ba83a1461051657806342842e0e1461052b57806342966c681461054b57600080fd5b80631b80ef7a116102865780631b80ef7a146103cc5780631f917921146103f957806323b872dd14610419578063248a9ca31461043957806327fde6d6146104775780632f2ff15d1461049657600080fd5b806301ffc9a7146102ce578063038d18d81461030357806306fdde0314610325578063081812fc14610347578063095ea7b31461037f5780630fd7efc41461039f575b600080fd5b3480156102da57600080fd5b506102ee6102e9366004613b71565b610953565b60405190151581526020015b60405180910390f35b34801561030f57600080fd5b5061032361031e366004613ba3565b610964565b005b34801561033157600080fd5b5061033a6109e9565b6040516102fa9190613c10565b34801561035357600080fd5b50610367610362366004613c23565b610a7b565b6040516001600160a01b0390911681526020016102fa565b34801561038b57600080fd5b5061032361039a366004613c3c565b610aa2565b3480156103ab57600080fd5b506103bf6103ba366004613ba3565b610bbc565b6040516102fa9190613c68565b3480156103d857600080fd5b506103ec6103e7366004613d61565b610c29565b6040516102fa9190613e8a565b34801561040557600080fd5b50610323610414366004614067565b610dc4565b34801561042557600080fd5b5061032361043436600461409b565b610eab565b34801561044557600080fd5b50610469610454366004613c23565b60009081526097602052604090206001015490565b6040519081526020016102fa565b34801561048357600080fd5b5061019d546001600160a01b0316610367565b3480156104a257600080fd5b506103236104b13660046140dc565b610edc565b3480156104c257600080fd5b506103236104d13660046141b8565b610f01565b3480156104e257600080fd5b506103236104f13660046140dc565b6110ae565b34801561050257600080fd5b50610323610511366004613ba3565b61112c565b34801561052257600080fd5b5061032361120b565b34801561053757600080fd5b5061032361054636600461409b565b6112b6565b34801561055757600080fd5b50610323610566366004613c23565b6112d1565b610323610579366004614326565b611324565b34801561058a57600080fd5b506104696113f0565b34801561059f57600080fd5b5061019854610469565b3480156105b557600080fd5b506103236105c4366004614375565b6114a3565b3480156105d557600080fd5b506103676105e4366004613c23565b611665565b3480156105f557600080fd5b50610323610604366004613ba3565b6116c5565b34801561061557600080fd5b5061019a54600160a01b900460ff166102ee565b34801561063557600080fd5b50610323610644366004613ba3565b611741565b34801561065557600080fd5b50610469610664366004613ba3565b611e0f565b34801561067557600080fd5b50610191546001600160a01b0316610367565b34801561069457600080fd5b506103236106a3366004613c23565b611e95565b3480156106b457600080fd5b50610323611f16565b3480156106c957600080fd5b506103676106d83660046143e0565b611f88565b3480156106e957600080fd5b506102ee6106f83660046140dc565b611fa7565b34801561070957600080fd5b5061033a611fd2565b34801561071e57600080fd5b506103bf61072d366004613d61565b611fe1565b34801561073e57600080fd5b50610469600081565b34801561075357600080fd5b50610323610762366004614410565b61209a565b34801561077357600080fd5b5061019354610469565b34801561078957600080fd5b5061019a546001600160a01b0316610367565b3480156107a857600080fd5b506107bc6107b7366004613d61565b6120a5565b6040516102fa919061443e565b3480156107d557600080fd5b506103236107e4366004614478565b612170565b3480156107f557600080fd5b506108096108043660046144e3565b6121a8565b6040516102fa9190614568565b34801561082257600080fd5b5061033a610831366004613c23565b61226f565b34801561084257600080fd5b50610469610851366004613c23565b612317565b34801561086257600080fd5b506103236108713660046140dc565b61232e565b34801561088257600080fd5b50610323610891366004613ba3565b612353565b3480156108a257600080fd5b5061033a6123cb565b3480156108b757600080fd5b506102ee6108c63660046145a9565b6001600160a01b039182166000908152606a6020908152604080832093909416825291909152205460ff1690565b34801561090057600080fd5b5061032361090f366004613ba3565b612452565b34801561092057600080fd5b50610192546001600160a01b0316610367565b34801561093f57600080fd5b5061032361094e366004613c23565b6124ca565b600061095e82612516565b92915050565b600061096f8161253b565b61019a80546001600160a01b038481166001600160a01b0319831617909255166109963390565b61019a54604080516001600160a01b038581168252928316602082015292909116917f8cd3b162ee77219f8a05a08a052b90a5e1d7a0781f265182421bc8563f823bbc91015b60405180910390a2505050565b6060606580546109f8906145d7565b80601f0160208091040260200160405190810160405280929190818152602001828054610a24906145d7565b8015610a715780601f10610a4657610100808354040283529160200191610a71565b820191906000526020600020905b815481529060010190602001808311610a5457829003601f168201915b5050505050905090565b6000610a8682612545565b506000908152606960205260409020546001600160a01b031690565b6000610aad82611665565b9050806001600160a01b0316836001600160a01b031603610b1f5760405162461bcd60e51b815260206004820152602160248201527f4552433732313a20617070726f76616c20746f2063757272656e74206f776e656044820152603960f91b60648201526084015b60405180910390fd5b336001600160a01b0382161480610b3b5750610b3b81336108c6565b610bad5760405162461bcd60e51b815260206004820152603d60248201527f4552433732313a20617070726f76652063616c6c6572206973206e6f7420746f60448201527f6b656e206f776e6572206f7220617070726f76656420666f7220616c6c0000006064820152608401610b16565b610bb783836125a4565b505050565b6001600160a01b03811660009081526101976020908152604091829020805483518184028101840190945280845260609392830182828015610c1d57602002820191906000526020600020905b815481526020019060010190808311610c09575b50505050509050919050565b8051606090806001600160401b03811115610c4657610c46613cac565b604051908082528060200260200182016040528015610cdf57816020015b604080516101a0810182526060808252602080830182905292820181905280820181905260006080830181905260a0830181905260c0830181905260e083018190526101008301819052610120830181905261014083018190526101608301919091526101808201528252600019909201910181610c645790505b50915060005b81811015610dbd576000848281518110610d0157610d01614611565b60209081029190910181015161019d546001600160a01b0380831660009081526101969094526040938490209351633184613360e21b8152929450169163c61184cc91610d529185916004016147d5565b600060405180830381865afa158015610d6f573d6000803e3d6000fd5b505050506040513d6000823e601f3d908101601f19168201604052610d979190810190614937565b848381518110610da957610da9614611565b602090810291909101015250600101610ce5565b5050919050565b6000610dcf8161253b565b60006101948054610ddf906145d7565b80601f0160208091040260200160405190810160405280929190818152602001828054610e0b906145d7565b8015610e585780601f10610e2d57610100808354040283529160200191610e58565b820191906000526020600020905b815481529060010190602001808311610e3b57829003601f168201915b50505050509050826101949081610e6f9190614b14565b50336001600160a01b03167ffceab947acbd3281d41fa085ba6d9503467fabd9e3d96e3ee0dbf6f8b04a9ca482856040516109dc929190614bd3565b610eb53382612612565b610ed15760405162461bcd60e51b8152600401610b1690614bf8565b610bb7838383612691565b600082815260976020526040902060010154610ef78161253b565b610bb78383612802565b61019e54610f0e8161253b565b610f16612824565b6001600160a01b03831660009081526101966020526040902082518391908190610f409082614b14565b5060208201516001820190610f559082614b14565b5060408201516002820190610f6a9082614b14565b5060608201518051610f86916003840191602090910190613a9e565b5060808201516004909101805460a084015160c085015160e08601516101008701516101208801516101409098015163ffffffff908116600160c01b0263ffffffff60c01b19998216600160a01b0263ffffffff60a01b19938316600160801b029390931667ffffffffffffffff60801b19948316600160601b0263ffffffff60601b19968416600160401b029690961667ffffffffffffffff60401b199784166401000000000267ffffffffffffffff1990991693909a169290921796909617949094169690961791909117161792909217929092161790556040516001600160a01b038416907fff44cc285b2217920f739fd55ee2013963427c0fb71f0d49dc99cfd0c7b8325e9061109b908590614c45565b60405180910390a2610bb7600161015f55565b6001600160a01b038116331461111e5760405162461bcd60e51b815260206004820152602f60248201527f416363657373436f6e74726f6c3a2063616e206f6e6c792072656e6f756e636560448201526e103937b632b9903337b91039b2b63360891b6064820152608401610b16565b6111288282612887565b5050565b6001600160a01b037f00000000000000000000000000000000000000000000000000000000000000001630036111745760405162461bcd60e51b8152600401610b1690614d5c565b7f00000000000000000000000000000000000000000000000000000000000000006001600160a01b03166111bd600080516020615114833981519152546001600160a01b031690565b6001600160a01b0316146111e35760405162461bcd60e51b8152600401610b1690614da8565b6111ec816128a9565b60408051600080825260208201909252611208918391906128b4565b50565b60006112168161253b565b61019a54600160a01b900460ff166112675760405162461bcd60e51b815260206004820152601460248201527314185d5cd8589b194e881b9bdd081c185d5cd95960621b6044820152606401610b16565b61019a805460ff60a01b191690557f5db9ee0a495bf2e6ff9c91a7834c1ba4fdd244a5e8aa4e537bd38aeae4b073aa335b6040516001600160a01b03909116815260200160405180910390a150565b610bb783838360405180602001604052806000815250612170565b6112d9612824565b61019a54600160a01b900460ff16156113045760405162461bcd60e51b8152600401610b1690614df4565b61131933611313600080611f88565b836112b6565b611208600161015f55565b6001600160a01b037f000000000000000000000000000000000000000000000000000000000000000016300361136c5760405162461bcd60e51b8152600401610b1690614d5c565b7f00000000000000000000000000000000000000000000000000000000000000006001600160a01b03166113b5600080516020615114833981519152546001600160a01b031690565b6001600160a01b0316146113db5760405162461bcd60e51b8152600401610b1690614da8565b6113e4826128a9565b611128828260016128b4565b6000306001600160a01b037f000000000000000000000000000000000000000000000000000000000000000016146114905760405162461bcd60e51b815260206004820152603860248201527f555550535570677261646561626c653a206d757374206e6f742062652063616c60448201527f6c6564207468726f7567682064656c656761746563616c6c00000000000000006064820152608401610b16565b5060008051602061511483398151915290565b600054610100900460ff16158080156114c35750600054600160ff909116105b806114dd5750303b1580156114dd575060005460ff166001145b6115405760405162461bcd60e51b815260206004820152602e60248201527f496e697469616c697a61626c653a20636f6e747261637420697320616c72656160448201526d191e481a5b9a5d1a585b1a5e995960921b6064820152608401610b16565b6000805460ff191660011790558015611563576000805461ff0019166101001790555b6115af6040518060400160405280600f81526020016e50726f6d7074204d6f6e737465727360881b8152506040518060400160405280600381526020016226a7a760e91b815250612a1f565b6115b7612a50565b6115bf612a50565b6115c7612a79565b6115d2600033612802565b6101946115df8682614b14565b5061019180546001600160a01b038087166001600160a01b031992831617909255610193859055610192805492851692909116919091179055801561165e576000805461ff0019169055604051600181527f7f26b83ff96e1f2b6a682f133852f6798a09c465da95921460cefb38474024989060200160405180910390a15b5050505050565b6000818152606760205260408120546001600160a01b03168061095e5760405162461bcd60e51b8152602060048201526018602482015277115490cdcc8c4e881a5b9d985b1a59081d1bdad95b88125160421b6044820152606401610b16565b60006116d08161253b565b61019d80546001600160a01b038481166001600160a01b0319831617909255166116f73390565b61019d54604080516001600160a01b038581168252928316602082015292909116917f0396085acd8a6b3f499308bb193423ed9df5aaa3f8c84acc4551b87d6200371f91016109dc565b61019a54600160a01b900460ff161561176c5760405162461bcd60e51b8152600401610b1690614df4565b6001600160a01b038116600090815261019b602052604090205460ff16156117ed5760405162461bcd60e51b815260206004820152602e60248201527f50726f6d70744d6f6e73746572733a2054686973206d6f6e737465722069732060448201526d185b1c9958591e481b5a5b9d195960921b6064820152608401610b16565b610198546001810161184f5760405162461bcd60e51b815260206004820152602560248201527f50726f6d70744d6f6e73746572733a20746f6b656e20494420697320746f6f206044820152646c6172676560d81b6064820152608401610b16565b6001600160a01b0382166000908152610196602052604080822081516101608101909252805482908290611882906145d7565b80601f01602080910402602001604051908101604052809291908181526020018280546118ae906145d7565b80156118fb5780601f106118d0576101008083540402835291602001916118fb565b820191906000526020600020905b8154815290600101906020018083116118de57829003601f168201915b50505050508152602001600182018054611914906145d7565b80601f0160208091040260200160405190810160405280929190818152602001828054611940906145d7565b801561198d5780601f106119625761010080835404028352916020019161198d565b820191906000526020600020905b81548152906001019060200180831161197057829003601f168201915b505050505081526020016002820180546119a6906145d7565b80601f01602080910402602001604051908101604052809291908181526020018280546119d2906145d7565b8015611a1f5780601f106119f457610100808354040283529160200191611a1f565b820191906000526020600020905b815481529060010190602001808311611a0257829003601f168201915b5050505050815260200160038201805480602002602001604051908101604052809291908181526020016000905b82821015611af9578382906000526020600020018054611a6c906145d7565b80601f0160208091040260200160405190810160405280929190818152602001828054611a98906145d7565b8015611ae55780601f10611aba57610100808354040283529160200191611ae5565b820191906000526020600020905b815481529060010190602001808311611ac857829003601f168201915b505050505081526020019060010190611a4d565b505050908252506004919091015463ffffffff8082166020840152640100000000820481166040840152600160401b820481166060840152600160601b82048116608080850191909152600160801b8304821660a0850152600160a01b8304821660c0850152600160c01b909204811660e09093019290925282015191925016600003611bd95760405162461bcd60e51b815260206004820152602860248201527f50726f6d70744d6f6e73746572733a206d6f6e73746572206973206e6f742067604482015267195b995c985d195960c21b6064820152608401610b16565b6101988054600181018255600091909152815182916005027f3f539f465397ab387efa93a617e37005205c037386b5b474fcfac82f47f77f0d01908190611c209082614b14565b5060208201516001820190611c359082614b14565b5060408201516002820190611c4a9082614b14565b5060608201518051611c66916003840191602090910190613a9e565b5060808201516004909101805460a084015160c085015160e08601516101008701516101208801516101409098015163ffffffff908116600160c01b0263ffffffff60c01b19998216600160a01b0263ffffffff60a01b19938316600160801b029390931667ffffffffffffffff60801b19948316600160601b0263ffffffff60601b19968416600160401b029690961667ffffffffffffffff60401b199784166401000000000267ffffffffffffffff199099169a84169a909a179790971795909516979097179290921716929092179190911793909316929092179091556001600160a01b0380851660008181526101996020908152604080832088905587835261019c825280832080546001600160a01b0319168517905592825261019b905220805460ff19166001179055610192546101935461019154611db494908416933393169190612aa816565b611dbe3383612b02565b81836001600160a01b0316336001600160a01b03167fe9ee779cbe62e587b706f33e99b7b8cd23e7880147261deea52b25e3ecf6a5f384604051611e029190614c45565b60405180910390a4505050565b60006001600160a01b038216611e795760405162461bcd60e51b815260206004820152602960248201527f4552433732313a2061646472657373207a65726f206973206e6f7420612076616044820152683634b21037bbb732b960b91b6064820152608401610b16565b506001600160a01b031660009081526068602052604090205490565b6000818152606760205260409020546001600160a01b0316151580611ebb575060001981145b6112085760405162461bcd60e51b815260206004820152602660248201527f50726f6d70744d6f6e73746572733a206d6f6e7374657220646f6573206e6f7460448201526508195e1a5cdd60d21b6064820152608401610b16565b6000611f218161253b565b61019a54600160a01b900460ff1615611f4c5760405162461bcd60e51b8152600401610b1690614df4565b61019a805460ff60a01b1916600160a01b1790557f62e78cea01bee320cd4e420270b5ea74000d11b0c9f74754ebdbfc544b05a2586112983390565b600082815260c960205260408120611fa09083612b1c565b9392505050565b60009182526097602090815260408084206001600160a01b0393909316845291905290205460ff1690565b6060606680546109f8906145d7565b8051606090806001600160401b03811115611ffe57611ffe613cac565b604051908082528060200260200182016040528015612027578160200160208202803683370190505b50915060005b81811015610dbd57610199600085838151811061204c5761204c614611565b60200260200101516001600160a01b03166001600160a01b031681526020019081526020016000205483828151811061208757612087614611565b602090810291909101015260010161202d565b611128338383612b28565b8051606090806001600160401b038111156120c2576120c2613cac565b6040519080825280602002602001820160405280156120eb578160200160208202803683370190505b50915060005b81811015610dbd5761019b600085838151811061211057612110614611565b60200260200101516001600160a01b03166001600160a01b0316815260200190815260200160002060009054906101000a900460ff1683828151811061215857612158614611565b911515602092830291909101909101526001016120f1565b61217a3383612612565b6121965760405162461bcd60e51b8152600401610b1690614bf8565b6121a284848484612bf6565b50505050565b8051606090806001600160401b038111156121c5576121c5613cac565b6040519080825280602002602001820160405280156121ee578160200160208202803683370190505b50915060005b81811015610dbd5761019c600085838151811061221357612213614611565b6020026020010151815260200190815260200160002060009054906101000a90046001600160a01b031683828151811061224f5761224f614611565b6001600160a01b03909216602092830291909101909101526001016121f4565b606061227a82612545565b61019a5461019880546001600160a01b039092169163b688876c918591829081106122a7576122a7614611565b90600052602060002090600502016040518363ffffffff1660e01b81526004016122d2929190614e1e565b600060405180830381865afa1580156122ef573d6000803e3d6000fd5b505050506040513d6000823e601f3d908101601f1916820160405261095e9190810190614e37565b600081815260c96020526040812061095e90612c29565b6000828152609760205260409020600101546123498161253b565b610bb78383612887565b600061235e8161253b565b61019280546001600160a01b038481166001600160a01b0319831617909255166123853390565b604080516001600160a01b038481168252868116602083015292909216917fc791f304f706b4012579cd651a8a0d930c30d117f42ee74327000e3fc75bfbbc91016109dc565b61019a546060906001600160a01b031663b27945206123e86109e9565b6101946040518363ffffffff1660e01b8152600401612408929190614e6b565b600060405180830381865afa158015612425573d6000803e3d6000fd5b505050506040513d6000823e601f3d908101601f1916820160405261244d9190810190614e37565b905090565b600061245d8161253b565b61019180546001600160a01b038481166001600160a01b0319831617909255166124843390565b604080516001600160a01b038481168252868116602083015292909216917f5ebe54482b2a8120482902e3bfe9ca1a913e9987bcb1f18c974dae585132a95491016109dc565b60006124d58161253b565b610193805490839055604080518281526020810185905233917f55cc83342b4c144a74960fdf0dfe1a7af4cbb77aaccb471b088d5fe0bdad1d4c91016109dc565b60006001600160e01b03198216635a05180f60e01b148061095e575061095e82612c33565b6112088133612c58565b6000818152606760205260409020546001600160a01b03166112085760405162461bcd60e51b8152602060048201526018602482015277115490cdcc8c4e881a5b9d985b1a59081d1bdad95b88125160421b6044820152606401610b16565b600081815260696020526040902080546001600160a01b0319166001600160a01b03841690811790915581906125d982611665565b6001600160a01b03167f8c5be1e5ebec7d5bd14f71427d1e84f3dd0314c0f7b2291e5b200ac8c7c3b92560405160405180910390a45050565b60008061261e83611665565b9050806001600160a01b0316846001600160a01b0316148061266557506001600160a01b038082166000908152606a602090815260408083209388168352929052205460ff165b806126895750836001600160a01b031661267e84610a7b565b6001600160a01b0316145b949350505050565b826001600160a01b03166126a482611665565b6001600160a01b0316146126ca5760405162461bcd60e51b8152600401610b1690614e90565b6001600160a01b03821661272c5760405162461bcd60e51b8152602060048201526024808201527f4552433732313a207472616e7366657220746f20746865207a65726f206164646044820152637265737360e01b6064820152608401610b16565b6127398383836001612cb1565b826001600160a01b031661274c82611665565b6001600160a01b0316146127725760405162461bcd60e51b8152600401610b1690614e90565b600081815260696020908152604080832080546001600160a01b03199081169091556001600160a01b0387811680865260688552838620805460001901905590871680865283862080546001019055868652606790945282852080549092168417909155905184937fddf252ad1be2c89b69c2b068fc378daa952ba7f163c4a11628f55a4df523b3ef91a4505050565b61280c8282612cfa565b600082815260c960205260409020610bb79082612d80565b600261015f54036128775760405162461bcd60e51b815260206004820152601f60248201527f5265656e7472616e637947756172643a207265656e7472616e742063616c6c006044820152606401610b16565b600261015f55565b600161015f55565b6128918282612d95565b600082815260c960205260409020610bb79082612dfc565b60006111288161253b565b7f4910fdfa16fed3260ed0e7147f7cc6da11a60208b5b9406d12a635614ffd91435460ff16156128e757610bb783612e11565b826001600160a01b03166352d1902d6040518163ffffffff1660e01b8152600401602060405180830381865afa925050508015612941575060408051601f3d908101601f1916820190925261293e91810190614ed5565b60015b6129a45760405162461bcd60e51b815260206004820152602e60248201527f45524331393637557067726164653a206e657720696d706c656d656e7461746960448201526d6f6e206973206e6f74205555505360901b6064820152608401610b16565b6000805160206151148339815191528114612a135760405162461bcd60e51b815260206004820152602960248201527f45524331393637557067726164653a20756e737570706f727465642070726f786044820152681a58589b195555525160ba1b6064820152608401610b16565b50610bb7838383612ead565b600054610100900460ff16612a465760405162461bcd60e51b8152600401610b1690614eee565b6111288282612ed2565b600054610100900460ff16612a775760405162461bcd60e51b8152600401610b1690614eee565b565b600054610100900460ff16612aa05760405162461bcd60e51b8152600401610b1690614eee565b612a77612f12565b604080516001600160a01b0385811660248301528416604482015260648082018490528251808303909101815260849091019091526020810180516001600160e01b03166323b872dd60e01b1790526121a2908590612f39565b61112882826040518060200160405280600081525061300b565b6000611fa0838361303e565b816001600160a01b0316836001600160a01b031603612b895760405162461bcd60e51b815260206004820152601960248201527f4552433732313a20617070726f766520746f2063616c6c6572000000000000006044820152606401610b16565b6001600160a01b038381166000818152606a6020908152604080832094871680845294825291829020805460ff191686151590811790915591519182527f17307eab39ab6107e8899845ad3d59bd9653f200f220920489ca2b5937696c31910160405180910390a3505050565b612c01848484612691565b612c0d84848484613068565b6121a25760405162461bcd60e51b8152600401610b1690614f39565b600061095e825490565b60006001600160e01b03198216637965db0b60e01b148061095e575061095e82613169565b612c628282611fa7565b61112857612c6f816131b9565b612c7a8360206131cb565b604051602001612c8b929190614f8b565b60408051601f198184030181529082905262461bcd60e51b8252610b1691600401613c10565b6001600160a01b038416612cce57612cc98383613366565b6121a2565b6001600160a01b038316612ce657612cc984836133ab565b612cf084836133ab565b612cc98383613366565b612d048282611fa7565b6111285760008281526097602090815260408083206001600160a01b03851684529091529020805460ff19166001179055612d3c3390565b6001600160a01b0316816001600160a01b0316837f2f8788117e7eff1d82e926ec794901d17c78024a50270940304540a733656f0d60405160405180910390a45050565b6000611fa0836001600160a01b0384166134e9565b612d9f8282611fa7565b156111285760008281526097602090815260408083206001600160a01b0385168085529252808320805460ff1916905551339285917ff6391f5c32d9c69d2a47ea670b442974b53935d1edc7fd64eb21e047a839171b9190a45050565b6000611fa0836001600160a01b038416613538565b6001600160a01b0381163b612e7e5760405162461bcd60e51b815260206004820152602d60248201527f455243313936373a206e657720696d706c656d656e746174696f6e206973206e60448201526c1bdd08184818dbdb9d1c9858dd609a1b6064820152608401610b16565b60008051602061511483398151915280546001600160a01b0319166001600160a01b0392909216919091179055565b612eb68361362b565b600082511180612ec35750805b15610bb7576121a2838361366b565b600054610100900460ff16612ef95760405162461bcd60e51b8152600401610b1690614eee565b6065612f058382614b14565b506066610bb78282614b14565b600054610100900460ff1661287f5760405162461bcd60e51b8152600401610b1690614eee565b6000612f8e826040518060400160405280602081526020017f5361666545524332303a206c6f772d6c6576656c2063616c6c206661696c6564815250856001600160a01b031661375f9092919063ffffffff16565b805190915015610bb75780806020019051810190612fac9190615000565b610bb75760405162461bcd60e51b815260206004820152602a60248201527f5361666545524332303a204552433230206f7065726174696f6e20646964206e6044820152691bdd081cdd58d8d9595960b21b6064820152608401610b16565b613015838361376e565b6130226000848484613068565b610bb75760405162461bcd60e51b8152600401610b1690614f39565b600082600001828154811061305557613055614611565b9060005260206000200154905092915050565b60006001600160a01b0384163b1561315e57604051630a85bd0160e11b81526001600160a01b0385169063150b7a02906130ac90339089908890889060040161501d565b6020604051808303816000875af19250505080156130e7575060408051601f3d908101601f191682019092526130e49181019061505a565b60015b613144573d808015613115576040519150601f19603f3d011682016040523d82523d6000602084013e61311a565b606091505b50805160000361313c5760405162461bcd60e51b8152600401610b1690614f39565b805181602001fd5b6001600160e01b031916630a85bd0160e11b149050612689565b506001949350505050565b60006001600160e01b031982166380ac58cd60e01b148061319a57506001600160e01b03198216635b5e139f60e01b145b8061095e57506301ffc9a760e01b6001600160e01b031983161461095e565b606061095e6001600160a01b03831660145b606060006131da83600261508d565b6131e59060026150a4565b6001600160401b038111156131fc576131fc613cac565b6040519080825280601f01601f191660200182016040528015613226576020820181803683370190505b509050600360fc1b8160008151811061324157613241614611565b60200101906001600160f81b031916908160001a905350600f60fb1b8160018151811061327057613270614611565b60200101906001600160f81b031916908160001a905350600061329484600261508d565b61329f9060016150a4565b90505b6001811115613317576f181899199a1a9b1b9c1cb0b131b232b360811b85600f16601081106132d3576132d3614611565b1a60f81b8282815181106132e9576132e9614611565b60200101906001600160f81b031916908160001a90535060049490941c93613310816150b7565b90506132a2565b508315611fa05760405162461bcd60e51b815260206004820181905260248201527f537472696e67733a20686578206c656e67746820696e73756666696369656e746044820152606401610b16565b6001600160a01b039091166000908152610197602081815260408084208054610195845282862087875284529185208290559282526001810183559183529091200155565b6001600160a01b03821660009081526101976020526040812080546133d2906001906150ce565b815481106133e2576133e2614611565b60009182526020808320909101546001600160a01b038616835261019582526040808420868552909252912054909150828214613454576001600160a01b03841660009081526101976020526040902080548391908390811061344757613447614611565b6000918252602090912001555b6001600160a01b03841660009081526101976020526040902080548061347c5761347c6150e1565b6000828152602080822083016000199081018390559092019092556001600160a01b0386168252610195815260408083208684529091528120558183146121a2576001600160a01b0393909316600090815261019560209081526040808320938352929052209190915550565b60008181526001830160205260408120546135305750815460018181018455600084815260208082209093018490558454848252828601909352604090209190915561095e565b50600061095e565b6000818152600183016020526040812054801561362157600061355c6001836150ce565b8554909150600090613570906001906150ce565b90508181146135d557600086600001828154811061359057613590614611565b90600052602060002001549050808760000184815481106135b3576135b3614611565b6000918252602080832090910192909255918252600188019052604090208390555b85548690806135e6576135e66150e1565b60019003818190600052602060002001600090559055856001016000868152602001908152602001600020600090556001935050505061095e565b600091505061095e565b61363481612e11565b6040516001600160a01b038216907fbc7cd75a20ee27fd9adebab32041f755214dbc6bffa90cc0225b39da2e5c2d3b90600090a250565b60606001600160a01b0383163b6136d35760405162461bcd60e51b815260206004820152602660248201527f416464726573733a2064656c65676174652063616c6c20746f206e6f6e2d636f6044820152651b9d1c9858dd60d21b6064820152608401610b16565b600080846001600160a01b0316846040516136ee91906150f7565b600060405180830381855af49150503d8060008114613729576040519150601f19603f3d011682016040523d82523d6000602084013e61372e565b606091505b5091509150613756828260405180606001604052806027815260200161513460279139613907565b95945050505050565b60606126898484600085613920565b6001600160a01b0382166137c45760405162461bcd60e51b815260206004820181905260248201527f4552433732313a206d696e7420746f20746865207a65726f20616464726573736044820152606401610b16565b6000818152606760205260409020546001600160a01b0316156138295760405162461bcd60e51b815260206004820152601c60248201527f4552433732313a20746f6b656e20616c7265616479206d696e746564000000006044820152606401610b16565b613837600083836001612cb1565b6000818152606760205260409020546001600160a01b03161561389c5760405162461bcd60e51b815260206004820152601c60248201527f4552433732313a20746f6b656e20616c7265616479206d696e746564000000006044820152606401610b16565b6001600160a01b038216600081815260686020908152604080832080546001019055848352606790915280822080546001600160a01b0319168417905551839291907fddf252ad1be2c89b69c2b068fc378daa952ba7f163c4a11628f55a4df523b3ef908290a45050565b60608315613916575081611fa0565b611fa083836139fb565b6060824710156139815760405162461bcd60e51b815260206004820152602660248201527f416464726573733a20696e73756666696369656e742062616c616e636520666f6044820152651c8818d85b1b60d21b6064820152608401610b16565b600080866001600160a01b0316858760405161399d91906150f7565b60006040518083038185875af1925050503d80600081146139da576040519150601f19603f3d011682016040523d82523d6000602084013e6139df565b606091505b50915091506139f087838387613a25565b979650505050505050565b815115613a0b5781518083602001fd5b8060405162461bcd60e51b8152600401610b169190613c10565b60608315613a94578251600003613a8d576001600160a01b0385163b613a8d5760405162461bcd60e51b815260206004820152601d60248201527f416464726573733a2063616c6c20746f206e6f6e2d636f6e74726163740000006044820152606401610b16565b5081612689565b61268983836139fb565b828054828255906000526020600020908101928215613ae4579160200282015b82811115613ae45782518290613ad49082614b14565b5091602001919060010190613abe565b50613af0929150613af4565b5090565b80821115613af0576000613b088282613b11565b50600101613af4565b508054613b1d906145d7565b6000825580601f10613b2d575050565b601f01602090049060005260206000209081019061120891905b80821115613af05760008155600101613b47565b6001600160e01b03198116811461120857600080fd5b600060208284031215613b8357600080fd5b8135611fa081613b5b565b6001600160a01b038116811461120857600080fd5b600060208284031215613bb557600080fd5b8135611fa081613b8e565b60005b83811015613bdb578181015183820152602001613bc3565b50506000910152565b60008151808452613bfc816020860160208601613bc0565b601f01601f19169290920160200192915050565b602081526000611fa06020830184613be4565b600060208284031215613c3557600080fd5b5035919050565b60008060408385031215613c4f57600080fd5b8235613c5a81613b8e565b946020939093013593505050565b6020808252825182820181905260009190848201906040850190845b81811015613ca057835183529284019291840191600101613c84565b50909695505050505050565b634e487b7160e01b600052604160045260246000fd5b60405161016081016001600160401b0381118282101715613ce557613ce5613cac565b60405290565b6040516101a081016001600160401b0381118282101715613ce557613ce5613cac565b604051601f8201601f191681016001600160401b0381118282101715613d3657613d36613cac565b604052919050565b60006001600160401b03821115613d5757613d57613cac565b5060051b60200190565b60006020808385031215613d7457600080fd5b82356001600160401b03811115613d8a57600080fd5b8301601f81018513613d9b57600080fd5b8035613dae613da982613d3e565b613d0e565b81815260059190911b82018301908381019087831115613dcd57600080fd5b928401925b828410156139f0578335613de581613b8e565b82529284019290840190613dd2565b600081518084526020808501808196508360051b8101915082860160005b85811015613e3c578284038952613e2a848351613be4565b98850198935090840190600101613e12565b5091979650505050505050565b600081518084526020808501945080840160005b83811015613e7f57815163ffffffff1687529582019590820190600101613e5d565b509495945050505050565b60006020808301818452808551808352604092508286019150828160051b87010184880160005b83811015613fe157603f1989840301855281516101a08151818652613ed882870182613be4565b915050888201518582038a870152613ef08282613be4565b9150508782015185820389870152613f088282613be4565b91505060608083015186830382880152613f228382613df4565b92505050608080830151613f3d8288018263ffffffff169052565b505060a08281015163ffffffff9081169187019190915260c08084015182169087015260e080840151821690870152610100808401518216908701526101208084015182169087015261014080840151909116908601526101608083015186830382880152613fac8382613e49565b92505050610180808301519250613fcd818701846001600160a01b03169052565b509588019593505090860190600101613eb1565b509098975050505050505050565b60006001600160401b0382111561400857614008613cac565b50601f01601f191660200190565b600082601f83011261402757600080fd5b8135614035613da982613fef565b81815284602083860101111561404a57600080fd5b816020850160208301376000918101602001919091529392505050565b60006020828403121561407957600080fd5b81356001600160401b0381111561408f57600080fd5b61268984828501614016565b6000806000606084860312156140b057600080fd5b83356140bb81613b8e565b925060208401356140cb81613b8e565b929592945050506040919091013590565b600080604083850312156140ef57600080fd5b82359150602083013561410181613b8e565b809150509250929050565b600082601f83011261411d57600080fd5b8135602061412d613da983613d3e565b82815260059290921b8401810191818101908684111561414c57600080fd5b8286015b8481101561418b5780356001600160401b0381111561416f5760008081fd5b61417d8986838b0101614016565b845250918301918301614150565b509695505050505050565b63ffffffff8116811461120857600080fd5b80356141b381614196565b919050565b600080604083850312156141cb57600080fd5b82356141d681613b8e565b915060208301356001600160401b03808211156141f257600080fd5b90840190610160828703121561420757600080fd5b61420f613cc2565b82358281111561421e57600080fd5b61422a88828601614016565b82525060208301358281111561423f57600080fd5b61424b88828601614016565b60208301525060408301358281111561426357600080fd5b61426f88828601614016565b60408301525060608301358281111561428757600080fd5b6142938882860161410c565b6060830152506142a5608084016141a8565b60808201526142b660a084016141a8565b60a08201526142c760c084016141a8565b60c08201526142d860e084016141a8565b60e082015261010091506142ed8284016141a8565b8282015261012091506143018284016141a8565b8282015261014091506143158284016141a8565b828201528093505050509250929050565b6000806040838503121561433957600080fd5b823561434481613b8e565b915060208301356001600160401b0381111561435f57600080fd5b61436b85828601614016565b9150509250929050565b6000806000806080858703121561438b57600080fd5b84356001600160401b038111156143a157600080fd5b6143ad87828801614016565b94505060208501356143be81613b8e565b92506040850135915060608501356143d581613b8e565b939692955090935050565b600080604083850312156143f357600080fd5b50508035926020909101359150565b801515811461120857600080fd5b6000806040838503121561442357600080fd5b823561442e81613b8e565b9150602083013561410181614402565b6020808252825182820181905260009190848201906040850190845b81811015613ca057835115158352928401929184019160010161445a565b6000806000806080858703121561448e57600080fd5b843561449981613b8e565b935060208501356144a981613b8e565b92506040850135915060608501356001600160401b038111156144cb57600080fd5b6144d787828801614016565b91505092959194509250565b600060208083850312156144f657600080fd5b82356001600160401b0381111561450c57600080fd5b8301601f8101851361451d57600080fd5b803561452b613da982613d3e565b81815260059190911b8201830190838101908783111561454a57600080fd5b928401925b828410156139f05783358252928401929084019061454f565b6020808252825182820181905260009190848201906040850190845b81811015613ca05783516001600160a01b031683529284019291840191600101614584565b600080604083850312156145bc57600080fd5b82356145c781613b8e565b9150602083013561410181613b8e565b600181811c908216806145eb57607f821691505b60208210810361460b57634e487b7160e01b600052602260045260246000fd5b50919050565b634e487b7160e01b600052603260045260246000fd5b60008154614634816145d7565b808552602060018381168015614651576001811461466b57614699565b60ff1985168884015283151560051b880183019550614699565b866000528260002060005b858110156146915781548a8201860152908301908401614676565b890184019650505b505050505092915050565b600081548084526020808501808196508360051b81019150856000528260002060005b85811015613e3c5782840389526146de8483614627565b988501989350600191820191016146c7565b600061016080845261470481850184614627565b9050838103602085015261471b8160018501614627565b905083810360408501526147328160028501614627565b9050838103606085015261474981600385016146a4565b600484015463ffffffff8082166080880152602082901c811660a0880152604082901c811660c0880152606082901c811660e08801529192509061479b6101008701828460801c1663ffffffff169052565b6147b36101208701828460a01c1663ffffffff169052565b6147cb6101408701828460c01c1663ffffffff169052565b5090949350505050565b6001600160a01b0383168152604060208201819052600090612689908301846146f0565b600082601f83011261480a57600080fd5b8151614818613da982613fef565b81815284602083860101111561482d57600080fd5b612689826020830160208701613bc0565b600082601f83011261484f57600080fd5b8151602061485f613da983613d3e565b82815260059290921b8401810191818101908684111561487e57600080fd5b8286015b8481101561418b5780516001600160401b038111156148a15760008081fd5b6148af8986838b01016147f9565b845250918301918301614882565b80516141b381614196565b600082601f8301126148d957600080fd5b815160206148e9613da983613d3e565b82815260059290921b8401810191818101908684111561490857600080fd5b8286015b8481101561418b57805161491f81614196565b835291830191830161490c565b80516141b381613b8e565b60006020828403121561494957600080fd5b81516001600160401b038082111561496057600080fd5b908301906101a0828603121561497557600080fd5b61497d613ceb565b82518281111561498c57600080fd5b614998878286016147f9565b8252506020830151828111156149ad57600080fd5b6149b9878286016147f9565b6020830152506040830151828111156149d157600080fd5b6149dd878286016147f9565b6040830152506060830151828111156149f557600080fd5b614a018782860161483e565b606083015250614a13608084016148bd565b6080820152614a2460a084016148bd565b60a0820152614a3560c084016148bd565b60c0820152614a4660e084016148bd565b60e0820152610100614a598185016148bd565b90820152610120614a6b8482016148bd565b90820152610140614a7d8482016148bd565b908201526101608381015183811115614a9557600080fd5b614aa1888287016148c8565b8284015250506101809150614ab782840161492c565b91810191909152949350505050565b601f821115610bb757600081815260208120601f850160051c81016020861015614aed5750805b601f850160051c820191505b81811015614b0c57828155600101614af9565b505050505050565b81516001600160401b03811115614b2d57614b2d613cac565b614b4181614b3b84546145d7565b84614ac6565b602080601f831160018114614b765760008415614b5e5750858301515b600019600386901b1c1916600185901b178555614b0c565b600085815260208120601f198616915b82811015614ba557888601518255948401946001909101908401614b86565b5085821015614bc35787850151600019600388901b60f8161c191681555b5050505050600190811b01905550565b604081526000614be66040830185613be4565b82810360208401526137568185613be4565b6020808252602d908201527f4552433732313a2063616c6c6572206973206e6f7420746f6b656e206f776e6560408201526c1c881bdc88185c1c1c9bdd9959609a1b606082015260800190565b6020815260008251610160806020850152614c64610180850183613be4565b91506020850151601f1980868503016040870152614c828483613be4565b93506040870151915080868503016060870152614c9f8483613be4565b9350606087015191508086850301608087015250614cbd8382613df4565b9250506080850151614cd760a086018263ffffffff169052565b5060a085015163ffffffff811660c08601525060c085015163ffffffff811660e08601525060e0850151610100614d158187018363ffffffff169052565b8601519050610120614d2e8682018363ffffffff169052565b8601519050610140614d478682018363ffffffff169052565b86015163ffffffff81168387015290506147cb565b6020808252602c908201527f46756e6374696f6e206d7573742062652063616c6c6564207468726f7567682060408201526b19195b1959d85d1958d85b1b60a21b606082015260800190565b6020808252602c908201527f46756e6374696f6e206d7573742062652063616c6c6564207468726f7567682060408201526b6163746976652070726f787960a01b606082015260800190565b60208082526010908201526f14185d5cd8589b194e881c185d5cd95960821b604082015260600190565b82815260406020820152600061268960408301846146f0565b600060208284031215614e4957600080fd5b81516001600160401b03811115614e5f57600080fd5b612689848285016147f9565b604081526000614e7e6040830185613be4565b82810360208401526137568185614627565b60208082526025908201527f4552433732313a207472616e736665722066726f6d20696e636f72726563742060408201526437bbb732b960d91b606082015260800190565b600060208284031215614ee757600080fd5b5051919050565b6020808252602b908201527f496e697469616c697a61626c653a20636f6e7472616374206973206e6f74206960408201526a6e697469616c697a696e6760a81b606082015260800190565b60208082526032908201527f4552433732313a207472616e7366657220746f206e6f6e20455243373231526560408201527131b2b4bb32b91034b6b83632b6b2b73a32b960711b606082015260800190565b7f416363657373436f6e74726f6c3a206163636f756e7420000000000000000000815260008351614fc3816017850160208801613bc0565b7001034b99036b4b9b9b4b733903937b6329607d1b6017918401918201528351614ff4816028840160208801613bc0565b01602801949350505050565b60006020828403121561501257600080fd5b8151611fa081614402565b6001600160a01b038581168252841660208201526040810183905260806060820181905260009061505090830184613be4565b9695505050505050565b60006020828403121561506c57600080fd5b8151611fa081613b5b565b634e487b7160e01b600052601160045260246000fd5b808202811582820484141761095e5761095e615077565b8082018082111561095e5761095e615077565b6000816150c6576150c6615077565b506000190190565b8181038181111561095e5761095e615077565b634e487b7160e01b600052603160045260246000fd5b60008251615109818460208701613bc0565b919091019291505056fe360894a13ba1a3210667c828492db98dca3e2076cc3735a920a3ca505d382bbc416464726573733a206c6f772d6c6576656c2064656c65676174652063616c6c206661696c6564a2646970667358221220d6fb729f5bdcd1308393d88e86abebf5d3d2dcca41adb6aafa96399b753311e064736f6c63430008120033",
  "linkReferences": {},
  "deployedLinkReferences": {}
}