{
  "_format": "hh-sol-artifact-1",
  "contractName": "PromptMonsters",
  "sourceName": "contracts/prompt-monsters/PromptMonsters.sol",
  "abi": [
    {
      "inputs": [],
      "stateMutability": "nonpayable",
      "type": "constructor"
    },
    {
      "anonymous": false,
      "inputs": [
        {
          "indexed": false,
          "internalType": "address",
          "name": "previousAdmin",
          "type": "address"
        },
        {
          "indexed": false,
          "internalType": "address",
          "name": "newAdmin",
          "type": "address"
        }
      ],
      "name": "AdminChanged",
      "type": "event"
    },
    {
      "anonymous": false,
      "inputs": [
        {
          "indexed": true,
          "internalType": "address",
          "name": "owner",
          "type": "address"
        },
        {
          "indexed": true,
          "internalType": "address",
          "name": "approved",
          "type": "address"
        },
        {
          "indexed": true,
          "internalType": "uint256",
          "name": "tokenId",
          "type": "uint256"
        }
      ],
      "name": "Approval",
      "type": "event"
    },
    {
      "anonymous": false,
      "inputs": [
        {
          "indexed": true,
          "internalType": "address",
          "name": "owner",
          "type": "address"
        },
        {
          "indexed": true,
          "internalType": "address",
          "name": "operator",
          "type": "address"
        },
        {
          "indexed": false,
          "internalType": "bool",
          "name": "approved",
          "type": "bool"
        }
      ],
      "name": "ApprovalForAll",
      "type": "event"
    },
    {
      "anonymous": false,
      "inputs": [
        {
          "indexed": true,
          "internalType": "address",
          "name": "beacon",
          "type": "address"
        }
      ],
      "name": "BeaconUpgraded",
      "type": "event"
    },
    {
      "anonymous": false,
      "inputs": [
        {
          "components": [
            {
              "internalType": "string",
              "name": "feature",
              "type": "string"
            },
            {
              "internalType": "string",
              "name": "name",
              "type": "string"
            },
            {
              "internalType": "string",
              "name": "flavor",
              "type": "string"
            },
            {
              "internalType": "string[]",
              "name": "skills",
              "type": "string[]"
            },
            {
              "internalType": "uint32",
              "name": "lv",
              "type": "uint32"
            },
            {
              "internalType": "uint32",
              "name": "hp",
              "type": "uint32"
            },
            {
              "internalType": "uint32",
              "name": "atk",
              "type": "uint32"
            },
            {
              "internalType": "uint32",
              "name": "def",
              "type": "uint32"
            },
            {
              "internalType": "uint32",
              "name": "inte",
              "type": "uint32"
            },
            {
              "internalType": "uint32",
              "name": "mgr",
              "type": "uint32"
            },
            {
              "internalType": "uint32",
              "name": "agl",
              "type": "uint32"
            }
          ],
          "indexed": false,
          "internalType": "struct IPromptMonsters.Monster",
          "name": "monster",
          "type": "tuple"
        }
      ],
      "name": "GenerateMonster",
      "type": "event"
    },
    {
      "anonymous": false,
      "inputs": [
        {
          "indexed": true,
          "internalType": "address",
          "name": "resurrectionPrompt",
          "type": "address"
        },
        {
          "components": [
            {
              "internalType": "string",
              "name": "feature",
              "type": "string"
            },
            {
              "internalType": "string",
              "name": "name",
              "type": "string"
            },
            {
              "internalType": "string",
              "name": "flavor",
              "type": "string"
            },
            {
              "internalType": "string[]",
              "name": "skills",
              "type": "string[]"
            },
            {
              "internalType": "uint32",
              "name": "lv",
              "type": "uint32"
            },
            {
              "internalType": "uint32",
              "name": "hp",
              "type": "uint32"
            },
            {
              "internalType": "uint32",
              "name": "atk",
              "type": "uint32"
            },
            {
              "internalType": "uint32",
              "name": "def",
              "type": "uint32"
            },
            {
              "internalType": "uint32",
              "name": "inte",
              "type": "uint32"
            },
            {
              "internalType": "uint32",
              "name": "mgr",
              "type": "uint32"
            },
            {
              "internalType": "uint32",
              "name": "agl",
              "type": "uint32"
            }
          ],
          "indexed": false,
          "internalType": "struct IPromptMonsters.Monster",
          "name": "monster",
          "type": "tuple"
        }
      ],
      "name": "GeneratedMonsterV2",
      "type": "event"
    },
    {
      "anonymous": false,
      "inputs": [
        {
          "indexed": false,
          "internalType": "uint8",
          "name": "version",
          "type": "uint8"
        }
      ],
      "name": "Initialized",
      "type": "event"
    },
    {
      "anonymous": false,
      "inputs": [
        {
          "indexed": true,
          "internalType": "address",
          "name": "tokenOwner",
          "type": "address"
        },
        {
          "indexed": true,
          "internalType": "uint256",
          "name": "newTokenId",
          "type": "uint256"
        },
        {
          "components": [
            {
              "internalType": "string",
              "name": "feature",
              "type": "string"
            },
            {
              "internalType": "string",
              "name": "name",
              "type": "string"
            },
            {
              "internalType": "string",
              "name": "flavor",
              "type": "string"
            },
            {
              "internalType": "string[]",
              "name": "skills",
              "type": "string[]"
            },
            {
              "internalType": "uint32",
              "name": "lv",
              "type": "uint32"
            },
            {
              "internalType": "uint32",
              "name": "hp",
              "type": "uint32"
            },
            {
              "internalType": "uint32",
              "name": "atk",
              "type": "uint32"
            },
            {
              "internalType": "uint32",
              "name": "def",
              "type": "uint32"
            },
            {
              "internalType": "uint32",
              "name": "inte",
              "type": "uint32"
            },
            {
              "internalType": "uint32",
              "name": "mgr",
              "type": "uint32"
            },
            {
              "internalType": "uint32",
              "name": "agl",
              "type": "uint32"
            }
          ],
          "indexed": false,
          "internalType": "struct IPromptMonsters.Monster",
          "name": "monster",
          "type": "tuple"
        }
      ],
      "name": "MintedMonster",
      "type": "event"
    },
    {
      "anonymous": false,
      "inputs": [
        {
          "indexed": true,
          "internalType": "address",
          "name": "tokenOwner",
          "type": "address"
        },
        {
          "indexed": true,
          "internalType": "address",
          "name": "resurrectionPrompt",
          "type": "address"
        },
        {
          "indexed": true,
          "internalType": "uint256",
          "name": "newTokenId",
          "type": "uint256"
        },
        {
          "components": [
            {
              "internalType": "string",
              "name": "feature",
              "type": "string"
            },
            {
              "internalType": "string",
              "name": "name",
              "type": "string"
            },
            {
              "internalType": "string",
              "name": "flavor",
              "type": "string"
            },
            {
              "internalType": "string[]",
              "name": "skills",
              "type": "string[]"
            },
            {
              "internalType": "uint32",
              "name": "lv",
              "type": "uint32"
            },
            {
              "internalType": "uint32",
              "name": "hp",
              "type": "uint32"
            },
            {
              "internalType": "uint32",
              "name": "atk",
              "type": "uint32"
            },
            {
              "internalType": "uint32",
              "name": "def",
              "type": "uint32"
            },
            {
              "internalType": "uint32",
              "name": "inte",
              "type": "uint32"
            },
            {
              "internalType": "uint32",
              "name": "mgr",
              "type": "uint32"
            },
            {
              "internalType": "uint32",
              "name": "agl",
              "type": "uint32"
            }
          ],
          "indexed": false,
          "internalType": "struct IPromptMonsters.Monster",
          "name": "monster",
          "type": "tuple"
        }
      ],
      "name": "MintedMonsterV2",
      "type": "event"
    },
    {
      "anonymous": false,
      "inputs": [
        {
          "indexed": false,
          "internalType": "address",
          "name": "account",
          "type": "address"
        }
      ],
      "name": "Paused",
      "type": "event"
    },
    {
      "anonymous": false,
      "inputs": [
        {
          "indexed": true,
          "internalType": "bytes32",
          "name": "role",
          "type": "bytes32"
        },
        {
          "indexed": true,
          "internalType": "bytes32",
          "name": "previousAdminRole",
          "type": "bytes32"
        },
        {
          "indexed": true,
          "internalType": "bytes32",
          "name": "newAdminRole",
          "type": "bytes32"
        }
      ],
      "name": "RoleAdminChanged",
      "type": "event"
    },
    {
      "anonymous": false,
      "inputs": [
        {
          "indexed": true,
          "internalType": "bytes32",
          "name": "role",
          "type": "bytes32"
        },
        {
          "indexed": true,
          "internalType": "address",
          "name": "account",
          "type": "address"
        },
        {
          "indexed": true,
          "internalType": "address",
          "name": "sender",
          "type": "address"
        }
      ],
      "name": "RoleGranted",
      "type": "event"
    },
    {
      "anonymous": false,
      "inputs": [
        {
          "indexed": true,
          "internalType": "bytes32",
          "name": "role",
          "type": "bytes32"
        },
        {
          "indexed": true,
          "internalType": "address",
          "name": "account",
          "type": "address"
        },
        {
          "indexed": true,
          "internalType": "address",
          "name": "sender",
          "type": "address"
        }
      ],
      "name": "RoleRevoked",
      "type": "event"
    },
    {
      "anonymous": false,
      "inputs": [
        {
          "indexed": true,
          "internalType": "address",
          "name": "publisher",
          "type": "address"
        },
        {
          "indexed": false,
          "internalType": "address",
          "name": "oldValue",
          "type": "address"
        },
        {
          "indexed": false,
          "internalType": "address",
          "name": "newValue",
          "type": "address"
        }
      ],
      "name": "SetErc20",
      "type": "event"
    },
    {
      "anonymous": false,
      "inputs": [
        {
          "indexed": true,
          "internalType": "address",
          "name": "publisher",
          "type": "address"
        },
        {
          "indexed": false,
          "internalType": "string",
          "name": "oldValue",
          "type": "string"
        },
        {
          "indexed": false,
          "internalType": "string",
          "name": "newValue",
          "type": "string"
        }
      ],
      "name": "SetExternalLink",
      "type": "event"
    },
    {
      "anonymous": false,
      "inputs": [
        {
          "indexed": true,
          "internalType": "address",
          "name": "publisher",
          "type": "address"
        },
        {
          "indexed": false,
          "internalType": "uint256",
          "name": "oldValue",
          "type": "uint256"
        },
        {
          "indexed": false,
          "internalType": "uint256",
          "name": "newValue",
          "type": "uint256"
        }
      ],
      "name": "SetMintPrice",
      "type": "event"
    },
    {
      "anonymous": false,
      "inputs": [
        {
          "indexed": true,
          "internalType": "address",
          "name": "publisher",
          "type": "address"
        },
        {
          "components": [
            {
              "internalType": "string",
              "name": "feature",
              "type": "string"
            },
            {
              "internalType": "string",
              "name": "name",
              "type": "string"
            },
            {
              "internalType": "string",
              "name": "flavor",
              "type": "string"
            },
            {
              "internalType": "string[]",
              "name": "skills",
              "type": "string[]"
            },
            {
              "internalType": "uint32",
              "name": "lv",
              "type": "uint32"
            },
            {
              "internalType": "uint32",
              "name": "hp",
              "type": "uint32"
            },
            {
              "internalType": "uint32",
              "name": "atk",
              "type": "uint32"
            },
            {
              "internalType": "uint32",
              "name": "def",
              "type": "uint32"
            },
            {
              "internalType": "uint32",
              "name": "inte",
              "type": "uint32"
            },
            {
              "internalType": "uint32",
              "name": "mgr",
              "type": "uint32"
            },
            {
              "internalType": "uint32",
              "name": "agl",
              "type": "uint32"
            }
          ],
          "indexed": false,
          "internalType": "struct IPromptMonsters.Monster",
          "name": "oldValue",
          "type": "tuple"
        },
        {
          "components": [
            {
              "internalType": "string",
              "name": "feature",
              "type": "string"
            },
            {
              "internalType": "string",
              "name": "name",
              "type": "string"
            },
            {
              "internalType": "string",
              "name": "flavor",
              "type": "string"
            },
            {
              "internalType": "string[]",
              "name": "skills",
              "type": "string[]"
            },
            {
              "internalType": "uint32",
              "name": "lv",
              "type": "uint32"
            },
            {
              "internalType": "uint32",
              "name": "hp",
              "type": "uint32"
            },
            {
              "internalType": "uint32",
              "name": "atk",
              "type": "uint32"
            },
            {
              "internalType": "uint32",
              "name": "def",
              "type": "uint32"
            },
            {
              "internalType": "uint32",
              "name": "inte",
              "type": "uint32"
            },
            {
              "internalType": "uint32",
              "name": "mgr",
              "type": "uint32"
            },
            {
              "internalType": "uint32",
              "name": "agl",
              "type": "uint32"
            }
          ],
          "indexed": false,
          "internalType": "struct IPromptMonsters.Monster",
          "name": "newValue",
          "type": "tuple"
        }
      ],
      "name": "SetMonsterHistory",
      "type": "event"
    },
    {
      "anonymous": false,
      "inputs": [
        {
          "indexed": true,
          "internalType": "address",
          "name": "publisher",
          "type": "address"
        },
        {
          "indexed": false,
          "internalType": "contract IPromptMonstersExtension",
          "name": "oldValue",
          "type": "address"
        },
        {
          "indexed": false,
          "internalType": "contract IPromptMonstersExtension",
          "name": "newValue",
          "type": "address"
        }
      ],
      "name": "SetPromptMonstersExtension",
      "type": "event"
    },
    {
      "anonymous": false,
      "inputs": [
        {
          "indexed": true,
          "internalType": "address",
          "name": "publisher",
          "type": "address"
        },
        {
          "indexed": false,
          "internalType": "contract IPromptMonstersImage",
          "name": "oldValue",
          "type": "address"
        },
        {
          "indexed": false,
          "internalType": "contract IPromptMonstersImage",
          "name": "newValue",
          "type": "address"
        }
      ],
      "name": "SetPromptMonstersImage",
      "type": "event"
    },
    {
      "anonymous": false,
      "inputs": [
        {
          "indexed": true,
          "internalType": "address",
          "name": "publisher",
          "type": "address"
        },
        {
          "indexed": false,
          "internalType": "address",
          "name": "oldValue",
          "type": "address"
        },
        {
          "indexed": false,
          "internalType": "address",
          "name": "newValue",
          "type": "address"
        }
      ],
      "name": "SetPromptMonstersWallet",
      "type": "event"
    },
    {
      "anonymous": false,
      "inputs": [
        {
          "indexed": true,
          "internalType": "address",
          "name": "publisher",
          "type": "address"
        },
        {
          "indexed": false,
          "internalType": "address",
          "name": "oldValue",
          "type": "address"
        },
        {
          "indexed": false,
          "internalType": "address",
          "name": "newValue",
          "type": "address"
        }
      ],
      "name": "SetTokenIdToResurrectionPromptMap",
      "type": "event"
    },
    {
      "anonymous": false,
      "inputs": [
        {
          "indexed": true,
          "internalType": "address",
          "name": "from",
          "type": "address"
        },
        {
          "indexed": true,
          "internalType": "address",
          "name": "to",
          "type": "address"
        },
        {
          "indexed": true,
          "internalType": "uint256",
          "name": "tokenId",
          "type": "uint256"
        }
      ],
      "name": "Transfer",
      "type": "event"
    },
    {
      "anonymous": false,
      "inputs": [
        {
          "indexed": false,
          "internalType": "address",
          "name": "account",
          "type": "address"
        }
      ],
      "name": "Unpaused",
      "type": "event"
    },
    {
      "anonymous": false,
      "inputs": [
        {
          "indexed": true,
          "internalType": "address",
          "name": "implementation",
          "type": "address"
        }
      ],
      "name": "Upgraded",
      "type": "event"
    },
    {
      "inputs": [],
      "name": "DEFAULT_ADMIN_ROLE",
      "outputs": [
        {
          "internalType": "bytes32",
          "name": "",
          "type": "bytes32"
        }
      ],
      "stateMutability": "view",
      "type": "function"
    },
    {
      "inputs": [
        {
          "internalType": "address",
          "name": "to",
          "type": "address"
        },
        {
          "internalType": "uint256",
          "name": "tokenId",
          "type": "uint256"
        }
      ],
      "name": "approve",
      "outputs": [],
      "stateMutability": "nonpayable",
      "type": "function"
    },
    {
      "inputs": [
        {
          "internalType": "address",
          "name": "owner",
          "type": "address"
        }
      ],
      "name": "balanceOf",
      "outputs": [
        {
          "internalType": "uint256",
          "name": "",
          "type": "uint256"
        }
      ],
      "stateMutability": "view",
      "type": "function"
    },
    {
      "inputs": [
        {
          "internalType": "uint256",
          "name": "tokenId_",
          "type": "uint256"
        }
      ],
      "name": "burn",
      "outputs": [],
      "stateMutability": "nonpayable",
      "type": "function"
    },
    {
      "inputs": [
        {
          "internalType": "uint256",
          "name": "monsterId",
          "type": "uint256"
        }
      ],
      "name": "checkMonsterId",
      "outputs": [],
      "stateMutability": "view",
      "type": "function"
    },
    {
      "inputs": [],
      "name": "contractURI",
      "outputs": [
        {
          "internalType": "string",
          "name": "uri",
          "type": "string"
        }
      ],
      "stateMutability": "view",
      "type": "function"
    },
    {
      "inputs": [
        {
          "internalType": "address",
          "name": "resurrectionPrompt_",
          "type": "address"
        },
        {
          "components": [
            {
              "internalType": "string",
              "name": "feature",
              "type": "string"
            },
            {
              "internalType": "string",
              "name": "name",
              "type": "string"
            },
            {
              "internalType": "string",
              "name": "flavor",
              "type": "string"
            },
            {
              "internalType": "string[]",
              "name": "skills",
              "type": "string[]"
            },
            {
              "internalType": "uint32",
              "name": "lv",
              "type": "uint32"
            },
            {
              "internalType": "uint32",
              "name": "hp",
              "type": "uint32"
            },
            {
              "internalType": "uint32",
              "name": "atk",
              "type": "uint32"
            },
            {
              "internalType": "uint32",
              "name": "def",
              "type": "uint32"
            },
            {
              "internalType": "uint32",
              "name": "inte",
              "type": "uint32"
            },
            {
              "internalType": "uint32",
              "name": "mgr",
              "type": "uint32"
            },
            {
              "internalType": "uint32",
              "name": "agl",
              "type": "uint32"
            }
          ],
          "internalType": "struct IPromptMonsters.Monster",
          "name": "monster_",
          "type": "tuple"
        }
      ],
      "name": "generateMonster",
      "outputs": [],
      "stateMutability": "nonpayable",
      "type": "function"
    },
    {
      "inputs": [
        {
          "internalType": "uint256",
          "name": "tokenId",
          "type": "uint256"
        }
      ],
      "name": "getApproved",
      "outputs": [
        {
          "internalType": "address",
          "name": "",
          "type": "address"
        }
      ],
      "stateMutability": "view",
      "type": "function"
    },
    {
      "inputs": [],
      "name": "getErc20",
      "outputs": [
        {
          "internalType": "contract IERC20",
          "name": "returnValue",
          "type": "address"
        }
      ],
      "stateMutability": "view",
      "type": "function"
    },
    {
      "inputs": [],
      "name": "getMintPrice",
      "outputs": [
        {
          "internalType": "uint256",
          "name": "returnValue",
          "type": "uint256"
        }
      ],
      "stateMutability": "view",
      "type": "function"
    },
    {
      "inputs": [
        {
          "internalType": "address[]",
          "name": "resurrectionPrompts",
          "type": "address[]"
        }
      ],
      "name": "getMinteds",
      "outputs": [
        {
          "internalType": "bool[]",
          "name": "returnValue",
          "type": "bool[]"
        }
      ],
      "stateMutability": "view",
      "type": "function"
    },
    {
      "inputs": [
        {
          "internalType": "address[]",
          "name": "resurrectionPrompts_",
          "type": "address[]"
        }
      ],
      "name": "getMonsterExtensions",
      "outputs": [
        {
          "components": [
            {
              "internalType": "string",
              "name": "feature",
              "type": "string"
            },
            {
              "internalType": "string",
              "name": "name",
              "type": "string"
            },
            {
              "internalType": "string",
              "name": "flavor",
              "type": "string"
            },
            {
              "internalType": "string[]",
              "name": "skills",
              "type": "string[]"
            },
            {
              "internalType": "uint32",
              "name": "lv",
              "type": "uint32"
            },
            {
              "internalType": "uint32",
              "name": "hp",
              "type": "uint32"
            },
            {
              "internalType": "uint32",
              "name": "atk",
              "type": "uint32"
            },
            {
              "internalType": "uint32",
              "name": "def",
              "type": "uint32"
            },
            {
              "internalType": "uint32",
              "name": "inte",
              "type": "uint32"
            },
            {
              "internalType": "uint32",
              "name": "mgr",
              "type": "uint32"
            },
            {
              "internalType": "uint32",
              "name": "agl",
              "type": "uint32"
            },
            {
              "internalType": "uint32[]",
              "name": "skillTypes",
              "type": "uint32[]"
            },
            {
              "internalType": "address",
              "name": "resurrectionPrompt",
              "type": "address"
            }
          ],
          "internalType": "struct IPromptMonstersExtension.MonsterExtension[]",
          "name": "monsterExtensions",
          "type": "tuple[]"
        }
      ],
      "stateMutability": "view",
      "type": "function"
    },
    {
      "inputs": [
        {
          "internalType": "uint256[]",
          "name": "tokenIds",
          "type": "uint256[]"
        }
      ],
      "name": "getMonsters",
      "outputs": [
        {
          "components": [
            {
              "internalType": "string",
              "name": "feature",
              "type": "string"
            },
            {
              "internalType": "string",
              "name": "name",
              "type": "string"
            },
            {
              "internalType": "string",
              "name": "flavor",
              "type": "string"
            },
            {
              "internalType": "string[]",
              "name": "skills",
              "type": "string[]"
            },
            {
              "internalType": "uint32",
              "name": "lv",
              "type": "uint32"
            },
            {
              "internalType": "uint32",
              "name": "hp",
              "type": "uint32"
            },
            {
              "internalType": "uint32",
              "name": "atk",
              "type": "uint32"
            },
            {
              "internalType": "uint32",
              "name": "def",
              "type": "uint32"
            },
            {
              "internalType": "uint32",
              "name": "inte",
              "type": "uint32"
            },
            {
              "internalType": "uint32",
              "name": "mgr",
              "type": "uint32"
            },
            {
              "internalType": "uint32",
              "name": "agl",
              "type": "uint32"
            }
          ],
          "internalType": "struct IPromptMonsters.Monster[]",
          "name": "monsters",
          "type": "tuple[]"
        }
      ],
      "stateMutability": "view",
      "type": "function"
    },
    {
      "inputs": [],
      "name": "getMonstersTotalSupply",
      "outputs": [
        {
          "internalType": "uint256",
          "name": "totalSupply",
          "type": "uint256"
        }
      ],
      "stateMutability": "view",
      "type": "function"
    },
    {
      "inputs": [
        {
          "internalType": "address",
          "name": "owner",
          "type": "address"
        }
      ],
      "name": "getOwnerToTokenIds",
      "outputs": [
        {
          "internalType": "uint256[]",
          "name": "returnValue",
          "type": "uint256[]"
        }
      ],
      "stateMutability": "view",
      "type": "function"
    },
    {
      "inputs": [],
      "name": "getPaused",
      "outputs": [
        {
          "internalType": "bool",
          "name": "returnValue",
          "type": "bool"
        }
      ],
      "stateMutability": "view",
      "type": "function"
    },
    {
      "inputs": [],
      "name": "getPromptMonstersExtension",
      "outputs": [
        {
          "internalType": "contract IPromptMonstersExtension",
          "name": "returnValue",
          "type": "address"
        }
      ],
      "stateMutability": "view",
      "type": "function"
    },
    {
      "inputs": [],
      "name": "getPromptMonstersImage",
      "outputs": [
        {
          "internalType": "address",
          "name": "returnValue",
          "type": "address"
        }
      ],
      "stateMutability": "view",
      "type": "function"
    },
    {
      "inputs": [],
      "name": "getPromptMonstersWallet",
      "outputs": [
        {
          "internalType": "address",
          "name": "returnValue",
          "type": "address"
        }
      ],
      "stateMutability": "view",
      "type": "function"
    },
    {
      "inputs": [
        {
          "internalType": "uint256[]",
          "name": "monsterIds_",
          "type": "uint256[]"
        }
      ],
      "name": "getResurrectionPrompts",
      "outputs": [
        {
          "internalType": "address[]",
          "name": "returnValue",
          "type": "address[]"
        }
      ],
      "stateMutability": "view",
      "type": "function"
    },
    {
      "inputs": [
        {
          "internalType": "bytes32",
          "name": "role",
          "type": "bytes32"
        }
      ],
      "name": "getRoleAdmin",
      "outputs": [
        {
          "internalType": "bytes32",
          "name": "",
          "type": "bytes32"
        }
      ],
      "stateMutability": "view",
      "type": "function"
    },
    {
      "inputs": [
        {
          "internalType": "bytes32",
          "name": "role",
          "type": "bytes32"
        },
        {
          "internalType": "uint256",
          "name": "index",
          "type": "uint256"
        }
      ],
      "name": "getRoleMember",
      "outputs": [
        {
          "internalType": "address",
          "name": "",
          "type": "address"
        }
      ],
      "stateMutability": "view",
      "type": "function"
    },
    {
      "inputs": [
        {
          "internalType": "bytes32",
          "name": "role",
          "type": "bytes32"
        }
      ],
      "name": "getRoleMemberCount",
      "outputs": [
        {
          "internalType": "uint256",
          "name": "",
          "type": "uint256"
        }
      ],
      "stateMutability": "view",
      "type": "function"
    },
    {
      "inputs": [
        {
          "internalType": "address[]",
          "name": "resurrectionPrompts",
          "type": "address[]"
        }
      ],
      "name": "getTokenIds",
      "outputs": [
        {
          "internalType": "uint256[]",
          "name": "returnValue",
          "type": "uint256[]"
        }
      ],
      "stateMutability": "view",
      "type": "function"
    },
    {
      "inputs": [
        {
          "internalType": "bytes32",
          "name": "role",
          "type": "bytes32"
        },
        {
          "internalType": "address",
          "name": "account",
          "type": "address"
        }
      ],
      "name": "grantRole",
      "outputs": [],
      "stateMutability": "nonpayable",
      "type": "function"
    },
    {
      "inputs": [
        {
          "internalType": "bytes32",
          "name": "role",
          "type": "bytes32"
        },
        {
          "internalType": "address",
          "name": "account",
          "type": "address"
        }
      ],
      "name": "hasRole",
      "outputs": [
        {
          "internalType": "bool",
          "name": "",
          "type": "bool"
        }
      ],
      "stateMutability": "view",
      "type": "function"
    },
    {
      "inputs": [
        {
          "internalType": "string",
          "name": "externalLink_",
          "type": "string"
        },
        {
          "internalType": "address",
          "name": "erc20Address_",
          "type": "address"
        },
        {
          "internalType": "uint256",
          "name": "mintPrice_",
          "type": "uint256"
        },
        {
          "internalType": "address",
          "name": "promptMonstersWallet_",
          "type": "address"
        }
      ],
      "name": "initialize",
      "outputs": [],
      "stateMutability": "nonpayable",
      "type": "function"
    },
    {
      "inputs": [
        {
          "internalType": "address",
          "name": "owner",
          "type": "address"
        },
        {
          "internalType": "address",
          "name": "operator",
          "type": "address"
        }
      ],
      "name": "isApprovedForAll",
      "outputs": [
        {
          "internalType": "bool",
          "name": "",
          "type": "bool"
        }
      ],
      "stateMutability": "view",
      "type": "function"
    },
    {
      "inputs": [
        {
          "internalType": "address",
          "name": "resurrectionPrompt",
          "type": "address"
        }
      ],
      "name": "mint",
      "outputs": [],
      "stateMutability": "nonpayable",
      "type": "function"
    },
    {
      "inputs": [],
      "name": "name",
      "outputs": [
        {
          "internalType": "string",
          "name": "",
          "type": "string"
        }
      ],
      "stateMutability": "view",
      "type": "function"
    },
    {
      "inputs": [
        {
          "internalType": "uint256",
          "name": "tokenId",
          "type": "uint256"
        }
      ],
      "name": "ownerOf",
      "outputs": [
        {
          "internalType": "address",
          "name": "",
          "type": "address"
        }
      ],
      "stateMutability": "view",
      "type": "function"
    },
    {
      "inputs": [],
      "name": "pause",
      "outputs": [],
      "stateMutability": "nonpayable",
      "type": "function"
    },
    {
      "inputs": [],
      "name": "proxiableUUID",
      "outputs": [
        {
          "internalType": "bytes32",
          "name": "",
          "type": "bytes32"
        }
      ],
      "stateMutability": "view",
      "type": "function"
    },
    {
      "inputs": [
        {
          "internalType": "bytes32",
          "name": "role",
          "type": "bytes32"
        },
        {
          "internalType": "address",
          "name": "account",
          "type": "address"
        }
      ],
      "name": "renounceRole",
      "outputs": [],
      "stateMutability": "nonpayable",
      "type": "function"
    },
    {
      "inputs": [
        {
          "internalType": "bytes32",
          "name": "role",
          "type": "bytes32"
        },
        {
          "internalType": "address",
          "name": "account",
          "type": "address"
        }
      ],
      "name": "revokeRole",
      "outputs": [],
      "stateMutability": "nonpayable",
      "type": "function"
    },
    {
      "inputs": [
        {
          "internalType": "address",
          "name": "from",
          "type": "address"
        },
        {
          "internalType": "address",
          "name": "to",
          "type": "address"
        },
        {
          "internalType": "uint256",
          "name": "tokenId",
          "type": "uint256"
        }
      ],
      "name": "safeTransferFrom",
      "outputs": [],
      "stateMutability": "nonpayable",
      "type": "function"
    },
    {
      "inputs": [
        {
          "internalType": "address",
          "name": "from",
          "type": "address"
        },
        {
          "internalType": "address",
          "name": "to",
          "type": "address"
        },
        {
          "internalType": "uint256",
          "name": "tokenId",
          "type": "uint256"
        },
        {
          "internalType": "bytes",
          "name": "data",
          "type": "bytes"
        }
      ],
      "name": "safeTransferFrom",
      "outputs": [],
      "stateMutability": "nonpayable",
      "type": "function"
    },
    {
      "inputs": [
        {
          "internalType": "address",
          "name": "operator",
          "type": "address"
        },
        {
          "internalType": "bool",
          "name": "approved",
          "type": "bool"
        }
      ],
      "name": "setApprovalForAll",
      "outputs": [],
      "stateMutability": "nonpayable",
      "type": "function"
    },
    {
      "inputs": [
        {
          "internalType": "address",
          "name": "newState_",
          "type": "address"
        }
      ],
      "name": "setErc20",
      "outputs": [],
      "stateMutability": "nonpayable",
      "type": "function"
    },
    {
      "inputs": [
        {
          "internalType": "string",
          "name": "newState_",
          "type": "string"
        }
      ],
      "name": "setExternalLink",
      "outputs": [],
      "stateMutability": "nonpayable",
      "type": "function"
    },
    {
      "inputs": [
        {
          "internalType": "uint256",
          "name": "newState_",
          "type": "uint256"
        }
      ],
      "name": "setMintPrice",
      "outputs": [],
      "stateMutability": "nonpayable",
      "type": "function"
    },
    {
      "inputs": [
        {
          "internalType": "address",
          "name": "resurrectionPrompt",
          "type": "address"
        },
        {
          "components": [
            {
              "internalType": "string",
              "name": "feature",
              "type": "string"
            },
            {
              "internalType": "string",
              "name": "name",
              "type": "string"
            },
            {
              "internalType": "string",
              "name": "flavor",
              "type": "string"
            },
            {
              "internalType": "string[]",
              "name": "skills",
              "type": "string[]"
            },
            {
              "internalType": "uint32",
              "name": "lv",
              "type": "uint32"
            },
            {
              "internalType": "uint32",
              "name": "hp",
              "type": "uint32"
            },
            {
              "internalType": "uint32",
              "name": "atk",
              "type": "uint32"
            },
            {
              "internalType": "uint32",
              "name": "def",
              "type": "uint32"
            },
            {
              "internalType": "uint32",
              "name": "inte",
              "type": "uint32"
            },
            {
              "internalType": "uint32",
              "name": "mgr",
              "type": "uint32"
            },
            {
              "internalType": "uint32",
              "name": "agl",
              "type": "uint32"
            }
          ],
          "internalType": "struct IPromptMonsters.Monster",
          "name": "newState_",
          "type": "tuple"
        }
      ],
      "name": "setMonsterHistory",
      "outputs": [],
      "stateMutability": "nonpayable",
      "type": "function"
    },
    {
      "inputs": [
        {
          "internalType": "address",
          "name": "newState_",
          "type": "address"
        }
      ],
      "name": "setPromptMonstersExtension",
      "outputs": [],
      "stateMutability": "nonpayable",
      "type": "function"
    },
    {
      "inputs": [
        {
          "internalType": "address",
          "name": "newState_",
          "type": "address"
        }
      ],
      "name": "setPromptMonstersImage",
      "outputs": [],
      "stateMutability": "nonpayable",
      "type": "function"
    },
    {
      "inputs": [
        {
          "internalType": "address",
          "name": "newState_",
          "type": "address"
        }
      ],
      "name": "setPromptMonstersWallet",
      "outputs": [],
      "stateMutability": "nonpayable",
      "type": "function"
    },
    {
      "inputs": [
        {
          "internalType": "uint256",
          "name": "tokenId",
          "type": "uint256"
        },
        {
          "internalType": "address",
          "name": "resurrectionPrompt",
          "type": "address"
        }
      ],
      "name": "setTokenIdToResurrectionPromptMap",
      "outputs": [],
      "stateMutability": "nonpayable",
      "type": "function"
    },
    {
      "inputs": [
        {
          "internalType": "bytes4",
          "name": "interfaceId",
          "type": "bytes4"
        }
      ],
      "name": "supportsInterface",
      "outputs": [
        {
          "internalType": "bool",
          "name": "",
          "type": "bool"
        }
      ],
      "stateMutability": "view",
      "type": "function"
    },
    {
      "inputs": [],
      "name": "symbol",
      "outputs": [
        {
          "internalType": "string",
          "name": "",
          "type": "string"
        }
      ],
      "stateMutability": "view",
      "type": "function"
    },
    {
      "inputs": [
        {
          "internalType": "uint256",
          "name": "tokenId_",
          "type": "uint256"
        }
      ],
      "name": "tokenURI",
      "outputs": [
        {
          "internalType": "string",
          "name": "uri",
          "type": "string"
        }
      ],
      "stateMutability": "view",
      "type": "function"
    },
    {
      "inputs": [
        {
          "internalType": "address",
          "name": "from",
          "type": "address"
        },
        {
          "internalType": "address",
          "name": "to",
          "type": "address"
        },
        {
          "internalType": "uint256",
          "name": "tokenId",
          "type": "uint256"
        }
      ],
      "name": "transferFrom",
      "outputs": [],
      "stateMutability": "nonpayable",
      "type": "function"
    },
    {
      "inputs": [],
      "name": "unpause",
      "outputs": [],
      "stateMutability": "nonpayable",
      "type": "function"
    },
    {
      "inputs": [
        {
          "internalType": "address",
          "name": "newImplementation",
          "type": "address"
        }
      ],
      "name": "upgradeTo",
      "outputs": [],
      "stateMutability": "nonpayable",
      "type": "function"
    },
    {
      "inputs": [
        {
          "internalType": "address",
          "name": "newImplementation",
          "type": "address"
        },
        {
          "internalType": "bytes",
          "name": "data",
          "type": "bytes"
        }
      ],
      "name": "upgradeToAndCall",
      "outputs": [],
      "stateMutability": "payable",
      "type": "function"
    }
  ],
  "bytecode": "0x60a0604052306080523480156200001557600080fd5b506200002062000026565b620000e8565b600054610100900460ff1615620000935760405162461bcd60e51b815260206004820152602760248201527f496e697469616c697a61626c653a20636f6e747261637420697320696e697469604482015266616c697a696e6760c81b606482015260840160405180910390fd5b60005460ff9081161015620000e6576000805460ff191660ff9081179091556040519081527f7f26b83ff96e1f2b6a682f133852f6798a09c465da95921460cefb38474024989060200160405180910390a15b565b608051615c64620001206000396000818161120e0152818161124e015281816114060152818161144601526114d50152615c646000f3fe60806040526004361061031a5760003560e01c806370a08231116101ab578063a8ef2956116100f7578063d547741f11610095578063e985e9c51161006f578063e985e9c514610969578063ee9b80a4146109b2578063eeeaa0081461080e578063f4a0a528146109d257600080fd5b8063d547741f14610914578063e4bab3f514610934578063e8a3d4851461095457600080fd5b8063b88d4fde116100d1578063b88d4fde14610887578063bacc06aa146108a7578063c87b56dd146108d4578063ca15c873146108f457600080fd5b8063a8ef29561461080e578063b01730961461082d578063b2664c2e1461085a57600080fd5b806391d1485411610164578063a11adfe71161013e578063a11adfe7146107a3578063a217fddf146107c3578063a22cb465146107d8578063a7f93ebd146107f857600080fd5b806391d148541461074e57806395d89b411461076e5780639a8baf2f1461078357600080fd5b806370a082311461069a5780637af148c0146106ba5780637e9132ea146106d957806383186465146106f95780638456cb59146107195780639010d07c1461072e57600080fd5b806336568abe1161026a57806352d1902d116102235780636352211e116101fd5780636352211e1461061a57806364cb5fd21461063a5780636805b84b1461065a5780636a6278421461067a57600080fd5b806352d1902d146105cf57806352dd29d2146105e457806355b09456146105fa57600080fd5b806336568abe146105275780633659cfe6146105475780633f4ba83a1461056757806342842e0e1461057c57806342966c681461059c5780634f1ef286146105bc57600080fd5b80631b80ef7a116102d7578063248a9ca3116102b1578063248a9ca31461048a57806327fde6d6146104c85780632f2ff15d146104e757806333a512a41461050757600080fd5b80631b80ef7a1461041d5780631f9179211461044a57806323b872dd1461046a57600080fd5b806301ffc9a71461031f578063038d18d81461035457806306fdde0314610376578063081812fc14610398578063095ea7b3146103d05780630fd7efc4146103f0575b600080fd5b34801561032b57600080fd5b5061033f61033a3660046145b0565b6109f2565b60405190151581526020015b60405180910390f35b34801561036057600080fd5b5061037461036f3660046145e2565b610a03565b005b34801561038257600080fd5b5061038b610a88565b60405161034b919061464f565b3480156103a457600080fd5b506103b86103b3366004614662565b610b1a565b6040516001600160a01b03909116815260200161034b565b3480156103dc57600080fd5b506103746103eb36600461467b565b610b41565b3480156103fc57600080fd5b5061041061040b3660046145e2565b610c5b565b60405161034b91906146a7565b34801561042957600080fd5b5061043d6104383660046147a0565b610cc8565b60405161034b91906148c9565b34801561045657600080fd5b50610374610465366004614aa6565b610e9e565b34801561047657600080fd5b50610374610485366004614ada565b610f85565b34801561049657600080fd5b506104ba6104a5366004614662565b60009081526097602052604090206001015490565b60405190815260200161034b565b3480156104d457600080fd5b5061019d546001600160a01b03166103b8565b3480156104f357600080fd5b50610374610502366004614b1b565b610fb6565b34801561051357600080fd5b50610374610522366004614bf7565b610fdb565b34801561053357600080fd5b50610374610542366004614b1b565b611186565b34801561055357600080fd5b506103746105623660046145e2565b611204565b34801561057357600080fd5b506103746112e3565b34801561058857600080fd5b50610374610597366004614ada565b61138e565b3480156105a857600080fd5b506103746105b7366004614662565b6113a9565b6103746105ca366004614d65565b6113fc565b3480156105db57600080fd5b506104ba6114c8565b3480156105f057600080fd5b50610198546104ba565b34801561060657600080fd5b50610374610615366004614db4565b61157b565b34801561062657600080fd5b506103b8610635366004614662565b61173d565b34801561064657600080fd5b506103746106553660046145e2565b61179d565b34801561066657600080fd5b5061019a54600160a01b900460ff1661033f565b34801561068657600080fd5b506103746106953660046145e2565b611819565b3480156106a657600080fd5b506104ba6106b53660046145e2565b611ee7565b3480156106c657600080fd5b50610191546001600160a01b03166103b8565b3480156106e557600080fd5b506103746106f4366004614bf7565b611f6d565b34801561070557600080fd5b50610374610714366004614662565b612439565b34801561072557600080fd5b506103746124ba565b34801561073a57600080fd5b506103b8610749366004614e1f565b61252c565b34801561075a57600080fd5b5061033f610769366004614b1b565b61254b565b34801561077a57600080fd5b5061038b612576565b34801561078f57600080fd5b5061037461079e366004614b1b565b612585565b3480156107af57600080fd5b506104106107be3660046147a0565b612609565b3480156107cf57600080fd5b506104ba600081565b3480156107e457600080fd5b506103746107f3366004614e4f565b6126c2565b34801561080457600080fd5b50610193546104ba565b34801561081a57600080fd5b50610192546001600160a01b03166103b8565b34801561083957600080fd5b5061084d6108483660046147a0565b6126cd565b60405161034b9190614e7d565b34801561086657600080fd5b5061087a610875366004614eb7565b612798565b60405161034b9190615048565b34801561089357600080fd5b506103746108a23660046150aa565b612baf565b3480156108b357600080fd5b506108c76108c2366004614eb7565b612be7565b60405161034b9190615115565b3480156108e057600080fd5b5061038b6108ef366004614662565b612cae565b34801561090057600080fd5b506104ba61090f366004614662565b612d56565b34801561092057600080fd5b5061037461092f366004614b1b565b612d6d565b34801561094057600080fd5b5061037461094f3660046145e2565b612d92565b34801561096057600080fd5b5061038b612e0a565b34801561097557600080fd5b5061033f610984366004615156565b6001600160a01b039182166000908152606a6020908152604080832093909416825291909152205460ff1690565b3480156109be57600080fd5b506103746109cd3660046145e2565b612e91565b3480156109de57600080fd5b506103746109ed366004614662565b612f09565b60006109fd82612f55565b92915050565b6000610a0e81612f7a565b61019a80546001600160a01b038481166001600160a01b031983161790925516610a353390565b61019a54604080516001600160a01b038581168252928316602082015292909116917f8cd3b162ee77219f8a05a08a052b90a5e1d7a0781f265182421bc8563f823bbc91015b60405180910390a2505050565b606060658054610a9790615184565b80601f0160208091040260200160405190810160405280929190818152602001828054610ac390615184565b8015610b105780601f10610ae557610100808354040283529160200191610b10565b820191906000526020600020905b815481529060010190602001808311610af357829003601f168201915b5050505050905090565b6000610b2582612f84565b506000908152606960205260409020546001600160a01b031690565b6000610b4c8261173d565b9050806001600160a01b0316836001600160a01b031603610bbe5760405162461bcd60e51b815260206004820152602160248201527f4552433732313a20617070726f76616c20746f2063757272656e74206f776e656044820152603960f91b60648201526084015b60405180910390fd5b336001600160a01b0382161480610bda5750610bda8133610984565b610c4c5760405162461bcd60e51b815260206004820152603d60248201527f4552433732313a20617070726f76652063616c6c6572206973206e6f7420746f60448201527f6b656e206f776e6572206f7220617070726f76656420666f7220616c6c0000006064820152608401610bb5565b610c568383612fe3565b505050565b6001600160a01b03811660009081526101976020908152604091829020805483518184028101840190945280845260609392830182828015610cbc57602002820191906000526020600020905b815481526020019060010190808311610ca8575b50505050509050919050565b8051606090806001600160401b03811115610ce557610ce56146eb565b604051908082528060200260200182016040528015610d7e57816020015b604080516101a0810182526060808252602080830182905292820181905280820181905260006080830181905260a0830181905260c0830181905260e083018190526101008301819052610120830181905261014083018190526101608301919091526101808201528252600019909201910181610d035790505b50915060005b81811015610e97576000848281518110610da057610da06151be565b6020026020010151905061019d60009054906101000a90046001600160a01b03166001600160a01b031663c61184cc826101966000898781518110610de757610de76151be565b60200260200101516001600160a01b03166001600160a01b031681526020019081526020016000206040518363ffffffff1660e01b8152600401610e2c929190615388565b600060405180830381865afa158015610e49573d6000803e3d6000fd5b505050506040513d6000823e601f3d908101601f19168201604052610e7191908101906154ea565b848381518110610e8357610e836151be565b602090810291909101015250600101610d84565b5050919050565b6000610ea981612f7a565b60006101948054610eb990615184565b80601f0160208091040260200160405190810160405280929190818152602001828054610ee590615184565b8015610f325780601f10610f0757610100808354040283529160200191610f32565b820191906000526020600020905b815481529060010190602001808311610f1557829003601f168201915b50505050509050826101949081610f4991906156c7565b50336001600160a01b03167ffceab947acbd3281d41fa085ba6d9503467fabd9e3d96e3ee0dbf6f8b04a9ca48285604051610a7b929190615786565b610f8f3382613051565b610fab5760405162461bcd60e51b8152600401610bb5906157ab565b610c568383836130d0565b600082815260976020526040902060010154610fd181612f7a565b610c568383613241565b6000610fe681612f7a565b610fee613263565b6001600160a01b0383166000908152610196602052604090208251839190819061101890826156c7565b506020820151600182019061102d90826156c7565b506040820151600282019061104290826156c7565b506060820151805161105e9160038401916020909101906144dd565b5060808201516004909101805460a084015160c085015160e08601516101008701516101208801516101409098015163ffffffff908116600160c01b0263ffffffff60c01b19998216600160a01b0263ffffffff60a01b19938316600160801b029390931667ffffffffffffffff60801b19948316600160601b0263ffffffff60601b19968416600160401b029690961667ffffffffffffffff60401b199784166401000000000267ffffffffffffffff1990991693909a169290921796909617949094169690961791909117161792909217929092161790556040516001600160a01b038416907fff44cc285b2217920f739fd55ee2013963427c0fb71f0d49dc99cfd0c7b8325e906111739085906157f8565b60405180910390a2610c56600161015f55565b6001600160a01b03811633146111f65760405162461bcd60e51b815260206004820152602f60248201527f416363657373436f6e74726f6c3a2063616e206f6e6c792072656e6f756e636560448201526e103937b632b9903337b91039b2b63360891b6064820152608401610bb5565b61120082826132c6565b5050565b6001600160a01b037f000000000000000000000000000000000000000000000000000000000000000016300361124c5760405162461bcd60e51b8152600401610bb59061580b565b7f00000000000000000000000000000000000000000000000000000000000000006001600160a01b0316611295600080516020615be8833981519152546001600160a01b031690565b6001600160a01b0316146112bb5760405162461bcd60e51b8152600401610bb590615857565b6112c4816132e8565b604080516000808252602082019092526112e0918391906132f3565b50565b60006112ee81612f7a565b61019a54600160a01b900460ff1661133f5760405162461bcd60e51b815260206004820152601460248201527314185d5cd8589b194e881b9bdd081c185d5cd95960621b6044820152606401610bb5565b61019a805460ff60a01b191690557f5db9ee0a495bf2e6ff9c91a7834c1ba4fdd244a5e8aa4e537bd38aeae4b073aa335b6040516001600160a01b03909116815260200160405180910390a150565b610c5683838360405180602001604052806000815250612baf565b6113b1613263565b61019a54600160a01b900460ff16156113dc5760405162461bcd60e51b8152600401610bb5906158a3565b6113f1336113eb60008061252c565b8361138e565b6112e0600161015f55565b6001600160a01b037f00000000000000000000000000000000000000000000000000000000000000001630036114445760405162461bcd60e51b8152600401610bb59061580b565b7f00000000000000000000000000000000000000000000000000000000000000006001600160a01b031661148d600080516020615be8833981519152546001600160a01b031690565b6001600160a01b0316146114b35760405162461bcd60e51b8152600401610bb590615857565b6114bc826132e8565b611200828260016132f3565b6000306001600160a01b037f000000000000000000000000000000000000000000000000000000000000000016146115685760405162461bcd60e51b815260206004820152603860248201527f555550535570677261646561626c653a206d757374206e6f742062652063616c60448201527f6c6564207468726f7567682064656c656761746563616c6c00000000000000006064820152608401610bb5565b50600080516020615be883398151915290565b600054610100900460ff161580801561159b5750600054600160ff909116105b806115b55750303b1580156115b5575060005460ff166001145b6116185760405162461bcd60e51b815260206004820152602e60248201527f496e697469616c697a61626c653a20636f6e747261637420697320616c72656160448201526d191e481a5b9a5d1a585b1a5e995960921b6064820152608401610bb5565b6000805460ff19166001179055801561163b576000805461ff0019166101001790555b6116876040518060400160405280600f81526020016e50726f6d7074204d6f6e737465727360881b8152506040518060400160405280600381526020016226a7a760e91b81525061345e565b61168f61348f565b61169761348f565b61169f6134b8565b6116aa600033613241565b6101946116b786826156c7565b5061019180546001600160a01b038087166001600160a01b0319928316179092556101938590556101928054928516929091169190911790558015611736576000805461ff0019169055604051600181527f7f26b83ff96e1f2b6a682f133852f6798a09c465da95921460cefb38474024989060200160405180910390a15b5050505050565b6000818152606760205260408120546001600160a01b0316806109fd5760405162461bcd60e51b8152602060048201526018602482015277115490cdcc8c4e881a5b9d985b1a59081d1bdad95b88125160421b6044820152606401610bb5565b60006117a881612f7a565b61019d80546001600160a01b038481166001600160a01b0319831617909255166117cf3390565b61019d54604080516001600160a01b038581168252928316602082015292909116917f0396085acd8a6b3f499308bb193423ed9df5aaa3f8c84acc4551b87d6200371f9101610a7b565b61019a54600160a01b900460ff16156118445760405162461bcd60e51b8152600401610bb5906158a3565b6001600160a01b038116600090815261019b602052604090205460ff16156118c55760405162461bcd60e51b815260206004820152602e60248201527f50726f6d70744d6f6e73746572733a2054686973206d6f6e737465722069732060448201526d185b1c9958591e481b5a5b9d195960921b6064820152608401610bb5565b61019854600181016119275760405162461bcd60e51b815260206004820152602560248201527f50726f6d70744d6f6e73746572733a20746f6b656e20494420697320746f6f206044820152646c6172676560d81b6064820152608401610bb5565b6001600160a01b038216600090815261019660205260408082208151610160810190925280548290829061195a90615184565b80601f016020809104026020016040519081016040528092919081815260200182805461198690615184565b80156119d35780601f106119a8576101008083540402835291602001916119d3565b820191906000526020600020905b8154815290600101906020018083116119b657829003601f168201915b505050505081526020016001820180546119ec90615184565b80601f0160208091040260200160405190810160405280929190818152602001828054611a1890615184565b8015611a655780601f10611a3a57610100808354040283529160200191611a65565b820191906000526020600020905b815481529060010190602001808311611a4857829003601f168201915b50505050508152602001600282018054611a7e90615184565b80601f0160208091040260200160405190810160405280929190818152602001828054611aaa90615184565b8015611af75780601f10611acc57610100808354040283529160200191611af7565b820191906000526020600020905b815481529060010190602001808311611ada57829003601f168201915b5050505050815260200160038201805480602002602001604051908101604052809291908181526020016000905b82821015611bd1578382906000526020600020018054611b4490615184565b80601f0160208091040260200160405190810160405280929190818152602001828054611b7090615184565b8015611bbd5780601f10611b9257610100808354040283529160200191611bbd565b820191906000526020600020905b815481529060010190602001808311611ba057829003601f168201915b505050505081526020019060010190611b25565b505050908252506004919091015463ffffffff8082166020840152640100000000820481166040840152600160401b820481166060840152600160601b82048116608080850191909152600160801b8304821660a0850152600160a01b8304821660c0850152600160c01b909204811660e09093019290925282015191925016600003611cb15760405162461bcd60e51b815260206004820152602860248201527f50726f6d70744d6f6e73746572733a206d6f6e73746572206973206e6f742067604482015267195b995c985d195960c21b6064820152608401610bb5565b6101988054600181018255600091909152815182916005027f3f539f465397ab387efa93a617e37005205c037386b5b474fcfac82f47f77f0d01908190611cf890826156c7565b5060208201516001820190611d0d90826156c7565b5060408201516002820190611d2290826156c7565b5060608201518051611d3e9160038401916020909101906144dd565b5060808201516004909101805460a084015160c085015160e08601516101008701516101208801516101409098015163ffffffff908116600160c01b0263ffffffff60c01b19998216600160a01b0263ffffffff60a01b19938316600160801b029390931667ffffffffffffffff60801b19948316600160601b0263ffffffff60601b19968416600160401b029690961667ffffffffffffffff60401b199784166401000000000267ffffffffffffffff199099169a84169a909a179790971795909516979097179290921716929092179190911793909316929092179091556001600160a01b0380851660008181526101996020908152604080832088905587835261019c825280832080546001600160a01b0319168517905592825261019b905220805460ff19166001179055610192546101935461019154611e8c949084169333931691906134e716565b611e963383613541565b81836001600160a01b0316336001600160a01b03167fe9ee779cbe62e587b706f33e99b7b8cd23e7880147261deea52b25e3ecf6a5f384604051611eda91906157f8565b60405180910390a4505050565b60006001600160a01b038216611f515760405162461bcd60e51b815260206004820152602960248201527f4552433732313a2061646472657373207a65726f206973206e6f7420612076616044820152683634b21037bbb732b960b91b6064820152608401610bb5565b506001600160a01b031660009081526068602052604090205490565b6000611f7881612f7a565b6001600160a01b0383166000908152610196602052604080822081516101608101909252805482908290611fab90615184565b80601f0160208091040260200160405190810160405280929190818152602001828054611fd790615184565b80156120245780601f10611ff957610100808354040283529160200191612024565b820191906000526020600020905b81548152906001019060200180831161200757829003601f168201915b5050505050815260200160018201805461203d90615184565b80601f016020809104026020016040519081016040528092919081815260200182805461206990615184565b80156120b65780601f1061208b576101008083540402835291602001916120b6565b820191906000526020600020905b81548152906001019060200180831161209957829003601f168201915b505050505081526020016002820180546120cf90615184565b80601f01602080910402602001604051908101604052809291908181526020018280546120fb90615184565b80156121485780601f1061211d57610100808354040283529160200191612148565b820191906000526020600020905b81548152906001019060200180831161212b57829003601f168201915b5050505050815260200160038201805480602002602001604051908101604052809291908181526020016000905b8282101561222257838290600052602060002001805461219590615184565b80601f01602080910402602001604051908101604052809291908181526020018280546121c190615184565b801561220e5780601f106121e35761010080835404028352916020019161220e565b820191906000526020600020905b8154815290600101906020018083116121f157829003601f168201915b505050505081526020019060010190612176565b505050908252506004919091015463ffffffff80821660208085019190915264010000000083048216604080860191909152600160401b840483166060860152600160601b840483166080860152600160801b8404831660a0860152600160a01b8404831660c0860152600160c01b90930490911660e0909301929092526001600160a01b038716600090815261019690925290208451919250849181906122ca90826156c7565b50602082015160018201906122df90826156c7565b50604082015160028201906122f490826156c7565b50606082015180516123109160038401916020909101906144dd565b5060808201516004909101805460a084015160c085015160e08601516101008701516101208801516101409098015163ffffffff908116600160c01b0263ffffffff60c01b19998216600160a01b0263ffffffff60a01b19938316600160801b029390931667ffffffffffffffff60801b19948316600160601b0263ffffffff60601b19968416600160401b029690961667ffffffffffffffff60401b199784166401000000000267ffffffffffffffff1990991693909a169290921796909617949094169690961791909117161792909217929092161790556123f13390565b6001600160a01b03167f64973f95ccf4d61cd6e4873db3a572c9a39fba2329a28e96f353f7fca37c2926828560405161242b9291906158cd565b60405180910390a250505050565b6000818152606760205260409020546001600160a01b031615158061245f575060001981145b6112e05760405162461bcd60e51b815260206004820152602660248201527f50726f6d70744d6f6e73746572733a206d6f6e7374657220646f6573206e6f7460448201526508195e1a5cdd60d21b6064820152608401610bb5565b60006124c581612f7a565b61019a54600160a01b900460ff16156124f05760405162461bcd60e51b8152600401610bb5906158a3565b61019a805460ff60a01b1916600160a01b1790557f62e78cea01bee320cd4e420270b5ea74000d11b0c9f74754ebdbfc544b05a2586113703390565b600082815260c960205260408120612544908361355b565b9392505050565b60009182526097602090815260408084206001600160a01b0393909316845291905290205460ff1690565b606060668054610a9790615184565b600061259081612f7a565b600083815261019c6020526040902080546001600160a01b038481166001600160a01b0319831617909255166125c33390565b604080516001600160a01b038481168252868116602083015292909216917fe5d69c008031be053a6640e34b83274d391e1424d9013c83a5b26d6d0949aa46910161242b565b8051606090806001600160401b03811115612626576126266146eb565b60405190808252806020026020018201604052801561264f578160200160208202803683370190505b50915060005b81811015610e97576101996000858381518110612674576126746151be565b60200260200101516001600160a01b03166001600160a01b03168152602001908152602001600020548382815181106126af576126af6151be565b6020908102919091010152600101612655565b611200338383613567565b8051606090806001600160401b038111156126ea576126ea6146eb565b604051908082528060200260200182016040528015612713578160200160208202803683370190505b50915060005b81811015610e975761019b6000858381518110612738576127386151be565b60200260200101516001600160a01b03166001600160a01b0316815260200190815260200160002060009054906101000a900460ff16838281518110612780576127806151be565b91151560209283029190910190910152600101612719565b8051606090806001600160401b038111156127b5576127b56146eb565b60405190808252806020026020018201604052801561283b57816020015b6040805161016081018252606080825260208083018290529282018190528082015260006080820181905260a0820181905260c0820181905260e082018190526101008201819052610120820181905261014082015282526000199092019101816127d35790505b50915060005b81811015610e975761019884828151811061285e5761285e6151be565b602002602001015181548110612876576128766151be565b9060005260206000209060050201604051806101600160405290816000820180546128a090615184565b80601f01602080910402602001604051908101604052809291908181526020018280546128cc90615184565b80156129195780601f106128ee57610100808354040283529160200191612919565b820191906000526020600020905b8154815290600101906020018083116128fc57829003601f168201915b5050505050815260200160018201805461293290615184565b80601f016020809104026020016040519081016040528092919081815260200182805461295e90615184565b80156129ab5780601f10612980576101008083540402835291602001916129ab565b820191906000526020600020905b81548152906001019060200180831161298e57829003601f168201915b505050505081526020016002820180546129c490615184565b80601f01602080910402602001604051908101604052809291908181526020018280546129f090615184565b8015612a3d5780601f10612a1257610100808354040283529160200191612a3d565b820191906000526020600020905b815481529060010190602001808311612a2057829003601f168201915b5050505050815260200160038201805480602002602001604051908101604052809291908181526020016000905b82821015612b17578382906000526020600020018054612a8a90615184565b80601f0160208091040260200160405190810160405280929190818152602001828054612ab690615184565b8015612b035780601f10612ad857610100808354040283529160200191612b03565b820191906000526020600020905b815481529060010190602001808311612ae657829003601f168201915b505050505081526020019060010190612a6b565b505050908252506004919091015463ffffffff8082166020840152640100000000820481166040840152600160401b820481166060840152600160601b820481166080840152600160801b8204811660a0840152600160a01b8204811660c0840152600160c01b9091041660e0909101528351849083908110612b9c57612b9c6151be565b6020908102919091010152600101612841565b612bb93383613051565b612bd55760405162461bcd60e51b8152600401610bb5906157ab565b612be184848484613635565b50505050565b8051606090806001600160401b03811115612c0457612c046146eb565b604051908082528060200260200182016040528015612c2d578160200160208202803683370190505b50915060005b81811015610e975761019c6000858381518110612c5257612c526151be565b6020026020010151815260200190815260200160002060009054906101000a90046001600160a01b0316838281518110612c8e57612c8e6151be565b6001600160a01b0390921660209283029190910190910152600101612c33565b6060612cb982612f84565b61019a5461019880546001600160a01b039092169163b688876c91859182908110612ce657612ce66151be565b90600052602060002090600502016040518363ffffffff1660e01b8152600401612d119291906158f2565b600060405180830381865afa158015612d2e573d6000803e3d6000fd5b505050506040513d6000823e601f3d908101601f191682016040526109fd919081019061590b565b600081815260c9602052604081206109fd90613668565b600082815260976020526040902060010154612d8881612f7a565b610c5683836132c6565b6000612d9d81612f7a565b61019280546001600160a01b038481166001600160a01b031983161790925516612dc43390565b604080516001600160a01b038481168252868116602083015292909216917fc791f304f706b4012579cd651a8a0d930c30d117f42ee74327000e3fc75bfbbc9101610a7b565b61019a546060906001600160a01b031663b2794520612e27610a88565b6101946040518363ffffffff1660e01b8152600401612e4792919061593f565b600060405180830381865afa158015612e64573d6000803e3d6000fd5b505050506040513d6000823e601f3d908101601f19168201604052612e8c919081019061590b565b905090565b6000612e9c81612f7a565b61019180546001600160a01b038481166001600160a01b031983161790925516612ec33390565b604080516001600160a01b038481168252868116602083015292909216917f5ebe54482b2a8120482902e3bfe9ca1a913e9987bcb1f18c974dae585132a9549101610a7b565b6000612f1481612f7a565b610193805490839055604080518281526020810185905233917f55cc83342b4c144a74960fdf0dfe1a7af4cbb77aaccb471b088d5fe0bdad1d4c9101610a7b565b60006001600160e01b03198216635a05180f60e01b14806109fd57506109fd82613672565b6112e08133613697565b6000818152606760205260409020546001600160a01b03166112e05760405162461bcd60e51b8152602060048201526018602482015277115490cdcc8c4e881a5b9d985b1a59081d1bdad95b88125160421b6044820152606401610bb5565b600081815260696020526040902080546001600160a01b0319166001600160a01b03841690811790915581906130188261173d565b6001600160a01b03167f8c5be1e5ebec7d5bd14f71427d1e84f3dd0314c0f7b2291e5b200ac8c7c3b92560405160405180910390a45050565b60008061305d8361173d565b9050806001600160a01b0316846001600160a01b031614806130a457506001600160a01b038082166000908152606a602090815260408083209388168352929052205460ff165b806130c85750836001600160a01b03166130bd84610b1a565b6001600160a01b0316145b949350505050565b826001600160a01b03166130e38261173d565b6001600160a01b0316146131095760405162461bcd60e51b8152600401610bb590615964565b6001600160a01b03821661316b5760405162461bcd60e51b8152602060048201526024808201527f4552433732313a207472616e7366657220746f20746865207a65726f206164646044820152637265737360e01b6064820152608401610bb5565b61317883838360016136f0565b826001600160a01b031661318b8261173d565b6001600160a01b0316146131b15760405162461bcd60e51b8152600401610bb590615964565b600081815260696020908152604080832080546001600160a01b03199081169091556001600160a01b0387811680865260688552838620805460001901905590871680865283862080546001019055868652606790945282852080549092168417909155905184937fddf252ad1be2c89b69c2b068fc378daa952ba7f163c4a11628f55a4df523b3ef91a4505050565b61324b8282613739565b600082815260c960205260409020610c5690826137bf565b600261015f54036132b65760405162461bcd60e51b815260206004820152601f60248201527f5265656e7472616e637947756172643a207265656e7472616e742063616c6c006044820152606401610bb5565b600261015f55565b600161015f55565b6132d082826137d4565b600082815260c960205260409020610c56908261383b565b600061120081612f7a565b7f4910fdfa16fed3260ed0e7147f7cc6da11a60208b5b9406d12a635614ffd91435460ff161561332657610c5683613850565b826001600160a01b03166352d1902d6040518163ffffffff1660e01b8152600401602060405180830381865afa925050508015613380575060408051601f3d908101601f1916820190925261337d918101906159a9565b60015b6133e35760405162461bcd60e51b815260206004820152602e60248201527f45524331393637557067726164653a206e657720696d706c656d656e7461746960448201526d6f6e206973206e6f74205555505360901b6064820152608401610bb5565b600080516020615be883398151915281146134525760405162461bcd60e51b815260206004820152602960248201527f45524331393637557067726164653a20756e737570706f727465642070726f786044820152681a58589b195555525160ba1b6064820152608401610bb5565b50610c568383836138ec565b600054610100900460ff166134855760405162461bcd60e51b8152600401610bb5906159c2565b6112008282613911565b600054610100900460ff166134b65760405162461bcd60e51b8152600401610bb5906159c2565b565b600054610100900460ff166134df5760405162461bcd60e51b8152600401610bb5906159c2565b6134b6613951565b604080516001600160a01b0385811660248301528416604482015260648082018490528251808303909101815260849091019091526020810180516001600160e01b03166323b872dd60e01b179052612be1908590613978565b611200828260405180602001604052806000815250613a4a565b60006125448383613a7d565b816001600160a01b0316836001600160a01b0316036135c85760405162461bcd60e51b815260206004820152601960248201527f4552433732313a20617070726f766520746f2063616c6c6572000000000000006044820152606401610bb5565b6001600160a01b038381166000818152606a6020908152604080832094871680845294825291829020805460ff191686151590811790915591519182527f17307eab39ab6107e8899845ad3d59bd9653f200f220920489ca2b5937696c31910160405180910390a3505050565b6136408484846130d0565b61364c84848484613aa7565b612be15760405162461bcd60e51b8152600401610bb590615a0d565b60006109fd825490565b60006001600160e01b03198216637965db0b60e01b14806109fd57506109fd82613ba8565b6136a1828261254b565b611200576136ae81613bf8565b6136b9836020613c0a565b6040516020016136ca929190615a5f565b60408051601f198184030181529082905262461bcd60e51b8252610bb59160040161464f565b6001600160a01b03841661370d576137088383613da5565b612be1565b6001600160a01b038316613725576137088483613dea565b61372f8483613dea565b6137088383613da5565b613743828261254b565b6112005760008281526097602090815260408083206001600160a01b03851684529091529020805460ff1916600117905561377b3390565b6001600160a01b0316816001600160a01b0316837f2f8788117e7eff1d82e926ec794901d17c78024a50270940304540a733656f0d60405160405180910390a45050565b6000612544836001600160a01b038416613f28565b6137de828261254b565b156112005760008281526097602090815260408083206001600160a01b0385168085529252808320805460ff1916905551339285917ff6391f5c32d9c69d2a47ea670b442974b53935d1edc7fd64eb21e047a839171b9190a45050565b6000612544836001600160a01b038416613f77565b6001600160a01b0381163b6138bd5760405162461bcd60e51b815260206004820152602d60248201527f455243313936373a206e657720696d706c656d656e746174696f6e206973206e60448201526c1bdd08184818dbdb9d1c9858dd609a1b6064820152608401610bb5565b600080516020615be883398151915280546001600160a01b0319166001600160a01b0392909216919091179055565b6138f58361406a565b6000825111806139025750805b15610c5657612be183836140aa565b600054610100900460ff166139385760405162461bcd60e51b8152600401610bb5906159c2565b606561394483826156c7565b506066610c5682826156c7565b600054610100900460ff166132be5760405162461bcd60e51b8152600401610bb5906159c2565b60006139cd826040518060400160405280602081526020017f5361666545524332303a206c6f772d6c6576656c2063616c6c206661696c6564815250856001600160a01b031661419e9092919063ffffffff16565b805190915015610c5657808060200190518101906139eb9190615ad4565b610c565760405162461bcd60e51b815260206004820152602a60248201527f5361666545524332303a204552433230206f7065726174696f6e20646964206e6044820152691bdd081cdd58d8d9595960b21b6064820152608401610bb5565b613a5483836141ad565b613a616000848484613aa7565b610c565760405162461bcd60e51b8152600401610bb590615a0d565b6000826000018281548110613a9457613a946151be565b9060005260206000200154905092915050565b60006001600160a01b0384163b15613b9d57604051630a85bd0160e11b81526001600160a01b0385169063150b7a0290613aeb903390899088908890600401615af1565b6020604051808303816000875af1925050508015613b26575060408051601f3d908101601f19168201909252613b2391810190615b2e565b60015b613b83573d808015613b54576040519150601f19603f3d011682016040523d82523d6000602084013e613b59565b606091505b508051600003613b7b5760405162461bcd60e51b8152600401610bb590615a0d565b805181602001fd5b6001600160e01b031916630a85bd0160e11b1490506130c8565b506001949350505050565b60006001600160e01b031982166380ac58cd60e01b1480613bd957506001600160e01b03198216635b5e139f60e01b145b806109fd57506301ffc9a760e01b6001600160e01b03198316146109fd565b60606109fd6001600160a01b03831660145b60606000613c19836002615b61565b613c24906002615b78565b6001600160401b03811115613c3b57613c3b6146eb565b6040519080825280601f01601f191660200182016040528015613c65576020820181803683370190505b509050600360fc1b81600081518110613c8057613c806151be565b60200101906001600160f81b031916908160001a905350600f60fb1b81600181518110613caf57613caf6151be565b60200101906001600160f81b031916908160001a9053506000613cd3846002615b61565b613cde906001615b78565b90505b6001811115613d56576f181899199a1a9b1b9c1cb0b131b232b360811b85600f1660108110613d1257613d126151be565b1a60f81b828281518110613d2857613d286151be565b60200101906001600160f81b031916908160001a90535060049490941c93613d4f81615b8b565b9050613ce1565b5083156125445760405162461bcd60e51b815260206004820181905260248201527f537472696e67733a20686578206c656e67746820696e73756666696369656e746044820152606401610bb5565b6001600160a01b039091166000908152610197602081815260408084208054610195845282862087875284529185208290559282526001810183559183529091200155565b6001600160a01b0382166000908152610197602052604081208054613e1190600190615ba2565b81548110613e2157613e216151be565b60009182526020808320909101546001600160a01b038616835261019582526040808420868552909252912054909150828214613e93576001600160a01b038416600090815261019760205260409020805483919083908110613e8657613e866151be565b6000918252602090912001555b6001600160a01b038416600090815261019760205260409020805480613ebb57613ebb615bb5565b6000828152602080822083016000199081018390559092019092556001600160a01b038616825261019581526040808320868452909152812055818314612be1576001600160a01b0393909316600090815261019560209081526040808320938352929052209190915550565b6000818152600183016020526040812054613f6f575081546001818101845560008481526020808220909301849055845484825282860190935260409020919091556109fd565b5060006109fd565b60008181526001830160205260408120548015614060576000613f9b600183615ba2565b8554909150600090613faf90600190615ba2565b9050818114614014576000866000018281548110613fcf57613fcf6151be565b9060005260206000200154905080876000018481548110613ff257613ff26151be565b6000918252602080832090910192909255918252600188019052604090208390555b855486908061402557614025615bb5565b6001900381819060005260206000200160009055905585600101600086815260200190815260200160002060009055600193505050506109fd565b60009150506109fd565b61407381613850565b6040516001600160a01b038216907fbc7cd75a20ee27fd9adebab32041f755214dbc6bffa90cc0225b39da2e5c2d3b90600090a250565b60606001600160a01b0383163b6141125760405162461bcd60e51b815260206004820152602660248201527f416464726573733a2064656c65676174652063616c6c20746f206e6f6e2d636f6044820152651b9d1c9858dd60d21b6064820152608401610bb5565b600080846001600160a01b03168460405161412d9190615bcb565b600060405180830381855af49150503d8060008114614168576040519150601f19603f3d011682016040523d82523d6000602084013e61416d565b606091505b50915091506141958282604051806060016040528060278152602001615c0860279139614346565b95945050505050565b60606130c8848460008561435f565b6001600160a01b0382166142035760405162461bcd60e51b815260206004820181905260248201527f4552433732313a206d696e7420746f20746865207a65726f20616464726573736044820152606401610bb5565b6000818152606760205260409020546001600160a01b0316156142685760405162461bcd60e51b815260206004820152601c60248201527f4552433732313a20746f6b656e20616c7265616479206d696e746564000000006044820152606401610bb5565b6142766000838360016136f0565b6000818152606760205260409020546001600160a01b0316156142db5760405162461bcd60e51b815260206004820152601c60248201527f4552433732313a20746f6b656e20616c7265616479206d696e746564000000006044820152606401610bb5565b6001600160a01b038216600081815260686020908152604080832080546001019055848352606790915280822080546001600160a01b0319168417905551839291907fddf252ad1be2c89b69c2b068fc378daa952ba7f163c4a11628f55a4df523b3ef908290a45050565b60608315614355575081612544565b612544838361443a565b6060824710156143c05760405162461bcd60e51b815260206004820152602660248201527f416464726573733a20696e73756666696369656e742062616c616e636520666f6044820152651c8818d85b1b60d21b6064820152608401610bb5565b600080866001600160a01b031685876040516143dc9190615bcb565b60006040518083038185875af1925050503d8060008114614419576040519150601f19603f3d011682016040523d82523d6000602084013e61441e565b606091505b509150915061442f87838387614464565b979650505050505050565b81511561444a5781518083602001fd5b8060405162461bcd60e51b8152600401610bb5919061464f565b606083156144d35782516000036144cc576001600160a01b0385163b6144cc5760405162461bcd60e51b815260206004820152601d60248201527f416464726573733a2063616c6c20746f206e6f6e2d636f6e74726163740000006044820152606401610bb5565b50816130c8565b6130c8838361443a565b828054828255906000526020600020908101928215614523579160200282015b82811115614523578251829061451390826156c7565b50916020019190600101906144fd565b5061452f929150614533565b5090565b8082111561452f5760006145478282614550565b50600101614533565b50805461455c90615184565b6000825580601f1061456c575050565b601f0160209004906000526020600020908101906112e091905b8082111561452f5760008155600101614586565b6001600160e01b0319811681146112e057600080fd5b6000602082840312156145c257600080fd5b81356125448161459a565b6001600160a01b03811681146112e057600080fd5b6000602082840312156145f457600080fd5b8135612544816145cd565b60005b8381101561461a578181015183820152602001614602565b50506000910152565b6000815180845261463b8160208601602086016145ff565b601f01601f19169290920160200192915050565b6020815260006125446020830184614623565b60006020828403121561467457600080fd5b5035919050565b6000806040838503121561468e57600080fd5b8235614699816145cd565b946020939093013593505050565b6020808252825182820181905260009190848201906040850190845b818110156146df578351835292840192918401916001016146c3565b50909695505050505050565b634e487b7160e01b600052604160045260246000fd5b60405161016081016001600160401b0381118282101715614724576147246146eb565b60405290565b6040516101a081016001600160401b0381118282101715614724576147246146eb565b604051601f8201601f191681016001600160401b0381118282101715614775576147756146eb565b604052919050565b60006001600160401b03821115614796576147966146eb565b5060051b60200190565b600060208083850312156147b357600080fd5b82356001600160401b038111156147c957600080fd5b8301601f810185136147da57600080fd5b80356147ed6147e88261477d565b61474d565b81815260059190911b8201830190838101908783111561480c57600080fd5b928401925b8284101561442f578335614824816145cd565b82529284019290840190614811565b600081518084526020808501808196508360051b8101915082860160005b8581101561487b578284038952614869848351614623565b98850198935090840190600101614851565b5091979650505050505050565b600081518084526020808501945080840160005b838110156148be57815163ffffffff168752958201959082019060010161489c565b509495945050505050565b60006020808301818452808551808352604092508286019150828160051b87010184880160005b83811015614a2057603f1989840301855281516101a0815181865261491782870182614623565b915050888201518582038a87015261492f8282614623565b91505087820151858203898701526149478282614623565b915050606080830151868303828801526149618382614833565b9250505060808083015161497c8288018263ffffffff169052565b505060a08281015163ffffffff9081169187019190915260c08084015182169087015260e0808401518216908701526101008084015182169087015261012080840151821690870152610140808401519091169086015261016080830151868303828801526149eb8382614888565b92505050610180808301519250614a0c818701846001600160a01b03169052565b5095880195935050908601906001016148f0565b509098975050505050505050565b60006001600160401b03821115614a4757614a476146eb565b50601f01601f191660200190565b600082601f830112614a6657600080fd5b8135614a746147e882614a2e565b818152846020838601011115614a8957600080fd5b816020850160208301376000918101602001919091529392505050565b600060208284031215614ab857600080fd5b81356001600160401b03811115614ace57600080fd5b6130c884828501614a55565b600080600060608486031215614aef57600080fd5b8335614afa816145cd565b92506020840135614b0a816145cd565b929592945050506040919091013590565b60008060408385031215614b2e57600080fd5b823591506020830135614b40816145cd565b809150509250929050565b600082601f830112614b5c57600080fd5b81356020614b6c6147e88361477d565b82815260059290921b84018101918181019086841115614b8b57600080fd5b8286015b84811015614bca5780356001600160401b03811115614bae5760008081fd5b614bbc8986838b0101614a55565b845250918301918301614b8f565b509695505050505050565b63ffffffff811681146112e057600080fd5b8035614bf281614bd5565b919050565b60008060408385031215614c0a57600080fd5b8235614c15816145cd565b915060208301356001600160401b0380821115614c3157600080fd5b908401906101608287031215614c4657600080fd5b614c4e614701565b823582811115614c5d57600080fd5b614c6988828601614a55565b825250602083013582811115614c7e57600080fd5b614c8a88828601614a55565b602083015250604083013582811115614ca257600080fd5b614cae88828601614a55565b604083015250606083013582811115614cc657600080fd5b614cd288828601614b4b565b606083015250614ce460808401614be7565b6080820152614cf560a08401614be7565b60a0820152614d0660c08401614be7565b60c0820152614d1760e08401614be7565b60e08201526101009150614d2c828401614be7565b828201526101209150614d40828401614be7565b828201526101409150614d54828401614be7565b828201528093505050509250929050565b60008060408385031215614d7857600080fd5b8235614d83816145cd565b915060208301356001600160401b03811115614d9e57600080fd5b614daa85828601614a55565b9150509250929050565b60008060008060808587031215614dca57600080fd5b84356001600160401b03811115614de057600080fd5b614dec87828801614a55565b9450506020850135614dfd816145cd565b9250604085013591506060850135614e14816145cd565b939692955090935050565b60008060408385031215614e3257600080fd5b50508035926020909101359150565b80151581146112e057600080fd5b60008060408385031215614e6257600080fd5b8235614e6d816145cd565b91506020830135614b4081614e41565b6020808252825182820181905260009190848201906040850190845b818110156146df578351151583529284019291840191600101614e99565b60006020808385031215614eca57600080fd5b82356001600160401b03811115614ee057600080fd5b8301601f81018513614ef157600080fd5b8035614eff6147e88261477d565b81815260059190911b82018301908381019087831115614f1e57600080fd5b928401925b8284101561442f57833582529284019290840190614f23565b60006101608251818552614f5282860182614623565b91505060208301518482036020860152614f6c8282614623565b91505060408301518482036040860152614f868282614623565b91505060608301518482036060860152614fa08282614833565b9150506080830151614fba608086018263ffffffff169052565b5060a0830151614fd260a086018263ffffffff169052565b5060c0830151614fea60c086018263ffffffff169052565b5060e083015161500260e086018263ffffffff169052565b506101008381015163ffffffff81168683015250506101208381015163ffffffff81168683015250506101408381015163ffffffff8116868301525b5090949350505050565b6000602080830181845280855180835260408601915060408160051b870101925083870160005b8281101561509d57603f1988860301845261508b858351614f3c565b9450928501929085019060010161506f565b5092979650505050505050565b600080600080608085870312156150c057600080fd5b84356150cb816145cd565b935060208501356150db816145cd565b92506040850135915060608501356001600160401b038111156150fd57600080fd5b61510987828801614a55565b91505092959194509250565b6020808252825182820181905260009190848201906040850190845b818110156146df5783516001600160a01b031683529284019291840191600101615131565b6000806040838503121561516957600080fd5b8235615174816145cd565b91506020830135614b40816145cd565b600181811c9082168061519857607f821691505b6020821081036151b857634e487b7160e01b600052602260045260246000fd5b50919050565b634e487b7160e01b600052603260045260246000fd5b600081546151e181615184565b8085526020600183811680156151fe576001811461521857615246565b60ff1985168884015283151560051b880183019550615246565b866000528260002060005b8581101561523e5781548a8201860152908301908401615223565b890184019650505b505050505092915050565b600082825480855260208086019550808260051b840101856000528160002060005b848110156152a057858303601f1901895261528e83836151d4565b98840198925060019182019101615273565b5090979650505050505050565b60006101608084526152c1818501846151d4565b905083810360208501526152d881600185016151d4565b905083810360408501526152ef81600285016151d4565b905083810360608501526153068160038501615251565b600484015463ffffffff8082166080880152602082901c811660a0880152604082901c811660c0880152606082901c811660e0880152919250906153586101008701828460801c1663ffffffff169052565b6153706101208701828460a01c1663ffffffff169052565b61503e6101408701828460c01c1663ffffffff169052565b6001600160a01b03831681526040602082018190526000906130c8908301846152ad565b600082601f8301126153bd57600080fd5b81516153cb6147e882614a2e565b8181528460208386010111156153e057600080fd5b6130c88260208301602087016145ff565b600082601f83011261540257600080fd5b815160206154126147e88361477d565b82815260059290921b8401810191818101908684111561543157600080fd5b8286015b84811015614bca5780516001600160401b038111156154545760008081fd5b6154628986838b01016153ac565b845250918301918301615435565b8051614bf281614bd5565b600082601f83011261548c57600080fd5b8151602061549c6147e88361477d565b82815260059290921b840181019181810190868411156154bb57600080fd5b8286015b84811015614bca5780516154d281614bd5565b83529183019183016154bf565b8051614bf2816145cd565b6000602082840312156154fc57600080fd5b81516001600160401b038082111561551357600080fd5b908301906101a0828603121561552857600080fd5b61553061472a565b82518281111561553f57600080fd5b61554b878286016153ac565b82525060208301518281111561556057600080fd5b61556c878286016153ac565b60208301525060408301518281111561558457600080fd5b615590878286016153ac565b6040830152506060830151828111156155a857600080fd5b6155b4878286016153f1565b6060830152506155c660808401615470565b60808201526155d760a08401615470565b60a08201526155e860c08401615470565b60c08201526155f960e08401615470565b60e082015261010061560c818501615470565b9082015261012061561e848201615470565b90820152610140615630848201615470565b90820152610160838101518381111561564857600080fd5b6156548882870161547b565b828401525050610180915061566a8284016154df565b91810191909152949350505050565b601f821115610c5657600081815260208120601f850160051c810160208610156156a05750805b601f850160051c820191505b818110156156bf578281556001016156ac565b505050505050565b81516001600160401b038111156156e0576156e06146eb565b6156f4816156ee8454615184565b84615679565b602080601f83116001811461572957600084156157115750858301515b600019600386901b1c1916600185901b1785556156bf565b600085815260208120601f198616915b8281101561575857888601518255948401946001909101908401615739565b50858210156157765787850151600019600388901b60f8161c191681555b5050505050600190811b01905550565b6040815260006157996040830185614623565b82810360208401526141958185614623565b6020808252602d908201527f4552433732313a2063616c6c6572206973206e6f7420746f6b656e206f776e6560408201526c1c881bdc88185c1c1c9bdd9959609a1b606082015260800190565b6020815260006125446020830184614f3c565b6020808252602c908201527f46756e6374696f6e206d7573742062652063616c6c6564207468726f7567682060408201526b19195b1959d85d1958d85b1b60a21b606082015260800190565b6020808252602c908201527f46756e6374696f6e206d7573742062652063616c6c6564207468726f7567682060408201526b6163746976652070726f787960a01b606082015260800190565b60208082526010908201526f14185d5cd8589b194e881c185d5cd95960821b604082015260600190565b6040815260006158e06040830185614f3c565b82810360208401526141958185614f3c565b8281526040602082015260006130c860408301846152ad565b60006020828403121561591d57600080fd5b81516001600160401b0381111561593357600080fd5b6130c8848285016153ac565b6040815260006159526040830185614623565b828103602084015261419581856151d4565b60208082526025908201527f4552433732313a207472616e736665722066726f6d20696e636f72726563742060408201526437bbb732b960d91b606082015260800190565b6000602082840312156159bb57600080fd5b5051919050565b6020808252602b908201527f496e697469616c697a61626c653a20636f6e7472616374206973206e6f74206960408201526a6e697469616c697a696e6760a81b606082015260800190565b60208082526032908201527f4552433732313a207472616e7366657220746f206e6f6e20455243373231526560408201527131b2b4bb32b91034b6b83632b6b2b73a32b960711b606082015260800190565b7f416363657373436f6e74726f6c3a206163636f756e7420000000000000000000815260008351615a978160178501602088016145ff565b7001034b99036b4b9b9b4b733903937b6329607d1b6017918401918201528351615ac88160288401602088016145ff565b01602801949350505050565b600060208284031215615ae657600080fd5b815161254481614e41565b6001600160a01b0385811682528416602082015260408101839052608060608201819052600090615b2490830184614623565b9695505050505050565b600060208284031215615b4057600080fd5b81516125448161459a565b634e487b7160e01b600052601160045260246000fd5b80820281158282048414176109fd576109fd615b4b565b808201808211156109fd576109fd615b4b565b600081615b9a57615b9a615b4b565b506000190190565b818103818111156109fd576109fd615b4b565b634e487b7160e01b600052603160045260246000fd5b60008251615bdd8184602087016145ff565b919091019291505056fe360894a13ba1a3210667c828492db98dca3e2076cc3735a920a3ca505d382bbc416464726573733a206c6f772d6c6576656c2064656c65676174652063616c6c206661696c6564a2646970667358221220bcc71f212e21f785e0de865b3bd49fb7ffb1edec0fac552ff2e21e98a5987f3864736f6c63430008120033",
  "linkReferences": {},
  "deployedLinkReferences": {}
}