{
  "_format": "hh-sol-artifact-1",
  "contractName": "PromptMonsters",
  "sourceName": "contracts/prompt-monsters/PromptMonsters.sol",
  "abi": [
    {
      "inputs": [],
      "stateMutability": "nonpayable",
      "type": "constructor"
    },
    {
      "anonymous": false,
      "inputs": [
        {
          "indexed": false,
          "internalType": "address",
          "name": "previousAdmin",
          "type": "address"
        },
        {
          "indexed": false,
          "internalType": "address",
          "name": "newAdmin",
          "type": "address"
        }
      ],
      "name": "AdminChanged",
      "type": "event"
    },
    {
      "anonymous": false,
      "inputs": [
        {
          "indexed": true,
          "internalType": "address",
          "name": "owner",
          "type": "address"
        },
        {
          "indexed": true,
          "internalType": "address",
          "name": "approved",
          "type": "address"
        },
        {
          "indexed": true,
          "internalType": "uint256",
          "name": "tokenId",
          "type": "uint256"
        }
      ],
      "name": "Approval",
      "type": "event"
    },
    {
      "anonymous": false,
      "inputs": [
        {
          "indexed": true,
          "internalType": "address",
          "name": "owner",
          "type": "address"
        },
        {
          "indexed": true,
          "internalType": "address",
          "name": "operator",
          "type": "address"
        },
        {
          "indexed": false,
          "internalType": "bool",
          "name": "approved",
          "type": "bool"
        }
      ],
      "name": "ApprovalForAll",
      "type": "event"
    },
    {
      "anonymous": false,
      "inputs": [
        {
          "indexed": true,
          "internalType": "address",
          "name": "beacon",
          "type": "address"
        }
      ],
      "name": "BeaconUpgraded",
      "type": "event"
    },
    {
      "anonymous": false,
      "inputs": [
        {
          "indexed": false,
          "internalType": "uint8",
          "name": "version",
          "type": "uint8"
        }
      ],
      "name": "Initialized",
      "type": "event"
    },
    {
      "anonymous": false,
      "inputs": [
        {
          "indexed": true,
          "internalType": "bytes32",
          "name": "role",
          "type": "bytes32"
        },
        {
          "indexed": true,
          "internalType": "bytes32",
          "name": "previousAdminRole",
          "type": "bytes32"
        },
        {
          "indexed": true,
          "internalType": "bytes32",
          "name": "newAdminRole",
          "type": "bytes32"
        }
      ],
      "name": "RoleAdminChanged",
      "type": "event"
    },
    {
      "anonymous": false,
      "inputs": [
        {
          "indexed": true,
          "internalType": "bytes32",
          "name": "role",
          "type": "bytes32"
        },
        {
          "indexed": true,
          "internalType": "address",
          "name": "account",
          "type": "address"
        },
        {
          "indexed": true,
          "internalType": "address",
          "name": "sender",
          "type": "address"
        }
      ],
      "name": "RoleGranted",
      "type": "event"
    },
    {
      "anonymous": false,
      "inputs": [
        {
          "indexed": true,
          "internalType": "bytes32",
          "name": "role",
          "type": "bytes32"
        },
        {
          "indexed": true,
          "internalType": "address",
          "name": "account",
          "type": "address"
        },
        {
          "indexed": true,
          "internalType": "address",
          "name": "sender",
          "type": "address"
        }
      ],
      "name": "RoleRevoked",
      "type": "event"
    },
    {
      "anonymous": false,
      "inputs": [
        {
          "indexed": true,
          "internalType": "address",
          "name": "publisher",
          "type": "address"
        },
        {
          "indexed": false,
          "internalType": "string",
          "name": "oldValue",
          "type": "string"
        },
        {
          "indexed": false,
          "internalType": "string",
          "name": "newValue",
          "type": "string"
        }
      ],
      "name": "SetExternalLink",
      "type": "event"
    },
    {
      "anonymous": false,
      "inputs": [
        {
          "indexed": true,
          "internalType": "address",
          "name": "publisher",
          "type": "address"
        },
        {
          "indexed": false,
          "internalType": "address",
          "name": "oldValue",
          "type": "address"
        },
        {
          "indexed": false,
          "internalType": "address",
          "name": "newValue",
          "type": "address"
        }
      ],
      "name": "SetMchCoin",
      "type": "event"
    },
    {
      "anonymous": false,
      "inputs": [
        {
          "indexed": true,
          "internalType": "address",
          "name": "publisher",
          "type": "address"
        },
        {
          "indexed": false,
          "internalType": "uint256",
          "name": "oldValue",
          "type": "uint256"
        },
        {
          "indexed": false,
          "internalType": "uint256",
          "name": "newValue",
          "type": "uint256"
        }
      ],
      "name": "SetMintPrice",
      "type": "event"
    },
    {
      "anonymous": false,
      "inputs": [
        {
          "indexed": true,
          "internalType": "address",
          "name": "publisher",
          "type": "address"
        },
        {
          "indexed": false,
          "internalType": "address",
          "name": "oldValue",
          "type": "address"
        },
        {
          "indexed": false,
          "internalType": "address",
          "name": "newValue",
          "type": "address"
        }
      ],
      "name": "SetPromptMonstersWallet",
      "type": "event"
    },
    {
      "anonymous": false,
      "inputs": [
        {
          "indexed": true,
          "internalType": "address",
          "name": "from",
          "type": "address"
        },
        {
          "indexed": true,
          "internalType": "address",
          "name": "to",
          "type": "address"
        },
        {
          "indexed": true,
          "internalType": "uint256",
          "name": "tokenId",
          "type": "uint256"
        }
      ],
      "name": "Transfer",
      "type": "event"
    },
    {
      "anonymous": false,
      "inputs": [
        {
          "indexed": true,
          "internalType": "address",
          "name": "implementation",
          "type": "address"
        }
      ],
      "name": "Upgraded",
      "type": "event"
    },
    {
      "inputs": [],
      "name": "DEFAULT_ADMIN_ROLE",
      "outputs": [
        {
          "internalType": "bytes32",
          "name": "",
          "type": "bytes32"
        }
      ],
      "stateMutability": "view",
      "type": "function"
    },
    {
      "inputs": [
        {
          "internalType": "address",
          "name": "to",
          "type": "address"
        },
        {
          "internalType": "uint256",
          "name": "tokenId",
          "type": "uint256"
        }
      ],
      "name": "approve",
      "outputs": [],
      "stateMutability": "nonpayable",
      "type": "function"
    },
    {
      "inputs": [
        {
          "internalType": "address",
          "name": "owner",
          "type": "address"
        }
      ],
      "name": "balanceOf",
      "outputs": [
        {
          "internalType": "uint256",
          "name": "",
          "type": "uint256"
        }
      ],
      "stateMutability": "view",
      "type": "function"
    },
    {
      "inputs": [
        {
          "internalType": "uint256",
          "name": "tokenId_",
          "type": "uint256"
        }
      ],
      "name": "burn",
      "outputs": [],
      "stateMutability": "nonpayable",
      "type": "function"
    },
    {
      "inputs": [],
      "name": "contractURI",
      "outputs": [
        {
          "internalType": "string",
          "name": "uri",
          "type": "string"
        }
      ],
      "stateMutability": "view",
      "type": "function"
    },
    {
      "inputs": [
        {
          "internalType": "address",
          "name": "user_",
          "type": "address"
        },
        {
          "components": [
            {
              "internalType": "string",
              "name": "name",
              "type": "string"
            },
            {
              "internalType": "string",
              "name": "flavor",
              "type": "string"
            },
            {
              "internalType": "string[]",
              "name": "skills",
              "type": "string[]"
            },
            {
              "internalType": "uint32",
              "name": "lv",
              "type": "uint32"
            },
            {
              "internalType": "uint32",
              "name": "hp",
              "type": "uint32"
            },
            {
              "internalType": "uint32",
              "name": "atk",
              "type": "uint32"
            },
            {
              "internalType": "uint32",
              "name": "def",
              "type": "uint32"
            },
            {
              "internalType": "uint32",
              "name": "inte",
              "type": "uint32"
            },
            {
              "internalType": "uint32",
              "name": "mgr",
              "type": "uint32"
            },
            {
              "internalType": "uint32",
              "name": "agl",
              "type": "uint32"
            },
            {
              "internalType": "uint16",
              "name": "maxSkills",
              "type": "uint16"
            },
            {
              "internalType": "uint16",
              "name": "maxSkillsSet",
              "type": "uint16"
            }
          ],
          "internalType": "struct IPromptMonsters.Monster",
          "name": "monster_",
          "type": "tuple"
        }
      ],
      "name": "generateMonster",
      "outputs": [],
      "stateMutability": "nonpayable",
      "type": "function"
    },
    {
      "inputs": [
        {
          "internalType": "uint256",
          "name": "tokenId",
          "type": "uint256"
        }
      ],
      "name": "getApproved",
      "outputs": [
        {
          "internalType": "address",
          "name": "",
          "type": "address"
        }
      ],
      "stateMutability": "view",
      "type": "function"
    },
    {
      "inputs": [],
      "name": "getMonsterHistory",
      "outputs": [
        {
          "components": [
            {
              "internalType": "string",
              "name": "name",
              "type": "string"
            },
            {
              "internalType": "string",
              "name": "flavor",
              "type": "string"
            },
            {
              "internalType": "string[]",
              "name": "skills",
              "type": "string[]"
            },
            {
              "internalType": "uint32",
              "name": "lv",
              "type": "uint32"
            },
            {
              "internalType": "uint32",
              "name": "hp",
              "type": "uint32"
            },
            {
              "internalType": "uint32",
              "name": "atk",
              "type": "uint32"
            },
            {
              "internalType": "uint32",
              "name": "def",
              "type": "uint32"
            },
            {
              "internalType": "uint32",
              "name": "inte",
              "type": "uint32"
            },
            {
              "internalType": "uint32",
              "name": "mgr",
              "type": "uint32"
            },
            {
              "internalType": "uint32",
              "name": "agl",
              "type": "uint32"
            },
            {
              "internalType": "uint16",
              "name": "maxSkills",
              "type": "uint16"
            },
            {
              "internalType": "uint16",
              "name": "maxSkillsSet",
              "type": "uint16"
            }
          ],
          "internalType": "struct IPromptMonsters.Monster",
          "name": "monsterHistory",
          "type": "tuple"
        }
      ],
      "stateMutability": "view",
      "type": "function"
    },
    {
      "inputs": [
        {
          "internalType": "uint256[]",
          "name": "tokenIds_",
          "type": "uint256[]"
        }
      ],
      "name": "getMonsters",
      "outputs": [
        {
          "components": [
            {
              "internalType": "string",
              "name": "name",
              "type": "string"
            },
            {
              "internalType": "string",
              "name": "flavor",
              "type": "string"
            },
            {
              "internalType": "string[]",
              "name": "skills",
              "type": "string[]"
            },
            {
              "internalType": "uint32",
              "name": "lv",
              "type": "uint32"
            },
            {
              "internalType": "uint32",
              "name": "hp",
              "type": "uint32"
            },
            {
              "internalType": "uint32",
              "name": "atk",
              "type": "uint32"
            },
            {
              "internalType": "uint32",
              "name": "def",
              "type": "uint32"
            },
            {
              "internalType": "uint32",
              "name": "inte",
              "type": "uint32"
            },
            {
              "internalType": "uint32",
              "name": "mgr",
              "type": "uint32"
            },
            {
              "internalType": "uint32",
              "name": "agl",
              "type": "uint32"
            },
            {
              "internalType": "uint16",
              "name": "maxSkills",
              "type": "uint16"
            },
            {
              "internalType": "uint16",
              "name": "maxSkillsSet",
              "type": "uint16"
            }
          ],
          "internalType": "struct IPromptMonsters.Monster[]",
          "name": "monsters",
          "type": "tuple[]"
        }
      ],
      "stateMutability": "view",
      "type": "function"
    },
    {
      "inputs": [],
      "name": "getMonstersTotalSupply",
      "outputs": [
        {
          "internalType": "uint256",
          "name": "totalSupply",
          "type": "uint256"
        }
      ],
      "stateMutability": "view",
      "type": "function"
    },
    {
      "inputs": [
        {
          "internalType": "address",
          "name": "owner",
          "type": "address"
        }
      ],
      "name": "getOwnerToTokenIds",
      "outputs": [
        {
          "internalType": "uint256[]",
          "name": "tokenIds",
          "type": "uint256[]"
        }
      ],
      "stateMutability": "view",
      "type": "function"
    },
    {
      "inputs": [
        {
          "internalType": "bytes32",
          "name": "role",
          "type": "bytes32"
        }
      ],
      "name": "getRoleAdmin",
      "outputs": [
        {
          "internalType": "bytes32",
          "name": "",
          "type": "bytes32"
        }
      ],
      "stateMutability": "view",
      "type": "function"
    },
    {
      "inputs": [
        {
          "internalType": "bytes32",
          "name": "role",
          "type": "bytes32"
        },
        {
          "internalType": "uint256",
          "name": "index",
          "type": "uint256"
        }
      ],
      "name": "getRoleMember",
      "outputs": [
        {
          "internalType": "address",
          "name": "",
          "type": "address"
        }
      ],
      "stateMutability": "view",
      "type": "function"
    },
    {
      "inputs": [
        {
          "internalType": "bytes32",
          "name": "role",
          "type": "bytes32"
        }
      ],
      "name": "getRoleMemberCount",
      "outputs": [
        {
          "internalType": "uint256",
          "name": "",
          "type": "uint256"
        }
      ],
      "stateMutability": "view",
      "type": "function"
    },
    {
      "inputs": [
        {
          "internalType": "bytes32",
          "name": "role",
          "type": "bytes32"
        },
        {
          "internalType": "address",
          "name": "account",
          "type": "address"
        }
      ],
      "name": "grantRole",
      "outputs": [],
      "stateMutability": "nonpayable",
      "type": "function"
    },
    {
      "inputs": [
        {
          "internalType": "bytes32",
          "name": "role",
          "type": "bytes32"
        },
        {
          "internalType": "address",
          "name": "account",
          "type": "address"
        }
      ],
      "name": "hasRole",
      "outputs": [
        {
          "internalType": "bool",
          "name": "",
          "type": "bool"
        }
      ],
      "stateMutability": "view",
      "type": "function"
    },
    {
      "inputs": [
        {
          "internalType": "string",
          "name": "externalLink_",
          "type": "string"
        },
        {
          "internalType": "address",
          "name": "mchCoinAddress_",
          "type": "address"
        },
        {
          "internalType": "uint256",
          "name": "mintPrice_",
          "type": "uint256"
        },
        {
          "internalType": "address",
          "name": "promptMonstersWallet_",
          "type": "address"
        }
      ],
      "name": "initialize",
      "outputs": [],
      "stateMutability": "nonpayable",
      "type": "function"
    },
    {
      "inputs": [
        {
          "internalType": "address",
          "name": "owner",
          "type": "address"
        },
        {
          "internalType": "address",
          "name": "operator",
          "type": "address"
        }
      ],
      "name": "isApprovedForAll",
      "outputs": [
        {
          "internalType": "bool",
          "name": "",
          "type": "bool"
        }
      ],
      "stateMutability": "view",
      "type": "function"
    },
    {
      "inputs": [],
      "name": "mchCoin",
      "outputs": [
        {
          "internalType": "contract IERC20",
          "name": "",
          "type": "address"
        }
      ],
      "stateMutability": "view",
      "type": "function"
    },
    {
      "inputs": [],
      "name": "mint",
      "outputs": [],
      "stateMutability": "nonpayable",
      "type": "function"
    },
    {
      "inputs": [],
      "name": "mintPrice",
      "outputs": [
        {
          "internalType": "uint256",
          "name": "",
          "type": "uint256"
        }
      ],
      "stateMutability": "view",
      "type": "function"
    },
    {
      "inputs": [],
      "name": "name",
      "outputs": [
        {
          "internalType": "string",
          "name": "",
          "type": "string"
        }
      ],
      "stateMutability": "view",
      "type": "function"
    },
    {
      "inputs": [
        {
          "internalType": "uint256",
          "name": "tokenId",
          "type": "uint256"
        }
      ],
      "name": "ownerOf",
      "outputs": [
        {
          "internalType": "address",
          "name": "",
          "type": "address"
        }
      ],
      "stateMutability": "view",
      "type": "function"
    },
    {
      "inputs": [],
      "name": "promptMonstersWallet",
      "outputs": [
        {
          "internalType": "address",
          "name": "",
          "type": "address"
        }
      ],
      "stateMutability": "view",
      "type": "function"
    },
    {
      "inputs": [],
      "name": "proxiableUUID",
      "outputs": [
        {
          "internalType": "bytes32",
          "name": "",
          "type": "bytes32"
        }
      ],
      "stateMutability": "view",
      "type": "function"
    },
    {
      "inputs": [
        {
          "internalType": "bytes32",
          "name": "role",
          "type": "bytes32"
        },
        {
          "internalType": "address",
          "name": "account",
          "type": "address"
        }
      ],
      "name": "renounceRole",
      "outputs": [],
      "stateMutability": "nonpayable",
      "type": "function"
    },
    {
      "inputs": [
        {
          "internalType": "bytes32",
          "name": "role",
          "type": "bytes32"
        },
        {
          "internalType": "address",
          "name": "account",
          "type": "address"
        }
      ],
      "name": "revokeRole",
      "outputs": [],
      "stateMutability": "nonpayable",
      "type": "function"
    },
    {
      "inputs": [
        {
          "internalType": "address",
          "name": "from",
          "type": "address"
        },
        {
          "internalType": "address",
          "name": "to",
          "type": "address"
        },
        {
          "internalType": "uint256",
          "name": "tokenId",
          "type": "uint256"
        }
      ],
      "name": "safeTransferFrom",
      "outputs": [],
      "stateMutability": "nonpayable",
      "type": "function"
    },
    {
      "inputs": [
        {
          "internalType": "address",
          "name": "from",
          "type": "address"
        },
        {
          "internalType": "address",
          "name": "to",
          "type": "address"
        },
        {
          "internalType": "uint256",
          "name": "tokenId",
          "type": "uint256"
        },
        {
          "internalType": "bytes",
          "name": "data",
          "type": "bytes"
        }
      ],
      "name": "safeTransferFrom",
      "outputs": [],
      "stateMutability": "nonpayable",
      "type": "function"
    },
    {
      "inputs": [
        {
          "internalType": "address",
          "name": "operator",
          "type": "address"
        },
        {
          "internalType": "bool",
          "name": "approved",
          "type": "bool"
        }
      ],
      "name": "setApprovalForAll",
      "outputs": [],
      "stateMutability": "nonpayable",
      "type": "function"
    },
    {
      "inputs": [
        {
          "internalType": "string",
          "name": "newState_",
          "type": "string"
        }
      ],
      "name": "setExternalLink",
      "outputs": [],
      "stateMutability": "nonpayable",
      "type": "function"
    },
    {
      "inputs": [
        {
          "internalType": "address",
          "name": "newState_",
          "type": "address"
        }
      ],
      "name": "setMchCoin",
      "outputs": [],
      "stateMutability": "nonpayable",
      "type": "function"
    },
    {
      "inputs": [
        {
          "internalType": "uint256",
          "name": "newState_",
          "type": "uint256"
        }
      ],
      "name": "setMintPrice",
      "outputs": [],
      "stateMutability": "nonpayable",
      "type": "function"
    },
    {
      "inputs": [
        {
          "internalType": "address",
          "name": "newState_",
          "type": "address"
        }
      ],
      "name": "setPromptMonstersWallet",
      "outputs": [],
      "stateMutability": "nonpayable",
      "type": "function"
    },
    {
      "inputs": [
        {
          "internalType": "bytes4",
          "name": "interfaceId",
          "type": "bytes4"
        }
      ],
      "name": "supportsInterface",
      "outputs": [
        {
          "internalType": "bool",
          "name": "",
          "type": "bool"
        }
      ],
      "stateMutability": "view",
      "type": "function"
    },
    {
      "inputs": [],
      "name": "symbol",
      "outputs": [
        {
          "internalType": "string",
          "name": "",
          "type": "string"
        }
      ],
      "stateMutability": "view",
      "type": "function"
    },
    {
      "inputs": [
        {
          "internalType": "uint256",
          "name": "tokenId_",
          "type": "uint256"
        }
      ],
      "name": "tokenURI",
      "outputs": [
        {
          "internalType": "string",
          "name": "uri",
          "type": "string"
        }
      ],
      "stateMutability": "view",
      "type": "function"
    },
    {
      "inputs": [
        {
          "internalType": "address",
          "name": "from",
          "type": "address"
        },
        {
          "internalType": "address",
          "name": "to",
          "type": "address"
        },
        {
          "internalType": "uint256",
          "name": "tokenId",
          "type": "uint256"
        }
      ],
      "name": "transferFrom",
      "outputs": [],
      "stateMutability": "nonpayable",
      "type": "function"
    },
    {
      "inputs": [
        {
          "internalType": "address",
          "name": "newImplementation",
          "type": "address"
        }
      ],
      "name": "upgradeTo",
      "outputs": [],
      "stateMutability": "nonpayable",
      "type": "function"
    },
    {
      "inputs": [
        {
          "internalType": "address",
          "name": "newImplementation",
          "type": "address"
        },
        {
          "internalType": "bytes",
          "name": "data",
          "type": "bytes"
        }
      ],
      "name": "upgradeToAndCall",
      "outputs": [],
      "stateMutability": "payable",
      "type": "function"
    }
  ],
  "bytecode": "0x60a0604052306080523480156200001557600080fd5b506200002062000026565b620000e8565b600054610100900460ff1615620000935760405162461bcd60e51b815260206004820152602760248201527f496e697469616c697a61626c653a20636f6e747261637420697320696e697469604482015266616c697a696e6760c81b606482015260840160405180910390fd5b60005460ff9081161015620000e6576000805460ff191660ff9081179091556040519081527f7f26b83ff96e1f2b6a682f133852f6798a09c465da95921460cefb38474024989060200160405180910390a15b565b6080516159f262000120600039600081816111c001528181611200015281816112e20152818161132201526113b101526159f26000f3fe60806040526004361061023b5760003560e01c806355b094561161012e578063b2664c2e116100ab578063e4bab3f51161006f578063e4bab3f5146106c1578063e8a3d485146106e1578063e985e9c5146106f6578063ef134f761461073f578063f4a0a5281461075f57600080fd5b8063b2664c2e14610614578063b88d4fde14610641578063c87b56dd14610661578063ca15c87314610681578063d547741f146106a157600080fd5b80639010d07c116100f25780639010d07c1461058a57806391d14854146105aa57806395d89b41146105ca578063a217fddf146105df578063a22cb465146105f457600080fd5b806355b09456146104f15780636352211e146105115780636817c76c1461053157806370a08231146105485780638322a2a61461056857600080fd5b80632d3aae3c116101bc57806342842e0e1161018057806342842e0e1461047357806342966c68146104935780634f1ef286146104b357806352d1902d146104c657806352dd29d2146104db57600080fd5b80632d3aae3c146103d25780632f2ff15d146103f257806335b1f2901461041257806336568abe146104335780633659cfe61461045357600080fd5b80631249c58b116102035780631249c58b1461031e578063145f0fa9146103335780631f9179211461035457806323b872dd14610374578063248a9ca31461039457600080fd5b806301ffc9a71461024057806306fdde0314610275578063081812fc14610297578063095ea7b3146102cf5780630fd7efc4146102f1575b600080fd5b34801561024c57600080fd5b5061026061025b366004614303565b61077f565b60405190151581526020015b60405180910390f35b34801561028157600080fd5b5061028a610790565b60405161026c9190614370565b3480156102a357600080fd5b506102b76102b2366004614383565b610822565b6040516001600160a01b03909116815260200161026c565b3480156102db57600080fd5b506102ef6102ea3660046143b8565b610849565b005b3480156102fd57600080fd5b5061031161030c3660046143e2565b610963565b60405161026c91906143fd565b34801561032a57600080fd5b506102ef6109d0565b34801561033f57600080fd5b50610192546102b7906001600160a01b031681565b34801561036057600080fd5b506102ef61036f36600461451f565b610f7a565b34801561038057600080fd5b506102ef61038f366004614553565b61106e565b3480156103a057600080fd5b506103c46103af366004614383565b60009081526097602052604090206001015490565b60405190815260200161026c565b3480156103de57600080fd5b506102ef6103ed3660046143e2565b61109f565b3480156103fe57600080fd5b506102ef61040d36600461458f565b611117565b34801561041e57600080fd5b50610191546102b7906001600160a01b031681565b34801561043f57600080fd5b506102ef61044e36600461458f565b61113c565b34801561045f57600080fd5b506102ef61046e3660046143e2565b6111b6565b34801561047f57600080fd5b506102ef61048e366004614553565b611295565b34801561049f57600080fd5b506102ef6104ae366004614383565b6112b0565b6102ef6104c13660046145bb565b6112d8565b3480156104d257600080fd5b506103c46113a4565b3480156104e757600080fd5b50610198546103c4565b3480156104fd57600080fd5b506102ef61050c366004614608565b611457565b34801561051d57600080fd5b506102b761052c366004614383565b611619565b34801561053d57600080fd5b506103c46101935481565b34801561055457600080fd5b506103c46105633660046143e2565b611679565b34801561057457600080fd5b5061057d6116ff565b60405161026c91906147d5565b34801561059657600080fd5b506102b76105a53660046147e8565b6119ac565b3480156105b657600080fd5b506102606105c536600461458f565b6119cb565b3480156105d657600080fd5b5061028a6119f6565b3480156105eb57600080fd5b506103c4600081565b34801561060057600080fd5b506102ef61060f366004614818565b611a05565b34801561062057600080fd5b5061063461062f366004614872565b611a10565b60405161026c91906148fc565b34801561064d57600080fd5b506102ef61065c36600461495e565b611dd6565b34801561066d57600080fd5b5061028a61067c366004614383565b611e0e565b34801561068d57600080fd5b506103c461069c366004614383565b612155565b3480156106ad57600080fd5b506102ef6106bc36600461458f565b61216c565b3480156106cd57600080fd5b506102ef6106dc3660046143e2565b612191565b3480156106ed57600080fd5b5061028a612209565b34801561070257600080fd5b506102606107113660046149c5565b6001600160a01b039182166000908152606a6020908152604080832093909416825291909152205460ff1690565b34801561074b57600080fd5b506102ef61075a366004614a9f565b61228f565b34801561076b57600080fd5b506102ef61077a366004614383565b612421565b600061078a8261246d565b92915050565b60606065805461079f90614c0c565b80601f01602080910402602001604051908101604052809291908181526020018280546107cb90614c0c565b80156108185780601f106107ed57610100808354040283529160200191610818565b820191906000526020600020905b8154815290600101906020018083116107fb57829003601f168201915b5050505050905090565b600061082d82612492565b506000908152606960205260409020546001600160a01b031690565b600061085482611619565b9050806001600160a01b0316836001600160a01b0316036108c65760405162461bcd60e51b815260206004820152602160248201527f4552433732313a20617070726f76616c20746f2063757272656e74206f776e656044820152603960f91b60648201526084015b60405180910390fd5b336001600160a01b03821614806108e257506108e28133610711565b6109545760405162461bcd60e51b815260206004820152603d60248201527f4552433732313a20617070726f76652063616c6c6572206973206e6f7420746f60448201527f6b656e206f776e6572206f7220617070726f76656420666f7220616c6c00000060648201526084016108bd565b61095e83836124f1565b505050565b6001600160a01b038116600090815261019760209081526040918290208054835181840281018401909452808452606093928301828280156109c457602002820191906000526020600020905b8154815260200190600101908083116109b0575b50505050509050919050565b61019354610191546040516370a0823160e01b81523360048201526001600160a01b03909116906370a0823190602401602060405180830381865afa158015610a1d573d6000803e3d6000fd5b505050506040513d601f19601f82011682018060405250810190610a419190614c46565b1015610aa55760405162461bcd60e51b815260206004820152602d60248201527f50726f6d70744d6f6e73746572733a20696e73756666696369656e74204d434860448201526c20436f696e2062616c616e636560981b60648201526084016108bd565b336000908152610196602052604080822081516101808101909252805482908290610acf90614c0c565b80601f0160208091040260200160405190810160405280929190818152602001828054610afb90614c0c565b8015610b485780601f10610b1d57610100808354040283529160200191610b48565b820191906000526020600020905b815481529060010190602001808311610b2b57829003601f168201915b50505050508152602001600182018054610b6190614c0c565b80601f0160208091040260200160405190810160405280929190818152602001828054610b8d90614c0c565b8015610bda5780601f10610baf57610100808354040283529160200191610bda565b820191906000526020600020905b815481529060010190602001808311610bbd57829003601f168201915b5050505050815260200160028201805480602002602001604051908101604052809291908181526020016000905b82821015610cb4578382906000526020600020018054610c2790614c0c565b80601f0160208091040260200160405190810160405280929190818152602001828054610c5390614c0c565b8015610ca05780601f10610c7557610100808354040283529160200191610ca0565b820191906000526020600020905b815481529060010190602001808311610c8357829003601f168201915b505050505081526020019060010190610c08565b505050908252506003919091015463ffffffff8082166020840152600160201b820481166040840152600160401b82048116606080850191909152600160601b830482166080850152600160801b8304821660a0850152600160a01b8304821660c0850152600160c01b8304821660e085015261ffff600160e01b84048116610100860152600160f01b9093049092166101209093019290925282015191925016610db25760405162461bcd60e51b815260206004820152602860248201527f50726f6d70744d6f6e73746572733a206d6f6e73746572206973206e6f742067604482015267195b995c985d195960c21b60648201526084016108bd565b610198805460018101825560009190915281518290600483027f3f539f465397ab387efa93a617e37005205c037386b5b474fcfac82f47f77f0d01908190610dfa9082614cad565b5060208201516001820190610e0f9082614cad565b5060408201518051610e2b9160028401916020909101906141cb565b5060608201516003919091018054608084015160a085015160c086015160e08701516101008801516101208901516101408a0151610160909a015163ffffffff998a1667ffffffffffffffff1990981697909717600160201b968a16969096029590951767ffffffffffffffff60401b1916600160401b9489169490940263ffffffff60601b191693909317600160601b928816929092029190911767ffffffffffffffff60801b1916600160801b9187169190910263ffffffff60a01b191617600160a01b918616919091021765ffffffffffff60c01b1916600160c01b9185169190910261ffff60e01b191617600160e01b61ffff95861602176001600160f01b0316600160f01b949091169390930292909217909155610192546101935461019154610f6c936001600160a01b039182169333939216919061255f16565b610f7633826125b9565b5050565b6000610f85816125d3565b60006101948054610f9590614c0c565b80601f0160208091040260200160405190810160405280929190818152602001828054610fc190614c0c565b801561100e5780601f10610fe35761010080835404028352916020019161100e565b820191906000526020600020905b815481529060010190602001808311610ff157829003601f168201915b505050505090508261019490816110259190614cad565b50336001600160a01b03167ffceab947acbd3281d41fa085ba6d9503467fabd9e3d96e3ee0dbf6f8b04a9ca48285604051611061929190614d6c565b60405180910390a2505050565b61107833826125dd565b6110945760405162461bcd60e51b81526004016108bd90614d91565b61095e83838361265c565b60006110aa816125d3565b61019180546001600160a01b038481166001600160a01b0319831617909255166110d13390565b604080516001600160a01b038481168252868116602083015292909216917f2c217c2e9414efb6a460d9299510cd57f3b2a4c2ba5dd9881953334a2b10d11d9101611061565b600082815260976020526040902060010154611132816125d3565b61095e83836127cd565b6001600160a01b03811633146111ac5760405162461bcd60e51b815260206004820152602f60248201527f416363657373436f6e74726f6c3a2063616e206f6e6c792072656e6f756e636560448201526e103937b632b9903337b91039b2b63360891b60648201526084016108bd565b610f7682826127ef565b6001600160a01b037f00000000000000000000000000000000000000000000000000000000000000001630036111fe5760405162461bcd60e51b81526004016108bd90614dde565b7f00000000000000000000000000000000000000000000000000000000000000006001600160a01b0316611247600080516020615936833981519152546001600160a01b031690565b6001600160a01b03161461126d5760405162461bcd60e51b81526004016108bd90614e2a565b61127681612811565b604080516000808252602082019092526112929183919061281c565b50565b61095e83838360405180602001604052806000815250611dd6565b6112b8612987565b6112cd336112c76000806119ac565b83611295565b611292600161015f55565b6001600160a01b037f00000000000000000000000000000000000000000000000000000000000000001630036113205760405162461bcd60e51b81526004016108bd90614dde565b7f00000000000000000000000000000000000000000000000000000000000000006001600160a01b0316611369600080516020615936833981519152546001600160a01b031690565b6001600160a01b03161461138f5760405162461bcd60e51b81526004016108bd90614e2a565b61139882612811565b610f768282600161281c565b6000306001600160a01b037f000000000000000000000000000000000000000000000000000000000000000016146114445760405162461bcd60e51b815260206004820152603860248201527f555550535570677261646561626c653a206d757374206e6f742062652063616c60448201527f6c6564207468726f7567682064656c656761746563616c6c000000000000000060648201526084016108bd565b5060008051602061593683398151915290565b600054610100900460ff16158080156114775750600054600160ff909116105b806114915750303b158015611491575060005460ff166001145b6114f45760405162461bcd60e51b815260206004820152602e60248201527f496e697469616c697a61626c653a20636f6e747261637420697320616c72656160448201526d191e481a5b9a5d1a585b1a5e995960921b60648201526084016108bd565b6000805460ff191660011790558015611517576000805461ff0019166101001790555b6115636040518060400160405280600f81526020016e50726f6d7074204d6f6e737465727360881b8152506040518060400160405280600381526020016226a7a760e91b8152506129ea565b61156b612a1b565b611573612a1b565b61157b612a44565b6115866000336127cd565b6101946115938682614cad565b5061019180546001600160a01b038087166001600160a01b0319928316179092556101938590556101928054928516929091169190911790558015611612576000805461ff0019169055604051600181527f7f26b83ff96e1f2b6a682f133852f6798a09c465da95921460cefb38474024989060200160405180910390a15b5050505050565b6000818152606760205260408120546001600160a01b03168061078a5760405162461bcd60e51b8152602060048201526018602482015277115490cdcc8c4e881a5b9d985b1a59081d1bdad95b88125160421b60448201526064016108bd565b60006001600160a01b0382166116e35760405162461bcd60e51b815260206004820152602960248201527f4552433732313a2061646472657373207a65726f206973206e6f7420612076616044820152683634b21037bbb732b960b91b60648201526084016108bd565b506001600160a01b031660009081526068602052604090205490565b611707614221565b3360009081526101966020526040908190208151610180810190925280548290829061173290614c0c565b80601f016020809104026020016040519081016040528092919081815260200182805461175e90614c0c565b80156117ab5780601f10611780576101008083540402835291602001916117ab565b820191906000526020600020905b81548152906001019060200180831161178e57829003601f168201915b505050505081526020016001820180546117c490614c0c565b80601f01602080910402602001604051908101604052809291908181526020018280546117f090614c0c565b801561183d5780601f106118125761010080835404028352916020019161183d565b820191906000526020600020905b81548152906001019060200180831161182057829003601f168201915b5050505050815260200160028201805480602002602001604051908101604052809291908181526020016000905b8282101561191757838290600052602060002001805461188a90614c0c565b80601f01602080910402602001604051908101604052809291908181526020018280546118b690614c0c565b80156119035780601f106118d857610100808354040283529160200191611903565b820191906000526020600020905b8154815290600101906020018083116118e657829003601f168201915b50505050508152602001906001019061186b565b505050908252506003919091015463ffffffff8082166020840152600160201b820481166040840152600160401b820481166060840152600160601b820481166080840152600160801b8204811660a0840152600160a01b8204811660c0840152600160c01b82041660e083015261ffff600160e01b82048116610100840152600160f01b9091041661012090910152919050565b600082815260c9602052604081206119c49083612a73565b9392505050565b60009182526097602090815260408084206001600160a01b0393909316845291905290205460ff1690565b60606066805461079f90614c0c565b610f76338383612a7f565b80516101985460609190811115611a7d5760405162461bcd60e51b815260206004820152602b60248201527f50726f6d70744d6f6e73746572733a20746f6b656e4964734c656e677468206960448201526a7320746f6f206c6172676560a81b60648201526084016108bd565b806001600160401b03811115611a9557611a95614441565b604051908082528060200260200182016040528015611ace57816020015b611abb614221565b815260200190600190039081611ab35790505b50915060005b81811015611dcf57610198848281518110611af157611af1614e76565b602002602001015181548110611b0957611b09614e76565b906000526020600020906004020160405180610180016040529081600082018054611b3390614c0c565b80601f0160208091040260200160405190810160405280929190818152602001828054611b5f90614c0c565b8015611bac5780601f10611b8157610100808354040283529160200191611bac565b820191906000526020600020905b815481529060010190602001808311611b8f57829003601f168201915b50505050508152602001600182018054611bc590614c0c565b80601f0160208091040260200160405190810160405280929190818152602001828054611bf190614c0c565b8015611c3e5780601f10611c1357610100808354040283529160200191611c3e565b820191906000526020600020905b815481529060010190602001808311611c2157829003601f168201915b5050505050815260200160028201805480602002602001604051908101604052809291908181526020016000905b82821015611d18578382906000526020600020018054611c8b90614c0c565b80601f0160208091040260200160405190810160405280929190818152602001828054611cb790614c0c565b8015611d045780601f10611cd957610100808354040283529160200191611d04565b820191906000526020600020905b815481529060010190602001808311611ce757829003601f168201915b505050505081526020019060010190611c6c565b505050908252506003919091015463ffffffff8082166020840152600160201b820481166040840152600160401b820481166060840152600160601b820481166080840152600160801b8204811660a0840152600160a01b8204811660c0840152600160c01b82041660e083015261ffff600160e01b82048116610100840152600160f01b90910416610120909101528351849083908110611dbc57611dbc614e76565b6020908102919091010152600101611ad4565b5050919050565b611de033836125dd565b611dfc5760405162461bcd60e51b81526004016108bd90614d91565b611e0884848484612b4d565b50505050565b6060611e1982612492565b6000611e2483612b80565b905060006101988481548110611e3c57611e3c614e76565b906000526020600020906004020160405180610180016040529081600082018054611e6690614c0c565b80601f0160208091040260200160405190810160405280929190818152602001828054611e9290614c0c565b8015611edf5780601f10611eb457610100808354040283529160200191611edf565b820191906000526020600020905b815481529060010190602001808311611ec257829003601f168201915b50505050508152602001600182018054611ef890614c0c565b80601f0160208091040260200160405190810160405280929190818152602001828054611f2490614c0c565b8015611f715780601f10611f4657610100808354040283529160200191611f71565b820191906000526020600020905b815481529060010190602001808311611f5457829003601f168201915b5050505050815260200160028201805480602002602001604051908101604052809291908181526020016000905b8282101561204b578382906000526020600020018054611fbe90614c0c565b80601f0160208091040260200160405190810160405280929190818152602001828054611fea90614c0c565b80156120375780601f1061200c57610100808354040283529160200191612037565b820191906000526020600020905b81548152906001019060200180831161201a57829003601f168201915b505050505081526020019060010190611f9f565b505050908252506003919091015463ffffffff808216602080850191909152600160201b830482166040850152600160401b830482166060850152600160601b830482166080850152600160801b8304821660a0850152600160a01b8304821660c0850152600160c01b830490911660e084015261ffff600160e01b83048116610100850152600160f01b90920490911661012090920191909152815190820151919250600091612126919061210086613098565b60405160200161211293929190614ea8565b604051602081830303815290604052613098565b905060008160405160200161213b9190614f6b565b60408051601f198184030181529190529695505050505050565b600081815260c96020526040812061078a906131ea565b600082815260976020526040902060010154612187816125d3565b61095e83836127ef565b600061219c816125d3565b61019280546001600160a01b038481166001600160a01b0319831617909255166121c33390565b604080516001600160a01b038481168252868116602083015292909216917fc791f304f706b4012579cd651a8a0d930c30d117f42ee74327000e3fc75bfbbc9101611061565b60606000612215610790565b905060008160405160200161222a9190614fb0565b60405160208183030381529060405290506000612261838461224b85613098565b610194604051602001612112949392919061515d565b90506000816040516020016122769190614f6b565b60408051601f1981840301815291905295945050505050565b600061229a816125d3565b6122a2612987565b6001600160a01b038316600090815261019660205260409020825183919081906122cc9082614cad565b50602082015160018201906122e19082614cad565b50604082015180516122fd9160028401916020909101906141cb565b5060608201516003919091018054608084015160a085015160c086015160e08701516101008801516101208901516101408a0151610160909a015163ffffffff998a1667ffffffffffffffff1990981697909717600160201b968a16969096029590951767ffffffffffffffff60401b1916600160401b9489169490940263ffffffff60601b191693909317600160601b928816929092029190911767ffffffffffffffff60801b1916600160801b9187169190910263ffffffff60a01b191617600160a01b918616919091021765ffffffffffff60c01b1916600160c01b949091169390930261ffff60e01b191692909217600160e01b61ffff94851602176001600160f01b0316600160f01b9390921692909202179055600161015f55505050565b600061242c816125d3565b610193805490839055604080518281526020810185905233917f55cc83342b4c144a74960fdf0dfe1a7af4cbb77aaccb471b088d5fe0bdad1d4c9101611061565b60006001600160e01b03198216635a05180f60e01b148061078a575061078a826131f4565b6000818152606760205260409020546001600160a01b03166112925760405162461bcd60e51b8152602060048201526018602482015277115490cdcc8c4e881a5b9d985b1a59081d1bdad95b88125160421b60448201526064016108bd565b600081815260696020526040902080546001600160a01b0319166001600160a01b038416908117909155819061252682611619565b6001600160a01b03167f8c5be1e5ebec7d5bd14f71427d1e84f3dd0314c0f7b2291e5b200ac8c7c3b92560405160405180910390a45050565b604080516001600160a01b0385811660248301528416604482015260648082018490528251808303909101815260849091019091526020810180516001600160e01b03166323b872dd60e01b179052611e08908590613219565b610f768282604051806020016040528060008152506132eb565b611292813361331e565b6000806125e983611619565b9050806001600160a01b0316846001600160a01b0316148061263057506001600160a01b038082166000908152606a602090815260408083209388168352929052205460ff165b806126545750836001600160a01b031661264984610822565b6001600160a01b0316145b949350505050565b826001600160a01b031661266f82611619565b6001600160a01b0316146126955760405162461bcd60e51b81526004016108bd906152ca565b6001600160a01b0382166126f75760405162461bcd60e51b8152602060048201526024808201527f4552433732313a207472616e7366657220746f20746865207a65726f206164646044820152637265737360e01b60648201526084016108bd565b6127048383836001613377565b826001600160a01b031661271782611619565b6001600160a01b03161461273d5760405162461bcd60e51b81526004016108bd906152ca565b600081815260696020908152604080832080546001600160a01b03199081169091556001600160a01b0387811680865260688552838620805460001901905590871680865283862080546001019055868652606790945282852080549092168417909155905184937fddf252ad1be2c89b69c2b068fc378daa952ba7f163c4a11628f55a4df523b3ef91a4505050565b6127d782826133c0565b600082815260c96020526040902061095e9082613446565b6127f9828261345b565b600082815260c96020526040902061095e90826134c2565b6000610f76816125d3565b7f4910fdfa16fed3260ed0e7147f7cc6da11a60208b5b9406d12a635614ffd91435460ff161561284f5761095e836134d7565b826001600160a01b03166352d1902d6040518163ffffffff1660e01b8152600401602060405180830381865afa9250505080156128a9575060408051601f3d908101601f191682019092526128a691810190614c46565b60015b61290c5760405162461bcd60e51b815260206004820152602e60248201527f45524331393637557067726164653a206e657720696d706c656d656e7461746960448201526d6f6e206973206e6f74205555505360901b60648201526084016108bd565b600080516020615936833981519152811461297b5760405162461bcd60e51b815260206004820152602960248201527f45524331393637557067726164653a20756e737570706f727465642070726f786044820152681a58589b195555525160ba1b60648201526084016108bd565b5061095e838383613573565b600261015f54036129da5760405162461bcd60e51b815260206004820152601f60248201527f5265656e7472616e637947756172643a207265656e7472616e742063616c6c0060448201526064016108bd565b600261015f55565b600161015f55565b600054610100900460ff16612a115760405162461bcd60e51b81526004016108bd9061530f565b610f768282613598565b600054610100900460ff16612a425760405162461bcd60e51b81526004016108bd9061530f565b565b600054610100900460ff16612a6b5760405162461bcd60e51b81526004016108bd9061530f565b612a426135d8565b60006119c483836135ff565b816001600160a01b0316836001600160a01b031603612ae05760405162461bcd60e51b815260206004820152601960248201527f4552433732313a20617070726f766520746f2063616c6c65720000000000000060448201526064016108bd565b6001600160a01b038381166000818152606a6020908152604080832094871680845294825291829020805460ff191686151590811790915591519182527f17307eab39ab6107e8899845ad3d59bd9653f200f220920489ca2b5937696c31910160405180910390a3505050565b612b5884848461265c565b612b6484848484613629565b611e085760405162461bcd60e51b81526004016108bd9061535a565b606060006101988381548110612b9857612b98614e76565b906000526020600020906004020160405180610180016040529081600082018054612bc290614c0c565b80601f0160208091040260200160405190810160405280929190818152602001828054612bee90614c0c565b8015612c3b5780601f10612c1057610100808354040283529160200191612c3b565b820191906000526020600020905b815481529060010190602001808311612c1e57829003601f168201915b50505050508152602001600182018054612c5490614c0c565b80601f0160208091040260200160405190810160405280929190818152602001828054612c8090614c0c565b8015612ccd5780601f10612ca257610100808354040283529160200191612ccd565b820191906000526020600020905b815481529060010190602001808311612cb057829003601f168201915b5050505050815260200160028201805480602002602001604051908101604052809291908181526020016000905b82821015612da7578382906000526020600020018054612d1a90614c0c565b80601f0160208091040260200160405190810160405280929190818152602001828054612d4690614c0c565b8015612d935780601f10612d6857610100808354040283529160200191612d93565b820191906000526020600020905b815481529060010190602001808311612d7657829003601f168201915b505050505081526020019060010190612cfb565b505050908252506003919091015463ffffffff8082166020840152600160201b820481166040840152600160401b820481166060840152600160601b820481166080840152600160801b8204811660a0840152600160a01b8204811660c0840152600160c01b82041660e083015261ffff600160e01b82048116610100840152600160f01b90910416610120909101528051909150612e4b90600a9060149061372a565b612e89600a603c612e65856060015163ffffffff16613769565b604051602001612e7591906153ac565b60405160208183030381529060405261372a565b612eb3600a6064612ea3866080015163ffffffff16613769565b604051602001612e7591906153d8565b612edd600a6078612ecd8760a0015163ffffffff16613769565b604051602001612e7591906153f7565b612f07600a608c612ef78860c0015163ffffffff16613769565b604051602001612e759190615424565b612f31600a60a0612f218960e0015163ffffffff16613769565b604051602001612e759190615444565b612f5c600a60b4612f4c8a610100015163ffffffff16613769565b604051602001612e759190615464565b612f87600a60c8612f778b610120015163ffffffff16613769565b604051602001612e759190615484565b604051602001612f9e9897969594939291906154a4565b60408051601f19818403018152919052915060f060005b82604001515181101561306e5761016083015161ffff16612fd7826001615646565b1161306e5783613039600a612fed846014615659565b612ff79086615646565b61300a613005866001615646565b613769565b8760400151868151811061302057613020614e76565b6020026020010151604051602001612e75929190615670565b60405160200161304a9291906156be565b60405160208183030381529060405293508080613066906156ed565b915050612fb5565b50826040516020016130809190615706565b60405160208183030381529060405292505050919050565b606081516000036130b757505060408051602081019091526000815290565b600060405180606001604052806040815260200161595660409139905060006003845160026130e69190615646565b6130f09190615730565b6130fb906004615659565b6001600160401b0381111561311257613112614441565b6040519080825280601f01601f19166020018201604052801561313c576020820181803683370190505b509050600182016020820185865187015b808210156131a8576003820191508151603f8160121c168501518453600184019350603f81600c1c168501518453600184019350603f8160061c168501518453600184019350603f811685015184535060018301925061314d565b50506003865106600181146131c457600281146131d7576131df565b603d6001830353603d60028303536131df565b603d60018303535b509195945050505050565b600061078a825490565b60006001600160e01b03198216637965db0b60e01b148061078a575061078a826137fb565b600061326e826040518060400160405280602081526020017f5361666545524332303a206c6f772d6c6576656c2063616c6c206661696c6564815250856001600160a01b031661384b9092919063ffffffff16565b80519091501561095e578080602001905181019061328c9190615752565b61095e5760405162461bcd60e51b815260206004820152602a60248201527f5361666545524332303a204552433230206f7065726174696f6e20646964206e6044820152691bdd081cdd58d8d9595960b21b60648201526084016108bd565b6132f5838361385a565b6133026000848484613629565b61095e5760405162461bcd60e51b81526004016108bd9061535a565b61332882826119cb565b610f7657613335816139f3565b613340836020613a05565b60405160200161335192919061576f565b60408051601f198184030181529082905262461bcd60e51b82526108bd91600401614370565b6001600160a01b0384166133945761338f8383613ba0565b611e08565b6001600160a01b0383166133ac5761338f8483613be5565b6133b68483613be5565b61338f8383613ba0565b6133ca82826119cb565b610f765760008281526097602090815260408083206001600160a01b03851684529091529020805460ff191660011790556134023390565b6001600160a01b0316816001600160a01b0316837f2f8788117e7eff1d82e926ec794901d17c78024a50270940304540a733656f0d60405160405180910390a45050565b60006119c4836001600160a01b038416613cea565b61346582826119cb565b15610f765760008281526097602090815260408083206001600160a01b0385168085529252808320805460ff1916905551339285917ff6391f5c32d9c69d2a47ea670b442974b53935d1edc7fd64eb21e047a839171b9190a45050565b60006119c4836001600160a01b038416613d39565b6001600160a01b0381163b6135445760405162461bcd60e51b815260206004820152602d60248201527f455243313936373a206e657720696d706c656d656e746174696f6e206973206e60448201526c1bdd08184818dbdb9d1c9858dd609a1b60648201526084016108bd565b60008051602061593683398151915280546001600160a01b0319166001600160a01b0392909216919091179055565b61357c83613e2c565b6000825111806135895750805b1561095e57611e088383613e6c565b600054610100900460ff166135bf5760405162461bcd60e51b81526004016108bd9061530f565b60656135cb8382614cad565b50606661095e8282614cad565b600054610100900460ff166129e25760405162461bcd60e51b81526004016108bd9061530f565b600082600001828154811061361657613616614e76565b9060005260206000200154905092915050565b60006001600160a01b0384163b1561371f57604051630a85bd0160e11b81526001600160a01b0385169063150b7a029061366d9033908990889088906004016157e4565b6020604051808303816000875af19250505080156136a8575060408051601f3d908101601f191682019092526136a591810190615821565b60015b613705573d8080156136d6576040519150601f19603f3d011682016040523d82523d6000602084013e6136db565b606091505b5080516000036136fd5760405162461bcd60e51b81526004016108bd9061535a565b805181602001fd5b6001600160e01b031916630a85bd0160e11b149050612654565b506001949350505050565b606061373584613769565b61373e84613769565b836040516020016137519392919061583e565b60405160208183030381529060405290509392505050565b6060600061377683613f60565b60010190506000816001600160401b0381111561379557613795614441565b6040519080825280601f01601f1916602001820160405280156137bf576020820181803683370190505b5090508181016020015b600019016f181899199a1a9b1b9c1cb0b131b232b360811b600a86061a8153600a85049450846137c957509392505050565b60006001600160e01b031982166380ac58cd60e01b148061382c57506001600160e01b03198216635b5e139f60e01b145b8061078a57506301ffc9a760e01b6001600160e01b031983161461078a565b60606126548484600085614038565b6001600160a01b0382166138b05760405162461bcd60e51b815260206004820181905260248201527f4552433732313a206d696e7420746f20746865207a65726f206164647265737360448201526064016108bd565b6000818152606760205260409020546001600160a01b0316156139155760405162461bcd60e51b815260206004820152601c60248201527f4552433732313a20746f6b656e20616c7265616479206d696e7465640000000060448201526064016108bd565b613923600083836001613377565b6000818152606760205260409020546001600160a01b0316156139885760405162461bcd60e51b815260206004820152601c60248201527f4552433732313a20746f6b656e20616c7265616479206d696e7465640000000060448201526064016108bd565b6001600160a01b038216600081815260686020908152604080832080546001019055848352606790915280822080546001600160a01b0319168417905551839291907fddf252ad1be2c89b69c2b068fc378daa952ba7f163c4a11628f55a4df523b3ef908290a45050565b606061078a6001600160a01b03831660145b60606000613a14836002615659565b613a1f906002615646565b6001600160401b03811115613a3657613a36614441565b6040519080825280601f01601f191660200182016040528015613a60576020820181803683370190505b509050600360fc1b81600081518110613a7b57613a7b614e76565b60200101906001600160f81b031916908160001a905350600f60fb1b81600181518110613aaa57613aaa614e76565b60200101906001600160f81b031916908160001a9053506000613ace846002615659565b613ad9906001615646565b90505b6001811115613b51576f181899199a1a9b1b9c1cb0b131b232b360811b85600f1660108110613b0d57613b0d614e76565b1a60f81b828281518110613b2357613b23614e76565b60200101906001600160f81b031916908160001a90535060049490941c93613b4a816158d9565b9050613adc565b5083156119c45760405162461bcd60e51b815260206004820181905260248201527f537472696e67733a20686578206c656e67746820696e73756666696369656e7460448201526064016108bd565b6001600160a01b039091166000908152610197602081815260408084208054610195845282862087875284529185208290559282526001810183559183529091200155565b6001600160a01b0382166000908152610197602052604081208054613c0c906001906158f0565b81548110613c1c57613c1c614e76565b90600052602060002001549050808214613c83576001600160a01b0383166000818152610195602090815260408083208684528252808320549383526101979091529020805483919083908110613c7557613c75614e76565b600091825260209091200155505b6001600160a01b038316600090815261019760205260409020805480613cab57613cab615903565b6000828152602080822083016000199081018390559092019092556001600160a01b039094168152610195845260408082209382529290935250812055565b6000818152600183016020526040812054613d315750815460018181018455600084815260208082209093018490558454848252828601909352604090209190915561078a565b50600061078a565b60008181526001830160205260408120548015613e22576000613d5d6001836158f0565b8554909150600090613d71906001906158f0565b9050818114613dd6576000866000018281548110613d9157613d91614e76565b9060005260206000200154905080876000018481548110613db457613db4614e76565b6000918252602080832090910192909255918252600188019052604090208390555b8554869080613de757613de7615903565b60019003818190600052602060002001600090559055856001016000868152602001908152602001600020600090556001935050505061078a565b600091505061078a565b613e35816134d7565b6040516001600160a01b038216907fbc7cd75a20ee27fd9adebab32041f755214dbc6bffa90cc0225b39da2e5c2d3b90600090a250565b60606001600160a01b0383163b613ed45760405162461bcd60e51b815260206004820152602660248201527f416464726573733a2064656c65676174652063616c6c20746f206e6f6e2d636f6044820152651b9d1c9858dd60d21b60648201526084016108bd565b600080846001600160a01b031684604051613eef9190615919565b600060405180830381855af49150503d8060008114613f2a576040519150601f19603f3d011682016040523d82523d6000602084013e613f2f565b606091505b5091509150613f57828260405180606001604052806027815260200161599660279139614113565b95945050505050565b60008072184f03e93ff9f4daa797ed6e38ed64bf6a1f0160401b8310613f9f5772184f03e93ff9f4daa797ed6e38ed64bf6a1f0160401b830492506040015b6d04ee2d6d415b85acef81000000008310613fcb576d04ee2d6d415b85acef8100000000830492506020015b662386f26fc100008310613fe957662386f26fc10000830492506010015b6305f5e1008310614001576305f5e100830492506008015b612710831061401557612710830492506004015b60648310614027576064830492506002015b600a831061078a5760010192915050565b6060824710156140995760405162461bcd60e51b815260206004820152602660248201527f416464726573733a20696e73756666696369656e742062616c616e636520666f6044820152651c8818d85b1b60d21b60648201526084016108bd565b600080866001600160a01b031685876040516140b59190615919565b60006040518083038185875af1925050503d80600081146140f2576040519150601f19603f3d011682016040523d82523d6000602084013e6140f7565b606091505b50915091506141088783838761412c565b979650505050505050565b606083156141225750816119c4565b6119c483836141a1565b6060831561419b578251600003614194576001600160a01b0385163b6141945760405162461bcd60e51b815260206004820152601d60248201527f416464726573733a2063616c6c20746f206e6f6e2d636f6e747261637400000060448201526064016108bd565b5081612654565b61265483835b8151156141b15781518083602001fd5b8060405162461bcd60e51b81526004016108bd9190614370565b828054828255906000526020600020908101928215614211579160200282015b8281111561421157825182906142019082614cad565b50916020019190600101906141eb565b5061421d929150614286565b5090565b604080516101808101825260608082526020820181905291810182905260009181018290526080810182905260a0810182905260c0810182905260e0810182905261010081018290526101208101829052610140810182905261016081019190915290565b8082111561421d57600061429a82826142a3565b50600101614286565b5080546142af90614c0c565b6000825580601f106142bf575050565b601f01602090049060005260206000209081019061129291905b8082111561421d57600081556001016142d9565b6001600160e01b03198116811461129257600080fd5b60006020828403121561431557600080fd5b81356119c4816142ed565b60005b8381101561433b578181015183820152602001614323565b50506000910152565b6000815180845261435c816020860160208601614320565b601f01601f19169290920160200192915050565b6020815260006119c46020830184614344565b60006020828403121561439557600080fd5b5035919050565b80356001600160a01b03811681146143b357600080fd5b919050565b600080604083850312156143cb57600080fd5b6143d48361439c565b946020939093013593505050565b6000602082840312156143f457600080fd5b6119c48261439c565b6020808252825182820181905260009190848201906040850190845b8181101561443557835183529284019291840191600101614419565b50909695505050505050565b634e487b7160e01b600052604160045260246000fd5b60405161018081016001600160401b038111828210171561447a5761447a614441565b60405290565b604051601f8201601f191681016001600160401b03811182821017156144a8576144a8614441565b604052919050565b600082601f8301126144c157600080fd5b81356001600160401b038111156144da576144da614441565b6144ed601f8201601f1916602001614480565b81815284602083860101111561450257600080fd5b816020850160208301376000918101602001919091529392505050565b60006020828403121561453157600080fd5b81356001600160401b0381111561454757600080fd5b612654848285016144b0565b60008060006060848603121561456857600080fd5b6145718461439c565b925061457f6020850161439c565b9150604084013590509250925092565b600080604083850312156145a257600080fd5b823591506145b26020840161439c565b90509250929050565b600080604083850312156145ce57600080fd5b6145d78361439c565b915060208301356001600160401b038111156145f257600080fd5b6145fe858286016144b0565b9150509250929050565b6000806000806080858703121561461e57600080fd5b84356001600160401b0381111561463457600080fd5b614640878288016144b0565b94505061464f6020860161439c565b9250604085013591506146646060860161439c565b905092959194509250565b600081518084526020808501808196508360051b8101915082860160005b858110156146b75782840389526146a5848351614344565b9885019893509084019060010161468d565b5091979650505050505050565b600061018082518185526146da82860182614344565b915050602083015184820360208601526146f48282614344565b9150506040830151848203604086015261470e828261466f565b9150506060830151614728606086018263ffffffff169052565b506080830151614740608086018263ffffffff169052565b5060a083015161475860a086018263ffffffff169052565b5060c083015161477060c086018263ffffffff169052565b5060e083015161478860e086018263ffffffff169052565b506101008381015163ffffffff9081169186019190915261012080850151909116908501526101408084015161ffff90811691860191909152610160938401511692909301919091525090565b6020815260006119c460208301846146c4565b600080604083850312156147fb57600080fd5b50508035926020909101359150565b801515811461129257600080fd5b6000806040838503121561482b57600080fd5b6148348361439c565b915060208301356148448161480a565b809150509250929050565b60006001600160401b0382111561486857614868614441565b5060051b60200190565b6000602080838503121561488557600080fd5b82356001600160401b0381111561489b57600080fd5b8301601f810185136148ac57600080fd5b80356148bf6148ba8261484f565b614480565b81815260059190911b820183019083810190878311156148de57600080fd5b928401925b82841015614108578335825292840192908401906148e3565b6000602080830181845280855180835260408601915060408160051b870101925083870160005b8281101561495157603f1988860301845261493f8583516146c4565b94509285019290850190600101614923565b5092979650505050505050565b6000806000806080858703121561497457600080fd5b61497d8561439c565b935061498b6020860161439c565b92506040850135915060608501356001600160401b038111156149ad57600080fd5b6149b9878288016144b0565b91505092959194509250565b600080604083850312156149d857600080fd5b6149e18361439c565b91506145b26020840161439c565b600082601f830112614a0057600080fd5b81356020614a106148ba8361484f565b82815260059290921b84018101918181019086841115614a2f57600080fd5b8286015b84811015614a6e5780356001600160401b03811115614a525760008081fd5b614a608986838b01016144b0565b845250918301918301614a33565b509695505050505050565b803563ffffffff811681146143b357600080fd5b803561ffff811681146143b357600080fd5b60008060408385031215614ab257600080fd5b614abb8361439c565b915060208301356001600160401b0380821115614ad757600080fd5b908401906101808287031215614aec57600080fd5b614af4614457565b823582811115614b0357600080fd5b614b0f888286016144b0565b825250602083013582811115614b2457600080fd5b614b30888286016144b0565b602083015250604083013582811115614b4857600080fd5b614b54888286016149ef565b604083015250614b6660608401614a79565b6060820152614b7760808401614a79565b6080820152614b8860a08401614a79565b60a0820152614b9960c08401614a79565b60c0820152614baa60e08401614a79565b60e08201526101009150614bbf828401614a79565b828201526101209150614bd3828401614a79565b828201526101409150614be7828401614a8d565b828201526101609150614bfb828401614a8d565b828201528093505050509250929050565b600181811c90821680614c2057607f821691505b602082108103614c4057634e487b7160e01b600052602260045260246000fd5b50919050565b600060208284031215614c5857600080fd5b5051919050565b601f82111561095e57600081815260208120601f850160051c81016020861015614c865750805b601f850160051c820191505b81811015614ca557828155600101614c92565b505050505050565b81516001600160401b03811115614cc657614cc6614441565b614cda81614cd48454614c0c565b84614c5f565b602080601f831160018114614d0f5760008415614cf75750858301515b600019600386901b1c1916600185901b178555614ca5565b600085815260208120601f198616915b82811015614d3e57888601518255948401946001909101908401614d1f565b5085821015614d5c5787850151600019600388901b60f8161c191681555b5050505050600190811b01905550565b604081526000614d7f6040830185614344565b8281036020840152613f578185614344565b6020808252602d908201527f4552433732313a2063616c6c6572206973206e6f7420746f6b656e206f776e6560408201526c1c881bdc88185c1c1c9bdd9959609a1b606082015260800190565b6020808252602c908201527f46756e6374696f6e206d7573742062652063616c6c6564207468726f7567682060408201526b19195b1959d85d1958d85b1b60a21b606082015260800190565b6020808252602c908201527f46756e6374696f6e206d7573742062652063616c6c6564207468726f7567682060408201526b6163746976652070726f787960a01b606082015260800190565b634e487b7160e01b600052603260045260246000fd5b60008151614e9e818560208601614320565b9290920192915050565b693d913730b6b2911d101160b11b81528351600090614ece81600a850160208901614320565b72111610113232b9b1b934b83a34b7b7111d101160691b600a918401918201528451614f0181601d840160208901614320565b7f222c2022696d616765223a2022646174613a696d6167652f7376672b786d6c3b601d92909101918201526618985cd94d8d0b60ca1b603d8201528351614f4f816044840160208801614320565b61227d60f01b6044929091019182015260460195945050505050565b7f646174613a6170706c69636174696f6e2f6a736f6e3b6261736536342c000000815260008251614fa381601d850160208701614320565b91909101601d0192915050565b7f3c73766720786d6c6e733d27687474703a2f2f7777772e77332e6f72672f323081527f30302f73766727207072657365727665417370656374526174696f3d27784d6960208201527f6e594d696e206d656574272076696577426f783d27302030203335302033353060408201527f273e3c7374796c653e2e62617365207b2066696c6c3a2077686974653b20666f60608201527f6e742d66616d696c793a2073657269663b20666f6e742d73697a653a2032347060808201527f783b207d3c2f7374796c653e3c726563742077696474683d273130302527206860a08201527f65696768743d2731303025272066696c6c3d27626c61636b27202f3e3c74657860c08201527f7420783d273530252720793d273530252720636c6173733d276261736527206460e08201527f6f6d696e616e742d626173656c696e653d276d6964646c652720746578742d616101008201526e3731b437b91e93b6b4b2323632939f60891b610120820152600061012f83516151348183860160208801614320565b83016151518282016c1e17ba32bc3a1f1e17b9bb339f60991b9052565b61013c01949350505050565b693d913730b6b2911d101160b11b81528451600090602061518482600a8601838b01614320565b72111610113232b9b1b934b83a34b7b7111d101160691b600a9285019283015286516151b681601d8501848b01614320565b7f2069732047656e657261746976652041492047616d652e222c2022696d616765601d93909101928301527f223a2022646174613a696d6167652f7376672b786d6c3b6261736536342c0000603d830152855161521981605b8501848a01614320565b741116101132bc3a32b93730b62fb634b735911d101160591b605b9390910192830152845460709060009061524d81614c0c565b60018281168015615265576001811461527e576152ae565b60ff1984168887015282151583028801860194506152ae565b8a6000528660002060005b848110156152a45781548a8201890152908301908801615289565b5050858389010194505b505061227d60f01b835250506002019998505050505050505050565b60208082526025908201527f4552433732313a207472616e736665722066726f6d20696e636f72726563742060408201526437bbb732b960d91b606082015260800190565b6020808252602b908201527f496e697469616c697a61626c653a20636f6e7472616374206973206e6f74206960408201526a6e697469616c697a696e6760a81b606082015260800190565b60208082526032908201527f4552433732313a207472616e7366657220746f206e6f6e20455243373231526560408201527131b2b4bb32b91034b6b83632b6b2b73a32b960711b606082015260800190565b630262b1d160e51b8152600082516153cb816004850160208701614320565b9190910160040192915050565b63024281d160e51b8152600082516153cb816004850160208701614320565b64020aa259d160dd1b815260008251615417816005850160208701614320565b9190910160050192915050565b6402222a31d160dd1b815260008251615417816005850160208701614320565b64024a72a1d160dd1b815260008251615417816005850160208701614320565b64026a3a91d160dd1b815260008251615417816005850160208701614320565b64020a3a61d160dd1b815260008251615417816005850160208701614320565b7f3c73766720786d6c6e733d22687474703a2f2f7777772e77332e6f72672f323081527f30302f73766722207072657365727665417370656374526174696f3d22784d6960208201527f6e594d696e206d656574222076696577426f783d22302030203335302033353060408201527f223e3c7374796c653e2e62617365207b2066696c6c3a2077686974653b20666f60608201527f6e742d66616d696c793a2073657269663b20666f6e742d73697a653a2031347060808201527f783b207d3c2f7374796c653e3c726563742077696474683d223130302522206860a08201527f65696768743d2231303025222066696c6c3d22626c61636b22202f3e0000000060c0820152600089516155c08160dc850160208e01614320565b8951908301906155d78160dc840160208e01614320565b89519101906155ed8160dc840160208d01614320565b61562061561a61561461560e61560860dc868801018e614e8c565b8c614e8c565b8a614e8c565b88614e8c565b86614e8c565b9c9b505050505050505050505050565b634e487b7160e01b600052601160045260246000fd5b8082018082111561078a5761078a615630565b808202811582820484141761078a5761078a615630565b6414dada5b1b60da1b815260008351615690816005850160208801614320565b6101d160f51b60059184019182015283516156b2816007840160208801614320565b01600701949350505050565b600083516156d0818460208801614320565b8351908301906156e4818360208801614320565b01949350505050565b6000600182016156ff576156ff615630565b5060010190565b60008251615718818460208701614320565b651e17b9bb339f60d11b920191825250600601919050565b60008261574d57634e487b7160e01b600052601260045260246000fd5b500490565b60006020828403121561576457600080fd5b81516119c48161480a565b7f416363657373436f6e74726f6c3a206163636f756e74200000000000000000008152600083516157a7816017850160208801614320565b7001034b99036b4b9b9b4b733903937b6329607d1b60179184019182015283516157d8816028840160208801614320565b01602801949350505050565b6001600160a01b038581168252841660208201526040810183905260806060820181905260009061581790830184614344565b9695505050505050565b60006020828403121561583357600080fd5b81516119c4816142ed565b681e3a32bc3a103c1e9160b91b81528351600090615863816009850160208901614320565b6411103c9e9160d91b600991840191820152845161588881600e840160208901614320565b6e111031b630b9b99e913130b9b2911f60891b600e929091019182015283516158b881601d840160208801614320565b661e17ba32bc3a1f60c91b601d929091019182015260240195945050505050565b6000816158e8576158e8615630565b506000190190565b8181038181111561078a5761078a615630565b634e487b7160e01b600052603160045260246000fd5b6000825161592b818460208701614320565b919091019291505056fe360894a13ba1a3210667c828492db98dca3e2076cc3735a920a3ca505d382bbc4142434445464748494a4b4c4d4e4f505152535455565758595a6162636465666768696a6b6c6d6e6f707172737475767778797a303132333435363738392b2f416464726573733a206c6f772d6c6576656c2064656c65676174652063616c6c206661696c6564a264697066735822122004903b8eeb5f188d7eada51ef5c66c2213a9574403af17ce102944e6732b706364736f6c63430008120033",
  "linkReferences": {},
  "deployedLinkReferences": {}
}