{
  "_format": "hh-sol-artifact-1",
  "contractName": "PromptMonsters",
  "sourceName": "contracts/prompt-monsters/PromptMonsters.sol",
  "abi": [
    {
      "inputs": [],
      "stateMutability": "nonpayable",
      "type": "constructor"
    },
    {
      "anonymous": false,
      "inputs": [
        {
          "indexed": false,
          "internalType": "address",
          "name": "previousAdmin",
          "type": "address"
        },
        {
          "indexed": false,
          "internalType": "address",
          "name": "newAdmin",
          "type": "address"
        }
      ],
      "name": "AdminChanged",
      "type": "event"
    },
    {
      "anonymous": false,
      "inputs": [
        {
          "indexed": true,
          "internalType": "address",
          "name": "owner",
          "type": "address"
        },
        {
          "indexed": true,
          "internalType": "address",
          "name": "approved",
          "type": "address"
        },
        {
          "indexed": true,
          "internalType": "uint256",
          "name": "tokenId",
          "type": "uint256"
        }
      ],
      "name": "Approval",
      "type": "event"
    },
    {
      "anonymous": false,
      "inputs": [
        {
          "indexed": true,
          "internalType": "address",
          "name": "owner",
          "type": "address"
        },
        {
          "indexed": true,
          "internalType": "address",
          "name": "operator",
          "type": "address"
        },
        {
          "indexed": false,
          "internalType": "bool",
          "name": "approved",
          "type": "bool"
        }
      ],
      "name": "ApprovalForAll",
      "type": "event"
    },
    {
      "anonymous": false,
      "inputs": [
        {
          "indexed": true,
          "internalType": "address",
          "name": "beacon",
          "type": "address"
        }
      ],
      "name": "BeaconUpgraded",
      "type": "event"
    },
    {
      "anonymous": false,
      "inputs": [
        {
          "components": [
            {
              "internalType": "string",
              "name": "feature",
              "type": "string"
            },
            {
              "internalType": "string",
              "name": "name",
              "type": "string"
            },
            {
              "internalType": "string",
              "name": "flavor",
              "type": "string"
            },
            {
              "internalType": "string[]",
              "name": "skills",
              "type": "string[]"
            },
            {
              "internalType": "uint32",
              "name": "lv",
              "type": "uint32"
            },
            {
              "internalType": "uint32",
              "name": "hp",
              "type": "uint32"
            },
            {
              "internalType": "uint32",
              "name": "atk",
              "type": "uint32"
            },
            {
              "internalType": "uint32",
              "name": "def",
              "type": "uint32"
            },
            {
              "internalType": "uint32",
              "name": "inte",
              "type": "uint32"
            },
            {
              "internalType": "uint32",
              "name": "mgr",
              "type": "uint32"
            },
            {
              "internalType": "uint32",
              "name": "agl",
              "type": "uint32"
            }
          ],
          "indexed": false,
          "internalType": "struct IPromptMonsters.Monster",
          "name": "monster",
          "type": "tuple"
        }
      ],
      "name": "GenerateMonster",
      "type": "event"
    },
    {
      "anonymous": false,
      "inputs": [
        {
          "indexed": false,
          "internalType": "uint8",
          "name": "version",
          "type": "uint8"
        }
      ],
      "name": "Initialized",
      "type": "event"
    },
    {
      "anonymous": false,
      "inputs": [
        {
          "indexed": true,
          "internalType": "address",
          "name": "tokenOwner",
          "type": "address"
        },
        {
          "indexed": true,
          "internalType": "uint256",
          "name": "newTokenId",
          "type": "uint256"
        },
        {
          "components": [
            {
              "internalType": "string",
              "name": "feature",
              "type": "string"
            },
            {
              "internalType": "string",
              "name": "name",
              "type": "string"
            },
            {
              "internalType": "string",
              "name": "flavor",
              "type": "string"
            },
            {
              "internalType": "string[]",
              "name": "skills",
              "type": "string[]"
            },
            {
              "internalType": "uint32",
              "name": "lv",
              "type": "uint32"
            },
            {
              "internalType": "uint32",
              "name": "hp",
              "type": "uint32"
            },
            {
              "internalType": "uint32",
              "name": "atk",
              "type": "uint32"
            },
            {
              "internalType": "uint32",
              "name": "def",
              "type": "uint32"
            },
            {
              "internalType": "uint32",
              "name": "inte",
              "type": "uint32"
            },
            {
              "internalType": "uint32",
              "name": "mgr",
              "type": "uint32"
            },
            {
              "internalType": "uint32",
              "name": "agl",
              "type": "uint32"
            }
          ],
          "indexed": false,
          "internalType": "struct IPromptMonsters.Monster",
          "name": "monster",
          "type": "tuple"
        }
      ],
      "name": "MintedMonster",
      "type": "event"
    },
    {
      "anonymous": false,
      "inputs": [
        {
          "indexed": false,
          "internalType": "address",
          "name": "account",
          "type": "address"
        }
      ],
      "name": "Paused",
      "type": "event"
    },
    {
      "anonymous": false,
      "inputs": [
        {
          "indexed": true,
          "internalType": "bytes32",
          "name": "role",
          "type": "bytes32"
        },
        {
          "indexed": true,
          "internalType": "bytes32",
          "name": "previousAdminRole",
          "type": "bytes32"
        },
        {
          "indexed": true,
          "internalType": "bytes32",
          "name": "newAdminRole",
          "type": "bytes32"
        }
      ],
      "name": "RoleAdminChanged",
      "type": "event"
    },
    {
      "anonymous": false,
      "inputs": [
        {
          "indexed": true,
          "internalType": "bytes32",
          "name": "role",
          "type": "bytes32"
        },
        {
          "indexed": true,
          "internalType": "address",
          "name": "account",
          "type": "address"
        },
        {
          "indexed": true,
          "internalType": "address",
          "name": "sender",
          "type": "address"
        }
      ],
      "name": "RoleGranted",
      "type": "event"
    },
    {
      "anonymous": false,
      "inputs": [
        {
          "indexed": true,
          "internalType": "bytes32",
          "name": "role",
          "type": "bytes32"
        },
        {
          "indexed": true,
          "internalType": "address",
          "name": "account",
          "type": "address"
        },
        {
          "indexed": true,
          "internalType": "address",
          "name": "sender",
          "type": "address"
        }
      ],
      "name": "RoleRevoked",
      "type": "event"
    },
    {
      "anonymous": false,
      "inputs": [
        {
          "indexed": true,
          "internalType": "address",
          "name": "publisher",
          "type": "address"
        },
        {
          "indexed": false,
          "internalType": "address",
          "name": "oldValue",
          "type": "address"
        },
        {
          "indexed": false,
          "internalType": "address",
          "name": "newValue",
          "type": "address"
        }
      ],
      "name": "SetErc20",
      "type": "event"
    },
    {
      "anonymous": false,
      "inputs": [
        {
          "indexed": true,
          "internalType": "address",
          "name": "publisher",
          "type": "address"
        },
        {
          "indexed": false,
          "internalType": "string",
          "name": "oldValue",
          "type": "string"
        },
        {
          "indexed": false,
          "internalType": "string",
          "name": "newValue",
          "type": "string"
        }
      ],
      "name": "SetExternalLink",
      "type": "event"
    },
    {
      "anonymous": false,
      "inputs": [
        {
          "indexed": true,
          "internalType": "address",
          "name": "publisher",
          "type": "address"
        },
        {
          "indexed": false,
          "internalType": "uint256",
          "name": "oldValue",
          "type": "uint256"
        },
        {
          "indexed": false,
          "internalType": "uint256",
          "name": "newValue",
          "type": "uint256"
        }
      ],
      "name": "SetMintPrice",
      "type": "event"
    },
    {
      "anonymous": false,
      "inputs": [
        {
          "indexed": true,
          "internalType": "address",
          "name": "publisher",
          "type": "address"
        },
        {
          "indexed": false,
          "internalType": "uint256",
          "name": "oldValue",
          "type": "uint256"
        },
        {
          "indexed": false,
          "internalType": "uint256",
          "name": "newValue",
          "type": "uint256"
        }
      ],
      "name": "SetOwnerToTokenId",
      "type": "event"
    },
    {
      "anonymous": false,
      "inputs": [
        {
          "indexed": true,
          "internalType": "address",
          "name": "publisher",
          "type": "address"
        },
        {
          "indexed": false,
          "internalType": "uint256",
          "name": "oldValue",
          "type": "uint256"
        },
        {
          "indexed": false,
          "internalType": "uint256",
          "name": "newValue",
          "type": "uint256"
        }
      ],
      "name": "SetOwnerToTokenIdIndex",
      "type": "event"
    },
    {
      "anonymous": false,
      "inputs": [
        {
          "indexed": true,
          "internalType": "address",
          "name": "publisher",
          "type": "address"
        },
        {
          "indexed": false,
          "internalType": "address",
          "name": "oldValue",
          "type": "address"
        },
        {
          "indexed": false,
          "internalType": "address",
          "name": "newValue",
          "type": "address"
        }
      ],
      "name": "SetPromptMonstersWallet",
      "type": "event"
    },
    {
      "anonymous": false,
      "inputs": [
        {
          "indexed": true,
          "internalType": "address",
          "name": "from",
          "type": "address"
        },
        {
          "indexed": true,
          "internalType": "address",
          "name": "to",
          "type": "address"
        },
        {
          "indexed": true,
          "internalType": "uint256",
          "name": "tokenId",
          "type": "uint256"
        }
      ],
      "name": "Transfer",
      "type": "event"
    },
    {
      "anonymous": false,
      "inputs": [
        {
          "indexed": false,
          "internalType": "address",
          "name": "account",
          "type": "address"
        }
      ],
      "name": "Unpaused",
      "type": "event"
    },
    {
      "anonymous": false,
      "inputs": [
        {
          "indexed": true,
          "internalType": "address",
          "name": "implementation",
          "type": "address"
        }
      ],
      "name": "Upgraded",
      "type": "event"
    },
    {
      "inputs": [],
      "name": "DEFAULT_ADMIN_ROLE",
      "outputs": [
        {
          "internalType": "bytes32",
          "name": "",
          "type": "bytes32"
        }
      ],
      "stateMutability": "view",
      "type": "function"
    },
    {
      "inputs": [
        {
          "internalType": "address",
          "name": "to",
          "type": "address"
        },
        {
          "internalType": "uint256",
          "name": "tokenId",
          "type": "uint256"
        }
      ],
      "name": "approve",
      "outputs": [],
      "stateMutability": "nonpayable",
      "type": "function"
    },
    {
      "inputs": [
        {
          "internalType": "address",
          "name": "owner",
          "type": "address"
        }
      ],
      "name": "balanceOf",
      "outputs": [
        {
          "internalType": "uint256",
          "name": "",
          "type": "uint256"
        }
      ],
      "stateMutability": "view",
      "type": "function"
    },
    {
      "inputs": [
        {
          "internalType": "uint256",
          "name": "tokenId_",
          "type": "uint256"
        }
      ],
      "name": "burn",
      "outputs": [],
      "stateMutability": "nonpayable",
      "type": "function"
    },
    {
      "inputs": [
        {
          "internalType": "uint256",
          "name": "monsterId",
          "type": "uint256"
        }
      ],
      "name": "checkMonsterId",
      "outputs": [],
      "stateMutability": "view",
      "type": "function"
    },
    {
      "inputs": [],
      "name": "contractURI",
      "outputs": [
        {
          "internalType": "string",
          "name": "uri",
          "type": "string"
        }
      ],
      "stateMutability": "view",
      "type": "function"
    },
    {
      "inputs": [],
      "name": "erc20",
      "outputs": [
        {
          "internalType": "contract IERC20",
          "name": "",
          "type": "address"
        }
      ],
      "stateMutability": "view",
      "type": "function"
    },
    {
      "inputs": [
        {
          "internalType": "address",
          "name": "resurrectionPrompt_",
          "type": "address"
        },
        {
          "components": [
            {
              "internalType": "string",
              "name": "feature",
              "type": "string"
            },
            {
              "internalType": "string",
              "name": "name",
              "type": "string"
            },
            {
              "internalType": "string",
              "name": "flavor",
              "type": "string"
            },
            {
              "internalType": "string[]",
              "name": "skills",
              "type": "string[]"
            },
            {
              "internalType": "uint32",
              "name": "lv",
              "type": "uint32"
            },
            {
              "internalType": "uint32",
              "name": "hp",
              "type": "uint32"
            },
            {
              "internalType": "uint32",
              "name": "atk",
              "type": "uint32"
            },
            {
              "internalType": "uint32",
              "name": "def",
              "type": "uint32"
            },
            {
              "internalType": "uint32",
              "name": "inte",
              "type": "uint32"
            },
            {
              "internalType": "uint32",
              "name": "mgr",
              "type": "uint32"
            },
            {
              "internalType": "uint32",
              "name": "agl",
              "type": "uint32"
            }
          ],
          "internalType": "struct IPromptMonsters.Monster",
          "name": "monster_",
          "type": "tuple"
        }
      ],
      "name": "generateMonster",
      "outputs": [],
      "stateMutability": "nonpayable",
      "type": "function"
    },
    {
      "inputs": [
        {
          "internalType": "uint256",
          "name": "tokenId",
          "type": "uint256"
        }
      ],
      "name": "getApproved",
      "outputs": [
        {
          "internalType": "address",
          "name": "",
          "type": "address"
        }
      ],
      "stateMutability": "view",
      "type": "function"
    },
    {
      "inputs": [
        {
          "internalType": "address[]",
          "name": "resurrectionPrompts_",
          "type": "address[]"
        }
      ],
      "name": "getMonsterExtensions",
      "outputs": [
        {
          "components": [
            {
              "internalType": "string",
              "name": "feature",
              "type": "string"
            },
            {
              "internalType": "string",
              "name": "name",
              "type": "string"
            },
            {
              "internalType": "string",
              "name": "flavor",
              "type": "string"
            },
            {
              "internalType": "string[]",
              "name": "skills",
              "type": "string[]"
            },
            {
              "internalType": "uint32",
              "name": "lv",
              "type": "uint32"
            },
            {
              "internalType": "uint32",
              "name": "hp",
              "type": "uint32"
            },
            {
              "internalType": "uint32",
              "name": "atk",
              "type": "uint32"
            },
            {
              "internalType": "uint32",
              "name": "def",
              "type": "uint32"
            },
            {
              "internalType": "uint32",
              "name": "inte",
              "type": "uint32"
            },
            {
              "internalType": "uint32",
              "name": "mgr",
              "type": "uint32"
            },
            {
              "internalType": "uint32",
              "name": "agl",
              "type": "uint32"
            },
            {
              "internalType": "uint32[]",
              "name": "skillTypes",
              "type": "uint32[]"
            }
          ],
          "internalType": "struct IPromptMonstersExtension.MonsterExtension[]",
          "name": "monsterExtensions",
          "type": "tuple[]"
        }
      ],
      "stateMutability": "view",
      "type": "function"
    },
    {
      "inputs": [
        {
          "internalType": "address",
          "name": "resurrectionPrompt",
          "type": "address"
        }
      ],
      "name": "getMonsterHistory",
      "outputs": [
        {
          "components": [
            {
              "internalType": "string",
              "name": "feature",
              "type": "string"
            },
            {
              "internalType": "string",
              "name": "name",
              "type": "string"
            },
            {
              "internalType": "string",
              "name": "flavor",
              "type": "string"
            },
            {
              "internalType": "string[]",
              "name": "skills",
              "type": "string[]"
            },
            {
              "internalType": "uint32",
              "name": "lv",
              "type": "uint32"
            },
            {
              "internalType": "uint32",
              "name": "hp",
              "type": "uint32"
            },
            {
              "internalType": "uint32",
              "name": "atk",
              "type": "uint32"
            },
            {
              "internalType": "uint32",
              "name": "def",
              "type": "uint32"
            },
            {
              "internalType": "uint32",
              "name": "inte",
              "type": "uint32"
            },
            {
              "internalType": "uint32",
              "name": "mgr",
              "type": "uint32"
            },
            {
              "internalType": "uint32",
              "name": "agl",
              "type": "uint32"
            }
          ],
          "internalType": "struct IPromptMonsters.Monster",
          "name": "monsterHistory",
          "type": "tuple"
        }
      ],
      "stateMutability": "view",
      "type": "function"
    },
    {
      "inputs": [
        {
          "internalType": "uint256[]",
          "name": "tokenIds_",
          "type": "uint256[]"
        }
      ],
      "name": "getMonsters",
      "outputs": [
        {
          "components": [
            {
              "internalType": "string",
              "name": "feature",
              "type": "string"
            },
            {
              "internalType": "string",
              "name": "name",
              "type": "string"
            },
            {
              "internalType": "string",
              "name": "flavor",
              "type": "string"
            },
            {
              "internalType": "string[]",
              "name": "skills",
              "type": "string[]"
            },
            {
              "internalType": "uint32",
              "name": "lv",
              "type": "uint32"
            },
            {
              "internalType": "uint32",
              "name": "hp",
              "type": "uint32"
            },
            {
              "internalType": "uint32",
              "name": "atk",
              "type": "uint32"
            },
            {
              "internalType": "uint32",
              "name": "def",
              "type": "uint32"
            },
            {
              "internalType": "uint32",
              "name": "inte",
              "type": "uint32"
            },
            {
              "internalType": "uint32",
              "name": "mgr",
              "type": "uint32"
            },
            {
              "internalType": "uint32",
              "name": "agl",
              "type": "uint32"
            }
          ],
          "internalType": "struct IPromptMonsters.Monster[]",
          "name": "monsters",
          "type": "tuple[]"
        }
      ],
      "stateMutability": "view",
      "type": "function"
    },
    {
      "inputs": [],
      "name": "getMonstersTotalSupply",
      "outputs": [
        {
          "internalType": "uint256",
          "name": "totalSupply",
          "type": "uint256"
        }
      ],
      "stateMutability": "view",
      "type": "function"
    },
    {
      "inputs": [
        {
          "internalType": "address",
          "name": "owner",
          "type": "address"
        }
      ],
      "name": "getOwnerToTokenIds",
      "outputs": [
        {
          "internalType": "uint256[]",
          "name": "tokenIds",
          "type": "uint256[]"
        }
      ],
      "stateMutability": "view",
      "type": "function"
    },
    {
      "inputs": [
        {
          "internalType": "address",
          "name": "owner",
          "type": "address"
        },
        {
          "internalType": "uint256",
          "name": "tokenId_",
          "type": "uint256"
        }
      ],
      "name": "getOwnerToTokenIdsIndex",
      "outputs": [
        {
          "internalType": "uint256",
          "name": "tokenIdsIndex",
          "type": "uint256"
        }
      ],
      "stateMutability": "view",
      "type": "function"
    },
    {
      "inputs": [],
      "name": "getPromptMonstersExtension",
      "outputs": [
        {
          "internalType": "contract IPromptMonstersExtension",
          "name": "returnState",
          "type": "address"
        }
      ],
      "stateMutability": "view",
      "type": "function"
    },
    {
      "inputs": [
        {
          "internalType": "bytes32",
          "name": "role",
          "type": "bytes32"
        }
      ],
      "name": "getRoleAdmin",
      "outputs": [
        {
          "internalType": "bytes32",
          "name": "",
          "type": "bytes32"
        }
      ],
      "stateMutability": "view",
      "type": "function"
    },
    {
      "inputs": [
        {
          "internalType": "bytes32",
          "name": "role",
          "type": "bytes32"
        },
        {
          "internalType": "uint256",
          "name": "index",
          "type": "uint256"
        }
      ],
      "name": "getRoleMember",
      "outputs": [
        {
          "internalType": "address",
          "name": "",
          "type": "address"
        }
      ],
      "stateMutability": "view",
      "type": "function"
    },
    {
      "inputs": [
        {
          "internalType": "bytes32",
          "name": "role",
          "type": "bytes32"
        }
      ],
      "name": "getRoleMemberCount",
      "outputs": [
        {
          "internalType": "uint256",
          "name": "",
          "type": "uint256"
        }
      ],
      "stateMutability": "view",
      "type": "function"
    },
    {
      "inputs": [
        {
          "internalType": "bytes32",
          "name": "role",
          "type": "bytes32"
        },
        {
          "internalType": "address",
          "name": "account",
          "type": "address"
        }
      ],
      "name": "grantRole",
      "outputs": [],
      "stateMutability": "nonpayable",
      "type": "function"
    },
    {
      "inputs": [
        {
          "internalType": "bytes32",
          "name": "role",
          "type": "bytes32"
        },
        {
          "internalType": "address",
          "name": "account",
          "type": "address"
        }
      ],
      "name": "hasRole",
      "outputs": [
        {
          "internalType": "bool",
          "name": "",
          "type": "bool"
        }
      ],
      "stateMutability": "view",
      "type": "function"
    },
    {
      "inputs": [
        {
          "internalType": "string",
          "name": "externalLink_",
          "type": "string"
        },
        {
          "internalType": "address",
          "name": "erc20Address_",
          "type": "address"
        },
        {
          "internalType": "uint256",
          "name": "mintPrice_",
          "type": "uint256"
        },
        {
          "internalType": "address",
          "name": "promptMonstersWallet_",
          "type": "address"
        }
      ],
      "name": "initialize",
      "outputs": [],
      "stateMutability": "nonpayable",
      "type": "function"
    },
    {
      "inputs": [
        {
          "internalType": "address",
          "name": "owner",
          "type": "address"
        },
        {
          "internalType": "address",
          "name": "operator",
          "type": "address"
        }
      ],
      "name": "isApprovedForAll",
      "outputs": [
        {
          "internalType": "bool",
          "name": "",
          "type": "bool"
        }
      ],
      "stateMutability": "view",
      "type": "function"
    },
    {
      "inputs": [
        {
          "internalType": "address",
          "name": "",
          "type": "address"
        }
      ],
      "name": "isMinted",
      "outputs": [
        {
          "internalType": "bool",
          "name": "",
          "type": "bool"
        }
      ],
      "stateMutability": "view",
      "type": "function"
    },
    {
      "inputs": [
        {
          "internalType": "address",
          "name": "resurrectionPrompt",
          "type": "address"
        }
      ],
      "name": "mint",
      "outputs": [],
      "stateMutability": "nonpayable",
      "type": "function"
    },
    {
      "inputs": [],
      "name": "mintPrice",
      "outputs": [
        {
          "internalType": "uint256",
          "name": "",
          "type": "uint256"
        }
      ],
      "stateMutability": "view",
      "type": "function"
    },
    {
      "inputs": [
        {
          "internalType": "uint256",
          "name": "",
          "type": "uint256"
        }
      ],
      "name": "monsterIdToResurrectionPrompt",
      "outputs": [
        {
          "internalType": "address",
          "name": "",
          "type": "address"
        }
      ],
      "stateMutability": "view",
      "type": "function"
    },
    {
      "inputs": [],
      "name": "name",
      "outputs": [
        {
          "internalType": "string",
          "name": "",
          "type": "string"
        }
      ],
      "stateMutability": "view",
      "type": "function"
    },
    {
      "inputs": [
        {
          "internalType": "uint256",
          "name": "tokenId",
          "type": "uint256"
        }
      ],
      "name": "ownerOf",
      "outputs": [
        {
          "internalType": "address",
          "name": "",
          "type": "address"
        }
      ],
      "stateMutability": "view",
      "type": "function"
    },
    {
      "inputs": [],
      "name": "pause",
      "outputs": [],
      "stateMutability": "nonpayable",
      "type": "function"
    },
    {
      "inputs": [],
      "name": "paused",
      "outputs": [
        {
          "internalType": "bool",
          "name": "",
          "type": "bool"
        }
      ],
      "stateMutability": "view",
      "type": "function"
    },
    {
      "inputs": [],
      "name": "promptMonstersImage",
      "outputs": [
        {
          "internalType": "contract IPromptMonstersImage",
          "name": "",
          "type": "address"
        }
      ],
      "stateMutability": "view",
      "type": "function"
    },
    {
      "inputs": [],
      "name": "promptMonstersWallet",
      "outputs": [
        {
          "internalType": "address",
          "name": "",
          "type": "address"
        }
      ],
      "stateMutability": "view",
      "type": "function"
    },
    {
      "inputs": [],
      "name": "proxiableUUID",
      "outputs": [
        {
          "internalType": "bytes32",
          "name": "",
          "type": "bytes32"
        }
      ],
      "stateMutability": "view",
      "type": "function"
    },
    {
      "inputs": [
        {
          "internalType": "bytes32",
          "name": "role",
          "type": "bytes32"
        },
        {
          "internalType": "address",
          "name": "account",
          "type": "address"
        }
      ],
      "name": "renounceRole",
      "outputs": [],
      "stateMutability": "nonpayable",
      "type": "function"
    },
    {
      "inputs": [
        {
          "internalType": "address",
          "name": "",
          "type": "address"
        }
      ],
      "name": "resurrectionIndex",
      "outputs": [
        {
          "internalType": "uint256",
          "name": "",
          "type": "uint256"
        }
      ],
      "stateMutability": "view",
      "type": "function"
    },
    {
      "inputs": [
        {
          "internalType": "bytes32",
          "name": "role",
          "type": "bytes32"
        },
        {
          "internalType": "address",
          "name": "account",
          "type": "address"
        }
      ],
      "name": "revokeRole",
      "outputs": [],
      "stateMutability": "nonpayable",
      "type": "function"
    },
    {
      "inputs": [
        {
          "internalType": "address",
          "name": "from",
          "type": "address"
        },
        {
          "internalType": "address",
          "name": "to",
          "type": "address"
        },
        {
          "internalType": "uint256",
          "name": "tokenId",
          "type": "uint256"
        }
      ],
      "name": "safeTransferFrom",
      "outputs": [],
      "stateMutability": "nonpayable",
      "type": "function"
    },
    {
      "inputs": [
        {
          "internalType": "address",
          "name": "from",
          "type": "address"
        },
        {
          "internalType": "address",
          "name": "to",
          "type": "address"
        },
        {
          "internalType": "uint256",
          "name": "tokenId",
          "type": "uint256"
        },
        {
          "internalType": "bytes",
          "name": "data",
          "type": "bytes"
        }
      ],
      "name": "safeTransferFrom",
      "outputs": [],
      "stateMutability": "nonpayable",
      "type": "function"
    },
    {
      "inputs": [
        {
          "internalType": "address",
          "name": "operator",
          "type": "address"
        },
        {
          "internalType": "bool",
          "name": "approved",
          "type": "bool"
        }
      ],
      "name": "setApprovalForAll",
      "outputs": [],
      "stateMutability": "nonpayable",
      "type": "function"
    },
    {
      "inputs": [
        {
          "internalType": "address",
          "name": "newState_",
          "type": "address"
        }
      ],
      "name": "setErc20",
      "outputs": [],
      "stateMutability": "nonpayable",
      "type": "function"
    },
    {
      "inputs": [
        {
          "internalType": "string",
          "name": "newState_",
          "type": "string"
        }
      ],
      "name": "setExternalLink",
      "outputs": [],
      "stateMutability": "nonpayable",
      "type": "function"
    },
    {
      "inputs": [
        {
          "internalType": "uint256",
          "name": "newState_",
          "type": "uint256"
        }
      ],
      "name": "setMintPrice",
      "outputs": [],
      "stateMutability": "nonpayable",
      "type": "function"
    },
    {
      "inputs": [
        {
          "internalType": "uint256",
          "name": "monsterId_",
          "type": "uint256"
        },
        {
          "internalType": "address",
          "name": "resurrectionPrompt_",
          "type": "address"
        }
      ],
      "name": "setMonsterIdToResurrectionPrompt",
      "outputs": [],
      "stateMutability": "nonpayable",
      "type": "function"
    },
    {
      "inputs": [
        {
          "internalType": "address",
          "name": "user_",
          "type": "address"
        },
        {
          "internalType": "uint256",
          "name": "ownerToTokenIdIndex_",
          "type": "uint256"
        },
        {
          "internalType": "uint256",
          "name": "newState_",
          "type": "uint256"
        }
      ],
      "name": "setOwnerToTokenId",
      "outputs": [],
      "stateMutability": "nonpayable",
      "type": "function"
    },
    {
      "inputs": [
        {
          "internalType": "address",
          "name": "user_",
          "type": "address"
        },
        {
          "internalType": "uint256",
          "name": "tokenId_",
          "type": "uint256"
        },
        {
          "internalType": "uint256",
          "name": "newState_",
          "type": "uint256"
        }
      ],
      "name": "setOwnerToTokenIdIndex",
      "outputs": [],
      "stateMutability": "nonpayable",
      "type": "function"
    },
    {
      "inputs": [
        {
          "internalType": "address",
          "name": "newState_",
          "type": "address"
        }
      ],
      "name": "setPromptMonstersExtension",
      "outputs": [],
      "stateMutability": "nonpayable",
      "type": "function"
    },
    {
      "inputs": [
        {
          "internalType": "address",
          "name": "newState_",
          "type": "address"
        }
      ],
      "name": "setPromptMonstersImage",
      "outputs": [],
      "stateMutability": "nonpayable",
      "type": "function"
    },
    {
      "inputs": [
        {
          "internalType": "address",
          "name": "newState_",
          "type": "address"
        }
      ],
      "name": "setPromptMonstersWallet",
      "outputs": [],
      "stateMutability": "nonpayable",
      "type": "function"
    },
    {
      "inputs": [
        {
          "internalType": "bytes4",
          "name": "interfaceId",
          "type": "bytes4"
        }
      ],
      "name": "supportsInterface",
      "outputs": [
        {
          "internalType": "bool",
          "name": "",
          "type": "bool"
        }
      ],
      "stateMutability": "view",
      "type": "function"
    },
    {
      "inputs": [],
      "name": "symbol",
      "outputs": [
        {
          "internalType": "string",
          "name": "",
          "type": "string"
        }
      ],
      "stateMutability": "view",
      "type": "function"
    },
    {
      "inputs": [
        {
          "internalType": "uint256",
          "name": "tokenId_",
          "type": "uint256"
        }
      ],
      "name": "tokenURI",
      "outputs": [
        {
          "internalType": "string",
          "name": "uri",
          "type": "string"
        }
      ],
      "stateMutability": "view",
      "type": "function"
    },
    {
      "inputs": [
        {
          "internalType": "address",
          "name": "from",
          "type": "address"
        },
        {
          "internalType": "address",
          "name": "to",
          "type": "address"
        },
        {
          "internalType": "uint256",
          "name": "tokenId",
          "type": "uint256"
        }
      ],
      "name": "transferFrom",
      "outputs": [],
      "stateMutability": "nonpayable",
      "type": "function"
    },
    {
      "inputs": [],
      "name": "unpause",
      "outputs": [],
      "stateMutability": "nonpayable",
      "type": "function"
    },
    {
      "inputs": [
        {
          "internalType": "address",
          "name": "newImplementation",
          "type": "address"
        }
      ],
      "name": "upgradeTo",
      "outputs": [],
      "stateMutability": "nonpayable",
      "type": "function"
    },
    {
      "inputs": [
        {
          "internalType": "address",
          "name": "newImplementation",
          "type": "address"
        },
        {
          "internalType": "bytes",
          "name": "data",
          "type": "bytes"
        }
      ],
      "name": "upgradeToAndCall",
      "outputs": [],
      "stateMutability": "payable",
      "type": "function"
    }
  ],
  "bytecode": "0x60a0604052306080523480156200001557600080fd5b506200002062000026565b620000e8565b600054610100900460ff1615620000935760405162461bcd60e51b815260206004820152602760248201527f496e697469616c697a61626c653a20636f6e747261637420697320696e697469604482015266616c697a696e6760c81b606482015260840160405180910390fd5b60005460ff9081161015620000e6576000805460ff191660ff9081179091556040519081527f7f26b83ff96e1f2b6a682f133852f6798a09c465da95921460cefb38474024989060200160405180910390a15b565b60805161590c62000120600039600081816112d401528181611314015281816114cc0152818161150c015261159b015261590c6000f3fe60806040526004361061036b5760003560e01c806364cb5fd2116101c6578063b2664c2e116100f7578063dc328fa511610095578063e985e9c51161006f578063e985e9c514610a5d578063ee9b80a414610aa6578063f4a0a52814610ac6578063f9f2a7ce14610ae657600080fd5b8063dc328fa514610a08578063e4bab3f514610a28578063e8a3d48514610a4857600080fd5b8063c87b56dd116100d1578063c87b56dd1461097a578063ca15c8731461099a578063d547741f146109ba578063da430c26146109da57600080fd5b8063b2664c2e14610900578063b88d4fde1461092d578063c4b64f261461094d57600080fd5b806385965e411161016457806395d89b411161013e57806395d89b4114610896578063995005ef146108ab578063a217fddf146108cb578063a22cb465146108e057600080fd5b806385965e411461081f5780639010d07c1461085657806391d148541461087657600080fd5b806370a08231116101a057806370a08231146107a9578063785e9e86146107c957806383186465146107ea5780638456cb591461080a57600080fd5b806364cb5fd2146107525780636817c76c146107725780636a6278421461078957600080fd5b80632f2ff15d116102a05780634f1ef2861161023e57806355b094561161021857806355b09456146106d057806356db61c8146106f05780635c975abb146107105780636352211e1461073257600080fd5b80634f1ef2861461069257806352d1902d146106a557806352dd29d2146106ba57600080fd5b80633659cfe61161027a5780633659cfe61461061d5780633f4ba83a1461063d57806342842e0e1461065257806342966c681461067257600080fd5b80632f2ff15d146105bd57806333a512a4146105dd57806336568abe146105fd57600080fd5b80631b80ef7a1161030d57806323b872dd116102e757806323b872dd146104fd578063248a9ca31461051d57806327fde6d61461055b5780632d6407cf1461057a57600080fd5b80631b80ef7a1461048f5780631f917921146104bc5780632114d251146104dc57600080fd5b8063081812fc11610349578063081812fc146103e9578063095ea7b3146104215780630fd7efc414610441578063145f0fa91461046e57600080fd5b806301ffc9a714610370578063038d18d8146103a557806306fdde03146103c7575b600080fd5b34801561037c57600080fd5b5061039061038b366004614326565b610b17565b60405190151581526020015b60405180910390f35b3480156103b157600080fd5b506103c56103c036600461435f565b610b28565b005b3480156103d357600080fd5b506103dc610b57565b60405161039c91906143ca565b3480156103f557600080fd5b506104096104043660046143dd565b610be9565b6040516001600160a01b03909116815260200161039c565b34801561042d57600080fd5b506103c561043c3660046143f6565b610c10565b34801561044d57600080fd5b5061046161045c36600461435f565b610d2a565b60405161039c9190614420565b34801561047a57600080fd5b5061019254610409906001600160a01b031681565b34801561049b57600080fd5b506104af6104aa366004614519565b610d97565b60405161039c9190614640565b3480156104c857600080fd5b506103c56104d73660046147ff565b610f62565b3480156104e857600080fd5b5061019a54610409906001600160a01b031681565b34801561050957600080fd5b506103c5610518366004614833565b611056565b34801561052957600080fd5b5061054d6105383660046143dd565b60009081526097602052604090206001015490565b60405190815260200161039c565b34801561056757600080fd5b5061019d546001600160a01b0316610409565b34801561058657600080fd5b5061054d6105953660046143f6565b6001600160a01b03909116600090815261019560209081526040808320938352929052205490565b3480156105c957600080fd5b506103c56105d836600461486f565b611087565b3480156105e957600080fd5b506103c56105f8366004614942565b6110ac565b34801561060957600080fd5b506103c561061836600461486f565b61124c565b34801561062957600080fd5b506103c561063836600461435f565b6112ca565b34801561064957600080fd5b506103c56113a9565b34801561065e57600080fd5b506103c561066d366004614833565b611454565b34801561067e57600080fd5b506103c561068d3660046143dd565b61146f565b6103c56106a0366004614aae565b6114c2565b3480156106b157600080fd5b5061054d61158e565b3480156106c657600080fd5b506101985461054d565b3480156106dc57600080fd5b506103c56106eb366004614afb565b611641565b3480156106fc57600080fd5b506103c561070b366004614b62565b611803565b34801561071c57600080fd5b5061019a5461039090600160a01b900460ff1681565b34801561073e57600080fd5b5061040961074d3660046143dd565b61184e565b34801561075e57600080fd5b506103c561076d36600461435f565b6118ae565b34801561077e57600080fd5b5061054d6101935481565b34801561079557600080fd5b506103c56107a436600461435f565b6118dd565b3480156107b557600080fd5b5061054d6107c436600461435f565b611ff2565b3480156107d557600080fd5b5061019154610409906001600160a01b031681565b3480156107f657600080fd5b506103c56108053660046143dd565b612078565b34801561081657600080fd5b506103c56120f9565b34801561082b57600080fd5b5061040961083a3660046143dd565b61019c602052600090815260409020546001600160a01b031681565b34801561086257600080fd5b50610409610871366004614b95565b61216b565b34801561088257600080fd5b5061039061089136600461486f565b61218a565b3480156108a257600080fd5b506103dc6121b5565b3480156108b757600080fd5b506103c56108c636600461486f565b6121c4565b3480156108d757600080fd5b5061054d600081565b3480156108ec57600080fd5b506103c56108fb366004614bc5565b6121ff565b34801561090c57600080fd5b5061092061091b366004614bfc565b61220a565b60405161039c9190614d8d565b34801561093957600080fd5b506103c5610948366004614def565b61263c565b34801561095957600080fd5b5061096d61096836600461435f565b612674565b60405161039c9190614e56565b34801561098657600080fd5b506103dc6109953660046143dd565b61299e565b3480156109a657600080fd5b5061054d6109b53660046143dd565b612a46565b3480156109c657600080fd5b506103c56109d536600461486f565b612a5d565b3480156109e657600080fd5b5061054d6109f536600461435f565b6101996020526000908152604090205481565b348015610a1457600080fd5b506103c5610a23366004614b62565b612a82565b348015610a3457600080fd5b506103c5610a4336600461435f565b612ab5565b348015610a5457600080fd5b506103dc612b2d565b348015610a6957600080fd5b50610390610a78366004614e69565b6001600160a01b039182166000908152606a6020908152604080832093909416825291909152205460ff1690565b348015610ab257600080fd5b506103c5610ac136600461435f565b612bb4565b348015610ad257600080fd5b506103c5610ae13660046143dd565b612c2c565b348015610af257600080fd5b50610390610b0136600461435f565b61019b6020526000908152604090205460ff1681565b6000610b2282612c78565b92915050565b6000610b3381612c9d565b5061019a80546001600160a01b0319166001600160a01b0392909216919091179055565b606060658054610b6690614e93565b80601f0160208091040260200160405190810160405280929190818152602001828054610b9290614e93565b8015610bdf5780601f10610bb457610100808354040283529160200191610bdf565b820191906000526020600020905b815481529060010190602001808311610bc257829003601f168201915b5050505050905090565b6000610bf482612ca7565b506000908152606960205260409020546001600160a01b031690565b6000610c1b8261184e565b9050806001600160a01b0316836001600160a01b031603610c8d5760405162461bcd60e51b815260206004820152602160248201527f4552433732313a20617070726f76616c20746f2063757272656e74206f776e656044820152603960f91b60648201526084015b60405180910390fd5b336001600160a01b0382161480610ca95750610ca98133610a78565b610d1b5760405162461bcd60e51b815260206004820152603d60248201527f4552433732313a20617070726f76652063616c6c6572206973206e6f7420746f60448201527f6b656e206f776e6572206f7220617070726f76656420666f7220616c6c0000006064820152608401610c84565b610d258383612d06565b505050565b6001600160a01b03811660009081526101976020908152604091829020805483518184028101840190945280845260609392830182828015610d8b57602002820191906000526020600020905b815481526020019060010190808311610d77575b50505050509050919050565b8051606090806001600160401b03811115610db457610db4614464565b604051908082528060200260200182016040528015610e4257816020015b60408051610180810182526060808252602080830182905292820181905280820181905260006080830181905260a0830181905260c0830181905260e08301819052610100830181905261012083018190526101408301526101608201528252600019909201910181610dd25790505b50915060005b81811015610f5b576000848281518110610e6457610e64614ecd565b6020026020010151905061019d60009054906101000a90046001600160a01b03166001600160a01b031663c61184cc826101966000898781518110610eab57610eab614ecd565b60200260200101516001600160a01b03166001600160a01b031681526020019081526020016000206040518363ffffffff1660e01b8152600401610ef0929190615087565b600060405180830381865afa158015610f0d573d6000803e3d6000fd5b505050506040513d6000823e601f3d908101601f19168201604052610f3591908101906151de565b848381518110610f4757610f47614ecd565b602090810291909101015250600101610e48565b5050919050565b6000610f6d81612c9d565b60006101948054610f7d90614e93565b80601f0160208091040260200160405190810160405280929190818152602001828054610fa990614e93565b8015610ff65780601f10610fcb57610100808354040283529160200191610ff6565b820191906000526020600020905b815481529060010190602001808311610fd957829003601f168201915b5050505050905082610194908161100d91906153a7565b50336001600160a01b03167ffceab947acbd3281d41fa085ba6d9503467fabd9e3d96e3ee0dbf6f8b04a9ca48285604051611049929190615466565b60405180910390a2505050565b6110603382612d74565b61107c5760405162461bcd60e51b8152600401610c849061548b565b610d25838383612df3565b6000828152609760205260409020600101546110a281612c9d565b610d258383612f64565b60006110b781612c9d565b6110bf612f86565b6001600160a01b038316600090815261019660205260409020825183919081906110e990826153a7565b50602082015160018201906110fe90826153a7565b506040820151600282019061111390826153a7565b506060820151805161112f9160038401916020909101906141f8565b5060808201516004909101805460a084015160c085015160e08601516101008701516101208801516101409098015163ffffffff908116600160c01b0263ffffffff60c01b19998216600160a01b0263ffffffff60a01b19938316600160801b029390931667ffffffffffffffff60801b19948316600160601b0263ffffffff60601b19968416600160401b029690961667ffffffffffffffff60401b199784166401000000000267ffffffffffffffff1990991693909a169290921796909617949094169690961791909117161792909217929092161790556040517f510bfd2054011dabbaa045ac4dd0e4240d49b56398ef864dcfa95abec34b8e4990611239908490614e56565b60405180910390a1610d25600161015f55565b6001600160a01b03811633146112bc5760405162461bcd60e51b815260206004820152602f60248201527f416363657373436f6e74726f6c3a2063616e206f6e6c792072656e6f756e636560448201526e103937b632b9903337b91039b2b63360891b6064820152608401610c84565b6112c68282612fe9565b5050565b6001600160a01b037f00000000000000000000000000000000000000000000000000000000000000001630036113125760405162461bcd60e51b8152600401610c84906154d8565b7f00000000000000000000000000000000000000000000000000000000000000006001600160a01b031661135b600080516020615890833981519152546001600160a01b031690565b6001600160a01b0316146113815760405162461bcd60e51b8152600401610c8490615524565b61138a8161300b565b604080516000808252602082019092526113a691839190613016565b50565b60006113b481612c9d565b61019a54600160a01b900460ff166114055760405162461bcd60e51b815260206004820152601460248201527314185d5cd8589b194e881b9bdd081c185d5cd95960621b6044820152606401610c84565b61019a805460ff60a01b191690557f5db9ee0a495bf2e6ff9c91a7834c1ba4fdd244a5e8aa4e537bd38aeae4b073aa335b6040516001600160a01b03909116815260200160405180910390a150565b610d258383836040518060200160405280600081525061263c565b611477612f86565b61019a54600160a01b900460ff16156114a25760405162461bcd60e51b8152600401610c8490615570565b6114b7336114b160008061216b565b83611454565b6113a6600161015f55565b6001600160a01b037f000000000000000000000000000000000000000000000000000000000000000016300361150a5760405162461bcd60e51b8152600401610c84906154d8565b7f00000000000000000000000000000000000000000000000000000000000000006001600160a01b0316611553600080516020615890833981519152546001600160a01b031690565b6001600160a01b0316146115795760405162461bcd60e51b8152600401610c8490615524565b6115828261300b565b6112c682826001613016565b6000306001600160a01b037f0000000000000000000000000000000000000000000000000000000000000000161461162e5760405162461bcd60e51b815260206004820152603860248201527f555550535570677261646561626c653a206d757374206e6f742062652063616c60448201527f6c6564207468726f7567682064656c656761746563616c6c00000000000000006064820152608401610c84565b5060008051602061589083398151915290565b600054610100900460ff16158080156116615750600054600160ff909116105b8061167b5750303b15801561167b575060005460ff166001145b6116de5760405162461bcd60e51b815260206004820152602e60248201527f496e697469616c697a61626c653a20636f6e747261637420697320616c72656160448201526d191e481a5b9a5d1a585b1a5e995960921b6064820152608401610c84565b6000805460ff191660011790558015611701576000805461ff0019166101001790555b61174d6040518060400160405280600f81526020016e50726f6d7074204d6f6e737465727360881b8152506040518060400160405280600381526020016226a7a760e91b815250613181565b6117556131b2565b61175d6131b2565b6117656131db565b611770600033612f64565b61019461177d86826153a7565b5061019180546001600160a01b038087166001600160a01b03199283161790925561019385905561019280549285169290911691909117905580156117fc576000805461ff0019169055604051600181527f7f26b83ff96e1f2b6a682f133852f6798a09c465da95921460cefb38474024989060200160405180910390a15b5050505050565b600061180e81612c9d565b6001600160a01b03841660009081526101976020526040902080548391908590811061183c5761183c614ecd565b60009182526020909120015550505050565b6000818152606760205260408120546001600160a01b031680610b225760405162461bcd60e51b8152602060048201526018602482015277115490cdcc8c4e881a5b9d985b1a59081d1bdad95b88125160421b6044820152606401610c84565b60006118b981612c9d565b5061019d80546001600160a01b0319166001600160a01b0392909216919091179055565b61019a54600160a01b900460ff16156119085760405162461bcd60e51b8152600401610c8490615570565b61019354610191546040516370a0823160e01b81523360048201526001600160a01b03909116906370a0823190602401602060405180830381865afa158015611955573d6000803e3d6000fd5b505050506040513d601f19601f82011682018060405250810190611979919061559a565b10156119da5760405162461bcd60e51b815260206004820152602a60248201527f50726f6d70744d6f6e73746572733a20696e73756666696369656e742045524360448201526932302062616c616e636560b01b6064820152608401610c84565b6001600160a01b0381166000908152610196602052604080822081516101608101909252805482908290611a0d90614e93565b80601f0160208091040260200160405190810160405280929190818152602001828054611a3990614e93565b8015611a865780601f10611a5b57610100808354040283529160200191611a86565b820191906000526020600020905b815481529060010190602001808311611a6957829003601f168201915b50505050508152602001600182018054611a9f90614e93565b80601f0160208091040260200160405190810160405280929190818152602001828054611acb90614e93565b8015611b185780601f10611aed57610100808354040283529160200191611b18565b820191906000526020600020905b815481529060010190602001808311611afb57829003601f168201915b50505050508152602001600282018054611b3190614e93565b80601f0160208091040260200160405190810160405280929190818152602001828054611b5d90614e93565b8015611baa5780601f10611b7f57610100808354040283529160200191611baa565b820191906000526020600020905b815481529060010190602001808311611b8d57829003601f168201915b5050505050815260200160038201805480602002602001604051908101604052809291908181526020016000905b82821015611c84578382906000526020600020018054611bf790614e93565b80601f0160208091040260200160405190810160405280929190818152602001828054611c2390614e93565b8015611c705780601f10611c4557610100808354040283529160200191611c70565b820191906000526020600020905b815481529060010190602001808311611c5357829003601f168201915b505050505081526020019060010190611bd8565b505050908252506004919091015463ffffffff8082166020840152640100000000820481166040840152600160401b820481166060840152600160601b82048116608080850191909152600160801b8304821660a0850152600160a01b8304821660c0850152600160c01b909204811660e09093019290925282015191925016600003611d645760405162461bcd60e51b815260206004820152602860248201527f50726f6d70744d6f6e73746572733a206d6f6e73746572206973206e6f742067604482015267195b995c985d195960c21b6064820152608401610c84565b6101985460018101611dc65760405162461bcd60e51b815260206004820152602560248201527f50726f6d70744d6f6e73746572733a20746f6b656e20494420697320746f6f206044820152646c6172676560d81b6064820152608401610c84565b6101988054600181018255600091909152825183916005027f3f539f465397ab387efa93a617e37005205c037386b5b474fcfac82f47f77f0d01908190611e0d90826153a7565b5060208201516001820190611e2290826153a7565b5060408201516002820190611e3790826153a7565b5060608201518051611e539160038401916020909101906141f8565b5060808201516004909101805460a084015160c085015160e08601516101008701516101208801516101409098015163ffffffff908116600160c01b0263ffffffff60c01b19998216600160a01b0263ffffffff60a01b19938316600160801b029390931667ffffffffffffffff60801b19948316600160601b0263ffffffff60601b19968416600160401b029690961667ffffffffffffffff60401b199784166401000000000267ffffffffffffffff199099169a84169a909a179790971795909516979097179290921716929092179190911793909316929092179091556001600160a01b0380851660008181526101996020908152604080832087905586835261019c825280832080546001600160a01b0319168517905592825261019b905220805460ff19166001179055610192546101935461019154611fa19490841693339316919061320a16565b611fab3382613264565b80336001600160a01b03167fc6c4718f17c6ea8362f0264119a62a3048495821d7fe897562ac287bb681811284604051611fe59190614e56565b60405180910390a3505050565b60006001600160a01b03821661205c5760405162461bcd60e51b815260206004820152602960248201527f4552433732313a2061646472657373207a65726f206973206e6f7420612076616044820152683634b21037bbb732b960b91b6064820152608401610c84565b506001600160a01b031660009081526068602052604090205490565b6000818152606760205260409020546001600160a01b031615158061209e575060001981145b6113a65760405162461bcd60e51b815260206004820152602660248201527f50726f6d70744d6f6e73746572733a206d6f6e7374657220646f6573206e6f7460448201526508195e1a5cdd60d21b6064820152608401610c84565b600061210481612c9d565b61019a54600160a01b900460ff161561212f5760405162461bcd60e51b8152600401610c8490615570565b61019a805460ff60a01b1916600160a01b1790557f62e78cea01bee320cd4e420270b5ea74000d11b0c9f74754ebdbfc544b05a2586114363390565b600082815260c960205260408120612183908361327e565b9392505050565b60009182526097602090815260408084206001600160a01b0393909316845291905290205460ff1690565b606060668054610b6690614e93565b60006121cf81612c9d565b50600091825261019c602052604090912080546001600160a01b0319166001600160a01b03909216919091179055565b6112c633838361328a565b805161019854606091908111156122775760405162461bcd60e51b815260206004820152602b60248201527f50726f6d70744d6f6e73746572733a20746f6b656e4964734c656e677468206960448201526a7320746f6f206c6172676560a81b6064820152608401610c84565b806001600160401b0381111561228f5761228f614464565b6040519080825280602002602001820160405280156122c857816020015b6122b561424e565b8152602001906001900390816122ad5790505b50915060005b81811015610f5b576101988482815181106122eb576122eb614ecd565b60200260200101518154811061230357612303614ecd565b90600052602060002090600502016040518061016001604052908160008201805461232d90614e93565b80601f016020809104026020016040519081016040528092919081815260200182805461235990614e93565b80156123a65780601f1061237b576101008083540402835291602001916123a6565b820191906000526020600020905b81548152906001019060200180831161238957829003601f168201915b505050505081526020016001820180546123bf90614e93565b80601f01602080910402602001604051908101604052809291908181526020018280546123eb90614e93565b80156124385780601f1061240d57610100808354040283529160200191612438565b820191906000526020600020905b81548152906001019060200180831161241b57829003601f168201915b5050505050815260200160028201805461245190614e93565b80601f016020809104026020016040519081016040528092919081815260200182805461247d90614e93565b80156124ca5780601f1061249f576101008083540402835291602001916124ca565b820191906000526020600020905b8154815290600101906020018083116124ad57829003601f168201915b5050505050815260200160038201805480602002602001604051908101604052809291908181526020016000905b828210156125a457838290600052602060002001805461251790614e93565b80601f016020809104026020016040519081016040528092919081815260200182805461254390614e93565b80156125905780601f1061256557610100808354040283529160200191612590565b820191906000526020600020905b81548152906001019060200180831161257357829003601f168201915b5050505050815260200190600101906124f8565b505050908252506004919091015463ffffffff8082166020840152640100000000820481166040840152600160401b820481166060840152600160601b820481166080840152600160801b8204811660a0840152600160a01b8204811660c0840152600160c01b9091041660e090910152835184908390811061262957612629614ecd565b60209081029190910101526001016122ce565b6126463383612d74565b6126625760405162461bcd60e51b8152600401610c849061548b565b61266e84848484613350565b50505050565b61267c61424e565b6001600160a01b0382166000908152610196602052604090819020815161016081019092528054829082906126b090614e93565b80601f01602080910402602001604051908101604052809291908181526020018280546126dc90614e93565b80156127295780601f106126fe57610100808354040283529160200191612729565b820191906000526020600020905b81548152906001019060200180831161270c57829003601f168201915b5050505050815260200160018201805461274290614e93565b80601f016020809104026020016040519081016040528092919081815260200182805461276e90614e93565b80156127bb5780601f10612790576101008083540402835291602001916127bb565b820191906000526020600020905b81548152906001019060200180831161279e57829003601f168201915b505050505081526020016002820180546127d490614e93565b80601f016020809104026020016040519081016040528092919081815260200182805461280090614e93565b801561284d5780601f106128225761010080835404028352916020019161284d565b820191906000526020600020905b81548152906001019060200180831161283057829003601f168201915b5050505050815260200160038201805480602002602001604051908101604052809291908181526020016000905b8282101561292757838290600052602060002001805461289a90614e93565b80601f01602080910402602001604051908101604052809291908181526020018280546128c690614e93565b80156129135780601f106128e857610100808354040283529160200191612913565b820191906000526020600020905b8154815290600101906020018083116128f657829003601f168201915b50505050508152602001906001019061287b565b505050908252506004919091015463ffffffff8082166020840152640100000000820481166040840152600160401b820481166060840152600160601b820481166080840152600160801b8204811660a0840152600160a01b8204811660c0840152600160c01b9091041660e09091015292915050565b60606129a982612ca7565b61019a5461019880546001600160a01b039092169163b688876c918591829081106129d6576129d6614ecd565b90600052602060002090600502016040518363ffffffff1660e01b8152600401612a019291906155b3565b600060405180830381865afa158015612a1e573d6000803e3d6000fd5b505050506040513d6000823e601f3d908101601f19168201604052610b2291908101906155cc565b600081815260c960205260408120610b2290613383565b600082815260976020526040902060010154612a7881612c9d565b610d258383612fe9565b6000612a8d81612c9d565b506001600160a01b039092166000908152610195602090815260408083209383529290522055565b6000612ac081612c9d565b61019280546001600160a01b038481166001600160a01b031983161790925516612ae73390565b604080516001600160a01b038481168252868116602083015292909216917fc791f304f706b4012579cd651a8a0d930c30d117f42ee74327000e3fc75bfbbc9101611049565b61019a546060906001600160a01b031663b2794520612b4a610b57565b6101946040518363ffffffff1660e01b8152600401612b6a929190615600565b600060405180830381865afa158015612b87573d6000803e3d6000fd5b505050506040513d6000823e601f3d908101601f19168201604052612baf91908101906155cc565b905090565b6000612bbf81612c9d565b61019180546001600160a01b038481166001600160a01b031983161790925516612be63390565b604080516001600160a01b038481168252868116602083015292909216917f5ebe54482b2a8120482902e3bfe9ca1a913e9987bcb1f18c974dae585132a9549101611049565b6000612c3781612c9d565b610193805490839055604080518281526020810185905233917f55cc83342b4c144a74960fdf0dfe1a7af4cbb77aaccb471b088d5fe0bdad1d4c9101611049565b60006001600160e01b03198216635a05180f60e01b1480610b225750610b228261338d565b6113a681336133b2565b6000818152606760205260409020546001600160a01b03166113a65760405162461bcd60e51b8152602060048201526018602482015277115490cdcc8c4e881a5b9d985b1a59081d1bdad95b88125160421b6044820152606401610c84565b600081815260696020526040902080546001600160a01b0319166001600160a01b0384169081179091558190612d3b8261184e565b6001600160a01b03167f8c5be1e5ebec7d5bd14f71427d1e84f3dd0314c0f7b2291e5b200ac8c7c3b92560405160405180910390a45050565b600080612d808361184e565b9050806001600160a01b0316846001600160a01b03161480612dc757506001600160a01b038082166000908152606a602090815260408083209388168352929052205460ff165b80612deb5750836001600160a01b0316612de084610be9565b6001600160a01b0316145b949350505050565b826001600160a01b0316612e068261184e565b6001600160a01b031614612e2c5760405162461bcd60e51b8152600401610c8490615625565b6001600160a01b038216612e8e5760405162461bcd60e51b8152602060048201526024808201527f4552433732313a207472616e7366657220746f20746865207a65726f206164646044820152637265737360e01b6064820152608401610c84565b612e9b838383600161340b565b826001600160a01b0316612eae8261184e565b6001600160a01b031614612ed45760405162461bcd60e51b8152600401610c8490615625565b600081815260696020908152604080832080546001600160a01b03199081169091556001600160a01b0387811680865260688552838620805460001901905590871680865283862080546001019055868652606790945282852080549092168417909155905184937fddf252ad1be2c89b69c2b068fc378daa952ba7f163c4a11628f55a4df523b3ef91a4505050565b612f6e8282613454565b600082815260c960205260409020610d2590826134da565b600261015f5403612fd95760405162461bcd60e51b815260206004820152601f60248201527f5265656e7472616e637947756172643a207265656e7472616e742063616c6c006044820152606401610c84565b600261015f55565b600161015f55565b612ff382826134ef565b600082815260c960205260409020610d259082613556565b60006112c681612c9d565b7f4910fdfa16fed3260ed0e7147f7cc6da11a60208b5b9406d12a635614ffd91435460ff161561304957610d258361356b565b826001600160a01b03166352d1902d6040518163ffffffff1660e01b8152600401602060405180830381865afa9250505080156130a3575060408051601f3d908101601f191682019092526130a09181019061559a565b60015b6131065760405162461bcd60e51b815260206004820152602e60248201527f45524331393637557067726164653a206e657720696d706c656d656e7461746960448201526d6f6e206973206e6f74205555505360901b6064820152608401610c84565b60008051602061589083398151915281146131755760405162461bcd60e51b815260206004820152602960248201527f45524331393637557067726164653a20756e737570706f727465642070726f786044820152681a58589b195555525160ba1b6064820152608401610c84565b50610d25838383613607565b600054610100900460ff166131a85760405162461bcd60e51b8152600401610c849061566a565b6112c6828261362c565b600054610100900460ff166131d95760405162461bcd60e51b8152600401610c849061566a565b565b600054610100900460ff166132025760405162461bcd60e51b8152600401610c849061566a565b6131d961366c565b604080516001600160a01b0385811660248301528416604482015260648082018490528251808303909101815260849091019091526020810180516001600160e01b03166323b872dd60e01b17905261266e908590613693565b6112c6828260405180602001604052806000815250613765565b60006121838383613798565b816001600160a01b0316836001600160a01b0316036132eb5760405162461bcd60e51b815260206004820152601960248201527f4552433732313a20617070726f766520746f2063616c6c6572000000000000006044820152606401610c84565b6001600160a01b038381166000818152606a6020908152604080832094871680845294825291829020805460ff191686151590811790915591519182527f17307eab39ab6107e8899845ad3d59bd9653f200f220920489ca2b5937696c319101611fe5565b61335b848484612df3565b613367848484846137c2565b61266e5760405162461bcd60e51b8152600401610c84906156b5565b6000610b22825490565b60006001600160e01b03198216637965db0b60e01b1480610b225750610b22826138c3565b6133bc828261218a565b6112c6576133c981613913565b6133d4836020613925565b6040516020016133e5929190615707565b60408051601f198184030181529082905262461bcd60e51b8252610c84916004016143ca565b6001600160a01b038416613428576134238383613ac0565b61266e565b6001600160a01b038316613440576134238483613b05565b61344a8483613b05565b6134238383613ac0565b61345e828261218a565b6112c65760008281526097602090815260408083206001600160a01b03851684529091529020805460ff191660011790556134963390565b6001600160a01b0316816001600160a01b0316837f2f8788117e7eff1d82e926ec794901d17c78024a50270940304540a733656f0d60405160405180910390a45050565b6000612183836001600160a01b038416613c43565b6134f9828261218a565b156112c65760008281526097602090815260408083206001600160a01b0385168085529252808320805460ff1916905551339285917ff6391f5c32d9c69d2a47ea670b442974b53935d1edc7fd64eb21e047a839171b9190a45050565b6000612183836001600160a01b038416613c92565b6001600160a01b0381163b6135d85760405162461bcd60e51b815260206004820152602d60248201527f455243313936373a206e657720696d706c656d656e746174696f6e206973206e60448201526c1bdd08184818dbdb9d1c9858dd609a1b6064820152608401610c84565b60008051602061589083398151915280546001600160a01b0319166001600160a01b0392909216919091179055565b61361083613d85565b60008251118061361d5750805b15610d255761266e8383613dc5565b600054610100900460ff166136535760405162461bcd60e51b8152600401610c849061566a565b606561365f83826153a7565b506066610d2582826153a7565b600054610100900460ff16612fe15760405162461bcd60e51b8152600401610c849061566a565b60006136e8826040518060400160405280602081526020017f5361666545524332303a206c6f772d6c6576656c2063616c6c206661696c6564815250856001600160a01b0316613eb99092919063ffffffff16565b805190915015610d255780806020019051810190613706919061577c565b610d255760405162461bcd60e51b815260206004820152602a60248201527f5361666545524332303a204552433230206f7065726174696f6e20646964206e6044820152691bdd081cdd58d8d9595960b21b6064820152608401610c84565b61376f8383613ec8565b61377c60008484846137c2565b610d255760405162461bcd60e51b8152600401610c84906156b5565b60008260000182815481106137af576137af614ecd565b9060005260206000200154905092915050565b60006001600160a01b0384163b156138b857604051630a85bd0160e11b81526001600160a01b0385169063150b7a0290613806903390899088908890600401615799565b6020604051808303816000875af1925050508015613841575060408051601f3d908101601f1916820190925261383e918101906157d6565b60015b61389e573d80801561386f576040519150601f19603f3d011682016040523d82523d6000602084013e613874565b606091505b5080516000036138965760405162461bcd60e51b8152600401610c84906156b5565b805181602001fd5b6001600160e01b031916630a85bd0160e11b149050612deb565b506001949350505050565b60006001600160e01b031982166380ac58cd60e01b14806138f457506001600160e01b03198216635b5e139f60e01b145b80610b2257506301ffc9a760e01b6001600160e01b0319831614610b22565b6060610b226001600160a01b03831660145b60606000613934836002615809565b61393f906002615820565b6001600160401b0381111561395657613956614464565b6040519080825280601f01601f191660200182016040528015613980576020820181803683370190505b509050600360fc1b8160008151811061399b5761399b614ecd565b60200101906001600160f81b031916908160001a905350600f60fb1b816001815181106139ca576139ca614ecd565b60200101906001600160f81b031916908160001a90535060006139ee846002615809565b6139f9906001615820565b90505b6001811115613a71576f181899199a1a9b1b9c1cb0b131b232b360811b85600f1660108110613a2d57613a2d614ecd565b1a60f81b828281518110613a4357613a43614ecd565b60200101906001600160f81b031916908160001a90535060049490941c93613a6a81615833565b90506139fc565b5083156121835760405162461bcd60e51b815260206004820181905260248201527f537472696e67733a20686578206c656e67746820696e73756666696369656e746044820152606401610c84565b6001600160a01b039091166000908152610197602081815260408084208054610195845282862087875284529185208290559282526001810183559183529091200155565b6001600160a01b0382166000908152610197602052604081208054613b2c9060019061584a565b81548110613b3c57613b3c614ecd565b60009182526020808320909101546001600160a01b038616835261019582526040808420868552909252912054909150828214613bae576001600160a01b038416600090815261019760205260409020805483919083908110613ba157613ba1614ecd565b6000918252602090912001555b6001600160a01b038416600090815261019760205260409020805480613bd657613bd661585d565b6000828152602080822083016000199081018390559092019092556001600160a01b03861682526101958152604080832086845290915281205581831461266e576001600160a01b0393909316600090815261019560209081526040808320938352929052209190915550565b6000818152600183016020526040812054613c8a57508154600181810184556000848152602080822090930184905584548482528286019093526040902091909155610b22565b506000610b22565b60008181526001830160205260408120548015613d7b576000613cb660018361584a565b8554909150600090613cca9060019061584a565b9050818114613d2f576000866000018281548110613cea57613cea614ecd565b9060005260206000200154905080876000018481548110613d0d57613d0d614ecd565b6000918252602080832090910192909255918252600188019052604090208390555b8554869080613d4057613d4061585d565b600190038181906000526020600020016000905590558560010160008681526020019081526020016000206000905560019350505050610b22565b6000915050610b22565b613d8e8161356b565b6040516001600160a01b038216907fbc7cd75a20ee27fd9adebab32041f755214dbc6bffa90cc0225b39da2e5c2d3b90600090a250565b60606001600160a01b0383163b613e2d5760405162461bcd60e51b815260206004820152602660248201527f416464726573733a2064656c65676174652063616c6c20746f206e6f6e2d636f6044820152651b9d1c9858dd60d21b6064820152608401610c84565b600080846001600160a01b031684604051613e489190615873565b600060405180830381855af49150503d8060008114613e83576040519150601f19603f3d011682016040523d82523d6000602084013e613e88565b606091505b5091509150613eb082826040518060600160405280602781526020016158b060279139614061565b95945050505050565b6060612deb848460008561407a565b6001600160a01b038216613f1e5760405162461bcd60e51b815260206004820181905260248201527f4552433732313a206d696e7420746f20746865207a65726f20616464726573736044820152606401610c84565b6000818152606760205260409020546001600160a01b031615613f835760405162461bcd60e51b815260206004820152601c60248201527f4552433732313a20746f6b656e20616c7265616479206d696e746564000000006044820152606401610c84565b613f9160008383600161340b565b6000818152606760205260409020546001600160a01b031615613ff65760405162461bcd60e51b815260206004820152601c60248201527f4552433732313a20746f6b656e20616c7265616479206d696e746564000000006044820152606401610c84565b6001600160a01b038216600081815260686020908152604080832080546001019055848352606790915280822080546001600160a01b0319168417905551839291907fddf252ad1be2c89b69c2b068fc378daa952ba7f163c4a11628f55a4df523b3ef908290a45050565b60608315614070575081612183565b6121838383614155565b6060824710156140db5760405162461bcd60e51b815260206004820152602660248201527f416464726573733a20696e73756666696369656e742062616c616e636520666f6044820152651c8818d85b1b60d21b6064820152608401610c84565b600080866001600160a01b031685876040516140f79190615873565b60006040518083038185875af1925050503d8060008114614134576040519150601f19603f3d011682016040523d82523d6000602084013e614139565b606091505b509150915061414a8783838761417f565b979650505050505050565b8151156141655781518083602001fd5b8060405162461bcd60e51b8152600401610c8491906143ca565b606083156141ee5782516000036141e7576001600160a01b0385163b6141e75760405162461bcd60e51b815260206004820152601d60248201527f416464726573733a2063616c6c20746f206e6f6e2d636f6e74726163740000006044820152606401610c84565b5081612deb565b612deb8383614155565b82805482825590600052602060002090810192821561423e579160200282015b8281111561423e578251829061422e90826153a7565b5091602001919060010190614218565b5061424a9291506142a9565b5090565b60408051610160810182526060808252602082018190529181018290528181019190915260006080820181905260a0820181905260c0820181905260e082018190526101008201819052610120820181905261014082015290565b8082111561424a5760006142bd82826142c6565b506001016142a9565b5080546142d290614e93565b6000825580601f106142e2575050565b601f0160209004906000526020600020908101906113a691905b8082111561424a57600081556001016142fc565b6001600160e01b0319811681146113a657600080fd5b60006020828403121561433857600080fd5b813561218381614310565b80356001600160a01b038116811461435a57600080fd5b919050565b60006020828403121561437157600080fd5b61218382614343565b60005b8381101561439557818101518382015260200161437d565b50506000910152565b600081518084526143b681602086016020860161437a565b601f01601f19169290920160200192915050565b602081526000612183602083018461439e565b6000602082840312156143ef57600080fd5b5035919050565b6000806040838503121561440957600080fd5b61441283614343565b946020939093013593505050565b6020808252825182820181905260009190848201906040850190845b818110156144585783518352928401929184019160010161443c565b50909695505050505050565b634e487b7160e01b600052604160045260246000fd5b60405161016081016001600160401b038111828210171561449d5761449d614464565b60405290565b60405161018081016001600160401b038111828210171561449d5761449d614464565b604051601f8201601f191681016001600160401b03811182821017156144ee576144ee614464565b604052919050565b60006001600160401b0382111561450f5761450f614464565b5060051b60200190565b6000602080838503121561452c57600080fd5b82356001600160401b0381111561454257600080fd5b8301601f8101851361455357600080fd5b8035614566614561826144f6565b6144c6565b81815260059190911b8201830190838101908783111561458557600080fd5b928401925b8284101561414a5761459b84614343565b8252928401929084019061458a565b600081518084526020808501808196508360051b8101915082860160005b858110156145f25782840389526145e084835161439e565b988501989350908401906001016145c8565b5091979650505050505050565b600081518084526020808501945080840160005b8381101561463557815163ffffffff1687529582019590820190600101614613565b509495945050505050565b60006020808301818452808551808352604092508286019150828160051b87010184880160005b8381101561477957603f198984030185528151610180815181865261468e8287018261439e565b915050888201518582038a8701526146a6828261439e565b91505087820151858203898701526146be828261439e565b915050606080830151868303828801526146d883826145aa565b925050506080808301516146f38288018263ffffffff169052565b505060a08281015163ffffffff9081169187019190915260c08084015182169087015260e08084015182169087015261010080840151821690870152610120808401518216908701526101408084015190911690860152610160918201518582039286019290925261476581836145ff565b968901969450505090860190600101614667565b509098975050505050505050565b60006001600160401b038211156147a0576147a0614464565b50601f01601f191660200190565b600082601f8301126147bf57600080fd5b81356147cd61456182614787565b8181528460208386010111156147e257600080fd5b816020850160208301376000918101602001919091529392505050565b60006020828403121561481157600080fd5b81356001600160401b0381111561482757600080fd5b612deb848285016147ae565b60008060006060848603121561484857600080fd5b61485184614343565b925061485f60208501614343565b9150604084013590509250925092565b6000806040838503121561488257600080fd5b8235915061489260208401614343565b90509250929050565b600082601f8301126148ac57600080fd5b813560206148bc614561836144f6565b82815260059290921b840181019181810190868411156148db57600080fd5b8286015b8481101561491a5780356001600160401b038111156148fe5760008081fd5b61490c8986838b01016147ae565b8452509183019183016148df565b509695505050505050565b63ffffffff811681146113a657600080fd5b803561435a81614925565b6000806040838503121561495557600080fd5b61495e83614343565b915060208301356001600160401b038082111561497a57600080fd5b90840190610160828703121561498f57600080fd5b61499761447a565b8235828111156149a657600080fd5b6149b2888286016147ae565b8252506020830135828111156149c757600080fd5b6149d3888286016147ae565b6020830152506040830135828111156149eb57600080fd5b6149f7888286016147ae565b604083015250606083013582811115614a0f57600080fd5b614a1b8882860161489b565b606083015250614a2d60808401614937565b6080820152614a3e60a08401614937565b60a0820152614a4f60c08401614937565b60c0820152614a6060e08401614937565b60e08201526101009150614a75828401614937565b828201526101209150614a89828401614937565b828201526101409150614a9d828401614937565b828201528093505050509250929050565b60008060408385031215614ac157600080fd5b614aca83614343565b915060208301356001600160401b03811115614ae557600080fd5b614af1858286016147ae565b9150509250929050565b60008060008060808587031215614b1157600080fd5b84356001600160401b03811115614b2757600080fd5b614b33878288016147ae565b945050614b4260208601614343565b925060408501359150614b5760608601614343565b905092959194509250565b600080600060608486031215614b7757600080fd5b614b8084614343565b95602085013595506040909401359392505050565b60008060408385031215614ba857600080fd5b50508035926020909101359150565b80151581146113a657600080fd5b60008060408385031215614bd857600080fd5b614be183614343565b91506020830135614bf181614bb7565b809150509250929050565b60006020808385031215614c0f57600080fd5b82356001600160401b03811115614c2557600080fd5b8301601f81018513614c3657600080fd5b8035614c44614561826144f6565b81815260059190911b82018301908381019087831115614c6357600080fd5b928401925b8284101561414a57833582529284019290840190614c68565b60006101608251818552614c978286018261439e565b91505060208301518482036020860152614cb1828261439e565b91505060408301518482036040860152614ccb828261439e565b91505060608301518482036060860152614ce582826145aa565b9150506080830151614cff608086018263ffffffff169052565b5060a0830151614d1760a086018263ffffffff169052565b5060c0830151614d2f60c086018263ffffffff169052565b5060e0830151614d4760e086018263ffffffff169052565b506101008381015163ffffffff81168683015250506101208381015163ffffffff81168683015250506101408381015163ffffffff8116868301525b5090949350505050565b6000602080830181845280855180835260408601915060408160051b870101925083870160005b82811015614de257603f19888603018452614dd0858351614c81565b94509285019290850190600101614db4565b5092979650505050505050565b60008060008060808587031215614e0557600080fd5b614e0e85614343565b9350614e1c60208601614343565b92506040850135915060608501356001600160401b03811115614e3e57600080fd5b614e4a878288016147ae565b91505092959194509250565b6020815260006121836020830184614c81565b60008060408385031215614e7c57600080fd5b614e8583614343565b915061489260208401614343565b600181811c90821680614ea757607f821691505b602082108103614ec757634e487b7160e01b600052602260045260246000fd5b50919050565b634e487b7160e01b600052603260045260246000fd5b60008154614ef081614e93565b808552602060018381168015614f0d5760018114614f2757614f55565b60ff1985168884015283151560051b880183019550614f55565b866000528260002060005b85811015614f4d5781548a8201860152908301908401614f32565b890184019650505b505050505092915050565b600081548084526020808501808196508360051b81019150856000528260002060005b858110156145f2578284038952614f9a8483614ee3565b98850198935060019182019101614f83565b6000610160808452614fc081850184614ee3565b90508381036020850152614fd78160018501614ee3565b90508381036040850152614fee8160028501614ee3565b905083810360608501526150058160038501614f60565b600484015463ffffffff8082166080880152602082901c811660a0880152604082901c811660c0880152606082901c811660e0880152919250906150576101008701828460801c1663ffffffff169052565b61506f6101208701828460a01c1663ffffffff169052565b614d836101408701828460c01c1663ffffffff169052565b6001600160a01b0383168152604060208201819052600090612deb90830184614fac565b600082601f8301126150bc57600080fd5b81516150ca61456182614787565b8181528460208386010111156150df57600080fd5b612deb82602083016020870161437a565b600082601f83011261510157600080fd5b81516020615111614561836144f6565b82815260059290921b8401810191818101908684111561513057600080fd5b8286015b8481101561491a5780516001600160401b038111156151535760008081fd5b6151618986838b01016150ab565b845250918301918301615134565b805161435a81614925565b600082601f83011261518b57600080fd5b8151602061519b614561836144f6565b82815260059290921b840181019181810190868411156151ba57600080fd5b8286015b8481101561491a5780516151d181614925565b83529183019183016151be565b6000602082840312156151f057600080fd5b81516001600160401b038082111561520757600080fd5b90830190610180828603121561521c57600080fd5b6152246144a3565b82518281111561523357600080fd5b61523f878286016150ab565b82525060208301518281111561525457600080fd5b615260878286016150ab565b60208301525060408301518281111561527857600080fd5b615284878286016150ab565b60408301525060608301518281111561529c57600080fd5b6152a8878286016150f0565b6060830152506152ba6080840161516f565b60808201526152cb60a0840161516f565b60a08201526152dc60c0840161516f565b60c08201526152ed60e0840161516f565b60e082015261010061530081850161516f565b9082015261012061531284820161516f565b9082015261014061532484820161516f565b90820152610160838101518381111561533c57600080fd5b6153488882870161517a565b918301919091525095945050505050565b601f821115610d2557600081815260208120601f850160051c810160208610156153805750805b601f850160051c820191505b8181101561539f5782815560010161538c565b505050505050565b81516001600160401b038111156153c0576153c0614464565b6153d4816153ce8454614e93565b84615359565b602080601f83116001811461540957600084156153f15750858301515b600019600386901b1c1916600185901b17855561539f565b600085815260208120601f198616915b8281101561543857888601518255948401946001909101908401615419565b50858210156154565787850151600019600388901b60f8161c191681555b5050505050600190811b01905550565b604081526000615479604083018561439e565b8281036020840152613eb0818561439e565b6020808252602d908201527f4552433732313a2063616c6c6572206973206e6f7420746f6b656e206f776e6560408201526c1c881bdc88185c1c1c9bdd9959609a1b606082015260800190565b6020808252602c908201527f46756e6374696f6e206d7573742062652063616c6c6564207468726f7567682060408201526b19195b1959d85d1958d85b1b60a21b606082015260800190565b6020808252602c908201527f46756e6374696f6e206d7573742062652063616c6c6564207468726f7567682060408201526b6163746976652070726f787960a01b606082015260800190565b60208082526010908201526f14185d5cd8589b194e881c185d5cd95960821b604082015260600190565b6000602082840312156155ac57600080fd5b5051919050565b828152604060208201526000612deb6040830184614fac565b6000602082840312156155de57600080fd5b81516001600160401b038111156155f457600080fd5b612deb848285016150ab565b604081526000615613604083018561439e565b8281036020840152613eb08185614ee3565b60208082526025908201527f4552433732313a207472616e736665722066726f6d20696e636f72726563742060408201526437bbb732b960d91b606082015260800190565b6020808252602b908201527f496e697469616c697a61626c653a20636f6e7472616374206973206e6f74206960408201526a6e697469616c697a696e6760a81b606082015260800190565b60208082526032908201527f4552433732313a207472616e7366657220746f206e6f6e20455243373231526560408201527131b2b4bb32b91034b6b83632b6b2b73a32b960711b606082015260800190565b7f416363657373436f6e74726f6c3a206163636f756e742000000000000000000081526000835161573f81601785016020880161437a565b7001034b99036b4b9b9b4b733903937b6329607d1b601791840191820152835161577081602884016020880161437a565b01602801949350505050565b60006020828403121561578e57600080fd5b815161218381614bb7565b6001600160a01b03858116825284166020820152604081018390526080606082018190526000906157cc9083018461439e565b9695505050505050565b6000602082840312156157e857600080fd5b815161218381614310565b634e487b7160e01b600052601160045260246000fd5b8082028115828204841417610b2257610b226157f3565b80820180821115610b2257610b226157f3565b600081615842576158426157f3565b506000190190565b81810381811115610b2257610b226157f3565b634e487b7160e01b600052603160045260246000fd5b6000825161588581846020870161437a565b919091019291505056fe360894a13ba1a3210667c828492db98dca3e2076cc3735a920a3ca505d382bbc416464726573733a206c6f772d6c6576656c2064656c65676174652063616c6c206661696c6564a26469706673582212208c5b8e1ab92acce6359366d9b6f38b41526dad05457cc24ad859ca12a433fd0f64736f6c63430008120033",
  "linkReferences": {},
  "deployedLinkReferences": {}
}