{
  "_format": "hh-sol-artifact-1",
  "contractName": "PromptMonsters",
  "sourceName": "contracts/prompt-monsters/PromptMonsters.sol",
  "abi": [
    {
      "inputs": [],
      "stateMutability": "nonpayable",
      "type": "constructor"
    },
    {
      "anonymous": false,
      "inputs": [
        {
          "indexed": false,
          "internalType": "address",
          "name": "previousAdmin",
          "type": "address"
        },
        {
          "indexed": false,
          "internalType": "address",
          "name": "newAdmin",
          "type": "address"
        }
      ],
      "name": "AdminChanged",
      "type": "event"
    },
    {
      "anonymous": false,
      "inputs": [
        {
          "indexed": true,
          "internalType": "address",
          "name": "owner",
          "type": "address"
        },
        {
          "indexed": true,
          "internalType": "address",
          "name": "approved",
          "type": "address"
        },
        {
          "indexed": true,
          "internalType": "uint256",
          "name": "tokenId",
          "type": "uint256"
        }
      ],
      "name": "Approval",
      "type": "event"
    },
    {
      "anonymous": false,
      "inputs": [
        {
          "indexed": true,
          "internalType": "address",
          "name": "owner",
          "type": "address"
        },
        {
          "indexed": true,
          "internalType": "address",
          "name": "operator",
          "type": "address"
        },
        {
          "indexed": false,
          "internalType": "bool",
          "name": "approved",
          "type": "bool"
        }
      ],
      "name": "ApprovalForAll",
      "type": "event"
    },
    {
      "anonymous": false,
      "inputs": [
        {
          "indexed": true,
          "internalType": "address",
          "name": "beacon",
          "type": "address"
        }
      ],
      "name": "BeaconUpgraded",
      "type": "event"
    },
    {
      "anonymous": false,
      "inputs": [
        {
          "indexed": false,
          "internalType": "uint8",
          "name": "version",
          "type": "uint8"
        }
      ],
      "name": "Initialized",
      "type": "event"
    },
    {
      "anonymous": false,
      "inputs": [
        {
          "indexed": true,
          "internalType": "bytes32",
          "name": "role",
          "type": "bytes32"
        },
        {
          "indexed": true,
          "internalType": "bytes32",
          "name": "previousAdminRole",
          "type": "bytes32"
        },
        {
          "indexed": true,
          "internalType": "bytes32",
          "name": "newAdminRole",
          "type": "bytes32"
        }
      ],
      "name": "RoleAdminChanged",
      "type": "event"
    },
    {
      "anonymous": false,
      "inputs": [
        {
          "indexed": true,
          "internalType": "bytes32",
          "name": "role",
          "type": "bytes32"
        },
        {
          "indexed": true,
          "internalType": "address",
          "name": "account",
          "type": "address"
        },
        {
          "indexed": true,
          "internalType": "address",
          "name": "sender",
          "type": "address"
        }
      ],
      "name": "RoleGranted",
      "type": "event"
    },
    {
      "anonymous": false,
      "inputs": [
        {
          "indexed": true,
          "internalType": "bytes32",
          "name": "role",
          "type": "bytes32"
        },
        {
          "indexed": true,
          "internalType": "address",
          "name": "account",
          "type": "address"
        },
        {
          "indexed": true,
          "internalType": "address",
          "name": "sender",
          "type": "address"
        }
      ],
      "name": "RoleRevoked",
      "type": "event"
    },
    {
      "anonymous": false,
      "inputs": [
        {
          "indexed": true,
          "internalType": "address",
          "name": "publisher",
          "type": "address"
        },
        {
          "indexed": false,
          "internalType": "string",
          "name": "oldValue",
          "type": "string"
        },
        {
          "indexed": false,
          "internalType": "string",
          "name": "newValue",
          "type": "string"
        }
      ],
      "name": "SetExternalLink",
      "type": "event"
    },
    {
      "anonymous": false,
      "inputs": [
        {
          "indexed": true,
          "internalType": "address",
          "name": "publisher",
          "type": "address"
        },
        {
          "indexed": false,
          "internalType": "address",
          "name": "oldValue",
          "type": "address"
        },
        {
          "indexed": false,
          "internalType": "address",
          "name": "newValue",
          "type": "address"
        }
      ],
      "name": "SetMchCoin",
      "type": "event"
    },
    {
      "anonymous": false,
      "inputs": [
        {
          "indexed": true,
          "internalType": "address",
          "name": "publisher",
          "type": "address"
        },
        {
          "indexed": false,
          "internalType": "uint256",
          "name": "oldValue",
          "type": "uint256"
        },
        {
          "indexed": false,
          "internalType": "uint256",
          "name": "newValue",
          "type": "uint256"
        }
      ],
      "name": "SetMintPrice",
      "type": "event"
    },
    {
      "anonymous": false,
      "inputs": [
        {
          "indexed": true,
          "internalType": "address",
          "name": "from",
          "type": "address"
        },
        {
          "indexed": true,
          "internalType": "address",
          "name": "to",
          "type": "address"
        },
        {
          "indexed": true,
          "internalType": "uint256",
          "name": "tokenId",
          "type": "uint256"
        }
      ],
      "name": "Transfer",
      "type": "event"
    },
    {
      "anonymous": false,
      "inputs": [
        {
          "indexed": true,
          "internalType": "address",
          "name": "implementation",
          "type": "address"
        }
      ],
      "name": "Upgraded",
      "type": "event"
    },
    {
      "inputs": [],
      "name": "DEFAULT_ADMIN_ROLE",
      "outputs": [
        {
          "internalType": "bytes32",
          "name": "",
          "type": "bytes32"
        }
      ],
      "stateMutability": "view",
      "type": "function"
    },
    {
      "inputs": [
        {
          "internalType": "address",
          "name": "to",
          "type": "address"
        },
        {
          "internalType": "uint256",
          "name": "tokenId",
          "type": "uint256"
        }
      ],
      "name": "approve",
      "outputs": [],
      "stateMutability": "nonpayable",
      "type": "function"
    },
    {
      "inputs": [
        {
          "internalType": "address",
          "name": "owner",
          "type": "address"
        }
      ],
      "name": "balanceOf",
      "outputs": [
        {
          "internalType": "uint256",
          "name": "",
          "type": "uint256"
        }
      ],
      "stateMutability": "view",
      "type": "function"
    },
    {
      "inputs": [
        {
          "internalType": "uint256",
          "name": "tokenId_",
          "type": "uint256"
        }
      ],
      "name": "burn",
      "outputs": [],
      "stateMutability": "nonpayable",
      "type": "function"
    },
    {
      "inputs": [],
      "name": "contractURI",
      "outputs": [
        {
          "internalType": "string",
          "name": "uri",
          "type": "string"
        }
      ],
      "stateMutability": "view",
      "type": "function"
    },
    {
      "inputs": [
        {
          "internalType": "address",
          "name": "user_",
          "type": "address"
        },
        {
          "components": [
            {
              "internalType": "string",
              "name": "name",
              "type": "string"
            },
            {
              "internalType": "string",
              "name": "flavor",
              "type": "string"
            },
            {
              "internalType": "string[]",
              "name": "skills",
              "type": "string[]"
            },
            {
              "internalType": "uint32",
              "name": "lv",
              "type": "uint32"
            },
            {
              "internalType": "uint32",
              "name": "hp",
              "type": "uint32"
            },
            {
              "internalType": "uint32",
              "name": "atk",
              "type": "uint32"
            },
            {
              "internalType": "uint32",
              "name": "def",
              "type": "uint32"
            },
            {
              "internalType": "uint32",
              "name": "inte",
              "type": "uint32"
            },
            {
              "internalType": "uint32",
              "name": "mgr",
              "type": "uint32"
            },
            {
              "internalType": "uint32",
              "name": "agl",
              "type": "uint32"
            },
            {
              "internalType": "uint16",
              "name": "maxSkills",
              "type": "uint16"
            },
            {
              "internalType": "uint16",
              "name": "maxSkillsSet",
              "type": "uint16"
            }
          ],
          "internalType": "struct IPromptMonsters.Monster",
          "name": "monster_",
          "type": "tuple"
        }
      ],
      "name": "generateMonster",
      "outputs": [],
      "stateMutability": "nonpayable",
      "type": "function"
    },
    {
      "inputs": [
        {
          "internalType": "uint256",
          "name": "tokenId",
          "type": "uint256"
        }
      ],
      "name": "getApproved",
      "outputs": [
        {
          "internalType": "address",
          "name": "",
          "type": "address"
        }
      ],
      "stateMutability": "view",
      "type": "function"
    },
    {
      "inputs": [],
      "name": "getMonsterHistory",
      "outputs": [
        {
          "components": [
            {
              "internalType": "string",
              "name": "name",
              "type": "string"
            },
            {
              "internalType": "string",
              "name": "flavor",
              "type": "string"
            },
            {
              "internalType": "string[]",
              "name": "skills",
              "type": "string[]"
            },
            {
              "internalType": "uint32",
              "name": "lv",
              "type": "uint32"
            },
            {
              "internalType": "uint32",
              "name": "hp",
              "type": "uint32"
            },
            {
              "internalType": "uint32",
              "name": "atk",
              "type": "uint32"
            },
            {
              "internalType": "uint32",
              "name": "def",
              "type": "uint32"
            },
            {
              "internalType": "uint32",
              "name": "inte",
              "type": "uint32"
            },
            {
              "internalType": "uint32",
              "name": "mgr",
              "type": "uint32"
            },
            {
              "internalType": "uint32",
              "name": "agl",
              "type": "uint32"
            },
            {
              "internalType": "uint16",
              "name": "maxSkills",
              "type": "uint16"
            },
            {
              "internalType": "uint16",
              "name": "maxSkillsSet",
              "type": "uint16"
            }
          ],
          "internalType": "struct IPromptMonsters.Monster",
          "name": "monsterHistory",
          "type": "tuple"
        }
      ],
      "stateMutability": "view",
      "type": "function"
    },
    {
      "inputs": [
        {
          "internalType": "uint256[]",
          "name": "tokenIds_",
          "type": "uint256[]"
        }
      ],
      "name": "getMonsters",
      "outputs": [
        {
          "components": [
            {
              "internalType": "string",
              "name": "name",
              "type": "string"
            },
            {
              "internalType": "string",
              "name": "flavor",
              "type": "string"
            },
            {
              "internalType": "string[]",
              "name": "skills",
              "type": "string[]"
            },
            {
              "internalType": "uint32",
              "name": "lv",
              "type": "uint32"
            },
            {
              "internalType": "uint32",
              "name": "hp",
              "type": "uint32"
            },
            {
              "internalType": "uint32",
              "name": "atk",
              "type": "uint32"
            },
            {
              "internalType": "uint32",
              "name": "def",
              "type": "uint32"
            },
            {
              "internalType": "uint32",
              "name": "inte",
              "type": "uint32"
            },
            {
              "internalType": "uint32",
              "name": "mgr",
              "type": "uint32"
            },
            {
              "internalType": "uint32",
              "name": "agl",
              "type": "uint32"
            },
            {
              "internalType": "uint16",
              "name": "maxSkills",
              "type": "uint16"
            },
            {
              "internalType": "uint16",
              "name": "maxSkillsSet",
              "type": "uint16"
            }
          ],
          "internalType": "struct IPromptMonsters.Monster[]",
          "name": "monsters",
          "type": "tuple[]"
        }
      ],
      "stateMutability": "view",
      "type": "function"
    },
    {
      "inputs": [],
      "name": "getMonstersTotalSupply",
      "outputs": [
        {
          "internalType": "uint256",
          "name": "totalSupply",
          "type": "uint256"
        }
      ],
      "stateMutability": "view",
      "type": "function"
    },
    {
      "inputs": [
        {
          "internalType": "address",
          "name": "owner",
          "type": "address"
        }
      ],
      "name": "getOwnerToTokenIds",
      "outputs": [
        {
          "internalType": "uint256[]",
          "name": "tokenIds",
          "type": "uint256[]"
        }
      ],
      "stateMutability": "view",
      "type": "function"
    },
    {
      "inputs": [
        {
          "internalType": "bytes32",
          "name": "role",
          "type": "bytes32"
        }
      ],
      "name": "getRoleAdmin",
      "outputs": [
        {
          "internalType": "bytes32",
          "name": "",
          "type": "bytes32"
        }
      ],
      "stateMutability": "view",
      "type": "function"
    },
    {
      "inputs": [
        {
          "internalType": "bytes32",
          "name": "role",
          "type": "bytes32"
        },
        {
          "internalType": "uint256",
          "name": "index",
          "type": "uint256"
        }
      ],
      "name": "getRoleMember",
      "outputs": [
        {
          "internalType": "address",
          "name": "",
          "type": "address"
        }
      ],
      "stateMutability": "view",
      "type": "function"
    },
    {
      "inputs": [
        {
          "internalType": "bytes32",
          "name": "role",
          "type": "bytes32"
        }
      ],
      "name": "getRoleMemberCount",
      "outputs": [
        {
          "internalType": "uint256",
          "name": "",
          "type": "uint256"
        }
      ],
      "stateMutability": "view",
      "type": "function"
    },
    {
      "inputs": [
        {
          "internalType": "bytes32",
          "name": "role",
          "type": "bytes32"
        },
        {
          "internalType": "address",
          "name": "account",
          "type": "address"
        }
      ],
      "name": "grantRole",
      "outputs": [],
      "stateMutability": "nonpayable",
      "type": "function"
    },
    {
      "inputs": [
        {
          "internalType": "bytes32",
          "name": "role",
          "type": "bytes32"
        },
        {
          "internalType": "address",
          "name": "account",
          "type": "address"
        }
      ],
      "name": "hasRole",
      "outputs": [
        {
          "internalType": "bool",
          "name": "",
          "type": "bool"
        }
      ],
      "stateMutability": "view",
      "type": "function"
    },
    {
      "inputs": [
        {
          "internalType": "string",
          "name": "externalLink_",
          "type": "string"
        },
        {
          "internalType": "address",
          "name": "mchCoinAddress",
          "type": "address"
        },
        {
          "internalType": "uint256",
          "name": "mintPrice_",
          "type": "uint256"
        }
      ],
      "name": "initialize",
      "outputs": [],
      "stateMutability": "nonpayable",
      "type": "function"
    },
    {
      "inputs": [
        {
          "internalType": "address",
          "name": "owner",
          "type": "address"
        },
        {
          "internalType": "address",
          "name": "operator",
          "type": "address"
        }
      ],
      "name": "isApprovedForAll",
      "outputs": [
        {
          "internalType": "bool",
          "name": "",
          "type": "bool"
        }
      ],
      "stateMutability": "view",
      "type": "function"
    },
    {
      "inputs": [],
      "name": "mchCoin",
      "outputs": [
        {
          "internalType": "contract IERC20",
          "name": "",
          "type": "address"
        }
      ],
      "stateMutability": "view",
      "type": "function"
    },
    {
      "inputs": [],
      "name": "mint",
      "outputs": [],
      "stateMutability": "nonpayable",
      "type": "function"
    },
    {
      "inputs": [],
      "name": "mintPrice",
      "outputs": [
        {
          "internalType": "uint256",
          "name": "",
          "type": "uint256"
        }
      ],
      "stateMutability": "view",
      "type": "function"
    },
    {
      "inputs": [],
      "name": "name",
      "outputs": [
        {
          "internalType": "string",
          "name": "",
          "type": "string"
        }
      ],
      "stateMutability": "view",
      "type": "function"
    },
    {
      "inputs": [
        {
          "internalType": "uint256",
          "name": "tokenId",
          "type": "uint256"
        }
      ],
      "name": "ownerOf",
      "outputs": [
        {
          "internalType": "address",
          "name": "",
          "type": "address"
        }
      ],
      "stateMutability": "view",
      "type": "function"
    },
    {
      "inputs": [],
      "name": "proxiableUUID",
      "outputs": [
        {
          "internalType": "bytes32",
          "name": "",
          "type": "bytes32"
        }
      ],
      "stateMutability": "view",
      "type": "function"
    },
    {
      "inputs": [
        {
          "internalType": "bytes32",
          "name": "role",
          "type": "bytes32"
        },
        {
          "internalType": "address",
          "name": "account",
          "type": "address"
        }
      ],
      "name": "renounceRole",
      "outputs": [],
      "stateMutability": "nonpayable",
      "type": "function"
    },
    {
      "inputs": [
        {
          "internalType": "bytes32",
          "name": "role",
          "type": "bytes32"
        },
        {
          "internalType": "address",
          "name": "account",
          "type": "address"
        }
      ],
      "name": "revokeRole",
      "outputs": [],
      "stateMutability": "nonpayable",
      "type": "function"
    },
    {
      "inputs": [
        {
          "internalType": "address",
          "name": "from",
          "type": "address"
        },
        {
          "internalType": "address",
          "name": "to",
          "type": "address"
        },
        {
          "internalType": "uint256",
          "name": "tokenId",
          "type": "uint256"
        }
      ],
      "name": "safeTransferFrom",
      "outputs": [],
      "stateMutability": "nonpayable",
      "type": "function"
    },
    {
      "inputs": [
        {
          "internalType": "address",
          "name": "from",
          "type": "address"
        },
        {
          "internalType": "address",
          "name": "to",
          "type": "address"
        },
        {
          "internalType": "uint256",
          "name": "tokenId",
          "type": "uint256"
        },
        {
          "internalType": "bytes",
          "name": "data",
          "type": "bytes"
        }
      ],
      "name": "safeTransferFrom",
      "outputs": [],
      "stateMutability": "nonpayable",
      "type": "function"
    },
    {
      "inputs": [
        {
          "internalType": "address",
          "name": "operator",
          "type": "address"
        },
        {
          "internalType": "bool",
          "name": "approved",
          "type": "bool"
        }
      ],
      "name": "setApprovalForAll",
      "outputs": [],
      "stateMutability": "nonpayable",
      "type": "function"
    },
    {
      "inputs": [
        {
          "internalType": "string",
          "name": "newState_",
          "type": "string"
        }
      ],
      "name": "setExternalLink",
      "outputs": [],
      "stateMutability": "nonpayable",
      "type": "function"
    },
    {
      "inputs": [
        {
          "internalType": "address",
          "name": "newState_",
          "type": "address"
        }
      ],
      "name": "setMchCoin",
      "outputs": [],
      "stateMutability": "nonpayable",
      "type": "function"
    },
    {
      "inputs": [
        {
          "internalType": "uint256",
          "name": "newState_",
          "type": "uint256"
        }
      ],
      "name": "setMintPrice",
      "outputs": [],
      "stateMutability": "nonpayable",
      "type": "function"
    },
    {
      "inputs": [
        {
          "internalType": "bytes4",
          "name": "interfaceId",
          "type": "bytes4"
        }
      ],
      "name": "supportsInterface",
      "outputs": [
        {
          "internalType": "bool",
          "name": "",
          "type": "bool"
        }
      ],
      "stateMutability": "view",
      "type": "function"
    },
    {
      "inputs": [],
      "name": "symbol",
      "outputs": [
        {
          "internalType": "string",
          "name": "",
          "type": "string"
        }
      ],
      "stateMutability": "view",
      "type": "function"
    },
    {
      "inputs": [
        {
          "internalType": "uint256",
          "name": "tokenId_",
          "type": "uint256"
        }
      ],
      "name": "tokenURI",
      "outputs": [
        {
          "internalType": "string",
          "name": "uri",
          "type": "string"
        }
      ],
      "stateMutability": "view",
      "type": "function"
    },
    {
      "inputs": [
        {
          "internalType": "address",
          "name": "from",
          "type": "address"
        },
        {
          "internalType": "address",
          "name": "to",
          "type": "address"
        },
        {
          "internalType": "uint256",
          "name": "tokenId",
          "type": "uint256"
        }
      ],
      "name": "transferFrom",
      "outputs": [],
      "stateMutability": "nonpayable",
      "type": "function"
    },
    {
      "inputs": [
        {
          "internalType": "address",
          "name": "newImplementation",
          "type": "address"
        }
      ],
      "name": "upgradeTo",
      "outputs": [],
      "stateMutability": "nonpayable",
      "type": "function"
    },
    {
      "inputs": [
        {
          "internalType": "address",
          "name": "newImplementation",
          "type": "address"
        },
        {
          "internalType": "bytes",
          "name": "data",
          "type": "bytes"
        }
      ],
      "name": "upgradeToAndCall",
      "outputs": [],
      "stateMutability": "payable",
      "type": "function"
    }
  ],
  "bytecode": "0x60a0604052306080523480156200001557600080fd5b506200002062000026565b620000e8565b600054610100900460ff1615620000935760405162461bcd60e51b815260206004820152602760248201527f496e697469616c697a61626c653a20636f6e747261637420697320696e697469604482015266616c697a696e6760c81b606482015260840160405180910390fd5b60005460ff9081161015620000e6576000805460ff191660ff9081179091556040519081527f7f26b83ff96e1f2b6a682f133852f6798a09c465da95921460cefb38474024989060200160405180910390a15b565b6080516158ef6200012060003960008181611161015281816111a101528181611283015281816112c3015261135201526158ef6000f3fe6080604052600436106102255760003560e01c80636352211e11610123578063b2664c2e116100ab578063e0921f851161006f578063e0921f851461066a578063e8a3d4851461068a578063e985e9c51461069f578063ef134f76146106e8578063f4a0a5281461070857600080fd5b8063b2664c2e146105bd578063b88d4fde146105ea578063c87b56dd1461060a578063ca15c8731461062a578063d547741f1461064a57600080fd5b80639010d07c116100f25780639010d07c1461053357806391d148541461055357806395d89b4114610573578063a217fddf14610588578063a22cb4651461059d57600080fd5b80636352211e146104ba5780636817c76c146104da57806370a08231146104f15780638322a2a61461051157600080fd5b80632d3aae3c116101b157806342842e0e1161017557806342842e0e1461043c57806342966c681461045c5780634f1ef2861461047c57806352d1902d1461048f57806352dd29d2146104a457600080fd5b80632d3aae3c1461039b5780632f2ff15d146103bb57806335b1f290146103db57806336568abe146103fc5780633659cfe61461041c57600080fd5b80630fd7efc4116101f85780630fd7efc4146102db5780631249c58b146103085780631f9179211461031d57806323b872dd1461033d578063248a9ca31461035d57600080fd5b806301ffc9a71461022a57806306fdde031461025f578063081812fc14610281578063095ea7b3146102b9575b600080fd5b34801561023657600080fd5b5061024a610245366004614221565b610728565b60405190151581526020015b60405180910390f35b34801561026b57600080fd5b50610274610739565b604051610256919061428e565b34801561028d57600080fd5b506102a161029c3660046142a1565b6107cb565b6040516001600160a01b039091168152602001610256565b3480156102c557600080fd5b506102d96102d43660046142d6565b6107f2565b005b3480156102e757600080fd5b506102fb6102f6366004614300565b61090c565b604051610256919061431b565b34801561031457600080fd5b506102d9610979565b34801561032957600080fd5b506102d961033836600461443d565b610f1b565b34801561034957600080fd5b506102d9610358366004614471565b61100f565b34801561036957600080fd5b5061038d6103783660046142a1565b60009081526097602052604090206001015490565b604051908152602001610256565b3480156103a757600080fd5b506102d96103b6366004614300565b611040565b3480156103c757600080fd5b506102d96103d63660046144ad565b6110b8565b3480156103e757600080fd5b50610191546102a1906001600160a01b031681565b34801561040857600080fd5b506102d96104173660046144ad565b6110dd565b34801561042857600080fd5b506102d9610437366004614300565b611157565b34801561044857600080fd5b506102d9610457366004614471565b611236565b34801561046857600080fd5b506102d96104773660046142a1565b611251565b6102d961048a3660046144d9565b611279565b34801561049b57600080fd5b5061038d611345565b3480156104b057600080fd5b506101975461038d565b3480156104c657600080fd5b506102a16104d53660046142a1565b6113f8565b3480156104e657600080fd5b5061038d6101925481565b3480156104fd57600080fd5b5061038d61050c366004614300565b611458565b34801561051d57600080fd5b506105266114de565b604051610256919061468c565b34801561053f57600080fd5b506102a161054e36600461469f565b61178b565b34801561055f57600080fd5b5061024a61056e3660046144ad565b6117aa565b34801561057f57600080fd5b506102746117d5565b34801561059457600080fd5b5061038d600081565b3480156105a957600080fd5b506102d96105b83660046146cf565b6117e4565b3480156105c957600080fd5b506105dd6105d8366004614729565b6117ef565b60405161025691906147b3565b3480156105f657600080fd5b506102d9610605366004614815565b611bc0565b34801561061657600080fd5b506102746106253660046142a1565b611bf8565b34801561063657600080fd5b5061038d6106453660046142a1565b611f3f565b34801561065657600080fd5b506102d96106653660046144ad565b611f56565b34801561067657600080fd5b506102d961068536600461487c565b611f7b565b34801561069657600080fd5b50610274612125565b3480156106ab57600080fd5b5061024a6106ba3660046148c2565b6001600160a01b039182166000908152606a6020908152604080832093909416825291909152205460ff1690565b3480156106f457600080fd5b506102d961070336600461499c565b6121ab565b34801561071457600080fd5b506102d96107233660046142a1565b61233d565b600061073382612389565b92915050565b60606065805461074890614b09565b80601f016020809104026020016040519081016040528092919081815260200182805461077490614b09565b80156107c15780601f10610796576101008083540402835291602001916107c1565b820191906000526020600020905b8154815290600101906020018083116107a457829003601f168201915b5050505050905090565b60006107d6826123ae565b506000908152606960205260409020546001600160a01b031690565b60006107fd826113f8565b9050806001600160a01b0316836001600160a01b03160361086f5760405162461bcd60e51b815260206004820152602160248201527f4552433732313a20617070726f76616c20746f2063757272656e74206f776e656044820152603960f91b60648201526084015b60405180910390fd5b336001600160a01b038216148061088b575061088b81336106ba565b6108fd5760405162461bcd60e51b815260206004820152603d60248201527f4552433732313a20617070726f76652063616c6c6572206973206e6f7420746f60448201527f6b656e206f776e6572206f7220617070726f76656420666f7220616c6c0000006064820152608401610866565b610907838361240d565b505050565b6001600160a01b0381166000908152610196602090815260409182902080548351818402810184019094528084526060939283018282801561096d57602002820191906000526020600020905b815481526020019060010190808311610959575b50505050509050919050565b61019254610191546040516370a0823160e01b81523360048201526001600160a01b03909116906370a0823190602401602060405180830381865afa1580156109c6573d6000803e3d6000fd5b505050506040513d601f19601f820116820180604052508101906109ea9190614b43565b1015610a4e5760405162461bcd60e51b815260206004820152602d60248201527f50726f6d70744d6f6e73746572733a20696e73756666696369656e74204d434860448201526c20436f696e2062616c616e636560981b6064820152608401610866565b336000908152610195602052604080822081516101808101909252805482908290610a7890614b09565b80601f0160208091040260200160405190810160405280929190818152602001828054610aa490614b09565b8015610af15780601f10610ac657610100808354040283529160200191610af1565b820191906000526020600020905b815481529060010190602001808311610ad457829003601f168201915b50505050508152602001600182018054610b0a90614b09565b80601f0160208091040260200160405190810160405280929190818152602001828054610b3690614b09565b8015610b835780601f10610b5857610100808354040283529160200191610b83565b820191906000526020600020905b815481529060010190602001808311610b6657829003601f168201915b5050505050815260200160028201805480602002602001604051908101604052809291908181526020016000905b82821015610c5d578382906000526020600020018054610bd090614b09565b80601f0160208091040260200160405190810160405280929190818152602001828054610bfc90614b09565b8015610c495780601f10610c1e57610100808354040283529160200191610c49565b820191906000526020600020905b815481529060010190602001808311610c2c57829003601f168201915b505050505081526020019060010190610bb1565b505050908252506003919091015463ffffffff8082166020840152600160201b820481166040840152600160401b82048116606080850191909152600160601b830482166080850152600160801b8304821660a0850152600160a01b8304821660c0850152600160c01b8304821660e085015261ffff600160e01b84048116610100860152600160f01b9093049092166101209093019290925282015191925016610d5b5760405162461bcd60e51b815260206004820152602860248201527f50726f6d70744d6f6e73746572733a206d6f6e73746572206973206e6f742067604482015267195b995c985d195960c21b6064820152608401610866565b610197805460018101825560009190915281518290600483027f3ea4d693734e62a1b4642df418cf4aae0e5ba336a2d6024b2d33585611a4e2eb01908190610da39082614baa565b5060208201516001820190610db89082614baa565b5060408201518051610dd49160028401916020909101906140e9565b5060608201516003919091018054608084015160a085015160c086015160e08701516101008801516101208901516101408a0151610160909a015163ffffffff998a1667ffffffffffffffff1990981697909717600160201b968a16969096029590951767ffffffffffffffff60401b1916600160401b9489169490940263ffffffff60601b191693909317600160601b928816929092029190911767ffffffffffffffff60801b1916600160801b9187169190910263ffffffff60a01b191617600160a01b918616919091021765ffffffffffff60c01b1916600160c01b9185169190910261ffff60e01b191617600160e01b61ffff95861602176001600160f01b0316600160f01b9490911693909302929092179091556101925461019154610f0d926001600160a01b0390911691309161247b16565b610f1733826124cd565b5050565b6000610f26816124e7565b60006101938054610f3690614b09565b80601f0160208091040260200160405190810160405280929190818152602001828054610f6290614b09565b8015610faf5780601f10610f8457610100808354040283529160200191610faf565b820191906000526020600020905b815481529060010190602001808311610f9257829003601f168201915b50505050509050826101939081610fc69190614baa565b50336001600160a01b03167ffceab947acbd3281d41fa085ba6d9503467fabd9e3d96e3ee0dbf6f8b04a9ca48285604051611002929190614c69565b60405180910390a2505050565b61101933826124f1565b6110355760405162461bcd60e51b815260040161086690614c8e565b610907838383612570565b600061104b816124e7565b61019180546001600160a01b038481166001600160a01b0319831617909255166110723390565b604080516001600160a01b038481168252868116602083015292909216917f2c217c2e9414efb6a460d9299510cd57f3b2a4c2ba5dd9881953334a2b10d11d9101611002565b6000828152609760205260409020600101546110d3816124e7565b61090783836126e1565b6001600160a01b038116331461114d5760405162461bcd60e51b815260206004820152602f60248201527f416363657373436f6e74726f6c3a2063616e206f6e6c792072656e6f756e636560448201526e103937b632b9903337b91039b2b63360891b6064820152608401610866565b610f178282612703565b6001600160a01b037f000000000000000000000000000000000000000000000000000000000000000016300361119f5760405162461bcd60e51b815260040161086690614cdb565b7f00000000000000000000000000000000000000000000000000000000000000006001600160a01b03166111e8600080516020615833833981519152546001600160a01b031690565b6001600160a01b03161461120e5760405162461bcd60e51b815260040161086690614d27565b61121781612725565b6040805160008082526020820190925261123391839190612730565b50565b61090783838360405180602001604052806000815250611bc0565b61125961289b565b61126e3361126860008061178b565b83611236565b611233600161015f55565b6001600160a01b037f00000000000000000000000000000000000000000000000000000000000000001630036112c15760405162461bcd60e51b815260040161086690614cdb565b7f00000000000000000000000000000000000000000000000000000000000000006001600160a01b031661130a600080516020615833833981519152546001600160a01b031690565b6001600160a01b0316146113305760405162461bcd60e51b815260040161086690614d27565b61133982612725565b610f1782826001612730565b6000306001600160a01b037f000000000000000000000000000000000000000000000000000000000000000016146113e55760405162461bcd60e51b815260206004820152603860248201527f555550535570677261646561626c653a206d757374206e6f742062652063616c60448201527f6c6564207468726f7567682064656c656761746563616c6c00000000000000006064820152608401610866565b5060008051602061583383398151915290565b6000818152606760205260408120546001600160a01b0316806107335760405162461bcd60e51b8152602060048201526018602482015277115490cdcc8c4e881a5b9d985b1a59081d1bdad95b88125160421b6044820152606401610866565b60006001600160a01b0382166114c25760405162461bcd60e51b815260206004820152602960248201527f4552433732313a2061646472657373207a65726f206973206e6f7420612076616044820152683634b21037bbb732b960b91b6064820152608401610866565b506001600160a01b031660009081526068602052604090205490565b6114e661413f565b3360009081526101956020526040908190208151610180810190925280548290829061151190614b09565b80601f016020809104026020016040519081016040528092919081815260200182805461153d90614b09565b801561158a5780601f1061155f5761010080835404028352916020019161158a565b820191906000526020600020905b81548152906001019060200180831161156d57829003601f168201915b505050505081526020016001820180546115a390614b09565b80601f01602080910402602001604051908101604052809291908181526020018280546115cf90614b09565b801561161c5780601f106115f15761010080835404028352916020019161161c565b820191906000526020600020905b8154815290600101906020018083116115ff57829003601f168201915b5050505050815260200160028201805480602002602001604051908101604052809291908181526020016000905b828210156116f657838290600052602060002001805461166990614b09565b80601f016020809104026020016040519081016040528092919081815260200182805461169590614b09565b80156116e25780601f106116b7576101008083540402835291602001916116e2565b820191906000526020600020905b8154815290600101906020018083116116c557829003601f168201915b50505050508152602001906001019061164a565b505050908252506003919091015463ffffffff8082166020840152600160201b820481166040840152600160401b820481166060840152600160601b820481166080840152600160801b8204811660a0840152600160a01b8204811660c0840152600160c01b82041660e083015261ffff600160e01b82048116610100840152600160f01b9091041661012090910152919050565b600082815260c9602052604081206117a390836128fe565b9392505050565b60009182526097602090815260408084206001600160a01b0393909316845291905290205460ff1690565b60606066805461074890614b09565b610f1733838361290a565b8051610197546060919081111561185c5760405162461bcd60e51b815260206004820152602b60248201527f50726f6d70744d6f6e73746572733a20746f6b656e4964734c656e677468206960448201526a7320746f6f206c6172676560a81b6064820152608401610866565b806001600160401b038111156118745761187461435f565b6040519080825280602002602001820160405280156118ad57816020015b61189a61413f565b8152602001906001900390816118925790505b50915060005b81811015611bb9576101978482815181106118d0576118d0614d73565b6020026020010151815481106118e8576118e8614d73565b90600052602060002090600402016040518061018001604052908160008201805461191290614b09565b80601f016020809104026020016040519081016040528092919081815260200182805461193e90614b09565b801561198b5780601f106119605761010080835404028352916020019161198b565b820191906000526020600020905b81548152906001019060200180831161196e57829003601f168201915b505050505081526020016001820180546119a490614b09565b80601f01602080910402602001604051908101604052809291908181526020018280546119d090614b09565b8015611a1d5780601f106119f257610100808354040283529160200191611a1d565b820191906000526020600020905b815481529060010190602001808311611a0057829003601f168201915b5050505050815260200160028201805480602002602001604051908101604052809291908181526020016000905b82821015611af7578382906000526020600020018054611a6a90614b09565b80601f0160208091040260200160405190810160405280929190818152602001828054611a9690614b09565b8015611ae35780601f10611ab857610100808354040283529160200191611ae3565b820191906000526020600020905b815481529060010190602001808311611ac657829003601f168201915b505050505081526020019060010190611a4b565b505050908252506003919091015463ffffffff8082166020840152600160201b820481166040840152600160401b820481166060840152600160601b820481166080840152600160801b8204811660a0840152600160a01b8204811660c0840152600160c01b82041660e083015261ffff600160e01b82048116610100840152600160f01b90910416610120909101528351849083908110611b9b57611b9b614d73565b60200260200101819052508080611bb190614d9f565b9150506118b3565b5050919050565b611bca33836124f1565b611be65760405162461bcd60e51b815260040161086690614c8e565b611bf2848484846129d8565b50505050565b6060611c03826123ae565b6000611c0e83612a0b565b905060006101978481548110611c2657611c26614d73565b906000526020600020906004020160405180610180016040529081600082018054611c5090614b09565b80601f0160208091040260200160405190810160405280929190818152602001828054611c7c90614b09565b8015611cc95780601f10611c9e57610100808354040283529160200191611cc9565b820191906000526020600020905b815481529060010190602001808311611cac57829003601f168201915b50505050508152602001600182018054611ce290614b09565b80601f0160208091040260200160405190810160405280929190818152602001828054611d0e90614b09565b8015611d5b5780601f10611d3057610100808354040283529160200191611d5b565b820191906000526020600020905b815481529060010190602001808311611d3e57829003601f168201915b5050505050815260200160028201805480602002602001604051908101604052809291908181526020016000905b82821015611e35578382906000526020600020018054611da890614b09565b80601f0160208091040260200160405190810160405280929190818152602001828054611dd490614b09565b8015611e215780601f10611df657610100808354040283529160200191611e21565b820191906000526020600020905b815481529060010190602001808311611e0457829003601f168201915b505050505081526020019060010190611d89565b505050908252506003919091015463ffffffff808216602080850191909152600160201b830482166040850152600160401b830482166060850152600160601b830482166080850152600160801b8304821660a0850152600160a01b8304821660c0850152600160c01b830490911660e084015261ffff600160e01b83048116610100850152600160f01b90920490911661012090920191909152815190820151919250600091611f109190611eea86612f23565b604051602001611efc93929190614dd4565b604051602081830303815290604052612f23565b9050600081604051602001611f259190614e97565b60408051601f198184030181529190529695505050505050565b600081815260c96020526040812061073390613075565b600082815260976020526040902060010154611f71816124e7565b6109078383612703565b600054610100900460ff1615808015611f9b5750600054600160ff909116105b80611fb55750303b158015611fb5575060005460ff166001145b6120185760405162461bcd60e51b815260206004820152602e60248201527f496e697469616c697a61626c653a20636f6e747261637420697320616c72656160448201526d191e481a5b9a5d1a585b1a5e995960921b6064820152608401610866565b6000805460ff19166001179055801561203b576000805461ff0019166101001790555b6120876040518060400160405280600f81526020016e50726f6d7074204d6f6e737465727360881b8152506040518060400160405280600381526020016226a7a760e91b81525061307f565b61208f6130b0565b6120976130b0565b61209f6130d9565b6120aa600033613108565b6101936120b78582614baa565b5061019180546001600160a01b0319166001600160a01b0385161790556101928290558015611bf2576000805461ff0019169055604051600181527f7f26b83ff96e1f2b6a682f133852f6798a09c465da95921460cefb38474024989060200160405180910390a150505050565b60606000612131610739565b90506000816040516020016121469190614edc565b6040516020818303038152906040529050600061217d838461216785612f23565b610193604051602001611efc9493929190615089565b90506000816040516020016121929190614e97565b60408051601f1981840301815291905295945050505050565b60006121b6816124e7565b6121be61289b565b6001600160a01b038316600090815261019560205260409020825183919081906121e89082614baa565b50602082015160018201906121fd9082614baa565b50604082015180516122199160028401916020909101906140e9565b5060608201516003919091018054608084015160a085015160c086015160e08701516101008801516101208901516101408a0151610160909a015163ffffffff998a1667ffffffffffffffff1990981697909717600160201b968a16969096029590951767ffffffffffffffff60401b1916600160401b9489169490940263ffffffff60601b191693909317600160601b928816929092029190911767ffffffffffffffff60801b1916600160801b9187169190910263ffffffff60a01b191617600160a01b918616919091021765ffffffffffff60c01b1916600160c01b949091169390930261ffff60e01b191692909217600160e01b61ffff94851602176001600160f01b0316600160f01b9390921692909202179055600161015f55505050565b6000612348816124e7565b610192805490839055604080518281526020810185905233917f55cc83342b4c144a74960fdf0dfe1a7af4cbb77aaccb471b088d5fe0bdad1d4c9101611002565b60006001600160e01b03198216635a05180f60e01b1480610733575061073382613112565b6000818152606760205260409020546001600160a01b03166112335760405162461bcd60e51b8152602060048201526018602482015277115490cdcc8c4e881a5b9d985b1a59081d1bdad95b88125160421b6044820152606401610866565b600081815260696020526040902080546001600160a01b0319166001600160a01b0384169081179091558190612442826113f8565b6001600160a01b03167f8c5be1e5ebec7d5bd14f71427d1e84f3dd0314c0f7b2291e5b200ac8c7c3b92560405160405180910390a45050565b604080516001600160a01b038416602482015260448082018490528251808303909101815260649091019091526020810180516001600160e01b031663a9059cbb60e01b179052610907908490613137565b610f17828260405180602001604052806000815250613209565b611233813361323c565b6000806124fd836113f8565b9050806001600160a01b0316846001600160a01b0316148061254457506001600160a01b038082166000908152606a602090815260408083209388168352929052205460ff165b806125685750836001600160a01b031661255d846107cb565b6001600160a01b0316145b949350505050565b826001600160a01b0316612583826113f8565b6001600160a01b0316146125a95760405162461bcd60e51b8152600401610866906151f6565b6001600160a01b03821661260b5760405162461bcd60e51b8152602060048201526024808201527f4552433732313a207472616e7366657220746f20746865207a65726f206164646044820152637265737360e01b6064820152608401610866565b6126188383836001613295565b826001600160a01b031661262b826113f8565b6001600160a01b0316146126515760405162461bcd60e51b8152600401610866906151f6565b600081815260696020908152604080832080546001600160a01b03199081169091556001600160a01b0387811680865260688552838620805460001901905590871680865283862080546001019055868652606790945282852080549092168417909155905184937fddf252ad1be2c89b69c2b068fc378daa952ba7f163c4a11628f55a4df523b3ef91a4505050565b6126eb82826132de565b600082815260c9602052604090206109079082613364565b61270d8282613379565b600082815260c96020526040902061090790826133e0565b6000610f17816124e7565b7f4910fdfa16fed3260ed0e7147f7cc6da11a60208b5b9406d12a635614ffd91435460ff161561276357610907836133f5565b826001600160a01b03166352d1902d6040518163ffffffff1660e01b8152600401602060405180830381865afa9250505080156127bd575060408051601f3d908101601f191682019092526127ba91810190614b43565b60015b6128205760405162461bcd60e51b815260206004820152602e60248201527f45524331393637557067726164653a206e657720696d706c656d656e7461746960448201526d6f6e206973206e6f74205555505360901b6064820152608401610866565b600080516020615833833981519152811461288f5760405162461bcd60e51b815260206004820152602960248201527f45524331393637557067726164653a20756e737570706f727465642070726f786044820152681a58589b195555525160ba1b6064820152608401610866565b50610907838383613491565b600261015f54036128ee5760405162461bcd60e51b815260206004820152601f60248201527f5265656e7472616e637947756172643a207265656e7472616e742063616c6c006044820152606401610866565b600261015f55565b600161015f55565b60006117a383836134b6565b816001600160a01b0316836001600160a01b03160361296b5760405162461bcd60e51b815260206004820152601960248201527f4552433732313a20617070726f766520746f2063616c6c6572000000000000006044820152606401610866565b6001600160a01b038381166000818152606a6020908152604080832094871680845294825291829020805460ff191686151590811790915591519182527f17307eab39ab6107e8899845ad3d59bd9653f200f220920489ca2b5937696c31910160405180910390a3505050565b6129e3848484612570565b6129ef848484846134e0565b611bf25760405162461bcd60e51b81526004016108669061523b565b606060006101978381548110612a2357612a23614d73565b906000526020600020906004020160405180610180016040529081600082018054612a4d90614b09565b80601f0160208091040260200160405190810160405280929190818152602001828054612a7990614b09565b8015612ac65780601f10612a9b57610100808354040283529160200191612ac6565b820191906000526020600020905b815481529060010190602001808311612aa957829003601f168201915b50505050508152602001600182018054612adf90614b09565b80601f0160208091040260200160405190810160405280929190818152602001828054612b0b90614b09565b8015612b585780601f10612b2d57610100808354040283529160200191612b58565b820191906000526020600020905b815481529060010190602001808311612b3b57829003601f168201915b5050505050815260200160028201805480602002602001604051908101604052809291908181526020016000905b82821015612c32578382906000526020600020018054612ba590614b09565b80601f0160208091040260200160405190810160405280929190818152602001828054612bd190614b09565b8015612c1e5780601f10612bf357610100808354040283529160200191612c1e565b820191906000526020600020905b815481529060010190602001808311612c0157829003601f168201915b505050505081526020019060010190612b86565b505050908252506003919091015463ffffffff8082166020840152600160201b820481166040840152600160401b820481166060840152600160601b820481166080840152600160801b8204811660a0840152600160a01b8204811660c0840152600160c01b82041660e083015261ffff600160e01b82048116610100840152600160f01b90910416610120909101528051909150612cd690600a906014906135e1565b612d14600a603c612cf0856060015163ffffffff16613620565b604051602001612d00919061528d565b6040516020818303038152906040526135e1565b612d3e600a6064612d2e866080015163ffffffff16613620565b604051602001612d0091906152b9565b612d68600a6078612d588760a0015163ffffffff16613620565b604051602001612d0091906152d8565b612d92600a608c612d828860c0015163ffffffff16613620565b604051602001612d009190615305565b612dbc600a60a0612dac8960e0015163ffffffff16613620565b604051602001612d009190615325565b612de7600a60b4612dd78a610100015163ffffffff16613620565b604051602001612d009190615345565b612e12600a60c8612e028b610120015163ffffffff16613620565b604051602001612d009190615365565b604051602001612e29989796959493929190615385565b60408051601f19818403018152919052915060f060005b826040015151811015612ef95761016083015161ffff16612e62826001615511565b11612ef95783612ec4600a612e78846014615524565b612e829086615511565b612e95612e90866001615511565b613620565b87604001518681518110612eab57612eab614d73565b6020026020010151604051602001612d0092919061553b565b604051602001612ed5929190615589565b60405160208183030381529060405293508080612ef190614d9f565b915050612e40565b5082604051602001612f0b91906155b8565b60405160208183030381529060405292505050919050565b60608151600003612f4257505060408051602081019091526000815290565b60006040518060600160405280604081526020016158536040913990506000600384516002612f719190615511565b612f7b91906155e2565b612f86906004615524565b6001600160401b03811115612f9d57612f9d61435f565b6040519080825280601f01601f191660200182016040528015612fc7576020820181803683370190505b509050600182016020820185865187015b80821015613033576003820191508151603f8160121c168501518453600184019350603f81600c1c168501518453600184019350603f8160061c168501518453600184019350603f8116850151845350600183019250612fd8565b505060038651066001811461304f57600281146130625761306a565b603d6001830353603d600283035361306a565b603d60018303535b509195945050505050565b6000610733825490565b600054610100900460ff166130a65760405162461bcd60e51b815260040161086690615604565b610f1782826136b2565b600054610100900460ff166130d75760405162461bcd60e51b815260040161086690615604565b565b600054610100900460ff166131005760405162461bcd60e51b815260040161086690615604565b6130d76136f2565b610f1782826126e1565b60006001600160e01b03198216637965db0b60e01b1480610733575061073382613719565b600061318c826040518060400160405280602081526020017f5361666545524332303a206c6f772d6c6576656c2063616c6c206661696c6564815250856001600160a01b03166137699092919063ffffffff16565b80519091501561090757808060200190518101906131aa919061564f565b6109075760405162461bcd60e51b815260206004820152602a60248201527f5361666545524332303a204552433230206f7065726174696f6e20646964206e6044820152691bdd081cdd58d8d9595960b21b6064820152608401610866565b6132138383613778565b61322060008484846134e0565b6109075760405162461bcd60e51b81526004016108669061523b565b61324682826117aa565b610f175761325381613911565b61325e836020613923565b60405160200161326f92919061566c565b60408051601f198184030181529082905262461bcd60e51b82526108669160040161428e565b6001600160a01b0384166132b2576132ad8383613abe565b611bf2565b6001600160a01b0383166132ca576132ad8483613b03565b6132d48483613b03565b6132ad8383613abe565b6132e882826117aa565b610f175760008281526097602090815260408083206001600160a01b03851684529091529020805460ff191660011790556133203390565b6001600160a01b0316816001600160a01b0316837f2f8788117e7eff1d82e926ec794901d17c78024a50270940304540a733656f0d60405160405180910390a45050565b60006117a3836001600160a01b038416613c08565b61338382826117aa565b15610f175760008281526097602090815260408083206001600160a01b0385168085529252808320805460ff1916905551339285917ff6391f5c32d9c69d2a47ea670b442974b53935d1edc7fd64eb21e047a839171b9190a45050565b60006117a3836001600160a01b038416613c57565b6001600160a01b0381163b6134625760405162461bcd60e51b815260206004820152602d60248201527f455243313936373a206e657720696d706c656d656e746174696f6e206973206e60448201526c1bdd08184818dbdb9d1c9858dd609a1b6064820152608401610866565b60008051602061583383398151915280546001600160a01b0319166001600160a01b0392909216919091179055565b61349a83613d4a565b6000825111806134a75750805b1561090757611bf28383613d8a565b60008260000182815481106134cd576134cd614d73565b9060005260206000200154905092915050565b60006001600160a01b0384163b156135d657604051630a85bd0160e11b81526001600160a01b0385169063150b7a02906135249033908990889088906004016156e1565b6020604051808303816000875af192505050801561355f575060408051601f3d908101601f1916820190925261355c9181019061571e565b60015b6135bc573d80801561358d576040519150601f19603f3d011682016040523d82523d6000602084013e613592565b606091505b5080516000036135b45760405162461bcd60e51b81526004016108669061523b565b805181602001fd5b6001600160e01b031916630a85bd0160e11b149050612568565b506001949350505050565b60606135ec84613620565b6135f584613620565b836040516020016136089392919061573b565b60405160208183030381529060405290509392505050565b6060600061362d83613e7e565b60010190506000816001600160401b0381111561364c5761364c61435f565b6040519080825280601f01601f191660200182016040528015613676576020820181803683370190505b5090508181016020015b600019016f181899199a1a9b1b9c1cb0b131b232b360811b600a86061a8153600a850494508461368057509392505050565b600054610100900460ff166136d95760405162461bcd60e51b815260040161086690615604565b60656136e58382614baa565b5060666109078282614baa565b600054610100900460ff166128f65760405162461bcd60e51b815260040161086690615604565b60006001600160e01b031982166380ac58cd60e01b148061374a57506001600160e01b03198216635b5e139f60e01b145b8061073357506301ffc9a760e01b6001600160e01b0319831614610733565b60606125688484600085613f56565b6001600160a01b0382166137ce5760405162461bcd60e51b815260206004820181905260248201527f4552433732313a206d696e7420746f20746865207a65726f20616464726573736044820152606401610866565b6000818152606760205260409020546001600160a01b0316156138335760405162461bcd60e51b815260206004820152601c60248201527f4552433732313a20746f6b656e20616c7265616479206d696e746564000000006044820152606401610866565b613841600083836001613295565b6000818152606760205260409020546001600160a01b0316156138a65760405162461bcd60e51b815260206004820152601c60248201527f4552433732313a20746f6b656e20616c7265616479206d696e746564000000006044820152606401610866565b6001600160a01b038216600081815260686020908152604080832080546001019055848352606790915280822080546001600160a01b0319168417905551839291907fddf252ad1be2c89b69c2b068fc378daa952ba7f163c4a11628f55a4df523b3ef908290a45050565b60606107336001600160a01b03831660145b60606000613932836002615524565b61393d906002615511565b6001600160401b038111156139545761395461435f565b6040519080825280601f01601f19166020018201604052801561397e576020820181803683370190505b509050600360fc1b8160008151811061399957613999614d73565b60200101906001600160f81b031916908160001a905350600f60fb1b816001815181106139c8576139c8614d73565b60200101906001600160f81b031916908160001a90535060006139ec846002615524565b6139f7906001615511565b90505b6001811115613a6f576f181899199a1a9b1b9c1cb0b131b232b360811b85600f1660108110613a2b57613a2b614d73565b1a60f81b828281518110613a4157613a41614d73565b60200101906001600160f81b031916908160001a90535060049490941c93613a68816157d6565b90506139fa565b5083156117a35760405162461bcd60e51b815260206004820181905260248201527f537472696e67733a20686578206c656e67746820696e73756666696369656e746044820152606401610866565b6001600160a01b039091166000908152610196602081815260408084208054610194845282862087875284529185208290559282526001810183559183529091200155565b6001600160a01b0382166000908152610196602052604081208054613b2a906001906157ed565b81548110613b3a57613b3a614d73565b90600052602060002001549050808214613ba1576001600160a01b0383166000818152610194602090815260408083208684528252808320549383526101969091529020805483919083908110613b9357613b93614d73565b600091825260209091200155505b6001600160a01b038316600090815261019660205260409020805480613bc957613bc9615800565b6000828152602080822083016000199081018390559092019092556001600160a01b039094168152610194845260408082209382529290935250812055565b6000818152600183016020526040812054613c4f57508154600181810184556000848152602080822090930184905584548482528286019093526040902091909155610733565b506000610733565b60008181526001830160205260408120548015613d40576000613c7b6001836157ed565b8554909150600090613c8f906001906157ed565b9050818114613cf4576000866000018281548110613caf57613caf614d73565b9060005260206000200154905080876000018481548110613cd257613cd2614d73565b6000918252602080832090910192909255918252600188019052604090208390555b8554869080613d0557613d05615800565b600190038181906000526020600020016000905590558560010160008681526020019081526020016000206000905560019350505050610733565b6000915050610733565b613d53816133f5565b6040516001600160a01b038216907fbc7cd75a20ee27fd9adebab32041f755214dbc6bffa90cc0225b39da2e5c2d3b90600090a250565b60606001600160a01b0383163b613df25760405162461bcd60e51b815260206004820152602660248201527f416464726573733a2064656c65676174652063616c6c20746f206e6f6e2d636f6044820152651b9d1c9858dd60d21b6064820152608401610866565b600080846001600160a01b031684604051613e0d9190615816565b600060405180830381855af49150503d8060008114613e48576040519150601f19603f3d011682016040523d82523d6000602084013e613e4d565b606091505b5091509150613e75828260405180606001604052806027815260200161589360279139614031565b95945050505050565b60008072184f03e93ff9f4daa797ed6e38ed64bf6a1f0160401b8310613ebd5772184f03e93ff9f4daa797ed6e38ed64bf6a1f0160401b830492506040015b6d04ee2d6d415b85acef81000000008310613ee9576d04ee2d6d415b85acef8100000000830492506020015b662386f26fc100008310613f0757662386f26fc10000830492506010015b6305f5e1008310613f1f576305f5e100830492506008015b6127108310613f3357612710830492506004015b60648310613f45576064830492506002015b600a83106107335760010192915050565b606082471015613fb75760405162461bcd60e51b815260206004820152602660248201527f416464726573733a20696e73756666696369656e742062616c616e636520666f6044820152651c8818d85b1b60d21b6064820152608401610866565b600080866001600160a01b03168587604051613fd39190615816565b60006040518083038185875af1925050503d8060008114614010576040519150601f19603f3d011682016040523d82523d6000602084013e614015565b606091505b50915091506140268783838761404a565b979650505050505050565b606083156140405750816117a3565b6117a383836140bf565b606083156140b95782516000036140b2576001600160a01b0385163b6140b25760405162461bcd60e51b815260206004820152601d60248201527f416464726573733a2063616c6c20746f206e6f6e2d636f6e74726163740000006044820152606401610866565b5081612568565b61256883835b8151156140cf5781518083602001fd5b8060405162461bcd60e51b8152600401610866919061428e565b82805482825590600052602060002090810192821561412f579160200282015b8281111561412f578251829061411f9082614baa565b5091602001919060010190614109565b5061413b9291506141a4565b5090565b604080516101808101825260608082526020820181905291810182905260009181018290526080810182905260a0810182905260c0810182905260e0810182905261010081018290526101208101829052610140810182905261016081019190915290565b8082111561413b5760006141b882826141c1565b506001016141a4565b5080546141cd90614b09565b6000825580601f106141dd575050565b601f01602090049060005260206000209081019061123391905b8082111561413b57600081556001016141f7565b6001600160e01b03198116811461123357600080fd5b60006020828403121561423357600080fd5b81356117a38161420b565b60005b83811015614259578181015183820152602001614241565b50506000910152565b6000815180845261427a81602086016020860161423e565b601f01601f19169290920160200192915050565b6020815260006117a36020830184614262565b6000602082840312156142b357600080fd5b5035919050565b80356001600160a01b03811681146142d157600080fd5b919050565b600080604083850312156142e957600080fd5b6142f2836142ba565b946020939093013593505050565b60006020828403121561431257600080fd5b6117a3826142ba565b6020808252825182820181905260009190848201906040850190845b8181101561435357835183529284019291840191600101614337565b50909695505050505050565b634e487b7160e01b600052604160045260246000fd5b60405161018081016001600160401b03811182821017156143985761439861435f565b60405290565b604051601f8201601f191681016001600160401b03811182821017156143c6576143c661435f565b604052919050565b600082601f8301126143df57600080fd5b81356001600160401b038111156143f8576143f861435f565b61440b601f8201601f191660200161439e565b81815284602083860101111561442057600080fd5b816020850160208301376000918101602001919091529392505050565b60006020828403121561444f57600080fd5b81356001600160401b0381111561446557600080fd5b612568848285016143ce565b60008060006060848603121561448657600080fd5b61448f846142ba565b925061449d602085016142ba565b9150604084013590509250925092565b600080604083850312156144c057600080fd5b823591506144d0602084016142ba565b90509250929050565b600080604083850312156144ec57600080fd5b6144f5836142ba565b915060208301356001600160401b0381111561451057600080fd5b61451c858286016143ce565b9150509250929050565b600081518084526020808501808196508360051b8101915082860160005b8581101561456e57828403895261455c848351614262565b98850198935090840190600101614544565b5091979650505050505050565b6000610180825181855261459182860182614262565b915050602083015184820360208601526145ab8282614262565b915050604083015184820360408601526145c58282614526565b91505060608301516145df606086018263ffffffff169052565b5060808301516145f7608086018263ffffffff169052565b5060a083015161460f60a086018263ffffffff169052565b5060c083015161462760c086018263ffffffff169052565b5060e083015161463f60e086018263ffffffff169052565b506101008381015163ffffffff9081169186019190915261012080850151909116908501526101408084015161ffff90811691860191909152610160938401511692909301919091525090565b6020815260006117a3602083018461457b565b600080604083850312156146b257600080fd5b50508035926020909101359150565b801515811461123357600080fd5b600080604083850312156146e257600080fd5b6146eb836142ba565b915060208301356146fb816146c1565b809150509250929050565b60006001600160401b0382111561471f5761471f61435f565b5060051b60200190565b6000602080838503121561473c57600080fd5b82356001600160401b0381111561475257600080fd5b8301601f8101851361476357600080fd5b803561477661477182614706565b61439e565b81815260059190911b8201830190838101908783111561479557600080fd5b928401925b828410156140265783358252928401929084019061479a565b6000602080830181845280855180835260408601915060408160051b870101925083870160005b8281101561480857603f198886030184526147f685835161457b565b945092850192908501906001016147da565b5092979650505050505050565b6000806000806080858703121561482b57600080fd5b614834856142ba565b9350614842602086016142ba565b92506040850135915060608501356001600160401b0381111561486457600080fd5b614870878288016143ce565b91505092959194509250565b60008060006060848603121561489157600080fd5b83356001600160401b038111156148a757600080fd5b6148b3868287016143ce565b93505061449d602085016142ba565b600080604083850312156148d557600080fd5b6148de836142ba565b91506144d0602084016142ba565b600082601f8301126148fd57600080fd5b8135602061490d61477183614706565b82815260059290921b8401810191818101908684111561492c57600080fd5b8286015b8481101561496b5780356001600160401b0381111561494f5760008081fd5b61495d8986838b01016143ce565b845250918301918301614930565b509695505050505050565b803563ffffffff811681146142d157600080fd5b803561ffff811681146142d157600080fd5b600080604083850312156149af57600080fd5b6149b8836142ba565b915060208301356001600160401b03808211156149d457600080fd5b9084019061018082870312156149e957600080fd5b6149f1614375565b823582811115614a0057600080fd5b614a0c888286016143ce565b825250602083013582811115614a2157600080fd5b614a2d888286016143ce565b602083015250604083013582811115614a4557600080fd5b614a51888286016148ec565b604083015250614a6360608401614976565b6060820152614a7460808401614976565b6080820152614a8560a08401614976565b60a0820152614a9660c08401614976565b60c0820152614aa760e08401614976565b60e08201526101009150614abc828401614976565b828201526101209150614ad0828401614976565b828201526101409150614ae482840161498a565b828201526101609150614af882840161498a565b828201528093505050509250929050565b600181811c90821680614b1d57607f821691505b602082108103614b3d57634e487b7160e01b600052602260045260246000fd5b50919050565b600060208284031215614b5557600080fd5b5051919050565b601f82111561090757600081815260208120601f850160051c81016020861015614b835750805b601f850160051c820191505b81811015614ba257828155600101614b8f565b505050505050565b81516001600160401b03811115614bc357614bc361435f565b614bd781614bd18454614b09565b84614b5c565b602080601f831160018114614c0c5760008415614bf45750858301515b600019600386901b1c1916600185901b178555614ba2565b600085815260208120601f198616915b82811015614c3b57888601518255948401946001909101908401614c1c565b5085821015614c595787850151600019600388901b60f8161c191681555b5050505050600190811b01905550565b604081526000614c7c6040830185614262565b8281036020840152613e758185614262565b6020808252602d908201527f4552433732313a2063616c6c6572206973206e6f7420746f6b656e206f776e6560408201526c1c881bdc88185c1c1c9bdd9959609a1b606082015260800190565b6020808252602c908201527f46756e6374696f6e206d7573742062652063616c6c6564207468726f7567682060408201526b19195b1959d85d1958d85b1b60a21b606082015260800190565b6020808252602c908201527f46756e6374696f6e206d7573742062652063616c6c6564207468726f7567682060408201526b6163746976652070726f787960a01b606082015260800190565b634e487b7160e01b600052603260045260246000fd5b634e487b7160e01b600052601160045260246000fd5b600060018201614db157614db1614d89565b5060010190565b60008151614dca81856020860161423e565b9290920192915050565b693d913730b6b2911d101160b11b81528351600090614dfa81600a85016020890161423e565b72111610113232b9b1b934b83a34b7b7111d101160691b600a918401918201528451614e2d81601d84016020890161423e565b7f222c2022696d616765223a2022646174613a696d6167652f7376672b786d6c3b601d92909101918201526618985cd94d8d0b60ca1b603d8201528351614e7b81604484016020880161423e565b61227d60f01b6044929091019182015260460195945050505050565b7f646174613a6170706c69636174696f6e2f6a736f6e3b6261736536342c000000815260008251614ecf81601d85016020870161423e565b91909101601d0192915050565b7f3c73766720786d6c6e733d27687474703a2f2f7777772e77332e6f72672f323081527f30302f73766727207072657365727665417370656374526174696f3d27784d6960208201527f6e594d696e206d656574272076696577426f783d27302030203335302033353060408201527f273e3c7374796c653e2e62617365207b2066696c6c3a2077686974653b20666f60608201527f6e742d66616d696c793a2073657269663b20666f6e742d73697a653a2032347060808201527f783b207d3c2f7374796c653e3c726563742077696474683d273130302527206860a08201527f65696768743d2731303025272066696c6c3d27626c61636b27202f3e3c74657860c08201527f7420783d273530252720793d273530252720636c6173733d276261736527206460e08201527f6f6d696e616e742d626173656c696e653d276d6964646c652720746578742d616101008201526e3731b437b91e93b6b4b2323632939f60891b610120820152600061012f8351615060818386016020880161423e565b830161507d8282016c1e17ba32bc3a1f1e17b9bb339f60991b9052565b61013c01949350505050565b693d913730b6b2911d101160b11b8152845160009060206150b082600a8601838b0161423e565b72111610113232b9b1b934b83a34b7b7111d101160691b600a9285019283015286516150e281601d8501848b0161423e565b7f2069732047656e657261746976652041492047616d652e222c2022696d616765601d93909101928301527f223a2022646174613a696d6167652f7376672b786d6c3b6261736536342c0000603d830152855161514581605b8501848a0161423e565b741116101132bc3a32b93730b62fb634b735911d101160591b605b9390910192830152845460709060009061517981614b09565b6001828116801561519157600181146151aa576151da565b60ff1984168887015282151583028801860194506151da565b8a6000528660002060005b848110156151d05781548a82018901529083019088016151b5565b5050858389010194505b505061227d60f01b835250506002019998505050505050505050565b60208082526025908201527f4552433732313a207472616e736665722066726f6d20696e636f72726563742060408201526437bbb732b960d91b606082015260800190565b60208082526032908201527f4552433732313a207472616e7366657220746f206e6f6e20455243373231526560408201527131b2b4bb32b91034b6b83632b6b2b73a32b960711b606082015260800190565b630262b1d160e51b8152600082516152ac81600485016020870161423e565b9190910160040192915050565b63024281d160e51b8152600082516152ac81600485016020870161423e565b64020aa259d160dd1b8152600082516152f881600585016020870161423e565b9190910160050192915050565b6402222a31d160dd1b8152600082516152f881600585016020870161423e565b64024a72a1d160dd1b8152600082516152f881600585016020870161423e565b64026a3a91d160dd1b8152600082516152f881600585016020870161423e565b64020a3a61d160dd1b8152600082516152f881600585016020870161423e565b7f3c73766720786d6c6e733d22687474703a2f2f7777772e77332e6f72672f323081527f30302f73766722207072657365727665417370656374526174696f3d22784d6960208201527f6e594d696e206d656574222076696577426f783d22302030203335302033353060408201527f223e3c7374796c653e2e62617365207b2066696c6c3a2077686974653b20666f60608201527f6e742d66616d696c793a2073657269663b20666f6e742d73697a653a2031347060808201527f783b207d3c2f7374796c653e3c726563742077696474683d223130302522206860a08201527f65696768743d2231303025222066696c6c3d22626c61636b22202f3e0000000060c0820152600089516154a18160dc850160208e0161423e565b8951908301906154b88160dc840160208e0161423e565b89519101906154ce8160dc840160208d0161423e565b6155016154fb6154f56154ef6154e960dc868801018e614db8565b8c614db8565b8a614db8565b88614db8565b86614db8565b9c9b505050505050505050505050565b8082018082111561073357610733614d89565b808202811582820484141761073357610733614d89565b6414dada5b1b60da1b81526000835161555b81600585016020880161423e565b6101d160f51b600591840191820152835161557d81600784016020880161423e565b01600701949350505050565b6000835161559b81846020880161423e565b8351908301906155af81836020880161423e565b01949350505050565b600082516155ca81846020870161423e565b651e17b9bb339f60d11b920191825250600601919050565b6000826155ff57634e487b7160e01b600052601260045260246000fd5b500490565b6020808252602b908201527f496e697469616c697a61626c653a20636f6e7472616374206973206e6f74206960408201526a6e697469616c697a696e6760a81b606082015260800190565b60006020828403121561566157600080fd5b81516117a3816146c1565b7f416363657373436f6e74726f6c3a206163636f756e74200000000000000000008152600083516156a481601785016020880161423e565b7001034b99036b4b9b9b4b733903937b6329607d1b60179184019182015283516156d581602884016020880161423e565b01602801949350505050565b6001600160a01b038581168252841660208201526040810183905260806060820181905260009061571490830184614262565b9695505050505050565b60006020828403121561573057600080fd5b81516117a38161420b565b681e3a32bc3a103c1e9160b91b8152835160009061576081600985016020890161423e565b6411103c9e9160d91b600991840191820152845161578581600e84016020890161423e565b6e111031b630b9b99e913130b9b2911f60891b600e929091019182015283516157b581601d84016020880161423e565b661e17ba32bc3a1f60c91b601d929091019182015260240195945050505050565b6000816157e5576157e5614d89565b506000190190565b8181038181111561073357610733614d89565b634e487b7160e01b600052603160045260246000fd5b6000825161582881846020870161423e565b919091019291505056fe360894a13ba1a3210667c828492db98dca3e2076cc3735a920a3ca505d382bbc4142434445464748494a4b4c4d4e4f505152535455565758595a6162636465666768696a6b6c6d6e6f707172737475767778797a303132333435363738392b2f416464726573733a206c6f772d6c6576656c2064656c65676174652063616c6c206661696c6564a2646970667358221220a54774cebce7119c400e5b4284a44e21d08b007094d02d0081a404054a298cbc64736f6c63430008120033",
  "linkReferences": {},
  "deployedLinkReferences": {}
}