{
  "_format": "hh-sol-artifact-1",
  "contractName": "PromptMonsters",
  "sourceName": "contracts/prompt-monsters/PromptMonsters.sol",
  "abi": [
    {
      "inputs": [],
      "stateMutability": "nonpayable",
      "type": "constructor"
    },
    {
      "anonymous": false,
      "inputs": [
        {
          "indexed": false,
          "internalType": "address",
          "name": "previousAdmin",
          "type": "address"
        },
        {
          "indexed": false,
          "internalType": "address",
          "name": "newAdmin",
          "type": "address"
        }
      ],
      "name": "AdminChanged",
      "type": "event"
    },
    {
      "anonymous": false,
      "inputs": [
        {
          "indexed": true,
          "internalType": "address",
          "name": "owner",
          "type": "address"
        },
        {
          "indexed": true,
          "internalType": "address",
          "name": "approved",
          "type": "address"
        },
        {
          "indexed": true,
          "internalType": "uint256",
          "name": "tokenId",
          "type": "uint256"
        }
      ],
      "name": "Approval",
      "type": "event"
    },
    {
      "anonymous": false,
      "inputs": [
        {
          "indexed": true,
          "internalType": "address",
          "name": "owner",
          "type": "address"
        },
        {
          "indexed": true,
          "internalType": "address",
          "name": "operator",
          "type": "address"
        },
        {
          "indexed": false,
          "internalType": "bool",
          "name": "approved",
          "type": "bool"
        }
      ],
      "name": "ApprovalForAll",
      "type": "event"
    },
    {
      "anonymous": false,
      "inputs": [
        {
          "indexed": true,
          "internalType": "address",
          "name": "beacon",
          "type": "address"
        }
      ],
      "name": "BeaconUpgraded",
      "type": "event"
    },
    {
      "anonymous": false,
      "inputs": [
        {
          "indexed": false,
          "internalType": "uint8",
          "name": "version",
          "type": "uint8"
        }
      ],
      "name": "Initialized",
      "type": "event"
    },
    {
      "anonymous": false,
      "inputs": [
        {
          "indexed": true,
          "internalType": "bytes32",
          "name": "role",
          "type": "bytes32"
        },
        {
          "indexed": true,
          "internalType": "bytes32",
          "name": "previousAdminRole",
          "type": "bytes32"
        },
        {
          "indexed": true,
          "internalType": "bytes32",
          "name": "newAdminRole",
          "type": "bytes32"
        }
      ],
      "name": "RoleAdminChanged",
      "type": "event"
    },
    {
      "anonymous": false,
      "inputs": [
        {
          "indexed": true,
          "internalType": "bytes32",
          "name": "role",
          "type": "bytes32"
        },
        {
          "indexed": true,
          "internalType": "address",
          "name": "account",
          "type": "address"
        },
        {
          "indexed": true,
          "internalType": "address",
          "name": "sender",
          "type": "address"
        }
      ],
      "name": "RoleGranted",
      "type": "event"
    },
    {
      "anonymous": false,
      "inputs": [
        {
          "indexed": true,
          "internalType": "bytes32",
          "name": "role",
          "type": "bytes32"
        },
        {
          "indexed": true,
          "internalType": "address",
          "name": "account",
          "type": "address"
        },
        {
          "indexed": true,
          "internalType": "address",
          "name": "sender",
          "type": "address"
        }
      ],
      "name": "RoleRevoked",
      "type": "event"
    },
    {
      "anonymous": false,
      "inputs": [
        {
          "indexed": true,
          "internalType": "address",
          "name": "publisher",
          "type": "address"
        },
        {
          "indexed": false,
          "internalType": "address",
          "name": "oldValue",
          "type": "address"
        },
        {
          "indexed": false,
          "internalType": "address",
          "name": "newValue",
          "type": "address"
        }
      ],
      "name": "SetErc20",
      "type": "event"
    },
    {
      "anonymous": false,
      "inputs": [
        {
          "indexed": true,
          "internalType": "address",
          "name": "publisher",
          "type": "address"
        },
        {
          "indexed": false,
          "internalType": "string",
          "name": "oldValue",
          "type": "string"
        },
        {
          "indexed": false,
          "internalType": "string",
          "name": "newValue",
          "type": "string"
        }
      ],
      "name": "SetExternalLink",
      "type": "event"
    },
    {
      "anonymous": false,
      "inputs": [
        {
          "indexed": true,
          "internalType": "address",
          "name": "publisher",
          "type": "address"
        },
        {
          "indexed": false,
          "internalType": "uint256",
          "name": "oldValue",
          "type": "uint256"
        },
        {
          "indexed": false,
          "internalType": "uint256",
          "name": "newValue",
          "type": "uint256"
        }
      ],
      "name": "SetMintPrice",
      "type": "event"
    },
    {
      "anonymous": false,
      "inputs": [
        {
          "indexed": true,
          "internalType": "address",
          "name": "publisher",
          "type": "address"
        },
        {
          "indexed": false,
          "internalType": "address",
          "name": "oldValue",
          "type": "address"
        },
        {
          "indexed": false,
          "internalType": "address",
          "name": "newValue",
          "type": "address"
        }
      ],
      "name": "SetPromptMonstersWallet",
      "type": "event"
    },
    {
      "anonymous": false,
      "inputs": [
        {
          "indexed": true,
          "internalType": "address",
          "name": "from",
          "type": "address"
        },
        {
          "indexed": true,
          "internalType": "address",
          "name": "to",
          "type": "address"
        },
        {
          "indexed": true,
          "internalType": "uint256",
          "name": "tokenId",
          "type": "uint256"
        }
      ],
      "name": "Transfer",
      "type": "event"
    },
    {
      "anonymous": false,
      "inputs": [
        {
          "indexed": true,
          "internalType": "address",
          "name": "implementation",
          "type": "address"
        }
      ],
      "name": "Upgraded",
      "type": "event"
    },
    {
      "inputs": [],
      "name": "DEFAULT_ADMIN_ROLE",
      "outputs": [
        {
          "internalType": "bytes32",
          "name": "",
          "type": "bytes32"
        }
      ],
      "stateMutability": "view",
      "type": "function"
    },
    {
      "inputs": [
        {
          "internalType": "address",
          "name": "to",
          "type": "address"
        },
        {
          "internalType": "uint256",
          "name": "tokenId",
          "type": "uint256"
        }
      ],
      "name": "approve",
      "outputs": [],
      "stateMutability": "nonpayable",
      "type": "function"
    },
    {
      "inputs": [
        {
          "internalType": "address",
          "name": "owner",
          "type": "address"
        }
      ],
      "name": "balanceOf",
      "outputs": [
        {
          "internalType": "uint256",
          "name": "",
          "type": "uint256"
        }
      ],
      "stateMutability": "view",
      "type": "function"
    },
    {
      "inputs": [
        {
          "internalType": "uint256",
          "name": "tokenId_",
          "type": "uint256"
        }
      ],
      "name": "burn",
      "outputs": [],
      "stateMutability": "nonpayable",
      "type": "function"
    },
    {
      "inputs": [
        {
          "internalType": "uint256",
          "name": "monsterId",
          "type": "uint256"
        }
      ],
      "name": "checkMonsterId",
      "outputs": [],
      "stateMutability": "view",
      "type": "function"
    },
    {
      "inputs": [],
      "name": "contractURI",
      "outputs": [
        {
          "internalType": "string",
          "name": "uri",
          "type": "string"
        }
      ],
      "stateMutability": "view",
      "type": "function"
    },
    {
      "inputs": [],
      "name": "erc20",
      "outputs": [
        {
          "internalType": "contract IERC20",
          "name": "",
          "type": "address"
        }
      ],
      "stateMutability": "view",
      "type": "function"
    },
    {
      "inputs": [
        {
          "internalType": "address",
          "name": "user_",
          "type": "address"
        },
        {
          "components": [
            {
              "internalType": "string",
              "name": "name",
              "type": "string"
            },
            {
              "internalType": "string",
              "name": "flavor",
              "type": "string"
            },
            {
              "internalType": "string[]",
              "name": "skills",
              "type": "string[]"
            },
            {
              "internalType": "uint32",
              "name": "lv",
              "type": "uint32"
            },
            {
              "internalType": "uint32",
              "name": "hp",
              "type": "uint32"
            },
            {
              "internalType": "uint32",
              "name": "atk",
              "type": "uint32"
            },
            {
              "internalType": "uint32",
              "name": "def",
              "type": "uint32"
            },
            {
              "internalType": "uint32",
              "name": "inte",
              "type": "uint32"
            },
            {
              "internalType": "uint32",
              "name": "mgr",
              "type": "uint32"
            },
            {
              "internalType": "uint32",
              "name": "agl",
              "type": "uint32"
            },
            {
              "internalType": "uint16",
              "name": "maxSkills",
              "type": "uint16"
            },
            {
              "internalType": "uint16",
              "name": "maxSkillsSet",
              "type": "uint16"
            }
          ],
          "internalType": "struct IPromptMonsters.Monster",
          "name": "monster_",
          "type": "tuple"
        }
      ],
      "name": "generateMonster",
      "outputs": [],
      "stateMutability": "nonpayable",
      "type": "function"
    },
    {
      "inputs": [
        {
          "internalType": "uint256",
          "name": "tokenId",
          "type": "uint256"
        }
      ],
      "name": "getApproved",
      "outputs": [
        {
          "internalType": "address",
          "name": "",
          "type": "address"
        }
      ],
      "stateMutability": "view",
      "type": "function"
    },
    {
      "inputs": [
        {
          "internalType": "address",
          "name": "user",
          "type": "address"
        }
      ],
      "name": "getMonsterHistory",
      "outputs": [
        {
          "components": [
            {
              "internalType": "string",
              "name": "name",
              "type": "string"
            },
            {
              "internalType": "string",
              "name": "flavor",
              "type": "string"
            },
            {
              "internalType": "string[]",
              "name": "skills",
              "type": "string[]"
            },
            {
              "internalType": "uint32",
              "name": "lv",
              "type": "uint32"
            },
            {
              "internalType": "uint32",
              "name": "hp",
              "type": "uint32"
            },
            {
              "internalType": "uint32",
              "name": "atk",
              "type": "uint32"
            },
            {
              "internalType": "uint32",
              "name": "def",
              "type": "uint32"
            },
            {
              "internalType": "uint32",
              "name": "inte",
              "type": "uint32"
            },
            {
              "internalType": "uint32",
              "name": "mgr",
              "type": "uint32"
            },
            {
              "internalType": "uint32",
              "name": "agl",
              "type": "uint32"
            },
            {
              "internalType": "uint16",
              "name": "maxSkills",
              "type": "uint16"
            },
            {
              "internalType": "uint16",
              "name": "maxSkillsSet",
              "type": "uint16"
            }
          ],
          "internalType": "struct IPromptMonsters.Monster",
          "name": "monsterHistory",
          "type": "tuple"
        }
      ],
      "stateMutability": "view",
      "type": "function"
    },
    {
      "inputs": [
        {
          "internalType": "uint256[]",
          "name": "tokenIds_",
          "type": "uint256[]"
        }
      ],
      "name": "getMonsters",
      "outputs": [
        {
          "components": [
            {
              "internalType": "string",
              "name": "name",
              "type": "string"
            },
            {
              "internalType": "string",
              "name": "flavor",
              "type": "string"
            },
            {
              "internalType": "string[]",
              "name": "skills",
              "type": "string[]"
            },
            {
              "internalType": "uint32",
              "name": "lv",
              "type": "uint32"
            },
            {
              "internalType": "uint32",
              "name": "hp",
              "type": "uint32"
            },
            {
              "internalType": "uint32",
              "name": "atk",
              "type": "uint32"
            },
            {
              "internalType": "uint32",
              "name": "def",
              "type": "uint32"
            },
            {
              "internalType": "uint32",
              "name": "inte",
              "type": "uint32"
            },
            {
              "internalType": "uint32",
              "name": "mgr",
              "type": "uint32"
            },
            {
              "internalType": "uint32",
              "name": "agl",
              "type": "uint32"
            },
            {
              "internalType": "uint16",
              "name": "maxSkills",
              "type": "uint16"
            },
            {
              "internalType": "uint16",
              "name": "maxSkillsSet",
              "type": "uint16"
            }
          ],
          "internalType": "struct IPromptMonsters.Monster[]",
          "name": "monsters",
          "type": "tuple[]"
        }
      ],
      "stateMutability": "view",
      "type": "function"
    },
    {
      "inputs": [],
      "name": "getMonstersTotalSupply",
      "outputs": [
        {
          "internalType": "uint256",
          "name": "totalSupply",
          "type": "uint256"
        }
      ],
      "stateMutability": "view",
      "type": "function"
    },
    {
      "inputs": [
        {
          "internalType": "address",
          "name": "owner",
          "type": "address"
        }
      ],
      "name": "getOwnerToTokenIds",
      "outputs": [
        {
          "internalType": "uint256[]",
          "name": "tokenIds",
          "type": "uint256[]"
        }
      ],
      "stateMutability": "view",
      "type": "function"
    },
    {
      "inputs": [
        {
          "internalType": "bytes32",
          "name": "role",
          "type": "bytes32"
        }
      ],
      "name": "getRoleAdmin",
      "outputs": [
        {
          "internalType": "bytes32",
          "name": "",
          "type": "bytes32"
        }
      ],
      "stateMutability": "view",
      "type": "function"
    },
    {
      "inputs": [
        {
          "internalType": "bytes32",
          "name": "role",
          "type": "bytes32"
        },
        {
          "internalType": "uint256",
          "name": "index",
          "type": "uint256"
        }
      ],
      "name": "getRoleMember",
      "outputs": [
        {
          "internalType": "address",
          "name": "",
          "type": "address"
        }
      ],
      "stateMutability": "view",
      "type": "function"
    },
    {
      "inputs": [
        {
          "internalType": "bytes32",
          "name": "role",
          "type": "bytes32"
        }
      ],
      "name": "getRoleMemberCount",
      "outputs": [
        {
          "internalType": "uint256",
          "name": "",
          "type": "uint256"
        }
      ],
      "stateMutability": "view",
      "type": "function"
    },
    {
      "inputs": [
        {
          "internalType": "bytes32",
          "name": "role",
          "type": "bytes32"
        },
        {
          "internalType": "address",
          "name": "account",
          "type": "address"
        }
      ],
      "name": "grantRole",
      "outputs": [],
      "stateMutability": "nonpayable",
      "type": "function"
    },
    {
      "inputs": [
        {
          "internalType": "bytes32",
          "name": "role",
          "type": "bytes32"
        },
        {
          "internalType": "address",
          "name": "account",
          "type": "address"
        }
      ],
      "name": "hasRole",
      "outputs": [
        {
          "internalType": "bool",
          "name": "",
          "type": "bool"
        }
      ],
      "stateMutability": "view",
      "type": "function"
    },
    {
      "inputs": [
        {
          "internalType": "string",
          "name": "externalLink_",
          "type": "string"
        },
        {
          "internalType": "address",
          "name": "erc20Address_",
          "type": "address"
        },
        {
          "internalType": "uint256",
          "name": "mintPrice_",
          "type": "uint256"
        },
        {
          "internalType": "address",
          "name": "promptMonstersWallet_",
          "type": "address"
        }
      ],
      "name": "initialize",
      "outputs": [],
      "stateMutability": "nonpayable",
      "type": "function"
    },
    {
      "inputs": [
        {
          "internalType": "address",
          "name": "owner",
          "type": "address"
        },
        {
          "internalType": "address",
          "name": "operator",
          "type": "address"
        }
      ],
      "name": "isApprovedForAll",
      "outputs": [
        {
          "internalType": "bool",
          "name": "",
          "type": "bool"
        }
      ],
      "stateMutability": "view",
      "type": "function"
    },
    {
      "inputs": [],
      "name": "mint",
      "outputs": [],
      "stateMutability": "nonpayable",
      "type": "function"
    },
    {
      "inputs": [],
      "name": "mintPrice",
      "outputs": [
        {
          "internalType": "uint256",
          "name": "",
          "type": "uint256"
        }
      ],
      "stateMutability": "view",
      "type": "function"
    },
    {
      "inputs": [],
      "name": "name",
      "outputs": [
        {
          "internalType": "string",
          "name": "",
          "type": "string"
        }
      ],
      "stateMutability": "view",
      "type": "function"
    },
    {
      "inputs": [
        {
          "internalType": "uint256",
          "name": "tokenId",
          "type": "uint256"
        }
      ],
      "name": "ownerOf",
      "outputs": [
        {
          "internalType": "address",
          "name": "",
          "type": "address"
        }
      ],
      "stateMutability": "view",
      "type": "function"
    },
    {
      "inputs": [],
      "name": "promptMonstersWallet",
      "outputs": [
        {
          "internalType": "address",
          "name": "",
          "type": "address"
        }
      ],
      "stateMutability": "view",
      "type": "function"
    },
    {
      "inputs": [],
      "name": "proxiableUUID",
      "outputs": [
        {
          "internalType": "bytes32",
          "name": "",
          "type": "bytes32"
        }
      ],
      "stateMutability": "view",
      "type": "function"
    },
    {
      "inputs": [
        {
          "internalType": "bytes32",
          "name": "role",
          "type": "bytes32"
        },
        {
          "internalType": "address",
          "name": "account",
          "type": "address"
        }
      ],
      "name": "renounceRole",
      "outputs": [],
      "stateMutability": "nonpayable",
      "type": "function"
    },
    {
      "inputs": [
        {
          "internalType": "bytes32",
          "name": "role",
          "type": "bytes32"
        },
        {
          "internalType": "address",
          "name": "account",
          "type": "address"
        }
      ],
      "name": "revokeRole",
      "outputs": [],
      "stateMutability": "nonpayable",
      "type": "function"
    },
    {
      "inputs": [
        {
          "internalType": "address",
          "name": "from",
          "type": "address"
        },
        {
          "internalType": "address",
          "name": "to",
          "type": "address"
        },
        {
          "internalType": "uint256",
          "name": "tokenId",
          "type": "uint256"
        }
      ],
      "name": "safeTransferFrom",
      "outputs": [],
      "stateMutability": "nonpayable",
      "type": "function"
    },
    {
      "inputs": [
        {
          "internalType": "address",
          "name": "from",
          "type": "address"
        },
        {
          "internalType": "address",
          "name": "to",
          "type": "address"
        },
        {
          "internalType": "uint256",
          "name": "tokenId",
          "type": "uint256"
        },
        {
          "internalType": "bytes",
          "name": "data",
          "type": "bytes"
        }
      ],
      "name": "safeTransferFrom",
      "outputs": [],
      "stateMutability": "nonpayable",
      "type": "function"
    },
    {
      "inputs": [
        {
          "internalType": "address",
          "name": "operator",
          "type": "address"
        },
        {
          "internalType": "bool",
          "name": "approved",
          "type": "bool"
        }
      ],
      "name": "setApprovalForAll",
      "outputs": [],
      "stateMutability": "nonpayable",
      "type": "function"
    },
    {
      "inputs": [
        {
          "internalType": "address",
          "name": "newState_",
          "type": "address"
        }
      ],
      "name": "setErc20",
      "outputs": [],
      "stateMutability": "nonpayable",
      "type": "function"
    },
    {
      "inputs": [
        {
          "internalType": "string",
          "name": "newState_",
          "type": "string"
        }
      ],
      "name": "setExternalLink",
      "outputs": [],
      "stateMutability": "nonpayable",
      "type": "function"
    },
    {
      "inputs": [
        {
          "internalType": "uint256",
          "name": "newState_",
          "type": "uint256"
        }
      ],
      "name": "setMintPrice",
      "outputs": [],
      "stateMutability": "nonpayable",
      "type": "function"
    },
    {
      "inputs": [
        {
          "internalType": "address",
          "name": "newState_",
          "type": "address"
        }
      ],
      "name": "setPromptMonstersWallet",
      "outputs": [],
      "stateMutability": "nonpayable",
      "type": "function"
    },
    {
      "inputs": [
        {
          "internalType": "bytes4",
          "name": "interfaceId",
          "type": "bytes4"
        }
      ],
      "name": "supportsInterface",
      "outputs": [
        {
          "internalType": "bool",
          "name": "",
          "type": "bool"
        }
      ],
      "stateMutability": "view",
      "type": "function"
    },
    {
      "inputs": [],
      "name": "symbol",
      "outputs": [
        {
          "internalType": "string",
          "name": "",
          "type": "string"
        }
      ],
      "stateMutability": "view",
      "type": "function"
    },
    {
      "inputs": [
        {
          "internalType": "uint256",
          "name": "tokenId_",
          "type": "uint256"
        }
      ],
      "name": "tokenURI",
      "outputs": [
        {
          "internalType": "string",
          "name": "uri",
          "type": "string"
        }
      ],
      "stateMutability": "view",
      "type": "function"
    },
    {
      "inputs": [
        {
          "internalType": "address",
          "name": "from",
          "type": "address"
        },
        {
          "internalType": "address",
          "name": "to",
          "type": "address"
        },
        {
          "internalType": "uint256",
          "name": "tokenId",
          "type": "uint256"
        }
      ],
      "name": "transferFrom",
      "outputs": [],
      "stateMutability": "nonpayable",
      "type": "function"
    },
    {
      "inputs": [
        {
          "internalType": "address",
          "name": "newImplementation",
          "type": "address"
        }
      ],
      "name": "upgradeTo",
      "outputs": [],
      "stateMutability": "nonpayable",
      "type": "function"
    },
    {
      "inputs": [
        {
          "internalType": "address",
          "name": "newImplementation",
          "type": "address"
        },
        {
          "internalType": "bytes",
          "name": "data",
          "type": "bytes"
        }
      ],
      "name": "upgradeToAndCall",
      "outputs": [],
      "stateMutability": "payable",
      "type": "function"
    }
  ],
  "bytecode": "0x60a0604052306080523480156200001557600080fd5b506200002062000026565b620000e8565b600054610100900460ff1615620000935760405162461bcd60e51b815260206004820152602760248201527f496e697469616c697a61626c653a20636f6e747261637420697320696e697469604482015266616c697a696e6760c81b606482015260840160405180910390fd5b60005460ff9081161015620000e6576000805460ff191660ff9081179091556040519081527f7f26b83ff96e1f2b6a682f133852f6798a09c465da95921460cefb38474024989060200160405180910390a15b565b608051615b1462000120600039600081816111df0152818161121f015281816113010152818161134101526113d00152615b146000f3fe6080604052600436106102465760003560e01c80636817c76c11610139578063b88d4fde116100b6578063e4bab3f51161007a578063e4bab3f5146106d7578063e8a3d485146106f7578063e985e9c51461070c578063ee9b80a414610755578063ef134f7614610775578063f4a0a5281461079557600080fd5b8063b88d4fde1461062a578063c4b64f261461064a578063c87b56dd14610677578063ca15c87314610697578063d547741f146106b757600080fd5b806391d14854116100fd57806391d148541461059357806395d89b41146105b3578063a217fddf146105c8578063a22cb465146105dd578063b2664c2e146105fd57600080fd5b80636817c76c146104fb57806370a0823114610512578063785e9e861461053257806383186465146105535780639010d07c1461057357600080fd5b80632f2ff15d116101c75780634f1ef2861161018b5780634f1ef2861461047d57806352d1902d1461049057806352dd29d2146104a557806355b09456146104bb5780636352211e146104db57600080fd5b80632f2ff15d146103dd57806336568abe146103fd5780633659cfe61461041d57806342842e0e1461043d57806342966c681461045d57600080fd5b80631249c58b1161020e5780631249c58b14610329578063145f0fa91461033e5780631f9179211461035f57806323b872dd1461037f578063248a9ca31461039f57600080fd5b806301ffc9a71461024b57806306fdde0314610280578063081812fc146102a2578063095ea7b3146102da5780630fd7efc4146102fc575b600080fd5b34801561025757600080fd5b5061026b610266366004614425565b6107b5565b60405190151581526020015b60405180910390f35b34801561028c57600080fd5b506102956107c6565b6040516102779190614492565b3480156102ae57600080fd5b506102c26102bd3660046144a5565b610858565b6040516001600160a01b039091168152602001610277565b3480156102e657600080fd5b506102fa6102f53660046144da565b61087f565b005b34801561030857600080fd5b5061031c610317366004614504565b610999565b604051610277919061451f565b34801561033557600080fd5b506102fa610a06565b34801561034a57600080fd5b50610192546102c2906001600160a01b031681565b34801561036b57600080fd5b506102fa61037a366004614641565b611011565b34801561038b57600080fd5b506102fa61039a366004614675565b611105565b3480156103ab57600080fd5b506103cf6103ba3660046144a5565b60009081526097602052604090206001015490565b604051908152602001610277565b3480156103e957600080fd5b506102fa6103f83660046146b1565b611136565b34801561040957600080fd5b506102fa6104183660046146b1565b61115b565b34801561042957600080fd5b506102fa610438366004614504565b6111d5565b34801561044957600080fd5b506102fa610458366004614675565b6112b4565b34801561046957600080fd5b506102fa6104783660046144a5565b6112cf565b6102fa61048b3660046146dd565b6112f7565b34801561049c57600080fd5b506103cf6113c3565b3480156104b157600080fd5b50610198546103cf565b3480156104c757600080fd5b506102fa6104d636600461472a565b611476565b3480156104e757600080fd5b506102c26104f63660046144a5565b611638565b34801561050757600080fd5b506103cf6101935481565b34801561051e57600080fd5b506103cf61052d366004614504565b611698565b34801561053e57600080fd5b50610191546102c2906001600160a01b031681565b34801561055f57600080fd5b506102fa61056e3660046144a5565b61171e565b34801561057f57600080fd5b506102c261058e366004614791565b61179f565b34801561059f57600080fd5b5061026b6105ae3660046146b1565b6117be565b3480156105bf57600080fd5b506102956117e9565b3480156105d457600080fd5b506103cf600081565b3480156105e957600080fd5b506102fa6105f83660046147c1565b6117f8565b34801561060957600080fd5b5061061d61061836600461481b565b611803565b6040516102779190614a0b565b34801561063657600080fd5b506102fa610645366004614a6d565b611bc9565b34801561065657600080fd5b5061066a610665366004614504565b611c01565b6040516102779190614ad4565b34801561068357600080fd5b506102956106923660046144a5565b611eb8565b3480156106a357600080fd5b506103cf6106b23660046144a5565b6121ff565b3480156106c357600080fd5b506102fa6106d23660046146b1565b612216565b3480156106e357600080fd5b506102fa6106f2366004614504565b61223b565b34801561070357600080fd5b506102956122b3565b34801561071857600080fd5b5061026b610727366004614ae7565b6001600160a01b039182166000908152606a6020908152604080832093909416825291909152205460ff1690565b34801561076157600080fd5b506102fa610770366004614504565b612339565b34801561078157600080fd5b506102fa610790366004614bc1565b6123b1565b3480156107a157600080fd5b506102fa6107b03660046144a5565b612543565b60006107c08261258f565b92915050565b6060606580546107d590614d2e565b80601f016020809104026020016040519081016040528092919081815260200182805461080190614d2e565b801561084e5780601f106108235761010080835404028352916020019161084e565b820191906000526020600020905b81548152906001019060200180831161083157829003601f168201915b5050505050905090565b6000610863826125b4565b506000908152606960205260409020546001600160a01b031690565b600061088a82611638565b9050806001600160a01b0316836001600160a01b0316036108fc5760405162461bcd60e51b815260206004820152602160248201527f4552433732313a20617070726f76616c20746f2063757272656e74206f776e656044820152603960f91b60648201526084015b60405180910390fd5b336001600160a01b038216148061091857506109188133610727565b61098a5760405162461bcd60e51b815260206004820152603d60248201527f4552433732313a20617070726f76652063616c6c6572206973206e6f7420746f60448201527f6b656e206f776e6572206f7220617070726f76656420666f7220616c6c00000060648201526084016108f3565b6109948383612613565b505050565b6001600160a01b038116600090815261019760209081526040918290208054835181840281018401909452808452606093928301828280156109fa57602002820191906000526020600020905b8154815260200190600101908083116109e6575b50505050509050919050565b61019354610191546040516370a0823160e01b81523360048201526001600160a01b03909116906370a0823190602401602060405180830381865afa158015610a53573d6000803e3d6000fd5b505050506040513d601f19601f82011682018060405250810190610a779190614d68565b1015610adb5760405162461bcd60e51b815260206004820152602d60248201527f50726f6d70744d6f6e73746572733a20696e73756666696369656e74204d434860448201526c20436f696e2062616c616e636560981b60648201526084016108f3565b336000908152610196602052604080822081516101808101909252805482908290610b0590614d2e565b80601f0160208091040260200160405190810160405280929190818152602001828054610b3190614d2e565b8015610b7e5780601f10610b5357610100808354040283529160200191610b7e565b820191906000526020600020905b815481529060010190602001808311610b6157829003601f168201915b50505050508152602001600182018054610b9790614d2e565b80601f0160208091040260200160405190810160405280929190818152602001828054610bc390614d2e565b8015610c105780601f10610be557610100808354040283529160200191610c10565b820191906000526020600020905b815481529060010190602001808311610bf357829003601f168201915b5050505050815260200160028201805480602002602001604051908101604052809291908181526020016000905b82821015610cea578382906000526020600020018054610c5d90614d2e565b80601f0160208091040260200160405190810160405280929190818152602001828054610c8990614d2e565b8015610cd65780601f10610cab57610100808354040283529160200191610cd6565b820191906000526020600020905b815481529060010190602001808311610cb957829003601f168201915b505050505081526020019060010190610c3e565b505050908252506003919091015463ffffffff8082166020840152600160201b820481166040840152600160401b82048116606080850191909152600160601b830482166080850152600160801b8304821660a0850152600160a01b8304821660c0850152600160c01b8304821660e085015261ffff600160e01b84048116610100860152600160f01b9093049092166101209093019290925282015191925016610de85760405162461bcd60e51b815260206004820152602860248201527f50726f6d70744d6f6e73746572733a206d6f6e73746572206973206e6f742067604482015267195b995c985d195960c21b60648201526084016108f3565b6101985460018101610e4a5760405162461bcd60e51b815260206004820152602560248201527f50726f6d70744d6f6e73746572733a20746f6b656e20494420697320746f6f206044820152646c6172676560d81b60648201526084016108f3565b6101988054600181018255600091909152825183916004027f3f539f465397ab387efa93a617e37005205c037386b5b474fcfac82f47f77f0d01908190610e919082614dcf565b5060208201516001820190610ea69082614dcf565b5060408201518051610ec29160028401916020909101906142ed565b5060608201516003919091018054608084015160a085015160c086015160e08701516101008801516101208901516101408a0151610160909a015163ffffffff998a1667ffffffffffffffff1990981697909717600160201b968a16969096029590951767ffffffffffffffff60401b1916600160401b9489169490940263ffffffff60601b191693909317600160601b928816929092029190911767ffffffffffffffff60801b1916600160801b9187169190910263ffffffff60a01b191617600160a01b918616919091021765ffffffffffff60c01b1916600160c01b9185169190910261ffff60e01b191617600160e01b61ffff95861602176001600160f01b0316600160f01b949091169390930292909217909155610192546101935461019154611003936001600160a01b039182169333939216919061268116565b61100d33826126db565b5050565b600061101c816126f5565b6000610194805461102c90614d2e565b80601f016020809104026020016040519081016040528092919081815260200182805461105890614d2e565b80156110a55780601f1061107a576101008083540402835291602001916110a5565b820191906000526020600020905b81548152906001019060200180831161108857829003601f168201915b505050505090508261019490816110bc9190614dcf565b50336001600160a01b03167ffceab947acbd3281d41fa085ba6d9503467fabd9e3d96e3ee0dbf6f8b04a9ca482856040516110f8929190614e8e565b60405180910390a2505050565b61110f33826126ff565b61112b5760405162461bcd60e51b81526004016108f390614eb3565b61099483838361277e565b600082815260976020526040902060010154611151816126f5565b61099483836128ef565b6001600160a01b03811633146111cb5760405162461bcd60e51b815260206004820152602f60248201527f416363657373436f6e74726f6c3a2063616e206f6e6c792072656e6f756e636560448201526e103937b632b9903337b91039b2b63360891b60648201526084016108f3565b61100d8282612911565b6001600160a01b037f000000000000000000000000000000000000000000000000000000000000000016300361121d5760405162461bcd60e51b81526004016108f390614f00565b7f00000000000000000000000000000000000000000000000000000000000000006001600160a01b0316611266600080516020615a58833981519152546001600160a01b031690565b6001600160a01b03161461128c5760405162461bcd60e51b81526004016108f390614f4c565b61129581612933565b604080516000808252602082019092526112b19183919061293e565b50565b61099483838360405180602001604052806000815250611bc9565b6112d7612aa9565b6112ec336112e660008061179f565b836112b4565b6112b1600161015f55565b6001600160a01b037f000000000000000000000000000000000000000000000000000000000000000016300361133f5760405162461bcd60e51b81526004016108f390614f00565b7f00000000000000000000000000000000000000000000000000000000000000006001600160a01b0316611388600080516020615a58833981519152546001600160a01b031690565b6001600160a01b0316146113ae5760405162461bcd60e51b81526004016108f390614f4c565b6113b782612933565b61100d8282600161293e565b6000306001600160a01b037f000000000000000000000000000000000000000000000000000000000000000016146114635760405162461bcd60e51b815260206004820152603860248201527f555550535570677261646561626c653a206d757374206e6f742062652063616c60448201527f6c6564207468726f7567682064656c656761746563616c6c000000000000000060648201526084016108f3565b50600080516020615a5883398151915290565b600054610100900460ff16158080156114965750600054600160ff909116105b806114b05750303b1580156114b0575060005460ff166001145b6115135760405162461bcd60e51b815260206004820152602e60248201527f496e697469616c697a61626c653a20636f6e747261637420697320616c72656160448201526d191e481a5b9a5d1a585b1a5e995960921b60648201526084016108f3565b6000805460ff191660011790558015611536576000805461ff0019166101001790555b6115826040518060400160405280600f81526020016e50726f6d7074204d6f6e737465727360881b8152506040518060400160405280600381526020016226a7a760e91b815250612b0c565b61158a612b3d565b611592612b3d565b61159a612b66565b6115a56000336128ef565b6101946115b28682614dcf565b5061019180546001600160a01b038087166001600160a01b0319928316179092556101938590556101928054928516929091169190911790558015611631576000805461ff0019169055604051600181527f7f26b83ff96e1f2b6a682f133852f6798a09c465da95921460cefb38474024989060200160405180910390a15b5050505050565b6000818152606760205260408120546001600160a01b0316806107c05760405162461bcd60e51b8152602060048201526018602482015277115490cdcc8c4e881a5b9d985b1a59081d1bdad95b88125160421b60448201526064016108f3565b60006001600160a01b0382166117025760405162461bcd60e51b815260206004820152602960248201527f4552433732313a2061646472657373207a65726f206973206e6f7420612076616044820152683634b21037bbb732b960b91b60648201526084016108f3565b506001600160a01b031660009081526068602052604090205490565b6000818152606760205260409020546001600160a01b0316151580611744575060001981145b6112b15760405162461bcd60e51b815260206004820152602660248201527f50726f6d70744d6f6e73746572733a206d6f6e7374657220646f6573206e6f7460448201526508195e1a5cdd60d21b60648201526084016108f3565b600082815260c9602052604081206117b79083612b95565b9392505050565b60009182526097602090815260408084206001600160a01b0393909316845291905290205460ff1690565b6060606680546107d590614d2e565b61100d338383612ba1565b805161019854606091908111156118705760405162461bcd60e51b815260206004820152602b60248201527f50726f6d70744d6f6e73746572733a20746f6b656e4964734c656e677468206960448201526a7320746f6f206c6172676560a81b60648201526084016108f3565b806001600160401b0381111561188857611888614563565b6040519080825280602002602001820160405280156118c157816020015b6118ae614343565b8152602001906001900390816118a65790505b50915060005b81811015611bc2576101988482815181106118e4576118e4614f98565b6020026020010151815481106118fc576118fc614f98565b90600052602060002090600402016040518061018001604052908160008201805461192690614d2e565b80601f016020809104026020016040519081016040528092919081815260200182805461195290614d2e565b801561199f5780601f106119745761010080835404028352916020019161199f565b820191906000526020600020905b81548152906001019060200180831161198257829003601f168201915b505050505081526020016001820180546119b890614d2e565b80601f01602080910402602001604051908101604052809291908181526020018280546119e490614d2e565b8015611a315780601f10611a0657610100808354040283529160200191611a31565b820191906000526020600020905b815481529060010190602001808311611a1457829003601f168201915b5050505050815260200160028201805480602002602001604051908101604052809291908181526020016000905b82821015611b0b578382906000526020600020018054611a7e90614d2e565b80601f0160208091040260200160405190810160405280929190818152602001828054611aaa90614d2e565b8015611af75780601f10611acc57610100808354040283529160200191611af7565b820191906000526020600020905b815481529060010190602001808311611ada57829003601f168201915b505050505081526020019060010190611a5f565b505050908252506003919091015463ffffffff8082166020840152600160201b820481166040840152600160401b820481166060840152600160601b820481166080840152600160801b8204811660a0840152600160a01b8204811660c0840152600160c01b82041660e083015261ffff600160e01b82048116610100840152600160f01b90910416610120909101528351849083908110611baf57611baf614f98565b60209081029190910101526001016118c7565b5050919050565b611bd333836126ff565b611bef5760405162461bcd60e51b81526004016108f390614eb3565b611bfb84848484612c6f565b50505050565b611c09614343565b6001600160a01b038216600090815261019660205260409081902081516101808101909252805482908290611c3d90614d2e565b80601f0160208091040260200160405190810160405280929190818152602001828054611c6990614d2e565b8015611cb65780601f10611c8b57610100808354040283529160200191611cb6565b820191906000526020600020905b815481529060010190602001808311611c9957829003601f168201915b50505050508152602001600182018054611ccf90614d2e565b80601f0160208091040260200160405190810160405280929190818152602001828054611cfb90614d2e565b8015611d485780601f10611d1d57610100808354040283529160200191611d48565b820191906000526020600020905b815481529060010190602001808311611d2b57829003601f168201915b5050505050815260200160028201805480602002602001604051908101604052809291908181526020016000905b82821015611e22578382906000526020600020018054611d9590614d2e565b80601f0160208091040260200160405190810160405280929190818152602001828054611dc190614d2e565b8015611e0e5780601f10611de357610100808354040283529160200191611e0e565b820191906000526020600020905b815481529060010190602001808311611df157829003601f168201915b505050505081526020019060010190611d76565b505050908252506003919091015463ffffffff8082166020840152600160201b820481166040840152600160401b820481166060840152600160601b820481166080840152600160801b8204811660a0840152600160a01b8204811660c0840152600160c01b82041660e083015261ffff600160e01b82048116610100840152600160f01b909104166101209091015292915050565b6060611ec3826125b4565b6000611ece83612ca2565b905060006101988481548110611ee657611ee6614f98565b906000526020600020906004020160405180610180016040529081600082018054611f1090614d2e565b80601f0160208091040260200160405190810160405280929190818152602001828054611f3c90614d2e565b8015611f895780601f10611f5e57610100808354040283529160200191611f89565b820191906000526020600020905b815481529060010190602001808311611f6c57829003601f168201915b50505050508152602001600182018054611fa290614d2e565b80601f0160208091040260200160405190810160405280929190818152602001828054611fce90614d2e565b801561201b5780601f10611ff05761010080835404028352916020019161201b565b820191906000526020600020905b815481529060010190602001808311611ffe57829003601f168201915b5050505050815260200160028201805480602002602001604051908101604052809291908181526020016000905b828210156120f557838290600052602060002001805461206890614d2e565b80601f016020809104026020016040519081016040528092919081815260200182805461209490614d2e565b80156120e15780601f106120b6576101008083540402835291602001916120e1565b820191906000526020600020905b8154815290600101906020018083116120c457829003601f168201915b505050505081526020019060010190612049565b505050908252506003919091015463ffffffff808216602080850191909152600160201b830482166040850152600160401b830482166060850152600160601b830482166080850152600160801b8304821660a0850152600160a01b8304821660c0850152600160c01b830490911660e084015261ffff600160e01b83048116610100850152600160f01b909204909116610120909201919091528151908201519192506000916121d091906121aa866131ba565b6040516020016121bc93929190614fca565b6040516020818303038152906040526131ba565b90506000816040516020016121e5919061508d565b60408051601f198184030181529190529695505050505050565b600081815260c9602052604081206107c09061330c565b600082815260976020526040902060010154612231816126f5565b6109948383612911565b6000612246816126f5565b61019280546001600160a01b038481166001600160a01b03198316179092551661226d3390565b604080516001600160a01b038481168252868116602083015292909216917fc791f304f706b4012579cd651a8a0d930c30d117f42ee74327000e3fc75bfbbc91016110f8565b606060006122bf6107c6565b90506000816040516020016122d491906150d2565b6040516020818303038152906040529050600061230b83846122f5856131ba565b6101946040516020016121bc949392919061527f565b9050600081604051602001612320919061508d565b60408051601f1981840301815291905295945050505050565b6000612344816126f5565b61019180546001600160a01b038481166001600160a01b03198316179092551661236b3390565b604080516001600160a01b038481168252868116602083015292909216917f5ebe54482b2a8120482902e3bfe9ca1a913e9987bcb1f18c974dae585132a95491016110f8565b60006123bc816126f5565b6123c4612aa9565b6001600160a01b038316600090815261019660205260409020825183919081906123ee9082614dcf565b50602082015160018201906124039082614dcf565b506040820151805161241f9160028401916020909101906142ed565b5060608201516003919091018054608084015160a085015160c086015160e08701516101008801516101208901516101408a0151610160909a015163ffffffff998a1667ffffffffffffffff1990981697909717600160201b968a16969096029590951767ffffffffffffffff60401b1916600160401b9489169490940263ffffffff60601b191693909317600160601b928816929092029190911767ffffffffffffffff60801b1916600160801b9187169190910263ffffffff60a01b191617600160a01b918616919091021765ffffffffffff60c01b1916600160c01b949091169390930261ffff60e01b191692909217600160e01b61ffff94851602176001600160f01b0316600160f01b9390921692909202179055600161015f55505050565b600061254e816126f5565b610193805490839055604080518281526020810185905233917f55cc83342b4c144a74960fdf0dfe1a7af4cbb77aaccb471b088d5fe0bdad1d4c91016110f8565b60006001600160e01b03198216635a05180f60e01b14806107c057506107c082613316565b6000818152606760205260409020546001600160a01b03166112b15760405162461bcd60e51b8152602060048201526018602482015277115490cdcc8c4e881a5b9d985b1a59081d1bdad95b88125160421b60448201526064016108f3565b600081815260696020526040902080546001600160a01b0319166001600160a01b038416908117909155819061264882611638565b6001600160a01b03167f8c5be1e5ebec7d5bd14f71427d1e84f3dd0314c0f7b2291e5b200ac8c7c3b92560405160405180910390a45050565b604080516001600160a01b0385811660248301528416604482015260648082018490528251808303909101815260849091019091526020810180516001600160e01b03166323b872dd60e01b179052611bfb90859061333b565b61100d82826040518060200160405280600081525061340d565b6112b18133613440565b60008061270b83611638565b9050806001600160a01b0316846001600160a01b0316148061275257506001600160a01b038082166000908152606a602090815260408083209388168352929052205460ff165b806127765750836001600160a01b031661276b84610858565b6001600160a01b0316145b949350505050565b826001600160a01b031661279182611638565b6001600160a01b0316146127b75760405162461bcd60e51b81526004016108f3906153ec565b6001600160a01b0382166128195760405162461bcd60e51b8152602060048201526024808201527f4552433732313a207472616e7366657220746f20746865207a65726f206164646044820152637265737360e01b60648201526084016108f3565b6128268383836001613499565b826001600160a01b031661283982611638565b6001600160a01b03161461285f5760405162461bcd60e51b81526004016108f3906153ec565b600081815260696020908152604080832080546001600160a01b03199081169091556001600160a01b0387811680865260688552838620805460001901905590871680865283862080546001019055868652606790945282852080549092168417909155905184937fddf252ad1be2c89b69c2b068fc378daa952ba7f163c4a11628f55a4df523b3ef91a4505050565b6128f982826134e2565b600082815260c9602052604090206109949082613568565b61291b828261357d565b600082815260c96020526040902061099490826135e4565b600061100d816126f5565b7f4910fdfa16fed3260ed0e7147f7cc6da11a60208b5b9406d12a635614ffd91435460ff161561297157610994836135f9565b826001600160a01b03166352d1902d6040518163ffffffff1660e01b8152600401602060405180830381865afa9250505080156129cb575060408051601f3d908101601f191682019092526129c891810190614d68565b60015b612a2e5760405162461bcd60e51b815260206004820152602e60248201527f45524331393637557067726164653a206e657720696d706c656d656e7461746960448201526d6f6e206973206e6f74205555505360901b60648201526084016108f3565b600080516020615a588339815191528114612a9d5760405162461bcd60e51b815260206004820152602960248201527f45524331393637557067726164653a20756e737570706f727465642070726f786044820152681a58589b195555525160ba1b60648201526084016108f3565b50610994838383613695565b600261015f5403612afc5760405162461bcd60e51b815260206004820152601f60248201527f5265656e7472616e637947756172643a207265656e7472616e742063616c6c0060448201526064016108f3565b600261015f55565b600161015f55565b600054610100900460ff16612b335760405162461bcd60e51b81526004016108f390615431565b61100d82826136ba565b600054610100900460ff16612b645760405162461bcd60e51b81526004016108f390615431565b565b600054610100900460ff16612b8d5760405162461bcd60e51b81526004016108f390615431565b612b646136fa565b60006117b78383613721565b816001600160a01b0316836001600160a01b031603612c025760405162461bcd60e51b815260206004820152601960248201527f4552433732313a20617070726f766520746f2063616c6c65720000000000000060448201526064016108f3565b6001600160a01b038381166000818152606a6020908152604080832094871680845294825291829020805460ff191686151590811790915591519182527f17307eab39ab6107e8899845ad3d59bd9653f200f220920489ca2b5937696c31910160405180910390a3505050565b612c7a84848461277e565b612c868484848461374b565b611bfb5760405162461bcd60e51b81526004016108f39061547c565b606060006101988381548110612cba57612cba614f98565b906000526020600020906004020160405180610180016040529081600082018054612ce490614d2e565b80601f0160208091040260200160405190810160405280929190818152602001828054612d1090614d2e565b8015612d5d5780601f10612d3257610100808354040283529160200191612d5d565b820191906000526020600020905b815481529060010190602001808311612d4057829003601f168201915b50505050508152602001600182018054612d7690614d2e565b80601f0160208091040260200160405190810160405280929190818152602001828054612da290614d2e565b8015612def5780601f10612dc457610100808354040283529160200191612def565b820191906000526020600020905b815481529060010190602001808311612dd257829003601f168201915b5050505050815260200160028201805480602002602001604051908101604052809291908181526020016000905b82821015612ec9578382906000526020600020018054612e3c90614d2e565b80601f0160208091040260200160405190810160405280929190818152602001828054612e6890614d2e565b8015612eb55780601f10612e8a57610100808354040283529160200191612eb5565b820191906000526020600020905b815481529060010190602001808311612e9857829003601f168201915b505050505081526020019060010190612e1d565b505050908252506003919091015463ffffffff8082166020840152600160201b820481166040840152600160401b820481166060840152600160601b820481166080840152600160801b8204811660a0840152600160a01b8204811660c0840152600160c01b82041660e083015261ffff600160e01b82048116610100840152600160f01b90910416610120909101528051909150612f6d90600a9060149061384c565b612fab600a603c612f87856060015163ffffffff1661388b565b604051602001612f9791906154ce565b60405160208183030381529060405261384c565b612fd5600a6064612fc5866080015163ffffffff1661388b565b604051602001612f9791906154fa565b612fff600a6078612fef8760a0015163ffffffff1661388b565b604051602001612f979190615519565b613029600a608c6130198860c0015163ffffffff1661388b565b604051602001612f979190615546565b613053600a60a06130438960e0015163ffffffff1661388b565b604051602001612f979190615566565b61307e600a60b461306e8a610100015163ffffffff1661388b565b604051602001612f979190615586565b6130a9600a60c86130998b610120015163ffffffff1661388b565b604051602001612f9791906155a6565b6040516020016130c09897969594939291906155c6565b60408051601f19818403018152919052915060f060005b8260400151518110156131905761016083015161ffff166130f9826001615768565b11613190578361315b600a61310f84601461577b565b6131199086615768565b61312c613127866001615768565b61388b565b8760400151868151811061314257613142614f98565b6020026020010151604051602001612f97929190615792565b60405160200161316c9291906157e0565b604051602081830303815290604052935080806131889061580f565b9150506130d7565b50826040516020016131a29190615828565b60405160208183030381529060405292505050919050565b606081516000036131d957505060408051602081019091526000815290565b6000604051806060016040528060408152602001615a7860409139905060006003845160026132089190615768565b6132129190615852565b61321d90600461577b565b6001600160401b0381111561323457613234614563565b6040519080825280601f01601f19166020018201604052801561325e576020820181803683370190505b509050600182016020820185865187015b808210156132ca576003820191508151603f8160121c168501518453600184019350603f81600c1c168501518453600184019350603f8160061c168501518453600184019350603f811685015184535060018301925061326f565b50506003865106600181146132e657600281146132f957613301565b603d6001830353603d6002830353613301565b603d60018303535b509195945050505050565b60006107c0825490565b60006001600160e01b03198216637965db0b60e01b14806107c057506107c08261391d565b6000613390826040518060400160405280602081526020017f5361666545524332303a206c6f772d6c6576656c2063616c6c206661696c6564815250856001600160a01b031661396d9092919063ffffffff16565b80519091501561099457808060200190518101906133ae9190615874565b6109945760405162461bcd60e51b815260206004820152602a60248201527f5361666545524332303a204552433230206f7065726174696f6e20646964206e6044820152691bdd081cdd58d8d9595960b21b60648201526084016108f3565b613417838361397c565b613424600084848461374b565b6109945760405162461bcd60e51b81526004016108f39061547c565b61344a82826117be565b61100d5761345781613b15565b613462836020613b27565b604051602001613473929190615891565b60408051601f198184030181529082905262461bcd60e51b82526108f391600401614492565b6001600160a01b0384166134b6576134b18383613cc2565b611bfb565b6001600160a01b0383166134ce576134b18483613d07565b6134d88483613d07565b6134b18383613cc2565b6134ec82826117be565b61100d5760008281526097602090815260408083206001600160a01b03851684529091529020805460ff191660011790556135243390565b6001600160a01b0316816001600160a01b0316837f2f8788117e7eff1d82e926ec794901d17c78024a50270940304540a733656f0d60405160405180910390a45050565b60006117b7836001600160a01b038416613e0c565b61358782826117be565b1561100d5760008281526097602090815260408083206001600160a01b0385168085529252808320805460ff1916905551339285917ff6391f5c32d9c69d2a47ea670b442974b53935d1edc7fd64eb21e047a839171b9190a45050565b60006117b7836001600160a01b038416613e5b565b6001600160a01b0381163b6136665760405162461bcd60e51b815260206004820152602d60248201527f455243313936373a206e657720696d706c656d656e746174696f6e206973206e60448201526c1bdd08184818dbdb9d1c9858dd609a1b60648201526084016108f3565b600080516020615a5883398151915280546001600160a01b0319166001600160a01b0392909216919091179055565b61369e83613f4e565b6000825111806136ab5750805b1561099457611bfb8383613f8e565b600054610100900460ff166136e15760405162461bcd60e51b81526004016108f390615431565b60656136ed8382614dcf565b5060666109948282614dcf565b600054610100900460ff16612b045760405162461bcd60e51b81526004016108f390615431565b600082600001828154811061373857613738614f98565b9060005260206000200154905092915050565b60006001600160a01b0384163b1561384157604051630a85bd0160e11b81526001600160a01b0385169063150b7a029061378f903390899088908890600401615906565b6020604051808303816000875af19250505080156137ca575060408051601f3d908101601f191682019092526137c791810190615943565b60015b613827573d8080156137f8576040519150601f19603f3d011682016040523d82523d6000602084013e6137fd565b606091505b50805160000361381f5760405162461bcd60e51b81526004016108f39061547c565b805181602001fd5b6001600160e01b031916630a85bd0160e11b149050612776565b506001949350505050565b60606138578461388b565b6138608461388b565b8360405160200161387393929190615960565b60405160208183030381529060405290509392505050565b6060600061389883614082565b60010190506000816001600160401b038111156138b7576138b7614563565b6040519080825280601f01601f1916602001820160405280156138e1576020820181803683370190505b5090508181016020015b600019016f181899199a1a9b1b9c1cb0b131b232b360811b600a86061a8153600a85049450846138eb57509392505050565b60006001600160e01b031982166380ac58cd60e01b148061394e57506001600160e01b03198216635b5e139f60e01b145b806107c057506301ffc9a760e01b6001600160e01b03198316146107c0565b6060612776848460008561415a565b6001600160a01b0382166139d25760405162461bcd60e51b815260206004820181905260248201527f4552433732313a206d696e7420746f20746865207a65726f206164647265737360448201526064016108f3565b6000818152606760205260409020546001600160a01b031615613a375760405162461bcd60e51b815260206004820152601c60248201527f4552433732313a20746f6b656e20616c7265616479206d696e7465640000000060448201526064016108f3565b613a45600083836001613499565b6000818152606760205260409020546001600160a01b031615613aaa5760405162461bcd60e51b815260206004820152601c60248201527f4552433732313a20746f6b656e20616c7265616479206d696e7465640000000060448201526064016108f3565b6001600160a01b038216600081815260686020908152604080832080546001019055848352606790915280822080546001600160a01b0319168417905551839291907fddf252ad1be2c89b69c2b068fc378daa952ba7f163c4a11628f55a4df523b3ef908290a45050565b60606107c06001600160a01b03831660145b60606000613b3683600261577b565b613b41906002615768565b6001600160401b03811115613b5857613b58614563565b6040519080825280601f01601f191660200182016040528015613b82576020820181803683370190505b509050600360fc1b81600081518110613b9d57613b9d614f98565b60200101906001600160f81b031916908160001a905350600f60fb1b81600181518110613bcc57613bcc614f98565b60200101906001600160f81b031916908160001a9053506000613bf084600261577b565b613bfb906001615768565b90505b6001811115613c73576f181899199a1a9b1b9c1cb0b131b232b360811b85600f1660108110613c2f57613c2f614f98565b1a60f81b828281518110613c4557613c45614f98565b60200101906001600160f81b031916908160001a90535060049490941c93613c6c816159fb565b9050613bfe565b5083156117b75760405162461bcd60e51b815260206004820181905260248201527f537472696e67733a20686578206c656e67746820696e73756666696369656e7460448201526064016108f3565b6001600160a01b039091166000908152610197602081815260408084208054610195845282862087875284529185208290559282526001810183559183529091200155565b6001600160a01b0382166000908152610197602052604081208054613d2e90600190615a12565b81548110613d3e57613d3e614f98565b90600052602060002001549050808214613da5576001600160a01b0383166000818152610195602090815260408083208684528252808320549383526101979091529020805483919083908110613d9757613d97614f98565b600091825260209091200155505b6001600160a01b038316600090815261019760205260409020805480613dcd57613dcd615a25565b6000828152602080822083016000199081018390559092019092556001600160a01b039094168152610195845260408082209382529290935250812055565b6000818152600183016020526040812054613e53575081546001818101845560008481526020808220909301849055845484825282860190935260409020919091556107c0565b5060006107c0565b60008181526001830160205260408120548015613f44576000613e7f600183615a12565b8554909150600090613e9390600190615a12565b9050818114613ef8576000866000018281548110613eb357613eb3614f98565b9060005260206000200154905080876000018481548110613ed657613ed6614f98565b6000918252602080832090910192909255918252600188019052604090208390555b8554869080613f0957613f09615a25565b6001900381819060005260206000200160009055905585600101600086815260200190815260200160002060009055600193505050506107c0565b60009150506107c0565b613f57816135f9565b6040516001600160a01b038216907fbc7cd75a20ee27fd9adebab32041f755214dbc6bffa90cc0225b39da2e5c2d3b90600090a250565b60606001600160a01b0383163b613ff65760405162461bcd60e51b815260206004820152602660248201527f416464726573733a2064656c65676174652063616c6c20746f206e6f6e2d636f6044820152651b9d1c9858dd60d21b60648201526084016108f3565b600080846001600160a01b0316846040516140119190615a3b565b600060405180830381855af49150503d806000811461404c576040519150601f19603f3d011682016040523d82523d6000602084013e614051565b606091505b50915091506140798282604051806060016040528060278152602001615ab860279139614235565b95945050505050565b60008072184f03e93ff9f4daa797ed6e38ed64bf6a1f0160401b83106140c15772184f03e93ff9f4daa797ed6e38ed64bf6a1f0160401b830492506040015b6d04ee2d6d415b85acef810000000083106140ed576d04ee2d6d415b85acef8100000000830492506020015b662386f26fc10000831061410b57662386f26fc10000830492506010015b6305f5e1008310614123576305f5e100830492506008015b612710831061413757612710830492506004015b60648310614149576064830492506002015b600a83106107c05760010192915050565b6060824710156141bb5760405162461bcd60e51b815260206004820152602660248201527f416464726573733a20696e73756666696369656e742062616c616e636520666f6044820152651c8818d85b1b60d21b60648201526084016108f3565b600080866001600160a01b031685876040516141d79190615a3b565b60006040518083038185875af1925050503d8060008114614214576040519150601f19603f3d011682016040523d82523d6000602084013e614219565b606091505b509150915061422a8783838761424e565b979650505050505050565b606083156142445750816117b7565b6117b783836142c3565b606083156142bd5782516000036142b6576001600160a01b0385163b6142b65760405162461bcd60e51b815260206004820152601d60248201527f416464726573733a2063616c6c20746f206e6f6e2d636f6e747261637400000060448201526064016108f3565b5081612776565b61277683835b8151156142d35781518083602001fd5b8060405162461bcd60e51b81526004016108f39190614492565b828054828255906000526020600020908101928215614333579160200282015b8281111561433357825182906143239082614dcf565b509160200191906001019061430d565b5061433f9291506143a8565b5090565b604080516101808101825260608082526020820181905291810182905260009181018290526080810182905260a0810182905260c0810182905260e0810182905261010081018290526101208101829052610140810182905261016081019190915290565b8082111561433f5760006143bc82826143c5565b506001016143a8565b5080546143d190614d2e565b6000825580601f106143e1575050565b601f0160209004906000526020600020908101906112b191905b8082111561433f57600081556001016143fb565b6001600160e01b0319811681146112b157600080fd5b60006020828403121561443757600080fd5b81356117b78161440f565b60005b8381101561445d578181015183820152602001614445565b50506000910152565b6000815180845261447e816020860160208601614442565b601f01601f19169290920160200192915050565b6020815260006117b76020830184614466565b6000602082840312156144b757600080fd5b5035919050565b80356001600160a01b03811681146144d557600080fd5b919050565b600080604083850312156144ed57600080fd5b6144f6836144be565b946020939093013593505050565b60006020828403121561451657600080fd5b6117b7826144be565b6020808252825182820181905260009190848201906040850190845b818110156145575783518352928401929184019160010161453b565b50909695505050505050565b634e487b7160e01b600052604160045260246000fd5b60405161018081016001600160401b038111828210171561459c5761459c614563565b60405290565b604051601f8201601f191681016001600160401b03811182821017156145ca576145ca614563565b604052919050565b600082601f8301126145e357600080fd5b81356001600160401b038111156145fc576145fc614563565b61460f601f8201601f19166020016145a2565b81815284602083860101111561462457600080fd5b816020850160208301376000918101602001919091529392505050565b60006020828403121561465357600080fd5b81356001600160401b0381111561466957600080fd5b612776848285016145d2565b60008060006060848603121561468a57600080fd5b614693846144be565b92506146a1602085016144be565b9150604084013590509250925092565b600080604083850312156146c457600080fd5b823591506146d4602084016144be565b90509250929050565b600080604083850312156146f057600080fd5b6146f9836144be565b915060208301356001600160401b0381111561471457600080fd5b614720858286016145d2565b9150509250929050565b6000806000806080858703121561474057600080fd5b84356001600160401b0381111561475657600080fd5b614762878288016145d2565b945050614771602086016144be565b925060408501359150614786606086016144be565b905092959194509250565b600080604083850312156147a457600080fd5b50508035926020909101359150565b80151581146112b157600080fd5b600080604083850312156147d457600080fd5b6147dd836144be565b915060208301356147ed816147b3565b809150509250929050565b60006001600160401b0382111561481157614811614563565b5060051b60200190565b6000602080838503121561482e57600080fd5b82356001600160401b0381111561484457600080fd5b8301601f8101851361485557600080fd5b8035614868614863826147f8565b6145a2565b81815260059190911b8201830190838101908783111561488757600080fd5b928401925b8284101561422a5783358252928401929084019061488c565b600081518084526020808501808196508360051b8101915082860160005b858110156148ed5782840389526148db848351614466565b988501989350908401906001016148c3565b5091979650505050505050565b6000610180825181855261491082860182614466565b9150506020830151848203602086015261492a8282614466565b9150506040830151848203604086015261494482826148a5565b915050606083015161495e606086018263ffffffff169052565b506080830151614976608086018263ffffffff169052565b5060a083015161498e60a086018263ffffffff169052565b5060c08301516149a660c086018263ffffffff169052565b5060e08301516149be60e086018263ffffffff169052565b506101008381015163ffffffff9081169186019190915261012080850151909116908501526101408084015161ffff90811691860191909152610160938401511692909301919091525090565b6000602080830181845280855180835260408601915060408160051b870101925083870160005b82811015614a6057603f19888603018452614a4e8583516148fa565b94509285019290850190600101614a32565b5092979650505050505050565b60008060008060808587031215614a8357600080fd5b614a8c856144be565b9350614a9a602086016144be565b92506040850135915060608501356001600160401b03811115614abc57600080fd5b614ac8878288016145d2565b91505092959194509250565b6020815260006117b760208301846148fa565b60008060408385031215614afa57600080fd5b614b03836144be565b91506146d4602084016144be565b600082601f830112614b2257600080fd5b81356020614b32614863836147f8565b82815260059290921b84018101918181019086841115614b5157600080fd5b8286015b84811015614b905780356001600160401b03811115614b745760008081fd5b614b828986838b01016145d2565b845250918301918301614b55565b509695505050505050565b803563ffffffff811681146144d557600080fd5b803561ffff811681146144d557600080fd5b60008060408385031215614bd457600080fd5b614bdd836144be565b915060208301356001600160401b0380821115614bf957600080fd5b908401906101808287031215614c0e57600080fd5b614c16614579565b823582811115614c2557600080fd5b614c31888286016145d2565b825250602083013582811115614c4657600080fd5b614c52888286016145d2565b602083015250604083013582811115614c6a57600080fd5b614c7688828601614b11565b604083015250614c8860608401614b9b565b6060820152614c9960808401614b9b565b6080820152614caa60a08401614b9b565b60a0820152614cbb60c08401614b9b565b60c0820152614ccc60e08401614b9b565b60e08201526101009150614ce1828401614b9b565b828201526101209150614cf5828401614b9b565b828201526101409150614d09828401614baf565b828201526101609150614d1d828401614baf565b828201528093505050509250929050565b600181811c90821680614d4257607f821691505b602082108103614d6257634e487b7160e01b600052602260045260246000fd5b50919050565b600060208284031215614d7a57600080fd5b5051919050565b601f82111561099457600081815260208120601f850160051c81016020861015614da85750805b601f850160051c820191505b81811015614dc757828155600101614db4565b505050505050565b81516001600160401b03811115614de857614de8614563565b614dfc81614df68454614d2e565b84614d81565b602080601f831160018114614e315760008415614e195750858301515b600019600386901b1c1916600185901b178555614dc7565b600085815260208120601f198616915b82811015614e6057888601518255948401946001909101908401614e41565b5085821015614e7e5787850151600019600388901b60f8161c191681555b5050505050600190811b01905550565b604081526000614ea16040830185614466565b82810360208401526140798185614466565b6020808252602d908201527f4552433732313a2063616c6c6572206973206e6f7420746f6b656e206f776e6560408201526c1c881bdc88185c1c1c9bdd9959609a1b606082015260800190565b6020808252602c908201527f46756e6374696f6e206d7573742062652063616c6c6564207468726f7567682060408201526b19195b1959d85d1958d85b1b60a21b606082015260800190565b6020808252602c908201527f46756e6374696f6e206d7573742062652063616c6c6564207468726f7567682060408201526b6163746976652070726f787960a01b606082015260800190565b634e487b7160e01b600052603260045260246000fd5b60008151614fc0818560208601614442565b9290920192915050565b693d913730b6b2911d101160b11b81528351600090614ff081600a850160208901614442565b72111610113232b9b1b934b83a34b7b7111d101160691b600a91840191820152845161502381601d840160208901614442565b7f222c2022696d616765223a2022646174613a696d6167652f7376672b786d6c3b601d92909101918201526618985cd94d8d0b60ca1b603d8201528351615071816044840160208801614442565b61227d60f01b6044929091019182015260460195945050505050565b7f646174613a6170706c69636174696f6e2f6a736f6e3b6261736536342c0000008152600082516150c581601d850160208701614442565b91909101601d0192915050565b7f3c73766720786d6c6e733d27687474703a2f2f7777772e77332e6f72672f323081527f30302f73766727207072657365727665417370656374526174696f3d27784d6960208201527f6e594d696e206d656574272076696577426f783d27302030203335302033353060408201527f273e3c7374796c653e2e62617365207b2066696c6c3a2077686974653b20666f60608201527f6e742d66616d696c793a2073657269663b20666f6e742d73697a653a2032347060808201527f783b207d3c2f7374796c653e3c726563742077696474683d273130302527206860a08201527f65696768743d2731303025272066696c6c3d27626c61636b27202f3e3c74657860c08201527f7420783d273530252720793d273530252720636c6173733d276261736527206460e08201527f6f6d696e616e742d626173656c696e653d276d6964646c652720746578742d616101008201526e3731b437b91e93b6b4b2323632939f60891b610120820152600061012f83516152568183860160208801614442565b83016152738282016c1e17ba32bc3a1f1e17b9bb339f60991b9052565b61013c01949350505050565b693d913730b6b2911d101160b11b8152845160009060206152a682600a8601838b01614442565b72111610113232b9b1b934b83a34b7b7111d101160691b600a9285019283015286516152d881601d8501848b01614442565b7f2069732047656e657261746976652041492047616d652e222c2022696d616765601d93909101928301527f223a2022646174613a696d6167652f7376672b786d6c3b6261736536342c0000603d830152855161533b81605b8501848a01614442565b741116101132bc3a32b93730b62fb634b735911d101160591b605b9390910192830152845460709060009061536f81614d2e565b6001828116801561538757600181146153a0576153d0565b60ff1984168887015282151583028801860194506153d0565b8a6000528660002060005b848110156153c65781548a82018901529083019088016153ab565b5050858389010194505b505061227d60f01b835250506002019998505050505050505050565b60208082526025908201527f4552433732313a207472616e736665722066726f6d20696e636f72726563742060408201526437bbb732b960d91b606082015260800190565b6020808252602b908201527f496e697469616c697a61626c653a20636f6e7472616374206973206e6f74206960408201526a6e697469616c697a696e6760a81b606082015260800190565b60208082526032908201527f4552433732313a207472616e7366657220746f206e6f6e20455243373231526560408201527131b2b4bb32b91034b6b83632b6b2b73a32b960711b606082015260800190565b630262b1d160e51b8152600082516154ed816004850160208701614442565b9190910160040192915050565b63024281d160e51b8152600082516154ed816004850160208701614442565b64020aa259d160dd1b815260008251615539816005850160208701614442565b9190910160050192915050565b6402222a31d160dd1b815260008251615539816005850160208701614442565b64024a72a1d160dd1b815260008251615539816005850160208701614442565b64026a3a91d160dd1b815260008251615539816005850160208701614442565b64020a3a61d160dd1b815260008251615539816005850160208701614442565b7f3c73766720786d6c6e733d22687474703a2f2f7777772e77332e6f72672f323081527f30302f73766722207072657365727665417370656374526174696f3d22784d6960208201527f6e594d696e206d656574222076696577426f783d22302030203335302033353060408201527f223e3c7374796c653e2e62617365207b2066696c6c3a2077686974653b20666f60608201527f6e742d66616d696c793a2073657269663b20666f6e742d73697a653a2031347060808201527f783b207d3c2f7374796c653e3c726563742077696474683d223130302522206860a08201527f65696768743d2231303025222066696c6c3d22626c61636b22202f3e0000000060c0820152600089516156e28160dc850160208e01614442565b8951908301906156f98160dc840160208e01614442565b895191019061570f8160dc840160208d01614442565b61574261573c61573661573061572a60dc868801018e614fae565b8c614fae565b8a614fae565b88614fae565b86614fae565b9c9b505050505050505050505050565b634e487b7160e01b600052601160045260246000fd5b808201808211156107c0576107c0615752565b80820281158282048414176107c0576107c0615752565b6414dada5b1b60da1b8152600083516157b2816005850160208801614442565b6101d160f51b60059184019182015283516157d4816007840160208801614442565b01600701949350505050565b600083516157f2818460208801614442565b835190830190615806818360208801614442565b01949350505050565b60006001820161582157615821615752565b5060010190565b6000825161583a818460208701614442565b651e17b9bb339f60d11b920191825250600601919050565b60008261586f57634e487b7160e01b600052601260045260246000fd5b500490565b60006020828403121561588657600080fd5b81516117b7816147b3565b7f416363657373436f6e74726f6c3a206163636f756e74200000000000000000008152600083516158c9816017850160208801614442565b7001034b99036b4b9b9b4b733903937b6329607d1b60179184019182015283516158fa816028840160208801614442565b01602801949350505050565b6001600160a01b038581168252841660208201526040810183905260806060820181905260009061593990830184614466565b9695505050505050565b60006020828403121561595557600080fd5b81516117b78161440f565b681e3a32bc3a103c1e9160b91b81528351600090615985816009850160208901614442565b6411103c9e9160d91b60099184019182015284516159aa81600e840160208901614442565b6e111031b630b9b99e913130b9b2911f60891b600e929091019182015283516159da81601d840160208801614442565b661e17ba32bc3a1f60c91b601d929091019182015260240195945050505050565b600081615a0a57615a0a615752565b506000190190565b818103818111156107c0576107c0615752565b634e487b7160e01b600052603160045260246000fd5b60008251615a4d818460208701614442565b919091019291505056fe360894a13ba1a3210667c828492db98dca3e2076cc3735a920a3ca505d382bbc4142434445464748494a4b4c4d4e4f505152535455565758595a6162636465666768696a6b6c6d6e6f707172737475767778797a303132333435363738392b2f416464726573733a206c6f772d6c6576656c2064656c65676174652063616c6c206661696c6564a26469706673582212200463376620cd9479698cdcf28cff609f7499d7f0049ac44b2737fc570fe58ce964736f6c63430008120033",
  "linkReferences": {},
  "deployedLinkReferences": {}
}