{
  "_format": "hh-sol-artifact-1",
  "contractName": "PromptMonsters",
  "sourceName": "contracts/prompt-monsters/PromptMonsters.sol",
  "abi": [
    {
      "inputs": [],
      "stateMutability": "nonpayable",
      "type": "constructor"
    },
    {
      "anonymous": false,
      "inputs": [
        {
          "indexed": false,
          "internalType": "address",
          "name": "previousAdmin",
          "type": "address"
        },
        {
          "indexed": false,
          "internalType": "address",
          "name": "newAdmin",
          "type": "address"
        }
      ],
      "name": "AdminChanged",
      "type": "event"
    },
    {
      "anonymous": false,
      "inputs": [
        {
          "indexed": true,
          "internalType": "address",
          "name": "owner",
          "type": "address"
        },
        {
          "indexed": true,
          "internalType": "address",
          "name": "approved",
          "type": "address"
        },
        {
          "indexed": true,
          "internalType": "uint256",
          "name": "tokenId",
          "type": "uint256"
        }
      ],
      "name": "Approval",
      "type": "event"
    },
    {
      "anonymous": false,
      "inputs": [
        {
          "indexed": true,
          "internalType": "address",
          "name": "owner",
          "type": "address"
        },
        {
          "indexed": true,
          "internalType": "address",
          "name": "operator",
          "type": "address"
        },
        {
          "indexed": false,
          "internalType": "bool",
          "name": "approved",
          "type": "bool"
        }
      ],
      "name": "ApprovalForAll",
      "type": "event"
    },
    {
      "anonymous": false,
      "inputs": [
        {
          "indexed": true,
          "internalType": "address",
          "name": "beacon",
          "type": "address"
        }
      ],
      "name": "BeaconUpgraded",
      "type": "event"
    },
    {
      "anonymous": false,
      "inputs": [
        {
          "components": [
            {
              "internalType": "string",
              "name": "feature",
              "type": "string"
            },
            {
              "internalType": "string",
              "name": "name",
              "type": "string"
            },
            {
              "internalType": "string",
              "name": "flavor",
              "type": "string"
            },
            {
              "internalType": "string[]",
              "name": "skills",
              "type": "string[]"
            },
            {
              "internalType": "uint32",
              "name": "lv",
              "type": "uint32"
            },
            {
              "internalType": "uint32",
              "name": "hp",
              "type": "uint32"
            },
            {
              "internalType": "uint32",
              "name": "atk",
              "type": "uint32"
            },
            {
              "internalType": "uint32",
              "name": "def",
              "type": "uint32"
            },
            {
              "internalType": "uint32",
              "name": "inte",
              "type": "uint32"
            },
            {
              "internalType": "uint32",
              "name": "mgr",
              "type": "uint32"
            },
            {
              "internalType": "uint32",
              "name": "agl",
              "type": "uint32"
            }
          ],
          "indexed": false,
          "internalType": "struct IPromptMonsters.Monster",
          "name": "monster",
          "type": "tuple"
        }
      ],
      "name": "GenerateMonster",
      "type": "event"
    },
    {
      "anonymous": false,
      "inputs": [
        {
          "indexed": false,
          "internalType": "uint8",
          "name": "version",
          "type": "uint8"
        }
      ],
      "name": "Initialized",
      "type": "event"
    },
    {
      "anonymous": false,
      "inputs": [
        {
          "indexed": true,
          "internalType": "address",
          "name": "tokenOwner",
          "type": "address"
        },
        {
          "indexed": true,
          "internalType": "uint256",
          "name": "newTokenId",
          "type": "uint256"
        },
        {
          "components": [
            {
              "internalType": "string",
              "name": "feature",
              "type": "string"
            },
            {
              "internalType": "string",
              "name": "name",
              "type": "string"
            },
            {
              "internalType": "string",
              "name": "flavor",
              "type": "string"
            },
            {
              "internalType": "string[]",
              "name": "skills",
              "type": "string[]"
            },
            {
              "internalType": "uint32",
              "name": "lv",
              "type": "uint32"
            },
            {
              "internalType": "uint32",
              "name": "hp",
              "type": "uint32"
            },
            {
              "internalType": "uint32",
              "name": "atk",
              "type": "uint32"
            },
            {
              "internalType": "uint32",
              "name": "def",
              "type": "uint32"
            },
            {
              "internalType": "uint32",
              "name": "inte",
              "type": "uint32"
            },
            {
              "internalType": "uint32",
              "name": "mgr",
              "type": "uint32"
            },
            {
              "internalType": "uint32",
              "name": "agl",
              "type": "uint32"
            }
          ],
          "indexed": false,
          "internalType": "struct IPromptMonsters.Monster",
          "name": "monster",
          "type": "tuple"
        }
      ],
      "name": "MintedMonster",
      "type": "event"
    },
    {
      "anonymous": false,
      "inputs": [
        {
          "indexed": true,
          "internalType": "bytes32",
          "name": "role",
          "type": "bytes32"
        },
        {
          "indexed": true,
          "internalType": "bytes32",
          "name": "previousAdminRole",
          "type": "bytes32"
        },
        {
          "indexed": true,
          "internalType": "bytes32",
          "name": "newAdminRole",
          "type": "bytes32"
        }
      ],
      "name": "RoleAdminChanged",
      "type": "event"
    },
    {
      "anonymous": false,
      "inputs": [
        {
          "indexed": true,
          "internalType": "bytes32",
          "name": "role",
          "type": "bytes32"
        },
        {
          "indexed": true,
          "internalType": "address",
          "name": "account",
          "type": "address"
        },
        {
          "indexed": true,
          "internalType": "address",
          "name": "sender",
          "type": "address"
        }
      ],
      "name": "RoleGranted",
      "type": "event"
    },
    {
      "anonymous": false,
      "inputs": [
        {
          "indexed": true,
          "internalType": "bytes32",
          "name": "role",
          "type": "bytes32"
        },
        {
          "indexed": true,
          "internalType": "address",
          "name": "account",
          "type": "address"
        },
        {
          "indexed": true,
          "internalType": "address",
          "name": "sender",
          "type": "address"
        }
      ],
      "name": "RoleRevoked",
      "type": "event"
    },
    {
      "anonymous": false,
      "inputs": [
        {
          "indexed": true,
          "internalType": "address",
          "name": "publisher",
          "type": "address"
        },
        {
          "indexed": false,
          "internalType": "address",
          "name": "oldValue",
          "type": "address"
        },
        {
          "indexed": false,
          "internalType": "address",
          "name": "newValue",
          "type": "address"
        }
      ],
      "name": "SetErc20",
      "type": "event"
    },
    {
      "anonymous": false,
      "inputs": [
        {
          "indexed": true,
          "internalType": "address",
          "name": "publisher",
          "type": "address"
        },
        {
          "indexed": false,
          "internalType": "string",
          "name": "oldValue",
          "type": "string"
        },
        {
          "indexed": false,
          "internalType": "string",
          "name": "newValue",
          "type": "string"
        }
      ],
      "name": "SetExternalLink",
      "type": "event"
    },
    {
      "anonymous": false,
      "inputs": [
        {
          "indexed": true,
          "internalType": "address",
          "name": "publisher",
          "type": "address"
        },
        {
          "indexed": false,
          "internalType": "uint256",
          "name": "oldValue",
          "type": "uint256"
        },
        {
          "indexed": false,
          "internalType": "uint256",
          "name": "newValue",
          "type": "uint256"
        }
      ],
      "name": "SetMintPrice",
      "type": "event"
    },
    {
      "anonymous": false,
      "inputs": [
        {
          "indexed": true,
          "internalType": "address",
          "name": "publisher",
          "type": "address"
        },
        {
          "indexed": false,
          "internalType": "uint256",
          "name": "oldValue",
          "type": "uint256"
        },
        {
          "indexed": false,
          "internalType": "uint256",
          "name": "newValue",
          "type": "uint256"
        }
      ],
      "name": "SetOwnerToTokenId",
      "type": "event"
    },
    {
      "anonymous": false,
      "inputs": [
        {
          "indexed": true,
          "internalType": "address",
          "name": "publisher",
          "type": "address"
        },
        {
          "indexed": false,
          "internalType": "uint256",
          "name": "oldValue",
          "type": "uint256"
        },
        {
          "indexed": false,
          "internalType": "uint256",
          "name": "newValue",
          "type": "uint256"
        }
      ],
      "name": "SetOwnerToTokenIdIndex",
      "type": "event"
    },
    {
      "anonymous": false,
      "inputs": [
        {
          "indexed": true,
          "internalType": "address",
          "name": "publisher",
          "type": "address"
        },
        {
          "indexed": false,
          "internalType": "address",
          "name": "oldValue",
          "type": "address"
        },
        {
          "indexed": false,
          "internalType": "address",
          "name": "newValue",
          "type": "address"
        }
      ],
      "name": "SetPromptMonstersWallet",
      "type": "event"
    },
    {
      "anonymous": false,
      "inputs": [
        {
          "indexed": true,
          "internalType": "address",
          "name": "from",
          "type": "address"
        },
        {
          "indexed": true,
          "internalType": "address",
          "name": "to",
          "type": "address"
        },
        {
          "indexed": true,
          "internalType": "uint256",
          "name": "tokenId",
          "type": "uint256"
        }
      ],
      "name": "Transfer",
      "type": "event"
    },
    {
      "anonymous": false,
      "inputs": [
        {
          "indexed": true,
          "internalType": "address",
          "name": "implementation",
          "type": "address"
        }
      ],
      "name": "Upgraded",
      "type": "event"
    },
    {
      "inputs": [],
      "name": "DEFAULT_ADMIN_ROLE",
      "outputs": [
        {
          "internalType": "bytes32",
          "name": "",
          "type": "bytes32"
        }
      ],
      "stateMutability": "view",
      "type": "function"
    },
    {
      "inputs": [
        {
          "internalType": "address",
          "name": "to",
          "type": "address"
        },
        {
          "internalType": "uint256",
          "name": "tokenId",
          "type": "uint256"
        }
      ],
      "name": "approve",
      "outputs": [],
      "stateMutability": "nonpayable",
      "type": "function"
    },
    {
      "inputs": [
        {
          "internalType": "address",
          "name": "owner",
          "type": "address"
        }
      ],
      "name": "balanceOf",
      "outputs": [
        {
          "internalType": "uint256",
          "name": "",
          "type": "uint256"
        }
      ],
      "stateMutability": "view",
      "type": "function"
    },
    {
      "inputs": [
        {
          "internalType": "uint256",
          "name": "tokenId_",
          "type": "uint256"
        }
      ],
      "name": "burn",
      "outputs": [],
      "stateMutability": "nonpayable",
      "type": "function"
    },
    {
      "inputs": [
        {
          "internalType": "uint256",
          "name": "monsterId",
          "type": "uint256"
        }
      ],
      "name": "checkMonsterId",
      "outputs": [],
      "stateMutability": "view",
      "type": "function"
    },
    {
      "inputs": [],
      "name": "contractURI",
      "outputs": [
        {
          "internalType": "string",
          "name": "uri",
          "type": "string"
        }
      ],
      "stateMutability": "view",
      "type": "function"
    },
    {
      "inputs": [],
      "name": "erc20",
      "outputs": [
        {
          "internalType": "contract IERC20",
          "name": "",
          "type": "address"
        }
      ],
      "stateMutability": "view",
      "type": "function"
    },
    {
      "inputs": [
        {
          "internalType": "address",
          "name": "resurrectionPrompt_",
          "type": "address"
        },
        {
          "components": [
            {
              "internalType": "string",
              "name": "feature",
              "type": "string"
            },
            {
              "internalType": "string",
              "name": "name",
              "type": "string"
            },
            {
              "internalType": "string",
              "name": "flavor",
              "type": "string"
            },
            {
              "internalType": "string[]",
              "name": "skills",
              "type": "string[]"
            },
            {
              "internalType": "uint32",
              "name": "lv",
              "type": "uint32"
            },
            {
              "internalType": "uint32",
              "name": "hp",
              "type": "uint32"
            },
            {
              "internalType": "uint32",
              "name": "atk",
              "type": "uint32"
            },
            {
              "internalType": "uint32",
              "name": "def",
              "type": "uint32"
            },
            {
              "internalType": "uint32",
              "name": "inte",
              "type": "uint32"
            },
            {
              "internalType": "uint32",
              "name": "mgr",
              "type": "uint32"
            },
            {
              "internalType": "uint32",
              "name": "agl",
              "type": "uint32"
            }
          ],
          "internalType": "struct IPromptMonsters.Monster",
          "name": "monster_",
          "type": "tuple"
        }
      ],
      "name": "generateMonster",
      "outputs": [],
      "stateMutability": "nonpayable",
      "type": "function"
    },
    {
      "inputs": [
        {
          "internalType": "uint256",
          "name": "tokenId",
          "type": "uint256"
        }
      ],
      "name": "getApproved",
      "outputs": [
        {
          "internalType": "address",
          "name": "",
          "type": "address"
        }
      ],
      "stateMutability": "view",
      "type": "function"
    },
    {
      "inputs": [
        {
          "internalType": "address",
          "name": "resurrectionPrompt",
          "type": "address"
        }
      ],
      "name": "getMonsterHistory",
      "outputs": [
        {
          "components": [
            {
              "internalType": "string",
              "name": "feature",
              "type": "string"
            },
            {
              "internalType": "string",
              "name": "name",
              "type": "string"
            },
            {
              "internalType": "string",
              "name": "flavor",
              "type": "string"
            },
            {
              "internalType": "string[]",
              "name": "skills",
              "type": "string[]"
            },
            {
              "internalType": "uint32",
              "name": "lv",
              "type": "uint32"
            },
            {
              "internalType": "uint32",
              "name": "hp",
              "type": "uint32"
            },
            {
              "internalType": "uint32",
              "name": "atk",
              "type": "uint32"
            },
            {
              "internalType": "uint32",
              "name": "def",
              "type": "uint32"
            },
            {
              "internalType": "uint32",
              "name": "inte",
              "type": "uint32"
            },
            {
              "internalType": "uint32",
              "name": "mgr",
              "type": "uint32"
            },
            {
              "internalType": "uint32",
              "name": "agl",
              "type": "uint32"
            }
          ],
          "internalType": "struct IPromptMonsters.Monster",
          "name": "monsterHistory",
          "type": "tuple"
        }
      ],
      "stateMutability": "view",
      "type": "function"
    },
    {
      "inputs": [
        {
          "internalType": "uint256[]",
          "name": "tokenIds_",
          "type": "uint256[]"
        }
      ],
      "name": "getMonsters",
      "outputs": [
        {
          "components": [
            {
              "internalType": "string",
              "name": "feature",
              "type": "string"
            },
            {
              "internalType": "string",
              "name": "name",
              "type": "string"
            },
            {
              "internalType": "string",
              "name": "flavor",
              "type": "string"
            },
            {
              "internalType": "string[]",
              "name": "skills",
              "type": "string[]"
            },
            {
              "internalType": "uint32",
              "name": "lv",
              "type": "uint32"
            },
            {
              "internalType": "uint32",
              "name": "hp",
              "type": "uint32"
            },
            {
              "internalType": "uint32",
              "name": "atk",
              "type": "uint32"
            },
            {
              "internalType": "uint32",
              "name": "def",
              "type": "uint32"
            },
            {
              "internalType": "uint32",
              "name": "inte",
              "type": "uint32"
            },
            {
              "internalType": "uint32",
              "name": "mgr",
              "type": "uint32"
            },
            {
              "internalType": "uint32",
              "name": "agl",
              "type": "uint32"
            }
          ],
          "internalType": "struct IPromptMonsters.Monster[]",
          "name": "monsters",
          "type": "tuple[]"
        }
      ],
      "stateMutability": "view",
      "type": "function"
    },
    {
      "inputs": [],
      "name": "getMonstersTotalSupply",
      "outputs": [
        {
          "internalType": "uint256",
          "name": "totalSupply",
          "type": "uint256"
        }
      ],
      "stateMutability": "view",
      "type": "function"
    },
    {
      "inputs": [
        {
          "internalType": "address",
          "name": "owner",
          "type": "address"
        }
      ],
      "name": "getOwnerToTokenIds",
      "outputs": [
        {
          "internalType": "uint256[]",
          "name": "tokenIds",
          "type": "uint256[]"
        }
      ],
      "stateMutability": "view",
      "type": "function"
    },
    {
      "inputs": [
        {
          "internalType": "address",
          "name": "owner",
          "type": "address"
        },
        {
          "internalType": "uint256",
          "name": "tokenId_",
          "type": "uint256"
        }
      ],
      "name": "getOwnerToTokenIdsIndex",
      "outputs": [
        {
          "internalType": "uint256",
          "name": "tokenIdsIndex",
          "type": "uint256"
        }
      ],
      "stateMutability": "view",
      "type": "function"
    },
    {
      "inputs": [
        {
          "internalType": "bytes32",
          "name": "role",
          "type": "bytes32"
        }
      ],
      "name": "getRoleAdmin",
      "outputs": [
        {
          "internalType": "bytes32",
          "name": "",
          "type": "bytes32"
        }
      ],
      "stateMutability": "view",
      "type": "function"
    },
    {
      "inputs": [
        {
          "internalType": "bytes32",
          "name": "role",
          "type": "bytes32"
        },
        {
          "internalType": "uint256",
          "name": "index",
          "type": "uint256"
        }
      ],
      "name": "getRoleMember",
      "outputs": [
        {
          "internalType": "address",
          "name": "",
          "type": "address"
        }
      ],
      "stateMutability": "view",
      "type": "function"
    },
    {
      "inputs": [
        {
          "internalType": "bytes32",
          "name": "role",
          "type": "bytes32"
        }
      ],
      "name": "getRoleMemberCount",
      "outputs": [
        {
          "internalType": "uint256",
          "name": "",
          "type": "uint256"
        }
      ],
      "stateMutability": "view",
      "type": "function"
    },
    {
      "inputs": [
        {
          "internalType": "bytes32",
          "name": "role",
          "type": "bytes32"
        },
        {
          "internalType": "address",
          "name": "account",
          "type": "address"
        }
      ],
      "name": "grantRole",
      "outputs": [],
      "stateMutability": "nonpayable",
      "type": "function"
    },
    {
      "inputs": [
        {
          "internalType": "bytes32",
          "name": "role",
          "type": "bytes32"
        },
        {
          "internalType": "address",
          "name": "account",
          "type": "address"
        }
      ],
      "name": "hasRole",
      "outputs": [
        {
          "internalType": "bool",
          "name": "",
          "type": "bool"
        }
      ],
      "stateMutability": "view",
      "type": "function"
    },
    {
      "inputs": [
        {
          "internalType": "string",
          "name": "externalLink_",
          "type": "string"
        },
        {
          "internalType": "address",
          "name": "erc20Address_",
          "type": "address"
        },
        {
          "internalType": "uint256",
          "name": "mintPrice_",
          "type": "uint256"
        },
        {
          "internalType": "address",
          "name": "promptMonstersWallet_",
          "type": "address"
        }
      ],
      "name": "initialize",
      "outputs": [],
      "stateMutability": "nonpayable",
      "type": "function"
    },
    {
      "inputs": [
        {
          "internalType": "address",
          "name": "owner",
          "type": "address"
        },
        {
          "internalType": "address",
          "name": "operator",
          "type": "address"
        }
      ],
      "name": "isApprovedForAll",
      "outputs": [
        {
          "internalType": "bool",
          "name": "",
          "type": "bool"
        }
      ],
      "stateMutability": "view",
      "type": "function"
    },
    {
      "inputs": [
        {
          "internalType": "address",
          "name": "resurrectionPrompt",
          "type": "address"
        }
      ],
      "name": "mint",
      "outputs": [],
      "stateMutability": "nonpayable",
      "type": "function"
    },
    {
      "inputs": [],
      "name": "mintPrice",
      "outputs": [
        {
          "internalType": "uint256",
          "name": "",
          "type": "uint256"
        }
      ],
      "stateMutability": "view",
      "type": "function"
    },
    {
      "inputs": [],
      "name": "name",
      "outputs": [
        {
          "internalType": "string",
          "name": "",
          "type": "string"
        }
      ],
      "stateMutability": "view",
      "type": "function"
    },
    {
      "inputs": [
        {
          "internalType": "uint256",
          "name": "tokenId",
          "type": "uint256"
        }
      ],
      "name": "ownerOf",
      "outputs": [
        {
          "internalType": "address",
          "name": "",
          "type": "address"
        }
      ],
      "stateMutability": "view",
      "type": "function"
    },
    {
      "inputs": [],
      "name": "promptMonstersImage",
      "outputs": [
        {
          "internalType": "contract IPromptMonstersImage",
          "name": "",
          "type": "address"
        }
      ],
      "stateMutability": "view",
      "type": "function"
    },
    {
      "inputs": [],
      "name": "promptMonstersWallet",
      "outputs": [
        {
          "internalType": "address",
          "name": "",
          "type": "address"
        }
      ],
      "stateMutability": "view",
      "type": "function"
    },
    {
      "inputs": [],
      "name": "proxiableUUID",
      "outputs": [
        {
          "internalType": "bytes32",
          "name": "",
          "type": "bytes32"
        }
      ],
      "stateMutability": "view",
      "type": "function"
    },
    {
      "inputs": [
        {
          "internalType": "bytes32",
          "name": "role",
          "type": "bytes32"
        },
        {
          "internalType": "address",
          "name": "account",
          "type": "address"
        }
      ],
      "name": "renounceRole",
      "outputs": [],
      "stateMutability": "nonpayable",
      "type": "function"
    },
    {
      "inputs": [
        {
          "internalType": "address",
          "name": "",
          "type": "address"
        }
      ],
      "name": "resurrectionIndex",
      "outputs": [
        {
          "internalType": "uint256",
          "name": "",
          "type": "uint256"
        }
      ],
      "stateMutability": "view",
      "type": "function"
    },
    {
      "inputs": [
        {
          "internalType": "bytes32",
          "name": "role",
          "type": "bytes32"
        },
        {
          "internalType": "address",
          "name": "account",
          "type": "address"
        }
      ],
      "name": "revokeRole",
      "outputs": [],
      "stateMutability": "nonpayable",
      "type": "function"
    },
    {
      "inputs": [
        {
          "internalType": "address",
          "name": "from",
          "type": "address"
        },
        {
          "internalType": "address",
          "name": "to",
          "type": "address"
        },
        {
          "internalType": "uint256",
          "name": "tokenId",
          "type": "uint256"
        }
      ],
      "name": "safeTransferFrom",
      "outputs": [],
      "stateMutability": "nonpayable",
      "type": "function"
    },
    {
      "inputs": [
        {
          "internalType": "address",
          "name": "from",
          "type": "address"
        },
        {
          "internalType": "address",
          "name": "to",
          "type": "address"
        },
        {
          "internalType": "uint256",
          "name": "tokenId",
          "type": "uint256"
        },
        {
          "internalType": "bytes",
          "name": "data",
          "type": "bytes"
        }
      ],
      "name": "safeTransferFrom",
      "outputs": [],
      "stateMutability": "nonpayable",
      "type": "function"
    },
    {
      "inputs": [
        {
          "internalType": "address",
          "name": "operator",
          "type": "address"
        },
        {
          "internalType": "bool",
          "name": "approved",
          "type": "bool"
        }
      ],
      "name": "setApprovalForAll",
      "outputs": [],
      "stateMutability": "nonpayable",
      "type": "function"
    },
    {
      "inputs": [
        {
          "internalType": "address",
          "name": "newState_",
          "type": "address"
        }
      ],
      "name": "setErc20",
      "outputs": [],
      "stateMutability": "nonpayable",
      "type": "function"
    },
    {
      "inputs": [
        {
          "internalType": "string",
          "name": "newState_",
          "type": "string"
        }
      ],
      "name": "setExternalLink",
      "outputs": [],
      "stateMutability": "nonpayable",
      "type": "function"
    },
    {
      "inputs": [
        {
          "internalType": "uint256",
          "name": "newState_",
          "type": "uint256"
        }
      ],
      "name": "setMintPrice",
      "outputs": [],
      "stateMutability": "nonpayable",
      "type": "function"
    },
    {
      "inputs": [
        {
          "internalType": "address",
          "name": "user_",
          "type": "address"
        },
        {
          "internalType": "uint256",
          "name": "ownerToTokenIdIndex_",
          "type": "uint256"
        },
        {
          "internalType": "uint256",
          "name": "newState_",
          "type": "uint256"
        }
      ],
      "name": "setOwnerToTokenId",
      "outputs": [],
      "stateMutability": "nonpayable",
      "type": "function"
    },
    {
      "inputs": [
        {
          "internalType": "address",
          "name": "user_",
          "type": "address"
        },
        {
          "internalType": "uint256",
          "name": "tokenId_",
          "type": "uint256"
        },
        {
          "internalType": "uint256",
          "name": "newState_",
          "type": "uint256"
        }
      ],
      "name": "setOwnerToTokenIdIndex",
      "outputs": [],
      "stateMutability": "nonpayable",
      "type": "function"
    },
    {
      "inputs": [
        {
          "internalType": "address",
          "name": "newState_",
          "type": "address"
        }
      ],
      "name": "setPromptMonstersImage",
      "outputs": [],
      "stateMutability": "nonpayable",
      "type": "function"
    },
    {
      "inputs": [
        {
          "internalType": "address",
          "name": "newState_",
          "type": "address"
        }
      ],
      "name": "setPromptMonstersWallet",
      "outputs": [],
      "stateMutability": "nonpayable",
      "type": "function"
    },
    {
      "inputs": [
        {
          "internalType": "bytes4",
          "name": "interfaceId",
          "type": "bytes4"
        }
      ],
      "name": "supportsInterface",
      "outputs": [
        {
          "internalType": "bool",
          "name": "",
          "type": "bool"
        }
      ],
      "stateMutability": "view",
      "type": "function"
    },
    {
      "inputs": [],
      "name": "symbol",
      "outputs": [
        {
          "internalType": "string",
          "name": "",
          "type": "string"
        }
      ],
      "stateMutability": "view",
      "type": "function"
    },
    {
      "inputs": [
        {
          "internalType": "uint256",
          "name": "tokenId_",
          "type": "uint256"
        }
      ],
      "name": "tokenURI",
      "outputs": [
        {
          "internalType": "string",
          "name": "uri",
          "type": "string"
        }
      ],
      "stateMutability": "view",
      "type": "function"
    },
    {
      "inputs": [
        {
          "internalType": "address",
          "name": "from",
          "type": "address"
        },
        {
          "internalType": "address",
          "name": "to",
          "type": "address"
        },
        {
          "internalType": "uint256",
          "name": "tokenId",
          "type": "uint256"
        }
      ],
      "name": "transferFrom",
      "outputs": [],
      "stateMutability": "nonpayable",
      "type": "function"
    },
    {
      "inputs": [
        {
          "internalType": "address",
          "name": "newImplementation",
          "type": "address"
        }
      ],
      "name": "upgradeTo",
      "outputs": [],
      "stateMutability": "nonpayable",
      "type": "function"
    },
    {
      "inputs": [
        {
          "internalType": "address",
          "name": "newImplementation",
          "type": "address"
        },
        {
          "internalType": "bytes",
          "name": "data",
          "type": "bytes"
        }
      ],
      "name": "upgradeToAndCall",
      "outputs": [],
      "stateMutability": "payable",
      "type": "function"
    }
  ],
  "bytecode": "0x60a0604052306080523480156200001557600080fd5b506200002062000026565b620000e8565b600054610100900460ff1615620000935760405162461bcd60e51b815260206004820152602760248201527f496e697469616c697a61626c653a20636f6e747261637420697320696e697469604482015266616c697a696e6760c81b606482015260840160405180910390fd5b60005460ff9081161015620000e6576000805460ff191660ff9081179091556040519081527f7f26b83ff96e1f2b6a682f133852f6798a09c465da95921460cefb38474024989060200160405180910390a15b565b6080516153646200012060003960008181610ee601528181610f26015281816110080152818161104801526110d701526153646000f3fe6080604052600436106102885760003560e01c80636352211e1161015a578063b88d4fde116100c1578063dc328fa51161007a578063dc328fa514610816578063e4bab3f514610836578063e8a3d48514610856578063e985e9c51461086b578063ee9b80a4146108b4578063f4a0a528146108d457600080fd5b8063b88d4fde1461073b578063c4b64f261461075b578063c87b56dd14610788578063ca15c873146107a8578063d547741f146107c8578063da430c26146107e857600080fd5b80639010d07c116101135780639010d07c1461068457806391d14854146106a457806395d89b41146106c4578063a217fddf146106d9578063a22cb465146106ee578063b2664c2e1461070e57600080fd5b80636352211e146105cc5780636817c76c146105ec5780636a6278421461060357806370a0823114610623578063785e9e8614610643578063831864651461066457600080fd5b80632d6407cf116101fe57806342966c68116101b757806342966c681461052e5780634f1ef2861461054e57806352d1902d1461056157806352dd29d21461057657806355b094561461058c57806356db61c8146105ac57600080fd5b80632d6407cf1461044b5780632f2ff15d1461048e57806333a512a4146104ae57806336568abe146104ce5780633659cfe6146104ee57806342842e0e1461050e57600080fd5b80630fd7efc4116102505780630fd7efc41461035e578063145f0fa91461038b5780631f917921146103ac5780632114d251146103cc57806323b872dd146103ed578063248a9ca31461040d57600080fd5b806301ffc9a71461028d578063038d18d8146102c257806306fdde03146102e4578063081812fc14610306578063095ea7b31461033e575b600080fd5b34801561029957600080fd5b506102ad6102a8366004613f0b565b6108f4565b60405190151581526020015b60405180910390f35b3480156102ce57600080fd5b506102e26102dd366004613f44565b610905565b005b3480156102f057600080fd5b506102f9610934565b6040516102b99190613faf565b34801561031257600080fd5b50610326610321366004613fc2565b6109c6565b6040516001600160a01b0390911681526020016102b9565b34801561034a57600080fd5b506102e2610359366004613fdb565b6109ed565b34801561036a57600080fd5b5061037e610379366004613f44565b610b07565b6040516102b99190614005565b34801561039757600080fd5b5061019254610326906001600160a01b031681565b3480156103b857600080fd5b506102e26103c7366004614135565b610b74565b3480156103d857600080fd5b5061019a54610326906001600160a01b031681565b3480156103f957600080fd5b506102e2610408366004614169565b610c68565b34801561041957600080fd5b5061043d610428366004613fc2565b60009081526097602052604090206001015490565b6040519081526020016102b9565b34801561045757600080fd5b5061043d610466366004613fdb565b6001600160a01b03909116600090815261019560209081526040808320938352929052205490565b34801561049a57600080fd5b506102e26104a93660046141a5565b610c99565b3480156104ba57600080fd5b506102e26104c9366004614292565b610cbe565b3480156104da57600080fd5b506102e26104e93660046141a5565b610e5e565b3480156104fa57600080fd5b506102e2610509366004613f44565b610edc565b34801561051a57600080fd5b506102e2610529366004614169565b610fbb565b34801561053a57600080fd5b506102e2610549366004613fc2565b610fd6565b6102e261055c3660046143fe565b610ffe565b34801561056d57600080fd5b5061043d6110ca565b34801561058257600080fd5b506101985461043d565b34801561059857600080fd5b506102e26105a736600461444b565b61117d565b3480156105b857600080fd5b506102e26105c73660046144b2565b61133f565b3480156105d857600080fd5b506103266105e7366004613fc2565b61138a565b3480156105f857600080fd5b5061043d6101935481565b34801561060f57600080fd5b506102e261061e366004613f44565b6113ea565b34801561062f57600080fd5b5061043d61063e366004613f44565b611af5565b34801561064f57600080fd5b5061019154610326906001600160a01b031681565b34801561067057600080fd5b506102e261067f366004613fc2565b611b7b565b34801561069057600080fd5b5061032661069f3660046144e5565b611bfc565b3480156106b057600080fd5b506102ad6106bf3660046141a5565b611c1b565b3480156106d057600080fd5b506102f9611c46565b3480156106e557600080fd5b5061043d600081565b3480156106fa57600080fd5b506102e2610709366004614515565b611c55565b34801561071a57600080fd5b5061072e61072936600461454c565b611c60565b6040516102b99190614724565b34801561074757600080fd5b506102e2610756366004614786565b612099565b34801561076757600080fd5b5061077b610776366004613f44565b6120d1565b6040516102b991906147ed565b34801561079457600080fd5b506102f96107a3366004613fc2565b6123fb565b3480156107b457600080fd5b5061043d6107c3366004613fc2565b6124a3565b3480156107d457600080fd5b506102e26107e33660046141a5565b6124ba565b3480156107f457600080fd5b5061043d610803366004613f44565b6101996020526000908152604090205481565b34801561082257600080fd5b506102e26108313660046144b2565b6124df565b34801561084257600080fd5b506102e2610851366004613f44565b612512565b34801561086257600080fd5b506102f961258a565b34801561087757600080fd5b506102ad610886366004614800565b6001600160a01b039182166000908152606a6020908152604080832093909416825291909152205460ff1690565b3480156108c057600080fd5b506102e26108cf366004613f44565b612624565b3480156108e057600080fd5b506102e26108ef366004613fc2565b61269c565b60006108ff826126e8565b92915050565b60006109108161270d565b5061019a80546001600160a01b0319166001600160a01b0392909216919091179055565b6060606580546109439061482a565b80601f016020809104026020016040519081016040528092919081815260200182805461096f9061482a565b80156109bc5780601f10610991576101008083540402835291602001916109bc565b820191906000526020600020905b81548152906001019060200180831161099f57829003601f168201915b5050505050905090565b60006109d182612717565b506000908152606960205260409020546001600160a01b031690565b60006109f88261138a565b9050806001600160a01b0316836001600160a01b031603610a6a5760405162461bcd60e51b815260206004820152602160248201527f4552433732313a20617070726f76616c20746f2063757272656e74206f776e656044820152603960f91b60648201526084015b60405180910390fd5b336001600160a01b0382161480610a865750610a868133610886565b610af85760405162461bcd60e51b815260206004820152603d60248201527f4552433732313a20617070726f76652063616c6c6572206973206e6f7420746f60448201527f6b656e206f776e6572206f7220617070726f76656420666f7220616c6c0000006064820152608401610a61565b610b028383612776565b505050565b6001600160a01b03811660009081526101976020908152604091829020805483518184028101840190945280845260609392830182828015610b6857602002820191906000526020600020905b815481526020019060010190808311610b54575b50505050509050919050565b6000610b7f8161270d565b60006101948054610b8f9061482a565b80601f0160208091040260200160405190810160405280929190818152602001828054610bbb9061482a565b8015610c085780601f10610bdd57610100808354040283529160200191610c08565b820191906000526020600020905b815481529060010190602001808311610beb57829003601f168201915b50505050509050826101949081610c1f91906148b2565b50336001600160a01b03167ffceab947acbd3281d41fa085ba6d9503467fabd9e3d96e3ee0dbf6f8b04a9ca48285604051610c5b929190614971565b60405180910390a2505050565b610c7233826127e4565b610c8e5760405162461bcd60e51b8152600401610a6190614996565b610b02838383612863565b600082815260976020526040902060010154610cb48161270d565b610b0283836129d4565b6000610cc98161270d565b610cd16129f6565b6001600160a01b03831660009081526101966020526040902082518391908190610cfb90826148b2565b5060208201516001820190610d1090826148b2565b5060408201516002820190610d2590826148b2565b5060608201518051610d41916003840191602090910190613dba565b5060808201516004909101805460a084015160c085015160e08601516101008701516101208801516101409098015163ffffffff908116600160c01b0263ffffffff60c01b19998216600160a01b0263ffffffff60a01b19938316600160801b029390931667ffffffffffffffff60801b19948316600160601b0263ffffffff60601b19968416600160401b029690961667ffffffffffffffff60401b199784166401000000000267ffffffffffffffff1990991693909a169290921796909617949094169690961791909117161792909217929092161790556040517f510bfd2054011dabbaa045ac4dd0e4240d49b56398ef864dcfa95abec34b8e4990610e4b9084906147ed565b60405180910390a1610b02600161015f55565b6001600160a01b0381163314610ece5760405162461bcd60e51b815260206004820152602f60248201527f416363657373436f6e74726f6c3a2063616e206f6e6c792072656e6f756e636560448201526e103937b632b9903337b91039b2b63360891b6064820152608401610a61565b610ed88282612a59565b5050565b6001600160a01b037f0000000000000000000000000000000000000000000000000000000000000000163003610f245760405162461bcd60e51b8152600401610a61906149e3565b7f00000000000000000000000000000000000000000000000000000000000000006001600160a01b0316610f6d6000805160206152a8833981519152546001600160a01b031690565b6001600160a01b031614610f935760405162461bcd60e51b8152600401610a6190614a2f565b610f9c81612a7b565b60408051600080825260208201909252610fb891839190612a86565b50565b610b0283838360405180602001604052806000815250612099565b610fde6129f6565b610ff333610fed600080611bfc565b83610fbb565b610fb8600161015f55565b6001600160a01b037f00000000000000000000000000000000000000000000000000000000000000001630036110465760405162461bcd60e51b8152600401610a61906149e3565b7f00000000000000000000000000000000000000000000000000000000000000006001600160a01b031661108f6000805160206152a8833981519152546001600160a01b031690565b6001600160a01b0316146110b55760405162461bcd60e51b8152600401610a6190614a2f565b6110be82612a7b565b610ed882826001612a86565b6000306001600160a01b037f0000000000000000000000000000000000000000000000000000000000000000161461116a5760405162461bcd60e51b815260206004820152603860248201527f555550535570677261646561626c653a206d757374206e6f742062652063616c60448201527f6c6564207468726f7567682064656c656761746563616c6c00000000000000006064820152608401610a61565b506000805160206152a883398151915290565b600054610100900460ff161580801561119d5750600054600160ff909116105b806111b75750303b1580156111b7575060005460ff166001145b61121a5760405162461bcd60e51b815260206004820152602e60248201527f496e697469616c697a61626c653a20636f6e747261637420697320616c72656160448201526d191e481a5b9a5d1a585b1a5e995960921b6064820152608401610a61565b6000805460ff19166001179055801561123d576000805461ff0019166101001790555b6112896040518060400160405280600f81526020016e50726f6d7074204d6f6e737465727360881b8152506040518060400160405280600381526020016226a7a760e91b815250612bf1565b611291612c22565b611299612c22565b6112a1612c4b565b6112ac6000336129d4565b6101946112b986826148b2565b5061019180546001600160a01b038087166001600160a01b0319928316179092556101938590556101928054928516929091169190911790558015611338576000805461ff0019169055604051600181527f7f26b83ff96e1f2b6a682f133852f6798a09c465da95921460cefb38474024989060200160405180910390a15b5050505050565b600061134a8161270d565b6001600160a01b03841660009081526101976020526040902080548391908590811061137857611378614a7b565b60009182526020909120015550505050565b6000818152606760205260408120546001600160a01b0316806108ff5760405162461bcd60e51b8152602060048201526018602482015277115490cdcc8c4e881a5b9d985b1a59081d1bdad95b88125160421b6044820152606401610a61565b61019354610191546040516370a0823160e01b81523360048201526001600160a01b03909116906370a0823190602401602060405180830381865afa158015611437573d6000803e3d6000fd5b505050506040513d601f19601f8201168201806040525081019061145b9190614a91565b10156114bc5760405162461bcd60e51b815260206004820152602a60248201527f50726f6d70744d6f6e73746572733a20696e73756666696369656e742045524360448201526932302062616c616e636560b01b6064820152608401610a61565b6001600160a01b03811660009081526101966020526040808220815161016081019092528054829082906114ef9061482a565b80601f016020809104026020016040519081016040528092919081815260200182805461151b9061482a565b80156115685780601f1061153d57610100808354040283529160200191611568565b820191906000526020600020905b81548152906001019060200180831161154b57829003601f168201915b505050505081526020016001820180546115819061482a565b80601f01602080910402602001604051908101604052809291908181526020018280546115ad9061482a565b80156115fa5780601f106115cf576101008083540402835291602001916115fa565b820191906000526020600020905b8154815290600101906020018083116115dd57829003601f168201915b505050505081526020016002820180546116139061482a565b80601f016020809104026020016040519081016040528092919081815260200182805461163f9061482a565b801561168c5780601f106116615761010080835404028352916020019161168c565b820191906000526020600020905b81548152906001019060200180831161166f57829003601f168201915b5050505050815260200160038201805480602002602001604051908101604052809291908181526020016000905b828210156117665783829060005260206000200180546116d99061482a565b80601f01602080910402602001604051908101604052809291908181526020018280546117059061482a565b80156117525780601f1061172757610100808354040283529160200191611752565b820191906000526020600020905b81548152906001019060200180831161173557829003601f168201915b5050505050815260200190600101906116ba565b505050908252506004919091015463ffffffff8082166020840152640100000000820481166040840152600160401b820481166060840152600160601b82048116608080850191909152600160801b8304821660a0850152600160a01b8304821660c0850152600160c01b909204811660e090930192909252820151919250166000036118465760405162461bcd60e51b815260206004820152602860248201527f50726f6d70744d6f6e73746572733a206d6f6e73746572206973206e6f742067604482015267195b995c985d195960c21b6064820152608401610a61565b61019854600181016118a85760405162461bcd60e51b815260206004820152602560248201527f50726f6d70744d6f6e73746572733a20746f6b656e20494420697320746f6f206044820152646c6172676560d81b6064820152608401610a61565b6101988054600181018255600091909152825183916005027f3f539f465397ab387efa93a617e37005205c037386b5b474fcfac82f47f77f0d019081906118ef90826148b2565b506020820151600182019061190490826148b2565b506040820151600282019061191990826148b2565b5060608201518051611935916003840191602090910190613dba565b5060808201516004909101805460a084015160c085015160e08601516101008701516101208801516101409098015163ffffffff908116600160c01b0263ffffffff60c01b19998216600160a01b0263ffffffff60a01b19938316600160801b029390931667ffffffffffffffff60801b19948316600160601b0263ffffffff60601b19968416600160401b029690961667ffffffffffffffff60401b199784166401000000000267ffffffffffffffff1990991693909a169290921796909617949094169690961791909117161792909217929092161790556001600160a01b038316600090815261019960209081526040808320849055610196909152812090611a418282613e10565b611a4f600183016000613e10565b611a5d600283016000613e10565b611a6b600383016000613e4a565b5060040180546001600160e01b0319169055610192546101935461019154611aa4926001600160a01b0391821692339290911690612c7a565b611aae3382612cd4565b80336001600160a01b03167fc6c4718f17c6ea8362f0264119a62a3048495821d7fe897562ac287bb681811284604051611ae891906147ed565b60405180910390a3505050565b60006001600160a01b038216611b5f5760405162461bcd60e51b815260206004820152602960248201527f4552433732313a2061646472657373207a65726f206973206e6f7420612076616044820152683634b21037bbb732b960b91b6064820152608401610a61565b506001600160a01b031660009081526068602052604090205490565b6000818152606760205260409020546001600160a01b0316151580611ba1575060001981145b610fb85760405162461bcd60e51b815260206004820152602660248201527f50726f6d70744d6f6e73746572733a206d6f6e7374657220646f6573206e6f7460448201526508195e1a5cdd60d21b6064820152608401610a61565b600082815260c960205260408120611c149083612cee565b9392505050565b60009182526097602090815260408084206001600160a01b0393909316845291905290205460ff1690565b6060606680546109439061482a565b610ed8338383612cfa565b80516101985460609190811115611ccd5760405162461bcd60e51b815260206004820152602b60248201527f50726f6d70744d6f6e73746572733a20746f6b656e4964734c656e677468206960448201526a7320746f6f206c6172676560a81b6064820152608401610a61565b806001600160401b03811115611ce557611ce5614049565b604051908082528060200260200182016040528015611d1e57816020015b611d0b613e68565b815260200190600190039081611d035790505b50915060005b8181101561209257610198848281518110611d4157611d41614a7b565b602002602001015181548110611d5957611d59614a7b565b906000526020600020906005020160405180610160016040529081600082018054611d839061482a565b80601f0160208091040260200160405190810160405280929190818152602001828054611daf9061482a565b8015611dfc5780601f10611dd157610100808354040283529160200191611dfc565b820191906000526020600020905b815481529060010190602001808311611ddf57829003601f168201915b50505050508152602001600182018054611e159061482a565b80601f0160208091040260200160405190810160405280929190818152602001828054611e419061482a565b8015611e8e5780601f10611e6357610100808354040283529160200191611e8e565b820191906000526020600020905b815481529060010190602001808311611e7157829003601f168201915b50505050508152602001600282018054611ea79061482a565b80601f0160208091040260200160405190810160405280929190818152602001828054611ed39061482a565b8015611f205780601f10611ef557610100808354040283529160200191611f20565b820191906000526020600020905b815481529060010190602001808311611f0357829003601f168201915b5050505050815260200160038201805480602002602001604051908101604052809291908181526020016000905b82821015611ffa578382906000526020600020018054611f6d9061482a565b80601f0160208091040260200160405190810160405280929190818152602001828054611f999061482a565b8015611fe65780601f10611fbb57610100808354040283529160200191611fe6565b820191906000526020600020905b815481529060010190602001808311611fc957829003601f168201915b505050505081526020019060010190611f4e565b505050908252506004919091015463ffffffff8082166020840152640100000000820481166040840152600160401b820481166060840152600160601b820481166080840152600160801b8204811660a0840152600160a01b8204811660c0840152600160c01b9091041660e090910152835184908390811061207f5761207f614a7b565b6020908102919091010152600101611d24565b5050919050565b6120a333836127e4565b6120bf5760405162461bcd60e51b8152600401610a6190614996565b6120cb84848484612dc0565b50505050565b6120d9613e68565b6001600160a01b03821660009081526101966020526040908190208151610160810190925280548290829061210d9061482a565b80601f01602080910402602001604051908101604052809291908181526020018280546121399061482a565b80156121865780601f1061215b57610100808354040283529160200191612186565b820191906000526020600020905b81548152906001019060200180831161216957829003601f168201915b5050505050815260200160018201805461219f9061482a565b80601f01602080910402602001604051908101604052809291908181526020018280546121cb9061482a565b80156122185780601f106121ed57610100808354040283529160200191612218565b820191906000526020600020905b8154815290600101906020018083116121fb57829003601f168201915b505050505081526020016002820180546122319061482a565b80601f016020809104026020016040519081016040528092919081815260200182805461225d9061482a565b80156122aa5780601f1061227f576101008083540402835291602001916122aa565b820191906000526020600020905b81548152906001019060200180831161228d57829003601f168201915b5050505050815260200160038201805480602002602001604051908101604052809291908181526020016000905b828210156123845783829060005260206000200180546122f79061482a565b80601f01602080910402602001604051908101604052809291908181526020018280546123239061482a565b80156123705780601f1061234557610100808354040283529160200191612370565b820191906000526020600020905b81548152906001019060200180831161235357829003601f168201915b5050505050815260200190600101906122d8565b505050908252506004919091015463ffffffff8082166020840152640100000000820481166040840152600160401b820481166060840152600160601b820481166080840152600160801b8204811660a0840152600160a01b8204811660c0840152600160c01b9091041660e09091015292915050565b606061240682612717565b61019a5461019880546001600160a01b039092169163b688876c9185918290811061243357612433614a7b565b90600052602060002090600502016040518363ffffffff1660e01b815260040161245e929190614b73565b600060405180830381865afa15801561247b573d6000803e3d6000fd5b505050506040513d6000823e601f3d908101601f191682016040526108ff9190810190614c4f565b600081815260c9602052604081206108ff90612df3565b6000828152609760205260409020600101546124d58161270d565b610b028383612a59565b60006124ea8161270d565b506001600160a01b039092166000908152610195602090815260408083209383529290522055565b600061251d8161270d565b61019280546001600160a01b038481166001600160a01b0319831617909255166125443390565b604080516001600160a01b038481168252868116602083015292909216917fc791f304f706b4012579cd651a8a0d930c30d117f42ee74327000e3fc75bfbbc9101610c5b565b60606000612596610934565b90506000816040516020016125ab9190614cbc565b604051602081830303815290604052905060006125f683846125cc85612dfd565b6101946040516020016125e29493929190614e69565b604051602081830303815290604052612dfd565b905060008160405160200161260b9190614fd6565b60408051601f1981840301815291905295945050505050565b600061262f8161270d565b61019180546001600160a01b038481166001600160a01b0319831617909255166126563390565b604080516001600160a01b038481168252868116602083015292909216917f5ebe54482b2a8120482902e3bfe9ca1a913e9987bcb1f18c974dae585132a9549101610c5b565b60006126a78161270d565b610193805490839055604080518281526020810185905233917f55cc83342b4c144a74960fdf0dfe1a7af4cbb77aaccb471b088d5fe0bdad1d4c9101610c5b565b60006001600160e01b03198216635a05180f60e01b14806108ff57506108ff82612f4f565b610fb88133612f74565b6000818152606760205260409020546001600160a01b0316610fb85760405162461bcd60e51b8152602060048201526018602482015277115490cdcc8c4e881a5b9d985b1a59081d1bdad95b88125160421b6044820152606401610a61565b600081815260696020526040902080546001600160a01b0319166001600160a01b03841690811790915581906127ab8261138a565b6001600160a01b03167f8c5be1e5ebec7d5bd14f71427d1e84f3dd0314c0f7b2291e5b200ac8c7c3b92560405160405180910390a45050565b6000806127f08361138a565b9050806001600160a01b0316846001600160a01b0316148061283757506001600160a01b038082166000908152606a602090815260408083209388168352929052205460ff165b8061285b5750836001600160a01b0316612850846109c6565b6001600160a01b0316145b949350505050565b826001600160a01b03166128768261138a565b6001600160a01b03161461289c5760405162461bcd60e51b8152600401610a619061501b565b6001600160a01b0382166128fe5760405162461bcd60e51b8152602060048201526024808201527f4552433732313a207472616e7366657220746f20746865207a65726f206164646044820152637265737360e01b6064820152608401610a61565b61290b8383836001612fcd565b826001600160a01b031661291e8261138a565b6001600160a01b0316146129445760405162461bcd60e51b8152600401610a619061501b565b600081815260696020908152604080832080546001600160a01b03199081169091556001600160a01b0387811680865260688552838620805460001901905590871680865283862080546001019055868652606790945282852080549092168417909155905184937fddf252ad1be2c89b69c2b068fc378daa952ba7f163c4a11628f55a4df523b3ef91a4505050565b6129de8282613016565b600082815260c960205260409020610b02908261309c565b600261015f5403612a495760405162461bcd60e51b815260206004820152601f60248201527f5265656e7472616e637947756172643a207265656e7472616e742063616c6c006044820152606401610a61565b600261015f55565b600161015f55565b612a6382826130b1565b600082815260c960205260409020610b029082613118565b6000610ed88161270d565b7f4910fdfa16fed3260ed0e7147f7cc6da11a60208b5b9406d12a635614ffd91435460ff1615612ab957610b028361312d565b826001600160a01b03166352d1902d6040518163ffffffff1660e01b8152600401602060405180830381865afa925050508015612b13575060408051601f3d908101601f19168201909252612b1091810190614a91565b60015b612b765760405162461bcd60e51b815260206004820152602e60248201527f45524331393637557067726164653a206e657720696d706c656d656e7461746960448201526d6f6e206973206e6f74205555505360901b6064820152608401610a61565b6000805160206152a88339815191528114612be55760405162461bcd60e51b815260206004820152602960248201527f45524331393637557067726164653a20756e737570706f727465642070726f786044820152681a58589b195555525160ba1b6064820152608401610a61565b50610b028383836131c9565b600054610100900460ff16612c185760405162461bcd60e51b8152600401610a6190615060565b610ed882826131ee565b600054610100900460ff16612c495760405162461bcd60e51b8152600401610a6190615060565b565b600054610100900460ff16612c725760405162461bcd60e51b8152600401610a6190615060565b612c4961322e565b604080516001600160a01b0385811660248301528416604482015260648082018490528251808303909101815260849091019091526020810180516001600160e01b03166323b872dd60e01b1790526120cb908590613255565b610ed8828260405180602001604052806000815250613327565b6000611c14838361335a565b816001600160a01b0316836001600160a01b031603612d5b5760405162461bcd60e51b815260206004820152601960248201527f4552433732313a20617070726f766520746f2063616c6c6572000000000000006044820152606401610a61565b6001600160a01b038381166000818152606a6020908152604080832094871680845294825291829020805460ff191686151590811790915591519182527f17307eab39ab6107e8899845ad3d59bd9653f200f220920489ca2b5937696c319101611ae8565b612dcb848484612863565b612dd784848484613384565b6120cb5760405162461bcd60e51b8152600401610a61906150ab565b60006108ff825490565b60608151600003612e1c57505060408051602081019091526000815290565b60006040518060600160405280604081526020016152c86040913990506000600384516002612e4b9190615113565b612e559190615126565b612e60906004615148565b6001600160401b03811115612e7757612e77614049565b6040519080825280601f01601f191660200182016040528015612ea1576020820181803683370190505b509050600182016020820185865187015b80821015612f0d576003820191508151603f8160121c168501518453600184019350603f81600c1c168501518453600184019350603f8160061c168501518453600184019350603f8116850151845350600183019250612eb2565b5050600386510660018114612f295760028114612f3c57612f44565b603d6001830353603d6002830353612f44565b603d60018303535b509195945050505050565b60006001600160e01b03198216637965db0b60e01b14806108ff57506108ff82613485565b612f7e8282611c1b565b610ed857612f8b816134d5565b612f968360206134e7565b604051602001612fa792919061515f565b60408051601f198184030181529082905262461bcd60e51b8252610a6191600401613faf565b6001600160a01b038416612fea57612fe58383613682565b6120cb565b6001600160a01b03831661300257612fe584836136c7565b61300c84836136c7565b612fe58383613682565b6130208282611c1b565b610ed85760008281526097602090815260408083206001600160a01b03851684529091529020805460ff191660011790556130583390565b6001600160a01b0316816001600160a01b0316837f2f8788117e7eff1d82e926ec794901d17c78024a50270940304540a733656f0d60405160405180910390a45050565b6000611c14836001600160a01b038416613805565b6130bb8282611c1b565b15610ed85760008281526097602090815260408083206001600160a01b0385168085529252808320805460ff1916905551339285917ff6391f5c32d9c69d2a47ea670b442974b53935d1edc7fd64eb21e047a839171b9190a45050565b6000611c14836001600160a01b038416613854565b6001600160a01b0381163b61319a5760405162461bcd60e51b815260206004820152602d60248201527f455243313936373a206e657720696d706c656d656e746174696f6e206973206e60448201526c1bdd08184818dbdb9d1c9858dd609a1b6064820152608401610a61565b6000805160206152a883398151915280546001600160a01b0319166001600160a01b0392909216919091179055565b6131d283613947565b6000825111806131df5750805b15610b02576120cb8383613987565b600054610100900460ff166132155760405162461bcd60e51b8152600401610a6190615060565b606561322183826148b2565b506066610b0282826148b2565b600054610100900460ff16612a515760405162461bcd60e51b8152600401610a6190615060565b60006132aa826040518060400160405280602081526020017f5361666545524332303a206c6f772d6c6576656c2063616c6c206661696c6564815250856001600160a01b0316613a7b9092919063ffffffff16565b805190915015610b0257808060200190518101906132c891906151d4565b610b025760405162461bcd60e51b815260206004820152602a60248201527f5361666545524332303a204552433230206f7065726174696f6e20646964206e6044820152691bdd081cdd58d8d9595960b21b6064820152608401610a61565b6133318383613a8a565b61333e6000848484613384565b610b025760405162461bcd60e51b8152600401610a61906150ab565b600082600001828154811061337157613371614a7b565b9060005260206000200154905092915050565b60006001600160a01b0384163b1561347a57604051630a85bd0160e11b81526001600160a01b0385169063150b7a02906133c89033908990889088906004016151f1565b6020604051808303816000875af1925050508015613403575060408051601f3d908101601f191682019092526134009181019061522e565b60015b613460573d808015613431576040519150601f19603f3d011682016040523d82523d6000602084013e613436565b606091505b5080516000036134585760405162461bcd60e51b8152600401610a61906150ab565b805181602001fd5b6001600160e01b031916630a85bd0160e11b14905061285b565b506001949350505050565b60006001600160e01b031982166380ac58cd60e01b14806134b657506001600160e01b03198216635b5e139f60e01b145b806108ff57506301ffc9a760e01b6001600160e01b03198316146108ff565b60606108ff6001600160a01b03831660145b606060006134f6836002615148565b613501906002615113565b6001600160401b0381111561351857613518614049565b6040519080825280601f01601f191660200182016040528015613542576020820181803683370190505b509050600360fc1b8160008151811061355d5761355d614a7b565b60200101906001600160f81b031916908160001a905350600f60fb1b8160018151811061358c5761358c614a7b565b60200101906001600160f81b031916908160001a90535060006135b0846002615148565b6135bb906001615113565b90505b6001811115613633576f181899199a1a9b1b9c1cb0b131b232b360811b85600f16601081106135ef576135ef614a7b565b1a60f81b82828151811061360557613605614a7b565b60200101906001600160f81b031916908160001a90535060049490941c9361362c8161524b565b90506135be565b508315611c145760405162461bcd60e51b815260206004820181905260248201527f537472696e67733a20686578206c656e67746820696e73756666696369656e746044820152606401610a61565b6001600160a01b039091166000908152610197602081815260408084208054610195845282862087875284529185208290559282526001810183559183529091200155565b6001600160a01b03821660009081526101976020526040812080546136ee90600190615262565b815481106136fe576136fe614a7b565b60009182526020808320909101546001600160a01b038616835261019582526040808420868552909252912054909150828214613770576001600160a01b03841660009081526101976020526040902080548391908390811061376357613763614a7b565b6000918252602090912001555b6001600160a01b03841660009081526101976020526040902080548061379857613798615275565b6000828152602080822083016000199081018390559092019092556001600160a01b0386168252610195815260408083208684529091528120558183146120cb576001600160a01b0393909316600090815261019560209081526040808320938352929052209190915550565b600081815260018301602052604081205461384c575081546001818101845560008481526020808220909301849055845484825282860190935260409020919091556108ff565b5060006108ff565b6000818152600183016020526040812054801561393d576000613878600183615262565b855490915060009061388c90600190615262565b90508181146138f15760008660000182815481106138ac576138ac614a7b565b90600052602060002001549050808760000184815481106138cf576138cf614a7b565b6000918252602080832090910192909255918252600188019052604090208390555b855486908061390257613902615275565b6001900381819060005260206000200160009055905585600101600086815260200190815260200160002060009055600193505050506108ff565b60009150506108ff565b6139508161312d565b6040516001600160a01b038216907fbc7cd75a20ee27fd9adebab32041f755214dbc6bffa90cc0225b39da2e5c2d3b90600090a250565b60606001600160a01b0383163b6139ef5760405162461bcd60e51b815260206004820152602660248201527f416464726573733a2064656c65676174652063616c6c20746f206e6f6e2d636f6044820152651b9d1c9858dd60d21b6064820152608401610a61565b600080846001600160a01b031684604051613a0a919061528b565b600060405180830381855af49150503d8060008114613a45576040519150601f19603f3d011682016040523d82523d6000602084013e613a4a565b606091505b5091509150613a72828260405180606001604052806027815260200161530860279139613c23565b95945050505050565b606061285b8484600085613c3c565b6001600160a01b038216613ae05760405162461bcd60e51b815260206004820181905260248201527f4552433732313a206d696e7420746f20746865207a65726f20616464726573736044820152606401610a61565b6000818152606760205260409020546001600160a01b031615613b455760405162461bcd60e51b815260206004820152601c60248201527f4552433732313a20746f6b656e20616c7265616479206d696e746564000000006044820152606401610a61565b613b53600083836001612fcd565b6000818152606760205260409020546001600160a01b031615613bb85760405162461bcd60e51b815260206004820152601c60248201527f4552433732313a20746f6b656e20616c7265616479206d696e746564000000006044820152606401610a61565b6001600160a01b038216600081815260686020908152604080832080546001019055848352606790915280822080546001600160a01b0319168417905551839291907fddf252ad1be2c89b69c2b068fc378daa952ba7f163c4a11628f55a4df523b3ef908290a45050565b60608315613c32575081611c14565b611c148383613d17565b606082471015613c9d5760405162461bcd60e51b815260206004820152602660248201527f416464726573733a20696e73756666696369656e742062616c616e636520666f6044820152651c8818d85b1b60d21b6064820152608401610a61565b600080866001600160a01b03168587604051613cb9919061528b565b60006040518083038185875af1925050503d8060008114613cf6576040519150601f19603f3d011682016040523d82523d6000602084013e613cfb565b606091505b5091509150613d0c87838387613d41565b979650505050505050565b815115613d275781518083602001fd5b8060405162461bcd60e51b8152600401610a619190613faf565b60608315613db0578251600003613da9576001600160a01b0385163b613da95760405162461bcd60e51b815260206004820152601d60248201527f416464726573733a2063616c6c20746f206e6f6e2d636f6e74726163740000006044820152606401610a61565b508161285b565b61285b8383613d17565b828054828255906000526020600020908101928215613e00579160200282015b82811115613e005782518290613df090826148b2565b5091602001919060010190613dda565b50613e0c929150613ec3565b5090565b508054613e1c9061482a565b6000825580601f10613e2c575050565b601f016020900490600052602060002090810190610fb89190613ee0565b5080546000825590600052602060002090810190610fb89190613ec3565b60408051610160810182526060808252602082018190529181018290528181019190915260006080820181905260a0820181905260c0820181905260e082018190526101008201819052610120820181905261014082015290565b80821115613e0c576000613ed78282613e10565b50600101613ec3565b5b80821115613e0c5760008155600101613ee1565b6001600160e01b031981168114610fb857600080fd5b600060208284031215613f1d57600080fd5b8135611c1481613ef5565b80356001600160a01b0381168114613f3f57600080fd5b919050565b600060208284031215613f5657600080fd5b611c1482613f28565b60005b83811015613f7a578181015183820152602001613f62565b50506000910152565b60008151808452613f9b816020860160208601613f5f565b601f01601f19169290920160200192915050565b602081526000611c146020830184613f83565b600060208284031215613fd457600080fd5b5035919050565b60008060408385031215613fee57600080fd5b613ff783613f28565b946020939093013593505050565b6020808252825182820181905260009190848201906040850190845b8181101561403d57835183529284019291840191600101614021565b50909695505050505050565b634e487b7160e01b600052604160045260246000fd5b60405161016081016001600160401b038111828210171561408257614082614049565b60405290565b604051601f8201601f191681016001600160401b03811182821017156140b0576140b0614049565b604052919050565b60006001600160401b038211156140d1576140d1614049565b50601f01601f191660200190565b600082601f8301126140f057600080fd5b81356141036140fe826140b8565b614088565b81815284602083860101111561411857600080fd5b816020850160208301376000918101602001919091529392505050565b60006020828403121561414757600080fd5b81356001600160401b0381111561415d57600080fd5b61285b848285016140df565b60008060006060848603121561417e57600080fd5b61418784613f28565b925061419560208501613f28565b9150604084013590509250925092565b600080604083850312156141b857600080fd5b823591506141c860208401613f28565b90509250929050565b60006001600160401b038211156141ea576141ea614049565b5060051b60200190565b600082601f83011261420557600080fd5b813560206142156140fe836141d1565b82815260059290921b8401810191818101908684111561423457600080fd5b8286015b848110156142735780356001600160401b038111156142575760008081fd5b6142658986838b01016140df565b845250918301918301614238565b509695505050505050565b803563ffffffff81168114613f3f57600080fd5b600080604083850312156142a557600080fd5b6142ae83613f28565b915060208301356001600160401b03808211156142ca57600080fd5b9084019061016082870312156142df57600080fd5b6142e761405f565b8235828111156142f657600080fd5b614302888286016140df565b82525060208301358281111561431757600080fd5b614323888286016140df565b60208301525060408301358281111561433b57600080fd5b614347888286016140df565b60408301525060608301358281111561435f57600080fd5b61436b888286016141f4565b60608301525061437d6080840161427e565b608082015261438e60a0840161427e565b60a082015261439f60c0840161427e565b60c08201526143b060e0840161427e565b60e082015261010091506143c582840161427e565b8282015261012091506143d982840161427e565b8282015261014091506143ed82840161427e565b828201528093505050509250929050565b6000806040838503121561441157600080fd5b61441a83613f28565b915060208301356001600160401b0381111561443557600080fd5b614441858286016140df565b9150509250929050565b6000806000806080858703121561446157600080fd5b84356001600160401b0381111561447757600080fd5b614483878288016140df565b94505061449260208601613f28565b9250604085013591506144a760608601613f28565b905092959194509250565b6000806000606084860312156144c757600080fd5b6144d084613f28565b95602085013595506040909401359392505050565b600080604083850312156144f857600080fd5b50508035926020909101359150565b8015158114610fb857600080fd5b6000806040838503121561452857600080fd5b61453183613f28565b9150602083013561454181614507565b809150509250929050565b6000602080838503121561455f57600080fd5b82356001600160401b0381111561457557600080fd5b8301601f8101851361458657600080fd5b80356145946140fe826141d1565b81815260059190911b820183019083810190878311156145b357600080fd5b928401925b82841015613d0c578335825292840192908401906145b8565b600081518084526020808501808196508360051b8101915082860160005b85811015614619578284038952614607848351613f83565b988501989350908401906001016145ef565b5091979650505050505050565b6000610160825181855261463c82860182613f83565b915050602083015184820360208601526146568282613f83565b915050604083015184820360408601526146708282613f83565b9150506060830151848203606086015261468a82826145d1565b91505060808301516146a4608086018263ffffffff169052565b5060a08301516146bc60a086018263ffffffff169052565b5060c08301516146d460c086018263ffffffff169052565b5060e08301516146ec60e086018263ffffffff169052565b506101008381015163ffffffff9081169186019190915261012080850151821690860152610140938401511692909301919091525090565b6000602080830181845280855180835260408601915060408160051b870101925083870160005b8281101561477957603f19888603018452614767858351614626565b9450928501929085019060010161474b565b5092979650505050505050565b6000806000806080858703121561479c57600080fd5b6147a585613f28565b93506147b360208601613f28565b92506040850135915060608501356001600160401b038111156147d557600080fd5b6147e1878288016140df565b91505092959194509250565b602081526000611c146020830184614626565b6000806040838503121561481357600080fd5b61481c83613f28565b91506141c860208401613f28565b600181811c9082168061483e57607f821691505b60208210810361485e57634e487b7160e01b600052602260045260246000fd5b50919050565b601f821115610b0257600081815260208120601f850160051c8101602086101561488b5750805b601f850160051c820191505b818110156148aa57828155600101614897565b505050505050565b81516001600160401b038111156148cb576148cb614049565b6148df816148d9845461482a565b84614864565b602080601f83116001811461491457600084156148fc5750858301515b600019600386901b1c1916600185901b1785556148aa565b600085815260208120601f198616915b8281101561494357888601518255948401946001909101908401614924565b50858210156149615787850151600019600388901b60f8161c191681555b5050505050600190811b01905550565b6040815260006149846040830185613f83565b8281036020840152613a728185613f83565b6020808252602d908201527f4552433732313a2063616c6c6572206973206e6f7420746f6b656e206f776e6560408201526c1c881bdc88185c1c1c9bdd9959609a1b606082015260800190565b6020808252602c908201527f46756e6374696f6e206d7573742062652063616c6c6564207468726f7567682060408201526b19195b1959d85d1958d85b1b60a21b606082015260800190565b6020808252602c908201527f46756e6374696f6e206d7573742062652063616c6c6564207468726f7567682060408201526b6163746976652070726f787960a01b606082015260800190565b634e487b7160e01b600052603260045260246000fd5b600060208284031215614aa357600080fd5b5051919050565b60008154614ab78161482a565b808552602060018381168015614ad45760018114614aee57614b1c565b60ff1985168884015283151560051b880183019550614b1c565b866000528260002060005b85811015614b145781548a8201860152908301908401614af9565b890184019650505b505050505092915050565b600081548084526020808501808196508360051b81019150856000528260002060005b85811015614619578284038952614b618483614aaa565b98850198935060019182019101614b4a565b828152604060208201526000610160806040840152614b966101a0840185614aaa565b603f1980858303016060860152614bb08260018801614aaa565b915080858303016080860152614bc98260028801614aaa565b9150808583030160a086015250614be38160038701614b27565b600486015463ffffffff80821660c0880152602082901c811660e0880152604082901c8116610100880152606082901c8116610120880152608082901c811661014088015260a082901c8116858801529192509061403d6101808701828460c01c1663ffffffff169052565b600060208284031215614c6157600080fd5b81516001600160401b03811115614c7757600080fd5b8201601f81018413614c8857600080fd5b8051614c966140fe826140b8565b818152856020838501011115614cab57600080fd5b613a72826020830160208601613f5f565b7f3c73766720786d6c6e733d27687474703a2f2f7777772e77332e6f72672f323081527f30302f73766727207072657365727665417370656374526174696f3d27784d6960208201527f6e594d696e206d656574272076696577426f783d27302030203335302033353060408201527f273e3c7374796c653e2e62617365207b2066696c6c3a2077686974653b20666f60608201527f6e742d66616d696c793a2073657269663b20666f6e742d73697a653a2032347060808201527f783b207d3c2f7374796c653e3c726563742077696474683d273130302527206860a08201527f65696768743d2731303025272066696c6c3d27626c61636b27202f3e3c74657860c08201527f7420783d273530252720793d273530252720636c6173733d276261736527206460e08201527f6f6d696e616e742d626173656c696e653d276d6964646c652720746578742d616101008201526e3731b437b91e93b6b4b2323632939f60891b610120820152600061012f8351614e408183860160208801613f5f565b8301614e5d8282016c1e17ba32bc3a1f1e17b9bb339f60991b9052565b61013c01949350505050565b693d913730b6b2911d101160b11b815284516000906020614e9082600a8601838b01613f5f565b72111610113232b9b1b934b83a34b7b7111d101160691b600a928501928301528651614ec281601d8501848b01613f5f565b7f2069732047656e657261746976652041492047616d652e222c2022696d616765601d93909101928301527f223a2022646174613a696d6167652f7376672b786d6c3b6261736536342c0000603d8301528551614f2581605b8501848a01613f5f565b741116101132bc3a32b93730b62fb634b735911d101160591b605b93909101928301528454607090600090614f598161482a565b60018281168015614f715760018114614f8a57614fba565b60ff198416888701528215158302880186019450614fba565b8a6000528660002060005b84811015614fb05781548a8201890152908301908801614f95565b5050858389010194505b505061227d60f01b835250506002019998505050505050505050565b7f646174613a6170706c69636174696f6e2f6a736f6e3b6261736536342c00000081526000825161500e81601d850160208701613f5f565b91909101601d0192915050565b60208082526025908201527f4552433732313a207472616e736665722066726f6d20696e636f72726563742060408201526437bbb732b960d91b606082015260800190565b6020808252602b908201527f496e697469616c697a61626c653a20636f6e7472616374206973206e6f74206960408201526a6e697469616c697a696e6760a81b606082015260800190565b60208082526032908201527f4552433732313a207472616e7366657220746f206e6f6e20455243373231526560408201527131b2b4bb32b91034b6b83632b6b2b73a32b960711b606082015260800190565b634e487b7160e01b600052601160045260246000fd5b808201808211156108ff576108ff6150fd565b60008261514357634e487b7160e01b600052601260045260246000fd5b500490565b80820281158282048414176108ff576108ff6150fd565b7f416363657373436f6e74726f6c3a206163636f756e7420000000000000000000815260008351615197816017850160208801613f5f565b7001034b99036b4b9b9b4b733903937b6329607d1b60179184019182015283516151c8816028840160208801613f5f565b01602801949350505050565b6000602082840312156151e657600080fd5b8151611c1481614507565b6001600160a01b038581168252841660208201526040810183905260806060820181905260009061522490830184613f83565b9695505050505050565b60006020828403121561524057600080fd5b8151611c1481613ef5565b60008161525a5761525a6150fd565b506000190190565b818103818111156108ff576108ff6150fd565b634e487b7160e01b600052603160045260246000fd5b6000825161529d818460208701613f5f565b919091019291505056fe360894a13ba1a3210667c828492db98dca3e2076cc3735a920a3ca505d382bbc4142434445464748494a4b4c4d4e4f505152535455565758595a6162636465666768696a6b6c6d6e6f707172737475767778797a303132333435363738392b2f416464726573733a206c6f772d6c6576656c2064656c65676174652063616c6c206661696c6564a26469706673582212206cdf9d551c72b16b17790e13a250ad09d45d9990aea08e440af9db453a79ab4f64736f6c63430008120033",
  "linkReferences": {},
  "deployedLinkReferences": {}
}