{
  "_format": "hh-sol-artifact-1",
  "contractName": "Stamina",
  "sourceName": "contracts/stamina/Stamina.sol",
  "abi": [
    {
      "inputs": [],
      "stateMutability": "nonpayable",
      "type": "constructor"
    },
    {
      "anonymous": false,
      "inputs": [
        {
          "indexed": false,
          "internalType": "address",
          "name": "previousAdmin",
          "type": "address"
        },
        {
          "indexed": false,
          "internalType": "address",
          "name": "newAdmin",
          "type": "address"
        }
      ],
      "name": "AdminChanged",
      "type": "event"
    },
    {
      "anonymous": false,
      "inputs": [
        {
          "indexed": true,
          "internalType": "address",
          "name": "beacon",
          "type": "address"
        }
      ],
      "name": "BeaconUpgraded",
      "type": "event"
    },
    {
      "anonymous": false,
      "inputs": [
        {
          "indexed": true,
          "internalType": "uint256",
          "name": "monsterId",
          "type": "uint256"
        },
        {
          "indexed": true,
          "internalType": "uint256",
          "name": "consumedStamina",
          "type": "uint256"
        },
        {
          "indexed": true,
          "internalType": "uint256",
          "name": "newTimeStd",
          "type": "uint256"
        }
      ],
      "name": "ConsumeStamina",
      "type": "event"
    },
    {
      "anonymous": false,
      "inputs": [
        {
          "indexed": false,
          "internalType": "uint8",
          "name": "version",
          "type": "uint8"
        }
      ],
      "name": "Initialized",
      "type": "event"
    },
    {
      "anonymous": false,
      "inputs": [
        {
          "indexed": true,
          "internalType": "address",
          "name": "publisher",
          "type": "address"
        },
        {
          "indexed": true,
          "internalType": "uint256",
          "name": "monsterId",
          "type": "uint256"
        },
        {
          "indexed": true,
          "internalType": "uint256",
          "name": "restorePrice",
          "type": "uint256"
        },
        {
          "indexed": false,
          "internalType": "uint256",
          "name": "timeStd",
          "type": "uint256"
        }
      ],
      "name": "RestoredStamina",
      "type": "event"
    },
    {
      "anonymous": false,
      "inputs": [
        {
          "indexed": true,
          "internalType": "bytes32",
          "name": "role",
          "type": "bytes32"
        },
        {
          "indexed": true,
          "internalType": "bytes32",
          "name": "previousAdminRole",
          "type": "bytes32"
        },
        {
          "indexed": true,
          "internalType": "bytes32",
          "name": "newAdminRole",
          "type": "bytes32"
        }
      ],
      "name": "RoleAdminChanged",
      "type": "event"
    },
    {
      "anonymous": false,
      "inputs": [
        {
          "indexed": true,
          "internalType": "bytes32",
          "name": "role",
          "type": "bytes32"
        },
        {
          "indexed": true,
          "internalType": "address",
          "name": "account",
          "type": "address"
        },
        {
          "indexed": true,
          "internalType": "address",
          "name": "sender",
          "type": "address"
        }
      ],
      "name": "RoleGranted",
      "type": "event"
    },
    {
      "anonymous": false,
      "inputs": [
        {
          "indexed": true,
          "internalType": "bytes32",
          "name": "role",
          "type": "bytes32"
        },
        {
          "indexed": true,
          "internalType": "address",
          "name": "account",
          "type": "address"
        },
        {
          "indexed": true,
          "internalType": "address",
          "name": "sender",
          "type": "address"
        }
      ],
      "name": "RoleRevoked",
      "type": "event"
    },
    {
      "anonymous": false,
      "inputs": [
        {
          "indexed": true,
          "internalType": "address",
          "name": "publisher",
          "type": "address"
        },
        {
          "indexed": false,
          "internalType": "address",
          "name": "oldValue",
          "type": "address"
        },
        {
          "indexed": false,
          "internalType": "address",
          "name": "newValue",
          "type": "address"
        }
      ],
      "name": "SetErc20",
      "type": "event"
    },
    {
      "anonymous": false,
      "inputs": [
        {
          "indexed": true,
          "internalType": "address",
          "name": "publisher",
          "type": "address"
        },
        {
          "indexed": true,
          "internalType": "address",
          "name": "newValue",
          "type": "address"
        }
      ],
      "name": "SetPromptMonstersAddress",
      "type": "event"
    },
    {
      "anonymous": false,
      "inputs": [
        {
          "indexed": true,
          "internalType": "address",
          "name": "publisher",
          "type": "address"
        },
        {
          "indexed": false,
          "internalType": "address",
          "name": "oldValue",
          "type": "address"
        },
        {
          "indexed": false,
          "internalType": "address",
          "name": "newValue",
          "type": "address"
        }
      ],
      "name": "SetPromptMonstersWallet",
      "type": "event"
    },
    {
      "anonymous": false,
      "inputs": [
        {
          "indexed": true,
          "internalType": "address",
          "name": "publisher",
          "type": "address"
        },
        {
          "indexed": true,
          "internalType": "uint256",
          "name": "oldState",
          "type": "uint256"
        },
        {
          "indexed": true,
          "internalType": "uint256",
          "name": "newState",
          "type": "uint256"
        }
      ],
      "name": "SetRestorePrice",
      "type": "event"
    },
    {
      "anonymous": false,
      "inputs": [
        {
          "indexed": true,
          "internalType": "address",
          "name": "publisher",
          "type": "address"
        },
        {
          "indexed": true,
          "internalType": "uint256",
          "name": "newValue",
          "type": "uint256"
        }
      ],
      "name": "SetStaminaLimit",
      "type": "event"
    },
    {
      "anonymous": false,
      "inputs": [
        {
          "indexed": true,
          "internalType": "address",
          "name": "publisher",
          "type": "address"
        },
        {
          "indexed": true,
          "internalType": "uint256",
          "name": "newValue",
          "type": "uint256"
        }
      ],
      "name": "SetStaminaRecoveryTime",
      "type": "event"
    },
    {
      "anonymous": false,
      "inputs": [
        {
          "indexed": true,
          "internalType": "address",
          "name": "publisher",
          "type": "address"
        },
        {
          "indexed": true,
          "internalType": "uint256",
          "name": "monsterId",
          "type": "uint256"
        },
        {
          "indexed": true,
          "internalType": "uint256",
          "name": "newValue",
          "type": "uint256"
        }
      ],
      "name": "SetTimeStd",
      "type": "event"
    },
    {
      "anonymous": false,
      "inputs": [
        {
          "indexed": true,
          "internalType": "address",
          "name": "implementation",
          "type": "address"
        }
      ],
      "name": "Upgraded",
      "type": "event"
    },
    {
      "inputs": [],
      "name": "DEFAULT_ADMIN_ROLE",
      "outputs": [
        {
          "internalType": "bytes32",
          "name": "",
          "type": "bytes32"
        }
      ],
      "stateMutability": "view",
      "type": "function"
    },
    {
      "inputs": [],
      "name": "GAME_ROLE",
      "outputs": [
        {
          "internalType": "bytes32",
          "name": "",
          "type": "bytes32"
        }
      ],
      "stateMutability": "view",
      "type": "function"
    },
    {
      "inputs": [
        {
          "internalType": "uint256",
          "name": "monsterId",
          "type": "uint256"
        }
      ],
      "name": "calculateStamina",
      "outputs": [
        {
          "internalType": "uint256",
          "name": "",
          "type": "uint256"
        }
      ],
      "stateMutability": "view",
      "type": "function"
    },
    {
      "inputs": [
        {
          "internalType": "uint256",
          "name": "monsterId",
          "type": "uint256"
        },
        {
          "internalType": "uint256",
          "name": "consumedStamina",
          "type": "uint256"
        }
      ],
      "name": "consumeStamina",
      "outputs": [],
      "stateMutability": "nonpayable",
      "type": "function"
    },
    {
      "inputs": [],
      "name": "erc20",
      "outputs": [
        {
          "internalType": "contract IERC20",
          "name": "",
          "type": "address"
        }
      ],
      "stateMutability": "view",
      "type": "function"
    },
    {
      "inputs": [],
      "name": "getPromptMonstersAddress",
      "outputs": [
        {
          "internalType": "address",
          "name": "",
          "type": "address"
        }
      ],
      "stateMutability": "view",
      "type": "function"
    },
    {
      "inputs": [
        {
          "internalType": "bytes32",
          "name": "role",
          "type": "bytes32"
        }
      ],
      "name": "getRoleAdmin",
      "outputs": [
        {
          "internalType": "bytes32",
          "name": "",
          "type": "bytes32"
        }
      ],
      "stateMutability": "view",
      "type": "function"
    },
    {
      "inputs": [
        {
          "internalType": "bytes32",
          "name": "role",
          "type": "bytes32"
        },
        {
          "internalType": "uint256",
          "name": "index",
          "type": "uint256"
        }
      ],
      "name": "getRoleMember",
      "outputs": [
        {
          "internalType": "address",
          "name": "",
          "type": "address"
        }
      ],
      "stateMutability": "view",
      "type": "function"
    },
    {
      "inputs": [
        {
          "internalType": "bytes32",
          "name": "role",
          "type": "bytes32"
        }
      ],
      "name": "getRoleMemberCount",
      "outputs": [
        {
          "internalType": "uint256",
          "name": "",
          "type": "uint256"
        }
      ],
      "stateMutability": "view",
      "type": "function"
    },
    {
      "inputs": [
        {
          "internalType": "uint256",
          "name": "monsterId",
          "type": "uint256"
        }
      ],
      "name": "getTimeStd",
      "outputs": [
        {
          "internalType": "uint256",
          "name": "",
          "type": "uint256"
        }
      ],
      "stateMutability": "view",
      "type": "function"
    },
    {
      "inputs": [
        {
          "internalType": "uint256[]",
          "name": "monsterIds",
          "type": "uint256[]"
        }
      ],
      "name": "getTimeStds",
      "outputs": [
        {
          "internalType": "uint256[]",
          "name": "",
          "type": "uint256[]"
        }
      ],
      "stateMutability": "view",
      "type": "function"
    },
    {
      "inputs": [
        {
          "internalType": "bytes32",
          "name": "role",
          "type": "bytes32"
        },
        {
          "internalType": "address",
          "name": "account",
          "type": "address"
        }
      ],
      "name": "grantRole",
      "outputs": [],
      "stateMutability": "nonpayable",
      "type": "function"
    },
    {
      "inputs": [
        {
          "internalType": "bytes32",
          "name": "role",
          "type": "bytes32"
        },
        {
          "internalType": "address",
          "name": "account",
          "type": "address"
        }
      ],
      "name": "hasRole",
      "outputs": [
        {
          "internalType": "bool",
          "name": "",
          "type": "bool"
        }
      ],
      "stateMutability": "view",
      "type": "function"
    },
    {
      "inputs": [
        {
          "internalType": "address",
          "name": "promptMonstersAddress",
          "type": "address"
        }
      ],
      "name": "initialize",
      "outputs": [],
      "stateMutability": "nonpayable",
      "type": "function"
    },
    {
      "inputs": [],
      "name": "promptMonsters",
      "outputs": [
        {
          "internalType": "contract IPromptMonsters",
          "name": "",
          "type": "address"
        }
      ],
      "stateMutability": "view",
      "type": "function"
    },
    {
      "inputs": [],
      "name": "promptMonstersWallet",
      "outputs": [
        {
          "internalType": "address",
          "name": "",
          "type": "address"
        }
      ],
      "stateMutability": "view",
      "type": "function"
    },
    {
      "inputs": [],
      "name": "proxiableUUID",
      "outputs": [
        {
          "internalType": "bytes32",
          "name": "",
          "type": "bytes32"
        }
      ],
      "stateMutability": "view",
      "type": "function"
    },
    {
      "inputs": [
        {
          "internalType": "bytes32",
          "name": "role",
          "type": "bytes32"
        },
        {
          "internalType": "address",
          "name": "account",
          "type": "address"
        }
      ],
      "name": "renounceRole",
      "outputs": [],
      "stateMutability": "nonpayable",
      "type": "function"
    },
    {
      "inputs": [],
      "name": "restorePrice",
      "outputs": [
        {
          "internalType": "uint256",
          "name": "",
          "type": "uint256"
        }
      ],
      "stateMutability": "view",
      "type": "function"
    },
    {
      "inputs": [
        {
          "internalType": "uint256",
          "name": "monsterId",
          "type": "uint256"
        }
      ],
      "name": "restoreStamina",
      "outputs": [],
      "stateMutability": "nonpayable",
      "type": "function"
    },
    {
      "inputs": [
        {
          "internalType": "bytes32",
          "name": "role",
          "type": "bytes32"
        },
        {
          "internalType": "address",
          "name": "account",
          "type": "address"
        }
      ],
      "name": "revokeRole",
      "outputs": [],
      "stateMutability": "nonpayable",
      "type": "function"
    },
    {
      "inputs": [
        {
          "internalType": "address",
          "name": "newState_",
          "type": "address"
        }
      ],
      "name": "setErc20",
      "outputs": [],
      "stateMutability": "nonpayable",
      "type": "function"
    },
    {
      "inputs": [
        {
          "internalType": "address",
          "name": "promptMonstersAddress",
          "type": "address"
        }
      ],
      "name": "setPromptMonstersAddress",
      "outputs": [],
      "stateMutability": "nonpayable",
      "type": "function"
    },
    {
      "inputs": [
        {
          "internalType": "address",
          "name": "newState_",
          "type": "address"
        }
      ],
      "name": "setPromptMonstersWallet",
      "outputs": [],
      "stateMutability": "nonpayable",
      "type": "function"
    },
    {
      "inputs": [
        {
          "internalType": "uint256",
          "name": "newState_",
          "type": "uint256"
        }
      ],
      "name": "setRestorePrice",
      "outputs": [],
      "stateMutability": "nonpayable",
      "type": "function"
    },
    {
      "inputs": [
        {
          "internalType": "uint256",
          "name": "_staminaLimit",
          "type": "uint256"
        }
      ],
      "name": "setStaminaLimit",
      "outputs": [],
      "stateMutability": "nonpayable",
      "type": "function"
    },
    {
      "inputs": [
        {
          "internalType": "uint256",
          "name": "_staminaRecoveryTime",
          "type": "uint256"
        }
      ],
      "name": "setStaminaRecoveryTime",
      "outputs": [],
      "stateMutability": "nonpayable",
      "type": "function"
    },
    {
      "inputs": [
        {
          "internalType": "uint256",
          "name": "monsterId",
          "type": "uint256"
        },
        {
          "internalType": "uint256",
          "name": "_timeStd",
          "type": "uint256"
        }
      ],
      "name": "setTimeStd",
      "outputs": [],
      "stateMutability": "nonpayable",
      "type": "function"
    },
    {
      "inputs": [],
      "name": "staminaLimit",
      "outputs": [
        {
          "internalType": "uint256",
          "name": "",
          "type": "uint256"
        }
      ],
      "stateMutability": "view",
      "type": "function"
    },
    {
      "inputs": [],
      "name": "staminaRecoveryTime",
      "outputs": [
        {
          "internalType": "uint256",
          "name": "",
          "type": "uint256"
        }
      ],
      "stateMutability": "view",
      "type": "function"
    },
    {
      "inputs": [
        {
          "internalType": "bytes4",
          "name": "interfaceId",
          "type": "bytes4"
        }
      ],
      "name": "supportsInterface",
      "outputs": [
        {
          "internalType": "bool",
          "name": "",
          "type": "bool"
        }
      ],
      "stateMutability": "view",
      "type": "function"
    },
    {
      "inputs": [
        {
          "internalType": "uint256",
          "name": "",
          "type": "uint256"
        }
      ],
      "name": "timeStd",
      "outputs": [
        {
          "internalType": "uint256",
          "name": "",
          "type": "uint256"
        }
      ],
      "stateMutability": "view",
      "type": "function"
    },
    {
      "inputs": [
        {
          "internalType": "address",
          "name": "newImplementation",
          "type": "address"
        }
      ],
      "name": "upgradeTo",
      "outputs": [],
      "stateMutability": "nonpayable",
      "type": "function"
    },
    {
      "inputs": [
        {
          "internalType": "address",
          "name": "newImplementation",
          "type": "address"
        },
        {
          "internalType": "bytes",
          "name": "data",
          "type": "bytes"
        }
      ],
      "name": "upgradeToAndCall",
      "outputs": [],
      "stateMutability": "payable",
      "type": "function"
    }
  ],
  "bytecode": "0x60a06040523060805234801561001457600080fd5b5061001d610022565b6100e2565b600054610100900460ff161561008e5760405162461bcd60e51b815260206004820152602760248201527f496e697469616c697a61626c653a20636f6e747261637420697320696e697469604482015266616c697a696e6760c81b606482015260840160405180910390fd5b60005460ff90811610156100e0576000805460ff191660ff9081179091556040519081527f7f26b83ff96e1f2b6a682f133852f6798a09c465da95921460cefb38474024989060200160405180910390a15b565b60805161241d6200011a60003960008181610799015281816107d901528181610878015281816108b80152610947015261241d6000f3fe6080604052600436106101f95760003560e01c80639010d07c1161010d578063ce32cee2116100a0578063d820091f1161006f578063d820091f146105c2578063e4bab3f5146105e2578063e685617414610602578063ee9b80a41461062f578063eecad6351461064f57600080fd5b8063ce32cee214610541578063d47a510a14610562578063d547741f14610582578063d5bacb03146105a257600080fd5b8063a851260a116100dc578063a851260a146104ca578063ab400706146104ea578063c4d66de814610501578063ca15c8731461052157600080fd5b80639010d07c1461045657806391d1485414610476578063974747b414610496578063a217fddf146104b557600080fd5b80633659cfe6116101905780637269ddde1161015f5780637269ddde14610399578063739420a5146103c757806376a965a1146103e7578063785e9e861461040757806382cbe5001461042857600080fd5b80633659cfe61461033a5780634f1ef2861461035a578063501d2fff1461036d57806352d1902d1461038457600080fd5b8063248a9ca3116101cc578063248a9ca3146102b357806326f67100146102e35780632f2ff15d146102fa57806336568abe1461031a57600080fd5b806301ffc9a7146101fe578063145f0fa91461023357806316bece1b1461026c5780631e7bccc61461028e575b600080fd5b34801561020a57600080fd5b5061021e610219366004611e75565b61066f565b60405190151581526020015b60405180910390f35b34801561023f57600080fd5b5061013454610254906001600160a01b031681565b6040516001600160a01b03909116815260200161022a565b34801561027857600080fd5b5061028c610287366004611e9f565b61069a565b005b34801561029a57600080fd5b506102a56101305481565b60405190815260200161022a565b3480156102bf57600080fd5b506102a56102ce366004611e9f565b60009081526065602052604090206001015490565b3480156102ef57600080fd5b506102a56101335481565b34801561030657600080fd5b5061028c610315366004611ed4565b6106e2565b34801561032657600080fd5b5061028c610335366004611ed4565b61070c565b34801561034657600080fd5b5061028c610355366004611f00565b61078f565b61028c610368366004611f62565b61086e565b34801561037957600080fd5b506102a561012f5481565b34801561039057600080fd5b506102a561093a565b3480156103a557600080fd5b506102a56103b4366004611e9f565b6000908152610131602052604090205490565b3480156103d357600080fd5b5061028c6103e2366004612008565b6109ed565b3480156103f357600080fd5b5061028c610402366004611e9f565b610b35565b34801561041357600080fd5b5061013254610254906001600160a01b031681565b34801561043457600080fd5b506102a5610443366004611e9f565b6101316020526000908152604090205481565b34801561046257600080fd5b50610254610471366004612008565b610b77565b34801561048257600080fd5b5061021e610491366004611ed4565b610b96565b3480156104a257600080fd5b5061012e546001600160a01b0316610254565b3480156104c157600080fd5b506102a5600081565b3480156104d657600080fd5b506102a56104e5366004611e9f565b610bc1565b3480156104f657600080fd5b506102a561012d5481565b34801561050d57600080fd5b5061028c61051c366004611f00565b610c18565b34801561052d57600080fd5b506102a561053c366004611e9f565b610d96565b34801561054d57600080fd5b5061012e54610254906001600160a01b031681565b34801561056e57600080fd5b5061028c61057d366004612008565b610dad565b34801561058e57600080fd5b5061028c61059d366004611ed4565b610e58565b3480156105ae57600080fd5b5061028c6105bd366004611f00565b610e7d565b3480156105ce57600080fd5b5061028c6105dd366004611e9f565b610ed6565b3480156105ee57600080fd5b5061028c6105fd366004611f00565b610f18565b34801561060e57600080fd5b5061062261061d36600461202a565b610f99565b60405161022a91906120d0565b34801561063b57600080fd5b5061028c61064a366004611f00565b611053565b34801561065b57600080fd5b5061028c61066a366004611e9f565b6110cb565b60006001600160e01b03198216635a05180f60e01b14806106945750610694826112a2565b92915050565b60006106a5816112d7565b6101338054908390556040518390829033907ffd35f6e52dd0c23b342e261f147b1a824248f06ac092ac5322db07ecb6f0726290600090a4505050565b6000828152606560205260409020600101546106fd816112d7565b61070783836112e1565b505050565b6001600160a01b03811633146107815760405162461bcd60e51b815260206004820152602f60248201527f416363657373436f6e74726f6c3a2063616e206f6e6c792072656e6f756e636560448201526e103937b632b9903337b91039b2b63360891b60648201526084015b60405180910390fd5b61078b8282611303565b5050565b6001600160a01b037f00000000000000000000000000000000000000000000000000000000000000001630036107d75760405162461bcd60e51b815260040161077890612114565b7f00000000000000000000000000000000000000000000000000000000000000006001600160a01b03166108206000805160206123a1833981519152546001600160a01b031690565b6001600160a01b0316146108465760405162461bcd60e51b815260040161077890612160565b61084f81611325565b6040805160008082526020820190925261086b91839190611330565b50565b6001600160a01b037f00000000000000000000000000000000000000000000000000000000000000001630036108b65760405162461bcd60e51b815260040161077890612114565b7f00000000000000000000000000000000000000000000000000000000000000006001600160a01b03166108ff6000805160206123a1833981519152546001600160a01b031690565b6001600160a01b0316146109255760405162461bcd60e51b815260040161077890612160565b61092e82611325565b61078b82826001611330565b6000306001600160a01b037f000000000000000000000000000000000000000000000000000000000000000016146109da5760405162461bcd60e51b815260206004820152603860248201527f555550535570677261646561626c653a206d757374206e6f742062652063616c60448201527f6c6564207468726f7567682064656c656761746563616c6c00000000000000006064820152608401610778565b506000805160206123a183398151915290565b61012d546109fa816112d7565b6000198303156107075761012e54604051638318646560e01b8152600481018590526001600160a01b039091169063831864659060240160006040518083038186803b158015610a4957600080fd5b505afa158015610a5d573d6000803e3d6000fd5b5050506000848152610131602052604081205461012f546101305491935091610a8684426121c2565b9050831580610a9e5750610a9a82846121d5565b8110155b15610adc5781610aae87856121c2565b610ab891906121d5565b610ac290426121c2565b600088815261013160205260409020555061070792505050565b610ae686836121d5565b610af090856121ec565b600088815261013160205260408082208390555188918a917f7d0d22c542374e9d1ff922e32343795ed8f2d1dfde9160f5bc6c1bf819c685759190a450505050505050565b6000610b40816112d7565b61012f829055604051829033907f3bdc753e10059ae4cce09f4bb277b1d9ae445b0b8d2fc57e2394f6db7731d8ab90600090a35050565b6000828152609760205260408120610b8f908361149b565b9392505050565b60009182526065602090815260408084206001600160a01b0393909316845291905290205460ff1690565b6000818152610131602052604081205461012f54818303610be3579392505050565b61013054600090610bf484426121c2565b610bfe91906121ff565b905081811115610c1057509392505050565b949350505050565b600054610100900460ff1615808015610c385750600054600160ff909116105b80610c525750303b158015610c52575060005460ff166001145b610cb55760405162461bcd60e51b815260206004820152602e60248201527f496e697469616c697a61626c653a20636f6e747261637420697320616c72656160448201526d191e481a5b9a5d1a585b1a5e995960921b6064820152608401610778565b6000805460ff191660011790558015610cd8576000805461ff0019166101001790555b610ce06114a7565b610ce86114a7565b61012e80546001600160a01b0319166001600160a01b038416179055600361012f55617080610130557f6a64baf327d646d1bca72653e2a075d15fd6ac6d8cbd7f6ee03fc55875e0fa8861012d819055610d4290336112e1565b610d4d6000336112e1565b801561078b576000805461ff0019169055604051600181527f7f26b83ff96e1f2b6a682f133852f6798a09c465da95921460cefb38474024989060200160405180910390a15050565b600081815260976020526040812061069490611514565b6000610db8816112d7565b61012e54604051638318646560e01b8152600481018590526001600160a01b039091169063831864659060240160006040518083038186803b158015610dfd57600080fd5b505afa158015610e11573d6000803e3d6000fd5b5050506000848152610131602052604080822085905551849250859133917f3e7c993cca769387f3db729665c330ce2efc058c604b7090e6dc7c5334cbef189190a4505050565b600082815260656020526040902060010154610e73816112d7565b6107078383611303565b6000610e88816112d7565b61012e80546001600160a01b0319166001600160a01b03841690811790915560405133907fbd099e12f37fee634effde3ec3b6bac8c16ade502c7275e1316d2c4bbf44589490600090a35050565b6000610ee1816112d7565b610130829055604051829033907fb7d3072c2a06a5dafa96c48209e7c8f937c75678b30d439751fe983d3f4a1f4d90600090a35050565b6000610f23816112d7565b61013480546001600160a01b038481166001600160a01b031983161790925516610f4a3390565b604080516001600160a01b038481168252868116602083015292909216917fc791f304f706b4012579cd651a8a0d930c30d117f42ee74327000e3fc75bfbbc91015b60405180910390a2505050565b60606000825167ffffffffffffffff811115610fb757610fb7611f1b565b604051908082528060200260200182016040528015610fe0578160200160208202803683370190505b50905060005b835181101561104c57610131600085838151811061100657611006612221565b602002602001015181526020019081526020016000205482828151811061102f5761102f612221565b60209081029190910101528061104481612237565b915050610fe6565b5092915050565b600061105e816112d7565b61013280546001600160a01b038481166001600160a01b0319831617909255166110853390565b604080516001600160a01b038481168252868116602083015292909216917f5ebe54482b2a8120482902e3bfe9ca1a913e9987bcb1f18c974dae585132a9549101610f8c565b61012e54604051638318646560e01b8152600481018390526001600160a01b039091169063831864659060240160006040518083038186803b15801561111057600080fd5b505afa158015611124573d6000803e3d6000fd5b50505050600019810361119f5760405162461bcd60e51b815260206004820152603760248201527f5374616d696e613a20596f752063616e6e6f7420726573746f7265207374616d60448201527f696e61206f66207468652066726565206d6f6e737465720000000000000000006064820152608401610778565b60006111aa82610bc1565b905080156112205760405162461bcd60e51b815260206004820152603b60248201527f5374616d696e613a20596f752063616e6e6f7420726573746f7265207374616d60448201527f696e612062656361757365206974206973206e6f7420656d70747900000000006064820152608401610778565b610134546101335461013254611247926001600160a01b039182169233929091169061151e565b600082815261013160205260408082208054929055610133549051849033907f84734952ec30dc80c4287c43e212518105fea50853239ece45ec77cebdb0bbb9906112959086815260200190565b60405180910390a4505050565b60006001600160e01b03198216637965db0b60e01b148061069457506301ffc9a760e01b6001600160e01b0319831614610694565b61086b813361157e565b6112eb82826115d7565b6000828152609760205260409020610707908261165d565b61130d8282611672565b600082815260976020526040902061070790826116d9565b600061078b816112d7565b7f4910fdfa16fed3260ed0e7147f7cc6da11a60208b5b9406d12a635614ffd91435460ff161561136357610707836116ee565b826001600160a01b03166352d1902d6040518163ffffffff1660e01b8152600401602060405180830381865afa9250505080156113bd575060408051601f3d908101601f191682019092526113ba91810190612250565b60015b6114205760405162461bcd60e51b815260206004820152602e60248201527f45524331393637557067726164653a206e657720696d706c656d656e7461746960448201526d6f6e206973206e6f74205555505360901b6064820152608401610778565b6000805160206123a1833981519152811461148f5760405162461bcd60e51b815260206004820152602960248201527f45524331393637557067726164653a20756e737570706f727465642070726f786044820152681a58589b195555525160ba1b6064820152608401610778565b5061070783838361178a565b6000610b8f83836117af565b600054610100900460ff166115125760405162461bcd60e51b815260206004820152602b60248201527f496e697469616c697a61626c653a20636f6e7472616374206973206e6f74206960448201526a6e697469616c697a696e6760a81b6064820152608401610778565b565b6000610694825490565b604080516001600160a01b0385811660248301528416604482015260648082018490528251808303909101815260849091019091526020810180516001600160e01b03166323b872dd60e01b1790526115789085906117d9565b50505050565b6115888282610b96565b61078b57611595816118ab565b6115a08360206118bd565b6040516020016115b192919061228d565b60408051601f198184030181529082905262461bcd60e51b825261077891600401612302565b6115e18282610b96565b61078b5760008281526065602090815260408083206001600160a01b03851684529091529020805460ff191660011790556116193390565b6001600160a01b0316816001600160a01b0316837f2f8788117e7eff1d82e926ec794901d17c78024a50270940304540a733656f0d60405160405180910390a45050565b6000610b8f836001600160a01b038416611a59565b61167c8282610b96565b1561078b5760008281526065602090815260408083206001600160a01b0385168085529252808320805460ff1916905551339285917ff6391f5c32d9c69d2a47ea670b442974b53935d1edc7fd64eb21e047a839171b9190a45050565b6000610b8f836001600160a01b038416611aa8565b6001600160a01b0381163b61175b5760405162461bcd60e51b815260206004820152602d60248201527f455243313936373a206e657720696d706c656d656e746174696f6e206973206e60448201526c1bdd08184818dbdb9d1c9858dd609a1b6064820152608401610778565b6000805160206123a183398151915280546001600160a01b0319166001600160a01b0392909216919091179055565b61179383611b9b565b6000825111806117a05750805b15610707576115788383611bdb565b60008260000182815481106117c6576117c6612221565b9060005260206000200154905092915050565b600061182e826040518060400160405280602081526020017f5361666545524332303a206c6f772d6c6576656c2063616c6c206661696c6564815250856001600160a01b0316611ccf9092919063ffffffff16565b805190915015610707578080602001905181019061184c9190612335565b6107075760405162461bcd60e51b815260206004820152602a60248201527f5361666545524332303a204552433230206f7065726174696f6e20646964206e6044820152691bdd081cdd58d8d9595960b21b6064820152608401610778565b60606106946001600160a01b03831660145b606060006118cc8360026121d5565b6118d79060026121ec565b67ffffffffffffffff8111156118ef576118ef611f1b565b6040519080825280601f01601f191660200182016040528015611919576020820181803683370190505b509050600360fc1b8160008151811061193457611934612221565b60200101906001600160f81b031916908160001a905350600f60fb1b8160018151811061196357611963612221565b60200101906001600160f81b031916908160001a90535060006119878460026121d5565b6119929060016121ec565b90505b6001811115611a0a576f181899199a1a9b1b9c1cb0b131b232b360811b85600f16601081106119c6576119c6612221565b1a60f81b8282815181106119dc576119dc612221565b60200101906001600160f81b031916908160001a90535060049490941c93611a0381612357565b9050611995565b508315610b8f5760405162461bcd60e51b815260206004820181905260248201527f537472696e67733a20686578206c656e67746820696e73756666696369656e746044820152606401610778565b6000818152600183016020526040812054611aa057508154600181810184556000848152602080822090930184905584548482528286019093526040902091909155610694565b506000610694565b60008181526001830160205260408120548015611b91576000611acc6001836121c2565b8554909150600090611ae0906001906121c2565b9050818114611b45576000866000018281548110611b0057611b00612221565b9060005260206000200154905080876000018481548110611b2357611b23612221565b6000918252602080832090910192909255918252600188019052604090208390555b8554869080611b5657611b5661236e565b600190038181906000526020600020016000905590558560010160008681526020019081526020016000206000905560019350505050610694565b6000915050610694565b611ba4816116ee565b6040516001600160a01b038216907fbc7cd75a20ee27fd9adebab32041f755214dbc6bffa90cc0225b39da2e5c2d3b90600090a250565b60606001600160a01b0383163b611c435760405162461bcd60e51b815260206004820152602660248201527f416464726573733a2064656c65676174652063616c6c20746f206e6f6e2d636f6044820152651b9d1c9858dd60d21b6064820152608401610778565b600080846001600160a01b031684604051611c5e9190612384565b600060405180830381855af49150503d8060008114611c99576040519150601f19603f3d011682016040523d82523d6000602084013e611c9e565b606091505b5091509150611cc682826040518060600160405280602781526020016123c160279139611cde565b95945050505050565b6060610c108484600085611cf7565b60608315611ced575081610b8f565b610b8f8383611dd2565b606082471015611d585760405162461bcd60e51b815260206004820152602660248201527f416464726573733a20696e73756666696369656e742062616c616e636520666f6044820152651c8818d85b1b60d21b6064820152608401610778565b600080866001600160a01b03168587604051611d749190612384565b60006040518083038185875af1925050503d8060008114611db1576040519150601f19603f3d011682016040523d82523d6000602084013e611db6565b606091505b5091509150611dc787838387611dfc565b979650505050505050565b815115611de25781518083602001fd5b8060405162461bcd60e51b81526004016107789190612302565b60608315611e6b578251600003611e64576001600160a01b0385163b611e645760405162461bcd60e51b815260206004820152601d60248201527f416464726573733a2063616c6c20746f206e6f6e2d636f6e74726163740000006044820152606401610778565b5081610c10565b610c108383611dd2565b600060208284031215611e8757600080fd5b81356001600160e01b031981168114610b8f57600080fd5b600060208284031215611eb157600080fd5b5035919050565b80356001600160a01b0381168114611ecf57600080fd5b919050565b60008060408385031215611ee757600080fd5b82359150611ef760208401611eb8565b90509250929050565b600060208284031215611f1257600080fd5b610b8f82611eb8565b634e487b7160e01b600052604160045260246000fd5b604051601f8201601f1916810167ffffffffffffffff81118282101715611f5a57611f5a611f1b565b604052919050565b60008060408385031215611f7557600080fd5b611f7e83611eb8565b915060208084013567ffffffffffffffff80821115611f9c57600080fd5b818601915086601f830112611fb057600080fd5b813581811115611fc257611fc2611f1b565b611fd4601f8201601f19168501611f31565b91508082528784828501011115611fea57600080fd5b80848401858401376000848284010152508093505050509250929050565b6000806040838503121561201b57600080fd5b50508035926020909101359150565b6000602080838503121561203d57600080fd5b823567ffffffffffffffff8082111561205557600080fd5b818501915085601f83011261206957600080fd5b81358181111561207b5761207b611f1b565b8060051b915061208c848301611f31565b81815291830184019184810190888411156120a657600080fd5b938501935b838510156120c4578435825293850193908501906120ab565b98975050505050505050565b6020808252825182820181905260009190848201906040850190845b81811015612108578351835292840192918401916001016120ec565b50909695505050505050565b6020808252602c908201527f46756e6374696f6e206d7573742062652063616c6c6564207468726f7567682060408201526b19195b1959d85d1958d85b1b60a21b606082015260800190565b6020808252602c908201527f46756e6374696f6e206d7573742062652063616c6c6564207468726f7567682060408201526b6163746976652070726f787960a01b606082015260800190565b634e487b7160e01b600052601160045260246000fd5b81810381811115610694576106946121ac565b8082028115828204841417610694576106946121ac565b80820180821115610694576106946121ac565b60008261221c57634e487b7160e01b600052601260045260246000fd5b500490565b634e487b7160e01b600052603260045260246000fd5b600060018201612249576122496121ac565b5060010190565b60006020828403121561226257600080fd5b5051919050565b60005b8381101561228457818101518382015260200161226c565b50506000910152565b7f416363657373436f6e74726f6c3a206163636f756e74200000000000000000008152600083516122c5816017850160208801612269565b7001034b99036b4b9b9b4b733903937b6329607d1b60179184019182015283516122f6816028840160208801612269565b01602801949350505050565b6020815260008251806020840152612321816040850160208701612269565b601f01601f19169190910160400192915050565b60006020828403121561234757600080fd5b81518015158114610b8f57600080fd5b600081612366576123666121ac565b506000190190565b634e487b7160e01b600052603160045260246000fd5b60008251612396818460208701612269565b919091019291505056fe360894a13ba1a3210667c828492db98dca3e2076cc3735a920a3ca505d382bbc416464726573733a206c6f772d6c6576656c2064656c65676174652063616c6c206661696c6564a2646970667358221220172ad932bc49257f52ee83bd23dbe3dea48d46189d9ec3ef567571a75ea0374464736f6c63430008120033",
  "linkReferences": {},
  "deployedLinkReferences": {}
}