{
  "_format": "hh-sol-artifact-1",
  "contractName": "Stamina",
  "sourceName": "contracts/stamina/Stamina.sol",
  "abi": [
    {
      "inputs": [],
      "stateMutability": "nonpayable",
      "type": "constructor"
    },
    {
      "anonymous": false,
      "inputs": [
        {
          "indexed": false,
          "internalType": "address",
          "name": "previousAdmin",
          "type": "address"
        },
        {
          "indexed": false,
          "internalType": "address",
          "name": "newAdmin",
          "type": "address"
        }
      ],
      "name": "AdminChanged",
      "type": "event"
    },
    {
      "anonymous": false,
      "inputs": [
        {
          "indexed": true,
          "internalType": "address",
          "name": "beacon",
          "type": "address"
        }
      ],
      "name": "BeaconUpgraded",
      "type": "event"
    },
    {
      "anonymous": false,
      "inputs": [
        {
          "indexed": true,
          "internalType": "uint256",
          "name": "monsterId",
          "type": "uint256"
        },
        {
          "indexed": true,
          "internalType": "uint256",
          "name": "consumedStamina",
          "type": "uint256"
        },
        {
          "indexed": true,
          "internalType": "uint256",
          "name": "newTimeStd",
          "type": "uint256"
        }
      ],
      "name": "ConsumeStamina",
      "type": "event"
    },
    {
      "anonymous": false,
      "inputs": [
        {
          "indexed": false,
          "internalType": "uint8",
          "name": "version",
          "type": "uint8"
        }
      ],
      "name": "Initialized",
      "type": "event"
    },
    {
      "anonymous": false,
      "inputs": [
        {
          "indexed": true,
          "internalType": "bytes32",
          "name": "role",
          "type": "bytes32"
        },
        {
          "indexed": true,
          "internalType": "bytes32",
          "name": "previousAdminRole",
          "type": "bytes32"
        },
        {
          "indexed": true,
          "internalType": "bytes32",
          "name": "newAdminRole",
          "type": "bytes32"
        }
      ],
      "name": "RoleAdminChanged",
      "type": "event"
    },
    {
      "anonymous": false,
      "inputs": [
        {
          "indexed": true,
          "internalType": "bytes32",
          "name": "role",
          "type": "bytes32"
        },
        {
          "indexed": true,
          "internalType": "address",
          "name": "account",
          "type": "address"
        },
        {
          "indexed": true,
          "internalType": "address",
          "name": "sender",
          "type": "address"
        }
      ],
      "name": "RoleGranted",
      "type": "event"
    },
    {
      "anonymous": false,
      "inputs": [
        {
          "indexed": true,
          "internalType": "bytes32",
          "name": "role",
          "type": "bytes32"
        },
        {
          "indexed": true,
          "internalType": "address",
          "name": "account",
          "type": "address"
        },
        {
          "indexed": true,
          "internalType": "address",
          "name": "sender",
          "type": "address"
        }
      ],
      "name": "RoleRevoked",
      "type": "event"
    },
    {
      "anonymous": false,
      "inputs": [
        {
          "indexed": true,
          "internalType": "address",
          "name": "publisher",
          "type": "address"
        },
        {
          "indexed": true,
          "internalType": "address",
          "name": "newValue",
          "type": "address"
        }
      ],
      "name": "SetPromptMonstersAddress",
      "type": "event"
    },
    {
      "anonymous": false,
      "inputs": [
        {
          "indexed": true,
          "internalType": "address",
          "name": "publisher",
          "type": "address"
        },
        {
          "indexed": true,
          "internalType": "uint256",
          "name": "newValue",
          "type": "uint256"
        }
      ],
      "name": "SetStaminaLimit",
      "type": "event"
    },
    {
      "anonymous": false,
      "inputs": [
        {
          "indexed": true,
          "internalType": "address",
          "name": "publisher",
          "type": "address"
        },
        {
          "indexed": true,
          "internalType": "uint256",
          "name": "newValue",
          "type": "uint256"
        }
      ],
      "name": "SetStaminaRecoveryTime",
      "type": "event"
    },
    {
      "anonymous": false,
      "inputs": [
        {
          "indexed": true,
          "internalType": "address",
          "name": "publisher",
          "type": "address"
        },
        {
          "indexed": true,
          "internalType": "uint256",
          "name": "monsterId",
          "type": "uint256"
        },
        {
          "indexed": true,
          "internalType": "uint256",
          "name": "newValue",
          "type": "uint256"
        }
      ],
      "name": "SetTimeStd",
      "type": "event"
    },
    {
      "anonymous": false,
      "inputs": [
        {
          "indexed": true,
          "internalType": "address",
          "name": "implementation",
          "type": "address"
        }
      ],
      "name": "Upgraded",
      "type": "event"
    },
    {
      "inputs": [],
      "name": "DEFAULT_ADMIN_ROLE",
      "outputs": [
        {
          "internalType": "bytes32",
          "name": "",
          "type": "bytes32"
        }
      ],
      "stateMutability": "view",
      "type": "function"
    },
    {
      "inputs": [],
      "name": "GAME_ROLE",
      "outputs": [
        {
          "internalType": "bytes32",
          "name": "",
          "type": "bytes32"
        }
      ],
      "stateMutability": "view",
      "type": "function"
    },
    {
      "inputs": [
        {
          "internalType": "uint256",
          "name": "monsterId",
          "type": "uint256"
        }
      ],
      "name": "calculateStamina",
      "outputs": [
        {
          "internalType": "uint256",
          "name": "",
          "type": "uint256"
        }
      ],
      "stateMutability": "view",
      "type": "function"
    },
    {
      "inputs": [
        {
          "internalType": "uint256",
          "name": "monsterId",
          "type": "uint256"
        },
        {
          "internalType": "uint256",
          "name": "consumedStamina",
          "type": "uint256"
        }
      ],
      "name": "consumeStamina",
      "outputs": [],
      "stateMutability": "nonpayable",
      "type": "function"
    },
    {
      "inputs": [],
      "name": "getPromptMonstersAddress",
      "outputs": [
        {
          "internalType": "address",
          "name": "",
          "type": "address"
        }
      ],
      "stateMutability": "view",
      "type": "function"
    },
    {
      "inputs": [
        {
          "internalType": "bytes32",
          "name": "role",
          "type": "bytes32"
        }
      ],
      "name": "getRoleAdmin",
      "outputs": [
        {
          "internalType": "bytes32",
          "name": "",
          "type": "bytes32"
        }
      ],
      "stateMutability": "view",
      "type": "function"
    },
    {
      "inputs": [
        {
          "internalType": "bytes32",
          "name": "role",
          "type": "bytes32"
        },
        {
          "internalType": "uint256",
          "name": "index",
          "type": "uint256"
        }
      ],
      "name": "getRoleMember",
      "outputs": [
        {
          "internalType": "address",
          "name": "",
          "type": "address"
        }
      ],
      "stateMutability": "view",
      "type": "function"
    },
    {
      "inputs": [
        {
          "internalType": "bytes32",
          "name": "role",
          "type": "bytes32"
        }
      ],
      "name": "getRoleMemberCount",
      "outputs": [
        {
          "internalType": "uint256",
          "name": "",
          "type": "uint256"
        }
      ],
      "stateMutability": "view",
      "type": "function"
    },
    {
      "inputs": [
        {
          "internalType": "uint256",
          "name": "monsterId",
          "type": "uint256"
        }
      ],
      "name": "getTimeStd",
      "outputs": [
        {
          "internalType": "uint256",
          "name": "",
          "type": "uint256"
        }
      ],
      "stateMutability": "view",
      "type": "function"
    },
    {
      "inputs": [
        {
          "internalType": "uint256[]",
          "name": "monsterIds",
          "type": "uint256[]"
        }
      ],
      "name": "getTimeStds",
      "outputs": [
        {
          "internalType": "uint256[]",
          "name": "",
          "type": "uint256[]"
        }
      ],
      "stateMutability": "view",
      "type": "function"
    },
    {
      "inputs": [
        {
          "internalType": "bytes32",
          "name": "role",
          "type": "bytes32"
        },
        {
          "internalType": "address",
          "name": "account",
          "type": "address"
        }
      ],
      "name": "grantRole",
      "outputs": [],
      "stateMutability": "nonpayable",
      "type": "function"
    },
    {
      "inputs": [
        {
          "internalType": "bytes32",
          "name": "role",
          "type": "bytes32"
        },
        {
          "internalType": "address",
          "name": "account",
          "type": "address"
        }
      ],
      "name": "hasRole",
      "outputs": [
        {
          "internalType": "bool",
          "name": "",
          "type": "bool"
        }
      ],
      "stateMutability": "view",
      "type": "function"
    },
    {
      "inputs": [
        {
          "internalType": "address",
          "name": "promptMonstersAddress",
          "type": "address"
        }
      ],
      "name": "initialize",
      "outputs": [],
      "stateMutability": "nonpayable",
      "type": "function"
    },
    {
      "inputs": [],
      "name": "promptMonsters",
      "outputs": [
        {
          "internalType": "contract IPromptMonsters",
          "name": "",
          "type": "address"
        }
      ],
      "stateMutability": "view",
      "type": "function"
    },
    {
      "inputs": [],
      "name": "proxiableUUID",
      "outputs": [
        {
          "internalType": "bytes32",
          "name": "",
          "type": "bytes32"
        }
      ],
      "stateMutability": "view",
      "type": "function"
    },
    {
      "inputs": [
        {
          "internalType": "bytes32",
          "name": "role",
          "type": "bytes32"
        },
        {
          "internalType": "address",
          "name": "account",
          "type": "address"
        }
      ],
      "name": "renounceRole",
      "outputs": [],
      "stateMutability": "nonpayable",
      "type": "function"
    },
    {
      "inputs": [
        {
          "internalType": "bytes32",
          "name": "role",
          "type": "bytes32"
        },
        {
          "internalType": "address",
          "name": "account",
          "type": "address"
        }
      ],
      "name": "revokeRole",
      "outputs": [],
      "stateMutability": "nonpayable",
      "type": "function"
    },
    {
      "inputs": [
        {
          "internalType": "address",
          "name": "promptMonstersAddress",
          "type": "address"
        }
      ],
      "name": "setPromptMonstersAddress",
      "outputs": [],
      "stateMutability": "nonpayable",
      "type": "function"
    },
    {
      "inputs": [
        {
          "internalType": "uint256",
          "name": "_staminaLimit",
          "type": "uint256"
        }
      ],
      "name": "setStaminaLimit",
      "outputs": [],
      "stateMutability": "nonpayable",
      "type": "function"
    },
    {
      "inputs": [
        {
          "internalType": "uint256",
          "name": "_staminaRecoveryTime",
          "type": "uint256"
        }
      ],
      "name": "setStaminaRecoveryTime",
      "outputs": [],
      "stateMutability": "nonpayable",
      "type": "function"
    },
    {
      "inputs": [
        {
          "internalType": "uint256",
          "name": "monsterId",
          "type": "uint256"
        },
        {
          "internalType": "uint256",
          "name": "_timeStd",
          "type": "uint256"
        }
      ],
      "name": "setTimeStd",
      "outputs": [],
      "stateMutability": "nonpayable",
      "type": "function"
    },
    {
      "inputs": [],
      "name": "staminaLimit",
      "outputs": [
        {
          "internalType": "uint256",
          "name": "",
          "type": "uint256"
        }
      ],
      "stateMutability": "view",
      "type": "function"
    },
    {
      "inputs": [],
      "name": "staminaRecoveryTime",
      "outputs": [
        {
          "internalType": "uint256",
          "name": "",
          "type": "uint256"
        }
      ],
      "stateMutability": "view",
      "type": "function"
    },
    {
      "inputs": [
        {
          "internalType": "bytes4",
          "name": "interfaceId",
          "type": "bytes4"
        }
      ],
      "name": "supportsInterface",
      "outputs": [
        {
          "internalType": "bool",
          "name": "",
          "type": "bool"
        }
      ],
      "stateMutability": "view",
      "type": "function"
    },
    {
      "inputs": [
        {
          "internalType": "uint256",
          "name": "",
          "type": "uint256"
        }
      ],
      "name": "timeStd",
      "outputs": [
        {
          "internalType": "uint256",
          "name": "",
          "type": "uint256"
        }
      ],
      "stateMutability": "view",
      "type": "function"
    },
    {
      "inputs": [
        {
          "internalType": "address",
          "name": "newImplementation",
          "type": "address"
        }
      ],
      "name": "upgradeTo",
      "outputs": [],
      "stateMutability": "nonpayable",
      "type": "function"
    },
    {
      "inputs": [
        {
          "internalType": "address",
          "name": "newImplementation",
          "type": "address"
        },
        {
          "internalType": "bytes",
          "name": "data",
          "type": "bytes"
        }
      ],
      "name": "upgradeToAndCall",
      "outputs": [],
      "stateMutability": "payable",
      "type": "function"
    }
  ],
  "bytecode": "0x60a06040523060805234801561001457600080fd5b5061001d610022565b6100e2565b600054610100900460ff161561008e5760405162461bcd60e51b815260206004820152602760248201527f496e697469616c697a61626c653a20636f6e747261637420697320696e697469604482015266616c697a696e6760c81b606482015260840160405180910390fd5b60005460ff90811610156100e0576000805460ff191660ff9081179091556040519081527f7f26b83ff96e1f2b6a682f133852f6798a09c465da95921460cefb38474024989060200160405180910390a15b565b608051611d196101196000396000818161061b0152818161065b015281816106fa0152818161073a01526107c90152611d196000f3fe60806040526004361061019c5760003560e01c80639010d07c116100ec578063ca15c8731161008a578063d547741f11610064578063d547741f146104ac578063d5bacb03146104cc578063d820091f146104ec578063e68561741461050c57600080fd5b8063ca15c8731461044b578063ce32cee21461046b578063d47a510a1461048c57600080fd5b8063a217fddf116100c6578063a217fddf146103df578063a851260a146103f4578063ab40070614610414578063c4d66de81461042b57600080fd5b80639010d07c1461036857806391d14854146103a0578063974747b4146103c057600080fd5b80634f1ef286116101595780637269ddde116101335780637269ddde146102cc578063739420a5146102fa57806376a965a11461031a57806382cbe5001461033a57600080fd5b80634f1ef2861461028d578063501d2fff146102a057806352d1902d146102b757600080fd5b806301ffc9a7146101a15780631e7bccc6146101d6578063248a9ca3146101fb5780632f2ff15d1461022b57806336568abe1461024d5780633659cfe61461026d575b600080fd5b3480156101ad57600080fd5b506101c16101bc366004611793565b610539565b60405190151581526020015b60405180910390f35b3480156101e257600080fd5b506101ed6101305481565b6040519081526020016101cd565b34801561020757600080fd5b506101ed6102163660046117bd565b60009081526065602052604090206001015490565b34801561023757600080fd5b5061024b6102463660046117f2565b610564565b005b34801561025957600080fd5b5061024b6102683660046117f2565b61058e565b34801561027957600080fd5b5061024b61028836600461181e565b610611565b61024b61029b366004611880565b6106f0565b3480156102ac57600080fd5b506101ed61012f5481565b3480156102c357600080fd5b506101ed6107bc565b3480156102d857600080fd5b506101ed6102e73660046117bd565b6000908152610131602052604090205490565b34801561030657600080fd5b5061024b610315366004611926565b61086f565b34801561032657600080fd5b5061024b6103353660046117bd565b6109b7565b34801561034657600080fd5b506101ed6103553660046117bd565b6101316020526000908152604090205481565b34801561037457600080fd5b50610388610383366004611926565b6109f9565b6040516001600160a01b0390911681526020016101cd565b3480156103ac57600080fd5b506101c16103bb3660046117f2565b610a18565b3480156103cc57600080fd5b5061012e546001600160a01b0316610388565b3480156103eb57600080fd5b506101ed600081565b34801561040057600080fd5b506101ed61040f3660046117bd565b610a43565b34801561042057600080fd5b506101ed61012d5481565b34801561043757600080fd5b5061024b61044636600461181e565b610a9a565b34801561045757600080fd5b506101ed6104663660046117bd565b610c18565b34801561047757600080fd5b5061012e54610388906001600160a01b031681565b34801561049857600080fd5b5061024b6104a7366004611926565b610c2f565b3480156104b857600080fd5b5061024b6104c73660046117f2565b610cda565b3480156104d857600080fd5b5061024b6104e736600461181e565b610cff565b3480156104f857600080fd5b5061024b6105073660046117bd565b610d58565b34801561051857600080fd5b5061052c610527366004611948565b610d9a565b6040516101cd91906119ee565b60006001600160e01b03198216635a05180f60e01b148061055e575061055e82610e54565b92915050565b60008281526065602052604090206001015461057f81610e89565b6105898383610e93565b505050565b6001600160a01b03811633146106035760405162461bcd60e51b815260206004820152602f60248201527f416363657373436f6e74726f6c3a2063616e206f6e6c792072656e6f756e636560448201526e103937b632b9903337b91039b2b63360891b60648201526084015b60405180910390fd5b61060d8282610eb5565b5050565b6001600160a01b037f00000000000000000000000000000000000000000000000000000000000000001630036106595760405162461bcd60e51b81526004016105fa90611a32565b7f00000000000000000000000000000000000000000000000000000000000000006001600160a01b03166106a2600080516020611c9d833981519152546001600160a01b031690565b6001600160a01b0316146106c85760405162461bcd60e51b81526004016105fa90611a7e565b6106d181610ed7565b604080516000808252602082019092526106ed91839190610ee2565b50565b6001600160a01b037f00000000000000000000000000000000000000000000000000000000000000001630036107385760405162461bcd60e51b81526004016105fa90611a32565b7f00000000000000000000000000000000000000000000000000000000000000006001600160a01b0316610781600080516020611c9d833981519152546001600160a01b031690565b6001600160a01b0316146107a75760405162461bcd60e51b81526004016105fa90611a7e565b6107b082610ed7565b61060d82826001610ee2565b6000306001600160a01b037f0000000000000000000000000000000000000000000000000000000000000000161461085c5760405162461bcd60e51b815260206004820152603860248201527f555550535570677261646561626c653a206d757374206e6f742062652063616c60448201527f6c6564207468726f7567682064656c656761746563616c6c000000000000000060648201526084016105fa565b50600080516020611c9d83398151915290565b61012d5461087c81610e89565b6000198303156105895761012e54604051638318646560e01b8152600481018590526001600160a01b039091169063831864659060240160006040518083038186803b1580156108cb57600080fd5b505afa1580156108df573d6000803e3d6000fd5b5050506000848152610131602052604081205461012f5461013054919350916109088442611ae0565b9050831580610920575061091c8284611af3565b8110155b1561095e57816109308785611ae0565b61093a9190611af3565b6109449042611ae0565b600088815261013160205260409020555061058992505050565b6109688683611af3565b6109729085611b0a565b600088815261013160205260408082208390555188918a917f7d0d22c542374e9d1ff922e32343795ed8f2d1dfde9160f5bc6c1bf819c685759190a450505050505050565b60006109c281610e89565b61012f829055604051829033907f3bdc753e10059ae4cce09f4bb277b1d9ae445b0b8d2fc57e2394f6db7731d8ab90600090a35050565b6000828152609760205260408120610a11908361104d565b9392505050565b60009182526065602090815260408084206001600160a01b0393909316845291905290205460ff1690565b6000818152610131602052604081205461012f54818303610a65579392505050565b61013054600090610a768442611ae0565b610a809190611b1d565b905081811115610a9257509392505050565b949350505050565b600054610100900460ff1615808015610aba5750600054600160ff909116105b80610ad45750303b158015610ad4575060005460ff166001145b610b375760405162461bcd60e51b815260206004820152602e60248201527f496e697469616c697a61626c653a20636f6e747261637420697320616c72656160448201526d191e481a5b9a5d1a585b1a5e995960921b60648201526084016105fa565b6000805460ff191660011790558015610b5a576000805461ff0019166101001790555b610b62611059565b610b6a611059565b61012e80546001600160a01b0319166001600160a01b038416179055600361012f55617080610130557f6a64baf327d646d1bca72653e2a075d15fd6ac6d8cbd7f6ee03fc55875e0fa8861012d819055610bc49033610e93565b610bcf600033610e93565b801561060d576000805461ff0019169055604051600181527f7f26b83ff96e1f2b6a682f133852f6798a09c465da95921460cefb38474024989060200160405180910390a15050565b600081815260976020526040812061055e906110c6565b6000610c3a81610e89565b61012e54604051638318646560e01b8152600481018590526001600160a01b039091169063831864659060240160006040518083038186803b158015610c7f57600080fd5b505afa158015610c93573d6000803e3d6000fd5b5050506000848152610131602052604080822085905551849250859133917f3e7c993cca769387f3db729665c330ce2efc058c604b7090e6dc7c5334cbef189190a4505050565b600082815260656020526040902060010154610cf581610e89565b6105898383610eb5565b6000610d0a81610e89565b61012e80546001600160a01b0319166001600160a01b03841690811790915560405133907fbd099e12f37fee634effde3ec3b6bac8c16ade502c7275e1316d2c4bbf44589490600090a35050565b6000610d6381610e89565b610130829055604051829033907fb7d3072c2a06a5dafa96c48209e7c8f937c75678b30d439751fe983d3f4a1f4d90600090a35050565b60606000825167ffffffffffffffff811115610db857610db8611839565b604051908082528060200260200182016040528015610de1578160200160208202803683370190505b50905060005b8351811015610e4d576101316000858381518110610e0757610e07611b3f565b6020026020010151815260200190815260200160002054828281518110610e3057610e30611b3f565b602090810291909101015280610e4581611b55565b915050610de7565b5092915050565b60006001600160e01b03198216637965db0b60e01b148061055e57506301ffc9a760e01b6001600160e01b031983161461055e565b6106ed81336110d0565b610e9d8282611129565b600082815260976020526040902061058990826111af565b610ebf82826111c4565b6000828152609760205260409020610589908261122b565b600061060d81610e89565b7f4910fdfa16fed3260ed0e7147f7cc6da11a60208b5b9406d12a635614ffd91435460ff1615610f155761058983611240565b826001600160a01b03166352d1902d6040518163ffffffff1660e01b8152600401602060405180830381865afa925050508015610f6f575060408051601f3d908101601f19168201909252610f6c91810190611b6e565b60015b610fd25760405162461bcd60e51b815260206004820152602e60248201527f45524331393637557067726164653a206e657720696d706c656d656e7461746960448201526d6f6e206973206e6f74205555505360901b60648201526084016105fa565b600080516020611c9d83398151915281146110415760405162461bcd60e51b815260206004820152602960248201527f45524331393637557067726164653a20756e737570706f727465642070726f786044820152681a58589b195555525160ba1b60648201526084016105fa565b506105898383836112dc565b6000610a118383611307565b600054610100900460ff166110c45760405162461bcd60e51b815260206004820152602b60248201527f496e697469616c697a61626c653a20636f6e7472616374206973206e6f74206960448201526a6e697469616c697a696e6760a81b60648201526084016105fa565b565b600061055e825490565b6110da8282610a18565b61060d576110e781611331565b6110f2836020611343565b604051602001611103929190611bab565b60408051601f198184030181529082905262461bcd60e51b82526105fa91600401611c20565b6111338282610a18565b61060d5760008281526065602090815260408083206001600160a01b03851684529091529020805460ff1916600117905561116b3390565b6001600160a01b0316816001600160a01b0316837f2f8788117e7eff1d82e926ec794901d17c78024a50270940304540a733656f0d60405160405180910390a45050565b6000610a11836001600160a01b0384166114df565b6111ce8282610a18565b1561060d5760008281526065602090815260408083206001600160a01b0385168085529252808320805460ff1916905551339285917ff6391f5c32d9c69d2a47ea670b442974b53935d1edc7fd64eb21e047a839171b9190a45050565b6000610a11836001600160a01b03841661152e565b6001600160a01b0381163b6112ad5760405162461bcd60e51b815260206004820152602d60248201527f455243313936373a206e657720696d706c656d656e746174696f6e206973206e60448201526c1bdd08184818dbdb9d1c9858dd609a1b60648201526084016105fa565b600080516020611c9d83398151915280546001600160a01b0319166001600160a01b0392909216919091179055565b6112e583611621565b6000825111806112f25750805b15610589576113018383611661565b50505050565b600082600001828154811061131e5761131e611b3f565b9060005260206000200154905092915050565b606061055e6001600160a01b03831660145b60606000611352836002611af3565b61135d906002611b0a565b67ffffffffffffffff81111561137557611375611839565b6040519080825280601f01601f19166020018201604052801561139f576020820181803683370190505b509050600360fc1b816000815181106113ba576113ba611b3f565b60200101906001600160f81b031916908160001a905350600f60fb1b816001815181106113e9576113e9611b3f565b60200101906001600160f81b031916908160001a905350600061140d846002611af3565b611418906001611b0a565b90505b6001811115611490576f181899199a1a9b1b9c1cb0b131b232b360811b85600f166010811061144c5761144c611b3f565b1a60f81b82828151811061146257611462611b3f565b60200101906001600160f81b031916908160001a90535060049490941c9361148981611c53565b905061141b565b508315610a115760405162461bcd60e51b815260206004820181905260248201527f537472696e67733a20686578206c656e67746820696e73756666696369656e7460448201526064016105fa565b60008181526001830160205260408120546115265750815460018181018455600084815260208082209093018490558454848252828601909352604090209190915561055e565b50600061055e565b60008181526001830160205260408120548015611617576000611552600183611ae0565b855490915060009061156690600190611ae0565b90508181146115cb57600086600001828154811061158657611586611b3f565b90600052602060002001549050808760000184815481106115a9576115a9611b3f565b6000918252602080832090910192909255918252600188019052604090208390555b85548690806115dc576115dc611c6a565b60019003818190600052602060002001600090559055856001016000868152602001908152602001600020600090556001935050505061055e565b600091505061055e565b61162a81611240565b6040516001600160a01b038216907fbc7cd75a20ee27fd9adebab32041f755214dbc6bffa90cc0225b39da2e5c2d3b90600090a250565b60606001600160a01b0383163b6116c95760405162461bcd60e51b815260206004820152602660248201527f416464726573733a2064656c65676174652063616c6c20746f206e6f6e2d636f6044820152651b9d1c9858dd60d21b60648201526084016105fa565b600080846001600160a01b0316846040516116e49190611c80565b600060405180830381855af49150503d806000811461171f576040519150601f19603f3d011682016040523d82523d6000602084013e611724565b606091505b509150915061174c8282604051806060016040528060278152602001611cbd60279139611755565b95945050505050565b60608315611764575081610a11565b610a1183838151156117795781518083602001fd5b8060405162461bcd60e51b81526004016105fa9190611c20565b6000602082840312156117a557600080fd5b81356001600160e01b031981168114610a1157600080fd5b6000602082840312156117cf57600080fd5b5035919050565b80356001600160a01b03811681146117ed57600080fd5b919050565b6000806040838503121561180557600080fd5b82359150611815602084016117d6565b90509250929050565b60006020828403121561183057600080fd5b610a11826117d6565b634e487b7160e01b600052604160045260246000fd5b604051601f8201601f1916810167ffffffffffffffff8111828210171561187857611878611839565b604052919050565b6000806040838503121561189357600080fd5b61189c836117d6565b915060208084013567ffffffffffffffff808211156118ba57600080fd5b818601915086601f8301126118ce57600080fd5b8135818111156118e0576118e0611839565b6118f2601f8201601f1916850161184f565b9150808252878482850101111561190857600080fd5b80848401858401376000848284010152508093505050509250929050565b6000806040838503121561193957600080fd5b50508035926020909101359150565b6000602080838503121561195b57600080fd5b823567ffffffffffffffff8082111561197357600080fd5b818501915085601f83011261198757600080fd5b81358181111561199957611999611839565b8060051b91506119aa84830161184f565b81815291830184019184810190888411156119c457600080fd5b938501935b838510156119e2578435825293850193908501906119c9565b98975050505050505050565b6020808252825182820181905260009190848201906040850190845b81811015611a2657835183529284019291840191600101611a0a565b50909695505050505050565b6020808252602c908201527f46756e6374696f6e206d7573742062652063616c6c6564207468726f7567682060408201526b19195b1959d85d1958d85b1b60a21b606082015260800190565b6020808252602c908201527f46756e6374696f6e206d7573742062652063616c6c6564207468726f7567682060408201526b6163746976652070726f787960a01b606082015260800190565b634e487b7160e01b600052601160045260246000fd5b8181038181111561055e5761055e611aca565b808202811582820484141761055e5761055e611aca565b8082018082111561055e5761055e611aca565b600082611b3a57634e487b7160e01b600052601260045260246000fd5b500490565b634e487b7160e01b600052603260045260246000fd5b600060018201611b6757611b67611aca565b5060010190565b600060208284031215611b8057600080fd5b5051919050565b60005b83811015611ba2578181015183820152602001611b8a565b50506000910152565b7f416363657373436f6e74726f6c3a206163636f756e7420000000000000000000815260008351611be3816017850160208801611b87565b7001034b99036b4b9b9b4b733903937b6329607d1b6017918401918201528351611c14816028840160208801611b87565b01602801949350505050565b6020815260008251806020840152611c3f816040850160208701611b87565b601f01601f19169190910160400192915050565b600081611c6257611c62611aca565b506000190190565b634e487b7160e01b600052603160045260246000fd5b60008251611c92818460208701611b87565b919091019291505056fe360894a13ba1a3210667c828492db98dca3e2076cc3735a920a3ca505d382bbc416464726573733a206c6f772d6c6576656c2064656c65676174652063616c6c206661696c6564a2646970667358221220be66c2ffb7b35ba9b22d05dd31321795784e6a802cde8ba1d77d699f9d04e9d964736f6c63430008120033",
  "linkReferences": {},
  "deployedLinkReferences": {}
}