{
  "_format": "hh-sol-artifact-1",
  "contractName": "Stamina",
  "sourceName": "contracts/stamina/Stamina.sol",
  "abi": [
    {
      "inputs": [],
      "stateMutability": "nonpayable",
      "type": "constructor"
    },
    {
      "anonymous": false,
      "inputs": [
        {
          "indexed": false,
          "internalType": "address",
          "name": "previousAdmin",
          "type": "address"
        },
        {
          "indexed": false,
          "internalType": "address",
          "name": "newAdmin",
          "type": "address"
        }
      ],
      "name": "AdminChanged",
      "type": "event"
    },
    {
      "anonymous": false,
      "inputs": [
        {
          "indexed": true,
          "internalType": "address",
          "name": "beacon",
          "type": "address"
        }
      ],
      "name": "BeaconUpgraded",
      "type": "event"
    },
    {
      "anonymous": false,
      "inputs": [
        {
          "indexed": true,
          "internalType": "uint256",
          "name": "monsterId",
          "type": "uint256"
        },
        {
          "indexed": true,
          "internalType": "uint256",
          "name": "consumedStamina",
          "type": "uint256"
        },
        {
          "indexed": true,
          "internalType": "uint256",
          "name": "newTimeStd",
          "type": "uint256"
        }
      ],
      "name": "ConsumeStamina",
      "type": "event"
    },
    {
      "anonymous": false,
      "inputs": [
        {
          "indexed": false,
          "internalType": "uint8",
          "name": "version",
          "type": "uint8"
        }
      ],
      "name": "Initialized",
      "type": "event"
    },
    {
      "anonymous": false,
      "inputs": [
        {
          "indexed": true,
          "internalType": "bytes32",
          "name": "role",
          "type": "bytes32"
        },
        {
          "indexed": true,
          "internalType": "bytes32",
          "name": "previousAdminRole",
          "type": "bytes32"
        },
        {
          "indexed": true,
          "internalType": "bytes32",
          "name": "newAdminRole",
          "type": "bytes32"
        }
      ],
      "name": "RoleAdminChanged",
      "type": "event"
    },
    {
      "anonymous": false,
      "inputs": [
        {
          "indexed": true,
          "internalType": "bytes32",
          "name": "role",
          "type": "bytes32"
        },
        {
          "indexed": true,
          "internalType": "address",
          "name": "account",
          "type": "address"
        },
        {
          "indexed": true,
          "internalType": "address",
          "name": "sender",
          "type": "address"
        }
      ],
      "name": "RoleGranted",
      "type": "event"
    },
    {
      "anonymous": false,
      "inputs": [
        {
          "indexed": true,
          "internalType": "bytes32",
          "name": "role",
          "type": "bytes32"
        },
        {
          "indexed": true,
          "internalType": "address",
          "name": "account",
          "type": "address"
        },
        {
          "indexed": true,
          "internalType": "address",
          "name": "sender",
          "type": "address"
        }
      ],
      "name": "RoleRevoked",
      "type": "event"
    },
    {
      "anonymous": false,
      "inputs": [
        {
          "indexed": true,
          "internalType": "address",
          "name": "publisher",
          "type": "address"
        },
        {
          "indexed": true,
          "internalType": "address",
          "name": "newValue",
          "type": "address"
        }
      ],
      "name": "SetPromptMonstersAddress",
      "type": "event"
    },
    {
      "anonymous": false,
      "inputs": [
        {
          "indexed": true,
          "internalType": "address",
          "name": "publisher",
          "type": "address"
        },
        {
          "indexed": true,
          "internalType": "uint256",
          "name": "newValue",
          "type": "uint256"
        }
      ],
      "name": "SetStaminaLimit",
      "type": "event"
    },
    {
      "anonymous": false,
      "inputs": [
        {
          "indexed": true,
          "internalType": "address",
          "name": "publisher",
          "type": "address"
        },
        {
          "indexed": true,
          "internalType": "uint256",
          "name": "newValue",
          "type": "uint256"
        }
      ],
      "name": "SetStaminaRecoveryTime",
      "type": "event"
    },
    {
      "anonymous": false,
      "inputs": [
        {
          "indexed": true,
          "internalType": "address",
          "name": "publisher",
          "type": "address"
        },
        {
          "indexed": true,
          "internalType": "uint256",
          "name": "monsterId",
          "type": "uint256"
        },
        {
          "indexed": true,
          "internalType": "uint256",
          "name": "newValue",
          "type": "uint256"
        }
      ],
      "name": "SetTimeStd",
      "type": "event"
    },
    {
      "anonymous": false,
      "inputs": [
        {
          "indexed": true,
          "internalType": "address",
          "name": "implementation",
          "type": "address"
        }
      ],
      "name": "Upgraded",
      "type": "event"
    },
    {
      "inputs": [],
      "name": "DEFAULT_ADMIN_ROLE",
      "outputs": [
        {
          "internalType": "bytes32",
          "name": "",
          "type": "bytes32"
        }
      ],
      "stateMutability": "view",
      "type": "function"
    },
    {
      "inputs": [],
      "name": "GAME_ROLE",
      "outputs": [
        {
          "internalType": "bytes32",
          "name": "",
          "type": "bytes32"
        }
      ],
      "stateMutability": "view",
      "type": "function"
    },
    {
      "inputs": [
        {
          "internalType": "uint256",
          "name": "monsterId",
          "type": "uint256"
        }
      ],
      "name": "calculateStamina",
      "outputs": [
        {
          "internalType": "uint256",
          "name": "",
          "type": "uint256"
        }
      ],
      "stateMutability": "view",
      "type": "function"
    },
    {
      "inputs": [
        {
          "internalType": "uint256",
          "name": "monsterId",
          "type": "uint256"
        },
        {
          "internalType": "uint256",
          "name": "consumedStamina",
          "type": "uint256"
        }
      ],
      "name": "consumeStamina",
      "outputs": [],
      "stateMutability": "nonpayable",
      "type": "function"
    },
    {
      "inputs": [],
      "name": "getPromptMonstersAddress",
      "outputs": [
        {
          "internalType": "address",
          "name": "",
          "type": "address"
        }
      ],
      "stateMutability": "view",
      "type": "function"
    },
    {
      "inputs": [
        {
          "internalType": "bytes32",
          "name": "role",
          "type": "bytes32"
        }
      ],
      "name": "getRoleAdmin",
      "outputs": [
        {
          "internalType": "bytes32",
          "name": "",
          "type": "bytes32"
        }
      ],
      "stateMutability": "view",
      "type": "function"
    },
    {
      "inputs": [
        {
          "internalType": "bytes32",
          "name": "role",
          "type": "bytes32"
        },
        {
          "internalType": "uint256",
          "name": "index",
          "type": "uint256"
        }
      ],
      "name": "getRoleMember",
      "outputs": [
        {
          "internalType": "address",
          "name": "",
          "type": "address"
        }
      ],
      "stateMutability": "view",
      "type": "function"
    },
    {
      "inputs": [
        {
          "internalType": "bytes32",
          "name": "role",
          "type": "bytes32"
        }
      ],
      "name": "getRoleMemberCount",
      "outputs": [
        {
          "internalType": "uint256",
          "name": "",
          "type": "uint256"
        }
      ],
      "stateMutability": "view",
      "type": "function"
    },
    {
      "inputs": [
        {
          "internalType": "uint256",
          "name": "monsterId",
          "type": "uint256"
        }
      ],
      "name": "getTimeStd",
      "outputs": [
        {
          "internalType": "uint256",
          "name": "",
          "type": "uint256"
        }
      ],
      "stateMutability": "view",
      "type": "function"
    },
    {
      "inputs": [
        {
          "internalType": "uint256[]",
          "name": "monsterIds",
          "type": "uint256[]"
        }
      ],
      "name": "getTimeStds",
      "outputs": [
        {
          "internalType": "uint256[]",
          "name": "",
          "type": "uint256[]"
        }
      ],
      "stateMutability": "view",
      "type": "function"
    },
    {
      "inputs": [
        {
          "internalType": "bytes32",
          "name": "role",
          "type": "bytes32"
        },
        {
          "internalType": "address",
          "name": "account",
          "type": "address"
        }
      ],
      "name": "grantRole",
      "outputs": [],
      "stateMutability": "nonpayable",
      "type": "function"
    },
    {
      "inputs": [
        {
          "internalType": "bytes32",
          "name": "role",
          "type": "bytes32"
        },
        {
          "internalType": "address",
          "name": "account",
          "type": "address"
        }
      ],
      "name": "hasRole",
      "outputs": [
        {
          "internalType": "bool",
          "name": "",
          "type": "bool"
        }
      ],
      "stateMutability": "view",
      "type": "function"
    },
    {
      "inputs": [
        {
          "internalType": "address",
          "name": "promptMonstersAddress",
          "type": "address"
        }
      ],
      "name": "initialize",
      "outputs": [],
      "stateMutability": "nonpayable",
      "type": "function"
    },
    {
      "inputs": [],
      "name": "promptMonsters",
      "outputs": [
        {
          "internalType": "contract IPromptMonsters",
          "name": "",
          "type": "address"
        }
      ],
      "stateMutability": "view",
      "type": "function"
    },
    {
      "inputs": [],
      "name": "proxiableUUID",
      "outputs": [
        {
          "internalType": "bytes32",
          "name": "",
          "type": "bytes32"
        }
      ],
      "stateMutability": "view",
      "type": "function"
    },
    {
      "inputs": [
        {
          "internalType": "bytes32",
          "name": "role",
          "type": "bytes32"
        },
        {
          "internalType": "address",
          "name": "account",
          "type": "address"
        }
      ],
      "name": "renounceRole",
      "outputs": [],
      "stateMutability": "nonpayable",
      "type": "function"
    },
    {
      "inputs": [
        {
          "internalType": "bytes32",
          "name": "role",
          "type": "bytes32"
        },
        {
          "internalType": "address",
          "name": "account",
          "type": "address"
        }
      ],
      "name": "revokeRole",
      "outputs": [],
      "stateMutability": "nonpayable",
      "type": "function"
    },
    {
      "inputs": [
        {
          "internalType": "address",
          "name": "promptMonstersAddress",
          "type": "address"
        }
      ],
      "name": "setPromptMonstersAddress",
      "outputs": [],
      "stateMutability": "nonpayable",
      "type": "function"
    },
    {
      "inputs": [
        {
          "internalType": "uint256",
          "name": "_staminaLimit",
          "type": "uint256"
        }
      ],
      "name": "setStaminaLimit",
      "outputs": [],
      "stateMutability": "nonpayable",
      "type": "function"
    },
    {
      "inputs": [
        {
          "internalType": "uint256",
          "name": "_staminaRecoveryTime",
          "type": "uint256"
        }
      ],
      "name": "setStaminaRecoveryTime",
      "outputs": [],
      "stateMutability": "nonpayable",
      "type": "function"
    },
    {
      "inputs": [
        {
          "internalType": "uint256",
          "name": "monsterId",
          "type": "uint256"
        },
        {
          "internalType": "uint256",
          "name": "_timeStd",
          "type": "uint256"
        }
      ],
      "name": "setTimeStd",
      "outputs": [],
      "stateMutability": "nonpayable",
      "type": "function"
    },
    {
      "inputs": [],
      "name": "staminaLimit",
      "outputs": [
        {
          "internalType": "uint256",
          "name": "",
          "type": "uint256"
        }
      ],
      "stateMutability": "view",
      "type": "function"
    },
    {
      "inputs": [],
      "name": "staminaRecoveryTime",
      "outputs": [
        {
          "internalType": "uint256",
          "name": "",
          "type": "uint256"
        }
      ],
      "stateMutability": "view",
      "type": "function"
    },
    {
      "inputs": [
        {
          "internalType": "bytes4",
          "name": "interfaceId",
          "type": "bytes4"
        }
      ],
      "name": "supportsInterface",
      "outputs": [
        {
          "internalType": "bool",
          "name": "",
          "type": "bool"
        }
      ],
      "stateMutability": "view",
      "type": "function"
    },
    {
      "inputs": [
        {
          "internalType": "uint256",
          "name": "",
          "type": "uint256"
        }
      ],
      "name": "timeStd",
      "outputs": [
        {
          "internalType": "uint256",
          "name": "",
          "type": "uint256"
        }
      ],
      "stateMutability": "view",
      "type": "function"
    },
    {
      "inputs": [
        {
          "internalType": "address",
          "name": "newImplementation",
          "type": "address"
        }
      ],
      "name": "upgradeTo",
      "outputs": [],
      "stateMutability": "nonpayable",
      "type": "function"
    },
    {
      "inputs": [
        {
          "internalType": "address",
          "name": "newImplementation",
          "type": "address"
        },
        {
          "internalType": "bytes",
          "name": "data",
          "type": "bytes"
        }
      ],
      "name": "upgradeToAndCall",
      "outputs": [],
      "stateMutability": "payable",
      "type": "function"
    }
  ],
  "bytecode": "0x60a06040523060805234801561001457600080fd5b5061001d610022565b6100e2565b600054610100900460ff161561008e5760405162461bcd60e51b815260206004820152602760248201527f496e697469616c697a61626c653a20636f6e747261637420697320696e697469604482015266616c697a696e6760c81b606482015260840160405180910390fd5b60005460ff90811610156100e0576000805460ff191660ff9081179091556040519081527f7f26b83ff96e1f2b6a682f133852f6798a09c465da95921460cefb38474024989060200160405180910390a15b565b608051611d0f6101196000396000818161061b0152818161065b015281816106fa0152818161073a01526107c90152611d0f6000f3fe60806040526004361061019c5760003560e01c80639010d07c116100ec578063ca15c8731161008a578063d547741f11610064578063d547741f146104ac578063d5bacb03146104cc578063d820091f146104ec578063e68561741461050c57600080fd5b8063ca15c8731461044b578063ce32cee21461046b578063d47a510a1461048c57600080fd5b8063a217fddf116100c6578063a217fddf146103df578063a851260a146103f4578063ab40070614610414578063c4d66de81461042b57600080fd5b80639010d07c1461036857806391d14854146103a0578063974747b4146103c057600080fd5b80634f1ef286116101595780637269ddde116101335780637269ddde146102cc578063739420a5146102fa57806376a965a11461031a57806382cbe5001461033a57600080fd5b80634f1ef2861461028d578063501d2fff146102a057806352d1902d146102b757600080fd5b806301ffc9a7146101a15780631e7bccc6146101d6578063248a9ca3146101fb5780632f2ff15d1461022b57806336568abe1461024d5780633659cfe61461026d575b600080fd5b3480156101ad57600080fd5b506101c16101bc366004611789565b610539565b60405190151581526020015b60405180910390f35b3480156101e257600080fd5b506101ed6101305481565b6040519081526020016101cd565b34801561020757600080fd5b506101ed6102163660046117b3565b60009081526065602052604090206001015490565b34801561023757600080fd5b5061024b6102463660046117e8565b610564565b005b34801561025957600080fd5b5061024b6102683660046117e8565b61058e565b34801561027957600080fd5b5061024b610288366004611814565b610611565b61024b61029b366004611876565b6106f0565b3480156102ac57600080fd5b506101ed61012f5481565b3480156102c357600080fd5b506101ed6107bc565b3480156102d857600080fd5b506101ed6102e73660046117b3565b6000908152610131602052604090205490565b34801561030657600080fd5b5061024b61031536600461191c565b61086f565b34801561032657600080fd5b5061024b6103353660046117b3565b6109ad565b34801561034657600080fd5b506101ed6103553660046117b3565b6101316020526000908152604090205481565b34801561037457600080fd5b5061038861038336600461191c565b6109ef565b6040516001600160a01b0390911681526020016101cd565b3480156103ac57600080fd5b506101c16103bb3660046117e8565b610a0e565b3480156103cc57600080fd5b5061012e546001600160a01b0316610388565b3480156103eb57600080fd5b506101ed600081565b34801561040057600080fd5b506101ed61040f3660046117b3565b610a39565b34801561042057600080fd5b506101ed61012d5481565b34801561043757600080fd5b5061024b610446366004611814565b610a90565b34801561045757600080fd5b506101ed6104663660046117b3565b610c0e565b34801561047757600080fd5b5061012e54610388906001600160a01b031681565b34801561049857600080fd5b5061024b6104a736600461191c565b610c25565b3480156104b857600080fd5b5061024b6104c73660046117e8565b610cd0565b3480156104d857600080fd5b5061024b6104e7366004611814565b610cf5565b3480156104f857600080fd5b5061024b6105073660046117b3565b610d4e565b34801561051857600080fd5b5061052c61052736600461193e565b610d90565b6040516101cd91906119e4565b60006001600160e01b03198216635a05180f60e01b148061055e575061055e82610e4a565b92915050565b60008281526065602052604090206001015461057f81610e7f565b6105898383610e89565b505050565b6001600160a01b03811633146106035760405162461bcd60e51b815260206004820152602f60248201527f416363657373436f6e74726f6c3a2063616e206f6e6c792072656e6f756e636560448201526e103937b632b9903337b91039b2b63360891b60648201526084015b60405180910390fd5b61060d8282610eab565b5050565b6001600160a01b037f00000000000000000000000000000000000000000000000000000000000000001630036106595760405162461bcd60e51b81526004016105fa90611a28565b7f00000000000000000000000000000000000000000000000000000000000000006001600160a01b03166106a2600080516020611c93833981519152546001600160a01b031690565b6001600160a01b0316146106c85760405162461bcd60e51b81526004016105fa90611a74565b6106d181610ecd565b604080516000808252602082019092526106ed91839190610ed8565b50565b6001600160a01b037f00000000000000000000000000000000000000000000000000000000000000001630036107385760405162461bcd60e51b81526004016105fa90611a28565b7f00000000000000000000000000000000000000000000000000000000000000006001600160a01b0316610781600080516020611c93833981519152546001600160a01b031690565b6001600160a01b0316146107a75760405162461bcd60e51b81526004016105fa90611a74565b6107b082610ecd565b61060d82826001610ed8565b6000306001600160a01b037f0000000000000000000000000000000000000000000000000000000000000000161461085c5760405162461bcd60e51b815260206004820152603860248201527f555550535570677261646561626c653a206d757374206e6f742062652063616c60448201527f6c6564207468726f7567682064656c656761746563616c6c000000000000000060648201526084016105fa565b50600080516020611c9383398151915290565b61012d5461087c81610e7f565b61012e54604051638318646560e01b8152600481018590526001600160a01b039091169063831864659060240160006040518083038186803b1580156108c157600080fd5b505afa1580156108d5573d6000803e3d6000fd5b5050506000848152610131602052604081205461012f5461013054919350916108fe8442611ad6565b905083158061091657506109128284611ae9565b8110155b1561095457816109268785611ad6565b6109309190611ae9565b61093a9042611ad6565b600088815261013160205260409020555061058992505050565b61095e8683611ae9565b6109689085611b00565b600088815261013160205260408082208390555188918a917f7d0d22c542374e9d1ff922e32343795ed8f2d1dfde9160f5bc6c1bf819c685759190a450505050505050565b60006109b881610e7f565b61012f829055604051829033907f3bdc753e10059ae4cce09f4bb277b1d9ae445b0b8d2fc57e2394f6db7731d8ab90600090a35050565b6000828152609760205260408120610a079083611043565b9392505050565b60009182526065602090815260408084206001600160a01b0393909316845291905290205460ff1690565b6000818152610131602052604081205461012f54818303610a5b579392505050565b61013054600090610a6c8442611ad6565b610a769190611b13565b905081811115610a8857509392505050565b949350505050565b600054610100900460ff1615808015610ab05750600054600160ff909116105b80610aca5750303b158015610aca575060005460ff166001145b610b2d5760405162461bcd60e51b815260206004820152602e60248201527f496e697469616c697a61626c653a20636f6e747261637420697320616c72656160448201526d191e481a5b9a5d1a585b1a5e995960921b60648201526084016105fa565b6000805460ff191660011790558015610b50576000805461ff0019166101001790555b610b5861104f565b610b6061104f565b61012e80546001600160a01b0319166001600160a01b038416179055600361012f55617080610130557f6a64baf327d646d1bca72653e2a075d15fd6ac6d8cbd7f6ee03fc55875e0fa8861012d819055610bba9033610e89565b610bc5600033610e89565b801561060d576000805461ff0019169055604051600181527f7f26b83ff96e1f2b6a682f133852f6798a09c465da95921460cefb38474024989060200160405180910390a15050565b600081815260976020526040812061055e906110bc565b6000610c3081610e7f565b61012e54604051638318646560e01b8152600481018590526001600160a01b039091169063831864659060240160006040518083038186803b158015610c7557600080fd5b505afa158015610c89573d6000803e3d6000fd5b5050506000848152610131602052604080822085905551849250859133917f3e7c993cca769387f3db729665c330ce2efc058c604b7090e6dc7c5334cbef189190a4505050565b600082815260656020526040902060010154610ceb81610e7f565b6105898383610eab565b6000610d0081610e7f565b61012e80546001600160a01b0319166001600160a01b03841690811790915560405133907fbd099e12f37fee634effde3ec3b6bac8c16ade502c7275e1316d2c4bbf44589490600090a35050565b6000610d5981610e7f565b610130829055604051829033907fb7d3072c2a06a5dafa96c48209e7c8f937c75678b30d439751fe983d3f4a1f4d90600090a35050565b60606000825167ffffffffffffffff811115610dae57610dae61182f565b604051908082528060200260200182016040528015610dd7578160200160208202803683370190505b50905060005b8351811015610e43576101316000858381518110610dfd57610dfd611b35565b6020026020010151815260200190815260200160002054828281518110610e2657610e26611b35565b602090810291909101015280610e3b81611b4b565b915050610ddd565b5092915050565b60006001600160e01b03198216637965db0b60e01b148061055e57506301ffc9a760e01b6001600160e01b031983161461055e565b6106ed81336110c6565b610e93828261111f565b600082815260976020526040902061058990826111a5565b610eb582826111ba565b60008281526097602052604090206105899082611221565b600061060d81610e7f565b7f4910fdfa16fed3260ed0e7147f7cc6da11a60208b5b9406d12a635614ffd91435460ff1615610f0b5761058983611236565b826001600160a01b03166352d1902d6040518163ffffffff1660e01b8152600401602060405180830381865afa925050508015610f65575060408051601f3d908101601f19168201909252610f6291810190611b64565b60015b610fc85760405162461bcd60e51b815260206004820152602e60248201527f45524331393637557067726164653a206e657720696d706c656d656e7461746960448201526d6f6e206973206e6f74205555505360901b60648201526084016105fa565b600080516020611c9383398151915281146110375760405162461bcd60e51b815260206004820152602960248201527f45524331393637557067726164653a20756e737570706f727465642070726f786044820152681a58589b195555525160ba1b60648201526084016105fa565b506105898383836112d2565b6000610a0783836112fd565b600054610100900460ff166110ba5760405162461bcd60e51b815260206004820152602b60248201527f496e697469616c697a61626c653a20636f6e7472616374206973206e6f74206960448201526a6e697469616c697a696e6760a81b60648201526084016105fa565b565b600061055e825490565b6110d08282610a0e565b61060d576110dd81611327565b6110e8836020611339565b6040516020016110f9929190611ba1565b60408051601f198184030181529082905262461bcd60e51b82526105fa91600401611c16565b6111298282610a0e565b61060d5760008281526065602090815260408083206001600160a01b03851684529091529020805460ff191660011790556111613390565b6001600160a01b0316816001600160a01b0316837f2f8788117e7eff1d82e926ec794901d17c78024a50270940304540a733656f0d60405160405180910390a45050565b6000610a07836001600160a01b0384166114d5565b6111c48282610a0e565b1561060d5760008281526065602090815260408083206001600160a01b0385168085529252808320805460ff1916905551339285917ff6391f5c32d9c69d2a47ea670b442974b53935d1edc7fd64eb21e047a839171b9190a45050565b6000610a07836001600160a01b038416611524565b6001600160a01b0381163b6112a35760405162461bcd60e51b815260206004820152602d60248201527f455243313936373a206e657720696d706c656d656e746174696f6e206973206e60448201526c1bdd08184818dbdb9d1c9858dd609a1b60648201526084016105fa565b600080516020611c9383398151915280546001600160a01b0319166001600160a01b0392909216919091179055565b6112db83611617565b6000825111806112e85750805b15610589576112f78383611657565b50505050565b600082600001828154811061131457611314611b35565b9060005260206000200154905092915050565b606061055e6001600160a01b03831660145b60606000611348836002611ae9565b611353906002611b00565b67ffffffffffffffff81111561136b5761136b61182f565b6040519080825280601f01601f191660200182016040528015611395576020820181803683370190505b509050600360fc1b816000815181106113b0576113b0611b35565b60200101906001600160f81b031916908160001a905350600f60fb1b816001815181106113df576113df611b35565b60200101906001600160f81b031916908160001a9053506000611403846002611ae9565b61140e906001611b00565b90505b6001811115611486576f181899199a1a9b1b9c1cb0b131b232b360811b85600f166010811061144257611442611b35565b1a60f81b82828151811061145857611458611b35565b60200101906001600160f81b031916908160001a90535060049490941c9361147f81611c49565b9050611411565b508315610a075760405162461bcd60e51b815260206004820181905260248201527f537472696e67733a20686578206c656e67746820696e73756666696369656e7460448201526064016105fa565b600081815260018301602052604081205461151c5750815460018181018455600084815260208082209093018490558454848252828601909352604090209190915561055e565b50600061055e565b6000818152600183016020526040812054801561160d576000611548600183611ad6565b855490915060009061155c90600190611ad6565b90508181146115c157600086600001828154811061157c5761157c611b35565b906000526020600020015490508087600001848154811061159f5761159f611b35565b6000918252602080832090910192909255918252600188019052604090208390555b85548690806115d2576115d2611c60565b60019003818190600052602060002001600090559055856001016000868152602001908152602001600020600090556001935050505061055e565b600091505061055e565b61162081611236565b6040516001600160a01b038216907fbc7cd75a20ee27fd9adebab32041f755214dbc6bffa90cc0225b39da2e5c2d3b90600090a250565b60606001600160a01b0383163b6116bf5760405162461bcd60e51b815260206004820152602660248201527f416464726573733a2064656c65676174652063616c6c20746f206e6f6e2d636f6044820152651b9d1c9858dd60d21b60648201526084016105fa565b600080846001600160a01b0316846040516116da9190611c76565b600060405180830381855af49150503d8060008114611715576040519150601f19603f3d011682016040523d82523d6000602084013e61171a565b606091505b50915091506117428282604051806060016040528060278152602001611cb36027913961174b565b95945050505050565b6060831561175a575081610a07565b610a07838381511561176f5781518083602001fd5b8060405162461bcd60e51b81526004016105fa9190611c16565b60006020828403121561179b57600080fd5b81356001600160e01b031981168114610a0757600080fd5b6000602082840312156117c557600080fd5b5035919050565b80356001600160a01b03811681146117e357600080fd5b919050565b600080604083850312156117fb57600080fd5b8235915061180b602084016117cc565b90509250929050565b60006020828403121561182657600080fd5b610a07826117cc565b634e487b7160e01b600052604160045260246000fd5b604051601f8201601f1916810167ffffffffffffffff8111828210171561186e5761186e61182f565b604052919050565b6000806040838503121561188957600080fd5b611892836117cc565b915060208084013567ffffffffffffffff808211156118b057600080fd5b818601915086601f8301126118c457600080fd5b8135818111156118d6576118d661182f565b6118e8601f8201601f19168501611845565b915080825287848285010111156118fe57600080fd5b80848401858401376000848284010152508093505050509250929050565b6000806040838503121561192f57600080fd5b50508035926020909101359150565b6000602080838503121561195157600080fd5b823567ffffffffffffffff8082111561196957600080fd5b818501915085601f83011261197d57600080fd5b81358181111561198f5761198f61182f565b8060051b91506119a0848301611845565b81815291830184019184810190888411156119ba57600080fd5b938501935b838510156119d8578435825293850193908501906119bf565b98975050505050505050565b6020808252825182820181905260009190848201906040850190845b81811015611a1c57835183529284019291840191600101611a00565b50909695505050505050565b6020808252602c908201527f46756e6374696f6e206d7573742062652063616c6c6564207468726f7567682060408201526b19195b1959d85d1958d85b1b60a21b606082015260800190565b6020808252602c908201527f46756e6374696f6e206d7573742062652063616c6c6564207468726f7567682060408201526b6163746976652070726f787960a01b606082015260800190565b634e487b7160e01b600052601160045260246000fd5b8181038181111561055e5761055e611ac0565b808202811582820484141761055e5761055e611ac0565b8082018082111561055e5761055e611ac0565b600082611b3057634e487b7160e01b600052601260045260246000fd5b500490565b634e487b7160e01b600052603260045260246000fd5b600060018201611b5d57611b5d611ac0565b5060010190565b600060208284031215611b7657600080fd5b5051919050565b60005b83811015611b98578181015183820152602001611b80565b50506000910152565b7f416363657373436f6e74726f6c3a206163636f756e7420000000000000000000815260008351611bd9816017850160208801611b7d565b7001034b99036b4b9b9b4b733903937b6329607d1b6017918401918201528351611c0a816028840160208801611b7d565b01602801949350505050565b6020815260008251806020840152611c35816040850160208701611b7d565b601f01601f19169190910160400192915050565b600081611c5857611c58611ac0565b506000190190565b634e487b7160e01b600052603160045260246000fd5b60008251611c88818460208701611b7d565b919091019291505056fe360894a13ba1a3210667c828492db98dca3e2076cc3735a920a3ca505d382bbc416464726573733a206c6f772d6c6576656c2064656c65676174652063616c6c206661696c6564a2646970667358221220ba54113714def6bb1a2d4b90cea1e9884287483f8f8abf0a4f9a4f59924c880264736f6c63430008120033",
  "linkReferences": {},
  "deployedLinkReferences": {}
}